:020000041804DE
:10CB900010B5024B00221B68984710BDACB90000CD
:10CBA00010B5024B01221B68984710BDACB90000BC
:10CBB00010B5024B00221B68984710BDACB90000AD
:10CBC00010B5024B01221B68984710BDACB900009C
:10CBD000F8B5092031F098FA114D2E68002E1CD1BD
:10CBE000F8BD3B00A3401E4203D02000C9B200F0B4
:10CBF0001DFA0134E4B20B4B1B78013B9C4202DA74
:10CC000029890029EDD12B68002BE9D02B89002B35
:10CC1000E6D0092031F056FAE2E700240127EAE7DE
:10CC2000B0B90000E5BE000010B5040001280ED028
:10CC3000022809D0002803D10920084931F026FA3A
:10CC4000200000F03DF910BD092031F05DFA0C2202
:10CC50000021034833F0CCF9F2E7C046D1CB0418E9
:10CC6000B0B9000010B500F031F810BD024B98804B
:10CC7000D98019817047C046B0B90000014B1889AE
:10CC80007047C046B0B9000070B50125094C854019
:10CC9000236800290BD01D4205D12389002B02D027
:10CCA000092031F00FFA23681D43256070BDAB43A6
:10CCB0002360FBE7B0B9000010B504000021FFF7C6
:10CCC000E3FF0021200000F089F810BDF8B5184FEF
:10CCD00086003B6804009B59002B05D00022154BB1
:10CCE000110001201B6898470423200218430021EB
:10CCF00031F0D6F80021382030F086FE041E08D12D
:10CD00000C4B020001001B68012098473B689C51B6
:10CD1000F8BD002520C031F059FD2000E560A57662
:10CD2000103031F053FD0423E5762377EEE7C0465B
:10CD3000C8B9000038BF000070B5042400020443E5
:10CD4000200016000D0031F017F9002E05D0284301
:10CD5000C1B2200031F0A4F870BDA843F8E700008C
:10CD6000F8B50D00110004221C0006AB1E8800025D
:10CD700007AB1F8802430623044830F011FD0570FD
:10CD800087804680447030F02FFDF8BD040A000013
:10CD9000F7B51300104A0D00126881008E58040088
:10CDA000002E17D0002D15D1316800290DD00F00AD
:10CDB00005200C3F3A890978009001952000FFF783
:10CDC000CFFF380030F040FD356000220121200007
:10CDD000FFF7B2FFF7BDC046C8B90000F0B5334F4A
:10CDE00087B0830004933B6882009D5804220302AD
:10CDF0001A43040003910592002D27D02C481100FE
:10CE000030F04CFC2868002807D0039B002B23D16E
:10CE1000462219002000FFF7BBFF012629690029DF
:10CE20001ED1E868002801D030F07AFE214AAB7E9E
:10CE300011895B1813816E68002E17D13B68049A24
:10CE4000985830F06DFE3B68049A9E503F2105983B
:10CE500031F026F807B0F0BD0C3830F0F5FCDCE717
:10CE6000039A2000724001F00DFFD7E7281D31F032
:10CE70000BFD039B0600002B0DD182880E4B9A42BE
:10CE80000DD1039B02890193438A06210093200060
:10CE90004623FFF765FF300030F042FECBE7074B3B
:10CEA000210002201B689847F5E7C046C8B900007A
:10CEB000140A0000B0B90000120A000038BF0000D8
:10CEC00070B5040001282FD002282BD0002814D1DF
:10CED0001A491B4B1B4D0B601B4B04201B6804267F
:10CEE0004B602B78013B0B81184B1B884B8130F03A
:10CEF0007FFF2B78013B9C4200DB70BD20023F216D
:10CF00003043013430F0CCFFE4B2F2E720000121DD
:10CF1000FFF764FF0134E4B20A4B1B78013B9C42EB
:10CF2000F4DBEAE70024F7E7064B00211A78084B08
:10CF3000013A1868920033F05BF8DEE7BCB90000F4
:10CF400040DB0418E5BE0000CCB90000A8DB0418E3
:10CF5000C8B900000F4B70B51B688200D5580E4B46
:10CF60000C001B78013B984205DB00220B4B1100A3
:10CF700001201B689847002C05D00022074B1100A8
:10CF800001201B689847A4006359181E00D0187828
:10CF900070BDC046C8B90000E5BE000038BF000043
:10CFA0000D4B70B51B688200D5580C4B0C001B78DC
:10CFB000013B984205DB0022094B110001201B6850
:10CFC0009847002C05D00022054B110001201B685A
:10CFD0009847A400605970BDC8B90000E5BE0000C4
:10CFE00038BF00000E4B70B51B6815008200D65884
:10CFF0000C4B0C001B78013B984205DB00220A4BCE
:10D00000110001201B689847002C05D00022064B18
:10D01000110001201B689847A400A55170BDC046AF
:10D02000C8B90000E5BE000038BF0000F0B5AB4B4A
:10D0300082001B688FB0D358070008910493002B1F
:10D0400000D143E15C68231E02D00B005A1E9341BD
:10D05000042206933B021A430B92069B002B00D13D
:10D060002CE1162308AA9B1800221A8015230125FB
:10D0700008AA9B181D7014F049FB0590002805D1E3
:10D08000974B020001001B6828009847954A059BB2
:10D09000944663440993A188934B994235D0934BAE
:10D0A000994200D0A9E0152208ABD218E3892000EC
:10D0B000591E8B4113700092162208A952182100A4
:10D0C000099B0E31103000F0E5FD0300051E03D171
:10D0D000228A002A00D095E0002122890191618AEC
:10D0E000380000910621FFF73BFE049B181D31F02C
:10D0F000CBFB200030F0A8FB002D00D17BE0059891
:10D1000014F050FB00230693D4E002213800228A59
:10D1100001F09CFD061E00D1DCE0431CDB7FDB0739
:10D1200000D4D5E0438BE5890793A38A0A93002DA9
:10D1300016D11D00079B02359D4200D91D00ADB2DE
:10D14000B18B002904D1664B0A0001201B68984767
:10D15000B38B013BB383638A0133638200230EE008
:10D16000A81C0799FFF72CFD079B0A9A5B1A551B11
:10D170009D4200D91D00ADB28BB20029E0D05A1EED
:10D180009341152208A9DBB252181370162202939C
:10D190002300521821000E33019500933800099B9B
:10D1A000103100F003FD051E03D1E289A38A9A42E3
:10D1B00015D1B37B618A2289380001910093042143
:10D1C0002B00FFF7CDFD049B181D31F05DFB200007
:10D1D00030F03AFB002E8FD0002373608CE7B58BC4
:10D1E000002D0FD102230136F27F1343F377049B06
:10D1F000181D31F049FB069504E0394B3A00032035
:10D200001B689847380007F001FA082301000B9AC1
:10D21000374830F0C5FA162308AA9B18198805006C
:10D220004180002904D12E4B0320A2881B68984717
:10D23000059B38006B6007F0E9F9000B08D0284B1C
:10D2400038001E6807F0E2F92A4902000320B047BF
:10D2500038002E8807F0DAF91523360B360336B27C
:10D26000064308AA2E809B181A78234E13033342D4
:10D2700005D0C0211A4B03201B68890198472B88D1
:10D2800008AA1E4015239B181B7828001B031E4369
:10D29000B604B60C2E8010F071FD184A0899138957
:10D2A0000139013B1381049B049A9B7E01339376E1
:10D2B000CBB20893089B002B00D0CEE6049B38002D
:10D2C00059684B1E9941C9B2FFF7DEFC0FB0F0BDA3
:10D2D00033256EE73325237C6CE7C046C8B90000D0
:10D2E00038BF0000004000500D0A0000120A000084
:10D2F00006110000FF0F0000FFCFFFFFB0B90000D4
:10D3000010B5024B1B68984710BDC046C4BF000053
:10D3100000207047F7B510000D0014001E0030F01B
:10D320002BFE240A462329783F2803D04B1F5A1E80
:10D33000934142330027E879AA790002024301971A
:10D34000200000923200FFF70BFD3800FEBD73B5E0
:10D3500010000E00150030F00FFE00243F280AD008
:10D36000F388052B07D13378280AA34205D1311D54
:10D3700001F008FC0400200076BD332BFBD0717A4D
:10D38000312B05D1012200941A3B01F093FBF2E707
:10D390000029F0D0230022000094F6E7F0B50888B9
:10D3A00089B00005000D059107F014F90600FF286B
:10D3B00058D04E4B82001B68D558059B59684C4B82
:10D3C000CB180793002904D14A4B0A0001201B689F
:10D3D0009847059B02AA5B885382059B1B889B0488
:10D3E0009F0F002D05D1434B2A00290001201B6807
:10D3F0009847012F04D0022F34D1300000F0E4FE12
:10D40000EA7E2B7F9A4208D2122302AA9B181A00A6
:10D41000300007A900F038FF0227EC68002C21D06B
:10D42000A188354B994225D0344B994258D1029767
:10D4300002AB5B8A22000193079B210000932B0023
:10D44000300018330E32103100F066FD002802D192
:10D450002B8B002B06D10023EB60207320000C30B7
:10D4600030F0C2F9059B586880B214F007F900202B
:10D4700009B0F0BD2A0002AB18325B8A019222008B
:10D4800021000E32029700923000079A103100F00E
:10D49000C3FB071E02D12B8B002BE3D101213000EF
:10D4A000228A01F0D3FB011E16D0431CDB7FDB0771
:10D4B00012D5002F0BD1E289A38A9A4204D187604A
:10D4C00020000C3030F090F90023EB60CAE73A00FE
:10D4D000300001F02DFCF7E7E86830F021FBF3E7BE
:10D4E000044B320003201B689847BBE7C8B9000013
:10D4F0000040005038BF00000E0A0000130A000070
:10D5000070B510000D00140030F036FD3F2808D033
:10D51000240A00212000FFF71DFD01280DD002285C
:10D5200001D0002070BD01216A88200001F08EFB2F
:10D5300001220100200001F0A5FB4522002120006E
:10D54000FFF726FCEDE70000F7B5150010000C0012
:10D550001F0030F011FD2D0AEEB23F2838D023789D
:10D56000042B0BD043230025A288300000922178A1
:10D570003A000195FFF7F4FB280022E0012130007A
:10D58000A28801F063FB002824D04368002BE9D176
:10D590002189028B91421FD844606380C38AA38093
:10D5A000838B002B0ED021000C4BAD001B680C3977
:10D5B000E858043031F020F901213000FFF764FB16
:10D5C0000120FEBD02230130C27F1343C377F7E77A
:10D5D0004623C8E73323C6E73123C4E7C8B90000B0
:10D5E000F7B5140010000D001E0030F0C5FC220A33
:10D5F0002978D7B23F2813D04323062911D1290017
:10D600000D4B92001B680C39D058043031F0F4F8FF
:10D6100038000121FFF738FB002301206B80FEBD9D
:10D6200046230024EA883800009201943200FFF774
:10D6300097FB2000F3E7C046C8B90000F7B500919A
:10D64000132B0FD1FFF71AFB0024009B01909D1CA8
:10D65000009B1B78A34207D8019B002B02D1092015
:10D6600030F030FD0020FEBD288806F0B3FF020038
:10D67000FF2814D00C4F86003B689B59002B04D127
:10D680000A4B032029881B689847094B69881A8927
:10D690008A181A813B689A59937E5B1A93760134F3
:10D6A000A4B20235D4E7C046C8B9000038BF0000B4
:10D6B000B0B90000F0B5100087B00D00049230F052
:10D6C0005BFC3F2800D179E0049B02211F0A38004F
:10D6D0002A8801F0BBFA041E00D16FE0AB78372630
:10D6E000002B36D0431CDA7F012316001E401A425D
:10D6F00000D072E02B8905930BF0EEFD059B98425C
:10D7000000D26CE02B89162B00D868E06B8905935A
:10D710000BF0E8FD059B984200D262E0698916296A
:10D7200000D85EE0288908180130FFF739FAEB8845
:10D73000984258DAAB88002B43D0AA881300403BAC
:10D740003F2B52D80121380001F080FA002800D088
:10D750003E26AB883000E3812B8923826B8963826C
:10D76000EB88A38201F054FA0100208AE21CE389CD
:10D77000D27F0290608A0190A08A0090380001F068
:10D780001FFBAB78002B12D00C23E18B049A1B48B3
:10D7900030F006F8A38906704380E3898380A38B69
:10D7A000C380238B0381638B438130F01DF8002EEF
:10D7B0001DD101230134E27F1343E377002007B03A
:10D7C000F0BD4023AB8001213800AA8801F03EFA69
:10D7D0000028B2D0AB880133F4E74326B9E73126FD
:10D7E000B7E73226B5E73D26B3E73326B1E7002297
:10D7F0002100380001F046FAE0E7C046080A0000C0
:10D80000190010B5030A04000A2B08D18A4206D079
:10D810000448083B2FF0C4FF04802FF0E5FF0020F0
:10D8200010BDC0460F0A0000F0B585B004000D0021
:10D8300016000293002905D00022244B110001207C
:10D840001B68984708202302184330F095FB337873
:10D85000070003933F2828D029002000FFF7A0FBF2
:10D8600001231A00864203D02F41DA181F4208D044
:10D87000100005B0F0BD039A934218D0029B01330B
:10D880000293029B1B78002BF5D1402530002FF02E
:10D89000E2FF002605230200009320002B000399DD
:10D8A0000196FFF75DFA3200E2E74325EEE732002A
:10D8B000012629002000FFF795FB3100A940320026
:10D8C0002000C9B2FFF738FAEDE7C04638BF0000C4
:10D8D000F0B5170A022285B003AB1A800D000A00CA
:10D8E00038000021FFF7A0FF0600012826D1010023
:10D8F0006A88380001F0AAF9041E25D0431C019360
:10D90000DB7F334203D1831CDB7F002B1CD0FFF76E
:10D91000F7FCC0B2002814D06870E38AE2893800AE
:10D92000697801F06FFA0122631CDB7F134205D096
:10D93000A6219343019A0234E177D377300005B0F2
:10D94000F0BD01236B70E8E7332200213800FFF7B8
:10D950001FFAF3E7F7B50C00032101AB170A198092
:10D96000220000213800FFF75FFF0600012829D1BF
:10D9700001006288380001F069F94722051E1DD0B8
:10D98000431CDB7F334219D0A188073A002915D008
:10D99000808A0E4B1B1A994210DCFFF7B1FCC0B213
:10D9A000002811D06070A388EA893800617801F0FE
:10D9B0005AFAA288AB8A9B180022AB820021380059
:10D9C000FFF7E6F93000FEBD6670ECE7FFFF0000F0
:10D9D000F0B5120A8BB005926A460C000121177D42
:10D9E000079309AB1980220000213800FFF71CFFC4
:10D9F0000690012865D16388002B00D17AE0258943
:10DA00000BF06AFC854200D976E023893126162B7B
:10DA100000D866E065890BF065FC854200D96DE0B1
:10DA20006189162900D869E0208908180130FFF7BC
:10DA3000B7F8E388984200DB62E0A388002B43D06C
:10DA4000A2881300403B3F2B4AD80121380001F047
:10DA5000FDF8011E44D160880BF044FD86B2002E13
:10DA60003FD1012124202FF0CFFF05006388059AC4
:10DA70008381A388C682C38123899200038263893C
:10DA800029004382E38806848382079B4660C38320
:10DA90001C4B86601B68D058103030F0E3FEFFF757
:10DAA0002FFCC0B2002822D06070288AEB89AA8996
:10DAB0000290688A61780190A88A0090380001F08D
:10DAC00051F906980BB0F0BD4023A3800121380026
:10DAD000A28801F0BBF80028B2D0A3880133F4E794
:10DAE000332600213800F2B2FFF752F9E9E70123AB
:10DAF0006370DAE73A26F4E73126F2E73226F0E7F8
:10DB00003D26EEE7C8B9000070B50D0004211400F1
:10DB10001A0004AB1B8800024A3301439BB204483D
:10DB20002FF03EFE0623C58004720370083070BDDE
:10DB3000120A000010B508382FF056FE10BD000084
:10DB4000FFFF000001D80418120A0000E1D50418F4
:10DB50000D0A000049D50418100A000015D3041856
:10DB6000050A0000D1D90418070A0000B5D6041828
:10DB70000B0A000055D90418090A0000D1D804186E
:10DB8000140A000001D50418031100003DD6041842
:10DB9000061100009DD30418130A00004FD3041887
:10DBA000040A000011D304180D00000070B518001D
:10DBB00004AB20CB1C8806AB1E7800239E420BD101
:10DBC000230A047043700B8883701B0AC3702B8870
:10DBD000002B16D0042304300E4E1C19B688B44214
:10DBE00000D93400A4B21480E41A2B88A4B20633FE
:10DBF0002200C91832F0E0F92B880020E4182C80AC
:10DC000070BD8B88023C03711B0A4371A4B20623CA
:10DC10000630E1E7B0B90000F7B51F000AAB1B788A
:10DC2000089D099C00910192012B1DD0184B2A8858
:10DC30001B688000C1580423002A03D12388023BBB
:10DC400023800623CE7E2888009AF61AF6B21D336A
:10DC500006301018C918320032F0AEF92B88F318CC
:10DC60002B8023889E1B268023883420BB420ED322
:10DC70002888009B06303A001818019932F09CF968
:10DC800000202B88FB182B802388DF1B2780FEBDFC
:10DC9000C8B90000F0B587B00293002313800C9B35
:10DCA00005001B78160004910093002B00D009E1B9
:10DCB000038043880179052B0DD0062B2ED0042B31
:10DCC00000D01BE1904B522900D11BE11F22D22929
:10DCD00003D1152205E017228C4B914200D30FE1AE
:10DCE0000A009200D3580193002B00D108E1029B57
:10DCF0006C1D19715F1D2B8801332B803388013314
:10DD0000338000230393019B1878009B002800D1E7
:10DD1000AFE0002B05D0009807B0F0BD0F227C4B80
:10DD2000DBE7019B0133059352280FD8402811D916
:10DD3000413811280ED832F013F955100D0D0D0D84
:10DD40000D0D0D0D3B2F0D0D0D8F0D4857280FD0CC
:10DD50006C2854D0342300931AE0237801343B70AC
:10DD60002B88013701332B803388013333800FE058
:10DD700001342000012398432B88841C02332B801C
:10DD800033880233338003883B701B0A7B70023771
:10DD9000019B01330193B6E7012301349C432B8897
:10DDA000023402332B803388039702333380EEE74B
:10DDB00021003800102232F0FFF82B881034103385
:10DDC0002B80338810371033D0E721003800082229
:10DDD00032F0F2F82B88083408332B803388083768
:10DDE0000833C3E721003800062232F0E5F82B881B
:10DDF000063406332B80338806370633B6E7012313
:10DE000001349C43637822781B021343019A023445
:10DE10005278572A1BD15B009BB23E4A31889088CA
:10DE20002A889A182A80021F521A92B201929A42A4
:10DE300000D901932100019A380032F0BDF8019A0F
:10DE40003388A4189B183380059B0193A0E7422ACE
:10DE5000E3D0059B01937DE721003800202232F0BA
:10DE6000ABF82B88203420332B80338820372033A5
:10DE70007CE7002B00D04EE7039B002B06D03388B5
:10DE8000039A043B9BB213701B0A53702F880BF04C
:10DE900023FA874213D82B88029A13701B0A5370F7
:10DEA0006B8893701B0AD3703288131D33802B88C4
:10DEB0009B1A2B80049B0435641B1C802BE73123A9
:10DEC0000093F7E7134A038892889A4200D91A0010
:10DED000049B291D1B880298C91894B232F06CF873
:10DEE0003388049AE3183380049B1B88E31813805B
:10DEF0002B881C1B00232C8000930CE73323FBE7AB
:10DF00003423F9E71422ECE660E5041818E6041857
:10DF1000DCE50418B0B90000F0B58DB0079312AB82
:10DF2000069204CB01911B880B92039314AB1B78D0
:10DF3000022B00D0EEE09F4B80001B68C358049377
:10DF40000B79498805290ED0062900D102E1042960
:10DF500011D1994A522B00D129E11F21D22B00D097
:10DF6000FAE01523FCE0049A0332D27F002A00D0A5
:10DF70001AE13F2606E0019B03201A888F4B3326C7
:10DF80001B6898470222019B5B889343042B04D0B3
:10DF9000049B019A0333DB7F537130000DB0F0BD59
:10DFA00057280DD06C2850D0342605E02B78013747
:10DFB000237001350134FFB2029B01330293DDE08F
:10DFC000013423000122697893432A7809020A4325
:10DFD0009C1C1A8002350237EDE729002000102230
:10DFE00031F0EAFF103410351037E4E7049B1B7F53
:10DFF000043BDB1B09930593202B01D920230593B8
:10E000006B461B7D29002000059A0A9331F0D4FF4E
:10E01000099B1F2B01D801230893059BE418ED18D9
:10E020000A9BFF18C7E729002000082231F0C4FF2F
:10E03000083408350837BEE729002000062231F0F1
:10E04000BBFF063406350637B5E70122019B0134D4
:10E050009443029A1B8852785B1A9BB2572A1AD1B2
:10E060005B08049A2900127F2380043AD2B2D71B9E
:10E07000FFB20234200005923A0031F09DFF019B6F
:10E08000019A1B88E41902331380099B059F0293B0
:10E090000123089390E7422AE3D0099B02930123CE
:10E0A000089381E7002E72D1914270D8029B013310
:10E0B0000993522800D973E7402800D874E7413803
:10E0C000112800D970E731F055FFB7FF71FF6FFFDE
:10E0D0006FFF6FFF6FFF6FFF6FFF6FFF6FFF88FFB7
:10E0E0007BFF6FFF6FFF6FFF91FF6FFFAEFF089B1E
:10E0F000002B01D191424AD1079B521A1A80019BF1
:10E100000433E41A069B1B881C19069B1C80002EF6
:10E1100000D037E7039B002B1AD0079B039A1B887C
:10E120003426934200D238E7069B019819880430C0
:10E1300040180B9931F040FF069B039A1B88D318B7
:10E14000069A1380079B039A1B889B1A079A1380D1
:10E15000002622E70F211A4A3F268B4200D311E7FF
:10E160009B009B580293002B00D102E7019B0127E3
:10E170005C1D00231E00049D08932235029BB9B24A
:10E180001878079B1A8800288CD19142AFD9019B3F
:10E1900034265B88052B00D0F4E6019B1B88172BE7
:10E1A00000D8EFE6033EEDE61721064AD4E7142334
:10E1B000D6E7C046C8B9000060E5041838BF0000C3
:10E1C000DCE5041818E604182C4B82001B6870B5B7
:10E1D000D4580500E068002820D0294B82889A4254
:10E1E00016D10121028A280000F030FD011E05D061
:10E1F000002334228360280000F09AFDE0682FF0AD
:10E2000023FB0023E3600023E3760433237770BD10
:10E2100034230C3003702FF0E7FAF2E7E37E227F1D
:10E220009A42F0D9032BEED90420611CC97F2A023F
:10E23000E57F09020D4313B229B20243052D1BD01D
:10E24000062912D0814215D0110033264A230D48E9
:10E250002FF0A6FA0023067043808380C580A31C9C
:10E26000DB7F03722FF0C0FACDE70821194389B292
:10E270003426EBE70621F9E71100F9E7C8B90000F9
:10E280000E0A0000130A0000F0B50E00A24B1700A2
:10E290001B68820085B0D5580190E87E2C7FA04293
:10E2A00025D23B88002B01D105B0F0BD241A9C4239
:10E2B00000D91C001D3022003168281831F07CFE86
:10E2C000EB7E1B19EB763B881B1B3B8033681C19CC
:10E2D0003460EB7E042BE0D1AA7F6B7F12021343E4
:10E2E000172B00D917232A7F9B182B77D5E7A0423D
:10E2F000DAD1AB7F6A7F1B021A436B1C0092DA7F74
:10E30000EB7F120213431AB20393403B3F2B00D919
:10E31000A7E00121039A019800F098FC041E00D1A7
:10E32000E7E0431CDB7FDB0700D4E2E08668002ED9
:10E330003BD033000C3BEB6033897088029300279D
:10E34000618A009B99426AD3A38A9C46002B00D124
:10E3500083E0228A029B9A4200D280E0002834D1D6
:10E360009A1C009B9A4235DB002F59D16346013B32
:10E37000A382002E30D1019A029B100204220A339C
:10E380009BB20243E18B65482FF00AFA0123C38058
:10E39000039B47808380029B038103000C3BA060AA
:10E3A000EB600770009B2B834AE0009B012B08D990
:10E3B000EB1CDB7F30001A02AB1CDB7F13430293A4
:10E3C000BDE7300034270296BAE7009BC218029BD3
:10E3D0009A42C9DD342723E0F488009B01340230DF
:10E3E000C018A4B24B1EF480C018FEF7D9FB80B24F
:10E3F0008442D7D90421019B49481A0211430623BC
:10E400000A002FF0CDF903230370039B43800123FF
:10E410008380F388013BF3802FF0E6F9C2E73227CF
:10E4200001983A00210000F083FCE868002803D03E
:10E430002FF00AFA0023EB600023A360332F58D09B
:10E44000E868002800D12FE7002F00D12CE70C301E
:10E450002FF0CAF90023EB6026E73B27E0E73127DE
:10E46000DEE70426AB1CDB7F0293019B19020BB293
:10E470000E43052A38D0062A31D0042A39D1062481
:10E4800001981C4303F0CCFE009B31279842804149
:10E49000A4B20740009B002B00D134270AF01CFFD8
:10E4A000009B984222D34A23002F02D1009B4A337B
:10E4B0009BB2320021001B482FF072F900234380E9
:10E4C000039B0770C3807B427B41009A5B421340F1
:10E4D0008380029B0C3803751300E86063E708240F
:10E4E0001C43A4B20027D5E73400FBE731274A23B9
:10E4F000DFE70422019B0B48190211434A230A005B
:10E500002FF04EF933270023039A43800770C2800F
:10E5100083800C38E86093E7C8B900000E0A000059
:10E520000B0A0000130A000042574200426C4200EE
:10E530005757576C42004B00575200424100505011
:10E54000004257576C5700424C575700424C5757A0
:10E55000575700424C5700424C57575757570000E7
:10E560000000000028E5041855E5041855E50418D6
:10E5700049E504182CE5041830E504182DE50418C5
:10E5800031E504182CE5041855E504182DE50418A8
:10E5900049E504182DE5041844E504182DE5041890
:10E5A00031E504182CE5041832E504183DE504189B
:10E5B00032E5041832E5041831E5041831E5041891
:10E5C00024F505183DE504180000000032E50418A4
:10E5D0000000000032E504183DE5041800000000CA
:10E5E0000CF505180CF5051836E5041836E5041881
:10E5F00024F5051836E5041838E5041836E504183E
:10E600003BE5041836E5041824F505183EE5041822
:10E6100036E5041824F505180000000041E504184B
:10E6200000000000000000000000000000000000EA
:10E6300047E5041847E5041800000000000000004A
:10E6400000000000000000000000000000000000CA
:10E6500000000000000000000000000000000000BA
:10E660004CE5041853E5041857E5041857E5041859
:10E6700047E50418F8B50E008A880221050000F06D
:10E68000E5FA041E0ED0471CFB7FDB070AD5818B01
:10E690001D4BF2885B1A9A4206DD01003D222800DC
:10E6A00000F046FB0020F8BD002AFBD004232A021C
:10E6B000C18B1A4315482FF073F8F288A38BD31837
:10E6C000A383E389428003802FF08EF8FA7F9307BB
:10E6D000E8D56368002B04D10D4B290003201B688B
:10E6E00098470222FB7F9343FB770A4BAA001B68E3
:10E6F0006168D0580C39043030F07EF801212800D0
:10E70000FEF7C2FACEE7C046FFFF00000C0A000089
:10E7100038BF0000C8B90000F7B50D0000210600A1
:10E72000FEF73EFC00285BD06A7843789A4257D1C6
:10E730000178012954D18288300000F087FA332310
:10E74000041E019347D0042733021F433900264893
:10E750002EF0A4FFAB890B2B44D8244AD35C019341
:10E76000002B06D1AA881300403B3F2B07D94C232E
:10E77000019300222100300000F084FA2BE0EB88A6
:10E78000162BF4D92B89162BF1D90221300000F079
:10E790005DFA0028EBD13A000C23E18B14482EF0EF
:10E7A000FFFFAB88E382EA8822832B8963839C4640
:10E7B00001236989651CA183EF7F3B43EB77A38924
:10E7C0004380E389C18083806346438100230281C3
:10E7D00003702FF009F800213000019AFEF7D8FAF3
:10E7E0000020FEBD3C23C3E7140A0000C0EB041860
:10E7F000080A000070B50D0000210400FEF7D0FBF0
:10E8000000281ED06A7843789A421AD10378022BE6
:10E8100017D101214288200000F018FA4725011E77
:10E8200004D00122200000F02DFA0025042123024B
:10E83000054819432EF032FF2A0000212000FEF780
:10E84000A7FA002070BDC046140A00001523F0B5D9
:10E8500089B002AA05009B18162288880F0002A919
:10E86000521829000AF024FE84B2472C00D193E00C
:10E870000121280006F008F802AB01005E7D0028A7
:10E8800000D071E0B3070CD0280005F0FDFF002890
:10E8900006D00221280005F0F7FF3924002800D116
:10E8A0003624E0B200F0B4F90590002800D07AE0F8
:10E8B000FA881300403B3F2B01D9092305933B897C
:10E8C000162B00D86AE07B89162B00D866E002215F
:10E8D000280000F0BBF90A23002800D062E00121E3
:10E8E000B8880AF0FFFD00285BD1059B002B5AD1A8
:10E8F0002A02043302A91A43C98A04332F482EF08E
:10E900004FFF0121060024202FF07EF8BB88059AD6
:10E910008381C281FB8802AAC3823B8904000383EE
:10E920007B89AD004383BB8921008383D38AC38362
:10E93000042303847A78C31CDA77059B43608360E1
:10E940001F4B1B68E85810302FF08CFFA389300054
:10E950003380E38A7380238BB380638BF3802EF044
:10E9600043FF002009B0F0BDB3070CD402AB5B7DC0
:10E970005B0700D495E7280005F0C0FF0F2800D9F9
:10E980008FE738248DE7280005F0A2FF03231E40FF
:10E99000B04200D284E7E9E73A2482E70B230593EB
:10E9A00095E704230593002328007A7805990293BC
:10E9B0000193009300F004FAD3E7C046060A000072
:10E9C000C8B90000F8B50E00CA880221050000F0A1
:10E9D0003DF9041E12D00127421CD37FBB43D377DD
:10E9E000A322831CDA77C28AC3897178280000F0D9
:10E9F00027FA3A002100280000F044F90020F8BD71
:10EA0000F8B58B8804000D004C27022B01D8274A4B
:10EA1000D75C00212000FEF79DFA431E060000216E
:10EA2000012B03D82000FEF7BBFA41780423220211
:10EA300010B21A436B788B422ED111001C482EF075
:10EA40002DFE012E14D100212000FEF7A9FA002886
:10EA500007D082883100200000F0F8F80022011E63
:10EA600016D120003A000021FEF792F90020F8BDEF
:10EA7000022EF6D100212000FEF792FA0028F0D0F5
:10EA800001214288200000F0E1F8011EE9D00122B6
:10EA9000200000F0F7F8E4E708230343280099B2C8
:10EAA00008382EF0C0FE0120E1E7C046CCEB041888
:10EAB000140A0000F0B585B01C000AAB1E880027C0
:10EAC000042315000202039113430521012200973C
:10EAD000FFF71AF88580012D03D0022D0FD0C780D3
:10EAE00003E00472240AC5804472039B4370C38808
:10EAF00001335B004380FFF71DF805B0F0BD0472E1
:10EB00008672240A360AC5804472C672EDE773B570
:10EB100005000E0005F090FD041E08D10300020060
:10EB2000009071782800FFF7C5FF200076BD08210E
:10EB3000042230002D022BB2194308382A4389B22F
:10EB40002EF071FE0120F1E737B504000D0005F04D
:10EB500073FD012809D16978002520002B002A00C7
:10EB60000095FFF7A7FF28003EBD082104222800DA
:10EB7000240223B219430838224389B22EF053FEEF
:10EB80000120F1E773B5082300240D790B4A1678AC
:10EB9000AE4200D15468013BDBB20832002BF6D103
:10EBA000002C02D00431A04776BD49792300220011
:10EBB0000094FFF77FFF2000F6E7C046D0EB041873
:10EBC000003C3A3C3536373839333E403C3133002F
:10EBD0000100000001EA04181200000049EB0418CB
:10EBE000130000000FEB041806000000C5E904182C
:10EBF00007000000F5E70418140000004DE80418B1
:10EC00001500000019E704181600000075E6041846
:10EC1000030000B500280DD0353BDAB218000623FA
:10EC2000052A07D8052804D831F09AF90608030AFE
:10EC30000C0E062398B200BD0423FBE70523F9E779
:10EC40000723F7E70823F5E70223F3E70C4B8000DF
:10EC50001B68C058002811D0006900280ED0012977
:10EC600008D0022908D0002902D18389934205D017
:10EC70000068F2E7C389F9E7C38AF7E77047C0463F
:10EC8000C8B90000F0B5284B85B01B68039282001C
:10EC9000D658070030000C0010302FF0FFFD631C29
:10ECA000D97FA0894907C90F0AF036FC039B002BC6
:10ECB00010D004233A021A43E18B1C482EF070FD59
:10ECC000E3890380A31CDB7F002B00D146338370D4
:10ECD0002EF08AFDA068002807D0F3680C38834224
:10ECE00001D10023F3602EF0AFFD6568002D15D033
:10ECF0000C3D2900301D2FF0D1FD039B002B0AD0C5
:10ED0000002063682A89197801909B883800009355
:10ED10004623FEF725F828002EF096FD20002EF061
:10ED2000FFFE05B0F0BDC046C8B900000A0A0000E9
:10ED3000042370B50C0001021943150008480A00AD
:10ED40002EF02EFDE3894380022303702EF04CFD4C
:10ED50000121621CD37F02348B43D377E57770BDEA
:10ED6000090A0000F0B5042487B01D000CAB1B8815
:10ED70000F0003930DAB1B88160004930EAB1B888A
:10ED80001422059303021C43002305210093230052
:10ED9000FEF7BAFE039B47708381049B8680438104
:10EDA000059BC5800381FEF7C5FE2100024A03488A
:10EDB0002EF0F4FB07B0F0BD30750000140A00001F
:10EDC000F0B585B01C000AAB1F880BAB1E880CABDE
:10EDD0001B881500039304230202134300220291AF
:10EDE000009205211532FEF78FFE039B4570C3800C
:10EDF000029B8480478106818381FEF79BFE05B0DC
:10EE0000F0BD0000F7B504241D0003021C430023DD
:10EE10000F0016000521062200932300FEF774FE62
:10EE20004770C6808580FEF785FE2100024A0348B0
:10EE30002EF0B4FBF7BDC04630750000140A000088
:10EE400073B51C00042315000202134300220E00B8
:10EE5000009205210732FEF757FE46708580C48078
:10EE6000FEF768FE73BD73B51C0004231500020293
:10EE7000134300220E00009205211632FEF744FED5
:10EE800046708580C480FEF755FE73BD7FB50500D2
:10EE90000E001400684610220A4931F08DF80C204B
:10EEA000042C03D0022C01D00020102431002200B9
:10EEB000684431F081F828001022694631F07CF86E
:10EEC0007FBDC0461CF6041870B516001D0088B042
:10EED000022909D1022B0BD12A00310031F05EF852
:10EEE00044424441E4B206E0042907D1042BF3D0A4
:10EEF0000024102D04D0200008B070BD1029F7D1D7
:10EF00000A0001006846FFF7C1FF2A00310004A88B
:10EF1000FFF7BCFF1022684604A9DFE707B513001E
:10EF20006A46063213800223FFF7CEFF0EBD0000B3
:10EF300030B51025040085B02A006846084931F034
:10EF40003BF8210002220C3103A831F035F82B00E8
:10EF5000220029006846FFF7B7FF05B030BDC04664
:10EF60001CF6041830B51025040085B02A00684648
:10EF7000084931F021F8210004220C3103A831F0B6
:10EF80001BF82B00220029006846FFF79DFF05B003
:10EF900030BDC0461CF60418F0B587B002930CAB28
:10EFA000009204CB01901F880FAB1B7800250493BF
:10EFB00004ABD9800123072118000392029A9342DF
:10EFC00036D31626681C032170432EF01DFD019BCD
:10EFD000049A1B880400038060239A4304AB4571A4
:10EFE00047800271991D0222063030F0E5FF0127AB
:10EFF00000220E9D0835029B9F4229D3200000F07D
:10F0000059FB051E0ED12388019A010013800722A7
:10F010000300944601270298CAB2904202D903988D
:10F0200000283AD120002EF07BFD280007B0F0BD6B
:10F03000009A002A07D0009CDA08A25C1C000C4051
:10F040002241024201D00135EDB20133DBB2B5E716
:10F05000009B002B07D00099FB08CB5C07213940AF
:10F060000B41DB0715D533005343E988E3181985B5
:10F07000A9881448014059856988D984531C18000F
:10F080007043022229002018049330F095FF6B464C
:10F090001A7C0137FFB20835ADE70098002807D089
:10F0A000009ED008305C664632401041384206D09F
:10F0B000019A039812889A1801334254DBB2013145
:10F0C000A9E7C046FF9FFFFFF0B587B003930CABE5
:10F0D000019204CB0F001B88029005930FAB1D78A3
:10F0E00001230026072118000492039A93423AD381
:10F0F0001620731C584303212EF086FC029B04004B
:10F100001B8805710380059B6D06467143800222B2
:10F110000630AD0F03D09218012D00D00C3239000B
:10F120000126002730F048FF0E9D1635039B9E42B6
:10F1300029D3200000F0BEFA051E0ED12388029AC2
:10F140000100138007220300944601270398CAB2E6
:10F15000904202D90498002843D120002EF0E0FC10
:10F16000280007B0F0BD019A002A07D0019CDA08F8
:10F17000A25C1C000C402241024201D00136F6B2D2
:10F180000133DBB2B1E7019B002B07D0019AF308F2
:10F19000D35C072232401341DB071ED516227A4387
:10F1A000AB8AA21813856B8A781C5385298A5B1356
:10F1B000D1840321162219408C4603215043143A6E
:10F1C00020180B4204D063460232012B00D00C32CF
:10F1D000290030F0F1FE0137FFB20136F6B21635E4
:10F1E000A4E70198002807D0019ED008305C66464D
:10F1F00032401041384206D0029A049812889A1878
:10F2000001334254DBB20131A0E710B586B06A4643
:10F2100003880400013968461380517100F026FA12
:10F220006B461B88238006B010BD0000F0B585B08A
:10F2300001930023140002AA0F001100029313711E
:10F2400000F012FE061E07D1A02102A8890100F0DD
:10F2500061FE002803D00626300005B0F0BD20492D
:10F2600002A800F057FE0028F5D11E4902A800F0C0
:10F2700051FE0028EFD11C4902A800F04BFE0028E7
:10F28000E9D1A42102A8890100F044FE0028E2D1BE
:10F29000164902A800F03EFE0028DCD1144902A85D
:10F2A00000F038FE0028D6D1029B04215A5E9D88CA
:10F2B000002AD0DB2D052D0D5D196B88A34200D2ED
:10F2C00007262A883B19934207DC201D3A00019942
:10F2D000281830F071FE6F80BEE70D26BCE7C046EF
:10F2E0000128000003280000022800000229000075
:10F2F000032900000023F0B58FB006AE0391310062
:10F30000070015000693337100F0AEFD041E1BD1FB
:10F31000A0213000890100F0FDFD002817D00F2743
:10F3200002ABFF1801233900300000930AAA00F055
:10F330004FFE041E08D14A4E3A78039B30001A80D3
:10F340000AA930F039FE2E6020000FB0F0BD300069
:10F35000444900F0DFFD0028E1D13000424900F0CF
:10F36000D9FD002826D0013708AEBFB231003800E1
:10F370000894347100F078FD041E4FD101230F2151
:10F380000093030002A809180AAA300000F020FE2A
:10F3900002ABDA7B0399D31C0B80089B33495B8853
:10F3A00033481B0A4B77CF830AA930F005FE2C4B5C
:10F3B0002B60C9E730002F4900F0ACFD00282FD0AA
:10F3C000336808AE9A8831001205120D9B185A79DD
:10F3D0001879120210430894347100F045FD041EA0
:10F3E0001CD10F2702ABFF18012339003000009316
:10F3F0000AAA00F0EDFD3F78039A089E3B1D13809A
:10F4000031000222164830F0D7FD0222B11C1A4802
:10F4100030F0D2FD3A0019480AA9C6E7802493E7E4
:10F42000A4213000890100F075FD3268938800281E
:10F4300007D01B051B0DD3180222039904330A8041
:10F44000B6E70420115E002908DB1B051B0DD3184D
:10F450001A1D2A605B88039A138075E7062473E7F8
:10F4600001BA00000128000003280000E4B90000F0
:10F4700004BA00000228000003BA000005BA000028
:10F480000023F0B587B0019202AA00911100040098
:10F490000293137100F0E8FC051E07D1A02102A819
:10F4A000890100F037FD002803D00625280007B0A9
:10F4B000F0BD204902A800F02DFD0028F5D11E491D
:10F4C00002A800F027FD0028EFD11C4902A800F097
:10F4D00021FD0028E9D1A42102A8890100F01AFD2C
:10F4E0000028E2D104AF013C3900A0B2029E04958D
:10F4F0003D7100F0B9FC00280DD138000E4900F034
:10F5000009FD002807D07388009A1B0A120A93424B
:10F5100001D004F0FDFD8022009B0199520173800F
:10F52000B388114202D01343B380BFE7044A1340AB
:10F53000FAE7C04601280000032800000228000066
:10F54000FFEFFFFF73B5002315006A460E00694602
:10F550000093137100F088FC041E07D1A0216846B7
:10F56000890100F0D7FC002802D00624200076BDD7
:10F5700068460F4900F0CEFC0028F6D168460D49D8
:10F5800000F0C8FC0028F0D168460B4900F0C2FC2E
:10F590000028EAD1A4216846890100F0BBFC0028BC
:10F5A000E3D1009B5A88B2432A435A80DEE7C04623
:10F5B00001280000032800000228000010B50C00FC
:10F5C00000F0B2FA03000120002B07D060220020D7
:10F5D000997A94434906890F2143997210BD10B559
:10F5E0000C0000F0A1FA03000120002B04D06022DF
:10F5F00000209B7A9343237010BD000010B50128B2
:10F6000004D0022801D100F077FA10BD0022024B8D
:10F610005A609A60F9E7C046E4B90000FB349B5F8A
:10F62000800000800010000000000000F7B50E4CC4
:10F63000050027680E000192002F14D0002806D183
:10F64000200010220C3030F0B7FC012323773B68F8
:10F65000002B03D031002800019A984720682EF033
:10F660005FFA00232360F7BDE4B900000288104B65
:10F67000002A18D101221B680280002B16D0417984
:10F680000288521899888A4210DBDA880132F2E740
:10F69000D988914207D3417900209B888A189A42E1
:10F6A0004041C0B270471B68002BF1D10020F9E740
:10F6B000E8B90000F0B589B00190FFF7D7FF051E4B
:10F6C000029014D1019B10241E797606B60F06D045
:10F6D000012E1ED0022E00D1EEE140230293019BA9
:10F6E0005B79AB4200D8CAE0029B002B14D0029891
:10F6F00009B0F0BD6022019B01991B79380093434A
:10F70000019A12311371320030F056FC1024029528
:10F71000E5E714240290E2E716236B43019AD3181D
:10F720005B8D5B049B0F38D0012B31D0022B02D0B4
:10F7300040230293DBE71027A01D83B20393162317
:10F74000691C4B430493049A019B39009E18A02224
:10F7500030009201FFF7E2FB0028E9D139003000C8
:10F76000CC4AFFF7DBFB0028E2D139003000CA4A5F
:10F77000FFF7D4FB002815D016236B43019AD3184A
:10F78000A022DB8C1201134093421CD05623D0E7F9
:10F79000A01D83B204270393D1E7A01D83B20227E3
:10F7A0000393CCE739003000BC4AFFF7B7FB0028D1
:10F7B000E2D139003000BA4AFFF7B0FB002806D08A
:10F7C0000C34A3B203930135039CEDB287E7A42266
:10F7D000390030009201FFF7A1FB0028F0D1390079
:10F7E0003000B04AFFF79AFB0028ECD1042F03D178
:10F7F0000A34A3B2039316E0102F14D13000FFF7A0
:10F8000097FB002820D016236B43019AA649D318F2
:10F810005A8D0A405A8502220499019B0C315918CD
:10F82000300030F0C9FB16236B43019AD3182A210C
:10F830005A5E002AC7DB1C8D01232405240D0534E4
:10F840009C43039B1C19BCE73000FFF78BFB00288F
:10F8500013D00A34A3B2039316236B43019A92493F
:10F86000D3185A8D1140802292010A4304995A8577
:10F87000019B0C3104225918D2E71634B9E7029BD8
:10F88000002B00D033E7200001212EF0BDF8019BB2
:10F89000019A1B8805008380527904199B18C38044
:10F8A000019B029A5B880381019B1B79C272837260
:10F8B0005B069B0F17D1019B0222991D0C3030F083
:10F8C0007BFB0027019B5B79BB4220D800230120F2
:10F8D000764A1168002900D1D5E0002B00D1C8E09C
:10F8E00004F016FC03E7012B0AD10422019B043C1F
:10F8F000991D200030F060FB2B1DE31AAB81E0E77F
:10F90000022BDED1019B1022103C991DF1E716213C
:10F910000B007B43019AD3187A1C51435B8D019AEB
:10F920005B049B0F06915618002B23D106207843C9
:10F930000E3002223100281830F03EFB02230393E0
:10F9400006237B430793EB18049316237B43019A0A
:10F950003000D3180593049ADB8C03991382514A23
:10F96000FFF7DCFA002829D00023049A53820137DC
:10F97000FFB2A7E7012B0ED1043C04223100200086
:10F9800030F01AFB06237B43EA180E33EB18E31A18
:10F99000D3810423D3E700220392022BD0D1103C61
:10F9A00010323100200030F007FB06237B43EA18B9
:10F9B0000E33EB18E31AD3811023C0E73000384A26
:10F9C0000399FFF7ABFA002813D002220699019B96
:10F9D000A61F123132807280A01E591830F0ECFA46
:10F9E00006237B43EA180E33EB18F31A34005382D4
:10F9F000BDE7A422300003999201FFF78FFA002897
:10FA0000E3D13000244A0399FFF788FA00280DD08B
:10FA1000162206237A4301997B438A18528D244982
:10FA2000D204D20FEB180A435A82A0E730001B4AD7
:10FA30000399FFF773FA0028EAD1059B1D4E2A218E
:10FA4000595E059B0E401B8D1B051B0D002903DA1B
:10FA50001E43049B5E828AE701215A1D8A4307994F
:10FA6000A41A0E316918621A23806080049B324305
:10FA7000DAE7AE888C88A64203D2296003001560BD
:10FA800027E70A0025E7002B00D029E715602B6047
:10FA900026E7C046012800000229000003290000D3
:10FAA0000228000003280000FF9FFFFFE8B90000C4
:10FAB0000280FFFF00F0FFFF019B9F1D3800FFF752
:10FAC00037FA002800D015E63800FFF74BFA20235C
:10FAD0001C00002800D102E66021019A380012794A
:10FAE0000C3C8A4313430199019A12311371042289
:10FAF00030F062FA0295F2E570B50A4C60680028B1
:10FB00000AD12068002801D02EF00AF80023636093
:10FB1000A3602360237770BD05682EF001F82800EC
:10FB2000EDE7C046E4B90000104A0300906810B544
:10FB30005168002806D084889C4203D8C188994225
:10FB40000ED2016808000121002809D084889C4257
:10FB500009D8C4889C4204D3C47A0C4201D1906075
:10FB600010BD0068F0E70020FAE7C046E4B90000E5
:10FB7000F0B5A44B8BB0049006911C7F002C09D0EB
:10FB8000071E04D00A0000209F49B847002738000C
:10FB90000BB0F0BD27005D68002D67D0002F08D0A6
:10FBA000984C20680028F2D02DF0BAFF0023236083
:10FBB000EDE70122EB7A134217D10320AA88EB88E4
:10FBC000A97A9B1A49110622DBB2014200D00E32FB
:10FBD000A41806222E00002753435B19A4B20393F6
:10FBE000039BB34201D0002F01D02D68D4E703223C
:10FBF000338A5B1313420BD1A422F38992019342FF
:10FC000030D007D8814A93420AD0814A93421FD00C
:10FC10000636E5E77F4A9B18042BF9D8043415E033
:10FC2000738A1B051A0D33000E339B185A79187905
:10FC300012021043FFF778FF002815D00321827AC3
:10FC40000A2352110A4200D00E33E418A4B2DFE7AF
:10FC50000321728A07345213A3B202240A42F4D059
:10FC60000E34F2E70634F1E75127D1E7002F97D1A0
:10FC70000321201D2DF0C8FE2500049A614B02606F
:10FC800018605B6803900493049B002B00D1A3E0F1
:10FC9000002F03D0432F00D179E781E70122049B95
:10FCA000DB7A134240D1049B06A99E88DB8809AA0F
:10FCB0009B1BDBB207930A235B1819003000FFF788
:10FCC00019FB049BAA1E998892B20B02090A0B43E6
:10FCD00003991BB28A181371043D9BB21B0AADB283
:10FCE00053714A197F21049B07009B7A282099426F
:10FCF0009B415B425371107106AB5B890399ED1A0E
:10FD0000ADB22A1D8A180999002B11D1049B013626
:10FD10000E330593079BB6B2F3189BB20793079B6C
:10FD20009E4201D0002F09D0049B1B680493ABE7CF
:10FD3000013B9BB2C85C10700132E5E70322059BD2
:10FD40005B885B13134241D1A422059B92011B885F
:10FD5000934204D035D8304A9B18012B36D8012263
:10FD60000398AB1E9BB271BAC31889B21971090A04
:10FD70005971059B043D1988ADB20B02090A0B436A
:10FD80001BB241190B719BB21B0A4B71002A1DD08B
:10FD90000A2306A95B18190009AA3000FFF7AAFA7E
:10FDA000070006AB5B890399ED1AADB22A1D8A18CC
:10FDB0000999002B0AD0013B9BB2C85C107001323C
:10FDC000F7E7144A9B183A00042BC9D9059B013662
:10FDD0000633B6B20593A2E7002F00D05AE7002DF4
:10FDE00005D00E4B2200290003201B689847069B74
:10FDF0000399009322000A4B0A4804312EF0DCFFDD
:10FE0000C5E6C046E4B90000F0B9000002280000D1
:10FE100003280000FFD6FFFFFED7FFFF38BF00001A
:10FE20002DF60418D401051870B50E4C6368002B2C
:10FE300001D1012070BD9A888242F8D8DA888242C6
:10FE400001D21B68F3E7DA7A0120150005408D42E4
:10FE500004D082430A43DA7204F05AF90020A06009
:10FE6000E8E7C046E4B9000070B505000C00FFF7F4
:10FE70005BFE03000120002B07D09888A84205D123
:10FE80000433236001230020237170BD01302D1A3B
:10FE9000062068430E301B18002023602071F4E711
:10FEA00070B51B4CA3686268002B07D005889E883C
:10FEB000AE4203D8DA88AA4216D21A681300012289
:10FEC000002B01D1012070BD06889D88AE4207D36A
:10FED000DD88B54202D3DD7A154205D01B68EFE715
:10FEE000DE7A1642FAD105809A880088824206D1CD
:10FEF0001A1D0A6001220A710020A360E3E70132A3
:10FF0000801A062242430E329A180A600022F2E753
:10FF1000E4B90000030000791B6800280BD1002B16
:10FF200008D09A885204920F04D11888401A41428E
:10FF30004841C0B27047002B0CD0A02292019142E0
:10FF4000F8D09B7900207F2BF4D9034BC918484285
:10FF50004841EEE71800EDE7FFD7FFFF70B50D0051
:10FF6000A02189010400FFF7D5FF0623002826D130
:10FF700020001449FFF7CEFF062300281FD12000E0
:10FF80001149FFF7C7FF0623002818D120000F49A9
:10FF9000FFF7C0FF0623002811D1A421200089010A
:10FFA000FFF7B8FF0623002809D121688A881305C6
:10FFB00012B21B0D002A00DBCB5A2B800300180065
:10FFC00070BDC04601280000032800000228000080
:10FFD000F7B51F0008AB050010001A7800230B705E
:10FFE0002E680C0001219E421AD02B79002B35D0AF
:10FFF000B379002F22D05B069B0F19D08B420CD116
:020000041805DD
:100000000423237029680B89C918002A14D00422FC
:10001000FEF73CFF1023237001E0022B02D00021E9
:100020000800FEBD1023237029680B89C91803E05E
:10003000022323702968083122780AE05BB2002B82
:100040000ADBA0239B016A46D38002226B46227002
:10005000991D2FF0B1FFE2E70C4BF4E7B3885B0486
:100060009B0F08D0012B0CD0022BD8D10E3323705C
:1000700029680B88DAE70223237029680029CED08B
:10008000DAE70423237029680B88BDE70128000004
:10009000F0B585B00A9E0F00336815000190002B63
:1000A00026D0A02130008901FFF734FF002818D1A5
:1000B00030004249FFF72EFF002812D1300040499E
:1000C000FFF728FF00280CD130003E49FFF722FF40
:1000D000002806D1A42130008901FFF71BFF00286A
:1000E00016D080239B00002D0BD12C003B8005E017
:1000F00031000198FFF7B8FE041ED2D0200005B0F1
:10010000F0BD9D4201D00624F8E700243C80F5E7CD
:10011000336804005B883B80002DEFD01D42F2D095
:1001200002ABD871D91D0198FFF759FA041EE5D129
:1001300033680C349A8880235B011A4207D102AAE3
:10014000D17902220C001440114200D00C249D42AF
:100150002FD00DD880239B009D4218D010D31A4B6E
:100160001A4AEB1813420BD13B881B079B0F11E077
:1001700080239B019D4219D08023DB019D42F3D057
:10018000134B2A0003201B680199984703E00322C0
:100190003B8813403B8002ABDB79DA060CD43A880B
:1001A0001B079B0F9A42A9D23B80A7E73B889B067F
:1001B000DCE73B881B06D9E708249FE701280000FD
:1001C000032800000228000000FCFFFFFFFB0000E6
:1001D00038BF000000000000000000000000000028
:1001E0000000000070B50D7806001B3D6B1E9D41A0
:1001F0001A4B0C00ED181A4B4A881B688100CB582B
:100200009B69002B04D1300004F036FB010006E0AE
:100210009988914220D8D98891421DD31989062204
:10022000A38836020633324328009BB22DF0B8FA79
:10023000237805001B3B5A1E934112330370A2889A
:10024000A11D42806388838006302FF0B5FE280010
:100250002DF0CAFA002070BD1B68D2E70C0C00001C
:10026000DCB9000010B50121040001F0F7FF0C28F3
:1002700004D000220F2810D041220EE001212000DE
:1002800002F038F8418903890022994205D0064BD3
:10029000A2001B68D3582C331A782000012102F0E9
:1002A000D1F9002010BDC046DCB9000070B50D00CA
:1002B000040009F011F86988814200D9010020008A
:1002C00089B202F03BF80121200001F0C7FF0022B3
:1002D0000100012801D041220121200002F0B2F9E1
:1002E000002070BDF0B587B002910121040001F03B
:1002F000B5FF41220B2816D100260121200001F074
:10030000F9FF0622370023021A4303900592009654
:10031000039B009A5B7893420CD8029B5B88BB429C
:1003200000D0502632002000012102F08BF900207D
:1003300007B0F0BD0121200002F096F8009B039A5F
:100340009B00D3180193DB8801000633059A9BB20A
:1003500015482DF025FA019B05009B880380029B20
:100360005A88019BD21BDB889A4200D91A0093B2AB
:100370000493AB8000236B80029B391D5918A81D84
:100380002FF01AFE049B049AFF18019BBFB2DB8872
:10039000934200D0502628002DF026FA009B01330E
:1003A000DBB20093B4E7C046090C0000F7B50E00BD
:1003B0000121070001F052FF0C2824D1012138004F
:1003C00001F098FFB588C3880400ED1AADB229008A
:1003D0000C31458141183000F38808301A00019330
:1003E0002FF0DCFD00280CD1019B5D1923899D4273
:1003F00007DCADB201213800658102F003F800206E
:10040000FEBD044DF6E741220121380002F01AF941
:10041000F5E7C046FFFF0000F0B585B0019101216E
:10042000040001F01BFF402203281AD10121200003
:1004300001F060FF06220500002623021A43A300F4
:100440000393274B02920093019B5B88B3420DD824
:10045000009BEA8801339BB29A4201D3002B37D12B
:100460000A220121200002F0EDF836E001212000EF
:1004700001F0FAFF6B780100029A063319482DF05B
:100480008FF9019B070099194A790B79290012020B
:1004900013430380019AB31C9BB2D3185A791B797A
:1004A00012021343438000936A78083102710530C9
:1004B0002FF082FD38002DF097F90B4B039A1B6843
:1004C00004369B58B6B24C331A7801321A70BBE727
:1004D00001212000AB8001F095FF002005B0F0BDA8
:1004E000FFFF0000040C0000DCB90000F0B587B08D
:1004F00002910121050001F0B1FE4022072820D120
:100500000121280001F0F6FE029B03905B78022790
:10051000012B00D00E37062200242B021A43AB0019
:10052000049205930094029B009A5B8893420DD835
:10053000039B0134DB88A4B2A34201D3002C34D145
:100540000A220121280002F07DF834E00121280070
:1005500001F08AFF049A01003B1D18482DF020F994
:10056000009A029B911C9B185C791B7924021C4306
:1005700089B2029B04313A005918019004808770B7
:1005800003302FF019FDBEB2009B02369E19B3B2A4
:10059000019800932DF028F9094B059A1B689B5888
:1005A0004C331A7801321A70BDE7039B01212800F1
:1005B0009C8001F027FF002007B0F0BD070C000071
:1005C000DCB90000F0B587B000914E884F7801216A
:1005D000040001F043FE0500022800D080E039004D
:1005E0003000FCF7DDFA002800D179E0012120007D
:1005F00001F080FE009B02905B78142B00D10E3539
:1006000000260622370023021A43A3000492059312
:100610000396009B5B88BB424AD8002E4ED0002236
:100620000121200002F00EF857E00121200001F026
:100630001BFFABB206330100049A9BB229482DF090
:10064000AFF8009B461DD9194A790B791202134362
:100650000380009ABB1C9BB2D3185A791B791202F3
:1006600013430393391D039A009B89B204314280DE
:1006700059182A000190057130002FF09DFCABB293
:100680000433029AFF18029B08325B78290030007D
:10069000FEF71AFC060001982DF0A6F8124B059AF9
:1006A0001B68BFB29B584C331A7801321A70B0E7FE
:1006B000002EB4D10D4B039A9A42B6D1039B029AF5
:1006C0000133D2889BB29A42A9D3002BA7D0029AB9
:1006D00001212000938001F095FE002007B0F0BDBD
:1006E00041229DE7040C0000DCB90000FFFF000080
:1006F00010B50121040001F0B1FD00220C2800D04A
:1007000041222000012101F09DFF002010BD0000CA
:100710007F2310B50A780C001340522B09D01E2AF3
:1007200007D0062100020143C420044A00012CF036
:1007300035FF2000FDF7FEF910BDC0463075000002
:10074000062302021343002213B5042100921E3235
:100750000400FDF7D9F901002000FFF7D9FF13BD10
:10076000062337B50202134300220D000092042134
:1007700018320400FDF7C8F9457001002000FFF7AA
:10078000C7FF37BD70B50B7904000D00122B0ED1D9
:1007900004F072F80622230201001A4317482DF0D4
:1007A0003BF8012120002A7901F04CFF24E00A2BBC
:1007B0000BD1134B82001B68D3584C331A78002A94
:1007C00003D000221A700A71EBE76B78162BE8D180
:1007D0000121200001F08EFD0028E2D04378002B9B
:1007E000DFD0074BA2001B680021D3582A792C3395
:1007F00020001A70FFF7B4FF002070BD230C00002A
:10080000DCB90000F0B50C0089B00121050001F051
:1008100025FD062805D804282FD800D1A5E04022C0
:1008200049E00A28FBD12800667801F0F9FC02387B
:100830000121864200DB18E1280001F015FE0622A6
:100840006378010028020243043398482CF0A8FF83
:10085000002607006279237912021343038062782D
:10086000A11D023A92B28280468006302FF0A4FB8E
:1008700038002CF0B9FF32001DE00121280001F002
:1008800039FD039063781026072B00D80E3E062210
:100890002B021A43AB00069300231F00059204931A
:1008A0006388BB420CD8049B039A0133D2889BB265
:1008B0009A4251D20A220121280001F0C3FED2E05F
:1008C000E219537912791B021A43039B04921B7895
:1008D000052B31D10121280001F0C6FD059A010048
:1008E000B31D73482CF05CFFBB1C9BB2E3181B7953
:1008F000049A0371FB1C9BB20280E3185A790537F6
:100900001B791202BFB21343391D3200438002909B
:100910004671611806302FF04FFBB3B20298DF1911
:100920002CF062FF634B069A1B68BFB29B584C3396
:100930001A7801321A70B3E73800039B039A093022
:1009400031005B7820180832FEF7BEFA0028C1D1CA
:100950006378FF18BFB2A3E7039A002BAAD0012146
:100960002800938001F04EFD7DE00121280001F078
:10097000C1FC069063885B071FD101230393DB183A
:1009800000260622370002932B021A430592049692
:100990006388BB4215D8039B002B01D1002E54D194
:1009A000049B069A0133D2889BB29A4200D281E717
:1009B000002B00D17EE7069AD1E700230393103382
:1009C000DEE70121280001F04FFD6B461B89010085
:1009D0000793029B059A083337482CF0E1FEE21991
:1009E000537912791B021A43BB1C9BB20280E31895
:1009F00004925A791B791202134343803B1D9BB228
:100A0000E3185A791B79120213438380039BB91DA3
:100A1000060089B2002B0FD0029B04311A008371AB
:100A2000611807302FF0C8FA079B30000633FF1813
:100A3000BFB22CF0D9FEABE731001E4BAA001B68F9
:100A40000C39D05810302DF0D7FE00240421059B1E
:100A50000A2228000094FDF757F8738801004380AC
:100A60002800FFF755FE00201EE0280001F042FCA0
:100A70006279237912021343002283806378028112
:100A800022002100023B9BB2083AC3805380094BED
:100A9000AA001B681439D05810302DF0ADFE01218A
:100AA000280001F0AFFC012009B0F0BD090C0000E6
:100AB000060C0000DCB90000050C0000F0B5374C56
:100AC000830085B00393236882009B5805001B694F
:100AD000002B47D0012101F00DFC2368AA009B5890
:100AE00007001C69012123000C3301932800E689CB
:100AF00001F0BAFC0622B31D2D0201009BB22A436D
:100B000027482CF04DFE8680BB8805000380FB88BB
:100B1000002602934380237D092B17D12100627D9B
:100B20000630023A1A312FF047FA637D27689E1E7D
:100B3000B6B2002F03D0029AD31A02336B80200082
:100B40002CF082FE3B003C000C330193002C0BD1B7
:100B5000124B039A1B68985810302DF037FE28006E
:100B60002CF042FE05B0F0BD019BB01D19005A8962
:100B700028180C312FF020FA019B24685A89961905
:100B8000B6B2002C02D06B889B1A6B8001980C388F
:100B90002CF05AFE20000C300190D7E7DCB90000A1
:100BA000090C0000F7B50D000121040001F056FB0F
:100BB00004282FD00838C0B2022800D97CE00121D7
:100BC000200001F097FB2B000022290006003B4F7C
:100BD000083B5A80A30001933B68A200985814393F
:100BE00010302DF009FE3289002A42D13B68A20064
:100BF0009B586F881A69D389FB189BB2D381304AFE
:100C000093423CD9F53AFF3A0121200001F01AFD48
:100C10000120FEBD0121200001F06CFB274BA2004A
:100C20001B680700D05810302DF02EFE291D030040
:100C3000102506000C332A00133001932FF0BCF965
:100C40000198B5742CF0D0FDB389FA8801339BB2BA
:100C50009A4201D3002B05D10A220121200001F084
:100C6000F1FC04E001212000BB8001F0CBFB00205F
:100C7000CFE76B88934200D913006B80B6E7200062
:100C800001F0CEFA0138874205DB6A8833899A423F
:100C900006D3002B04D02000FFF710FF0022B3E79B
:100CA000F1885118F180002B01D09B1A338101216A
:100CB000200001F0A7FBABE74122CEE7DCB9000042
:100CC0000502000070B50E23050000260C000A7A0C
:100CD0000E490878904200D14E68013BDBB20831E2
:100CE000002BF6D1FF20002E0ED01B3AFD331A4206
:100CF00006D00621C4202B02194300012CF0CEFCA3
:100D0000210028000831B04770BDC046100D0518FD
:100D100003000000AD02051805000000ED040518F1
:100D2000070000001904051809000000050805184F
:100D300011000000C50505180B000000A50B0518E3
:100D40000D000000A50B05180F000000E5020518B6
:100D500013000000F106051817000000AD03051888
:100D6000190000006502051801000000850705183C
:100D70001D000000E50105181B000000E501051835
:100D800070B5040008000E00FEF7CEFE051E05D16A
:100D9000064B3200210003201B689847AB7A288954
:100DA000DB0701D52402204370BDC04638BF0000D8
:100DB00037B514006A4600230D00911DD380FFF75C
:100DC000CDF8002807D16B46DB88A34204D964190B
:100DD0009C4200DD0D303EBD0720FCE7F0B50E0063
:100DE0000621714305001000224A85B054188A5A22
:100DF0000E216788009369443B00FFF749F90628F4
:100E000005D00C2805D0041E04D005B0F0BD207913
:100E1000F9E701246B46DB89002B01D10020F4E7C0
:100E2000280003F055FD002809D0032E09D1280021
:100E300003F04EFD6B46DB8980B28342EED905207C
:100E4000E3E70121280003F01FFD002808D102215B
:100E5000280003F019FD03000F20002BD5D1EEE789
:100E6000002CE4D0280003F049FD0F28DFD80C2027
:100E7000CBE7C0469021051873B500236A4600935E
:100E800013714A888E880C006B4603210500FFF71A
:100E9000A5FF021E01D0002076BD31000C39684646
:100EA00089B2FFF785FF0028F5D108210622EF203F
:100EB0002D02A3882EB2073331432A439BB289B255
:100EC00000012CF06DFCF1230370A38805000333AF
:100ED0004380D22303716388A11D43711B0A837170
:100EE000A28807302FF068F828002CF07DFC012044
:100EF000D2E70000F8B515000F00040019001E002D
:100F0000FFF73EFF0622AB1D2402010022439BB2E5
:100F100008482CF045FC002304002A003900068014
:100F20008580438006302FF047F820002CF05CFCD1
:100F3000F8BDC046150C000037B500236A46009383
:100F400013714A880C006B4602210500FFF746FF2B
:100F5000021E01D000203EBD6846A188FFF728FF91
:100F60000028F7D128006388A288A11DFFF7C2FFDF
:100F70000120F0E773B51C0006231500020213439D
:100F800017220E0000920421163AFCF7BDFD4670B0
:100F900045800471FCF7CEFD73BD00000022F0B562
:100FA00089B006AB0F1F06921A713A8805000C0033
:100FB000002A2BD0AB000393444BAA001B68618826
:100FC0009858036B002B30D0DA8A8A422BD14030FC
:100FD0002DF05AFCE38803999C463B8802001B05D0
:100FE0001B0D0593394B1B685B58196B002931D0D9
:100FF0008888374F604486B20496B8422CDD40336F
:10100000180011002DF02EFC092305E04A8801216B
:10101000FFF7E4FE031ECDD0280062882178FFF799
:10102000A9FF002014E01B68CCE73B88002BCED141
:101030002800FFF7A5FE06222D02010002232A4305
:1010400024482CF0ADFB638803802CF0CDFB0120FD
:1010500009B0F0BD604604906646A7886088568156
:10106000059E1781D680002905D130331800110064
:101070002DF0C2FB06E0CF8A874225D93033180015
:101080002DF0C0FC114B039A1B6804219B58049A55
:101090001B6B28009A8006232A021343E2880092E1
:1010A0001722FCF731FD21000500638808314380D9
:1010B000E288C28008302EF07FFFA3882800AB8032
:1010C000FCF738FD0220C3E70968CCE7DCB9000073
:1010D00005020000170C000037B500236A46009394
:1010E00013714A886B460C0001210500FFF776FE5C
:1010F000031E0ED10200A1886846FFF759FE031EA9
:1011000007D128006388A288A11DFFF7F3FE012004
:101110003EBD280062882178FFF72CFF0020F7E70A
:10112000F0B58DB00600049101F07AF8023883B270
:101130000593049B5F88B3000693049B9A88BA4288
:1011400000D291E0002F00D193E00E2206ABD2181E
:1011500017800027059B0AAA0A97177103930E238D
:1011600006AA9B1818000AA9FEF79AFE041E00D0D2
:1011700078E0049B9A8806ABDB899A4262D302210D
:1011800018202CF041FC0123C21D811D0093050095
:1011900023000AA8FEF71CFF041E06D006ABD9895F
:1011A000434B02001B68032098470E2306AA9B1896
:1011B0001B88AB80AB790793002F2ED09F422CD099
:1011C00028002CF0ADFC3B4D069A2B689B589B6B7E
:1011D000002B61D0059B039A30009C1A0623320233
:1011E000A4B21343009405220421FCF78DFCBB1E1E
:1011F0005A1E9341013343702B68069A06009B5890
:1012000040889D6B002324187480002D34D1300059
:10121000FCF790FC00200DB0F0BD264B069A1B6831
:101220002900985838302DF0E7FA0E220398079BD2
:101230000238C01A83B2039306ABD2181388079FF3
:10124000013313800E2306AA9B18049A1B889288E8
:101250009A42B8D3002BB6D0039A7B1C934200DA93
:101260007DE7B0E70A24AEE70027059B039301243E
:10127000A9E7059B0393FAE7A988F21802339CB209
:101280009180201DAA79E91D30182EF095FEAB79CA
:101290002D68E3189BB2B8E7002C00D10A34049BF8
:1012A00030005A8819782300FFF764FEB2E7C04681
:1012B00038BF0000DCB90000164BF7B51B68820090
:1012C000D358040053331D780F00002D1CD108F0B3
:1012D00003F806232202042113430095032206008B
:1012E0002000FCF711FC050007F0F6FF7988814229
:1012F00000D90100200089B201F020F828006E809A
:10130000FCF718FC0020FEBD042300220221FFF799
:1013100031FEF7E7DCB90000F7B5140000236A4698
:10132000A7781371009363783F021F433A000D00C2
:101330006B4603210600FFF751FD021E08D10E2D5A
:1013400001D90F3DAAB23B003000E11CFFF7D2FDEE
:10135000F7BD00000023F0B587B004AE04933371ED
:101360000B7805000C00122B47D01D270521402BC0
:101370000CD03900280002F0E3F912230293002870
:1013800038D1217812394B1E99410431330028009D
:10139000A288FFF723FD029000282BD1E3882800C4
:1013A000039300F03DFF039BC61E9E4200D91E0022
:1013B00006222B021A43B3B20421280003920093A1
:1013C00013003A00FCF7A0FB21000500A3883200BF
:1013D0004380B3B28380083106302EF0EDFD280043
:1013E000FCF7A8FB2378122B04D0054A0399054883
:1013F0002CF0D4F8029807B0F0BD1B27B9E7C0461F
:1014000030750000410C000010B58400064B1B68CD
:101410001859036B002B00D110BD30302DF034FA79
:101420002CF07EFBF2E7C046DCB90000F0B58BB0D3
:1014300005914B780500012B00D09DE00A00043A8D
:101440001288029282000692029A002A41D15A4AD8
:10145000810012685258146B002C3AD0029A08AFDF
:1014600004920392079300233B603B713900E08AAA
:10147000FEF7FAFC021E04D0504B0320E18A1B68E1
:101480009847228938006189FFF792FC059B079AEB
:10149000043B1A800600E28A002800D081E0029B0B
:1014A0009A4203D0E388A080049303942189049B8B
:1014B000994200D974E004986389814239D2039833
:1014C000A04236D00499A380E18003942468002CC4
:1014D0002DD10026384F069A3B689B581C6B002C78
:1014E0004BD02800E18AFFF74BFC0622A3882D028F
:1014F000063301009BB22A4331482CF051F90026F3
:101500000500E38A0380A388838023894380AB8816
:10151000B34201D8002B03D12A88E38A9A4211D022
:1015200028002CF061F9012420000BB0F0BD0292DC
:1015300099E7C91889B20491039989885B180399BE
:101540008B80C3E72100B01D1C31628928182EF062
:1015500033FD6389069AF6182368B6B202933B6896
:10156000985830302DF090F920002CF0D9FA029BD9
:10157000002BD5D01C00CAE7002600242800FFF766
:1015800043FFA642D0D106232A0213431722042187
:10159000009228000232FCF7B7FAFCF7CBFAC3E757
:1015A0000726059B280019783300FFF7E3FC280085
:1015B000FFF72AFF8EE7C046DCB9000038BF000005
:1015C000150C000010B58400064B1B681859836B7E
:1015D000002B00D110BD38302DF056F92CF0A0FAB8
:1015E000F2E7C046DCB9000070B5074D84002B68F7
:1015F0001B59986C002806D00C382CF025F90022D5
:101600002B681B599A6470BDDCB90000F7B51F0048
:101610001B4B01921B688200D35804009B6C0E0088
:10162000002B26D01A888A4221D11D79062D08D098
:10163000002D07D15A88019905330A803B602800A4
:10164000FEBD80252000FFF7CFFF062DF7D131002A
:101650002000FFF795FB24022C4301000223A2B2D5
:1016600008482CF09DF806802CF0BEF8E7E7FFF75D
:10167000BBFF3A0030000199FDF73CFE0500E4E7AE
:10168000DCB90000130C0000F0B50C001D008FB099
:10169000159E0F880490039231002000FEF700FC95
:1016A000031E28D1039A2188128891421CD80F2149
:1016B000009004A80AAA09183000FEF789FC021E4F
:1016C00004D0354B032021881B6898470F2304AAB8
:1016D0009B1829000AAA1B781498FDF7F5FB2288AD
:1016E000002820D101322280039A238812889A424E
:1016F00001D3002BD0D10A232780029302980FB088
:10170000F0BD33685D88039B1D80059B002BF5D1E0
:101710002188179B169A0498FFF778FF0290EDE74F
:10172000013EB5B2EFE7330000210498FFF756FB06
:10173000059002903779002FE3D1300017492588B2
:10174000FEF7E8FB0028DED0280008AB08971F71E1
:10175000FEF7EAF907000135AEB2FD88B542D2D3F3
:10176000BB88B342CFD208A93000FEF77DFB0B49FE
:1017700008A8FEF7CFFB0028D2D1094908A8FEF738
:10178000C9FB011ECCD108A8FEF7C4FB0028C7D1B5
:101790000136B6B2E1E7C04638BF000003280000BA
:1017A000022800000023F0B58BB008AA137108933B
:1017B00083000493504B82001B68050098580291E7
:1017C00038302DF063F9029B03901C1F2388002BF7
:1017D00004D1280000F024FD013820800024029B61
:1017E000039A5B88934256D9029B043B05931B885E
:1017F000002B50D0002C0CD0062C6DD0039B580031
:10180000029B18188288197828002300FFF7B2FB82
:1018100062E0039B21005E00029B28009E19B288B3
:1018200008ABFFF7DBFA041EE6D10A2704ABFF186A
:101830003A002800B18807ABFFF7E8FE041ECED1BE
:10184000059B3F881B889F4200D91F003800BBB210
:101850000221083005932CF0D7F80600BBB2838034
:101860003A00079906302EF0A7FB234B049A1B6819
:101870003100985838302CF0BFFF2800FFF7B4FE35
:10188000029B03981A1F1388059901305B1A138075
:1018900083B20393A3E7002CAED1280000F0C0FC74
:1018A0000299062304390E882A02F6438619B6B235
:1018B000134328000F2200960421FCF725F9270086
:1018C00005000D4B049A1B6846809B589E6B002EAA
:1018D00007D12800FCF72EF9063C604260410BB0AE
:1018E000F0BD381DB288B11D28182EF065FBB388F5
:1018F0003668FF18BFB2EAE7DCB90000F0B50E00A9
:10190000002189B006AB1971728805000691FFF7B6
:1019100065FA041E4CD10A2702ABFF183A002800D2
:10192000718805ABFFF772FE041E41D1B3883F8872
:101930000393BB4207D9073423002800728831780B
:10194000FFF718FB2FE0280000F06AFC039B01382A
:10195000FF1A874200D9070006232A02134302AA6E
:1019600052890421009228000D22FCF7CDF847800F
:10197000059BB188BFB23A005918039004302EF08D
:101980001BFB0398FCF7D6F8B38802AA5289DB192F
:10199000934208D1280000F043FC0138874202D06E
:1019A0002800FFF721FE063C6042604109B0F0BD0F
:1019B000062CF8D0C0E7F0B50E00002189B006ABC8
:1019C0000691197172880500FFF708FA041E3BD1D1
:1019D0000A2202A812187188280005ABFFF716FE2C
:1019E000041E31D102AB28005F8900F019FC461EAD
:1019F000BE4200D93E000623B1B22A02134303912E
:101A00000B22009128000421FCF77EF80700039BBD
:101A100032004380059904302EF0CEFA3800FCF7EE
:101A200089F802AB5B89039A934208D1280000F041
:101A3000F7FB0138864202D02800FFF7D5FD063CAF
:101A40006042604109B0F0BD062CF8D023002800A8
:101A500072883178FFF78EFAF1E700000023F0B5C5
:101A60000C008FB00CAA0C9313714A88163304A98A
:101A70005B18251F1A802B880600002B00D1B0E0D0
:101A80000027B30006936A4BB2001B689B589B6B00
:101A90000493002B01D09B790493002F5ED116256F
:101AA000A3880AAA04A913806D180BA9A37903912E
:101AB0001A2104A8091802910CA9019121000831EA
:101AC000009130002900FFF7DFFD071E00D096E0EF
:101AD00004AB5B8B049A934201D0002A3ED1221FB3
:101AE0001588043DFB2B00D9FB239D4200D91D0026
:101AF0002800ABB202210C3007932BF085FF04AB1A
:101B00005B8B2A00049304ABDB8A0B99838004ABC4
:101B10001B8B0590C380057209302EF04DFA221FF1
:101B200013880799043B5B1A1380414B069A1B6884
:101B30000599985838302CF05FFE04AB5B8B079A00
:101B4000934202D13000FFF74FFD04AB198B04AA7A
:101B50004B1C9BB2D382A288934255D9344D069A2E
:101B60002B68985838302CF091FF002856D02B68FD
:101B7000069A04219B5832029C6B0623257A134354
:101B800004354543ADB2300011220095FBF7BCFF90
:101B90004580237A0600043343700023A288F1189D
:101BA0000A71120A4A719A1CE18892B2B218117134
:101BB000090A5171210004339DB2281D227A301880
:101BC00009312EF0F9F9237A2468EB189BB2002C26
:101BD000E4D13000FBF7AEFFB81F434258410FB0CD
:101BE000F0BD00F01DFB023828806388A288012721
:101BF0009A4200D245E7002B00D041E741E7062892
:101C0000ACD12B886380E7E79142A7D0049B221FC9
:101C100012880333934200DA41E79FE7162304AAB0
:101C20009B181A8830003B002178FFF7A3F9D3E70F
:101C3000DCB900000023F0B50E008FB00CAA0C93A5
:101C400013714A88163304A95B18341F1A8023883D
:101C50000500002B00D1A5E00027AB000693654BE3
:101C6000AA001B689B589B6B0493002B01D09B79A7
:101C70000493002F5BD11624B3880AAA04A9138009
:101C800064180BA9B37903911A2104A809180291C9
:101C90000CA9019131000831009128002100FFF7C3
:101CA000F3FC071E00D08BE004AB5B8B049A9342DD
:101CB00001D0002A3BD1321F1488023CFD2B00D9F1
:101CC000FD239C4200D91C002000A3B20221083051
:101CD00007932BF099FE04AB5B8B2200049304ABBB
:101CE000DB8A0B9983800590847107302EF064F9AC
:101CF000321F13880799023B5B1A13803D4B069AEB
:101D00001B680599985838302CF076FD04AB5B8B36
:101D1000079A934202D12800FFF766FC0AAB1988A4
:101D200004AA4B1C9BB2D382B28893424DD9314C4A
:101D3000069A2368985838302CF0A8FE00284ED018
:101D40002368069A04219B582A029C6B0623A679D5
:101D5000134302364643B6B2280009220096FBF729
:101D6000D3FE4680A3790500023343700023A28886
:101D7000E91802330A719EB2120A4A71301DA27923
:101D8000E11D28182EF018F9A3792468F3189BB2E6
:101D9000002CECD12800FBF7CDFEB81F4342584180
:101DA0000FB0F0BD00F03CFA023820807388B28892
:101DB00001279A4200D250E7002B00D04CE74CE7B5
:101DC0000628B4D123887380E7E79142AFD0049B03
:101DD000321F12880133934200DA4CE7A7E716233B
:101DE00004AA9B181A8828003B003178FFF7C2F834
:101DF000D3E7C046DCB900000023F0B50C008DB07D
:101E00000AAA0A9313714A88163302A95B18271F7E
:101E10001A803B880500002B37D0AB000593A388C0
:101E200002AA138309AB03931A2316219B1802936A
:101E30000AAB019302A8A31D0093091802232800EE
:101E400008AAFFF721FC061E04904ED00A2828D0CD
:101E5000062814D002AB1B8B02AA0133D3821622B0
:101E600002A95218A38812889A4206D808AA128892
:101E70009A4202D03B88032BD1D8062E11D11623CB
:101E800002AA9B181B88638029E000F0C9F9013879
:101E900038806388A2889A4201D3002BBDD10123E8
:101EA00004933D4FAE003B68985938302CF0EEFD5E
:101EB000002800D165E00623800084B22A02134383
:101EC0000421072228000094FBF71EFE3B68448093
:101ED0009B59996B0023002943D1FBF72BFE0498F3
:101EE0000638434258410DB0F0BDE3882B4A9B1899
:101EF000012B0ED91A2202A95218238912889A425C
:101F000027D1200009990A302EF048F800280AD07D
:101F10001FE0200002AB9B7E217A099A0A30FCF771
:101F2000D3FF0028E6D0022108202BF06DFD02AB84
:101F3000DB8A059A838008AB1B880100C380164B9F
:101F4000083F1B68985838302CF056FC2800FFF7E3
:101F50004BFB162208AB1B8802A9013352181380D1
:101F60007DE78A88C4182271120A62719A1CCC8893
:101F700092B282181471240A5471043309689BB216
:101F8000A9E7162302AA9B181A8828002178049B27
:101F9000FEF7F0FFA3E7C046DCB9000000D8FFFF62
:101FA00007B5002A0AD1062301020B43009204213F
:101FB0001332FBF7A9FDFBF7BDFD07BD13000A00B7
:101FC0001221FEF7D7FFF8E7F7B505002A4E830088
:101FD0000093336882009B581C6C002C00D1F7BD25
:101FE000238A264901930C23227DD800475C97421F
:101FF00025D109184F68002F05D1214B2900032056
:102000001B6898470027019B002B1BD0210028004C
:102010001431B84702000128E1D002280CD0002872
:1020200024D12800FFF7CEFA3368009A9858403040
:102030002CF02AFC2BF008FC3368009ACBE7013B1C
:10204000D3D2DAE72800217D01F07AFB0028DDD029
:102050004023217D1942E4D10E2905D1228B122380
:102060002800FEF787FFDCE7E28AF8E7044B290047
:1020700003201B689847B0E7DCB900002821051849
:1020800038BF0000F7B50A7A04000D000C231E2AA1
:1020900015D1002100F0E2F8132802D000254028D5
:1020A0000BD10621230219431C482BF0F7FA00221A
:1020B0002000110000F0C6FA00252800FEBD1848D7
:1020C000D900095C914224D10620164FA6003B6836
:1020D0009B591B6C0193230218432BF04DFF0023E7
:1020E0000093830604D4019B5A425341DBB2009310
:1020F00029003B680C39985940302CF07DFB0023B7
:10210000AB80009B0125002BD7D02000FFF75CFFA0
:10211000D3E7013BD3D2FF25CFE7C046410C0000F7
:1021200028210518DCB9000002000000B9120518CA
:10213000040000002111051806000000F91D051813
:1021400008000000351C0518100000005D1A051875
:102150000A000000B71905180C000000FD1805184A
:102160000E000000A517051852000000390F0518D1
:1021700012000000D9100518D2000000790E0518D1
:10218000160000009D0F0518180000002D140518FA
:1021900000020300020000080C00030000040C0011
:1021A000030000400C0003000010C00006000020E7
:1021B0003000060070B50C00184E8500012911D1C1
:1021C000336858590369002B06D13368A4005B5962
:1021D000E058002813D170BD10302CF055FB2BF0C7
:1021E00033FBEDE70229F0D133685859036A002B1D
:1021F000EBD020302CF048FB2BF092FCF4E72BF0D6
:102200002DFB002805D133685B59E0580C382BF0C2
:102210001BFB002233685B591A51DCE7DCB9000074
:10222000034B80001B68C358503318887047C04662
:10223000DCB9000070B5140006220D000002190080
:1022400004AB1E7802430423C02098402BF0A8FA68
:102250000570467044802BF0C7FA70BD70B50F4B07
:1022600005001B780C00013B984205DB00220C4B5B
:10227000110001201B689847032C05D90022084B48
:10228000110001201B689847064BAD001B68A40095
:10229000EB58E358181E00D0187870BDE5BE00005A
:1022A00038BF0000DCB9000070B50F4B05001B788B
:1022B0000C00013B984205DB00220C4B1100012071
:1022C0001B689847032C05D90022084B11000120F8
:1022D0001B689847064BAD001B68A400EB58E358F9
:1022E000181E00D0588870BDE5BE000038BF000041
:1022F000DCB9000070B50E4B05001B780C00013BEB
:10230000984205DB00220B4B110001201B68984707
:10231000032C05D90022074B110001201B689847A8
:10232000054BAD001B68A400EB58E05870BDC046DB
:10233000E5BE000038BF0000DCB90000F7B51C4F57
:10234000830001933B6882009B581A4A0400914223
:1023500029D911001A000126503253331180200070
:102360001E7002F089FA0622230201001A43124865
:1023700004232BF015FA3B68A2009B583100503320
:102380001B88050003802000FFF768FF0023010081
:10239000B04203D12000FFF7ADFF438828006B80D7
:1023A0002BF022FAF7BD1729D4D21721D2E7C04665
:1023B000DCB9000005020000020C000070B50E4BF5
:1023C00005001B780C00013B1600984205DB00223B
:1023D0000A4B110001201B689847032C05D90022E5
:1023E000064B110001201B689847054BAD001B6888
:1023F000A400EB58E65070BDE5BE000038BF0000F9
:10240000DCB9000070B5154B04001B780D00013BD2
:10241000984205DB0022124B110001201B689847EF
:10242000032D05D900220E4B110001201B6898478F
:1024300000200C4BA2001B68AD00D358ED5885421C
:102440000AD028002BF007FA0621240202002143BB
:1024500028002BF0E8F9012070BDC046E5BE000061
:1024600038BF0000DCB9000070B5114B05001B78C7
:102470000C00013B984205DB00220E4B11000120AD
:102480001B689847032C05D900220A4B1100012034
:102490001B6898470020084BAD001B68A400EB5850
:1024A000E358834202D018002BF0D5F970BDC04626
:1024B000E5BE000038BF0000DCB9000070B506249E
:1024C00000020443200016000D002BF055FD002EE5
:1024D00005D02843C1B220002BF0E2FC70BDA84318
:1024E000F8E7000070B50021060054202BF08CFAAC
:1024F000041E05D11D4B020001001B6801209847F6
:10250000002520006560A560E56010302CF05EF9C4
:10251000200018302CF05AF9200020302CF056F909
:102520002000A562256030302CF050F920003830B2
:102530002CF04CF9200040302CF048F92300042204
:102540004D33A5641A70172306202365084BB2008B
:102550001B682900D450330218432BF0A1FC300033
:1025600001222021FFF7AAFF70BDC04638BF00003E
:10257000DCB90000F0B585B004000AA8008801901D
:102580000BA8008802900CA80088039000294AD06C
:102590002A49A600096817008D5901213035687F46
:1025A0000F40884307438B400220874303403B434F
:1025B00004270240BB43574257415BB2B800034374
:1025C0000820FF0083433B436B77002A03D02000A1
:1025D0001B4A01F065F8194F3B689D592B8D002B64
:1025E00021D1039B002B1ED001210C202BF00CFAD3
:1025F000019B22028380029B0100C38006231343B8
:1026000003813B68985918302CF0F6F8019B29009B
:102610002B856B46029A1B792A31D21A0A70039ACB
:102620002B35D31A2B70002220212000FFF746FF04
:102630002000FFF7C9FC05B0F0BDC046DCB90000C2
:10264000FFFF0000F7B5174F86003B6800929B59CB
:102650008A00D35804000D000192002B16D0FFF71A
