:020000041804DE
:10BEB00010B5024B00221B68984710BD80B90000E6
:10BEC00010B5024B01221B68984710BD80B90000D5
:10BED00010B5024B00221B68984710BD80B90000C6
:10BEE00010B5024B01221B68984710BD80B90000B5
:10BEF000F8B50A2031F026F9114D2E68002E1CD11C
:10BF0000F8BD3B00A3401E4203D02000C9B200F0A0
:10BF10001DFA0134E4B20B4B1B78023B9C4202DA5F
:10BF200029890029EDD12B68002BE9D02B89002B22
:10BF3000E6D00A2031F0E4F8E2E700240127EAE73E
:10BF400084B90000B5BE000010B5040001280ED071
:10BF5000022809D0002803D10A20084931F0B4F89A
:10BF6000200000F03DF910BD0A2031F0EBF80C2262
:10BF70000021034833F03CF8F2E7C046F1BE041854
:10BF800084B9000010B500F031F810BD024B988064
:10BF9000D98019817047C04684B90000014B1889C7
:10BFA0007047C04684B9000070B50125094C854032
:10BFB000236800290BD01D4205D12389002B02D014
:10BFC0000A2031F09DF823681D43256070BDAB4306
:10BFD0002360FBE784B9000010B504000021FFF7DF
:10BFE000E3FF0021200000F089F810BDF8B5184FDC
:10BFF00086003B6804009B59002B05D00022154B9E
:10C00000110001201B6898470423200218430021D7
:10C0100030F062FF0021382030F002FD041E08D10C
:10C020000C4B020001001B68012098473B689C51A3
:10C03000F8BD002520C031F0D7FB2000E560A576D3
:10C04000103031F0D1FB0423E5762377EEE7C046CC
:10C050009CB9000008BF000070B50424000204432E
:10C06000200016000D0030F0A5FF002E05D028435B
:10C07000C1B2200030F030FF70BDA843F8E70000E7
:10C08000F8B50D00110004221C0006AB1E8800024A
:10C0900007AB1F8802430623044830F089FB057074
:10C0A00087804680447030F0A7FBF8BD040A00008A
:10C0B000F7B51300104A0D00126881008E58040075
:10C0C000002E17D0002D15D1316800290DD00F009A
:10C0D00005200C3F3A890978009001952000FFF770
:10C0E000CFFF380030F0BAFB35600022012120007C
:10C0F000FFF7B2FFF7BDC0469CB90000F0B5334F63
:10C1000087B0830004933B6882009D580422030299
:10C110001A43040003910592002D27D02C481100EA
:10C1200030F0A4FA2868002807D0039B002B23D105
:10C13000462219002000FFF7BBFF012629690029CC
:10C140001ED1E868002801D030F0F4FC214AAB7E13
:10C1500011895B1813816E68002E17D13B68049A11
:10C16000985830F0E7FC3B68049A9E503F210598B0
:10C1700030F0B2FE07B0F0BD0C3830F06FFBDCE7FA
:10C18000039A2000724001F011FFD7E7281D31F01B
:10C1900089FB039B0600002B0DD182880E4B9A422F
:10C1A0000DD1039B02890193438A0621009320004D
:10C1B0004623FFF765FF300030F0BCFCCBE7074BB0
:10C1C000210002201B689847F5E7C0469CB9000093
:10C1D000140A000084B90000120A000008BF000021
:10C1E00070B5040001282FD002282BD0002814D1CC
:10C1F0001A491B4B1B4D0B601B4B04201B6804266C
:10C200004B602B78023B0B81184B1B884B8130F025
:10C2100007FE2B78023B9C4200DB70BD20023F21D1
:10C220003043013430F058FEE4B2F2E7200001213F
:10C23000FFF764FF0134E4B20A4B1B78023B9C42D7
:10C24000F4DBEAE70024F7E7064B00211A78084BF5
:10C25000023A1868920032F0CBFEDEE790B9000097
:10C2600074CE0418B5BE0000A0B90000DCCE0418DE
:10C270009CB900000F4B70B51B688200D5580E4B5F
:10C280000C001B78023B984205DB00220B4B11008F
:10C2900001201B689847002C05D00022074B110095
:10C2A00001201B689847A4006359181E00D0187815
:10C2B00070BDC0469CB90000B5BE000008BF0000BC
:10C2C0000D4B70B51B688200D5580C4B0C001B78C9
:10C2D000023B984205DB0022094B110001201B683C
:10C2E0009847002C05D00022054B110001201B6847
:10C2F0009847A400605970BD9CB90000B5BE00000D
:10C3000008BF00000E4B70B51B6815008200D658A0
:10C310000C4B0C001B78023B984205DB00220A4BB9
:10C32000110001201B689847002C05D00022064B05
:10C33000110001201B689847A400A55170BDC0469C
:10C340009CB90000B5BE000008BF0000F0B5AB4BC3
:10C3500082001B688FB0D358070008910493002B0C
:10C3600000D143E15C68231E02D00B005A1E9341AA
:10C37000042206933B021A430B92069B002B00D12A
:10C380002CE1162308AA9B1800221A8015230125E8
:10C3900008AA9B181D7014F00FF90590002805D10C
:10C3A000974B020001001B6828009847954A059B9F
:10C3B000944663440993A188934B994235D0934B9B
:10C3C000994200D0A9E0152208ABD218E3892000D9
:10C3D000591E8B4113700092162208A95218210091
:10C3E000099B0E31103000F0EFFD0300051E03D154
:10C3F000228A002A00D095E0002122890191618AD9
:10C40000380000910621FFF73BFE049B181D31F018
:10C4100049FA200030F022FA002D00D17BE0059887
:10C4200014F022F900230693D4E002213800228A76
:10C4300001F0A0FD061E00D1DCE0431CDB7FDB0722
:10C4400000D4D5E0438BE5890793A38A0A93002D96
:10C4500016D11D00079B02359D4200D91D00ADB2CB
:10C46000B18B002904D1664B0A0001201B68984754
:10C47000B38B013BB383638A0133638200230EE0F5
:10C48000A81C0799FFF72CFD079B0A9A5B1A551BFE
:10C490009D4200D91D00ADB28BB20029E0D05A1EDA
:10C4A0009341152208A9DBB2521813701622029389
:10C4B0002300521821000E33019500933800099B88
:10C4C000103100F00DFD051E03D1E289A38A9A42C6
:10C4D00015D1B37B618A2289380001910093042130
:10C4E0002B00FFF7CDFD049B181D31F0DBF9200078
:10C4F00030F0B4F9002E8FD0002373608CE7B58B39
:10C50000002D0FD102230136F27F1343F377049BF2
:10C51000181D31F0C7F9069504E0394B3A000320A5
:10C520001B689847380007F0DDF9082301000B9AD3
:10C53000374830F03DF9162308AA9B1819880500E2
:10C540004180002904D12E4B0320A2881B68984704
:10C55000059B38006B6007F0C5F9000B08D0284B2D
:10C5600038001E6807F0BEF92A4902000320B047D0
:10C5700038002E8807F0B6F91523360B360336B28D
:10C58000064308AA2E809B181A78234E13033342C1
:10C5900005D0C0211A4B03201B68890198472B88BE
:10C5A00008AA1E4015239B181B7828001B031E4356
:10C5B000B604B60C2E8010F033FB184A0899138984
:10C5C0000139013B1381049B049A9B7E01339376CE
:10C5D000CBB20893089B002B00D0CEE6049B38001A
:10C5E00059684B1E9941C9B2FFF7DEFC0FB0F0BD90
:10C5F00033256EE73325237C6CE7C0469CB90000E9
:10C6000008BF0000004000500D0A0000120A0000A0
:10C6100006110000FF0F0000FFCFFFFF84B90000EC
:10C6200010B5024B1B68984710BDC046C4BF000040
:10C6300000207047F7B5100016000C001D0030F008
:10C64000B9FC462302002178300A3F2A03D04B1F51
:10C650005A1E934142330026E279A77912023A43E7
:10C66000019600922A00FFF70BFD3000FEBD73B566
:10C6700010000E00150030F09DFC00243F280AD069
:10C68000F388052B07D13378280AA34205D1311D41
:10C6900001F00CFC0400200076BD332BFBD0717A36
:10C6A000312B05D1012200941A3B01F097FBF2E7F0
:10C6B0000029F0D0230022000094F6E7F0B50888A6
:10C6C00089B00005000D059107F0F0F80600FF287D
:10C6D00058D04E4B82001B68D558059B59684C4B6F
:10C6E000CB180793002904D14A4B0A0001201B688C
:10C6F0009847059B02AA5B885382059B1B889B0475
:10C700009F0F002D05D1434B2A00290001201B68F3
:10C710009847012F04D0022F34D1300000F0E4FEFE
:10C72000EA7E2B7F9A4208D2122302AA9B181A0093
:10C73000300007A900F038FF0227EC68002C21D058
:10C74000A188354B994225D0344B994258D1029754
:10C7500002AB5B8A22000193079B210000932B0010
:10C76000300018330E32103100F072FD002802D173
:10C770002B8B002B06D10023EB60207320000C30A4
:10C7800030F03AF8059B586880B213F0CFFE0020D5
:10C7900009B0F0BD2A0002AB18325B8A0192220078
:10C7A00021000E32029700923000079A103100F0FB
:10C7B000CDFB071E02D12B8B002BE3D101213000D2
:10C7C000228A01F0D7FB011E16D0431CDB7FDB075A
:10C7D00012D5002F0BD1E289A38A9A4204D1876037
:10C7E00020000C3030F008F80023EB60CAE73A0074
:10C7F000300001F031FCF7E7E86830F09BF9F3E72F
:10C80000044B320003201B689847BBE79CB900002B
:10C810000040005008BF00000E0A0000130A00008C
:10C8200070B510000D00140030F0C4FB3F2808D094
:10C83000240A00212000FFF71DFD01280DD0022849
:10C8400001D0002070BD01216A88200001F092FB18
:10C8500001220100200001F0A9FB45220021200057
:10C86000FFF726FCEDE70000F7B5150010000C00FF
:10C870001F0030F09FFB2D0AEEB23F2838D02378FE
:10C88000042B0BD043230025A2883000009221788E
:10C890003A000195FFF7F4FB280022E00121300067
:10C8A000A28801F067FB002824D04368002BE9D15F
:10C8B0002189028B91421FD844606380C38AA38080
:10C8C000838B002B0ED021000C4BAD001B680C3964
:10C8D000E858043030F09EFF01213000FFF764FB80
:10C8E0000120FEBD02230130C27F1343C377F7E767
:10C8F0004623C8E73323C6E73123C4E79CB90000C9
:10C90000F7B5140010000D001E0030F053FB220A92
:10C910002978D7B23F2813D04323062911D1290003
:10C920000D4B92001B680C39D058043030F072FF68
:10C9300038000121FFF738FB002301206B80FEBD8A
:10C9400046230024EA883800009201943200FFF761
:10C9500097FB2000F3E7C0469CB90000F7B50091B3
:10C96000132B0FD1FFF71AFB0024009B01909D1C95
:10C97000009B1B78A34207D8019B002B02D10A2001
:10C9800030F0BEFB0020FEBD288806F08FFF0200BD
:10C99000FF2814D00C4F86003B689B59002B04D114
:10C9A0000A4B032029881B689847094B69881A8914
:10C9B0008A181A813B689A59937E5B1A93760134E0
:10C9C000A4B20235D4E7C0469CB9000008BF0000FD
:10C9D00084B90000F0B5100087B00D00049230F06B
:10C9E000E9FA3F2800D179E0049B02211F0A3800B0
:10C9F0002A8801F0BFFA041E00D16FE0AB78372619
:10CA0000002B36D0431CDA7F012316001E401A4249
:10CA100000D072E02B8905930BF026FD059B984210
:10CA200000D26CE02B89162B00D868E06B89059347
:10CA30000BF020FD059B984200D262E0698916291F
:10CA400000D85EE0288908180130FFF739FAEB8832
:10CA5000984258DAAB88002B43D0AA881300403B99
:10CA60003F2B52D80121380001F084FA002800D071
:10CA70003E26AB883000E3812B8923826B89638259
:10CA8000EB88A38201F058FA0100208AE21CE389B6
:10CA9000D27F0290608A0190A08A0090380001F055
:10CAA00023FBAB78002B12D00C23E18B049A1B489C
:10CAB0002FF07EFEA38906704380E3898380A38BD9
:10CAC000C380238B0381638B43812FF095FE002E5F
:10CAD0001DD101230134E27F1343E377002007B027
:10CAE000F0BD4023AB8001213800AA8801F042FA52
:10CAF0000028B2D0AB880133F4E74326B9E73126EA
:10CB0000B7E73226B5E73D26B3E73326B1E7002283
:10CB10002100380001F04AFAE0E7C046080A0000A8
:10CB2000190010B5030A04000A2B08D18A4206D066
:10CB30000448083B2FF03CFE04802FF05DFE0020EF
:10CB400010BDC0460F0A0000F0B585B004000D000E
:10CB500016000293002905D00022244B1100012069
:10CB60001B68984708202302184330F023FA3378D3
:10CB7000070003933F2828D029002000FFF7A0FBDF
:10CB800001231A00864203D02F41DA181F4208D031
:10CB9000100005B0F0BD039A934218D0029B0133F8
:10CBA0000293029B1B78002BF5D1402530002FF01B
:10CBB0005CFE002605230200009320002B00039951
:10CBC0000196FFF75DFA3200E2E74325EEE7320017
:10CBD000012629002000FFF795FB3100A940320013
:10CBE0002000C9B2FFF738FAEDE7C04608BF0000E1
:10CBF000F0B502230D00002185B0170A02AA1371B7
:10CC0000517138002A0003ABFFF79EFF0600012890
:10CC100026D101006A88380001F0ACF9041E25D045
:10CC2000431C0193DB7F334203D1831CDB7F002B4A
:10CC30001CD0FFF7F5FCC0B2002814D06870E38A5E
:10CC4000E2893800697801F071FA0122631CDB7F08
:10CC5000134205D0A6219343019A0234E177D3779A
:10CC6000300005B0F0BD01236B70E8E733220021EE
:10CC70003800FFF71DFAF3E7F7B503230C00694608
:10CC80000B7100216B46170A59712200380001AB65
:10CC9000FFF75AFF0600012829D1010062883800F9
:10CCA00001F068F94722051E1DD0431CDB7F33428B
:10CCB00019D0A188073A002915D0808A0E4B1B1A7B
:10CCC000994210DCFFF7ACFCC0B2002811D06070B4
:10CCD000A388EA893800617801F059FAA288AB8A02
:10CCE0009B180022AB8200213800FFF7E1F93000E9
:10CCF000FEBD6670ECE7C046FFFF0000F0B58BB0EC
:10CD0000079301230C0004A90B75002104AB59758E
:10CD1000130A05936B461F7D2200380009ABFFF70D
:10CD200013FF0690012865D16388002B00D17AE0BB
:10CD300025890BF099FB854200D976E023893126BD
:10CD4000162B00D866E065890BF094FB854200D96C
:10CD50006DE06189162900D869E020890818013042
:10CD6000FFF7AEF8E388984200DB62E0A388002B6F
:10CD700043D0A2881300403B3F2B4AD80121380002
:10CD800001F0F8F8011E44D160880BF073FC86B204
:10CD9000002E3FD1012124202FF042FE05006388A0
:10CDA000059A8381A388C682C38123899200038266
:10CDB000638929004382E38806848382079B466057
:10CDC000C3831D4B86601B68D058103030F058FD6F
:10CDD000FFF726FCC0B2002822D06070288AEB89B9
:10CDE000AA890290688A61780190A88A0090380028
:10CDF00001F04CF906980BB0F0BD4023A38001214F
:10CE00003800A28801F0B6F80028B2D0A388013318
:10CE1000F4E7332600213800F2B2FFF749F9E9E7D9
:10CE200001236370DAE73A26F4E73126F2E7322687
:10CE3000F0E73D26EEE7C0469CB9000070B50D0056
:10CE4000042114001A0004AB1B8800024A3301437A
:10CE50009BB204482FF0ACFC0623C580047203701B
:10CE6000083070BD120A000010B508382FF0C4FC5D
:10CE700010BD0000FFFF000021CB0418120A0000C3
:10CE800001C904180D0A000069C80418100A00003E
:10CE900035C60418050A0000FDCC0418070A000076
:10CEA000D5C904180B0A000079CC0418090A00003F
:10CEB000F1CB0418140A000021C804180311000063
:10CEC0005DC9041806110000BDC60418130A00004D
:10CED0006FC60418040A000031C604180D000000D3
:10CEE00070B5180004AB20CB1C8806AB1E7800235D
:10CEF0009E420BD1230A047043700B8883701B0A77
:10CF0000C3702B88002B16D0042304300E4E1C193E
:10CF1000B688B44200D93400A4B21480E41A2B8835
:10CF2000A4B206332200C91832F046F82B8800203C
:10CF3000E4182C8070BD8B88023C03711B0A43717E
:10CF4000A4B206230630E1E784B90000F7B51F005C
:10CF50000AAB1B78089D099C00910192012B1DD002
:10CF6000184B2A881B688000C1580423002A03D16B
:10CF70002388023B23800623CE7E2888009AF61A57
:10CF8000F6B21D3306301018C918320032F014F80A
:10CF90002B88F3182B8023889E1B2680238834201F
:10CFA000BB420ED32888009B06303A00181801991E
:10CFB00032F002F800202B88FB182B802388DF1B1F
:10CFC0002780FEBD9CB90000F0B587B00293002316
:10CFD00013800C9B04001B78160004910093002B17
:10CFE00000D00BE1038043880279052B0DD0062B7E
:10CFF0002ED0042B00D01DE1914B522A00D11DE10F
:10D000001F21D22A03D1152105E017218D4B8A4219
:10D0100000D311E111008900CB580193002B00D1FE
:10D020000AE1029B651D1A715F1D2388013323806D
:10D0300033880133338000230393019B1878009BCE
:10D04000002800D1ABE0002B05D0009807B0F0BD60
:10D050000F217D4BDBE7019B0133059352280FD84D
:10D06000402811D9413811280ED831F079FF5410D9
:10D070000D0D0D0D0D0D0D0D3A2E0D0D0D8B0D47DA
:10D0800057280FD06C2853D03423009319E02B7805
:10D0900001353B7023880137013323803388013306
:10D0A00033800EE001226B1C934322889D1C0232C8
:10D0B00022803288023232801B883B701B0A7B70D0
:10D0C0000237019B01330193B7E7012301359D43EB
:10D0D0002388023502332380338803970233338059
:10D0E000EEE729003800102231F066FF2388103562
:10D0F00010332380338810371033D1E729003800EC
:10D10000082231F059FF23880835083323803388FB
:10D1100008370833C4E729003800062231F04CFFF5
:10D120002388063506332380338806370633B7E76E
:10D130000123019A013552789D432B880235572AE5
:10D140001BD15B009BB2414A3188908822889A1893
:10D150002280021F521A92B201929A4200D9019380
:10D160002900019A380031F027FF019A3388AD1861
:10D170009B183380059B0193A3E7422AE3D0059BCC
:10D18000019381E729003800202231F015FF238820
:10D1900020352033238033882037203380E7002B4D
:10D1A00000D052E7039B002B06D03388039A043B40
:10D1B0009BB213701B0A537063881720052B04D091
:10D1C0002A30062B01D00BF04FF92388834212D866
:10D1D000029A13701B0A5370638893701B0AD370F2
:10D1E0003288131D338023889B1A2380049B0434C8
:10D1F0002D1B1D8029E731230093F7E7134A03888D
:10D2000092889A4200D91A00049B211D1B8802981B
:10D21000C91895B231F0D0FE3388049AEB183380E8
:10D22000049B1B88EB18138023885D1B002325803B
:10D2300000930AE73323FBE73423F9E71421EAE6F6
:10D2400088D8041840D9041804D9041884B90000F7
:10D25000F0B58DB0079312AB069204CB01911B88F9
:10D260000B92039314AB1B78022B00D0DFE0994B99
:10D2700080001B68C35804930B79498805290ED098
:10D28000062900D1F3E0042911D1934A522B00D191
:10D290001DE11F21D22B00D0EBE01523EDE0049A15
:10D2A0000332D27F002A00D00EE13F2706E0019B27
:10D2B00003201A88894B33271B6898470222019B59
:10D2C0005B889343042B04D0049B019A0333DB7FD8
:10D2D000537138000DB0F0BD029B01330593522805
:10D2E0000FD8402811D9413811280ED831F038FE16
:10D2F000550F0D0D0D0D0D0D0D0D22160D0D0D2BD8
:10D300000D4C57280AD06C2850D0342738E02B78A1
:10D310000136237001350134F6B231E00123621C7D
:10D320009A436B7829781B020B43941C13800235B7
:10D330000236F1E729002000102231F03DFE1034C2
:10D3400010351036E8E7049B1B7F043B9B1B0993B9
:10D350000593202B01D9202305936B461B7D2900C3
:10D360002000059A0A9331F027FE099B1F2B01D854
:10D3700001230893059BE418ED180A9BF318DEB20D
:10D38000029B0133029386E029002000082231F03D
:10D3900013FE083408350836BEE7290020000622AF
:10D3A00031F00AFE063406350636B5E70122019B48
:10D3B00001349443029A1B8852785B1A9BB2572A15
:10D3C0001AD15B08049A2900127F2380043AD2B252
:10D3D000931BDEB2023420000892320031F0ECFDE3
:10D3E000019B019A1B88A41902331380059B089E98
:10D3F000029301230893C3E7422AE3D0059B0293DB
:10D400000123089381E7914251D8089B002B01D159
:10D4100091424CD1079B521A1A80019B069A043301
:10D42000E31A1488E4181480002F00D046E7039B09
:10D43000002B1AD0079B039A1B883427934200D2F3
:10D4400047E7069B01981988043040180B9931F082
:10D45000B3FD069B039A1B88D318069A1380079B7B
:10D46000039A1B889B1A079A1380002731E70F2124
:10D470001B4A3F278B4200D320E79B009B58029317
:10D48000002B00D111E7019B01265C1D00231F002A
:10D49000049D08932235029BB1B21878079B1A8825
:10D4A0000028B0D0002F02D1914200D814E7019B90
:10D4B00034275B88052B00D000E7019B1B88172BC6
:10D4C00000D8FBE6033FF9E61721064AD1E714230B
:10D4D000D3E7C0469CB9000088D8041808BF0000F4
:10D4E00004D9041840D904182C4B82001B6870B56D
:10D4F000D4580500E068002820D0294B82889A4241
:10D5000016D10121028A280000F034FD011E05D049
:10D51000002334228360280000F09EFDE0682FF095
:10D520009DF90023E3600023E3760433237770BD85
:10D5300034230C3003702FF05FF9F2E7E37E227F93
:10D540009A42F0D9032BEED9210004201F312A0280
:10D550004D7813B20243E07F2D02054311003426BB
:10D5600028B2052D0AD0062804D0013E042805D192
:10D57000062100E008213426194389B24A230948CC
:10D580002FF016F90023067043808380C580A31C0A
:10D59000DB7F03722FF030F9C5E7C0469CB900006D
:10D5A0000E0A0000130A0000F0B50E00A44B17008D
:10D5B0001B68820085B0D5580290E87E2C7FA0427F
:10D5C00025D23B88002B01D105B0F0BD241A9C4226
:10D5D00000D91C001D3022003168281831F0ECFC05
:10D5E000EB7E1B19DBB2EB763A88121B3A8032686D
:10D5F00014193460042BE0D1AB7F6A7F1B02134304
:10D60000172B00D917232A7F9B182B77D5E7A04229
:10D61000DAD1AB7F6A7F1B02134300932B001F33C9
:10D620005B78EA7F1B0213430193403B3F2B00D9F9
:10D63000A7E00121019A029800F09CFC041E00D191
:10D64000EBE0431CDB7FDB0700D4E6E08668002EBE
:10D650003BD033000C3BEB60338970880393002789
:10D66000618A009B99426AD3A38A9C46002B00D111
:10D6700083E0228A039B9A4200D280E0002834D1C2
:10D680009A1C009B9A4235DB002F59D16346013B1F
:10D69000A382002E30D1029A039B100204220A3387
:10D6A0009BB20243E18B67482FF082F80123C380CD
:10D6B000019B47808380039B038103000C3BA06098
:10D6C000EB600770009B2B834AE0009B012B08D97D
:10D6D0002B0021331A785B7830001B02134303932D
:10D6E000BDE7300034270396BAE7009BC218039BBE
:10D6F0009A42C9DD342723E0F488009B01340230CC
:10D70000C018A4B24B1EF480C018FEF7D9FB80B23B
:10D710008442D7D90421029B4B481A0211430623A5
:10D720000A002FF045F803230370019B4380012377
:10D730008380F388013BF3802FF05EF8C2E7322745
:10D7400002983A00210000F087FCE868002803D026
:10D750002FF084F80023EB600023A360332F5CD00C
:10D76000E868002800D12FE7002F00D12CE70C300B
:10D770002FF042F80023EB6026E73B27E0E7312754
:10D78000DEE70426AB1CDB7F0393029B1B021AB26D
:10D790001E436B4604215B5E0199052938D0062B98
:10D7A00031D0042B39D106240298144303F0B2FE81
:10D7B000009B312798428041A4B20740009B002B78
:10D7C00000D134270AF050FE009B984222D34A230E
:10D7D000002F02D1009B4A339BB2320021001B482C
:10D7E0002EF0E6FF00234380019B0770C3807B423D
:10D7F0007B41009A5B4213408380039B0C38037586
:10D800001300E8605FE708241443A4B20027D5E7BB
:10D810003400FBE731274A23DFE70422029B0B4851
:10D82000190211434A230A002EF0C2FF33270023B6
:10D83000019A43800770C28083800C38E8608FE7CC
:10D840009CB900000E0A00000B0A0000130A000039
:10D8500042574200426C42005757576C42004B00FF
:10D860005752004241005050004257576C570042F7
:10D870004C575700424C5757575700424C5700429D
:10D880004C575757575700000000000050D8041855
:10D890007DD804187DD8041871D8041854D80418F9
:10D8A00058D8041855D8041859D8041854D804184E
:10D8B0007DD8041855D8041871D8041855D8041800
:10D8C0006CD8041855D8041859D8041854D804181A
:10D8D0005AD8041865D804185AD804185AD8041805
:10D8E00059D8041859D80418BCE3051865D8041889
:10D8F000000000005AD80418000000005AD804188C
:10D9000065D8041800000000A4E30518A4E3051876
:10D910005ED804185ED80418BCE305185ED8041855
:10D9200060D804185ED8041863D804185ED80418A8
:10D93000BCE3051866D804185ED80418BCE30518C3
:10D940000000000069D8041800000000000000007A
:10D9500000000000000000006FD804186FD8041801
:10D9600000000000000000000000000000000000B7
:10D9700000000000000000000000000000000000A7
:10D98000000000000000000074D804187BD80418C0
:10D990007FD804187FD804186FD80418F8B50E0083
:10D9A0008A880221050000F0E5FA041E0ED0471C0B
:10D9B000FB7FDB070AD5818B1D4BF2885B1A9A42ED
:10D9C00006DD01003D22280000F046FB0020F8BDE6
:10D9D000002AFBD004232A02C18B1A4315482EF0DB
:10D9E000E7FEF288A38BD318A383E38942800380E8
:10D9F0002EF002FFFA7F9307E8D56368002B04D16D
:10DA00000D4B290003201B6898470222FB7F93439C
:10DA1000FB770A4BAA001B686168D0580C390430A8
:10DA20002FF0F8FE01212800FEF7BEFACEE7C0462F
:10DA3000FFFF00000C0A000008BF00009CB90000B6
:10DA4000F7B50D0000210600FEF73AFC00282ED0A5
:10DA50006A7843789A422AD10178012927D18288AD
:10DA6000300000F087FA3323041E01931AD00427F4
:10DA700033021F43390026482EF0F8FDAB890B2BEB
:10DA800044D8244AD35C0193002B06D1AA88130002
:10DA9000403B3F2B0DD94C23019300222100300045
:10DAA00000F084FA00213000019AFEF701FB00200B
:10DAB000FEBDEB88162BEED92B89162BEBD9022154
:10DAC000300000F057FA0028E5D13A00E18B0C2332
:10DAD00011482EF06DFEAB88E382EA8822832B8901
:10DAE00063839C4601236989651CA183EF7F3B43C7
:10DAF000EB77A3894380E389C180838063464381B8
:10DB00000023028103702EF077FECBE73C23C3E7AE
:10DB1000140A0000E8DE0418080A000070B50D00C1
:10DB200000210400FEF7CCFB00281ED06A78437861
:10DB30009A421AD10378022B17D101214288200082
:10DB400000F018FA4725011E04D00122200000F041
:10DB50002DFA002504212302054819432EF086FDE5
:10DB60002A0000212000FEF7A3FA002070BDC04665
:10DB7000140A00001523F0B589B002AA05009B180D
:10DB8000162288880F0002A9521829000AF058FDB1
:10DB900084B2472C00D193E00121280005F0E0FF7A
:10DBA00002AB01005E7D002800D071E0B3070CD00D
:10DBB000280005F0D5FF002806D00221280005F036
:10DBC000CFFF3924002800D13624E0B200F0B4F9A8
:10DBD0000590002800D07AE0FA881300403B3F2BE4
:10DBE00001D9092305933B89162B00D86AE07B896C
:10DBF000162B00D866E00221280000F0BBF90A23AA
:10DC0000002800D062E00121B8880AF033FD002826
:10DC10005BD1059B002B5AD12A02043302A91A4377
:10DC2000C98A04332F482EF0C3FD012106002420A9
:10DC30002EF0F6FEBB88059A8381C281FB8802AA7A
:10DC4000C3823B89040003837B89AD004383BB8986
:10DC500021008383D38AC383042303847A78C31C7B
:10DC6000DA77059B436083601F4B1B68E8581030D0
:10DC70002FF006FEA38930003380E38A7380238B64
:10DC8000B380638BF3802EF0B7FD002009B0F0BDA8
:10DC9000B3070CD402AB5B7D5B0700D495E728008B
:10DCA00005F098FF0F2800D98FE738248DE728006A
:10DCB00005F07AFF03231E40B04200D284E7E9E773
:10DCC0003A2482E70B23059395E704230593002369
:10DCD00028007A78059902930193009300F004FAE2
:10DCE000D3E7C046060A00009CB90000F8B50E0054
:10DCF000CA880221050000F03DF9041E12D0012758
:10DD0000421CD37FBB43D377A322831CDA77C28A1A
:10DD1000C3897178280000F027FA3A002100280012
:10DD200000F044F90020F8BDF8B58B8804000D0020
:10DD30004C27022B01D8274AD75C00212000FEF790
:10DD400099FA431E06000021012B03D82000FEF79C
:10DD5000B7FA41780423220210B21A436B788B423F
:10DD60002ED111001C482EF081FC012E14D100216F
:10DD70002000FEF7A5FA002807D082883100200095
:10DD800000F0F8F80022011E16D120003A00002110
:10DD9000FEF78EF90020F8BD022EF6D100212000FA
:10DDA000FEF78EFA0028F0D001214288200000F012
:10DDB000E1F8011EE9D00122200000F0F7F8E4E7C5
:10DDC00008230343280099B208382EF036FD0120BD
:10DDD000E1E7C046F4DE0418140A0000F0B585B08F
:10DDE0001C000AAB1E8800270423150002020391C1
:10DDF0001343052101220097FFF720F88580012DAC
:10DE000003D0022D0FD0C78003E00472240AC5801E
:10DE10004472039B4370C38801335B004380FFF768
:10DE200023F805B0F0BD04728672240A360AC58054
:10DE30004472C672EDE773B505000E0005F068FD8B
:10DE4000041E08D103000200009071782800FFF73B
:10DE5000C5FF200076BD08212A023000042513B238
:10DE6000194308382A4389B22EF0E7FC0120F1E774
:10DE700037B504000D0005F04BFD012809D1697884
:10DE8000002520002B002A000095FFF7A7FF28009F
:10DE90003EBD082122022800042413B21943083889
:10DEA000224389B22EF0C9FC0120F1E773B50823A3
:10DEB00000240D790B4A1678AE4200D15468013B1C
:10DEC000DBB20832002BF6D1002C02D00431A0477F
:10DED00076BD4979230022000094FFF77FFF2000E0
:10DEE000F6E7C046F8DE0418003C3A3C35363738D1
:10DEF00039333E403C3133000100000029DD041875
:10DF00001200000071DE04181300000037DE041850
:10DF100006000000EDDC0418070000001DDB0418FB
:10DF20001400000075DB04181500000041DA041825
:10DF3000160000009DD90418030000B500280DD07C
:10DF4000353BDAB218000623052A07D8052804D87D
:10DF500031F006F80608030A0C0E062398B200BD3D
:10DF60000423FBE70523F9E70723F7E70823F5E791
:10DF70000223F3E70C4B80001B68C058002811D027
:10DF8000006900280ED0012908D0022908D00029F4
:10DF900002D18389934205D00068F2E7C389F9E78B
:10DFA000C38AF7E77047C0469CB90000F0B5284B1C
:10DFB00085B01B6803928200D658070030000C0021
:10DFC00010302FF079FC631CD97FA0894907C90F55
:10DFD0000AF06AFB039B002B10D004233A021A4379
:10DFE000E18B1C482EF0E4FBE3890380A31CDB7F5C
:10DFF000002B00D1463383702EF0FEFBA068002872
:10E0000007D0F3680C38834201D10023F3602EF06F
:10E0100025FC6568002D15D00C3D2900301D2FF022
:10E020004BFC039B002B0AD0002063682A891978D7
:10E0300001909B88380000934623FEF721F82800C2
:10E040002EF00CFC20002EF075FD05B0F0BDC04692
:10E050009CB900000A0A0000042370B50C000102FC
:10E060001943150008480A002EF0A2FBE3894380FB
:10E07000022303702EF0C0FB0121621CD37F023407
:10E080008B43D377E57770BD090A0000F0B504240F
:10E0900087B01D000CAB1B880F0003930DAB1B88D2
:10E0A000160004930EAB1B881422059303021C4335
:10E0B0000023052100932300FEF7C0FE039B477059
:10E0C0008381049B86804381059BC5800381FEF785
:10E0D000CBFE2100024A03482EF02EFA07B0F0BD15
:10E0E00030750000140A0000F0B585B01C000AABC2
:10E0F0001F880BAB1E880CAB1B88150003930423F1
:10E100000202134300220291009205211532FEF70C
:10E1100095FE039B4570C380029B848047810681E6
:10E120008381FEF7A1FE05B0F0BD0000F7B5042421
:10E130001D0003021C4300230F00160005210622C8
:10E1400000932300FEF77AFE4770C6808580FEF7B5
:10E150008BFE2100024A03482EF0EEF9F7BDC046BF
:10E1600030750000140A000073B51C00042315006C
:10E170000202134300220E00009205210732FEF72F
:10E180005DFE46708580C480FEF76EFE73BD73B57C
:10E190001C00042315000202134300220E0000920B
:10E1A00005211632FEF74AFE46708580C480FEF7D0
:10E1B0005BFE73BD7FB505000E001400684610229B
:10E1C0000A4930F0F9FE0C20042C03D0022C01D0B7
:10E1D0000020102431002200684430F0EDFE2800B9
:10E1E0001022694630F0E8FE7FBDC0463CE90418C5
:10E1F00070B516001D0088B0022909D1022B0BD181
:10E200002A00310030F0CAFE43425841C4B206E051
:10E21000042907D1042BF3D00024102D04D02000B2
:10E2200008B070BD1029F7D10A0001006846FFF759
:10E23000C1FF2A00310004A8FFF7BCFF1022684686
:10E2400004A9DFE707B513006A46063213800223EC
:10E25000FFF7CEFF0EBD000030B51025040085B0DD
:10E260002A006846084930F0A7FE210002220C313E
:10E2700003A830F0A1FE2B00220029006846FFF71A
:10E28000B7FF05B030BDC0463CE9041830B51025D5
:10E29000040085B02A006846084930F08DFE210050
:10E2A00004220C3103A830F087FE2B002200290045
:10E2B0006846FFF79DFF05B030BDC0463CE9041835
:10E2C000F0B587B003930CAB019204CB02901E888B
:10E2D0000FAB1F7804ABD98001230025072118005C
:10E2E0000492039A934235D31623681C03215843A2
:10E2F0002EF096FB029B04001B884680038060235F
:10E300009F4307710126002704AB457102220630A6
:10E31000991D30F051FE0E9D0835039B9E4229D376
:10E32000200000F057FB051E0ED12388029A010041
:10E33000138007220300944601270398CAB2904233
:10E3400002D90498002838D120002EF0F3FB2800D1
:10E3500007B0F0BD019A002A07D0019CDA08A25C40
:10E360001C000C402241024201D00135EDB20133C4
:10E37000DBB2B6E7019B002B07D0019AF308D35C10
:10E38000072232401341DB0713D5162316207B43A7
:10E39000EA88E3181A85AA88124901370A407843A7
:10E3A0005A856A882900DA842018022230F004FE97
:10E3B000FFB20136F6B20835AFE70198002807D062
:10E3C000019ED008305C664632401041384206D08B
:10E3D000029A049812889A1801334254DBB2013130
:10E3E000ABE7C046FF9FFFFFF0B587B003930CABD0
:10E3F000019204CB0F001B88029005930FAB1D7890
:10E4000001230026072118000492039A93423AD36D
:10E410001620731C584303212EF002FB029B0400BC
:10E420001B8805710380059B6D064671438002229F
:10E430000630AD0F03D09218012D00D00C323900F8
:10E440000126002730F0B8FD0E9D1635039B9E4235
:10E4500029D3200000F0BEFA051E0ED12388029AAF
:10E460000100138007220300944601270398CAB2D3
:10E47000904202D90498002843D120002EF05AFB84
:10E48000280007B0F0BD019A002A07D0019CDA08E5
:10E49000A25C1C000C402241024201D00136F6B2BF
:10E4A0000133DBB2B1E7019B002B07D0019AF308DF
:10E4B000D35C072232401341DB071ED516227A4374
:10E4C000AB8AA21813856B8A781C5385298A5B1343
:10E4D000D1840321162219408C4603215043143A5B
:10E4E00020180B4204D063460232012B00D00C32BC
:10E4F000290030F061FD0137FFB20136F6B2163562
:10E50000A4E70198002807D0019ED008305C664639
:10E5100032401041384206D0029A049812889A1864
:10E5200001334254DBB20131A0E710B586B06A4630
:10E5300003880400013968461380517100F026FAFF
:10E540006B461B88238006B010BD0000F0B585B077
:10E5500001930023140002AA0F001100029313710B
:10E5600000F008FE061E07D1A02102A8890100F0D4
:10E5700057FE002803D00626300005B0F0BD204924
:10E5800002A800F04DFE0028F5D11E4902A800F0B7
:10E5900047FE0028EFD11C4902A800F041FE0028E8
:10E5A000E9D1A42102A8890100F03AFE0028E2D1B5
:10E5B000164902A800F034FE0028DCD1144902A854
:10E5C00000F02EFE0028D6D1029A0420115E938816
:10E5D0000029D0DB1B051D0D55196B88A34200D205
:10E5E00007262A883B19934207DC201D3A0001992F
:10E5F000281830F0E1FC6F80BEE70D26BCE7C0466E
:10E600000128000003280000022800000229000061
:10E61000032900000023F0B58FB006AE039131004E
:10E62000070015000693337100F0A4FD041E1BD1F2
:10E63000A0213000890100F0F3FD002817D00F273A
:10E6400002ABFF1801233900300000930AAA00F042
:10E6500043FE041E08D14B4E3A78039B30001A80CB
:10E660000AA930F0A9FC2E6020000FB0F0BD3000E8
:10E67000454900F0D5FD0028E1D13000434900F0C4
:10E68000CFFD002826D0013708AEBFB20894310074
:10E690003471380000F06EFD041E4FD101230F21AC
:10E6A0000093030002A809180AAA300000F014FE23
:10E6B00002ABDA7B0399D31C0B80089B34495B883F
:10E6C00034481B0A4B77CF830AA930F075FC2D4BD9
:10E6D0002B60C9E73000304900F0A2FD00282FD0A0
:10E6E000336808AE9A8831001205120D9B185879CC
:10E6F0001A79000208941043347100F03BFD041EA7
:10E700001CD10F2702ABFF18012339003000009302
:10E710000AAA00F0E1FD3F78039A089E3B1D138092
:10E7200031000222174830F047FC0222B11C1B487E
:10E7300030F042FC3A001A480AA9C6E7802493E761
:10E74000A4213000890100F06BFD3168002808D059
:10E750008A881205130D0222CB18039904330A800C
:10E76000B6E704200A5E8B88002A08DB1B051B0D18
:10E77000CB181A1D2A605B88039A138074E706245D
:10E7800072E7C046D5B90000012800000328000048
:10E79000B8B90000D8B9000002280000D7B90000BD
:10E7A000D9B900000023F0B587B0019202AA009108
:10E7B000110004000293137100F0DCFC051E07D168
:10E7C000A02102A8890100F02BFD002803D0062516
:10E7D000280007B0F0BD204902A800F021FD002864
:10E7E000F5D11E4902A800F01BFD0028EFD11C49FD
:10E7F00002A800F015FD0028E9D1A42102A8890192
:10E8000000F00EFD0028E2D104AF013C3900A0B2B7
:10E81000029E04953D7100F0ADFC00280DD138003A
:10E820000E4900F0FDFC002807D07388009A1B0AEF
:10E83000120A934201D004F0D7FD8022009B019977
:10E8400052017380B388114202D01343B380BFE7F3
:10E85000044A1340FAE7C0460128000003280000DC
:10E8600002280000FFEFFFFF73B5002315006A4682
:10E870000E0069460093137100F07CFC041E07D162
:10E88000A0216846890100F0CBFC002802D00624B4
:10E89000200076BD68460F4900F0C2FC0028F6D182
:10E8A00068460D4900F0BCFC0028F0D168460B49D1
:10E8B00000F0B6FC0028EAD1A4216846890100F0E6
:10E8C000AFFC0028E3D1009B5A88B2432A435A8008
:10E8D000DEE7C046012800000328000002280000EF
:10E8E00010B50C0000F0AEFA03000120002B06D09A
:10E8F00060220020997A944311402143997210BDFF
:10E9000010B50C0000F09EFA03000120002B04D08B
:10E91000602200209B7A9343237010BD10B501281C
:10E9200004D0022801D100F075FA10BD0022024B7C
:10E930005A609A60F9E7C046B8B90000FB349B5FA3
:10E94000800000800010000000000000F7B50E4CB1
:10E95000050027680E000192002F14D0002806D170
:10E96000200010220C3030F027FB012323773B6876
:10E97000002B03D031002800019A984720682EF020
:10E98000D9F800232360F7BDB8B900000288104B06
:10E99000002A18D101221B680280002B16D0417971
:10E9A0000288521899888A4210DBDA880132F2E72D
:10E9B000D988914207D3417900209B888A189A42CE
:10E9C0004041C0B270471B68002BF1D10020F9E72D
:10E9D000BCB90000F0B589B00190FFF7D7FF051E64
:10E9E000039016D1019B10241E797606B60F08D02D
:10E9F0000434012E05D0022E00D1EBE14023043C6B
:10EA00000393019B5B79AB4200D8C7E0039B002BCB
:10EA100010D0039809B0F0BD6022019B01991B79C9
:10EA200038009343019A12311371320030F0C4FA66
:10EA30001024E6E716236B43019AD3185B8D5B0421
:10EA40009B0F38D0012B31D0022B02D040230393EF
:10EA5000DFE71027A01D83B202931623691C4B43E6
:10EA60000493049A019B39009E18A0223000920161
:10EA7000FFF7E8FB0028E9D139003000CC4AFFF766
:10EA8000E1FB0028E2D139003000CA4AFFF7DAFB87
:10EA9000002815D016236B43019AD318A022DB8CD3
:10EAA0001201134093421CD05623D0E7A01D83B21D
:10EAB00004270293D1E7A01D83B202270293CCE77B
:10EAC00039003000BC4AFFF7BDFB0028E2D1390015
:10EAD0003000BA4AFFF7B6FB002806D00C34A3B2C8
:10EAE00002930135029CEDB28BE7A422390030007D
:10EAF0009201FFF7A7FB0028F0D139003000B04A9F
:10EB0000FFF7A0FB0028ECD1042F03D10A34A3B2F5
:10EB1000029316E0102F14D13000FFF79DFB002860
:10EB200021D016236B43019AA649D3185A8D0A4067
:10EB30005A8502220499019B0C315918300030F09B
:10EB40003BFA16236B43019AD3182A215A5E002AF6
:10EB5000C7DB188D01230005000D05309843029B8B
:10EB6000181883B2BCE73000FFF790FB002813D0E1
:10EB70000A34A3B2029316236B43019A9149D31826
:10EB80005A8D1140802292010A4304995A85019BB3
:10EB90000C3104225918D1E71634B8E7039B002B37
:10EBA00000D036E7200001212DF03AFF019B019AA9
:10EBB0001B8805008380527904199B18C380019B30
:10EBC000039A5B880381019B1B79C27283725B0687
:10EBD0009B0F17D1019B0222991D0C3030F0ECF9EC
:10EBE0000027019B5B79BB4220D800230120764A95
:10EBF0001168002900D1D5E0002B00D1C8E004F055
:10EC0000F3FB06E7012B0AD10422019B043C991D6A
:10EC1000200030F0D1F92B1DE31AAB81E0E7022B85
:10EC2000DED1019B1022103C991DF1E716210B004B
:10EC30007B43019AD3187A1C51435B8D019A5B0484
:10EC40009B0F06915618002B23D1062078430E30D7
:10EC500002223100281830F0AFF902230293062374
:10EC60007B430793EB18049316237B43019A3000F0
:10EC7000D3180593049ADB8C02991382504AFFF74C
:10EC8000E1FA002829D00023049A53820137FFB209
:10EC9000A7E7012B0ED1043C04223100200030F004
:10ECA0008BF906237B43EA180E33EB18E31AD38162
:10ECB0000423D3E700220292022BD0D1103C103261
:10ECC0003100200030F078F906237B43EA180E3338
:10ECD000EB18E31AD3811023C0E73000374A0299BA
:10ECE000FFF7B0FA002813D002220699019BA61F55
:10ECF000123132807280A01E591830F05DF906235F
:10ED00007B43EA180E33EB18F31A34005382BDE745
:10ED1000A422300002999201FFF794FA0028E3D16F
:10ED20003000244A0299FFF78DFA00280DD01622F0
:10ED300006237A4301997B438A18528D2349D204D2
:10ED4000D20FEB180A435A82A0E730001A4A029900
:10ED5000FFF778FA0028EAD1059B1D492A229A5E1E
:10ED6000059B11401B8D1B051B0D002A03DA19435F
:10ED7000049B59828AE701265A1DB243A41A079AB6
:10ED800023800E32AA18A21A049B60800A43DAE795
:10ED9000AE888C88A64203D229600300156027E75D
:10EDA0000A0025E7002B00D029E715602B6026E735
:10EDB00001280000022900000329000002280000A9
:10EDC00003280000FF9FFFFFBCB900000280FFFF87
:10EDD00000F0FFFF019B9F1D3800FFF73DFA002860
:10EDE00000D019E63800FFF751FA20231C00002854
:10EDF00000D106E66021019A380012790C3C8A4362
:10EE000013430199019A12311371042230F0D4F89E
:10EE1000F7E5C04670B50A4C606800280AD1206842
:10EE2000002801D02DF086FE00236360A3602360DC
:10EE3000237770BD05682DF07DFE2800EDE7C04604
:10EE4000B8B90000104A0300906810B55168002856
:10EE500006D084889C4203D8C18899420ED20168AA
:10EE600008000121002809D084889C4209D8C48860
:10EE70009C4204D3C47A0C4201D1906010BD00685A
:10EE8000F0E70020FAE7C046B8B90000F0B5A04BA3
:10EE90008BB0049006911C7F002C09D0071E04D073
:10EEA0000A0000209B49B847002738000BB0F0BD8E
:10EEB00027005E68002E66D0002F08D0944C206892
:10EEC0000028F2D02DF036FE00232360EDE701226A
:10EED000F37A134218D10320B288F388B17A9B1ACF
:10EEE00049110622DBB2014200D00E32A4180622DC
:10EEF0003500002753430E355B19A4B20393039BDF
:10EF00009D4201D0002F01D03668D3E703226B88E1
:10EF10005B1313420BD1A4222B88920193422ED073
:10EF200007D87D4A93420AD07C4A93421DD00635C9
:10EF3000E5E77B4A9B18042BF9D8043413E0AB882F
:10EF40001B051B0DEB1858791A7900021043FFF7C7
:10EF500079FF002815D00321827A0A2352110A4230
:10EF600000D00E33E418A4B2E1E703216A89073424
:10EF70005213A3B202240A42F4D00E34F2E706344C
:10EF8000F1E75127D3E7002F98D10321201D2DF061
:10EF900047FD2500049A5E4B026018605B68039091
:10EFA0000493049B002B00D19DE0002F03D0432F3E
:10EFB00000D17AE782E70122049BDB7A13423DD13C
:10EFC000049B06A99E88DB8809AA9B1BDBB20793DA
:10EFD0000A235B1819003000FFF71CFB049B039900
:10EFE0009B88AA1E92B25BBA8A189BB2043D137129
:10EFF000ADB21B0A53714A197F21049B07009B7A0B
:10F00000282099429B415B42537106AB5B8903996F
:10F01000ED1AADB210712A1D8A180999002B11D171
:10F02000049B01360E330593079BB6B2F3189BB2CF
:10F030000793079BB34201D0002F09D0049B1B68A4
:10F040000493AEE7013B9BB2C85C10700132E5E768
:10F050000322059B5B885B1313423ED1A422059BD0
:10F0600092011B88934204D032D82E4A9B18012B60
:10F0700033D801220398AB1E9BB271BAC31889B270
:10F080001971090A5971059B043D1B88ADB25BBA21
:10F090009BB241190B711B0A4B71002A1DD00A2328
:10F0A00006A95B18190009AA3000FFF7B3FA070098
:10F0B00006AB5B890399ED1AADB22A1D8A1809992E
:10F0C000002B0AD0013B9BB2C85C10700132F7E7FD
:10F0D000134A9B183A00042BCCD9059B0136063302
:10F0E000B6B20593A5E7002F00D060E7002D05D04C
:10F0F0000D4B2200290003201B689847069B0399AB
:10F1000000932200094B0A4804312EF063FECCE63E
:10F11000B8B90000C4B900000228000003280000AC
:10F12000FFD6FFFFFED7FFFF08BF00004DE9041820
:10F13000DCF4041870B50E4C6368002B01D101207B
:10F1400070BD9A888242F8D8DA88824201D21B6860
:10F15000F3E7DA7A0120150005408D4204D082439E
:10F160000A43DA7204F040F90020A060E8E7C046E4
:10F17000B8B9000070B505000C00FFF763FE03008E
:10F180000120002B07D09888A84205D104332360C2
:10F1900001230020237170BD01302D1A0620684321
:10F1A0000E301B18002023602071F4E770B51B4C53
:10F1B000A3686268002B07D005889E88AE4203D8FA
:10F1C000DA88AA4216D21A6813000122002B01D154
:10F1D000012070BD06889D88AE4207D3DD88B54208
:10F1E00002D3DD7A154205D01B68EFE7DE7A1642BE
:10F1F000FAD105809A880088824206D11A1D0A60D9
:10F2000001220A710020A360E3E70132801A06227E
:10F2100042430E329A180A600022F2E7B8B90000A1
:10F22000030000791B6800280BD1002B08D09A88B6
:10F230005204920F04D11888401A43425841C0B278
:10F240007047002B0AD0A02292019142F8D09B79FE
:10F2500000207F2BF4D9024BC818EEE71800EFE727
:10F26000FFD7FFFF70B50D00A02189010400FFF753
:10F27000D7FF0623002826D120001449FFF7D0FF2E
:10F28000062300281FD120001149FFF7C9FF0623DC
:10F29000002818D120000F49FFF7C2FF06230028DD
:10F2A00011D1A42120008901FFF7BAFF062300280D
:10F2B00009D121688A88130512B21B0D002A00DBD0
:10F2C000CB5A2B800300180070BDC04601280000F7
:10F2D000032800000228000073B50500100006AAEC
:10F2E000167800220A700C002968013200291AD011
:10F2F0002A79002A35D08A79002B22D053069B0F19
:10F3000019D0012B0CD10333237029680B89C9183C
:10F31000002E14D00422FEF74DFF1023237001E0CD
:10F32000022B02D00022100076BD10232370296822
:10F330000B89C91803E00223237029680831227859
:10F340000AE052B2002A0ADBA0239B016A46D3805E
:10F3500002226B462270991D2FF02EFEE2E70D4B24
:10F36000F4E78B885B049B0F08D0012B0CD0022B99
:10F37000D8D10E33237029680B88DAE70223237073
:10F3800029680029CED0DAE70423237029680B8886
:10F39000BDE7C04601280000F0B585B00A9E0F0009
:10F3A000336815000190002B26D0A0213000890180
:10F3B000FFF736FF002818D130004249FFF730FF31
:10F3C000002812D130004049FFF72AFF00280CD155
:10F3D00030003E49FFF724FF002806D1A421300069
:10F3E0008901FFF71DFF002816D080239B00002D08
:10F3F0000BD12C003B8005E031000198FFF7BAFEED
:10F40000041ED2D0200005B0F0BD9D4201D00624DC
:10F41000F8E700243C80F5E7336804005B883B8014
:10F42000002DEFD01D42F2D002ABD871D91D01984A
:10F43000FFF766FA041EE5D133680C349A888023FE
:10F440005B011A4207D102AAD17902220C001440B2
:10F45000114200D00C249D422FD00DD880239B0058
:10F460009D4218D010D31A4B1A4AEB1813420BD1F5
:10F470003B881B079B0F11E080239B019D4219D005
:10F480008023DB019D42F3D0134B2A0003201B682D
:10F490000199984703E003223B8813403B8002AB6D
:10F4A000DB79DA060CD43A881B079B0F9A42A9D263
:10F4B0003B80A7E73B889B06DCE73B881B06D9E738
:10F4C00008249FE70128000003280000022800000C
:10F4D00000FCFFFFFFFB000008BF00000000000071
:10F4E00000000000000000000000000070B50D7872
:10F4F00006001B3D6B1E9D411A4B0C00ED181A4B6C
:10F500004A881B688100CB589B69002B04D13000CE
:10F5100004F01EFB010006E09988914220D8D988AA
:10F5200091421DD3198932020626A388324306333D
:10F5300028009BB22DF03CF9237805001B3B5A1E96
:10F54000934112330370A288A1194280638883809B
:10F5500080192FF031FD28002DF04EF9002070BDEC
:10F560001B68D2E70C0C0000B0B9000010B50121F7
:10F57000040001F0EDFF0C2804D000220F2810D069
:10F5800041220EE00121200002F02EF8418903897A
:10F590000022994205D0064BA2001B68D3582C3399
:10F5A0001A782000012102F0C7F9002010BDC046E2
:10F5B000B0B9000070B50D00040008F055FF69886F
:10F5C000814200D90100200089B202F031F8012106
:10F5D000200001F0BDFF00220100012801D04122DE
:10F5E0000121200002F0A8F9002070BDF0B587B01D
:10F5F00002910121040001F0ABFF41220B2816D13A
:10F6000000260121200001F0EFFF0622370023022F
:10F610001A43039005920096039B009A5B789342ED
:10F620000CD8029B5B88BB4200D0502632002000E1
:10F63000012102F081F9002007B0F0BD0121200076
:10F6400002F08CF8009B039A9B00D3180193DB888F
:10F6500001000633059A9BB215482DF0A9F8019BCD
:10F6600005009B880380029B5A88019BD21BDB8884
:10F670009A4200D91A0093B20493AB8000236B80A6
:10F68000029B391D5918A81D2FF096FC049B049A63
:10F69000FF18019BBFB2DB88934200D050262800A0
:10F6A0002DF0AAF8009B0133DBB20093B4E7C0460B
:10F6B000090C0000F7B50E000121070001F048FF1A
:10F6C0000C2824D10121380001F08EFFB588C388B1
:10F6D0000400ED1AADB229000C314581411830000B
:10F6E000F38808301A0001932FF058FC00280CD141
:10F6F000019B5D1923899D4207DCADB201213800D1
:10F70000658101F0F9FF0020FEBD044DF6E74122BE
:10F710000121380002F010F9F5E7C046FFFF0000B4
:10F72000F0B585B001910121040001F011FF4022E4
:10F7300003281AD10121200001F056FF06220500FE
:10F74000002623021A43A3000393274B029200933F
:10F75000019B5B88B3420DD8009BEA8801339BB2C2
:10F760009A4201D3002B37D10A220121200002F056
:10F77000E3F836E00121200001F0F0FF6B78010092
:10F78000029A063319482DF013F8019B07009919C6
:10F790004A790B792900120213430380019AB31CA2
:10F7A0009BB2D3185A791B791202134343800093FA
:10F7B0006A780831027105302FF0FEFB38002DF019
:10F7C0001BF80B4B039A1B6804369B58B6B24C339C
:10F7D0001A7801321A70BBE701212000AB8001F0DA
:10F7E0008BFF002005B0F0BDFFFF0000040C0000FF
:10F7F000B0B90000F0B587B002910121050001F019
:10F80000A7FE402207281FD10121280001F0ECFEAD
:10F81000029B03905B780227012B00D00E37002457
:10F82000062226002B021A43AB0004920593029B8A
:10F830005B88B3420DD8039B0134DB88A4B2A3429A
:10F8400001D3002C30D10A220121280002F074F8E3
:10F8500030E00121280001F081FF049A01003B1DE6
:10F8600016482CF0A5FF029BB11C9B195C791B79F3
:10F8700024021C4389B2029B04313A0059180190BA
:10F880000480877003302FF097FBBB1C0198F6189B
:10F890002CF0B2FF0A4B059A1B68B6B29B584C334A
:10F8A0001A7801321A70C2E7039B012128009C805C
:10F8B00001F022FF002007B0F0BDC046070C000099
:10F8C000B0B90000F0B587B000914E884F780121A3
:10F8D000040001F03DFE0500022800D07FE0390061
:10F8E0003000FCF7EDFA002800D178E0012120007B
:10F8F00001F07AFE009B02905B78142B00D10E354C
:10F9000000260622370023021A43A300049205931F
:10F910000396009B5B88BB4259D9002E59D1314BCD
:10F92000039A9A4211D1039B029A0133D2889BB267
:10F930009A424ED3002B4CD0029A01212000938092
:10F9400001F0DAFE002007B0F0BD0121200001F037
:10F9500005FFAB1D0100049ADBB223482CF028FF01
:10F96000009B461DD9194A790B7912021343038073
:10F97000009ABB1C9BB2D3185A791B79120213430D
:10F980000393391D039A009B89B2043142805918B0
:10F990002A000190057130002FF00EFB2B1DDBB209
:10F9A000029AFF18029B08325B7829003000FEF7AC
:10F9B0001FFC060001982CF01FFF0C4B059A1B68DA
:10F9C000BFB29B584C331A7801321A70A1E7002E4F
:10F9D000A9D000220121200001F0AEFFB2E74122B0
:10F9E000F8E7C046FFFF0000040C0000B0B90000BB
:10F9F00010B50121040001F0ABFD00220C2800D05D
:10FA000041222000012101F097FF002010BD0000DD
:10FA10007F2310B50A780C001340522B09D01E2A00
:10FA200007D0062100020143C420044A00012CF043
:10FA300083FD2000FDF718FA10BDC04630750000A8
:10FA4000062302021343002213B5042100921E3242
:10FA50000400FDF7F3F901002000FFF7D9FF13BD03
:10FA6000062337B50202134300220D000092042141
:10FA700018320400FDF7E2F9457001002000FFF79D
:10FA8000C7FF37BD70B50B7904000D00122B0ED1E6
:10FA900004F05EF80622230201001A4317482CF0F6
:10FAA000C5FE012120002A7901F046FF24E00A2B3F
:10FAB0000BD1134B82001B68D3584C331A78002AA1
:10FAC00003D000221A700A71EBE76B78162BE8D18D
:10FAD0000121200001F088FD0028E2D04378002BAE
:10FAE000DFD0074BA2001B680021D3582A792C33A2
:10FAF00020001A70FFF7B4FF002070BD230C000037
:10FB0000B0B90000F0B50C0089B00121050001F08A
:10FB10001FFD062805D804282FD800D1A4E04022D4
:10FB200049E00A28FBD12800667801F0F3FC02388E
:10FB30000121864200DB13E1280001F00FFE0622BE
:10FB40006378010028020243043396482CF030FE0B
:10FB500000260700637922791B0213430380627831
:10FB6000A11D023A92B28280468006302FF024FA1C
:10FB700038002CF041FE32001DE00121280001F088
:10FB800033FD049063781027072B00D80E3F062220
:10FB90002B021A43AB00079300231E000692059325
:10FBA0006388B3420CD8059B049A0133D2889BB278
:10FBB0009A4250D20A220121280001F0BDFECDE078
:10FBC000A219537912791B021A43049B05921B78E0
:10FBD000052B30D10121280001F0C0FD069A01005B
:10FBE000BB1D71482CF0E4FDB31C9BB2E3181B79DC
:10FBF000059A0371F31C9BB20280E3185A7905360B
:10FC00001B791202B6B21343311D43803A000390B0
:10FC10004771611806302FF0CFF903982CF0ECFDF6
:10FC2000624B079A1B68F6199B58B6B24C331A7888
:10FC300001321A70B4E73000049B049A093039008D
:10FC40005B7820180832FEF7D3FA0028C2D1637817
:10FC5000F618B6B2A4E7049A002BABD00121280015
:10FC6000938001F049FD79E00121280001F0BCFCFE
:10FC7000079063885B071ED101230593DB180026DC
:10FC80000622370003932B021A43069204966388D8
:10FC9000BB4214D8059B002B01D1002E50D1049BF0
:10FCA000079A0133D2889BB29A4283D3002B00D1AA
:10FCB00080E7079AD2E7002305931033DFE701219D
:10FCC000280001F04BFD039B0100069A08333848D9
:10FCD0002CF06EFDE219537912791B021A43BB1CFA
:10FCE0009BB20280E31804925A791B7912021343E3
:10FCF00043803B1D9BB2E3185A791B7912021343D0
:10FD00008380059BB91D060089B2002B0FD0039B91
:10FD100004311A008371611807302FF04DF9039BED
:10FD200030000633FF18BFB22CF066FDAFE731009C
:10FD30001E4BAA001B680C39D05810302DF06AFDFC
:10FD400000240421069B0A2228000094FDF776F87F
:10FD50007388010043802800FFF75AFE00201EE050
:10FD6000280001F041FC637922791B021343002231
:10FD700083806378028122002100023B9BB2083A13
:10FD8000C3805380094BAA001B681439D058103027
:10FD90002DF040FD0121280001F0AEFC012009B04A
:10FDA000F0BDC046090C0000060C0000B0B9000010
:10FDB000050C0000F0B5374C830085B00393236831
:10FDC00082009B5805001B69002B47D0012101F0E0
:10FDD0000BFC2368AA009B5807001C690121230023
:10FDE0000C3301932800E68901F0B8FC2A020625AD
:10FDF000B31D01009BB22A4327482CF0D9FC868012
:10FE0000BB8805000380FB88002602934380237D86
:10FE1000092B17D12100627D0630023A1A312FF0EA
:10FE2000CBF8637D27689E1EB6B2002F03D0029ADE
:10FE3000D31A02336B8020002CF010FD3B003C00F5
:10FE40000C330193002C0BD1124B039A1B6898586A
:10FE500010302DF0C9FC28002CF0CEFC05B0F0BD10
:10FE6000019BB01D19005A8928180C312FF0A4F8F5
:10FE7000019B24685A899619B6B2002C02D06B886F
:10FE80009B1A6B8001980C382CF0E8FC20000C3099
:10FE90000190D7E7B0B90000090C0000F7B50D00DC
:10FEA0000121040001F054FB042830D00838C0B20E
:10FEB000022800D97DE00121200001F095FB2B00F4
:10FEC0000022290006003C4F083B5A80A300019302
:10FED0003B68A2009858143910302DF09BFC3289F1
:10FEE000002A43D13B68A2009B586F881A69D389C6
:10FEF000FB189BB2D3818222920093423CD3F83A02
:10FF0000FF3A0121200001F017FD0120FEBD012173
:10FF1000200001F069FB284BA2001B680700D058A5
:10FF200010302DF0BFFC291D0300102506000C33F6
:10FF30002A00133001932FF03FF80198B5742CF08C
:10FF40005BFCB389FA8801339BB29A4201D3002B40
:10FF500005D10A220121200001F0EEFC04E001217C
:10FF60002000BB8001F0C8FB0020CFE76B889342E4
:10FF700000D913006B80B5E7200001F0CBFA0138FF
:10FF8000874205DB6A8833899A4206D3002B04D066
:10FF90002000FFF70FFF0022B3E7F1885118F1802E
:10FFA000002B01D09B1A33810121200001F0A4FB1A
:10FFB000ABE74122CEE7C046B0B9000070B50E23D2
:10FFC000050000260C000A7A0E490878904200D1FC
:10FFD0004E68013BDBB20831002BF6D1FF20002E2A
:10FFE0000ED01B3AFD331A4206D00621C4202B0244
:10FFF000194300012CF03AFB210028000831B047DA
:020000041805DD
:1000000070BDC0460800051803000000B5F50418CF
:1000100005000000F5F704180700000021F7041898
:100020000900000005FB041811000000C5F80418C1
:100030000B0000009DFE04180D0000009DFE04183A
:100040000F000000EDF5041813000000F1F904188A
:1000500017000000B5F60418190000006DF504182B
:100060000100000085FA04181D000000EDF40418DA
:100070001B000000EDF4041870B5040008000E0029
:10008000FEF7E0FE051E05D1064B320021000320DD
:100090001B689847AB7A2889DB0701D524022043E7
:1000A00070BDC04608BF000037B514006A46002383
:1000B0000D00911DD380FFF7D5F8002807D16B46BE
:1000C000DB88A34204D964199C4200DD0D303EBD9B
:1000D0000720FCE7F0B50E00062171430500100073
:1000E000224A85B054188A5A0E21678800936944C1
:1000F0003B00FFF751F9062805D00C2805D0041E57
:1001000004D005B0F0BD2079F9E701246B46DB8906
:10011000002B01D10020F4E7280003F045FD002862
:1001200009D0032E09D1280003F03EFD6B46DB8980
:1001300080B28342EED90520E3E70121280003F0D5
:100140000FFD002808D10221280003F009FD03005B
:100150000F20002BD5D1EEE7002CE4D0280003F0CF
:1001600039FD0F28DFD80C20CBE7C04684140518D2
:1001700073B500236A46009313714A888E880C0079
:100180006B4603210500FFF7A5FF021E01D00020EA
:1001900076BD31000C39684689B2FFF785FF00282B
:1001A000F5D108212A02EF200625A38816B20733CD
:1001B00031432A439BB289B200012CF0F9FAF123B2
:1001C0000370A388050003334380D223037163883F
:1001D000A11D43711B0A8371A28807302EF0ECFE2B
:1001E00028002CF009FB0120D2E70000F8B504003C
:1001F00015000F0019001E00FFF73EFF2202062423
:10020000AB1D010022439BB208482CF0D1FA002319
:1002100004002A00390006808580438006302EF0D5
:10022000CBFE20002CF0E8FAF8BDC046150C00000B
:1002300037B500236A46009313714A880C006B4659
:1002400002210500FFF746FF021E01D000203EBD3F
:100250006846A188FFF728FF0028F7D128006388A7
:10026000A288A11DFFF7C2FF0120F0E773B51C00B3
:10027000062315000202134317220E0000920421E8
:10028000163AFCF7DBFD467045800471FCF7ECFD87
:1002900073BD00000022F0B587B004AB0F1F0492BD
:1002A0001A713A8805000C00002A2AD0AB0002938C
:1002B000444BAA001B6861889858036B002B2FD011
:1002C000DA8A8A422AD140302DF0ECFA3B88029A31
:1002D0001B051B0D03933B4B01001B68E0889B58DB
:1002E0001F6B002F31D08226B600B446BA88121890
:1002F00096B262452ADB403318002DF0C1FA09237B
:1003000005E04A880121FFF7E5FE031ECED0280054
:1003100062882178FFF7AAFF002014E01B68CDE770
:100320003B88002BCFD12800FFF7A6FE06222D0226
:10033000010002232A4324482CF03AFA6388038000
:100340002CF05AFA012007B0F0BD0600A2889446AE
:1003500062884881604608810398C880002F04D1D4
:10036000303318002DF056FA08E0F88A904226D96A
:1003700030330A00180039002DF052FB114B029A5D
:100380001B6804219B582A021B6B28009E800623B1
:100390001343E28800921722FCF750FD210005006C
:1003A000638808314380E288C28008302EF004FE62
:1003B000A3882800AB80FCF757FD0220C3E73F6805
:1003C000CCE7C046B0B90000170C000037B50023D9
:1003D0006A46009313714A886B460C0001210500A0
:1003E000FFF778FE031E0ED10200A1886846FFF7D2
:1003F0005BFE031E07D128006388A288A11DFFF7BA
:10040000F5FE01203EBD280062882178FFF72EFF0F
:100410000020F7E7F0B58DB00600049101F07AF8FE
:10042000023883B20593049B5F88B3000693049B54
:100430009A88BA4200D291E0002F00D193E00E22B8
:1004400006ABD21817800027059B0AAA0A971771D6
:1004500003930E2306AA9B1818000AA9FEF7A6FE0E
:10046000041E00D078E0049B9A8806ABDB899A4290
:1004700062D3022118202CF0D3FA0123C21D811D62
:100480000093050023000AA8FEF726FF041E06D0ED
:1004900006ABD989434B02001B68032098470E2303
:1004A00006AA9B181B88AB80AB790793002F2ED030
:1004B0009F422CD028002CF03DFB3B4D069A2B6828
:1004C0009B589B6B002B61D0059B039A30009C1AB4
:1004D00006233202A4B21343009405220421FCF740
:1004E000ADFCBB1E5A1E9341013343702B68069A24
:1004F00006009B5840889D6B002324187480002DB3
:1005000034D13000FCF7B0FC00200DB0F0BD264B1C
:10051000069A1B682900985838302DF07BF90E2276
:100520000398079B0238C01A83B2039306ABD21814
:100530001388079F013313800E2306AA9B18049A81
:100540001B8892889A42B8D3002BB6D0039A7B1CA2
:10055000934200DA7DE7B0E70A24AEE70027059B67
:1005600003930124A9E7059B0393FAE7A988F218EE
:1005700002339CB29180201DAA79E91D30182EF01B
:100580001BFDAB792D68E3189BB2B8E7002C00D1B6
:100590000A34049B30005A8819782300FFF766FE5E
:1005A000B2E7C04608BF0000B0B90000164BF7B56F
:1005B0001B688200D358040053331D780F00002DB0
:1005C0001CD107F051FF062322020421134300959A
:1005D000032206002000FCF731FC050007F044FF71
:1005E0007988814200D90100200089B201F020F809
:1005F00028006E80FCF738FC0020FEBD042300229A
:100600000221FFF733FEF7E7B0B90000F7B5140099
:1006100000236A46A5781371009363782D021D4369
:100620002A000E006B4603210700FFF753FD021E50
:1006300008D10E2E01D90F3EB2B22B003800E11CBA
:10064000FFF7D4FDF7BD00000023F0B587B004AE7E
:10065000049333710B7805000C00122B47D01D2733
:100660000521402B0CD03900280002F0CDF91223CF
:100670000293002838D1217812394B1E9941043158
:1006800033002800A288FFF725FD029000282BD117
:10069000E3882800039300F03DFF039BC61E9E42A3
:1006A00000D91E0006222B021A43B3B204212800EF
:1006B0000392009313003A00FCF7C0FB21000500F1
:1006C000A38832004380B3B28380083106302EF015
:1006D00073FC2800FCF7C8FB2378122B04D0054AD2
:1006E000039905482BF028FF029807B0F0BD1B279F
:1006F000B9E7C04630750000410C000010B5840019
:10070000064B1B681859036B002B00D110BD30300D
:100710002DF0C8F82CF00EFAF2E7C046B0B9000090
:10072000F0B58BB005914B7805000793012B00D0F5
:100730009CE00B00043B1B88029383000693029B02
:10074000002B40D1594B82001B689B581C6B002C1E
:1007500039D0029B08AF0493039300233B603B71A5
:100760003900E08AFEF706FD021E04D0504B03203C
:10077000E18A1B689847228938006189FFF794FC59
:10078000059B079A043B1A800600E28A002800D0E5
:1007900081E0029B9A4203D0E388A08004930394F3
:1007A0002189049B994200D974E0049863898142AD
:1007B00039D20398A04236D00499A380E1800394F3
:1007C0002468002C2DD10026384F069A3B689B5890
:1007D0001C6B002C4BD02800E18AFFF74DFC062251
:1007E000A3882D02063301009BB22A4331482BF027
:1007F000DFFF00260500E38A0380A3888380238926
:100800004380AB88B34201D8002B03D12A88E38A06
:100810009A4211D028002BF0EFFF012420000BB0EA
:10082000F0BD029299E7C91889B2049103998988A9
:100830005B1803998B80C3E72100B01D1C316289CE
:1008400028182EF0B9FB6389069AF6182368B6B209
:1008500002933B68985830302DF024F820002CF09B
:1008600069F9029B002BD5D01C00CAE700260024A2
:100870002800FFF743FFA642D0D106232A021343E4
:1008800017220421009228000232FCF7D7FAFCF765
:10089000EBFAC3E70726059B280019783300FFF71A
:1008A000E5FC2800FFF72AFF8EE7C046B0B900003C
:1008B00008BF0000150C000010B58400064B1B6833
:1008C0001859836B002B00D110BD38302CF0EAFF93
:1008D0002CF030F9F2E7C046B0B9000070B5074D12
:1008E00084002B681B59986C002806D00C382BF01C
:1008F000B5FF00222B681B599A6470BDB0B9000087
:10090000F7B51F001B4B01921B688200D3580400EF
:100910009B6C0E00002B26D01A888A4221D11D79AB
:10092000062D08D0002D07D15A88019905330A8079
:100930003B602800FEBD80252000FFF7CFFF062D7D
:10094000F7D131002000FFF797FB22022A43010074
:10095000022392B208482BF02BFF06802BF04CFFAD
:10096000E7E7FFF7BBFF3A0030000199FDF752FEC1
:100970000500E4E7B0B90000130C0000F0B50C006E
:100980001D008FB0159E0F88049003923100200047
:10099000FEF70CFC031E28D1039A2188128891428D
:1009A0001CD80F21009004A80AAA09183000FEF7ED
:1009B00093FC021E04D0354B032021881B68984706
:1009C0000F2304AA9B1829000AAA1B781498FDF784
:1009D0000FFC2288002820D101322280039A23882C
:1009E00012889A4201D3002BD0D10A232780029388
:1009F00002980FB0F0BD33685D88039B1D80059B96
:100A0000002BF5D12188179B169A0498FFF778FFE1
:100A10000290EDE7013EB5B2EFE733000021049804
:100A2000FFF758FB059002903779002FE3D1300093
:100A300017492588FEF7F4FB0028DED0280008AB14
:100A400008971F71FEF7FEF907000135AEB2FD8869
:100A5000B542D2D3BB88B342CFD208A93000FEF74B
:100A600089FB0B4908A8FEF7DBFB0028D2D1094916
:100A700008A8FEF7D5FB011ECCD108A8FEF7D0FBD5
:100A80000028C7D10136B6B2E1E7C04608BF000072
:100A900003280000022800000023F0B58BB008AA4C
:100AA0001371089383000493504B82001B68050068
:100AB0009858029138302CF0F7FF029B03901C1FCE
:100AC0002388002B04D1280000F024FD0138208069
:100AD0000024029B039A5B88934256D9029B043BF5
:100AE00005931B88002B50D0002C0CD0062C6DD009
:100AF000039B5800029B181882881978280023004D
:100B0000FFF7B4FB62E0039B21005E00029B28001C
:100B10009E19B28808ABFFF7DDFA041EE6D10A275A
:100B200004ABFF183A002800B18807ABFFF7E8FED6
:100B3000041ECED1059B3F881B889F4200D91F0011
:100B40003800BBB20221083005932BF069FF060084
:100B5000BBB283803A00079906302EF02DFA234B62
:100B6000049A1B683100985838302CF053FE280046
:100B7000FFF7B4FE029B03981A1F138805990130F2
:100B80005B1A138083B20393A3E7002CAED1280035
:100B900000F0C0FC0299062304390E882A02F643AD
:100BA0008619B6B2134328000F2200960421FCF7E1
:100BB00045F9270005000D4B049A1B6846809B5899
:100BC0009E6B002E07D12800FCF74EF9A01F434270
:100BD00058410BB0F0BD381DB288B11D28182EF059
:100BE000EBF9B3883668FF18BFB2EAE7B0B9000086
:100BF000F0B50E00002189B006AB197172880500AE
:100C00000691FFF767FA041E4CD10A2702ABFF18C2
:100C10003A002800718805ABFFF772FE041E41D12F
:100C2000B3883F880393BB4207D9073423002800C9
:100C300072883178FFF71AFB2FE0280000F06AFC79
:100C4000039B0138FF1A874200D9070006232A02B6
:100C5000134302AA52890421009228000D22FCF7B6
:100C6000EDF84780059BB188BFB23A005918039050
:100C700004302EF0A1F90398FCF7F6F8B38802AA25
:100C80005289DB19934208D1280000F043FC013857
:100C9000874202D02800FFF721FEA01F434258419F
:100CA00009B0F0BD062CF8D0C0E7F0B50E00002169
:100CB00089B006AB0691197172880500FFF70AFA30
:100CC000041E3BD10A2202A812187188280005AB25
:100CD000FFF716FE041E31D102AB28005F8900F039
:100CE00019FC461EBE4200D93E000623B1B22A02BC
:100CF000134303910B22009128000421FCF79EF876
:100D00000700039B32004380059904302EF054F90C
:100D10003800FCF7A9F802AB5B89039A934208D12B
:100D2000280000F0F7FB0138864202D02800FFF7C8
:100D3000D5FDA01F4342584109B0F0BD062CF8D0A4
:100D40002300280072883178FFF790FAF1E700005D
:100D50000023F0B50C008FB00CAA0C9313714A88D5
:100D6000163304A95B18251F1A802B880600002B58
:100D700000D1B0E00027B30006936A4BB2001B68B5
:100D80009B589B6B0493002B01D09B790493002FFD
:100D90005ED11625A3880AAA04A913806D180BA991
:100DA000A37903911A2104A8091802910CA90191B1
:100DB00021000831009130002900FFF7DFFD071EF8
:100DC00000D096E004AB5B8B049A934201D0002ADA
:100DD0003ED1221F1588043DFB2B00D9FB239D42E9
:100DE00000D91D002800ABB202210C3007932BF074
:100DF00017FE04AB5B8B2A00049304ABDB8A0B99D0
:100E0000838004AB1B8B0590C380057209302EF0E4
:100E1000D3F8221F13880799043B5B1A1380414BB8
:100E2000069A1B680599985838302CF0F3FC04ABEF
:100E30005B8B079A934202D13000FFF74FFD04AB62
:100E4000198B04AA4B1C9BB2D382A288934255D91A
:100E5000344D069A2B68985838302CF025FE00281F
:100E600056D02B68069A04219B5832029C6B0623AD
:100E7000257A134304354543ADB230001122009565
:100E8000FBF7DCFF4580237A060004334370002320
:100E9000A288F1180A71120A4A719A1CE18892B26A
:100EA000B2181171090A5171210004339DB2281D35
:100EB000227A301809312EF07FF8237A2468EB1853
:100EC0009BB2002CE4D13000FBF7CEFFB81F4342A9
:100ED00058410FB0F0BD00F01DFB02382880638838
:100EE000A28801279A4200D245E7002B00D041E7B3
:100EF00041E70628ACD12B886380E7E79142A7D071
:100F0000049B221F12880333934200DA41E79FE7D4
:100F1000162304AA9B181A8830003B002178FFF79B
:100F2000A5F9D3E7B0B900000023F0B50E008FB0EB
:100F30000CAA0C9313714A88163304A95B18341F4A
:100F40001A8023880500002B00D1A5E00027AB0004
:100F50000693654BAA001B689B589B6B0493002B60
:100F600001D09B790493002F5BD11624B3880AAA81
:100F700004A9138064180BA9B37903911A2104A85A
:100F8000091802910CA90191310008310091280043
:100F90002100FFF7F3FC071E00D08BE004AB5B8B56
:100FA000049A934201D0002A3BD1321F1488023C9C
:100FB000FD2B00D9FD239C4200D91C002000A3B2C8
:100FC0000221083007932BF02BFD04AB5B8B220032
:100FD000049304ABDB8A0B998380059084710730FE
:100FE0002DF0EAFF321F13880799023B5B1A13802A
:100FF0003D4B069A1B680599985838302CF00AFC2E
:1010000004AB5B8B079A934202D12800FFF766FC82
:101010000AAB198804AA4B1C9BB2D382B2889342B4
:101020004DD9314C069A2368985838302CF03CFD45
:1010300000284ED02368069A04219B582A029C6BF4
:101040000623A679134302364643B6B22800092286
:101050000096FBF7F3FE4680A37905000233437048
:101060000023A288E91802330A719EB2120A4A715B
:10107000301DA279E11D28182DF09EFFA379246868
:10108000F3189BB2002CECD12800FBF7EDFEB81F43
:10109000434258410FB0F0BD00F03CFA02382080C6
:1010A0007388B28801279A4200D250E7002B00D003
:1010B0004CE74CE70628B4D123887380E7E79142D8
:1010C000AFD0049B321F12880133934200DA4CE701
:1010D000A7E7162304AA9B181A8828003B0031783A
:1010E000FFF7C4F8D3E7C046B0B900000023F0B55D
:1010F0000C008DB00AAA0A9313714A88163302A90C
:101100005B18271F1A803B880500002B37D0AB00E7
:101110000593A38802AA138309AB03931A2316210C
:101120009B1802930AAB019302A8A31D0093091810
:101130000223280008AAFFF721FC061E04904ED0C7
:101140000A2828D0062814D002AB1B8B02AA013330
:10115000D382162202A95218A38812889A4206D86E
:1011600008AA12889A4202D03B88032BD1D8062EB7
:1011700011D1162302AA9B181B88638029E000F076
:10118000C9F9013838806388A2889A4201D3002BBC
:10119000BDD1012304933D4FAE003B6898593830D0
:1011A0002CF082FC002800D165E00623800084B288
:1011B0002A0213430421072228000094FBF73EFE75
:1011C0003B6844809B59996B0023002943D1FBF76E
:1011D0004BFE04980638434258410DB0F0BDE388F9
:1011E0002B4A9B18012B0ED91A2202A952182389C7
:1011F00012889A4227D1200009990A302DF0CEFE9C
:1012000000280AD01FE0200002AB9B7E217A099AB9
:101210000A30FCF7EDFF0028E6D0022108202BF071
:10122000FFFB02ABDB8A059A838008AB1B880100B9
:10123000C380164B083F1B68985838302CF0EAFAE8
:101240002800FFF74BFB162208AB1B8802A90133CD
:10125000521813807DE78A88C4182271120A6271BD
:101260009A1CCC8892B282181471240A54710433E7
:1012700009689BB2A9E7162302AA9B181A882800BE
:101280002178049BFEF7F2FFA3E7C046B0B9000047
:1012900000D8FFFF07B5002A0AD1062301020B433D
:1012A000009204211332FBF7C9FDFBF7DDFD07BDFA
:1012B00013000A001221FEF7D9FFF8E7F7B5050081
:1012C0002A4E83000093336882009B581C6C002CCC
:1012D00000D1F7BD238A264901930C23227DD80033
:1012E000475C974225D109184F68002F05D1214B43
:1012F000290003201B6898470027019B002B1BD067
:10130000210028001431B84702000128E1D002284A
:101310000CD0002824D12800FFF7CEFA3368009AB9
:10132000985840302CF0BEFA2BF098FA3368009AA7
:10133000CBE7013BD3D2DAE72800217D01F064FB43
:101340000028DDD04023217D1942E4D10E2905D1AA
:10135000228B12232800FEF789FFDCE7E28AF8E7F8
:10136000044B290003201B689847B0E7B0B9000080
:101370001C14051808BF0000F7B50A7A04000D0018
:101380000C231E2A15D1002100F0E2F8132802D008
:10139000002540280BD10621230219431C482BF0BD
:1013A00065F900222000110000F0C6FA002528008F
:1013B000FEBD1848D900095C914224D10620164F81
:1013C000A6003B689B591B6C0193230218432BF02A
:1013D000F1FD00230093830604D4019B5A4253413C
:1013E000DBB2009329003B680C39985940302CF04F
:1013F00011FA0023AB80009B0125002BD7D02000E1
:10140000FFF75CFFD3E7013BD3D2FF25CFE7C04610
:10141000410C00001C140518B0B9000002000000C7
:10142000AD050518040000001504051806000000AD
:10143000ED10051808000000290F05181000000025
:10144000510D05180A000000AB0C05180C00000037
:10145000F10B05180E000000990A05185200000053
:101460003102051812000000CD030518D20000005B
:1014700071010518160000009502051818000000FB
:101480002107051800020300020000080C000300F9
:1014900000040C00030000400C0003000010C0001A
:1014A000060000203000060070B50C00184E8500C4
:1014B000012911D1336858590369002B06D13368CB
:1014C000A4005B59E058002813D170BD10302CF0F7
:1014D000E9F92BF0C3F9EDE70229F0D13368585947
:1014E000036A002BEBD020302CF0DCF92BF022FB30
:1014F000F4E72BF0BDF9002805D133685B59E058BB
:101500000C382BF0ABF9002233685B591A51DCE739
:10151000B0B90000034B80001B68C35850331888D3
:101520007047C046B0B9000070B5140006220D0027
:101530000002190004AB1E7802430423C020984027
:101540002BF036F90570467044802BF055F970BDCC
:1015500070B50F4B05001B780C00023B984205DB71
:1015600000220C4B110001201B689847032C05D961
:101570000022084B110001201B689847064BAD0064
:101580001B68A400EB58E358181E00D0187870BDF3
:10159000B5BE000008BF0000B0B9000070B50F4B29
:1015A00005001B780C00023B984205DB00220C4B27
:1015B000110001201B689847032C05D90022084B15
:1015C000110001201B689847064BAD001B68A40062
:1015D000EB58E358181E00D0588870BDB5BE000007
:1015E00008BF0000B0B9000070B50E4B05001B78B5
:1015F0000C00023B984205DB00220B4B110001203E
:101600001B689847032C05D90022074B11000120C5
:101610001B689847054BAD001B68A400EB58E058C9
:1016200070BDC046B5BE000008BF0000B0B90000E4
:10163000F7B51C4F830001933B6882009B588222C0
:1016400004009200914229D317491A000126503212
:101650005333118020001E7002F07AFA0622230212
:1016600001001A43114804232BF0A2F83B68A200A2
:101670009B58310050331B88050003802000FFF782
:1016800067FF00230100B04203D12000FFF7ACFF49
:10169000438828006B802BF0AFF8F7BD1729D4D210
:1016A0001721D2E7B0B9000007020000020C0000C9
:1016B00070B50E4B05001B780C00023B16009842DB
:1016C00005DB00220A4B110001201B689847032C00
:1016D00005D90022064B110001201B689847054BD5
:1016E000AD001B68A400EB58E65070BDB5BE00000D
:1016F00008BF0000B0B9000070B5154B04001B789E
:101700000D00023B984205DB0022124B1100012024
:101710001B689847032D05D900220E4B11000120AC
:101720001B68984700200C4BA2001B68AD00D358E3
:10173000ED5885420AD028002BF097F821020624A4
:101740000200214328002BF078F8012070BDC0462C
:10175000B5BE000008BF0000B0B9000070B5114B65
:1017600005001B780C00023B984205DB00220E4B63
:10177000110001201B689847032C05D900220A4B51
:10178000110001201B6898470020084BAD001B6822
:10179000A400EB58E358834202D018002BF065F800
:1017A00070BDC046B5BE000008BF0000B0B9000063
:1017B00070B5062400020443200016000D002BF033
:1017C000F9FB002E05D02843C1B220002BF084FB8A
:1017D00070BDA843F8E7000070B500210600542052
:1017E0002BF01EF9041E05D11D4B020001001B68E1
:1017F00001209847002520006560A560E560103055
:101800002BF0F2FF200018302BF0EEFF20002030EC
:101810002BF0EAFF2000A562256030302BF0E4FFBA
:10182000200038302BF0E0FF200040302BF0DCFFB0
:10183000230004224D33A5641A7017230620236564
:10184000084BB2001B682900D450330218432BF018
:1018500043FB300001222021FFF7AAFF70BDC046E4
:1018600008BF0000B0B90000F0B585B004000AA8B8
:10187000008801900BA8008802900CA800880390B3
:1018800000294AD02A49A600096817008D5901216C
:101890003035687F0F40884307438B4002208743E1
:1018A00003403B4304270240BB43574257415BB2CE
:1018B000B80003430820FF0083433B436B77002AB3
:1018C00003D020001B4A01F055F8194F3B689D5981
:1018D0002B8D002B21D1039B002B1ED001210C202E
:1018E0002BF09EF8019B22028380029B0100C380A3
:1018F0000623134303813B68985918302BF08AFF65
:10190000019B29002B856B46029A1B792A31D21A3A
:101910000A70039A2B35D31A2B7000222021200045
:10192000FFF746FF2000FFF7C9FC05B0F0BDC04639
:10193000B0B90000FFFF0000F7B5174F86003B6805
:1019400000929B598A00D35804000D000192002B8D
:1019500016D0FFF703FF06220100C02023021A431E
:10196000000104232AF024FF3B68AA009B59D358A6
:101970001A780270009A42705B8843802AF03CFF1C
:1019800029002000FFF790FD0121A940002220003E
:10199000C9B2FFF70DFFF7BDB0B90000F7B5284F8A
:1019A00086003B6804009B590191002B25D000253F
:1019B000019B002B32D0462229002000FFF7BCFFFC
:1019C0003B6898598369002B2DD10135EDB2042D68
:1019D000EED12000FEF792FE3B689859056C002D71
:1019E00027D12000FEF768FF2000FEF777FF3B6855
:1019F00098592BF09FF83B689D5106202402044320
:101A0000C420210000012AF031FE21000D482AF0F7
:101A10002DFE402120002BF05FFAF7BD29002000A9
:101A2000FFF742FDCCE718302BF03CFF2BF082F89B
:101A3000C6E740302BF036FF2AF010FFCCE7C04657
:101A4000B0B90000410C000070B5040001282FD08F
:101A500002282BD0002814D11A491B4B1B4D0B60B8
:101A60001B4B06201B6806264B602B78023B0B8124
:101A7000184B1B884B812BF0D3F92B78023B9C42EF
:101A800000DB70BD20024021304301342BF024FAEA
:101A9000E4B2F2E720000021FFF780FF0134E4B256
:101AA0000A4B1B78023B9C42F4DBEAE70024F7E791
:101AB000064B00211A78084B023A186892002DF064
:101AC00097FADEE7A4B9000054260518B5BE000059
:101AD000B4B900005C270518B0B9000070B5040067
:101AE00002F036F80622230201001A4314480823A4
:101AF0002AF05EFE134BA4001B68E35819001A8DF0
:101B00002A31028009785118418019002B310C7854
:101B100000218C4201D0121991B20422818030330D
:101B20005B7F01211A4055426A411C008A400B41EB
:101B30000C4022430B408271C3712AF05DFE70BDE0
:101B4000280C0000B0B9000070B510000D001400A2
:101B50002BF030FA402817D0240A01212000FFF78B
:101B6000F7FC0D38012804D8012120006A78FFF71E
:101B7000E3FE00212000FFF7EBFC122804D1002136
:101B800020006A78FFF7D8FE002070BD70B5100005
:101B90000D0014002BF00EFA402812D02B78F12BF8
:101BA0000FD16B78002B0CD0074B240A1B68A200C6
:101BB000D05840302BF076FE2AF050FEE0B2FFF70E
:101BC0007DFB002070BDC046B0B90000F0B510002C
:101BD00085B00C0015002BF0EDF9402806D02378D5
:101BE0002D0AEEB2F02B04D0F12B2ED0002005B040
:101BF000F0BD01213000FFF7ABFC41220E281FD1C0
:101C000001213000FFF7F0FC2B02062567882B43EB
:101C1000033FBFB2D2220421039000973000FBF7AC
:101C20000DF90500039B87809B883A004380E11DE6
:101C300006302DF0C1F929003000FDF7E9FE002241
:101C400001213000FFF778FED0E730006188221DC7
:101C5000FEF7DCFCCAE7000070B510000D001400B0
:101C60002BF0A8F9402828D02878240AE6B21528B5
:101C700010D8012821D9023813281ED82DF070F968
:101C80001F1F1F1F1D1F2C1D381D2C1D1D1D2C1D32
:101C90001D1D1D2C402810D16B78002B0DD11A4B27
:101CA000A4001B68E3584D3319784A0705D40C2269
:101CB0000A4330001A70FFF711FF002070BD0221A7
:101CC0003000FFF745FC1538C0B20128F5D83000C8
:101CD000297801F009F8F0E703213000FFF738FC1C
:101CE0002128EAD130006A78297801F09FFAE4E7E8
:101CF00003213000FFF72CFC2028DED10321300027
:101D00006A78FFF719FED8E7B0B9000010B51000E7
:101D100014002BF04FF9402802D0200AFDF790FE66
:101D2000002010BDF7B50190100015002BF042F90E
:101D300040281ED0144F2C0A3B68E6B2A4001B5961
:101D400052331B78002B07D1300001F001FF2A002D
:101D500001000E482AF06AFD01213B68019A1B59D7
:101D600052331970C4231B019A4204D0084B9A4283
:101D700006D00020FEBD45223000FFF7DDFDF8E76C
:101D800045220021F8E7C046B0B900001B0C000056
:101D9000410C0000F7B510000D0014002BF00AF9FB
:101DA000402801D1002010E02B78240AE6B2002B55
:101DB0000CD129003000FFF7DFFAFF2805D12900F8
:101DC0003000FEF7FBF8FF28ECD0FEBD342B01D02D
:101DD0003F2BE7D12A7A402317001F401A42E1D156
:101DE0002302062401222343042130000097FBF73D
:101DF00025F847802B7A43702B783F2B00D0023C8C
:101E00000471FBF731F8CDE7F8B510000D001400B0
:101E10002BF0D0F80023402814D00B4F240A3B6845
:101E2000A6009A59136C002B0CD0906C002802D09D
:101E30000C382AF013FD3B68E0B29B599D64FFF714
:101E40003DFA01231800F8BDB0B90000F8B5100044
:101E50000C0017002BF0AEF8402815D0154E3F0AA5
:101E60003368BD005B591A6C002A0DD0117D16290C
:101E700018D12379FFB2002B08D161880E4B0B4398
:101E800013823800FFF71AFA0020F8BD38002288C4
:101E9000FEF7ECF93368585940302BF003FD2AF077
:101EA000DDFCEEE7054B0A00032039001B6898476C
:101EB000EAE7C046B0B900000080FFFF08BF00009D
:101EC000F8B510000C0015002BF074F8402823D052
:101ED000224F280A3B6886009B59C5B21B6C002B19
:101EE0000BD0197D18292ED018D8122925D01C4BBB
:101EF0000A001B68010003209847A378002B0BD130
:101F00003B689B599B6C002B06D01A8823889A4209
:101F100002D12800FEF7E2FC0020F8BD7F230B4031
:101F2000522BE4D13B68985940302BF0BBFC2AF08F
:101F300095FC2800FFF7C2F9DFE72800A278218886
:101F4000FFF7A8F9EEE7A378002BF2D0280022884B
:101F5000FEF78CF92800FEF7D1FBE3E7B0B90000EB
:101F600008BF0000190010B5030A04000C2B08D1AB
:101F70008A4206D004480A3B2AF01AFC04802AF060
:101F80003BFC002010BDC0461C0C0000F0B587B023
:101F900004000D0016000393032905D90022284BE5
:101FA000110001201B6898470620230218432BF0DC
:101FB00001F833780700049373880593402825D0EF
:101FC00029002000FFF710FB01231A00864203D0EE
:101FD0002F41DA181F4208D0100007B0F0BD049A54
:101FE000934215D0039B01330393039B1B78002B73
:101FF000F5D1402530002AF038FC059A03000499F9
:1020000020000095FFF790FA0022E5E74325F1E76D
:102010000C4BA2001B68D35852331B78002BF5D110
:102020003200012629002000FFF742FB3100A940C1
:1020300032002000C9B2FFF7BBFB3200CCE7C0463C
:1020400008BF0000B0B90000F7B514000D00240A65
:102050000422144901A8E7B22CF0AEFF2A000021A7
:10206000380001ABFFF792FF0600012817D10E4B95
:10207000A4001B68E3589B6C002B06D01A88AB8821
:102080009A4202D13800FEF729FC29003800FEF7F9
:10209000DBFA021E03D000213800FFF74DFC3000B0
:1020A000FEBDC0463C260518B0B90000F0B51400CE
:1020B0000D002A4987B0240A0322043105A8E6B29C
:1020C00003932CF079FF2A000121300005ABFFF7C4
:1020D0005DFF029001281AD1A300214F0193019ABC
:1020E0003B6898588469002C14D12B784022112B1E
:1020F0001ED1002C07D0210018302BF0DDFB200072
:102100002AF018FD002201213000FFF715FC02988B
:1021100007B0F0BDA288AB889A4207D1E288EB886D
:102120009A4203D12389039A9342DED02468DAE7E6
:10213000002CE8D101210C202AF072FCAB88019A16
:102140008380EB880100C380039B03813B68985820
:1021500018302BF05FFB2200D5E7C0463C2605185F
:10216000B0B9000073B50F230E0069460B71002350
:10217000150A4B7132000121280001ABFFF706FF61
:102180000400012803D128007178FDF769FC2000C4
:1021900076BD0000F0B515000C00704987B02F0A1D
:1021A0000422073105A8FEB22CF006FF220001210F
:1021B000300005ABFFF7EAFE0390012800D085E070
:1021C00023780D2B2CD00E2B4BD00C2B00D07DE088
:1021D0006378002B00D182E03000FFF79BF9228961
:1021E0000238904200DC7AE0E388002B00D076E0F1
:1021F0003F02063304213B43009230001222FAF7DB
:102200001DFE21000500A3880C31438022898280B5
:1022100006302CF0D1FE29003000FDF7F9FB55E027
:10222000238930000293FFF775F9029BC51E9D427A
:1022300000D91D0006233F02AAB23B4304210092AD
:1022400030005222FAF7FAFD21002A00A388070085
:102250004380ABB283800C3106302CF0ADFE3900E8
:10226000DAE70021300001F07BFC002831D030009B
:1022700001F09AFC00282CD0238930000293FFF74C
:1022800049F9029B0F339BB2984222D30821EF20D9
:10229000029B3F0213332A009BB2394300012AF00C
:1022A00087FAF02303702389210007334380D22368
:1022B00005000371A3880C3143711B0A83712289C5
:1022C00007302CF079FE28002AF096FA039807B020
:1022D000F0BD532201213000FFF72EFBF6E72389E2
:1022E000658902939D4220D23000FFF713F9029BCB
:1022F00005385D1B854200D9050006233F02AAB2BE
:102300003B430421009230001622FAF797FDA38880
:10231000070043806189E388CB1883800C31ABB21E
:10232000C3801A000830611897E76278002A0FD03E
:1023300052220B4BBF001B683000FB582C331A7025
:10234000029BE91A4B425941C9B2FDF789FBBDE72F
:10235000029B9D42BED05222BCE7C0463C260518D7
:10236000B0B90000F0B517000C00474985B03F0A2E
:1023700005220B3102A8FDB22CF01EFE2200012125
:10238000280002ABFFF702FE0600012817D12078D3
:102390000838032813D82CF0E3FD4050025E3B4B75
:1023A000BA001B68D3581B69002B36D1A288E3887A
:1023B0009A4207D9402201212800FFF7BDFA3000D8
:1023C00005B0F0BD217A102906D0042903D00229D6
:1023D00002D05122EFE7102106233F023B4308229F
:1023E000009128000421FAF729FD2100A3880700A5
:1023F0004380E38809318380227A0830042A08D197
:102400001023FB80FBF7D6FE39002800FDF700FB08
:10241000D5E7FA802CF0D0FDF6E7E18800290CD151
:1024200006233F0200910A22043128003B43FAF7B9
:1024300005FD0100A3884B80E7E7002206233F0249
:1024400004213B43009228000C32FAF7F7FCE388A2
:1024500001008380EEE73B020627627804215200E8
:102460003B43009228000E22FAF7E8FC0100637853
:10247000021D43809B00E3189C42C6D0A088043410
:1024800010800232F8E7C0463C260518B0B90000BB
:10249000F0B517000C004B4985B03F0A07221031F8
:1024A00002A8FDB22CF088FD22000121280002AB19
:1024B000FFF76CFD0600012808D1A288E3889A4244
:1024C00007D9402231002800FFF736FA300005B066
:1024D000F0BD6178102905D0FD228B1E134201D07A
:1024E000AC3AEFE7207802380528EFD806233F0200
:1024F0002CF036FD49033928285A022900D0102132
:102500003B430622009128000421FAF797FCA38898
:1025100021004380E38807008380A0239B01C380C0
:10252000627808310A30042A08D110233B81FBF776
:1025300041FE39002800FDF76BFAC7E73A812CF01D
:102540003BFDF6E73B4302270421082228000097C1
:10255000FAF774FC0100A3884380E388C780838076
:10256000194B0B81E6E73B43022704210822280090
:102570000097FAF763FCA38801004380E388C780D3
:102580008380124BEDE73B430227042110222800F1
:102590000097FAF753FCA38801004380E388C780C3
:1025A0008380A0239B01DCE700220092043211000B
:1025B0003B432800FAF742FCA38801004380E388EC
:1025C0008380B7E73C260518032800000228000096
:1025D0007FB508006B4601216C46197300236373B5
:1025E000140AE6B2020003AB3000FFF7CFFC05008F
:1025F000012818D1104BA2001B68D35853331A7806
:10260000002A13D123020624042123430092300020
:102610000232FAF713FC040005F026FF2100608067
:102620003000FDF7F5F9280004B070BD0100432229
:102630003000FFF781F9F6E7B0B90000121340004F
:102640001011000C0D0E0008090A0B00020304050E
:1026500006070000FFFF0000651F0518010C0000C1
:10266000D1250518030C000091240518080C000062
:10267000652305180A0C0000952105180B0C0000B5
:1026800065210518400C0000251D05180F0C0000E1
:10269000AD2005180E0C00000D1D0518190C0000CA
:1026A000852A0518040C00004D2B0518050C0000A8
:1026B0007D2B0518060C0000ED2B0518070C0000FB
:1026C000792C0518220C0000213005181A0C000086
:1026D000A5300518090C0000E1310518200C000098
:1026E000393205180D0C000095320518250C000034
:1026F000F9320518140C0000091E0518160C00000C
:10270000C11E0518180C00004D1E0518100C000005
:1027100049200518410C0000251D0518150C000066
:10272000C1270518170C000091280518130C00008C
:10273000DD280518000C0000591C0518F10E0000DA
:10274000CD1B0518000E00008D1B0518130A000094
:10275000951D0518040A0000491B051821000000FA
:10276000F8B50F00062115001202114389B2162395
:1027700006000A0010482AF01BF80400072000F0A9
:10278000EBFD1023208063802671002E0FD10B4BB0
:10279000AD001B68EB584D3319784A0702D4082264
:1027A0000A431A7010223900601D2CF005FC20002D
:1027B0002AF022F8F8BDC046140C0000B0B90000A1
:1027C000F0B5100085B00D00019202932AF0F2FBE3
:1027D00040284CD0029B28881E0AF7B200F0ACFDBE
:1027E000032812D08024052836D101200222264B4E
:1027F000B6001B68AC79F35804404D331978114288
:1028000038D0002C3ED1133426E0A9888024022938
:1028100022D1EB79A8791B0203431BB2180088432D
:1028200000B2002818D1023B5C426341164AB60050
:102830001268DCB2B15801264D310A7803941400B5
:102840003440A44604009C4506D0039BB2431A437F
:1028500038000A70FFF742F90423019A02990B48E5
:1028600029F0A6FF84702B88038029F0C5FF002083
:1028700005B0F0BD002CEFD00E220A4338001A70CC
:10288000FFF72CF90024E7E7B0B90000160C0000B0
:10289000F7B510000D00160001932AF08BFB4028BD
:1028A00018D0288800F048FD032805D0002405280A
:1028B00000D08024002701E00024022706233200F4
:1028C0000199054829F074FF2B8804710380478023
:1028D00029F092FF0020FEBD180C0000F7B5088813
:1028E0000F001D0A00F028FD052826D0072831D04A
:1028F000032835D1022400261B4BA9001B6801AA1E
:10290000CB584D331B7856705B002340137029025F
:102910000625294363190A00144829F049FF0500D8
:102920003B88220003804480067101A905302CF009
:1029300043FB280029F060FF10E001240A4BAA00A5
:102940001B680026D35801AA4D331B785B10234027
:102950001370DCE729000648FCF798FA0020FEBD5A
:1029600000248026D3E7C046B0B90000140C000054
:1029700061270518144B70B51B6815008200D358E9
:102980000E004D331B78DB071CD5062100020143E6
:10299000C1200C230A00000129F00AFF4023037024
:1029A000002304004380022000F0D6FC042326729A
:1029B000A572360A2D0AA080E38020006672E572B7
:1029C00029F01AFF70BDC046B0B9000070B50C4EBA
:1029D0008500336804005B59002B0FD0094A0121A0
:1029E000FFF7C8FF33685B594D331A78910705D05C
:1029F0000C218A4320001A70FFF770F870BDC046A2
:102A0000B0B90000FFFF000070B506251C4B820026
:102A10001B680400D358002030335A7F1540022D24
:102A20001BD11D2914D8012917D9881E1B2821D88C
:102A30002CF096FA142014201420142017201720AC
:102A400017201420172020201720142020242024B1
:102A50007F20014052394842484170BD0020110793
:102A6000FBD508210A4207D004390A4320005A77CF
:102A7000FFF734F80020F0E70A435A770120ECE72B
:102A8000B0B90000F7B515000C0004222C4901A8CC
:102A90002F0A2CF091FA22000221380001ABFFF737
:102AA00075FA060001283BD123784322172B0FD05B
:102AB000A288002A0BD0E188914208D3152B0DD1B2
:102AC000FD226378991E114208D0102B06D04022B7
:102AD00002213800FEF730FF3000FEBD18232A0027
:102AE0002900184829F064FE237805000830152BCA
:102AF0000FD12100123B2B70627808316A702CF0E4
:102B00005BFAA3882800AB80E388EB8029F074FE91
:102B1000E2E70D4B022200212B802CF069FAF0E74E
:102B20000228D9D12378172BD6D101003800FEF71F
:102B30005BFD002306009842CED01E008380CBE7C9
:102B4000A42E0518030C00000202000070B5140A40
:102B50000D00E0B20221FEF7FBFC1538C0B20128DF
:102B600008D82900044BA4001B680C39E058203019
:102B70002AF050FE012070BDB0B9000070B5150AF2
:102B80000C00E8B20221FEF7E3FC1538C0B20128C0
:102B900026D8144BAD001B68EB58186A00281FD0CC
:102BA000114B82889A421BD12388C28B934217D93A
:102BB000018C994214D3013B9B1A162201259BB22A
:102BC0005343C118CA1CD577628804310A86A2888B
:102BD000C0184A86A2792430CA77E11D2CF0ECF99E
:102BE000002070BDB0B900001A0C0000F8B5150A3D
:102BF0000C00E8B20221FEF7ABFC1538C0B2012888
:102C000033D81B4BAD001B68EB58186A00282CD03A
:102C1000184B82889A4228D12388C28B934224D9A8
:102C2000018C8B4221D816250227013B9B1A9BB2AF
:102C30006B43C318DE1CF777668804331E8427793C
:102C4000DF77B24211D2B1420FD30321013EB21A53
:102C500092B255434319DA1CD17762790433401993
:102C6000DA772430A11D2CF0A7F90020F8BDC0466A
:102C7000B0B900001A0C000070B5150A0C00E8B2DB
:102C80000221FEF765FC1538C0B2012825D8144B87
:102C9000AD001B68EB58186A00281ED0114B8288C3
:102CA0009A421AD12388C28B934216D9018C994239
:102CB00013D3013B9B1A16229BB25343C118CA1C63
:102CC000D57F002D09D10435D577A2784919C018D0
:102CD000CA772430E11C2CF06FF9002070BDC0468B
:102CE000B0B900001A0C0000F0B50D0085B002214B
:102CF0000090FEF779FC002800D185E00378153BB1
:102D0000012B00D980E08388002B00D1A4E0009B38
:102D1000A81E9B0001935F4B019A1B689B581C6A7D
:102D2000002C00D19CE05C4AA188914200D0A7E031
:102D30000C34052868D82CF013F90D0D8C9F67030F
:102D4000002C00D196E0203318002AF0ABFD2000C3
:102D500029F052FD00250622009B1B021A43039214
:102D600042E020302AF09EFD4C4B828806009A42B9
:102D700003D029F073FD412511E0C3898289022126
:102D80009B1A9BB25C1C029316235C43200029F023
:102D9000E9FD002809D1300029F060FD4B252A000B
:102DA00002210098FEF7C8FD2EE002210098FEF7F0
:102DB000D5FCA3B20100039A374829F0F9FC310091
:102DC000B38911314382F38904008382327C02701B
:102DD00001302CF0F1F8300029F040FD029B002B6F
:102DE00014D1200029F008FD2A4F019A3B68985819
:102DF000036A002BB5D1002DD1D1264B019A1B6857
:102E00009B581B6A002BCAD005B0F0BD21003B685F
:102E1000019A0C399858042720302AF031FD0621F8
:102E2000009B1F481B0219430A000A2329F0C0FC1B
:102E3000022206000770638A002101338380A38A7F
:102E40004270C38008302CF0D3F8300029F0D4FC55
:102E5000D1E705270025E2E74425A0E700259EE706
:102E60000528FBD82CF086F876FF76FF87FF87FFD2
:102E7000FAFF060041256EE70727002CEAD17AE722
:102E80000528C1D82CF076F866FF66FF77FF77FF3C
:102E9000C0FFF6FFB0B900001A0C0000040C0000DF
:102EA000030C000015161700F8B50F0006210002EC
:102EB0001D0001430C3316009BB20A000A4829F09A
:102EC00077FC00230400C38043810D33FF332A00C5
:102ED000478086800581038006990C302CF06CF8C1
:102EE000200029F089FCF8BD0A0C0000F0B5464B23
:102EF00082001B680F0085B003210500D658FEF73D
:102F000073FB041E23D00378212B20D1002F00D087
:102F100070E0407805281AD82CF022F8031B2A45C7
:102F2000536C06212D0229431A230A00374829F041
:102F30003FFC638801254380354B85800380012356
:102F40005B42C380334B038129F056FC657005B0AA
:102F5000F0BDE288002A0BD00E20012368440370E4
:102F6000618800902800FFF79FFF02236370EEE75F
:102F700033002B331B78002B15D006212D0229435B
:102F80000A000823244829F013FC102303706388E7
:102F90004380338D2A36838032789B18C38029F092
:102FA0002BFC0323E2E7A288002A0AD00E2002238A
:102FB00068440380618800902800FFF775FF0423B0
:102FC000D4E72389002B15D006212D0229430A239B
:102FD0000A00124829F0ECFB6388438084235B00DD
:102FE00003800023C38003812389838029F004FCAC
:102FF0000523BBE72800FEF771FD3A0003212800F6
:10300000FEF79AFCA3E7C046B0B90000190C000017
:1030100015020000011800000F0C0000080C000051
:10302000F0B514000025212287B0039304AB1A7178
:103030005D71230A01936B461F790A000E00380068
:10304000032105ABFEF7A2FF0190012822D1134B0B
:1030500021001A68230A9B009B581148039A029387
:103060000A2329F0A5FB21230380738804004380F1
:103070008580C580058130000C3829F0EFFB0321E5
:1030800038002200FEF714FB029B290038009D62E5
:10309000FFF72CFF019807B0F0BDC046B0B90000A3
:1030A000220C0000F0B5100087B00D00140029F0CC
:1030B00081FF402834D0434B240A1B68A200D35818
:1030C0000321E0B20293FEF78FFA0190002827D087
:1030D0000378212B24D1029B1B8D0393002B1FD13E
:1030E0006E1C30002978384AFBF7ACF8002808D16C
:1030F000AA786B7812021A43344B21001B68023005
:103100009847002637006A8A029B1A85AB8A9B1A69
:10311000029A2A321370AB8A6A8A9B1A9F4202DB98
:10312000002007B0F0BD16247C432B1904937A1CB1
:103130009B7DD2B20592032B08D0042B2ED0022BFC
:1031400002D1049B1B8B0393059FE4E7049B183477
:103150002C192000D97D1E4AFBF774F8061E04D0F6
:10316000029B059A2B331A70EEE7049B2000D97D51
:10317000184AFBF767F8071E03D0019B039A1A81D0
:10318000E2E7049B2000D97D134AFBF75BF8061E9B
:10319000DAD0019B039A3E00DA80D5E7002ED3D027
:1031A00020002B191830D97D0C4A2818FBF74AF853
:1031B0000028C9D06B8A06000133DF19019B9F806C
:1031C000C2E7C046B0B900000118000008BF000007
:1031D000052A00002A2B0000292B000002290000EC
:1031E00070B510000C00150029F0E4FE402819D03D
:1031F0002E0A03213000FEF7ABF92038C0B20128B7
:1032000010D8300000F0A4FC2A000100102306486A
:1032100029F0CEFA05001022A11D2BF0CDFE2800CA
:1032200029F0EAFA002070BD210C000010B5110051
:10323000FFF75CFE10BD000073B520230D0069464A
:103240000B710023160A4B712A000321F0B201AB67
:10325000FEF79CFE0400012816D1062136023143F8
:103260000A230A00094829F0A3FA6B888480438066
:1032700085235B0003800C3BFF3BC380044B038131
:103280002B23837229F0B8FA200076BD080C0000C9
:10329000022A000070B510000D00140029F08AFE0B
:1032A000402822D0124B240A1B68A200D358A988B8
:1032B0001A8D2B331B78D318994216D1E0B200F047
:1032C00047FC22020624010004232243094829F076
:1032D0006FFAEB79AA791B02134303806B7A2A7A7F
:1032E0001B021343438029F087FA002070BDC046BB
:1032F000B0B90000240C000070B51000140029F0D3
:1033000059FE402812D00A4A230A12689B009D5891
:10331000210002232200074829F04AFA2B002B3310
:103320001B782A8D9B18038029F066FA002070BD57
:10333000B0B900000E0C0000064A0300928EFF2078
:10334000002A05D09A4203D29B1A072B00DCD8B280
:103350007047C046B8B90000054A0300908E0028A7
:1033600003D0072B02D8C01880B270470020FCE7BA
:10337000B8B9000010B5041E05D0022807D02000FF
:10338000FEF762FB10BD0520034929F049FD00212D
:10339000052029F0A1FDF2E7643605187FB5FF236B
:1033A0000593094B09499886343318000123039388
:1033B000074B05AA029306230193002300930833C9
:1033C000FAF77EFF07B000BDB8B900000118000091
:1033D0001034051810B5FEF7FFF910BD10B5012126
:1033E000FEF7DCFA10BD000010B50024064B1C7778
:1033F000064B1B78023B9C4200DB10BD20000134D1
:10340000FFF7E4FAE4B2F3E7B8B90000B5BE000094
:103410000028000200000000032800020000000055
:10342000052A0020008004000229000A0000020092
:103430000328000200000000292B000A0080100071
:1034400003280002000000002A2B00020080100068
:1034500070B51900084816001D00FBF717FD041E83
:1034600008D0112332002900044829F0A1F9047082
:1034700029F0C2F9002070BD81340518210B00002D
:1034800070B5112306000D00074891B2052229F0FE
:103490008FF9040029000670102201302BF08CFDFA
:1034A000200029F0A9F970BD210B000070B50A4871
:1034B0000C001900042329F07BF900220500618823
:1034C000231D2088FBF742F8A870238828002B8052
:1034D00029F092F9002070BD0D0B0000F0B5002717
:1034E00085B01D0002AB9C1C0E000092088803AA48
:1034F00021005F80FBF78EF8238829000633009AAD
:1035000001909BB2094829F053F9050022880399DC
:10351000428005302BF050FD019B28002B71338831
:103520002B8029F069F9380005B0F0BD0B0B0000C5
:1035300070B50A480C001900042329F039F9A28853
:10354000050061882088FBF72DF9A87023882800E2
:103550002B8029F051F9002070BDC046090B0000F6
:10356000F0B5002585B00E0002AF19000E48082303
:1035700002953D7129F01CF92B000400811C2A00E2
:1035800030880097FBF708FF8022029BA0719B8880
:1035900052011340A38033882000238029F02CF9A6
:1035A000280005B0F0BDC046070B000070B5094803
:1035B0000D001900042329F0FBF8A97804002888DD
:1035C000FBF78EF9A0702B882000238029F014F9D6
:1035D000002070BD050B000070B509480D001900F2
:1035E000042329F0E5F80400811C2888FBF788F9FA
:1035F000E0702B882000238029F0FEF8002070BDA9
:10360000030B000070B50C480C001900042329F0CE
:10361000CFF805006088C3B2102B02D104F002FF7E
:1036200060802000FBF7D6F9A870238828002B8043
:1036300029F0E2F8002070BD010B0000190010B560
:10364000030A04000B2B08D18A4206D00448093B28
:1036500029F0AEF8048029F0CFF8002010BDC04654
:103660000E0B000070360518F0B9000001000900CB
:10367000FFFF00003D360518000B00000536051859
:10368000020B0000D9350518040B0000AD350518F4
:10369000060B000061350518080B000031350518D0
:1036A0000A0B0000DD3405180C0B0000AD340518C2
:1036B000200B00005134051870B505000C000129DD
:1036C00001D103F04BFE0B4EAD003368A4005B59F3
:1036D000E05800280DD029F0CBF8002805D1336838
:1036E0005B59E0580C3829F0B9F8002233685B596F
:1036F0001A5170BD00BA0000F0B50C000027082672
:1037000089B004930EAB1B7802920593594D2B7828
:10371000023B9F4205DA3802304329F04BFC3F2838
:1037200005D12D78023DAF4204D1FF2790E001374B
:10373000FFB2EBE70622504906A82BF03DFCAF4252
:1037400005DB00224D4B110001201B6898474C4EB1
:10375000BD00336800215B195820019329F060F9FE
:10376000019B582218603368002158592BF040FC07
:10377000C822336800215B599A875533A93A1A70D9
:10378000173A3B0213431800039329F0A5FB2021AD
:10379000336862885D192B68260001930633DA8747
:1037A000019A1236463213788B4319002379581E3A
:1037B00083415B010B4313703000062206A92BF0F6
:1037C000EDFB030001984E30002B44D0062231005F
:1037D0002BF0F2FB01222B68543326000C361A70B2
:1037E0003000062206A92BF0D9FB03002868062228
:1037F0004730002B37D031002BF0DEFB01222B6845
:103800004D331A70FF222B689A81029ADA81072AB7
:103810001ED01223039A02991A4828F0C9FF0122E8
:1038200005006388A11D038063791340437205324C
:103830000A302BF0C1FB238B28006B80638BAB809D
:10384000A38BEB80A37F2B7223792B7428F0D4FFFA
:10385000380009B0F0BD0622A11D2BF0ADFB2B688E
:1038600062795433B9E704992BF0A6FB2B68059ACB
:103870004D33C6E7B5BE00008C3E051808BF0000FA
:1038800000BA0000010E000070B515000822000209
:1038900002430C0004481900042328F089FF058026
:1038A000847028F0A9FF70BD030E00000100002005
:1038B00010B50A4B0A4A1B781468023B984202DB97
:1038C00000D1FF2010BD82001259002A03D0063219
:1038D000D28F8A42F6D00130C0B2EFE7B5BE000009
:1038E00000BA0000074B1B78023B984208DA064BEF
:1038F00080001B68C358002B02D00633D88F704756
:103900000248FCE7B5BE000000BA0000FFFF00005F
:1039100003000020FF2B09D0054A9B0012689B582A
:10392000181E03D0463318788006C00F7047C04673
:1039300000BA0000074B10B51C68800024182068EE
:10394000062247302BF038FB012223684D331A70D2
:1039500010BDC04600BA000003000A000020FF2B83
:103960000BD0012909D805499B000968585800283F
:1039700003D00721514347314018704700BA000077
:10398000044B80001B68C358181E01D056331878AA
:103990007047C04600BA000070B50D001100082243
:1039A00000020243E0201C000001022328F000FF77
:1039B0000570447028F020FF70BD000070B50F4BFB
:1039C00005001B780C00023B984205DB00220C4BE3
:1039D000110001201B689847022C05D90022084BD2
:1039E000110001201B689847064BAD001B68A4001E
:1039F000EB58E358181E00D0187870BDB5BE000013
:103A000008BF000000BA000070B50E4B05001B781F
:103A10000C00023B984205DB00220B4B11000120F9
:103A20001B689847022C05D90022074B1100012082
:103A30001B689847054BAD001B68A400EB58E05885
:103A400070BDC046B5BE000008BF000000BA00004F
:103A500070B50E4B05001B780C00023B1600984217
:103A600005DB00220A4B110001201B689847022C3D
:103A700005D90022064B110001201B689847054B11
:103A8000AD001B68A400EB58E65070BDB5BE000049
:103A900008BF000000BA000070B5154B04001B7889
:103AA0000D00023B984205DB0022124B1100012061
:103AB0001B689847022D05D900220E4B11000120EA
:103AC0001B68984700200C4BA2001B68AD00D35820
:103AD000ED5885420AD0280028F0C7FE21020824AC
:103AE00002002143280028F0A8FE012070BDC04636
:103AF000B5BE000008BF000000BA000070B5114B51
:103B000005001B780C00023B984205DB00220E4B9F
:103B1000110001201B689847022C05D900220A4B8E
:103B2000110001201B6898470020084BAD001B685E
:103B3000A400EB58E358834202D0180028F095FE09
:103B400070BDC046B5BE000008BF000000BA00004E
:103B5000024B80001B68C358D889704700BA000028
:103B6000030001290DD0022914D00020814210D178
:103B70000C4A9B0012689B58463318784007C00FC8
:103B800007E0084A830012689B5846331878C01033
:103B900008407047034A830012689B5846331878E0
:103BA000C006ECE700BA0000084A030012780020C3
:103BB000023A934209DA064A9B0012689B588342F4
:103BC00003D046331878032318407047B5BE000071
:103BD00000BA000003000020FF2B07D0044A9B001E
:103BE00012689B58181E01D03E3318787047C046A3
:103BF00000BA000030B5164B1B78023B984225DA1C
:103C0000144B80001B68C05800281FD00424463085
:103C100003788D002540A3432B431025AB43551E4D
:103C2000AA41A2405BB21A4308230325194209D1D5
:103C3000013D214206D1033C1340214019434B1E54
:103C40009941CDB203239A432A43027030BDC04646
:103C5000B5BE000000BA00000E4A03001278002032
:103C6000023A93420FDA0C4A9B0012689B58834237
:103C700009D0032246331B785807C00F1340022B8C
:103C800002D0934203D0704704231843FBE70C2370
:103C9000FBE7C046B5BE000000BA000070B50824BE
:103CA0000002044320000D00160029F083F91F28AC
:103CB00009D0200029F07EF9002E05D02843C1B29A
:103CC000200029F009F970BDA843F8E7F7B5164FB1
:103CD00086003B6800929B598A00D35804000D006F
:103CE0000192002B14D0FFF709FF08220100E02009
:103CF00023021A430001022328F05AFD3B68AA0060
:103D00009B59D3581B780370009B437028F074FDB7
:103D100029002000FFF7D0FC0121A940002220004B
:103D2000C9B2FFF7BBFFF7BD00BA0000F7B5082422
:103D300083001D4F009303021C433B6882009B5885
:103D40000500002B17D0200029F034F9002601903F
:103D5000019BF1B21F2B1BD02800FFF7ADFC0136F1
:103D6000032EF5D13B68009A985828F0E3FE002214
:103D70003B6800995A5020003F2129F0ADF82100FE
:103D80000A4828F073FC2100094828F06FFCF7BDB1
:103D9000009A3B689B58B200D358002BDFD04622D4
:103DA0002800FFF793FFDAE700BA0000F20E0000E8
:103DB000F40E000070B5040001282ED002282AD08D
:103DC000002814D11A491B4B1B4D0B601B4B0820BC
:103DD0001B6808264B602B78023B0B81184B1B8815
:103DE0004B8129F01DF82B78023B9C4200DB70BD13
:103DF00020023F213043013429F06EF8E4B2F2E7AB
:103E00002000FFF793FF0134E4B20B4B1B78023B19
:103E10009C42F5DBEBE70024F7E7074B00211A781B
:103E2000084B023A186892002BF0E2F8DFE7C04630
:103E3000F4B90000744B0518B5BE000004BA0000C8
:103E4000AC4C051800BA000010B50400FF2801D0E2
:103E5000FFF76CFF200010BD30B50638094D84B265
:103E60000020AC420DD8063989B2A94209D80A3BD4
:103E700005499BB28B4204D8F530FF308242804125
:103E8000404230BD7A0C0000760C000000000000BB
:103E900000000000F7B510000C0015001E0029F00E
:103EA00089F83F2820D02B0A02202788019304F0AC
:103EB00071FC874225D16788002F17D1280AFFF7A8
:103EC00047FEA388010004332A009BB2274828F04C
:103ED0006FFC05000770A288A11D428004302BF002
:103EE0006BF8280028F088FC0020FEBD04232A007F
:103EF00031001F4828F05CFC23880380082383706E
:103F0000F0E70420278804F045FC874224D1638829
:103F1000002B13D1A388022B10D1280AFFF718FE1B
:103F2000042301002A00114828F042FC01230370F9
:103F3000E379A2791B0213434380D3E704232A00C9
:103F400031000B4828F034FC23880380A288082322
:103F5000022AD4D00533D2E704232A0031000448D2
:103F600028F026FC238803808023C8E70C0E00007D
:103F7000160C000070B51000140029F01BF83F2843
:103F800017D0250A02212800FFF718FD092810D1B3
:103F9000220021000223084828F00AFC01230370B4
:103FA0003A33437028F028FC452202212800FFF70D
:103FB0008DFE002070BDC046040E000070B51000DC
:103FC0000D00140028F0F6FF3F2816D02B78FD22B4
:103FD00018000A380100240A1140104209D0412279
:103FE000062B04D100212000FFF7E8FC012200216C
:103FF00000E06A782000FFF769FE002070BD000035
:1040000070B510000C00150028F0D4FF0023060046
:104010003F280FD0E1882A0AD0B2052906D0062908
:104020000AD00A4B03201B6898470DE0211D01F0C0
:10403000B3FA0300180070BD082202231642F9D11A
:104040002278211D03F066F90023F3E708BF000082
:10405000F8B510000F00150028F0ACFF3F2832D053
:104060002D0AEEB202213000FFF7CEFC022104003F
:104070003000FFF7A3FC09283DD1334BAA001B6891
:10408000D358022255331B78134234D03B78002B8F
:104090001BD00E2329002D4A2D4828F089FB05004E
:1040A0003000FFF71FFC288063886B80A388AB80FB
:1040B000E388EB8063896B81A389AB8123892B81A2
:1040C000280008F0ADFD0020F8BD04232900214A96
:1040D0001F4828F06DFB04003000FFF703FC3B2372
:1040E0002080A370200008F09BFD482202213000B0
:1040F000FFF7ECFDE7E702213000FFF75FFC09283E
:10410000E1D101213B7830005940627801F0FCF99F
:104110003B78002BE9D00E2329000F4A0C4828F0E9
:1041200047FB05003000FFF7DDFB2880E388EB80CC
:1041300023892B81A388AB8063886B80BB88AB818C
:104140007B886B81BCE7C04600BA000020200000DD
:1041500005110000212000001320000070B51000A0
:104160000C00150028F026FF3F280CD02D0AEEB2D7
:1041700000213000FFF722FC06284BD005D802288A
:1041800015D0052830D0002070BD152867D01D2817
:10419000F9D100213000FFF7B1FC2A020825010007
:1041A0000C2338482A4328F003FB042364E0002151
:1041B0003000FFF7A3FC0822A3882D020C33010076
:1041C0002A439BB22F4828F0F3FA0023050003701E
:1041D0002388A11D4380A288828006302AF0ECFE4D
:1041E000280028F009FBCEE700213000FFF786FC0D
:1041F00008222D0201000C232A43224828F0D8FA75
:104200000123037023884380E379A2791B021343BF
:104210008380E6E700213000FFF770FC08222D02C2
:1042200001000C232A43174828F0C2FA0223037026
:1042300023884380E379A2791B0213438380637A46
:10424000227A1B021343C380E37AA27A1B02134330
:104250000381637B227B1B0213434381C1E700215F
:104260003000FFF74BFC08222D0201000C2305480B
:104270002A4328F09DFA0323037023884380A379FF
:104280000371AEE7060E0000F7B501910978170A31
:104290001C0015004023FEB201292BD1100028F08C
:1042A00089FEDF2318401F2821D01F21280028F075
:1042B00013FEFF2322001A40082A00D11C00104BD5
:1042C000BA001B683900D3580E489C810E4A04235B
:1042D00028F06EFA04003000FFF704FB019B2080F9
:1042E0005B782000A37008F09BFC0020FEBD019BC2
:1042F0001978432322003000FFF74EFBF5E7C04654
:1043000000BA0000051100000604000070B510009E
:104310000D00160028F04EFE3F2804D02B78002B0D
:1043200003D0012B15D0002070BD022004F032FA1A
:10433000041EF8D00621330A1B021943320004235D
:10434000054828F035FA04806B78837028F054FA19
:10435000E9E70420EAE7C046160C0000F7B51000B4
:104360000C001700019328F025FE3F2822D0238857
:1043700002200093002504F00DFA009B2E008342DA
:104380000CD00420258804F005FA854214D00820BA
:10439000258804F0FFF9854211D0802506233A00D4
:1043A0000199084828F004FA2388057103804680A3
:1043B00028F022FA0020FEBD00250226EEE70025A7
:1043C0000126EBE7180C0000190010B5030A0400E1
:1043D0000E2B08D18A4206D004480C3B28F0E8F99D
:1043E000048028F009FA002010BDC046340E0000F9
:1043F00070B510000D00140028F0DCFD3F2820D01F
:104400002E78210A012E1ED0022E32D0002E18D175
:1044100006226B880902063311439BB2220026480C
:1044200028F0C6F90400022004F0B4F926712080B7
:104430006A88601D6280291D2AF0BEFD200028F0D8
:10444000DBF9002070BD06230902220019431A4837
:10445000023328F0ADF90400042004F09BF9002396
:1044600023710233208063806B8863711B0AA37100
:10447000E4E7062609020E23220031430E4828F005
:1044800097F90400300004F085F900232371083304
:10449000208063806B8863711B0AA371AB88E37112
:1044A0001B0A2372EB8863721B0AA3722B89E372C7
:1044B0001B0A2373C2E7C046140C0000F7B51000B6
:1044C0000C001500019328F075FD3F2840D004F042
:1044D00059F9002829D10220278804F05BF9002629
:1044E000874229D00420278804F054F90126874206
:1044F00022D00820278804F04DF987422AD10621CE
:104500002B0A1B022A0019432248072328F050F9DE
:1045100023884680038000230371050004F02AF9F4
:10452000800806406E71280010E00620268804F0FE
:1045300031F98642CFD10226280AFFF709FB012371
:1045400001002A00144828F033F9067028F054F9C5
:104550000020FEBD0A20278804F01CF987420ED1F6
:1045600006212B0A1B0219432A000723094828F0B9
:104570001FF923884680038000238380E6E7062313
:104580002A000199034828F013F923880380802327
:104590000371DBE7140C00000A0E0000F0B51000F8
:1045A00085B00C00150028F005FD3F2837D0270006
:1045B00028373B78012219002D0AEEB21140134230
:1045C00030D022002A32190030001278FFF712FB97
:1045D000174BAD001A6823695519286810224363E8
:1045E000636A2100836314302AF0E6FC2100286806
:1045F0001022243014312AF0DFFC01212300220094
:1046000038782B330140208E29321B7812780290A3
:10461000E08D0190A08D00903000FDF725F900207D
:1046200005B0F0BD0A003000FFF7E4FAE5E7C04648
:1046300000BA0000F0B504000D0016001F0085B0A0
:10464000022905D90022234B110001201B6898473D
:1046500008202302184328F0ADFC3378432201934D
:10466000DF230390034002921F2B18D02900200063
:10467000FFF7CAF901231A00864204D00398DA181A
:104680002841184206D0100005B0F0BD019A9342AF
:1046900010D001373B78002BF8D140330293300023
:1046A00028F0E3F8029B020001992000FFF774F95B
:1046B0000022E8E73200012629002000FFF7C8F9B0
:1046C0003100A94032002000C9B2FFF7E7FA3200FA
:1046D000D9E7C04608BF0000F7B517230D006946AB
:1046E0000B710023140AE7B24B712A000221380033
:1046F00001ABFFF79FFF060001281AD121000E4AE7
:1047000008230E4828F054F804003800FFF7EAF8B0
:104710002080A878697820714B424B414242424147
:1047200052001343A370E170EB782000E38008F09F
:1047300077FA3000FEBDC0463220000005110000AF
:10474000F7B514230D0069460B7100216B46140A5E
:10475000E7B259712A00380001ABFFF76BFF060082
:10476000012811D106232100084A094828F020F821
:1047700004003800FFF7B6F820806B8820006380C3
:10478000AB88A38008F04CFA3000FEBD2220000068
:1047900005110000F7B513230E0069460B710021C7
:1047A0006B46140AE7B259713200380001ABFFF7CB
:1047B00041FF050001280FD104232100074A0848C2
:1047C00027F0F6FF04003800FFF78CF8208073888C
:1047D0002000638008F024FA2800FEBD7C0C000055
:1047E00005110000F7B51D230D00140A00216A46CB
:1047F000E7B21371517138002A0001ABFFF71AFFBD
:104800000600012811D106232100094A094827F092
:10481000CFFF04003800FFF765F820806B88200088
:104820006380AB88A38008F0FBF93000FEBDC04672
:1048300015FC000005110000F7B51B230D00140A3C
:1048400000216A46E7B21371517138002A0001ABAA
:10485000FFF7F0FE0600012811D106232100094AC6
:10486000094827F0A5FF04003800FFF73BF8208037
:104870006B88200063802B79237108F0D1F9300018
:10488000FEBDC04614FC000005110000F7B51A2358
:104890000E00140A00216A46E7B213715171380004
:1048A000320001ABFFF7C6FE050001280FD104233B
:1048B0002100084A084827F07BFF04003800FFF772
:1048C00011F8208073882000638008F0A9F928007F
:1048D000FEBDC04613FC000005110000F0B51F002E
:1048E000092387B0039202AA137300235373039B17
:1048F0000A001D0AEEB20C003000022105ABFFF7E2
:1049000099FE029001280CD12389E2886188A08851
:10491000FFF7A2FA002807D1402202213000FFF75A
:10492000D5F9029807B0F0BD344BAA001B680221EC
:10493000D3581A005532107802000A40084203D1B9
:1049400046331B789B0631D4FFB2082F13D13000B9
:10495000FFF7FEF83B000100039A294827F028FFE3
:10496000A388438063880380E38883802389C3808E
:1049700027F042FFD5E729000E23224A224827F0DC
:1049800017FF05003000FEF7ADFF2880E388280000
:10499000EB8023892B81A388AB8063886B80A389FC
:1049A000AB8163896B8108F03BF9BAE72B020825DC
:1049B00005212B43009230001222F8F73FFA134BE7
:1049C00005001B689847C0B2002813D06070A38808
:1049D0002800EB806388AB80E3882B8123896B817F
:1049E00063786B70F8F740FA094A0399094827F091
:1049F000A3FD96E7029B6370E9E7C04600BA00009A
:104A00000F0E00001320000005110000C4BF0000BD
:104A100030750000F20E0000F0B516000F0087B0F0
:104A2000340A0D22414902A8E5B201932AF0C4FAE2
:104A30003A000021280002ABFFF7FCFD009001289E
:104A400039D1387802381B2835D82AF089FA0E3D3A
:104A50004C0E0E4F523434343434343434345534F0
:104A6000340E3434585B3434340E062124020C23C3
:104A700032002F48214327F09BFE85235B000380F3
:104A80000A3BFF3B8380023BC380033303723B78C6
:104A9000052B13D0062B13D0152B13D01D3B5A1EFC
:104AA0009341C8225B429343224A9B1843722A23B4
:104AB000837227F0A1FE009807B0F0BD1E4BF5E70A
:104AC0001E4BF3E71E4BF1E702231E4A21001E484E
:104AD00027F06EFE04002800FEF704FF208020006F
:104AE00008F09EF8E7E70223184AEFE70223184A86
:104AF000ECE70223174AE9E70223174AE6E7022315
:104B0000164AE3E7320001990123154827F050FEC9
:104B100004002800FEF734FF2070200027F06CFE10
:104B2000002228001100FFF7D1F8C4E7644B0518F4
:104B3000080C0000C92A0000012A0000042A000015
:104B4000A62A00001D040000051100001620000028
:104B500005140000152000007B0C00003020000030
:104B6000310E000002050615030407081218191D6E
:104B700000000000FFFF0000C9430518040E0000FC
:104B800089420518020E00009D450518050E00001B
:104B9000194A0518090C00005D410518000C0000B9
:104BA000BD3F05180E0E0000DD480518100E000070
:104BB00051400518130A000001400518F20E0000CC
:104BC000753F0518320E00008D480518330E0000A1
:104BD000394805183D0E0000E5470518120E000083
:104BE00089730518140E00002D750518160E0000A7
:104BF000757A0518180E0000257B05181A0E00009E
:104C0000957B0518F00E0000297C0518040A0000A9
:104C1000D57C0518000D0000257F0518F30E000057
:104C2000717F0518F40E0000B57F05182C0D0000EB
:104C3000117D05182A0D0000317E05182D0E00008B
:104C4000817E0518150C0000953E0518170C000014
:104C50005D430518130C0000BD4405180B0E000041
:104C6000F14305180D0E00000D4305180111000059
:104C700021530518021100002153051804110000EA
:104C8000215305180311000021530518280E0000B8
:104C9000954705182B0E0000414705182F0E000000
:104CA000D9460518350E000091810518270000002F
:104CB00010B548880C00FEF7F9FDFF2806D0044B1C
:104CC00080001B682279C35856331A70002010BD2B
:104CD00000BA0000F7B510000E00140028F06AF9C1
:104CE0003F2835D0230A01936B461F7900213800F5
:104CF000FEF764FE4124032825D13478002C29D105
:104D000021003800FEF7FAFE0822019B01001B0279
:104D10001A431248062327F04BFD0500337903712F
:104D200033894380F388038027F066FD2B79062BB7
:104D300009D802210A4B019A1B689200D3585533B7
:104D40001A788A431A70220000213800FEF7BEFF4D
:104D50000020FEBD703CE4B2F5E7C046070E00003F
:104D600000BA0000F8B510000C00160028F022F977
:104D700007006088FEF79AFD05003F2F20D063787A
:104D8000002B0ED1FEF7E4FE0100E32002233200E7
:104D9000000127F00DFD637943702379037027F03C
:104DA0002BFD02212800FEF709FE172808D16278A2
:104DB000002A01D0703AD2B202212800FEF786FF05
:104DC0000020F8BDF8B510000C00160028F0F2F82D
:104DD00007006088FEF76AFD05003F2F1AD0237890
:104DE000002B0ED1FEF7B4FE0100E32002233200B7
:104DF000000127F0DDFC637943702379037027F00D
:104E0000FBFC2278002A01D0703AD2B2002128009F
:104E1000FEF75CFF0020F8BD70B510000C0028F014
:104E2000C9F805006088FEF741FD3F2D07D02278C4
:104E3000002A01D0703AD2B20021FEF747FF0020CD
:104E400070BD10B5FFF7E8FF10BD10B5FFF7E4FF28
:104E500010BD10B5FFF7E0FF10BD70B510000D00DC
:104E6000140028F0A7F83F2808D02A78002A01D09B
:104E7000703AD2B20021200AFEF728FF002070BD50
:104E800070B510000C00160028F094F83F2819D0D7
:104E90002178350A00290CD12800FEF72FFE0223C5
:104EA00001003200084827F083FCA388038027F024
:104EB000A3FC2278002A01D0703AD2B20021280047
:104EC000FEF704FF002070BD290E0000F8B51000A9
:104ED0000E00140028F06EF83F2820D0240AE7B214
:104EE00000213800FEF76AFD4125072812D13578E8
:104EF000002D16D129003800FEF700FE22020824FA
:104F0000010001230848224327F052FC3379037043
:104F100027F072FC2A0000213800FEF7D7FE00209F
:104F2000F8BD703DEDB2F5E7090E0000F7B51000D1
:104F30000D00140028F03EF83F2828D02B79154F9B
:104F40000093AB78240A01933B68E6B2A4001B5996
:104F50009B89FF2B03D13000FEF7FAFD0300019A75
:104F600030000099FEF790FC3B681B599A89FF2A94
:104F700008D02B78002B01D0703BDBB20121300030
:104F8000FEF70AFD30002A79698803F01DFA002037
:104F9000FEBDC04600BA0000F8B510000C001600B7
:104FA00028F008F83F2834D06378320AD5B21A2B9B
:104FB00018D80121080098401B4F384217D10842E9
:104FC00010D02800FEF7C4FD062301003200174868
:104FD00027F0EEFBA3880380E38843802389838046
:104FE00027F00AFC6278002A18D0703A15E01049C0
:104FF00092000968525811004631097889060AD58D
:105000001300022155331A7828008A431A70FEF7DC
:1050100043FD0020F8BD703B1A00D2B202212800E7
:10502000FEF754FEF5E7C04602100206110E00001E
:1050300000BA0000F7B510001500009127F0BAFF84
:105040003F2830D02D0AEEB200213000FEF7B6FC2A
:105050004122042823D1009B5C78AB000193002CF3
:1050600023D121003000FEF749FD08272A02010064
:105070003B003A431A4827F09BFB0500194B019A65
:105080001B689B58009A553312791A70009B3A009E
:10509000191D29F091FF280027F0AEFB2200002106
:1050A0003000FEF713FE0020FEBD0E4B01991B6879
:1050B00022005B58703A190046310978D2B289064D
:1050C000EDD5013CE4B2192CE9D80121A1400648F4
:1050D0000142E4D002205533197881431970DEE78C
:1050E000080E000000BA000001080103F7B5100027
:1050F0001400019127F05EFF3F2827D0240AE7B271
:1051000000213800FEF75AFC41250600082818D176
:10511000019B1D78002D1BD129003800FEF7EEFC05
:10512000220232430100052392B20B4827F040FBD4
:10513000040001990522043129F03EFF200027F0E8
:105140005BFB2A0000213800FEF7C0FD0020FEBDF9
:10515000703DEDB2F5E7C0461D0E0000F8B5070042
:1051600010000E00140027F025FF3F283FD0364BDB
:10517000240AE5B29F4243D007D8344B9F421DD04A
:10518000334B9F4235D0412238E0324B9F4230D0E2
:10519000314B9F42F7D13378002B28D002212800D1
:1051A000FEF70CFC172822D13278002A01D0703A81
:1051B000D2B202212800FEF789FD18E03378002BD7
:1051C00015D0264FA6003A6892599289FF2A0ED030
:1051D000703B0121DBB22800FEF7DEFB3B689959EA
:1051E000002904D108202402204327F075FE002066
:1051F000F8BD3278002AFAD0703AD2B20021D9E74D
:105200003378002BF3D002212800FEF7D7FB0928C2
:10521000EDD132781A2AC8D80123934010490B42A5
:10522000C3D00E4BA4001B68E3581900463109781F
:105230008906BAD5022155331A7828008A431A7094
:10524000FEF72AFCD3E7C046132000000604000046
:105250001D040000162000003220000000BA0000EB
:105260000210020610B51000140027F0A3FE3F281C
:1052700007D0200AFEF76CFC22000100024827F04C
:10528000D5FA002010BDC0462A0E000070B51000EF
:105290000C00150027F08EFE3F2812D0280AFEF7DA
:1052A00057FC082301002A00074827F081FA2389C8
:1052B00083806389C380A3880380E388438027F0C9
:1052C0009BFA002070BDC0462C0E000070B5100087
:1052D0000D00140027F06EFE3F281BD02200210095
:1052E0000E230D4827F064FA02220C4B240A1B6897
:1052F000A400E358553319780A431A700923037040
:10530000EB888380AB8843802B89C3806B890381C2
:1053100027F072FA002070BD0E0E000000BA0000E7
:1053200070B50025134C00192C00032805D829F06E
:1053300017FE020A110D0D250F4CED006519AC4248
:105340000BD1002015E006250C4CF6E707250B785D
:105350000B4CF2E705250B4CEFE720000834260044
:10536000083E36889E42EAD14468201E01D01800CB
:10537000A04770BDFFEEFFFF88530518F0530518D6
:10538000485405182054051805140000CD4E051882
:1053900015200000ED5005187B0C0000814E05180B
:1053A0007C0C00005B4E051822200000194E0518E9
:1053B00030200000C54D05181A20000035D0071810
:1053C0001B20000035D0071813FC0000434E0518C1
:1053D00014FC00004B4E051815FC0000534E051838
:1053E0005B200000418205185A2000004182051808
:1053F000060400005D5105181D0400005D510518EC
:10540000162000005D510518132000005D5105189D
:10541000322000005D510518192000000180051898
:10542000050000002D4F05180C000000D54C051894
:10543000570000006552051808000000F5800518A7
:1054400030000000178105180400000035500518D1
:1054500003000000994F051806000000CD52051802
:10546000070000008D5205180C000000654D05185E
:1054700014000000B14C0518050000004D8005180F
:1054800070B58B8804000D004C26022B01D80B4A06
:10549000D65C00212000FEF791FA09280CD10021EA
:1054A0002000FEF7B1FA6A7843789A4204D13200BC
:1054B00000212000FEF70AFC002070BDC45505182D
:1054C00070B50D0002210400FEF778FA092817D103
:1054D00002212000FEF798FA6A7843789A420FD1A9
:1054E000AB884822591E8B415B42200002211A40A2
:1054F000FEF7ECFB210208240248214327F0B6F80E
:10550000002070BDF20E0000082337B5140002021F
:10551000134300220D00009205211332F7F78EFC91
:1055200085804470F7F7A0FC37BD000070B50C0013
:1055300005004B890A89E0888988FEF78DFC0028E0
:1055400020D008212A0211430A000E23104827F018
:105550002FF909230370E388AD008380A38843807B
:105560002389C380638903816378437027F044F9FA
:105570000221084B1B68EB5855331A788A431A707E
:10558000002070BD012128006278FFF7BDFFF7E71A
:105590000E0E000000BA000010B50B79012B07D0E9
:1055A000054A122B05D0054A132B02D0002002E039
:1055B000034A0431904710BD2D550518C1540518F4
:1055C000815405183C313300010000008154051856
:1055D000120000002D55051813000000C1540518D5
:1055E0000E4B80001B6870B5C5582C69002C05D186
:1055F0000B4B2200210001201B689847E17CA27E12
:105600000B1C914200D9131CDA1FD2B20020092AC8
:1056100002D83E352B70013070BDC04600BA000084
:1056200008BF0000204BF7B51B688000C0580191EF
:105630000269463006784020D47E137D157F2340D2
:10564000547D06402540947C3F38044208D0547E67
:10565000044205D0180028433043441EA041C0B284
:10566000A42701217F008C46D45D002E03D066461E
:105670002643340004E01E002E430E42F7D18C4333
:105680000199D4554C1E012C05D8A4246400125D48
:10569000D207D217104001990339012903D82B43AF
:1056A0005B07DB171840FEBD00BA00003B4B8000D3
:1056B0001B6870B5C5582C69002C05D1384B2200E9
:1056C000210001201B689847230046352878627C1A
:1056D000A17C4E33400635D4012A14D1227E012A02
:1056E00011D101321A70042223004F331A700123A2
:1056F000A27C1A4206D0627E1A4203D04F3422782E
:105700001343237070BD0422114207D1617E08004B
:105710001040114202D118700022E5E70522E17D18
:10572000207C51431F4A5218125C1A70002AF3D091
:10573000013A012AD7D90022194B110001201B6818
:105740009847D4E7012A02D0227E012A03D10222FF
:105750001A700C22C8E70422114207D1617E0800AA
:105760001040114202D118700822BDE70525E07DE6
:105770000C4A4543217C5219525C1A70012801D011
:10578000042805D1012901D0042901D10322DFE732
:10579000002AE9D0013A022ACDD8DAE700BA00009F
:1057A00008BF00003B810518144B80001B6870B5D2
:1057B000C5580C002969002904D1114B0A000120A9
:1057C0001B6898472B69002C09D1987D0022052879
:1057D0000BD8013229F0C4FB0F0F050F050B587FC2
:1057E000F4E74F33187880080240100070BD4F3343
:1057F0001878C008F8E70122F7E7C04600BA0000B1
:1058000008BF00000822000210B50243012307214F
:10581000034826F0CDFF2F23037026F0EDFF10BDC7
:105820002B0D0000F8B51500082200020E000243FF
:10583000412307210A4826F0BBFF20272E2304001E
:1058400003703A003100013029F0B6FB20003A0025
:105850002900213029F0B0FB200026F0CDFFF8BD53
:10586000290D0000474BF7B51B688200D75806008A
:105870003C690191002C05D1434B220021000120FD
:105880001B6898473000FEF763F9082233020100D5
:105890001A433E48212326F08BFF019B050003702D
:1058A0000A2B68D8180029F05BFB066666662A0D8D
:1058B000161166571B001F22A37C403713401D3A68
:1058C0006B703A70280026F097FFF7BD3000FEF7A6
:1058D00081F96870F6E73B00132240331A70F1E754
:1058E00023004E331B78032BECD1FC34A36A1A0A35
:1058F0006B701B0CEB700023AA702B71E2E7002C7D
:1059000005D1214B2200210001201B689847637CB0
:10591000012B05D1237E012B02D100236B70D1E72F
:105920003000FDF7F5FFE37D00280CD10222023B99
:105930009343DBB2002B04D1237C934201D001239B
:10594000ECE76A70BEE7012BF9D9042B02D1237C66
:10595000022BF4D00223E1E721001022681C3E3123
:1059600029F02AFB2100280039311022FF311130A3
:1059700029F022FBA6E70022034B110001201B683F
:1059800098479FE700BA000008BF0000130E000010
:10599000F0B53D4B8DB01B6803928200D35804AD27
:1059A0000F0010220021040028001E6929F020FBAE
:1059B0001022002108A829F01BFB002F4DD139002F
:1059C0002000FDF7C9FF8379012120002B70FDF72E
:1059D000C3FF8379012120006B70FDF7BDFF062214
:1059E000010008A829F0E8FA39002000FDF7B4FF0B
:1059F00001001E2002AB0622C01829F0DDFA0123A7
:105A000031000B20AB7002AB06221031C01829F018
:105A1000D3FA0223310012206B7202ABC018173187
:105A2000062229F0C9FA03983100431E9841FF234A
:105A3000404298430233FF33C018039B04432E3186
:105A4000002B00D01039114B2A0000933000019434
:105A500008AB28F0D9FA0DB0F0BD01212000FDF708
:105A60007BFF8379002120002B70FDF775FF837980
:105A7000002120006B70FDF76FFF0622010008A8CF
:105A800029F09AFA0121B0E700BA0000ED6C051880
:105A90000E4B82001B6870B5D55808242E003F3687
:105AA0003378000204439B0703D52100084826F001
:105AB000DDFD0A22AB8F21005A43054826F03CFD4C
:105AC000022332781343337070BDC04600BA000021
:105AD000F40E0000174B82001B6870B5D25804000A
:105AE00013003F33197802230D001D4019420ED0D8
:105AF000938F114901258B4206D0AB400F489BB2D2
:105B0000834206D8938702352000FFF7C1FF2800A3
:105B100070BD91872000FEF71BF8082522020100C6
:105B20002A431E23064826F043FE057026F064FE35
:105B3000053DE9E700BA0000B80B0000B70B000014
:105B4000150E000070B50125084B82001B68D45863
:105B50003F3423782B4208D0010208200143044837
:105B600026F084FD2378AB43237070BD00BA00009B
:105B7000F30E0000F8B50127134B82001B680500E7
:105B8000D4580E003F3423783B4208D0082103024A
:105B900019430E4826F06AFD2378BB43237030007A
:105BA000F7F762F933780B2B0CD0052B0AD02902BA
:105BB0000825074A0548294326F0BEFC0123227820
:105BC00013432370F8BDC04600BA0000F30E000076
:105BD00030750000082302021343002273B50E0043
:105BE0000092062103320400F7F728F9050031007E
:105BF0001022013029F0E0F929002000FFF7BAFF58
:105C000073BD082302021343002273B50E000092F5
:105C1000062104320400F7F711F9050031001022C3
:105C2000013029F0C9F929002000FFF7A3FF73BD57
:105C3000082302021343002273B50E0000920621CE
:105C40000D320400F7F7FAF8050031001022013098
:105C500029F0B2F929002000FFF78CFF73BD73B55E
:105C600008220E00002103021343009106310400B4
:105C7000F7F7E4F8050031001022013029F09CF913
:105C800029002000FFF776FF73BD082337B5020215
:105C9000134300220D000092062105320400F7F79D
:105CA000CDF8457001002000FFF764FF37BD00000C
:105CB000154B82001B68F0B5D35804001D690822FB
:105CC0002F002E0087B02E371E36002914D1310048
:105CD00002A829F071F90822390004A829F06CF90A
:105CE000C0208000044301222800084B009402A930
:105CF00027F03DFF07B0F0BD390002A829F05CF99C
:105D000008223100E9E7C04600BA0000ED6C051832
:105D100010B509020143024827F03EFF10BDC046FE
:105D2000ED6C0518F8B5334B82001B680400D5589C
:105D30000F002E0040363378042B1ED1296900292C
:105D400004D12D4B0A0001201B68984728692022A6
:105D5000791C913029F030F9390028692022B130BE
:105D6000213129F029F92000FDF7D2FD012806D1C3
:105D70002000FFF747FD032333700020F8BD296999
:105D800020000A009131B132FFF74CFD2B691A0057
:105D90004E3210780328F0D829F0E2F8020A1002F7
:105DA000A42104224900585C02435A540723E3E724
:105DB00004212000FFF756FD0523DDE705213170A2
:105DC0005A7C012A03D12000FFF7A2FFD5E739331F
:105DD000FF3318001022002129F00AF92869102247
:105DE00000213E3029F004F909212000FFF73AFD97
:105DF000C3E7C04600BA000008BF0000F8B5244B56
:105E000082001B680400D7580D00FDF781FD0600D5
:105E10003869002816D0691C3D0010223E304035FC
:105E200029F0CAF82B78072B0CD1396946373B7813
:105E30005B0609D4002E17D120001E31FFF7E1FECA
:105E400008232B700020F8BD0B004E331B78002B6D
:105E500001D0032B04D1002EF4D105232B700AE0CE
:105E6000012BEFD1012E0BD105232B704433FF33CF
:105E7000CB5C5B07E6D500212000FFF749FFE1E797
:105E8000082320002B701E31FFF7BBFEDAE7C04667
:105E900000BA0000F0B585B002930AAB1B880192EE
:105EA00003931E4B82001B680500D7580E001C236D
:105EB00081B21B4A1B4826F07BFC04002800FDF73A
:105EC00011FD2080A01C002E14D108223100668113
:105ED00029F08EF82000019910220C3029F06CF87E
:105EE000200006F09DFE012208212800FDF7D6FEC5
:105EF00005B0F0BD3B0046331B785B0603D500219F
:105F000008226181E4E7039B08226381029929F05A
:105F100053F83B001A2240331A70DBE700BA000046
:105F20001920000005110000F7B52E4B07001B6873
:105F300016008200D4580191FDF70AFE08223B02A8
:105F400001001A4328481E2326F032FC019B05005D
:105F50000370981E05283ED829F002F80E033D2C48
:105F60002F263378AB704022463423789343237036
:105F7000280026F041FCF7BD2669002E05D11B4BF9
:105F80003200310001201B68984733004F331978E5
:105F9000A423A9705B00F25C483BFF3B1A40380029
:105FA000EA70FDF727FEDEE71C22A81C310029F06D
:105FB00003F8DDE71722A81CF8E710223100A81C1F
:105FC00028F0FAFF200010223100243028F0F4FFDE
:105FD0000023A363CCE70022044B110001201B68BF
:105FE0009847C5E700BA0000150E000008BF000082
:105FF000F7B5284A830012680E00D2184B780621A4
:1060000004000B4205D001310B40043B0A25012B53
:1060100006D820001768FDF77BFC002802D0002579
:106020002800FEBD2000FFF755FD051EF7D173784F
:106030001B070DD402F0E6FA002809D16B46DA1DE1
:1060400063230321200013700335FFF76DFFE7E79B
:106050003B69002B11D12000FDF77AFD08222402B4
:106060000100224301230C4826F0A2FB1F22737873
:106070001340037026F0C0FBD2E701212000FDF79A
:106080009DFC0A28CBD00022044B110001201B6884
:106090009847C5E700BA00001B0E000008BF0000CB
:1060A000082337B502021343002206210092093269
:1060B0000400F6F7C3FE050002F05CFB0123184064
:1060C000687002F08DFB06220100A81C28F074FF06
:1060D00029002000FFF74EFD37BD00002F4BF7B51C
:1060E0001B68820005000E00D758FDF711FC01283F
:1060F00002D000242000FEBD73780A24042BF9D8B6
:106100000622F378134204D001321340043B012BE2
:10611000F0D8B3780A24012BECD83379043C073B40
:10612000092BE7D82800FFF7D5FC041E04D0002473
:106130000328DFD10934DDE73B69002BD9D102F018
:1061400061FA002815D0F3781B0718D50823290217
:1061500019430A00124826F02BFB0A23050003709E
:106160000622711C013028F027FF280026F044FB8E
:10617000C0E702F04FFA0028E5D10524BAE702F0A3
:1061800041FA0028E2D16B46DA1D6323032128007F
:1061900013700324FFF7C8FEACE7C04600BA000046
:1061A000120E0000F0B5D3B215003D4A87B0126858
:1061B00003939B009E580F000190002E66D000288C
:1061C00003D07038C3B2019360E00121E8B2FDF75B
:1061D0001BFC0378083704000497F02B08D0418893
:1061E000082204314118380028F0D8FE002854D184
:1061F000E8B2FDF7ADFC08232D021D43ADB22A0025
:106200000100284826F0D4FA012107000398FDF781
:1062100075FC638801000C332A009BB2224826F0EB
:10622000C7FA237862880293F03B591E8B41A15C28
:106230000C338C469B00F318059363460500A018A9
:106240004178090219438378C0780002184300049A
:10625000059B014301315960029B211D2B701300E6
:1062600008336B80281D28F0A7FE608808220430C0
:106270000499281828F0A0FE280026F0BDFA736BB8
:1062800038003B60B36B7B6026F0B6FA0121019ABF
:106290000398FDF71BFD07B0F0BD212393E7C0462F
:1062A00000BA00001C0E0000F10E0000F7B54B789C
:1062B00005000E00042B02D90A242000FEBD062290
:1062C000CB78134204D001321340043B012BF3D8A6
:1062D000B378012BF0D83379073B092B01D9062479
:1062E000EBE7464BAA001B682800D758FDF710FBC8
:1062F000041E74D13B004033019318780128DCD18F
:106300003B69002B04D13E4B220021001B689847BB
:10631000731C00937378042BCED8009B5B78012B01
:10632000CAD8009B1B79102BC6D8009B5B79102B19
:10633000C2D801212800FDF741FB0A2805D0002220
:106340002F4B110001201B689847386906220099DD
:10635000173028F031FE3E0008233A694636517E58
:10636000194206D0927C1A4203D032783833134354
:10637000337033785B061FD52800FFF731F900280A
:10638000ADD03B692800997DFFF74CF9002833D048
:106390002800FFF78BF900212800FFF705FA0028F5
:1063A0000ED0402332781A420CD02800FFF72AFA88
:1063B0000323019A137080E702F024F90028DBD14F
:1063C00003247AE70523019A13703B691A004E32C1
:1063D0001478002C05D004212800FFF743FA00248C
:1063E0006BE7A42104224900585C02435A54280058
:1063F0002100FFF78DFC60E708245EE700BA00008B
:1064000008BF000070B54B7805000E000A20042B71
:1064100024D8164BAA001B68D35840331B78013B85
:10642000182B1CD808242B021C432100104826F0EE
:1064300067F9002804D021000E4A0D4826F07CF8A8
:1064400028007678FDF784FB0123010022000A482A
:1064500026F0AEF9067026F0CFF9002070BD0022BC
:10646000064B110001201B689847F6E700BA0000B0
:10647000F30E0000307500002E0E000008BF000073
:1064800070B5122304000E000B4A81B20B4826F0AF
:106490008FF905002000FDF725FA31002880102231
:1064A000A81C28F089FD280006F0BAFB012208216B
:1064B0002000FDF7F3FB70BD1A200000051100005D
:1064C000F0B5274B82001B688DB0D4580500FDF74E
:1064D0001FFA236926001A002700E13207924E3680
:1064E0004737C33A2E33002824D1390005920AAF2A
:1064F000062208A8069328F05FFD06223100380026
:1065000028F05AFD23004D331B7804AA93755434A8
:106510002378BB71C020134BC000054301930AAB25
:106520000093069A05990798029508AB27F008FE94
:106530000DB0F0BD310006920AAE062208A8059300
:1065400028F03AFD06223900300028F035FD2300FE
:1065500054331B7804AA93754D342378B371D9E76B
:1065600000BA0000ED6C051873B56B46D9711A4B73
:1065700016001B688200D55804002969002904D13F
:10658000164B0A0001201B6898476B46DA79002AEF
:1065900016D102212000FFF7C7FC200000220121B4
:1065A000FDF794FB2869002803D026F0C3FA0023E6
:1065B0002B612000FFF7C6FA002340352B7073BD16
:1065C0006B4603212000DA1DFFF7AEFC002EE4D05D
:1065D0002000FFF75DFAE0E700BA000008BF000006
:1065E00013B54A780400531E0D2B00D908227023DE
:1065F00013436A46D3710C4BA2001B68D3581B6926
:10660000002B0AD02000FDF783F96B460022200002
:10661000D979FFF7A9FF002016BD6B4603212000A2
:10662000DA1DFFF781FCF6E700BA00002C4BF7B546
:106630001B688200D75806003C690191002C05D1E7
:10664000284B2200210001201B6898473D0040355F
:10665000297808001438052823D828F081FC050380
:10666000201E202016232B702B78142B14D1463794
:106670003B7850345B0603D5012223789343237083
:10668000012223781521134203D10222134210D094
:106690001721297093432370F7BD1823E3E71423D0
:1066A000E1E7230050331A780E4B03201B6898470C
:1066B000DAE7042019000140034203D01922834382
:1066C0002A70E8E7019B002B04D11900300000F08C
:1066D000C7F8E1E70A003000FFF746FFDCE7C046F5
:1066E00000BA000008BF0000104B82001B6870B5A4
:1066F000D35804001A00403212780D00192A13D121
:106700001969002904D10A4B0A0001201B68984727
:10671000062120006A1CFFF707FC2000FDF7F8F8AF
:1067200001002000FFF782FF002070BD00BA0000CA
:1067300008BF0000F8B5104B82001B680500D75851
:106740000E003C69002C05D10C4B220021000120D9
:106750001B689847002E0CD1627D237F1340503474
:10676000237014234037310028003B70FFF75EFF91
:10677000F8BD227DE37EF1E700BA000008BF00000B
:10678000354BF7B51B688200D35804001F690E0013
:106790000193002F05D1314B3A00390001201B68CD
:1067A0009847019D4035297810290DD00B00113BE9
:1067B000022B02D810232B7006E03B0050331A78CE
:1067C000264B03201B6898472B78102B3ED13A00AC
:1067D0000121503213780B420CD08B431370019B74
:1067E00046331B785B06EFD420000631FFF73AF8FA
:1067F0001123E0E702210B4215D08B43137001F007
:10680000B9FF430705D505212000FFF72BF8122318
:10681000D1E701F0DFFF01002000FFF720FA2000A0
:10682000FFF73EFCD0E704210B4208D08B431370E6
:10683000132320002B700231FFF714F8C4E7002E59
:1068400005D1320031002000FFF78EFEF7BD310088
:106850002000FFF76FFFF9E700BA000008BF000053
:10686000F8B5104B82001B680500D7580E003C6934
:10687000002C05D10C4B2200210001201B689847F9
:10688000002E0CD1227DE37E134050342370102360
:106890004037310028003B70FFF772FFF8BD627D82
:1068A000237FF1E700BA000008BF0000F7B5524BA4
:1068B00016001B688200D7580191002208210400AD
:1068C0002225FDF7EBF9062E13D00135112E10D03D
:1068D0000135222E0DD0002E04D03500703DEDB2D2
:1068E000002D06D13A0008230025463211780B43CB
:1068F00013703E00403633780F2B47D80D2B6FD9DD
:1069000001212000FDF75AF80A2805D000223B4B50
:10691000110001201B6898473969002904D1374BC1
:106920000A0001201B689847002D5FD133780F2B98
:1069300024D13A690E3B917C19421FD0527E1A42F3
:106940001CD02000FDF704F90823220201001A439D
:106950002B48163325F02CFF0723060003701C225A
:106960003969023028F028FB300008222900143051
:1069700028F03EFB3000758225F03EFF019B002B86
:106980002FD119002000FFF7D5FE29E01A2B27D1BF
:1069900001212000FDF712F80B2805D00022174B2B
:1069A000110001201B689847002D12D12000FDF72F
:1069B000CFF80822230201001A431248012325F0D0
:1069C000F7FE07002000FDF747F93870380025F082
:1069D00013FF00232A00012120003370FDF776F910
:1069E000F7BD01212000FFF73BFFF9E70022290056
:1069F0002000FFF7B9FDF3E700BA000008BF000070
:106A0000150E0000190E0000184B82001B6870B5AF
:106A1000D6580400330040331B780D0086B0182B85
:106A200020D13169002904D1114B0A0001201B68D3
:106A300098470622A91C04A828F0BEFA6A466B787B
:106A4000684693753169102228F0B6FA05216A4626
:106A50002000FFF769FA2000FCF75AFF0100200030
:106A6000FFF7E4FD002006B070BDC04600BA00008C
:106A700008BF0000104B82001B6870B5D658040098
:106A8000330040331B780D00172B13D131690029D7
:106A900004D10A4B0A0001201B689847691C102288
:106AA000306928F089FA2000FCF732FF010020004D
:106AB000FFF7BCFD002070BD00BA000008BF000059
:106AC0001C4B82001B6870B5D6580400330040335D
:106AD0001B780D0088B0162B29D13169002904D10B
:106AE000154B0A0001201B689847EB78AA781B0217
:106AF000134316206A46291D93826844082228F011
:106B00005BFA1022316901A828F056FA2000FDF73F
:106B100061F86B460721987701AA2000FFF704FA75
:106B20002000FCF7F5FE01002000FFF77FFD0020AC
:106B300008B070BD00BA000008BF0000104B820012
:106B40001B6870B5D6580400330040331B780D0025
:106B5000152B13D13169002904D10A4B0A000120F9
:106B60001B689847691C1022306928F025FA20001C
:106B7000FCF7CEFE01002000FFF758FD002070BD9D
:106B800000BA000008BF000070B581B20500022302
:106B9000064A074825F00CFE04002800FCF7A2FE78
:106BA0002080200006F03CF870BDC0461B2000008D
:106BB00005110000334B82001B68F0B5D55893B027
:106BC0002C69290023000AAE1E3307000622069313
:106BD000473110333000079328F0EEF929000622E0
:106BE0004E310CA828F0E8F92B004D331B782E21EC
:106BF000B3712B0054331B7802AA5218137038005B
:106C0000FCF786FED1342B6909AA002823D1597ECE
:106C10009170197E5170D97D117019004E3109782B
:106C200002291ED8002920D1102200210EA828F008
:106C3000DFF98020144B000103930CAB3843019320
:106C400009AB0093049002960EAB2000069A0799B8
:106C500027F0C6FA07E0997C9170597C5170197C35
:106C6000DAE70329E0D013B0F0BD80200649000127
:106C70003933384303910CA9FF33049002960191F4
:106C80000092E2E700BA0000ED6C0518164BF7B56C
:106C90001B688200D65804000D00FCF739FE0190F5
:106CA0003069002812D0370040373B780D2B0DD1CA
:106CB00012301022FF30691C28F07EF9019B002B56
:106CC00006D10C3320003B70FFF774FF0020FEBD9F
:106CD0000B233B7032693E33FF33D35C9B07F5D502
:106CE0002000FFF7EDFBF1E700BA0000F0B597B028
:106CF0000A926B4628229B181D78040028000E007B
:106D0000FCF706FEFF220A9B0790134009939B00A5
:106D10000B93BA4B0B9A1B689F58002F38D0012158
:106D20002800FCF74BFE0A2832D1002C07D02100A6
:106D300000227039C9B22800FFF716FC28E03C6930
:106D400023004E331B7808930A9B180AFF23184030
:106D5000082800D92FE228F017F9090064009900EB
:106D60001B0157013A017301F001060223001E3393
:106D70001800102231000A9328F01EF93B00463318
:106D80001B785B0606D4012228000799FEF700FE57
:106D900017B0F0BD089B002B01D0032B18D1079B27
:106DA000012B0ED1099AFF3313430193944B210019
:106DB000200000930023913151300A9A27F04EF9B8
:106DC000E6E728000A99FEF71CFF0823403726E073
:106DD000089B012B16D123002222FC33FF32A25C38
:106DE0009B6A089ED3408022210020001E40802301
:106DF000099C520022430192814A33439131513020
:106E00000092DAE7089B022BC2D128000A99FEF70C
:106E1000F8FE079A0823002A00D0053340373B705C
:106E2000B6E73B0046331B785B060AD428003100E6
:106E3000FEF7D0FE07984037431E98410730387060
:106E4000A6E7089B002B01D0032B0DD1079B012B3C
:106E500005D06C4B03201B68089A099998473100AC
:106E60002800FEF7B7FEB0E7089B012BDED0089B99
:106E7000022B00D08CE72000310010223E3028F099
:106E80009BF809212800FEF7EDFC81E72000102285
:106E900031003E3028F082F8002872D13B004633A2
:106EA0001A784023110019401A420FD1FF18323BC3
:106EB0003B70079B012B05D1210028001E31FEF7F6
:106EC000A0FE65E72800FEF7F3FE61E7089B002BB4
:106ED00030D0032B11D18025230022002100200077
:106EE000099CED002543464C2E331E329131513022
:106EF0000195009427F0B4F94AE7089B012B2DD1A6
:106F0000079B012B04D1210028001E31FEF779FEDA
:106F10002222FF32A35C132B0CD00133A354079B16
:106F2000002B04D100212800FEF7F2FE30E70723F2
:106F3000403774E72800FCF7EBFC3C000D2340349D
:106F4000002809D1A4233A695B00D35C9B0702D5D2
:106F50002800FFF7B5FA0B23237019E7089B022BD3
:106F600000D015E7A4225200A15C06330B43A354C2
:106F7000079B002BD6D040373B78052B00D007E786
:106F8000D0E704212800FEF780FE01226421D2E62A
:106F90002800FCF71FFE31000400020012A828F0B0
:106FA0000BF8102212AB18190021121B28F020F840
:106FB000079B002B06D119002800009312AAFEF7A8
:106FC00069FFE5E6280012A9FFF75AFAE0E620007B
:106FD000413008223100FF3027F0EEFF80232000EF
:106FE000220009995B000B430193054B5130393264
:106FF000009301000023FF32E0E6C04600BA000023
:10700000ED6C051808BF0000089B032B05D06E4BE4
:1070100003201B68089A0999984773783078B278EA
:107020001B020343F0781204134300066749184318
:10703000F4F74EFFFC34A1620A214037397021E792
:107040002800FCF7C7FD0700200031001022D130D6
:1070500027F0B2FF31003A002000103127F0ACFFDA
:107060001023E019DA1B002127F0C2FF584B0B9ABE
:107070001B680EAE9C583000236921001A001E3296
:107080001F000792D13306224731089327F094FF5F
:10709000210006224E3110A827F08EFF23004D3329
:1070A0001B782E21B371230054331B7806AA521883
:1070B00013702800FCF72CFC2E3723690DAA00283A
:1070C00011D1997C9170597C5170197C1170190003
:1070D0004E310878032800D95AE6E024E40027F06E
:1070E0003FFF081E2A08597E9170197E5170D97D84
:1070F000ECE71022002112A827F07AFF099B0196E5
:107100001C43344B0494039310AB02930DAB0093D8
:1071100012AB3A000799089827F062F838E639333D
:107120000999FF330C432B490494039110A9029150
:1071300001960092EDE72933F2E7A01C10223100FE
:10714000FF3027F039FF079B4037002B05D1310076
:107150002800FEF76DFD0D2361E60C2328003B702F
:10716000FFF728FD14E62100123130001022FF3114
:1071700027F014FF061E17D1079B4037012B06D1BD
:10718000A11C2800FF31FEF753FD0F2347E6010045
:10719000102212A827F02CFF2200012128000096BF
:1071A00012ABFEF777FEF0E70B212800FEF76DFD2E
:1071B00001226B21BFE5044B4037032039781B685F
:1071C000079A9847E4E5C04608BF000040420F0018
:1071D00000BA0000ED6C05184C4BF0B51B6882003E
:1071E000D35887B01C69050005910393002C23D068
:1071F0002700FCF78DFB230005992E3704904E33B2
:107200000131102238001E7827F0D6FE039B403350
:107210001978082910D106221A70039A40204632A4
:1072200012789446024005926246024207D1280035
:10723000059A0499FEF7ACFB002007B0F0BD002EC4
:1072400001D0032E30D1049B012B1ED126001E3607
:1072500031002800FEF7D5FC23004E331B78032BAA
:107260000ED1802321002000DB001D43284B3A0073
:107270000093513133009130019526F0F1FFDBE7A7
:107280000D22039B40331A70D6E780239B001D43D9
:107290001F4B2100200000930023513191300195B4
:1072A0003A0026F0DBFEC7E7012E14D1230022228C
:1072B000FC33FF32A25C9B6A2100D3408022200075
:1072C000334013438132FF321543114A513191301B
:1072D00001950092E4E7022EAED1039A1069A42230
:1072E0005200825C0498012808D10A42A4D00522E9
:1072F000002128001A70FEF70BFD9DE70B21197085
:10730000324299D02800FFF7DBF895E700BA000079
:10731000ED6C051870B504000E00002A1AD13379FF
:107320000D4A9B009B5804319847051E12D001005E
:107330002000FEF7AAFC3379012B0BD00B2B09D0D0
:107340002000FCF7E5FA6021294301222000C9B2A0
:10735000FFF70AF970BDC04654810518094B820039
:107360001B6870B5D45805002069002803D025F0AB
:10737000E1FB002323612800FEF7E4FB00234034F7
:10738000237070BD00BA0000F0B51E000A2387B05C
:10739000150002AA1373130000225A732B0A0293DA
:1073A0006B461F7A0A000C003800012105ABFDF77F
:1073B00041F9039001287BD13800FCF7A9FA011E9E
:1073C00000D078E0574B029A1B689200D658336978
:1073D000002B04D0544B02001B68039898473300DD
:1073E0003F331B785A0700D595E09B0700D594E002
:1073F0006378651C042B00D991E06B786A22012B1D
:1074000012D82B79102B0FD86B79102B0CD8EB7866
:10741000073B092B08D80824AB78234209D101F097
:10742000F1F800280CD1632201213800FCF74EFC52
:107430003EE001F0EFF80028F5D0AB782342EED023
:10744000A6200221400025F0EBFAA622040000212C
:107450005200306127F0CCFD2000072229001030B7
:1074600027F0AAFDA27C0123110019401A4200D185
:10747000A182029B06211A0208231343002238002E
:1074800000920132F5F7DAFC237C01004370637C43
:107490008370A37CC370E37C0371237D4371637DA0
:1074A00083713800FEF766FB3300012240331A7007
:1074B000039807B0F0BD4222B542B5D1194B013453
:1074C0001A68029B9B009D582B69002B05D0002257
:1074D000154B11001B6803989847A6200221400015
:1074E00025F09EFA011E286104D10F4B02001B6893
:1074F00001209847A62200212869520027F078FD34
:10750000286921000622103027F056FD002138009E
:10751000FEF7A8F9CCE7452286E7692284E76A22CC
:1075200082E7C04600BA000008BF0000F0B51000B6
:1075300089B01400039125F03DFD3F2800D1A2E061
:10754000230A04936B461C7C039B18780138092896
:1075500000D998E027F018FD0A009700970016015F
:10756000E801DD008601970009025902039B049A95
:107570005D78B94B92001B682000D3580593FCF747
:10758000C7F901287FD1059B40331B78022B7AD1A4
:10759000002D00D165E2059B1F69002F04D1AF4B80
:1075A0003A0039001B6898473D00039B17350233AA
:1075B000072219002800079327F0FEFC01F02AF8A3
:1075C000002803D10822AB789343AB700823AA7834
:1075D0001A4208D0BA7C1A4205D0059A383346328E
:1075E00011780B431370059B463306931B785B069B
:1075F0004CD5039BDB78002B64D02000FDF7F0FF17
:107600000626002847D0079B20009979FEF70AF844
:10761000002804D1069B1B785B0600D421E22000E1
:10762000FEF744F801212000FEF7BEF8002831D013
:10763000A97803220B00134011424DD12B716B71BD
:10764000049B06211A020823134300222000009203
:107650000232F5F7F3FBFB7D010043706B7883701A
:10766000AB78C370EB7803712B7943716B798371BD
:107670002000FEF77FFA069B1A78059B40335206DE
:1076800032D504221A70002009B0F0BD00F0BAFF14
:107690000028AED10326704B1A68049B9B009B58B0
:1076A00040331B78002BEED031002000FEF7EDFABE
:1076B0002000FCF72DF96021012220003143FEF764
:1076C00053FFE0E77B7C012B97D1069B1B785B0681
:1076D00000D592E70226DEE72A793B7D13402B7125
:1076E0006A797B7D1340AAE707221A70059B1B6904
:1076F0001A004E321278002A04D004212000FEF72E
:10770000B1F8C0E7A42104224900585C02435A544E
:10771000B9E7514B049A1B689200D5582000FCF73A
:10772000F7F82B0040331B780600132BABD12969E7
:10773000002904D1494B0A0001201B689847280002
:10774000039F102202373900143027F035FC049BC8
:1077500000211A0208236963134300910A220631AB
:107760002000F5F76BFB050010223900013027F0EF
:1077700023FC29002000FEF7FDF931002000FEF770
:10778000FFFF80E7344B049A1B689200D7583B698F
:10779000002B00D165E1A42676009B5D04251A002C
:1077A0002A4007922B4200D06DE7039B20005B78B4
:1077B0000693FCF7ADF805903869835D1D43069B81
:1077C0008555002B42D0039B9D1C3B0046331B7804
:1077D0005B0630D503004E331B78012B00D052E7F7
:1077E000393010222900FF3027F0E6FB3E69AA78E5
:1077F0003300FC330493039B120498786B78184988
:107800001B020343E878134300061843F4F760FBB8
:10781000049B079A99622223FF33F254059B002BA5
:1078200004D040373B78052B00D02CE70021200006
:10783000FEF76EFA27E71022290027F0BDFB059B13
:10784000002BF3D03B0040331B78ECE74E3006783A
:10785000012E00D017E71EE700BA000008BF0000A5
:1078600040420F00804B049A1B689200D5582000BC
:10787000FCF74EF82B00059040331B78112B00D0FD
:1078800001E72969002904D1784B0A0001201B680F
:1078900098472000FCF79EF9102805D90022734B69
:1078A000110001201B6898472000FCF793F9002283
:1078B000102802D81032121AD2B2039B02300021D3
:1078C000181827F095FB049B082706221D020023A9
:1078D0003D431100009320002B00F5F7AFFA06009E
:1078E000039A0130023204920499102227F064FBBB
:1078F00031002000FEF73EF9002307220621009305
:1079000020002B00F5F79AFA0500049B03991B8AC7
:107910003A0043801431043027F04EFB2900200048
:10792000FEF728F9059929E74F4B20001968049BB9
:107930009B005E58FBF7ECFF330040331B780500DB
:10794000122B00D09FE63169002904D1474B0A0071
:1079500001201B689847039920000231FEF77FF948
:107960002000FEF79DFB290008E7039B5B78002BB6
:1079700000D1AFE63C4B049A1B689200D658A42273
:10798000042335695200A95C194200D07BE60B4301
:10799000AB540F23039F12375AB20592FA5C002AA8
:1079A00002D1013BF8D2059328000399102202313D
:1079B0003E3027F001FB059B3069013316D029309A
:1079C00039001022FF3027F0F7FA802328000499AD
:1079D0009B0032690B430193254B91302932009370
:1079E00001000023FF3226F039FB4CE6A4220823D5
:1079F0005200815C0B4383542000FBF789FF002871
:107A000000D113E7403633780DE7174B049A1B6813
:107A10009200D7583B69002B00D134E64E331B78D7
:107A2000032B00D02FE63D0040352B780A2B00D0E9
:107A300029E6039B0C265B78002B00D12BE6200067
:107A4000FBF766FF0D23002809D1A4233A695B00E8
:107A5000D35C9B0702D52000FEF732FD0B232B7071
:107A600011E6082617E6C04600BA000008BF00006D
:107A7000ED6C0518F0B587B003930B23170002AA2D
:107A80001373002353733B0A02936B461E7A0A005A
:107A90000C003000012105ABFCF7CCFD05000128EE
:107AA00016D13000FBF734FF002814D12300628A7E
:107AB000A71C1433009229003A003000FEF7EAF9BF
:107AC000164B029A1B689200D358227F3E331A70DD
:107AD000280007B0F0BD039B9F4218D13000FCF78F
:107AE00037F80827029B01001A023A430A230C4880
:107AF00024F05EFE21000600638A3A000380143100
:107B0000023027F059FA300024F076FEE0E74222F6
:107B100029003000FCF7DAF8DAE7C04600BA0000C6
:107B2000170E0000F7B510000C00170025F042FA00
:107B30003F281CD03F0AFDB22800FBF7E9FE0600F3
:107B4000012814D1BB0000932378114F0193002B1F
:107B50000FD03B68009A667C9F581A223B00403346
:107B600028001A70611C3E37FEF78AFC3E70002028
:107B7000FEBD2800FFF708F8962231002800FCF728
:107B8000A5F8009A3B689B58019A40331A70EEE7BB
:107B900000BA0000F0B585B00F000C2369460B73E6
:107BA0000023140AE5B24B733A000121280003AB0D
:107BB000FCF740FD0600012826D12800FBF7A8FEAF
:107BC0004222012824D1174BA2001B68D3583F330F
:107BD0001B785A071BD49B071FD47F783B071ED501
:107BE00000F018FD6322002812D00022082324028E
:107BF00006210092280023430B32F5F71FF90100FC
:107C000047702800FDF7B6FF300005B0F0BD4522F3
:107C100001212800FCF75AF8F6E76922F8E700F09E
:107C2000F1FCDFE700BA0000F0B5150087B00C00EA
:107C30000322244905A827F0BFF92B0A03936B46BA
:107C40001F7B22000121380005ABFCF7F3FC050087
:107C5000012833D11C4B039A1B689200D658237815
:107C60006288F02B14D10020736BA118A3541A0A58
:107C70004A701A0C1B0E8A70CB70039B00011430E3
:107C800000936288114B211D301826F0A3F815E0EF
:107C90000C2A04D800220E4B11001B6898476388F9
:107CA0000120E218083A083B12786380B36B9A42CD
:107CB000E3D2010021223800FCF708F8280007B0C1
:107CC000F0BDC0463881051800BA0000A56105184E
:107CD00008BF000010B51000140025F06BF93F2814
:107CE0000BD0240A01212000FBF768FE0C2806D1E6
:107CF000002201212000FBF7E9FF002010BD002138
:107D00002000FBF75BFE1628F7D100221100F1E7F7
:107D1000F0B5100085B01400029125F04BF93F2812
:107D20005ED0414B240A1B68A200D658370040376A
:107D30003B78032B54D13169002904D13B4B0A0015
:107D400001201B689847306920220299513027F0A2
:107D500033F9029B30692033190020227130E5B2DB
:107D6000039327F029F92302082423430024062142
:107D70000C2228000094F5F761F801000B00013097
:107D80002133029A125D0255039A125D1A5501348D
:107D9000202CF6D12800FDF7EDFE2800FBF7B8FDFA
:107DA0000423012824D1316928000A009131B1321D
:107DB000FDF738FD33691A004E32107803280FD8CA
:107DC00027F0CEF802111802A42104224900585CC1
:107DD00002435A54052300213B702800FDF798FF09
:107DE000002005B0F0BD04212800FDF73BFD07236E
:107DF0003B70F5E708223A701A7E012A01D105216D
:107E0000EBE73933FF3318001022002127F0F0F898
:107E10003069102200213E3027F0EAF809212800BD
:107E2000FDF720FDDCE7C04600BA000008BF0000F7
:107E300070B510000E00140025F0BCF83F281AD0D1
:107E40000E4B240A1B68A200D5582869002812D0BE
:107E5000A42202235200815C40350B438354293A0B
:107E60003100E130FF3A27F0A7F82B780B2B02D135
:107E7000E0B2FEF725FB002070BDC04600BA00004E
:107E8000F0B5244B160A1B681000B200D35887B017
:107E90000291039325F08EF800243F2830D016235A
:107EA00002AAF7B21373547321003800029A05AB8B
:107EB000FCF7C0FB25000400012821D1082336026D
:107EC0001E4333000E22062138000095F4F7B6FF5A
:107ED000029B01005B7843703800FDF74BFE039B6B
:107EE00040331B78013B182B0DD831000A4824F091
:107EF00007FCA84204D03100084A074824F01CFBC4
:107F0000200007B0F0BD064B2A00290020001B68A6
:107F10009847F5E700BA0000F30E00003075000046
:107F200008BF000070B510000D00140025F042F8E5
:107F30003F281BD06B78002B18D0240A0121200089
:107F4000FBF73CFD0A2811D12B780B252E2B00D0F6
:107F5000033D29002000FDF798FE2000FBF7D8FC28
:107F60006021012220002943FEF7FEFA002070BDA7
:107F700070B51000140025F01DF83F2815D0012120
:107F80000B4B240A1B68E5B2A400E35828003F33DA
:107F90001A788A43110004220A431A70FBF7B8FCCE
:107FA000002245212800FEF7DFFA002070BDC04600
:107FB00000BA000070B51000140024F0FBFF3F2849
:107FC00017D00D4B240A1B68A400E55802232C008F
:107FD0003F342278110019401A4204D1074B0A009D
:107FE00001201B689847C8230222AB87237893435C
:107FF0002370002070BDC04600BA000008BF00001A
:1080000070B510000D00140024F0D4FF3F2818D0E4
:108010002B78002B15D0240A01212000FBF7CEFC81
:108020000B2805D00022084B110001201B6898473F
:108030002A78002A01D0703AD2B201212000FBF741
:1080400045FE002070BDC04608BF0000F8B5488856
:108050000D001700FBF72AFC0400FF281ED0234B5D
:1080600082001B680121D658FBF7A8FC0A2817D00C
:108070000826210231431E233A0089B21C4824F00D
:1080800097FB0B2304000370AB8932004382291D48
:10809000143026F091FF200024F0AEFB0020F8BD44
:1080A000320033004632127840331B78520606D530
:1080B0000F2B0BD120003169FEF7E2F9EEE70E2B12
:1080C00004D101212000FDF7F3FDE7E72000FEF7D2
:1080D0005BFD08212000FDF7D8FD2000FBF718FC10
:1080E000012268212000FEF73FFAD7E700BA00001E
:1080F000160E000070B548880D00FBF7D7FB040092
:10810000FF2806D0FBF704FC2A7801002000FEF7C8
:10811000CDFB002070BD70B548880D00FBF7C6FB95
:108120000400FF2806D0FBF7F3FB2A7801002000AB
:10813000FEF7BCFB002070BDF0F100000001000163
:108140000000010001010101000100000000000128
:108150000101000100000000DD600518AD62051896
:10816000FD5D0518D9710518E16505183D6B051809
:10817000C16A0518756A0518096A0518E9660518BF
:10818000F15F0518255D05188D6C05180564051847
:10819000F7B51C230C0069460B7100216B46150ACC
:1081A000EFB259712200380001ABFCF743FA060028
:1081B000012826D16B466A46694603326078063349
:1081C000023101F05DFF021E2FD16B469B78002B20
:1081D00019D16B46DB784232022B26D129000433B9
:1081E000144A154824F0E4FA05003800FBF77AFB3E
:1081F0006B46DB8828802B71638828006B8004F035
:108200000FFD3000FEBD4222032B0ED129000333A7
:108210000A4A094824F0CCFA05003800FBF762FB53
:108220006B46DB882880AB80E6E700213800FBF74F
:108230004DFDE6E75B200000051100005A2000001C
:1082400070B548880D00FBF731FB030204000820DD
:10825000184380B224F0AEFE3F280FD0002120004A
:10826000FBF7ACFB41221C2804D12A78002A01D05C
:10827000703AD2B200212000FBF728FD002070BD2B
:108280007FB50A4B059158831A33180001230393D5
:10829000074BC021029308230193002305AA0093F2
:1082A00049010B33F6F70CF807B000BD0CBA00001B
:1082B000F287051810B50400022805D90022064BE4
:1082C000110001201B689847044BA400E358181EB6
:1082D00000D0187810BDC04608BF00000CBA0000DE
:1082E00010B50400022805D90022074B1100012017
:1082F0001B6898470020054BA400E358834202D036
:10830000180024F0B2FA10BD08BF00000CBA00003B
:1083100070B505001400002909D0D02002230722DF
:10832000000124F045FA0570447024F065FA70BD30
:10833000F0B5214C85B023000390012038331F781D
:108340000B790E000740002B1AD01C4B1A78230023
:108350003033310003980097FBF7CEF90500FF2872
:108360000BD03734237801332370F3F70BFE28004A
:10837000FBF730F8280004F0DDF8280005B0F0BD68
:1083800023000F4A43331B7812689B009D58002D31
:1083900004D10C4B2A0029001B689847AB7B0722AD
:1083A000022B00D0AA8A2300697C30330029D0D068
:1083B0002B0001271633CCE70CBA0000B4BE000036
:1083C00008BA000008BF000070B504001500FF28BF
:1083D00010D0094B37331A78013A1A70FBF734FD85
:1083E0002000F3F7F9FD2000FAF7F8FF290020003C
:1083F00004F0C2F870BDC0460CBA000010B5040A03
:10840000C0B2031F9BB2052B05D8054AD35C2002DE
:10841000184380B210BD04F0FDF80300F7E7C04632
:10842000EC870518C3B210B5040A18000A380628EC
:1084300014D826F095FD0F0B0D170413110008201A
:108440002402204380B224F019FE10BD0520F7E776
:108450000620F5E70420F3E70920F1E7180004F00F
:10846000F5F8EDE70720EBE7014B588F7047C04662
:108470000CBA0000014B988F7047C0460CBA000040
:1084800003001B3B4020E02B08D8E0204939FF398E
:1084900089B2C0008842804140428001704770B577
:1084A000050007200C0024F085FD08280AD00121D2
:1084B000A94040B249B2002C05D00143C9B20720FF
:1084C00024F00AFD70BD8843C1B2F8E7F8B50A4E42
:1084D00087000400B859002808D024F0C9F9051E07
:1084E00004D1B8590C3824F0B9F9BD51002120004D
:1084F000FFF7D5FFF8BDC0460CBA0000F8B5040080
:108500000E00022805D90022104B110001201B6823
:1085100098470F4DA3005F59002F0ED02000FFF7A2
:10852000DFFE0100D02002230722000124F040F9E1
:108530003B784670037024F05FF9012C02D1FF23D1
:1085400044352B702000FFF7C1FFF8BD08BF0000C5
:108550000CBA0000F0B585B004000E0000920228AD
:1085600005D90022254B110001201B6898470720E0
:1085700024F020FD0025029008283CD03378019398
:10858000022C05D91D4B2A00290001201B689847A1
:108590001B4BA700FB5803930123039A1D0096422F
:1085A00029D00298204105001D40184207D002251D
:1085B00021E0019A93420FD0009B01330093009B6E
:1085C0001B78002BF5D1300024F04FF94022010038
:1085D0000198FFF79DFE0EE0022C05D90022074B03
:1085E000110001201B689847054B01212000DE5136
:1085F000FFF755FF0125280005B0F0BD08BF0000BA
:108600000CBA0000024B3933187801231840704728
:108610000CBA0000024B393318788007C00F70473E
:108620000CBA0000054A0300D068002800D170474A
:1086300082889A42FBD00068F7E7C0460CBA000077
:1086400070B50C0015001E00FFF7ECFF010047207D
:1086500000290DD007220B7A002013403370CB88FD
:108660002B800A7A7F2A03D92402DBB21C432C8098
:1086700070BD00000B4A70B515003E323F352B78B7
:10868000127835249A420BD9002401332B70A14271
:1086900006D0FFF7C7FFA04202D0437A01334372EE
:1086A000200070BD0CBA000010B5084B3F331A789B
:1086B000013A1A70002906D0FFF7B4FF002802D053
:1086C000437A013B4372002010BDC0460CBA000043
:1086D00010B50548C368002B00D110BD0C3025F043
:1086E000E1F824F027FAF4E70CBA000070B50400B2
:1086F000012825D0022816D000280DD11B490720BB
:1087000024F08EFB1A4D0C222100280026F070FC6C
:1087100028000C3025F068F8200003F077FE2000D8
:10872000FBF748FB70BD03F075FDFFF7D1FF00209C
:10873000FFF7CCFE0120FFF7C9FE2000FFF7C6FEC1
:10874000200001F055FC0A4B002219003F31DA8667
:108750000A705A611A00FF21453211700122072068
:108760005242F7391A8324F0B7FBD5E70889051878
:108770000CBA0000024B38331878072318407047B2
:108780000CBA0000024B383318788006C00F7047CF
:108790000CBA000010B50E4B0200588B002815D003
:1087A000801880B2062A11D91900383109788C0650
:1087B00001D4023880B2082A08D936331A78052342
:1087C0001A4201D04B0701D4023880B210BDC04616
:1087D0000CBA0000014820307047C0460CBA0000B7
:1087E000014830307047C0460CBA00000A0B0C0D2F
:1087F0000E10002800020000000003280002000004
:108800000000002A0002008020000328000200006F
:108810000000012A0002008002000328000200007C
:108820000000042A00020080080003280002000063
:108830000000A62A000200800100032800020000B8
:108840000000C92A0002008001000000134A70B530
:10885000904213D0124A90420CD00024114D2200B5
:10886000A84201D1104A3234E4001419A24208D1BE
:10887000002012E00B240B780C4AF5E703240C4A85
:10888000F2E7100008321500083D2D889D42EDD119
:108890004268101E01D01800904770BD0211000000
:1088A000041100000111000014890518BC8A051884
:1088B000A48A051870B51D00074B0C0007481978ED
:1088C000042323F075FF0C3C63894580038023F06B
:1088D00093FF002070BDC046B4BE00001D0D000017
:1088E000190010B5030A04000D2B08D18A4206D0E6
:1088F00004480B3B23F05CFF048023F07DFF002045
:1089000010BDC046AE0D0000148B051858BA00000B
:1089100001002300392000008DAC0518362000002E
:108920008DAC0518372000008DAC0518030C000035
:1089300031940518010C0000319405180120000045
:10894000319405184F200000319405185020000084
:10895000319405181F200000D1970518142000003D
:108960003194051801100000C5940518242000005A
:108970003194051823200000919505182F20000040
:10898000CD9505184B200000359705184C200000A8
:10899000859705184D2000003194051831200000FE
:1089A000319405180F200000559A05181120000079
:1089B00011990518102000001199051838200000A1
:1089C0008DAC05183E2000008DAC05183F2000003E
:1089D0008DAC0518402000008DAC05183A20000031
:1089E000B59605183B200000F99605183C200000BC
:1089F0008DAC05183D2000008DAC0518412000000D
:108A0000FDB3051842200000FDB305184520000005
:108A100059BE05184620000059BE0518592000000F
:108A200091BE05185C20000059BE051847200000C3
:108A30001199051849200000119905184A200000D5
:108A4000C99A05180E20000015BA05180520000067
:108A5000D1C3051835200000D1C305180720000038
:108A6000499505182A2000008F9A05182B20000030
:108A7000059B05182C200000059B05182D200000E3
:108A8000119605182E2000001196051827200000C9
:108A90001199051829200000119905184E20000091
:108AA000119905184320000015BA0518442000004C
:108AB00059BE05185E200000319F05180D0000000A
:108AC00071B40518110000009DB505180E000000D6
:108AD000B5BE05180F000000E1BF0518100000002A
:108AE0003FC005181800000041BF05180A0000002B
:108AF0004DA5051808000000619605180900000042
:108B0000D99E05181200000009AF051813000000D7
:108B1000A1AE0518FFFF0000E1880518050D000053
:108B20003D900518060D0000A5900518140D0000D5
:108B3000619D0518160D0000B19D0518170D000068
:108B4000F59D0518290D0000599E05182B0D0000F4
:108B5000B19E0518190D0000F59D0518000E0000C6
:108B600041B90518060E0000A9B90518F20D00005C
:108B700001B90518AF0D0000C5BD0518F30D0000C3
:108B800019C30518F10D000041C30518080D0000B8
:108B900069C30518000D0000B1C30518910D000050
:108BA00059980518900D0000B59805181B0D000088
:108BB000D5910518F00D0000B588051802110000C8
:108BC0004D880518041100004D880518230D00007C
:108BD00051920518240D000089920518250D0000FA
:108BE000F1920518260D000041930518A00D000014
:108BF000F5A20518A10D0000ADA30518A20D0000F7
:108C000029A40518A30D0000A5A40518A60D0000B1
:108C100045AB0518040D0000698E0518020D000013
:108C2000D18D0518011100004D880518B8A100006C
:108C300073B5594E0D003468002C00D1A9E023789B
:108C4000032B00D0A5E0002900D09DE001380428C6
:108C500004D826F085F94D243875810007214F4846
:108C600023F004FD6378002B02D1E38D002B16D096
:108C70004B4A032300214B4823F09AFD23002F3455
:108C80002E33197824784B424B41624262415200A4
:108C9000134303708470417003F0C2FF73BD6378A7
:108CA000002B05D1238E002B02D1638E002B0AD01E
:108CB000042300213C4A3B4823F07AFD238E0380A5
:108CC000638E4380E8E76378002B07D1638C1B2B0E
:108CD00004D12E33A28CFF339A4209D00423002101
:108CE000324A304823F064FD638C0380A38CE8E7AC
:108CF000A27E072113008B4303D02D4B03201B685A
:108D000098473200072038321378A17E83430B4303
:108D100013706288131C952A00D8962325489AB2AE
:108D2000824201D9244B1B88F3834B0708D50223C9
:108D30000021224A1B4823F03BFD63880380ABE7F8
:108D4000A37E5B0708D5012300211D4A154823F0A7
:108D50002FFD012303709FE70120A37E034213D15F
:108D60006578002D10D06B460625D91D154C164B85
:108D700022001B680D709847002804D02A002000AC
:108D8000124926F019F9002529000020FFF7B6FB4B
:108D900084E74125F8E7C0460CBA0000F10D000059
:108DA00031200000051100004D20000024200000AB
:108DB00008BF0000B8A100002C8C05182E20000070
:108DC0002D2000003CBA0000C0BE000090D707185C
:108DD000F7B50E0035781900012D29D122F0C0FD1C
:108DE0006B460627194CD91D2660194B194E2800D1
:108DF00032001B680F709847002804D03A003000FA
:108E0000154926F0D9F8154DFB2029780231F3F7E2
:108E1000BDF8FE230021A3832B7808004034237083
:108E2000FFF76CFB0720002124F056F80120FEBD5F
:108E30001D2D05D10A4B0B481B6898470020F6E70B
:108E400040222800FFF764FAF8E7C0460CBA000099
:108E5000C0BE00003CBA000090D70718B5BE0000A5
:108E6000BCBE0000C3C3C3C303230020F0B585B05C
:108E700002AA1371507103AA0C00FFF76BFB0700E5
:108E8000012800D0C9E06A4B6A4D1B786678637090
:108E90006B684321002B00D0BCE02B002A00373345
:108EA00047321B781278134300D0B3E0A18C608C5A
:108EB000FFF7E6FA4021002800D0ABE02B00383362
:108EC00018705B4B1870F5F7A5FF05220A23324096
:108ED00033400A2B77D0052A75D00722238CDB106C
:108EE000134214D00420FFF755FC0723228C0C21D9
:108EF000D2101A40013A920092B2F5F7B5FC042064
:108F0000FFF748FC802212011100F5F7ADFC0722A3
:108F1000238C134213D00220FFF73CFC0723228C42
:108F20000C211A40013A920092B2F5F79DFC022002
:108F3000FFF730FC802212011100F5F795FC0220AA
:108F400003F064FA0F2333402E0036363370FFF7F8
:108F5000BFFB2B0000223F331A7023002A002A3364
:108F60001B783E3213700322337893432A00393240
:108F7000002B5BD00221E37E0B4251D01370822282
:108F8000E38C920093424DD32B4B6B87228D9A42F8
:108F900000D91A00172A00D21722AA872800210018
:108FA000102220300A3126F007F8A37EDB0705D512
:108FB000280006223030211D25F0FEFF0021080088
:108FC000FFF736FE29E0208C1F2143060AD5290031
:108FD000383101910B789C46202361460B4301995F
:108FE0000B707F21002A05D0A37E5B0702D5C0232A
:108FF0005B001943C30502D5C023DB001943A08BD6
:10900000FFF73EF9011E05D1E08BFAF7C7F9011E03
:1090100000D162E70020FFF771FA380005B0F0BD1B
:109020008B43ABE7172BB0D21723AEE71370B5E72E
:1090300042BA00000CBA00000702000073B5042316
:109040006A4600201371507101AA0C00FFF782FAE2
:109050000500012819D105220F4B36331B781A4021
:10906000052A04D002221800104013420FD0052315
:1090700000210A4A0A4823F09BFB06000522611CD6
:1090800025F09AFF300003F0CBFD280076BD432188
:10909000FFF734FAF9E7C0460CBA000014200000CC
:1090A00005110000F0B50F0085B03B491600684679
:1090B0000F221D0025F080FF6A4639000020FFF7CF
:1090C00049FA0400012808D13878212817D81B282C
:1090D00006D80538C3B2042B0AD9200005B0F0BD6C
:1090E0001C380528F9D825F031FF39F8F83C474DF0
:1090F0000428F2D825F034FF1115304232009528AB
:109100003ED003005433DBB2032BE6D8AC3803283F
:10911000E3D825F025FF393B3D3F204803F0D2FD41
:10912000DBE70823290032001D4823F041FB1D49DD
:1091300006223031050025F03FFFFFF71BFB01231E
:109140001840FE33A871EB71280023F055FB002175
:109150000800FFF7D3F9C0E71348DFE742210020FA
:10916000F7E701230021114A114823F021FB1F23B7
:10917000037003F055FDB0E70E48CFE70E48CDE78A
:109180000E48CBE70E48C9E70E48C7E70E48C5E7CB
:109190000E48C3E70E48C1E71C98051801100000EF
:1091A000080D00000CBA000007200000232000007A
:1091B000051100002F2000000F2000004A200000B1
:1091C0002A2000003B2000003A2000004B20000035
:1091D0004C200000F0B585B0002001931B230092C5
:1091E00002AA1371507103AA0C00FFF7B3F905002E
:1091F000012827D1A088C3B2102B02D1FFF712F9A2
:10920000A08002AB9F1D3900200003F047F9061E25
:1092100014D12379092B03D13888FFF7EFF8388070
:109220000623009A0199094823F0C2FA6388038053
:109230003B884380E388838023F0DEFA31000020FE
:10924000FFF75CF9280005B0F0BDC0461C0D00001A
:1092500073B528236A46002613715671012001AAAE
:109260000C00FFF777F90500012809D10548611CBA
:109270001022203025F0A0FE31002800FFF73EF933
:10928000280076BD0CBA000037B529236A460020B5
:109290001371507101AA0C00FFF75CF90500012859
:1092A00022D16088FFF7BEF94021002819D1A0889B
:1092B000C3B2FF2B15D0102B02D1FFF7B3F8A0805B
:1092C00001210C2023F0ACFB638801008380A3798B
:1092D000037223790024C3804472044824F09AFA6C
:1092E00021000020FFF70AF928003EBD18BA00004F
:1092F00073B52A236A4600201371507101AA0C002D
:10930000FFF728F90500012813D16088FFF78AF9D3
:109310003A26041E09D0467A002E0CD101000748D7
:1093200024F0CAFA200023F005FC31000020FFF7EA
:10933000E5F8280076BD4326F7E7C04618BA0000D6
:10934000F7B50C00344904220F3101A825F034FE92
:109350002100002001AAFFF7FDF80500012809D12E
:1093600021782C2908D02D292CD02B294DD12B4800
:1093700003F0A8FC2800FEBD52230021284A2948FA
:1093800023F016FA63784B260370237943706379D0
:109390008370A379C370E3790371237A4371002347
:1093A000617A81710A004B2900D93200934202D3BD
:1093B00003F036FCDEE7E718BF7AC2180133D77135
:1093C000DBB2EFE752230021174A164823F0F0F9E9
:1093D00063784B260370A3784370E3788370237916
:1093E000C370A3790371E37943710023617A8171BA
:1093F0000A004B2900D932009342D9D2E718BF7A2C
:10940000C2180133D771DBB2F2E7084B0022032008
:109410001B689847AEE7C0461C9805181F2000003F
:109420004F200000051100005020000008BF000080
:109430001D4B10B50C00984220D00AD81B4B984207
:109440000CD01B4B984212D01A4B984222D00020CD
:1094500010BD194B984218D0184BF6E7097800292F
:1094600001D07039C9B20120FFF7E2FBEFE70978BC
:10947000002901D07039C9B20220F5E70978002926
:1094800001D07039C9B20320EEE70020FEF728FFB3
:109490000B4B18832178002901D07039C9B2002004
:1094A000FFF72CF8D3E7C0464D2000002420000031
:1094B00031200000142000004F2000005020000048
:1094C0000CBA000010B507200C0023F073FD08282B
:1094D00029D00020FEF7EEFE4121052820D1237877
:1094E000002B22D10020FEF7FBFE0C2301000722F7
:1094F000134823F05DF963780370638883802389C0
:10950000C38023794370E38843810A238370013B3E
:10951000038123F071F92178002901D07039C9B293
:109520000020FEF7EBFF002010BD0022054B1100CC
:109530001B68012098472378002BECD1D2E7C04666
:10954000070D000008BF000070B500200D00FEF7F9
:10955000B1FE4124060007280FD12C78002C12D12F
:109560002000FEF7BDFE012301003200074823F072
:109570001FF96B78037023F03FF921000020FEF7FC
:10958000BDFF002070BD703CE4B2F6E7090D00009D
:1095900010B507200C0023F00DFD082812D0002084
:1095A000FEF79EFE042301000722074823F000F97E
:1095B00063880380A388438023F01EF9002021786C
:1095C000FEF79CFF002010BD1E0D000010B5072007
:1095D0000C0023F0EFFC082816D00020FEF780FED8
:1095E000082301000722094823F0E2F8E38883807A
:1095F0002389C38063880380A388438023F0FCF819
:1096000000202178FEF77AFF002010BD1F0D00001A
:1096100070B5050007200C0023F0CCFC082805D00D
:109620000D4B9D4207D00D4B9D420ED04121002095
:10963000FEF764FF07E02178002901D07039C9B234
:109640000520FFF7F5FA002070BD2178002901D030
:109650007039C9B20420F4E72D2000002E2000004C
:1096600070B502200C00FEF725FE2F281ED163786E
:10967000002B17D12D38FEF733FE402301000722BF
:109680000B4823F095F805002022A11C25F094FC3E
:109690002800210020222030223125F08DFC2800D6
:1096A00023F0AAF802206178FEF728FF002070BDA1
:1096B0002C0D000010B500200C00FEF7FBFDAD28BE
:1096C00013D1207800280CD1FEF70AFE02230100F6
:1096D0000722074823F06CF8064B9B8B038023F08E
:1096E0008BF800202178FEF709FF002010BDC0464E
:1096F000AA0D00000CBA000070B500200C00FEF7A7
:10970000D9FDAC2812D1207800280BD16578FEF75E
:10971000E7FD012301000722054823F049F8057001
:1097200023F06AF800202178FEF7E8FE002070BDE3
:10973000AB0D000070B507200C0023F03BFC08289F
:109740001BD00020FEF7B6FDAE2816D120780028E9
:109750000FD101260225A6576557FEF7C1FD02234A
:1097600001000722064823F023F80670457023F015
:1097700043F800202178FEF7C1FE002070BDC046EE
:10978000AC0D000070B507200C0023F013FC082876
:1097900019D00020FEF78EFDAF2814D120780028C4
:1097A0000DD16688A588FEF79BFD042301000722E2
:1097B000064822F0FDFF0680458023F01DF80020BA
:1097C0002178FEF79BFE002070BDC046AD0D000065
:1097D000087810B50C0000280ED14B88002B0BD058
:1097E000FEF77EFD0223010007220A4822F0E0FF77
:1097F0006388038023F000F80122074B217852424E
:109800001A83002901D07039C9B20020FEF776FE14
:10981000002010BD270D00000CBA00000506071C33
:109820001F20089521ACAD09AEAF002B2C2D0000F8
:1098300070B5050000200C00FEF752FD0223010068
:109840000722044822F0B4FF0570447022F0D4FFD0
:1098500070BDC046920D000037B50D0004221049BE
:1098600001A825F0A9FB2900002001AAFEF772FE3D
:10987000040001280DD12B78912B0CD0922B0CD009
:10988000902B06D10022074B074849331A7003F08A
:1098900019FA20003EBD0548F9E70548F7E7C0463C
:1098A000689B05180CBA0000102000002920000059
:1098B0004920000073B50C0012490222043101A8AE
:1098C00025F07AFB2100002001AAFEF743FE0500E7
:1098D000012815D122780021223A53425A410A4BDD
:1098E0000A48D218072322F063FF0600E379062214
:1098F0000370611C013025F05FFB300003F090F92C
:10990000280076BD689B05182B200000051100007B
:10991000F8B5060000200C00FEF7CCFC0300703305
:10992000DBB24121022B06D82178002908D07039FA
:10993000C9B2002904D00020FEF7E0FD0020F8BDE8
:109940003E4B3F4A9E4204D1110049310B7801330E
:109950000B7015686C7891281AD13A4B9E4217D13A
:1099600008230021384A394822F022FF2821060026
:1099700061436F183B7A0231037006226918013087
:1099800025F01AFB7B7A3000F37103F049F9D5E733
:10999000211ED0D02B78013CE4B2912B1CD0922B0D
:1099A00039D0902B14D10021244A893B274822F03A
:1099B000FFFE072106224C432B191B7A02340600B6
:1099C00003702919013025F0F7FA300003F028F967
:1099D0006B78013B6B70B1E727230021194A1B48C4
:1099E00022F0E6FE28214C432B191B7AA11C06000D
:1099F000037006226918013025F0DEFA21000A31D1
:109A000010226918F01D25F0D7FA30001A34102200
:109A100017302919D7E7082300210D4A0B4822F0F7
:109A2000C7FEE400A71C2C19237AEF190370637A90
:109A30000600C371062239000130C4E7112000007E
:109A40000CBA0000272000004E2000000511000085
:109A50004720000010B507200C0023F0ABFA0828BF
:109A600013D00020FEF726FC412108280AD12378D4
:109A7000002B02D16178FFF7DBFE2178002901D0AD
:109A80007039C9B20020FEF739FD002010BD10B5B5
:109A900007200C0023F08EFA082813D00020FEF7D0
:109AA00009FC412121280AD12378002B02D16178B9
:109AB000FFF7BEFE2178002901D07039C9B200201D
:109AC000FEF71CFD002010BD10B507200C0023F090
:109AD00071FA082813D00020FEF7ECFB41219528ED
:109AE0000AD12378002B02D16178FFF7A1FE2178FB
:109AF000002901D07039C9B20020FEF7FFFC002018
:109B000010BD000070B507200C0023F053FA0828A0
:109B100026D00020FEF7CEFB0300223BDBB206007E
:109B20004121012B19D82078002811D1FEF7D8FB4C
:109B30000823010007220B4822F03AFE05000670B8
:109B400006220130611C25F037FA280022F054FE6D
:109B50002178002901D07039C9B20020FEF7CEFC6F
:109B6000002070BD220D0000909192002223000081
:109B700070B50400072023F01DFA082826D0002025
:109B8000FEF798FB172821D1114B47211E687378E7
:109B9000A34218D90020FEF7A3FB162301000722D9
:109BA0000C4822F005FE05000622B11C25F004FA3F
:109BB0002101083171181022A81D25F0FDF9280097
:109BC00022F01AFE00210020FEF798FC70BDC0466E
:109BD0000CBA0000150D000070B507200D0023F031
:109BE000E9F9082819D00020FEF764FB1A2815D1DE
:109BF0000020FEF775FB0823010007220B4822F026
:109C0000D7FD04002900082225F0D6F9200022F013
:109C1000F3FD00210800FEF771FC70BD0022044B2B
:109C2000110001201B689847F7E7C0461A0D000095
:109C300008BF000070B507200D0023F0BBF908280D
:109C400019D00020FEF736FB192815D10020FEF7A9
:109C500047FB1023010007220B4822F0A9FD040056
:109C60002900102225F0A8F9200022F0C5FD0021CE
:109C70000800FEF743FC70BD0022044B11000120D8
:109C80001B689847F7E7C046180D000008BF0000A2
:109C9000F0B5040089B007200D00039223F08AF983
:109CA000082829D00020FEF705FB182848D1002CF1
:109CB00042D1274B1E68039B771C002B1ED1032229
:109CC0002900380025F078F93F22F37803991340F2
:109CD000327904A81343F370102225F089F9032286
:109CE000390004A825F068F9FEF774FD0122194B2C
:109CF000009204A923F03BFF09B0F0BD2000FEF75D
:109D0000EFFA082301000722134822F051FD060054
:109D100003223900033025F04FF9290003223000D7
:109D200025F04AF901233000B37122F065FD2100CE
:109D30000020FEF7E3FBDFE721007039C9B2F7E747
:109D40000022064B110001201B689847D4E7C0464B
:109D50000CBA0000919C0518080D000008BF000017
:109D60007FB517236A46002613735673300003AA83
:109D70000C00FEF7EFFB050001280BD16078B04224
:109D800004D03F22E3799343402B06D040210020AA
:109D9000FEF7B4FB280004B070BD2100034BA21CE9
:109DA0000831009624F0D0F8F4E7C046719B0518FE
:109DB00073B518236A46002513715571280001AA4E
:109DC0000E00FEF7C7FB040001280AD13379C02B2F
:109DD00003D040218B43AB4205D10021044823F03E
:109DE000DBFE200076BD2800FEF788FBF9E7C046C1
:109DF000919C05187FB50C0003221249060003A8A8
:109E000025F0DAF82100002003AAFEF7A3FB0500E5
:109E1000012805D10C4B9E4205D00C4B9E420CD024
:109E2000280004B070BD210000232A0000931131E6
:109E3000074B601C23F09BFEF2E70021054823F04E
:109E4000ABFEEDE7589F0518170D0000190D000037
:109E5000359C0518D99B0518F7B52E236A460027AF
:109E600013715771022001AA0C00FEF773FB060064
:109E7000012817D1412339000B4A0C4822F098FCE5
:109E800005002022611C25F097F8280021002022DF
:109E90002030213125F090F82B00403328001F702E
:109EA00002F0BEFE3000FEBD5E2000000511000085
:109EB00013B52F236A46137100230220537101AAA0
:109EC000FEF748FB0400012802D1024802F0FAFE26
:109ED000200016BD2520000070B507200D0023F0DE
:109EE00069F808281CD00220FEF7E4F92E2817D1C3
:109EF0006C78002C16D12C38FEF7F2F920230100E3
:109F000007220A4822F054FC06002022A91C25F052
:109F100053F8300022F070FC21000220FEF7EEFA28
:109F2000002070BD703CE4B2F6E7C0462A0D000088
:109F300010B507200C0023F03DF808280AD00220B5
:109F4000FEF7B8F92E2805D12178002902D02C3847
:109F5000FEF7D4FA002010BD191A000030B5030036
:109F6000084A0948127804689A4201DC002030BD92
:109F700098002058002802D0C57B8D42F7D00133CD
:109F8000F2E7C046B5BE000008BA000070B50C4E3E
:109F9000850033685C59002C08D0637B012B09D104
:109FA000200001F0E3F9200022F0C4FD0022336814
:109FB0005A5170BD032BF6D1200001F0F5FEF2E7F7
:109FC00008BA000070B504000E001500818A07224F
:109FD0000423064822F0ECFB637B4370237B8670EE
:109FE000C570037022F008FC70BDC046A50D0000CE
:109FF00010B502281AD1002403E0E0B2FFF7C6FF33
:10A000000134104B1B78A342F7DC0F4B00221900E0
:10A010000831CA87190048310A80190041310A7095
:10A02000191D013A4433CA871A7010BD0128ECD1BA
:10A03000044B00211A78054B9200186824F0D8FFD1
:10A04000E3E7C046B5BE00000CBA000008BA000045
:10A0500070B50E0005000021300022F0E1FC041E66
:10A060000AD03200002124F0C3FF0023E373034B26
:10A0700025731B68AD00EC50200070BD08BA0000CD
:10A0800030B504000F4805784320A54214D90E4886
:10A09000A400006824584320002C0DD0607B087079
:10A0A000A17B1170607B002804D0032805D0012219
:10A0B000524203E0227B1A8030BDE28C00201A80DD
:10A0C000FAE7C046B5BE000008BA000010B501248A
:10A0D000002802D1FEF74EFB0440FEF74BFB43077E
:10A0E00001D502231C43200010BD000070B50600FE
:10A0F00001200D00FEF7DEF8002801D1002070BD20
:10A10000114C230044331A78104B1B789A4205D324
:10A1100000220F4B110001201B68984744340D4A60
:10A12000237812689B009C58002C05D1084B220014
:10A13000210001201B6898473460638AAB42DDD15F
:10A14000002301206382DAE70CBA0000B5BE0000EC
:10A1500008BF000008BA000070B504000D1E26D12B
:10A160000722818A0323144822F022FB637B437079
:10A17000237B037022F040FB627B104B032A07D045
:10A180001A000121383212780A40617C0A430AD150
:10A1900046331A7801321A700123E3732900012033
:10A1A000FEF7ACF902E0200002F060F870BD007B21
:10A1B000FFF7ECFEF2E7C046A40D00000CBA000069
:10A1C00070B5040001200D00FEF798F9002D0AD1AA
:10A1D000E37B022B06D1054B47331A7801321A7004
:10A1E0000323E37370BD0123FBE7C0460CBA0000F4
:10A1F00070B5040045290AD1C2681C4B1340802267
:10A200009202934203D10022FFF7DCFE70BD0122CF
:10A210002000FFF7D7FE164D47352B78013B2B70FA
:10A22000E37B042B08D10120FEF744F8A52806D1D2
:10A2300000210120FEF762F90123E373E6E7A62877
:10A24000FAD12B78002BF3D0207B03210130C0B250
:10A25000FFF784FE00220500064B110001201B6859
:10A26000984728006B689847E6E7C04600FFFF0064
:10A270000CBA000008BF000070B504000120FEF712
:10A2800019F8124A46321378013BDBB21370A72843
:10A2900007D100210120FEF731F9207BFFF776FE80
:10A2A00070BDA828F9D1002BF3D0207B012101300B
:10A2B000C0B2FFF753FE00220500054B110001203C
:10A2C0001B6898472800AB689847E6E70CBA00007F
:10A2D00008BF000010B5064B002146331A78013242
:10A2E0001A700123C3731800FEF708F910BDC046A9
:10A2F0000CBA0000F7B50C0005222749684624F087
:10A300005BFE6A4621000120FEF724F905000128C2
:10A3100032D16378022B3DD80020204B204F1B7890
:10A320003A68984204DB4B210120FEF7E7F823E06E
:10A3300086009159002909D1C3B22078A03803289A
:10A340000BD8210024F00CFE041A221E0130E8E78D
:10A35000180000F0D5FA011EE6D16378002B0BD16E
:10A36000104B38331B78DB0706D53B68062298591B
:10A370000D49163024F020FE2800FEBD180001F023
:10A3800007F8E8E7180001F0EFFCE4E7180001F037
:10A3900019FAE0E74021C7E778A50518B5BE000027
:10A3A00008BA00000CBA00003CBA000073B5A42340
:10A3B0006A46137100230120537101AA0E00FEF7B3
:10A3C000C9F8050001281CD1144A737812789A4202
:10A3D0001FD9134A9B0012689C58002C1BD0E37BAA
:10A3E000032B10D10F4BE2681A4214D13100200028
:10A3F00023689847011E04D00123E3730120FEF770
:10A400007DF8280076BD4321012BF7D10133E3739A
:10A41000ECE74021F2E74321F0E7C046B5BE00007B
:10A4200008BA000000FFFF0037B50C001A490322EC
:10A43000053101A824F0C0FD2100012001AAFEF78A
:10A4400089F80500012815D12378A52B14D1134ACA
:10A45000637812789A4217D9114A9B00126898586B
:10A46000002816D0C37B4321032B0ED10423C373D2
:10A470004368984728003EBD03210020FFF76EFD8A
:10A480000028F3D1010000E040210120FEF736F85A
:10A49000F0E74321F9E7C04678A50518B5BE0000EE
:10A4A00008BA000037B50C0023490322083101A87F
:10A4B00024F082FD2100012001AAFEF74BF80500DF
:10A4C000012816D12378A72B15D11C4A637812785E
:10A4D0009A4227D91A4A9B0012689C58002C26D011
:10A4E000E37B4321012B1ED105232000E373A368E6
:10A4F000984728003EBD134B1A00463211780029B8
:10A5000011D047331878002813D12900FFF726FD12
:10A51000041EE9D10C4B020001001B68280098477B
:10A52000E473FFDE40210120FDF7E8FFE1E72100B1
:10A53000F9E74321F7E7C04678A50518B5BE000046
:10A5400008BA00000CBA000008BF000070B5050092
:10A5500007200C0022F02EFD08280BD06378002B7A
:10A5600008D121002800FDF7E3FE2379002B01D15B
:10A5700001F066F9002070BDA0A1A3A200A5A6006D
:10A58000A7A8000070B5074D04002A000021012390
:10A59000054822F00DF9237B037002F041FB658230
:10A5A00070BDC0463C20000005110000002310B51E
:10A5B000C377034B027B44331A70FFF7E3FF10BDF0
:10A5C0000CBA000070B50C0005000823104A0021E9
:10A5D000104822F0EDF823005A1E93410370012326
:10A5E00043702B7B8370002C0CD0AA7F6388022AD7
:10A5F00005D109491A1C8B4200D90A1C93B28380E9
:10A600002379837102F00CFB014B6B8270BDC04655
:10A6100039200000051100005046000070B5812669
:10A62000B60104000D00320000210223044822F08C
:10A63000BFF80570237B437002F0F2FA668270BDAA
:10A64000051100000022094B017B443310B5C2778D
:10A650001970047C4023210019401C4203D01100D2
:10A66000FFF7B0FF10BDFFF7D9FFFBE70CBA000002
:10A67000F0B585B004000B780191002A13D0019A3F
:10A68000818B528891420ED1027CA92B05D1A53B2A
:10A6900000201343237405B0F0BDAA2B01D1A23BC7
:10A6A000F6E71023F4E7AA2B62D0AB2B00D1B4E07D
:10A6B0000120A92BEFD1019B5E88F82E3AD8A37F09
:10A6C0000025032B00D003350323F6B20293B3B267
:10A6D0000393731904330021694A6A4822F068F829
:10A6E000237B07000370029B437000238370731960
:10A6F000C370002D0AD002230371013B4371033361
:10A700008371A37F012B2ED0022B2FD0A18B019B15
:10A71000281D043159183200381824F04DFC380037
:10A7200002F07EFA564B039A6382A38BD318A3835D
:10A730000120B0E7A58B002D07D1A37FFB26029057
:10A74000032BC4D0F8260325C1E7761BB6B2FB2E37
:10A7500004D802230025F6B20293B8E70023FB26B3
:10A760001D000293B3E70623BB71CFE70523FBE788
:10A77000237C00259B0700D40335FB26019B721B1D
:10A780005B8893422FDCDEB203230293B3B20393C0
:10A79000AB19043300213C4A3A4822F009F8237BE4
:10A7A00007000370029B4370002383707319C3700A
:10A7B000002D0AD002230371013B437103338371DF
:10A7C000A37F012B24D0022B25D0A18B019B281D18
:10A7D000043159183200381824F0EEFB380002F02A
:10A7E0001FFA294B9FE7A28B002A05D10526764246
:10A7F000761B0123F6B2C8E79B1A9BB2FB2B04D849
:10A80000DEB2022300250293C0E700250295BDE7D2
:10A810000623BB71D9E70523FBE7019B5D88FC2D6F
:10A820001ED80327EDB2EB1C0021184ADBB21548F5
:10A8300021F0BEFF0600237B857003704770A18B5B
:10A84000019B04312A005918033024F0B5FB300075
:10A8500002F0E6F90D4B6382A38B5D19A58367E7D0
:10A86000A38B002B06D0ED1AADB2FC2D05D8022724
:10A87000EDB2D8E70127FC25D5E70027FBE7C04666
:10A880003720000005110000382000003F200000A4
:10A890000622F8B5037C1A40022A01D14320F8BDF4
:10A8A000827BDC0703D5002A05D01C07F6D5022AD7
:10A8B00001D1DA06F2D5821CD47F0F4AE4070DD508
:10A8C0001500160037352F780C4D483634782D7822
:10A8D0003F19023DAF42E1DA013434700024C477FD
:10A8E000047B44321470C27B032A01D15B06D5D4A9
:10A8F000FFF768FE0020D2E70CBA0000B5BE0000EA
:10A90000F7B5894E0190320033004132403312785E
:10A910001B780C0043209A4212D0CB8801221D00E4
:10A92000154013420DD03200373211787F4A127829
:10A93000023A914204D00A216279032A03D94020C5
:10A94000FEBD0221F8E7002A02D0032A00D00A2126
:10A950003000363000780840844642206145EFD10F
:10A9600021798C460229EAD80421180008400B42BC
:10A9700003D0002AE3D19907E1D467461021002FC4
:10A980001CD11943E18060210B42D8D1002D05D0A4
:10A990005E39194000280ED10029D0D005210B4086
:10A9A000042BCCD0637A032BC9D8013A012A1CD8D6
:10A9B000002B1AD0C3E70029F0D0C0E71800884365
:10A9C000E0801907BBD46146012F0BD10231194039
:10A9D0000329B4D09B06E5D5531E012BAFD900291E
:10A9E000E0D0ACE723221342A9D1FDF7C3FE430711
:10A9F0002ED424210198FFF72BFB05004B20002DBE
:10AA00009ED000236B731F0023794A38AB736378A1
:10AA100044366B74FDF764FCA8820120EF776379FC
:10AA2000A91CAB77E288CB7F834310400343CB77ED
:10AA30003F4B2B603F4B6B603F4BAB60019B3370D8
:10AA4000AB7BBB420CD1530762D593070ED509E00F
:10AA5000E388DB07CDD563784920022BC9D16FE7A6
:10AA6000930755D501232A7C13432B741A23334AA9
:10AA70000021334821F09CFE7F222B7B06000370CF
:10AA8000E38813404380636903711A0A1B0C427107
:10AA90008371A369C3711A0A1B0C02724372237F6C
:10AAA0008372637F4375AB7B002B08D0631CDB7F15
:10AAB0008375A31CDB7FC375E31CDB7F0376687C97
:10AAC000FFF704FB0427F072E3883B4225D0210006
:10AAD0003000237C062233730A310D3024F06CFAE7
:10AAE000637AF374237A3375E288802311005B0064
:10AAF00019401A4216D0FF3B73762A7C1F3313434A
:10AB00002B74300002F08CF80C4B00206B8217E79E
:10AB10000223297C0B432B7497E7FDF72BFE384269
:10AB2000D5D1DDE77176ECE70CBA0000B5BE0000C8
:10AB300091A8051845A60518ADA5051836200000F2
:10AB400005110000F0B50D008FB004224B4905A897
:10AB500024F032FA2900012005AAFDF7FBFC019040
:10AB6000012800D082E06B780093454B009A1B7857
:10AB7000934200D87FE0434B92001B68D458002CCE
:10AB800000D176E0637B002B00D072E00222E37BF1
:10AB900043219343012B3DD12B78A92B30D1207C2D
:10ABA000024237D06988A67F0A00207C032E07D096
:10ABB000A92B03D0AA2B03D1800701D4CA1C92B2BF
:10ABC0003148808B904256D3A07B002801D11F2AA8
:10ABD00051D85733DBB2012B3ED806AF2E1D731868
:10ABE000202200213800029324F002FA02233B7055
:10ABF000013B9C46029BB34210D82DD04A2109E06C
:10AC0000AA2B02D1227C0198CAE7AB2BCAD1A27B26
:10AC1000022AC7D00120FDF771FC27E07378092BC9
:10AC200012D8002B14D00720D9087A5C03401000FA
:10AC30000393D84063461842E0D16046039B984096
:10AC4000030013437B5403E01A00173A052AEAD99C
:10AC500033780133F618CDE700220B4B00994433CB
:10AC6000A283200019702900FFF702FD01980FB0A0
:10AC7000F0BD4321CEE74021CCE7C046B4AF051874
:10AC8000B5BE000008BA00000CBA000073B505009C
:10AC90000E00010001A8FFF729FA002830D0019C1E
:10ACA000E07B052800D9E6E024F05AF9034659462E
:10ACB000AEDC744B9D4230D03378002B22D1E37749
:10ACC000714B9D4229D1714B72785D68631CDA77B4
:10ACD000A37B022B21D1063300216D4A6D4821F060
:10ACE00067FD237B0370AB8C4380EB8C8380EB8808
:10ACF0001B0601D50623C38001F092FF644B6382DB
:10AD0000002076BD703BDBB2E377002BD8D0604BE0
:10AD10009D4202D12000FFF735FC638A002BEFD162
:10AD2000E17F002904D1594B41331A7801321A705E
:10AD30002000FFF711FAE3E73178002903D07039DA
:10AD4000C9B2002907D1514B012259682000FFF7F1
:10AD50008FFC011ED4D10120FDF7D0FBD0E74E4A75
:10AD6000954207D1E37F002B04D04022237C9343FC
:10AD7000237409E03378002B24D1E37795422FD058
:10AD800081239B019D423AD0638A002BB8D1A31C3A
:10AD9000DB7FDB0711D5E37F002B0ED03B4D2B0073
:10ADA00048331978002904D13C4B0A0003201B6862
:10ADB000984748352B78013B2B702000E17FFFF747
:10ADC000FFF99DE7703BDBB2E377002BD6D0812300
:10ADD0009B019D42D8D100212000FFF7F3FBD3E770
:10ADE0004023227C1343A27B2374022ACCD15BB282
:10ADF000002BC9DB01212000FFF710FCC4E78023F2
:10AE0000227C5B421343B3E7234A237C954225D13E
:10AE1000402293432374A37B022B03D10021200003
:10AE2000FFF7FCFB638A002B00D069E7A31CDB7FE4
:10AE3000DB070ED5154D2B0048331978002904D1B6
:10AE4000164B0A0003201B68984748352B78013BB6
:10AE50002B7000212000FFF7CBF951E77F22134030
:10AE60002374DFE7094B200041331A78013A1A7046
:10AE7000FFF702FA44E70022084B110001201B688B
:10AE800098473DE73C200000362000000CBA000047
:10AE90003E200000051100003920000008BF00001E
:10AEA00070B5154A4B7812780C009A4222D9134A91
:10AEB0009B0012689E58002E1CD0F268104B134065
:10AEC000C0229204934215D1337C9B0612D50823ED
:10AED0000722B18A0B4821F06BFC0500337B062268
:10AEE0000370A37801308371E11C24F065F8280019
:10AEF00021F082FC002070BDB5BE000008BA000041
:10AF000000FF00FFA80D000070B5254A8B7812786D
:10AF10000E009A423ED9234A9B0012689C58002C8E
:10AF200038D0E268204B1340C0229204934231D1C2
:10AF30004022237C934323744D783C2D2CD0432D09
:10AF40002AD0002D2AD1637C002B0CD0FDF712FCF7
:10AF5000430708D4B088F8F7A9FCFF2803D02100E4
:10AF60001631F8F7E7FCA31CDB7FDB070ED50F4E8D
:10AF7000330048331978002904D10D4B0A0003200F
:10AF80001B68984748363378013B3370290020000E
:10AF9000FFF72EF9002070BD4525E4E70025E2E724
:10AFA000B5BE000008BA000000FF00FF0CBA0000A8
:10AFB00008BF0000A9AAAB0010B5FFF75DF910BDEE
:10AFC000124B70B5124A5E6804000D000623002182
:10AFD000104821F0EDFB05703379B21C4370A37B60
:10AFE000012B09D18023DB0043800023838001F003
:10AFF00017FE074B638270BD002B03D18022D20065
:10B000004280F3E793894380D389EFE70CBA0000CD
:10B01000422000000511000010B5044B027B4433B0
:10B0200000211A70FFF7CCFF10BDC0460CBA00001B
:10B03000314B70B51A004232127805004320FF2AC6
:10B040004FD18A788E1C0338052A4AD8B178022954
:10B0500047D8AA737278920603D40122297C0A4346
:10B060002A7419002A7B443142330A701A70002175
:10B070001023224A224821F09BFB0400687CFFF742
:10B0800025F80023FD2220706370AB7B033B134245
:10B0900001D1012363706A7C7378012A05D1DA0635
:10B0A00003D5022261780A4362700121180008402A
:10B0B0000B4217D1A0709A070DD50421A2781B0767
:10B0C000114306224243A1703189A218D1807189AF
:10B0D000DB0F11811371200001F0A2FD0020074B4E
:10B0E0006B8270BDA170B288E280F28822819A10D2
:10B0F00011402171DFE7C0460CBA0000412000007A
:10B100000511000010B5041E05D110BD200022F06D
:10B11000C9FB21F00FFD2368002BF7D1F5E70000F4
:10B12000F0B589B005930D0016000B1E009000D0FD
:10B130000B8AF27D8B489B189BB2009A02931A33BC
:10B14000918A9BB2072221F033FB00240700A5421D
:10B1500048D1200031001A301831F27D381823F020
:10B160002BFF029B3B83009B997B01294BD83388A3
:10B1700008221C001440134200D18AE0DA0603D4EE
:10B180001222134200D084E0009B0433DC6F002CB9
:10B1900012D00025F31C0193B37802930199062283
:10B1A000200023F0FBFE011E03D1A379029A9342F3
:10B1B00023D007340A2D1DD138000C3821F04EFB66
:10B1C00009B0F0BD280022F06DFB01900279411D0D
:10B1D000039823F0F1FE019B187924181800A4B2FB
:10B1E00021F0A8FC23001A33FB1803932B68002BD3
:10B1F000E8D1AEE70135EDB2D0E70A2DDCD006226A
:10B20000200023F0F5FE33881A0700D49EE0DA060A
:10B21000D20F02327A70DA0703D5102279780A4306
:10B220007A709A0703D5202279780A437A705B07EF
:10B2300003D540237A7813437B70059B002B03D002
:10B2400008237A7813437B70009B1B7B3B70737BD6
:10B250007B74337B3B74737ABB74B37AFB74F37A7D
:10B260003B75F389FB82B378FF2B72D13B72338835
:10B270005B070AD5012231003800337C11311340BD
:10B28000FB730532093023F097FE380021F0B4FA41
:10B2900096E76B4638001A7A00231A309A4200D893
:10B2A0008AE7C518AC466D78012D0AD163469B78B4
:10B2B0002B420BD19B0700D17EE7002900D07BE712
:10B2C00006E0C55C01355B19DBB2E7E70129F1D186
:10B2D000002C98D1B3780622234906A8029323F0C4
:10B2E0006BFE009B1D1DEB6F002B08D10221462039
:10B2F00021F096FB46222100E86723F079FE002426
:10B30000EB6F0393E3B20493072363430193019A22
:10B31000039B06A99D182800062223F03FFE002863
:10B3200003D001340B2CEDD16DE7049B0A2B00D127
:10B3300069E706222800F11C23F03EFE009B019ADB
:10B340000433DB6F9B18029A9A715CE7DA06D20F1E
:10B3500060E7012213403B72B81CF11C053223F058
:10B360002BFE84E7A70D0000C8B50518031D70B5B6
:10B370000400D86F002801D021F0DCFB25008034C8
:10B380001C3528001435FFF7BDFEA542F9D170BD6C
:10B3900070B5164B040036331B780D00DA0704D461
:10B3A00005221A404323052A1ED1687800F040FF89
:10B3B0004023002818D020008421FEF749FE4B23AB
:10B3C000041E11D0012060736B786374FCF788FF52
:10B3D000074BA0822360074B00216360064B2000CF
:10B3E000A360FEF7B9FE0023180070BD0CBA000080
:10B3F00031B0051819B00518B9AF051837B50400F4
:10B400000D00010001A8FEF771FE002805D001988B
:10B41000C37B022B03D0042B1BD000203EBD297818
:10B42000002903D07039C9B200290DD10D4B9C42BF
:10B4300003D10121FFF7C4FDEFE70B4B00219C4234
:10B44000EBD1FEF7BDFEE8E7FF22084B42331A704E
:10B45000F7E7FF22054B002142331A70FEF7C8FEC2
:10B46000DBE7C04641200000422000000CBA00008B
:10B47000F0B5484B87B0059142331B78FF2B0BD0BA
:10B48000454A9B0012688D1C9F5800230193059B21
:10B49000019A5B78934202DC002007B0F0BD2B8854
:10B4A0000493BB7B032B02D9049BDB0727D5EB1C42
:10B4B00002933B001C331E00002403933368002BCF
:10B4C0000BD0B27BAB789A4207D1300006220299AA
:10B4D000083023F063FD002816D014341436642C91
:10B4E000ECD10024049B03215A11032313400A4288
:10B4F0000DD101232A0021003800FFF711FE019B26
:10B50000FE3501330193C2E71C343C19EAE7022BF4
:10B5100004D13B7CDB0724D50023EBE7012BEED1E4
:10B52000002C17D1133318006043039A1258049269
:10B53000002A1AD13E1833000400AA782A33243096
:10B540001A7002990622381823F036FD049B1C3429
:10B550003C19B385E87D0221083021F061FA061E0E
:10B5600007D12000FFF7CEFDC9E70134052CDAD161
:10B57000C5E72900EA7D18313271701D23F01CFDEA
:10B580003100200022F046F9EB7D228A9B182382AD
:10B59000B5E7C0460CBA000008BA000010B5084B69
:10B5A00042331A78FF2A08D0064992000968505899
:10B5B000FF2245211A70FEF71BFE002010BDC04679
:10B5C0000CBA000008BA000000000000000010B52E
:10B5D000FEF752FE10BD000070B5837B0400012B06
:10B5E00003D10721064821F041F8064D064B227B86
:10B5F000280044331A7001F065FB658270BDC046B7
:10B60000F20D00000E2000000CBA000070B53A23C5
:10B610000600304A0C003048002121F0C9F805002E
:10B62000707CFEF753FD6870B37B012B4FD0002375
:10B630002B702300210036331B780622AB70E81CE8
:10B64000303123F0B9FC0723012261780B406B7283
:10B650000023114210D0A3886B81E388AB81A389BA
:10B66000EB81E3892B82A38AEB82E38A2B83238AF3
:10B670006B82638AAB8213008A070ED5208B1A0176
:10B68000AA18D081608B01331082208CD082608C0C
:10B690001083A08B5082E08B90824A0711D52289BB
:10B6A0001B01EB185A8162899A81A28CDA81E28CA3
:10B6B0001A82A28DDA82E28D1A83228D5A82628DDD
:10B6C0009A82280001F0ACFA024B738270BD2B7095
:10B6D000B9E7C046432000000511000070B5254CB5
:10B6E0000500230043331B784320FF2B40D1230068
:10B6F00037331A78230048331B78D2181E4B1B7837
:10B70000023B9A4234DA8B788E1C0338022B2FD8F6
:10B7100038310A78012A2BD82A0000215532AB7320
:10B720001170012B14D12800382231001C3023F075
:10B7300043FC230049331A782B0054331A70738862
:10B74000002B05D00A2207215A430C4820F0F4FEB2
:10B7500022002B7B44321370220043321370483492
:10B7600023782800013331002370FFF74FFF0020BA
:10B7700070BDC0460CBA0000B5BE0000F20D00005E
:10B78000F8B50E4C16002300FF2243331A70230035
:10B7900048330F0019780500002904D1084B0A002E
:10B7A00003201B68984748342378013B2370002FFF
:10B7B00003D031002800FEF71BFDF8BD0CBA0000D5
:10B7C00008BF000070B51A4B040036331A78052301
:10B7D0000D001A403E33052A27D1487800F028FD95
:10B7E0004023002821D0FCF7C5FF430703D56A7822
:10B7F0004923022A19D020005821FEF729FC4B23A7
:10B80000041E12D0493B43736B7843740120FCF74C
:10B8100067FD084BA0822360074B00216360074B44
:10B820002000A360FEF798FC0023180070BDC046FE
:10B830000CBA0000DDB60518D9B50518CFB5051846
:10B8400070B52A4B2A4A43331B7812689B009C58D8
:10B850000500002C05D1274B2200210001201B6888
:10B860009847FF2D3AD0637C002B08D0FCF782FF6D
:10B87000430704D4210028001631F8F75BF8A67BB3
:10B88000012E11D0022E03D0002E27D0002070BD33
:10B8900029020825012307222943174820F088FFA1
:10B8A000067020F0A9FFF1E725005435297800291A
:10B8B00004D1104B0A0030001B6898472B78013BDD
:10B8C000DBB22B70002B05D0210020001C31FFF7CC
:10B8D0009DFEDBE70721094820F0C8FE200000227A
:10B8E0000121FFF74DFF0120D1E7C0460CBA00004F
:10B8F00008BA000008BF0000050E0000F20D0000AD
:10B9000070B50C4B43331D78FF2D11D00A4BAA00A4
:10B910001B680A48D45807220223110020F048FF70
:10B92000A5234570037020F067FF4523553423702D
:10B93000002070BD0CBA000008BA0000A20D000083
:10B9400070B50C001900154B43331A78FF2A13D039
:10B95000134B92001B68D058050055352B78002BEF
:10B9600005D16278002A01D0703AD2B22A702378C9
:10B97000012B03D0022B06D0002070BD19002A78BD
:10B98000FFF7FEFEF8E70722064820F011FF01232B
:10B9900003701233437020F02FFFEDE70CBA000064
:10B9A00008BA0000040E000070B5174A0D004332BB
:10B9B0001278FF2A26D01E0A8B8814499200096843
:10B9C000083352589BB2918A1148072220F0F0FEAA
:10B9D000012104003000F7F7BFFF0622010020001C
:10B9E00023F0EAFA01213000F7F7B6FF837920004F
:10B9F000A3712A790830E271A91D23F0DDFA200035
:10BA000020F0FAFE002070BD0CBA000008BA000059
:10BA1000120D000037B50C00010001A8FEF766FB0F
:10BA200000281ED0019DEB7B032B1CD0042B2BD0B8
:10BA3000022B16D12478002C0FD0703CE4B2002CDD
:10BA40000BD0AB7B012B03D10721114820F00EFE58
:10BA5000220000212800FFF793FE21002800FEF7B6
:10BA6000AFFB00203EBD2478002CFAD0703CE4B23D
:10BA7000002CF6D00721064820F0F8FD2200012115
:10BA80002800FFF77DFEECE72B0055331A78F6E728
:10BA9000F20D0000F7B502001748184B00781B683C
:10BAA0008000C0180190F020000101278446144D49
:10BAB000144E0198834201D100201BE01868002831
:10BAC0000CD0C4682C40B44208D1047C3C40624590
:10BAD00006D0002C02D0C48C94420BD00433E8E78B
:10BAE000002CFBD1847B022CF8D10400283424786C
:10BAF0008C42F3D1FEBDC046B5BE000008BA0000BE
:10BB000000FF00FF0003000310B5FEF7B5FB10BDFA
:10BB1000F0B585B01C000AAB1B880D4F02930BAB30
:10BB20001B780E00150000213A000190039309488C
:10BB30000A2320F03DFE029B0680C380039B857094
:10BB40000372848001F06CF8019B5F8205B0F0BD48
:10BB50005C20000005110000F7B50192838C0F7A7C
:10BB60000500FF18BFB23B001A330E009BB2818A5A
:10BB700007221A4820F01CFE2B7B07830370737981
:10BB80000400437433790374019B002B13D10433F5
:10BB900031006370A88C27001A30327A20180931DE
:10BBA00023F00AFA1A37EB69002B06D1AB84200088
:10BBB00020F022FEF7BD0C23EAE728001C3021F01C
:10BBC00071FE01000600027D1531380023F0F4F902
:10BBD000337D3000FF1820F041FEE4E7A70D0000A0
:10BBE000F0B51F4D027B2B0044331A70037C0126F5
:10BBF0001F00040085B0374033420FD0194DB343C6
:10BC000003742A0002230021174820F0D1FDE38CA1
:10BC1000038001F005F8658205B0F0BD837B022B3F
:10BC200015D10300283303931878F7F75BFE0A2336
:10BC3000010000933A003B0020000197FFF768FFE6
:10BC4000039B1B789E406B69B3436B61E4E7074E2F
:10BC50004535300001F036F8FF2366822B70DBE7B4
:10BC60000CBA00004620000005110000452000002D
:10BC7000F0B58F7904000D0085B08E1C012F31D9ED
:10BC80004020022F35D17079F7F72CFE324B01009E
:10BC900098422DD0314B5A6901230392727903984F
:10BCA0009C46D040184223D13079A0732000283020
:10BCB00002702A48237B44300370604690400200A3
:10BCC000039B1A43254B5A61B37B002B00D0674678
:10BCD0006A7C20000192AA886B8800923A00FFF7E4
:10BCE00017FF33E01D4B1A0045321178FF2902D0AF
:10BCF000432005B0F0BD017B443387731970117088
:10BD000010230021164A174820F052FD002303702B
:10BD1000A37B0700002B1BD129000622033008312A
:10BD200023F04AF9337BBB70737B7B70B37B002BB2
:10BD300003D002233A7813433B706B8838007B8131
:10BD40007388BB8100F06CFF054B63820020D0E755
:10BD500001230370EAE7C046FFFF00000CBA0000B1
:10BD6000442000000511000010B52C21FEF770F9E9
:10BD700004004B20002C10D003234A386373FCF7D7
:10BD8000AFFA064BA0822360054B20006360054B91
:10BD90000021A360FEF7E0F9002010BD71BC05187A
:10BDA000E1BB051809BB051810B50400E369002BB9
:10BDB00001D1A38410BD20001C3021F073FD20F0C0
:10BDC0004DFDF3E7F7B5B0236A46002713715771AD
:10BDD000012001AA0C00FCF7BDFB0500012824D1BD
:10BDE000164A637812789A4221D9154A9B00126844
:10BDF0009E58BE4220D0F268124B43211340124A93
:10BE0000934215D1337C034212D0104A04233900E7
:10BE10000F4820F0CDFCF38C0380A378837000F0F2
:10BE2000FFFE0C4B627844331A702800FEBD40219F
:10BE30000120FCF763FBF8E74321F9E7B5BE0000FA
:10BE400008BA000000FF00FF0003000359200000B3
:10BE5000051100000CBA000013B50C00010001A888
:10BE6000FEF744F9002805D00198C37B022B03D0CC
:10BE7000042B09D0002016BD2178002901D070398B
:10BE8000C9B2FEF79DF9F5E70021FEF7B1F9F1E738
:10BE900010B501200C00FCF70DFAB02807D121786D
:10BEA000002901D07039C9B20120FCF727FB00201E
:10BEB00010BD0000F8B51F4B0C0045331B78FF2B5D
:10BEC0002ED01D4A9B0012689E58002E28D04F7815
:10BED000002F27D14B88327CF38401231343B18A8E
:10BEE000072233741548102320F062FC0500337BD1
:10BEF00006220370237BA11D4370E38943802379CD
:10BF00000371237C437163790630837123F054F805
:10BF10002800EF8120F070FCFF22064B45331A7099
:10BF20000020F8BD390070393000C9B2FEF760F961
:10BF3000F2E7C0460CBA000008BA0000A90D0000E4
:10BF4000F7B548880C00F7F7B1FC01000700F020B6
:10BF50000001FFF79FFD061E37D0FF2F35D0617817
:10BF6000002934D1E388027CC38401231343818AEE
:10BF7000037407221023184820F01AFC2100050042
:10BF8000337B06220370237C0A314370638A43802B
:10BF9000237A0371237D4371637A0630837123F022
:10BFA0000BF8A3882800EB8120F026FC00220A234E
:10BFB00061880192009330001300FFF7A9FD01236F
:10BFC000BB40064A5169994351610020FEBD70395A
:10BFD000C9B2FEF70DF9E9E7A90D00000CBA00009F
:10BFE00070B50C004888FF21FFF754FD051E0BD0EB
:10BFF000E679012E0AD0022E13D00025AE4203D1DD
:10C0000001222100FFF7A8FD280070BD2100828CCD
:10C01000237A0C399B1883841C3021F0FBFB3500FC
:10C02000F2E7037C1D003540334205D00022210099
:10C03000FFF792FD0025E7E7FFF7B6FEE4E710B54E
:10C040004888FF21FFF726FD002806D00122037C47
:10C05000462193430374FEF7CBF8002010BD000087
:10C0600070B505000823818A0722084820F0A0FB4C
:10C07000290006221631040022F09EFF0123A3713D
:10C080002B7B2000E37120F0B7FB70BD080D000092
:10C09000F8B505004478264B1B78A34223D9254FD9
:10C0A000A3003A689E58002E36D0737B032B33D002
:10C0B000737C002B30D0F37B013B032B2CD86B78A7
:10C0C000002B08D11C4B0721DA8BFA239B005A4323
:10C0D0001A4820F031FA737B013B012B03D8AB786F
:10C0E000FF2B0DD1AC70124B1A78134BA24216D015
:10C0F000621C6A70443300201C7000F021F8F8BD07
:10C1000030003A689B00995816300622163122F00A
:10C1100053FF3000FFF7A4FF0134E4B2BBE7FF2276
:10C120004433002101201A70FCF7E8F9E7E7C04624
:10C13000B5BE000008BA00000CBA0000F10D000006
:10C14000F8B52E4C2E4A26004436337812689B00F0
:10C150009D58012823D0023801280CD82300002242
:10C160004A3301201A70FCF7A5F8F0283FD1606827
:10C17000FFF78EFF12E0072205231100214820F06F
:10C1800017FB182303706B7C4A34023B5A1E934101
:10C190009B01037120F030FB01232370F8BD2F00B9
:10C1A000697B16374A34002911D10723164A1748EC
:10C1B00020F0FEFA06002B7B0622037039000130C6
:10C1C00022F0FAFE300000F02BFD0323E5E7062302
:10C1D00000210F4A0D4820F0EBFA05000622390035
:10C1E00022F0EAFE280000F01BFD0223D5E7FF2322
:10C1F00028003370FEF76EF8D0E7C0460CBA000096
:10C2000008BA0000160D00003520000005110000DE
:10C2100005200000002210B5034B07214A330348D4
:10C220001A7020F023FA10BD0CBA0000F10D0000C6
:10C2300010B50C4B1A680C4B1B789B009B189A424C
:10C2400001D1012010BD1168002906D04C7B013CB2
:10C25000012C02D8497C814201D10432EFE7002051
:10C26000F0E7C04608BA0000B5BE000070B5457BD7
:10C270000400437C002D21D1002B06D12000062292
:10C280002049163022F098FE0125637C1E4E002BBB
:10C290000DD007211D4820F033FA002807D1FA22DB
:10C2A000F38B920007215A43184820F045F9237B6D
:10C2B000280044363370FFF743FF70BD002BDDD0FC
:10C2C0000226134B1A68134B1B789B009B189A424B
:10C2D00001D10025D9E71168002907D0487B013832
:10C2E000012803D8CD7BB543012D01D00432EEE700
:10C2F000200006221631163022F05EFE2000FFF7E5
:10C30000AFFEC2E73CBA00000CBA0000F10D00001D
:10C3100008BA0000B5BE000037B5F0236A461371B5
:10C3200000230120537101AA0D00FCF713F904004A
:10C33000012802D12800FFF7ABFE20003EBD00001F
:10C34000072210B511000323064820F031FAF0232C
:10C35000002403700F334470837020F04DFA2000E6
:10C3600010BDC046F30D0000F8B51E000E4B0C00CA
:10C370001A004A3217780020012F14D10B4A443397
:10C380001B7812689B009D5885420CD0280006221D
:10C39000163022F011FE2B7B2000E3713200A98AB7
:10C3A00020F04BFA3800F8BD0CBA000008BA0000C3
:10C3B0000B7810B5182B06D1044B4A331878012896
:10C3C00001D1FFF7BDFE002010BDC0460CBA000031
:10C3D0000B4B10B5984204D00A4B984209D000206C
:10C3E00010BD094B4A3318780228F8D1FFF7A8FE90
:10C3F000F5E7054B4A3318780328F0D1F6E7C04635
:10C4000005200000352000000CBA0000F7B500241C
:10C41000142501901E4B1B78A34200D8F7BD019B49
:10C42000012B27D0022B0FD0002B0AD1194B200053
:10C4300019682B0063430A30C9180882C0B220F083
:10C44000EFFC0134E4B2E5E72E00124F66433B688F
:10C450009B19588A104B1B689847031E03D03A68F3
:10C460005B68901998473B689E19FF23308A1840F3
:10C4700020F0E4FD2A00074B62431B689B18FF2253
:10C480005A8200221A605A609A60DA60D9E7C04680
:10C49000B6BE00005CBA000060BA0000F0B5224BE6
:10C4A00085B0039104001B6840889847060040202F
:10C4B000002E37D01D4B142219781D4B4A431B68A0
:10C4C0001800D218904205D10022D5B2A94208D84E
:10C4D000002022E0458A67881430AF42F2D1422022
:10C4E00020E01420504302901800478A0132143390
:10C4F000FF2FEAD12700083700976378A2883668B3
:10C50000A11DB047002808D1094B029A1B689B184F
:10C5100062885A821B8A039A1380044B1B78AB42B1
:10C5200000D14B2005B0F0BD60BA0000B6BE0000DF
:10C530005CBA0000F8B5050000240C4B1B78A34240
:10C5400000D8F8BD14260A4F66433B689B19588AE9
:10C55000084B1B689847031E04D0386829009B6865
:10C56000801998470134E4B2E7E7C046B6BE000040
:10C570005CBA000060BA0000F7B50D00002401901D
:10C580000C4B1B78A34200D8F7BD14260A4F664314
:10C590003B689B19588A094B1B689847031E05D0B6
:10C5A00038682A00DB680199801998470134E4B2A1
:10C5B000E6E7C046B6BE00005CBA000060BA000004
:10C5C00010B5094A094B117814224A431B68D21846
:10C5D000934201D1002006E0190014339C1E2488E8
:10C5E0008442F5D1C86810BDB6BE00005CBA000038
:10C5F000438858041BB2400C002B01DA090208439F
:10C600007047038858041BB2400C002B01DA090262
:10C610000843704730B50B4A040AC1B2107814229F
:10C62000094B42431B68D218934201D1FF2306E015
:10C63000180014331D1F2D888D42F5D1438A200226
:10C64000184330BDB6BE00005CBA000030B50B4ADE
:10C65000040AC1B210781422094B42431B68D21855
:10C66000934201D1FF2306E0180014339D1E2D884C
:10C670008D42F5D1038A2002184330BDB6BE0000BA
:10C680005CBA00000B7903704B7943700B888370A0
:10C690001B0AC3708B7903714B8843711B0A83712A
:10C6A000704703780B7143784B71C37882781B0213
:10C6B00013430B8003798B71837942791B021343F7
:10C6C0004B80704770B50C0004AB1D88FFF790FFDE
:10C6D00021020624020021430A23064820F068F8BC
:10C6E00084235B00038000238580C380038120F0C6
:10C6F00083F870BD080C0000138870B50C0015009D
:10C70000002B11D0FFF774FF21020624020008233A
:10C710000648214320F04CF8102303702B888380B7
:10C720006B88C38020F068F870BDC0460F0C000015
:10C73000138870B50C001500002B11D0FFF758FFBF
:10C7400021020624020008230648214320F030F885
:10C75000112303702B8883806B88C38020F04CF8F2
:10C7600070BDC0460F0C000070B50D001400FFF73F
:10C770003FFF29020625020029431A23074820F01B
:10C7800017F801238380023BC380054B0472240AFF
:10C790000380447220F030F870BDC046190C0000D0
:10C7A00015020000F7B51E0008AB1F8809AB1B7807
:10C7B0000C00151E01931DD0FFF71AFF3B0021024C
:10C7C00006240C33020021439BB20B481FF0F0FFFC
:10C7D0000023C3804381019B0400037001238580F3
:10C7E000078143703A0031000C3022F0E5FB200055
:10C7F00020F002F8F7BDC0460A0C00001FB56C46D9
:10C8000023731B0A63730C2301930A3B009303AB4E
:10C81000FFF7C8FF1FBD0623F0B543438526002060
:10C8200083270232CB18994201D0002800D0F0BDF6
:10C830000C88002C06D11478FF2C00D1380006316A
:10C840000432F0E755780C792C40A542F7D030003F
:10C85000F5E7F0B5450006260020832702324D1982
:10C86000A94201D0002800D0F0BD0C88002C08D1CE
:10C870001478FF2C05D154787443E45A002C00D06E
:10C88000380004320231EBE7F0B58BB0099310ABFE
:10C890001B780892119A9B00D3180693040000237A
:10C8A00007910093A28A658A0099531B994201DB84
:10C8B0000BB0F0BD162300994B43E318997D022974
:10C8C0006ED11F8BBA426BD3009A5219974267DD23
:10C8D000DB7D00260493EB43DB19DBB202931623C6
:10C8E000029A53431833E3180393099B0193F3B25D
:10C8F0000593079BB34253D0019B1B88002B56D155
:10C90000089AB300D25A1623029903984B43E318AE
:10C91000D97DF1F797FC002849D0009B0135ED182F
:10C92000019B049A1D80009D5F801A711623029559
:10C930000135EDB26B43E218927D042A1CD1183305
:10C94000E318129F119E0393069BB34214D03B88B9
:10C95000002B29D1F378059A934225D116236B43F6
:10C96000E3183288D97D0398F1F76CFC00281BD0BE
:10C97000638A01335B193B80638AA28A01335B19A6
:10C98000934206DC16236B43E3189B7D013B012B8E
:10C99000CCD8009A029B9B1A019A5371029B009378
:10C9A000009B0133DBB27CE704360237CCE7019B06
:10C9B0000136063301939AE7F7B5002405000E000F
:10C9C0001F000092A34201D1089B9C8831002800DF
:10C9D000FFF717FE310001902800FFF709FEA31DA5
:10C9E00002009BB2019900981FF0E2FE0023038031
:10C9F000089B050007714480002B07D01B8822008C
:10CA00000380089B0530991D22F0D6FA28001FF0FC
:10CA1000F3FEF7BD0B8803701B0A43708B7883709D
:10CA2000CB78C3700B7903714B7943718B79837128
:10CA300007207047437802781B0213430B808378EA
:10CA40008B70C378CB7003790B7143794B71837909
:10CA500007208B7170470000F0B5124C00220127AF
:10CA6000A446114B91420CDC082200200F4C190007
:10CA7000400821405B00013A08439BB2002AF6D1EE
:10CA8000F0BD0824855CDE0B6E405B009BB23E422D
:10CA900001D066467340013C6D08002CF3D1013291
:10CAA000E0E7C04621100000FFFF00008080FFFF8C
:10CAB00010B50400F1F732FF2000FBF717FE20004D
:10CAC000F6F758FC2000EFF73FFA10BDF8B5060066
:10CAD0000C3E05004B4BB088984212D04A4B98420E
:10CAE00034D04A4B1B78002B00D086E02C00484BFA
:10CAF0000C3CC018052842D822F032FA3939505976
:10CB0000417D337A3F2B23D85A1E4249D2B2D408F2
:10CB10000F5D072422401741BC46012761463A00B9
:10CB20008A4339420CD03E2B0AD12B783949013B3C
:10CB3000DBB2DA0889180A7C23401A4197433A008D
:10CB4000002ACED030001FF089FE47E03E23DBE70D
:10CB5000582BC6D8403BDBB22E4AD90852180721C1
:10CB6000127A0B401A41130001229A43E8E7208908
:10CB7000072300282ED001F081FB002802D10421D8
:10CB8000A2882DE083789B069B0F012B13D0022BEC
:10CB900031D00321002BF3D107231BE0207A01F0D1
:10CBA0009FFB0028EBD0032243781340EDE7287861
:10CBB00001F0A8FBF5E7184BE2881B7893420ED9E9
:10CBC0001000F6F773FE08221300FF2802D09040F1
:10CBD000104383B22800E3801FF00EFEF8BDA18849
:10CBE0000E4B03201B6898470C4B03202289A18819
:10CBF0001B689847A6E70423ECE7300000F062FBCF
:10CC0000ECE7C046031100000411000080BA0000E8
:10CC1000FFEEFFFF68BA0000B5BE000008BF0000CD
:10CC200070B50400224B05001B780C3C002B38D15A
:10CC3000A388204A934216D01F4A934209D11F4B22
:10CC4000E2881B7893421FD81D4B0320A1881B68E4
:10CC5000984703201A4B2289A1881B689847200017
:10CC60001FF0FCFD18E0208901F008FB0028F0D03F
:10CC70000F23807818400828EBD822F067F910E0DD
:10CC800010E0EAEAEAEA0E00130201221A4392B225
:10CC90002800E2801FF0B0FD70BD0222F8E70022FC
:10CCA000F6E70022064B110001201B68D6E7C046BC
:10CCB00080BA00000511000006110000B5BE00009A
:10CCC00008BF0000002310B50200190002481FF041
:10CCD0006FFDFFF7A5FF10BD0511000070B50C4BEF
:10CCE00004001A78824204D80A4B01001B68032012
:10CCF0009847094D2B681B5D002B05D00022054B82
:10CD0000110001201B68984701222B681A5570BD3D
:10CD1000B5BE000008BF000064BA000070B50C4B3F
:10CD200004001A78824204D80A4B01001B680320D1
:10CD30009847094D2B68195D002904D1054B0A005D
:10CD400001201B68984700222B681A5570BDC04609
:10CD5000B5BE000008BF000064BA0000030010B5B3
:10CD600004292AD8080022F0FBF803030910230045
:10CD70000A000320144B1B68984717E0082219008B
:10CD80001248801822F018F910E0104C1900200009
:10CD9000082222F011F9002320000D4C0278195DC1
:10CDA00001330A4302700130082BF7D1002010BD77
:10CDB0000648082219001030E4E70022024B110057
:10CDC00001201B68D8E7C04608BF000068BA000011
:10CDD00040CE051810B5041E05D0022805D020004D
:10CDE00000F0F4FA10BD0C4B1870182200210B480B
:10CDF00022F0FEF80A4B00211A780A4B186822F03C
:10CE0000F7F803210848FFF7A9FF04210748FFF7B7
:10CE1000A5FF01F025FEE2E780BA000068BA000035
:10CE2000B5BE000064BA000030CE051838CE051833
:10CE3000FFFFFFFFFF9F0020FFFFFF070000000034
:10CE400000600400F8074002F0B5A44B87B01C68EE
:10CE5000002C09D101F046FE002800D18BE09F4B49
:10CE60009C68002C00D186E09C4B1C61A1889C4BE7
:10CE7000C818052800D927E122F086F806005800D6
:10CE80007F00D00026011101944B5B7D5BB2042B27
:10CE900002DC924A013353750E26E31D039302AB65
:10CEA0002589F61863892800338001F0E7F9021E0E
:10CEB0001FD03388002B1CD08768002F17D020008C
:10CEC00092780C307F2A0DD801003200009720F0B4
:10CED00035FA0100002910D02A00824B1B6803207C
:10CEE00098470AE001003200B847C1B2F2E70421D6
:10CEF000F2E7002D15D0012323730E23E37132884E
:10CF0000764B0332D2B222725B7D191C5BB2002BCE
:10CF100000DA0021A5722D0A6172E5720420023246
:10CF200022E0704B290032881B68D8E76B4B5B7D91
:10CF30005BB2042B02DC694A013353750F22E31DF7
:10CF40000393E2710B3A23892272227B6272634A55
:10CF5000527D111C52B2002A00DA00210420062260
:10CF6000E3721B0AA172237300235C490B755E4BAD
:10CF7000039921F09DFF07B0F0BD23000E270A336F
:10CF8000039302AB2189FF186389CEB23B80FF294E
:10CF900004D9544B002203201B689847300001F04D
:10CFA0009FF9021E33D04568002D19D020009278D9
:10CFB0003B880C30002A0ED100953A00010020F089
:10CFC000BDF90500002D0ED0464B3200290003208C
:10CFD0001B68984708E03A000100A847C5B2F1E78E
:10CFE0006389002B11D1002562893B889A4205D2C2
:10CFF0003C4B3200290003201B6898470E2302AAED
:10D00000A6729B181B88E37206E00425DCE7354B0B
:10D01000310003201B689847E27A7FE723000A3338
:10D020000393267B638902AAD381300001F06AF959
:10D03000021EECD04568002D2FD02000927802AB64
:10D04000DB890C30002A21D102A90E32009552183A
:10D05000010020F073F90500002D05D0214B3200AE
:10D06000290003201B6898470E2702ABFF18398858
:10D0700063898B4204D21B4B320003201B68984704
:10D08000002DC9D13E23A3723B88BCE70E2202A922
:10D0900052180100A847C5B2DEE70425DEE7216982
:10D0A00012480B1F0918A289039111495A541149BA
:10D0B000120A5A54E2891049100A5A540F4904328C
:10D0C000585492B202204FE7064B002203201B68FF
:10D0D000984700200200039046E7C04688BA000047
:10D0E000FFEEFFFF08BF000001D10518FC3F005014
:10D0F00000400050014000500240005003400050EA
:10D100002E4B70B52E4C1B68256998472D4BAA886D
:10D1100006009A4212D12B7B022B04D00222190066
:10D1200091430D2924D1217E002905D1264B0A00E7
:10D1300001201B68984701E00139217601232375FE
:10D14000A988224B99421BD8053B99422FD92369C4
:10D15000002B03D0200020F0A5FB050028001FF0C5
:10D160007DFB1B4B30001B689847FFF76DFE70BDC1
:10D17000152BE3D1E17D0029D8D00139E175DDE738
:10D18000144B994213D12000083020F08BFB124B36
:10D190001A78AB891B051B0D9A4203DD2B6998B2E7
:10D1A00003F0C4F90023236101F086FCCFE7064BAE
:10D1B000002203201B689847C9E7C04694BE0000C0
:10D1C00088BA00000411000008BF0000051100002B
:10D1D00098BE000006110000B5BE0000F0B587B093
:10D1E00006000D001700039300285AD08468002C15
:10D1F0004FD083787F2B29D80E2202A95218002104
:10D2000000940800294B20F099F90400002C38D133
:10D21000B368022218002649029321F0BFFE0E23B4
:10D2200002AA9B181E88002819D12A002100330069
:10D2300020481FF0BDFA0222040007700230039953
:10D2400021F0BAFE2000FFF741FC20E000230E226F
:10D2500002A9521818001900A047C4B2D6E7032249
:10D260001549029821F09AFE33002A002100002877
:10D270001AD110481FF09CFA0622040007700130F2
:10D28000DDE70E4B2A00210003201B68984707B0FA
:10D29000F0BD0A000123210009481FF089FA077038
:10D2A000D1E70A00012301000248F6E7FFFF000072
:10D2B000827906180111000081E3051808BF0000FB
:10D2C000021100003B4B70B505001B689847AB8806
:10D2D000394A0600394C934205D120002900083014
:10D2E00020F098FA36E0364A934207D12B7B0F2B79
:10D2F0003AD006D8022B27D00D2B0AD029002000C7
:10D30000EEE7152BFAD1E37D032B20D80133E3752B
:10D31000F4E7EB89E97D5B069B0F01290DD1627E65
:10D32000022A39D0002A02D1227E032A34D8013BB6
:10D330005A425341DAB2002331E0A27EF0E70123E2
:10D3400000222CE0A2762DE0237E032B1DD928009D
:10D350001FF084FA1B4B30001B689847237D012B7C
:10D3600001D1FFF771FD70BD174AA97B1068EB7CF6
:10D370004218415C022918D0002902D1217E0329DC
:10D3800013D8013B59424B411370237E013323765E
:10D39000B4E700231370DAE7012BD0D10222012970
:10D3A000D0D16276002BF0D0D1E7012BF1D102234E
:10D3B000F0E7C04694BE00000611000088BA0000E5
:10D3C0000411000098BE000084BA000070B5051E6C
:10D3D0000C4C14D101001C22200021F009FE0A4B44
:10D3E00029001A78094B186821F002FE200020F06D
:10D3F000FBF92000083020F0F7F9012323750523FD
:10D40000637570BD88BA0000B5BE000084BA000024
:10D4100010B500F033FFFF23002800D0C378D8B246
:10D4200010BD0000F0B589B005000391029200F034
:10D4300025FF070001205C4B5C4C1870637D7F2B3F
:10D4400004D900225A4B11001B689847594B9D4242
:10D4500002D0637D013B6375002F00D1A1E0637DA5
:10D460007F2B00D96CE00F21BB7804931940082969
:10D4700045D8080021F074FD0526052643434343A3
:10D480004A0000260E2204ABD21800239C461380CB
:10D49000039B634541D07C68644554D040216B4672
:10D4A00004989B89084005900498084230D1009464
:10D4B0000299059820F042F80400012C2ED1002397
:10D4C000122217E0039B012B12D9029B1A785B787A
:10D4D0001B021343384A12789A4209DD374A126810
:10D4E000D25C002A04D001221B0213439EB2C9E77A
:10D4F0000222029B29003800FFF770FE04E02C4B4B
:10D500002A0003201B68984709B0F0BD0226B9E73E
:10D5100060460299A047C4B2CFE7039C04AB310038
:10D520002A00DB8926481FF043F90600002C05D0AD
:10D530001F4B2A00210003201B689847002E04D1AE
:10D5400000230722D6E70424E8E704ABDB89002B9D
:10D5500012D07B689C46002B0ED06B46BA789B8914
:10D56000520615D4624600920E2204A952183000C9
:10D5700002991FF0E3FF0400002C05D00C4B2A0099
:10D58000210003201B68984730001FF035F9BBE7E6
:10D590000E2204A96446521830000299A047C4B272
:10D5A000EAE73B000122A5E780BA000088BA000044
:10D5B00008BF0000350C0000B5BE000064BA0000D2
:10D5C0000511000070B5134A0C0011780205030024
:10D5D000120D002091420BDD9B0B834208D11800F5
:10D5E000FB2C05D802F0E8FF011E02D00A4BC01840
:10D5F00070BD01231A2209481FF0DAF801250570D1
:10D60000FFF764FA022120001FF00AFA044B9D750F
:10D61000EEE7C046B5BE0000004000500311000018
:10D6200088BA0000F8B5174B06009C7D0D00170066
:10D63000002C06D010001FF07DFA0023114A9375CC
:10D64000F8BD114B01051B78090D8B4212DD01233A
:10D650000902194322000D4889B207331FF0A8F8C8
:10D6600006804580002D01D0094BFC1844601FF056
:10D67000C3F8E5E7074B0200290003201B68984721
:10D68000DEE7C04688BA0000B5BE00000611000003
:10D6900000C0FFAF08BF0000F8B50D0006A90E7866
:10D6A0000168070088190124824211D31C1E09D089
:10D6B0002A6828689419A342A44132006442640095
:10D6C00021F07AFC3B689B193B602B689E192E6009
:10D6D0002000F8BDF0B589B00500029103920691D3
:10D6E000002940D0CE18012317880790C71900934E
:10D6F00032003B0007A906A8FFF7CEFF0400031E77
:10D7000026D0079B5D1B039B1D80200009B0F0BD48
:10D71000013305935B000493EB1807930223320057
:10D72000009307A93B0006A8FFF7B6FF002818D111
:10D73000049A07A90232AB18079302233200009320
:10D7400006A83B00FFF7A8FF00280AD16B461B7D07
:10D750000299079A0978521B9942D2D9062AD7D939
:10D76000CFE70400CDE70623039A029C1380CCE7A1
:10D77000F0B599B01D0002903A23081E059207915A
:10D7800060D0029B002B61D001271488029B1C19DA
:10D790000126029B451908932A002300009608A938
:10D7A00007A8FFF779FF002849D1029B2A009B199F
:10D7B00008930096230008A907A8FFF76DFF00282B
:10D7C0003DD1029B2A00023308930096230008A94A
:10D7D00007A8FFF761FF002831D1029B2A0003331D
:10D7E0000893062308A9009307A82300FFF754FF16
:10D7F000002824D1029B2A000933089300962300B5
:10D8000008A907A8FFF748FF002818D1029B597AFA
:10D810000390002921D1039B032B04D9434B0A0019
:10D8200001201B6898477F4200233C400227029E4C
:10D8300004931836039B049A934216DC0020089B3D
:10D84000029A9B1A059A138019B0F0BD4E2404ABBE
:10D85000E41809AB029F02939AE7314203D0039B7D
:10D860000133DBB203934908D3E733000E3B08933F
:10D870002A002300009708A907A8FFF70DFF00283A
:10D88000DDD133000C3B08932A002300009708A940
:10D8900007A8FFF701FF0028D1D133000A3B089306
:10D8A0002A002300009708A907A8FFF7F5FE002823
:10D8B000C5D13300083B08932A002300009708A92C
:10D8C00007A8FFF7E9FE0028B9D1B31F08932A0083
:10D8D0002300009708A907A8FFF7DEFE0028AED1B5
:10D8E000331F08932A002300009708A907A8FFF711
:10D8F000D3FE0028A3D1B31E08932A00230000976B
:10D9000008A907A8FFF7C8FE002898D123002A001D
:10D91000009708A907A80896FFF7BEFE1036002852
:10D9200000D08CE7049B0133049383E708BF000019
:10D93000F0B58DB007001D00080010230592069178
:10D94000002941D0002F43D00123148804933C19AF
:10D950000126451923002A00009607A906A8079763
:10D96000FFF79AFE00282DD1BB1907932A00230048
:10D97000009607A906A8FFF78FFE002822D1BB1C3E
:10D9800007932A002300009607A906A8FFF784FE44
:10D99000002817D1B978039000291DD1039B022BD1
:10D9A00004D9254B0A0001201B689847049B5E425E
:10D9B00034403E00002308360493049A039B9342AC
:10D9C00012DC0020079BDB1B059A13800DB0F0BD15
:10D9D00004970CAC08AFBBE7314203D0039B013383
:10D9E000DBB203934908D7E7331F079301232A00CB
:10D9F000009307A9230006A8FFF74EFE0028E1D1F7
:10DA0000B31E079302232A00009307A9230006A848
:10DA1000FFF742FE0028D5D102232A00009307A970
:10DA2000230006A80796FFF737FE06360028C9D15F
:10DA3000049B0133C0E7C04608BF0000F0B58BB0BF
:10DA400007000C1E0492069166D0002832D015887B
:10DA50000122451905920126E3180393039A2B002E
:10DA6000009607A906A80797FFF716FE041E1AD10D
:10DA7000BB190793039A2B00009607A906A8FFF786
:10DA80000BFE041E0FD17B783F2B05D9244B0200DF
:10DA900001001B6830009847059B5E423540002618
:10DAA0007B78B3420AD8079BD81B049B18802000C0
