:020000041802E0
:10A8400010B5084B08001B6811005A331B78002B09
:10A8500002D102F01BF810BD012BFCD101F006FB68
:10A86000F9E7C046A8B8000010B5074B08001B6800
:10A870005A331B78002B02D102F006F810BD012BD1
:10A88000FCD101F0E9FAF9E7A8B8000037B51D4D91
:10A8900004002B685A331878002829D103000200DD
:10A8A00001000090013001F0B9FF002301201A00DF
:10A8B000190000F045F9012000F0E0F9012000F056
:10A8C00003FB012000F0DEFB012000F025FC01204D
:10A8D00000F060FD012000F02DFE0022012011009B
:10A8E00002F06CF9E06852F025F900232B6037BDC7
:10A8F0000128DAD100210B000A00009101F0E4F9EF
:10A90000D3E7C046A8B80000F0B585B006000A98A5
:10A9100003921F00029102F070F90323C41C9C43B0
:10A92000A4B290340121200052F07AF8254D220083
:10A930000021286054F05CFB2B68002B3BD00A9A66
:10A940005A3311688022080012031040114229D0A6
:10A9500000201870020003000100009001F05EFF6B
:10A96000041E29D13100039A3B0000F0E9F82000D1
:10A9700000F084F9200000F0A7FA200000F082FB2C
:10A98000200000F0C9FB200000F004FD200000F0D2
:10A99000D1FD296820000A9A903102F00FF92000B9
:10A9A00005B0F0BD01221A70328A00913B00029975
:10A9B00001F08AF9D4E74B24286852F0BBF8002351
:10A9C0002B60ECE7A8B800000048704754AA0218B2
:10A9D00070B5060008000D000C30022152F020F87E
:10A9E000041E05D1064B020001001B680120984798
:10A9F000012320005B42A68065810C30236070BD7E
:10AA000008BF000010B50C3851F028FF10BD70B51C
:10AA10000C000500C82031F0D3FD002131F0E8FD25
:10AA200023000C3B1881DD80200051F0E5FE70BD55
:10AA3000014B1B6818887047A8B800000C380089C3
:10AA4000704710B5012151F0EBFF10BD10B552F069
:10AA500071F810BD09A902188DA8021869A802187A
:10AA600041A8021870B50C78122C03D101F02AFB12
:10AA7000002070BD25000C3D012D01D9152CF7D10A
:10AA800002F000F8F4E7087810B5192803D00300A5
:10AA90002E3B012B04D8497800F0AAF8002010BD05
:10AAA0009F28FBD9497800F05DFBF7E770B50400FB
:10AAB0001E000800230AC82B26D11C4B9C4213D928
:10AAC0001B4BE3189BB2012B07D838204042001BD8
:10AAD000C0B201F00BFB002526E03200210002206D
:10AAE000144B1B689847F6E70A002000310002F07B
:10AAF0009DF8051E18D00125A84215D00D4B320037
:10AB0000210003201B68EDE70B4A002594420BD07F
:10AB1000F832944208D00E2BF0D1084B32001B685B
:10AB20000135198851F089FE280070BDC7C80000A2
:10AB30003837000008BF0000080D0000A8B800006A
:10AB400010B51400002810D1084A1068C8224A82A3
:10AB500002008C324A60064AC8600A60054A8A6070
:10AB6000DA03224302800B8A438010BDA8B800009C
:10AB700078AB021801000D00FFFF0000ADAA02181B
:10AB8000180D00002DAC02182A0D00005DAC021853
:10AB90002C0D000039AC0218000D000087AA021825
:10ABA000A40D0000A9B10218A50D0000F5B102180E
:10ABB000A70D0000B5B50218000C000065AA021828
:10ABC0000C0C000091C902181A0C0000E9C9021807
:10ABD000130C0000D9BE0218150C000091BF02181A
:10ABE00010B50800904710BD10B5884710BD000093
:10ABF0000C4B0A001B6810B5002B0AD02E2809D177
:10AC0000002906D00021DC68D9608C4201D090B2C6
:10AC1000A04710BD0029FCD0034B01001B68032096
:10AC20009847F6E7A8B8000008BF000010B500205C
:10AC300052F0CAFF002010BD074B10B51B68002B57
:10AC400007D000209C689860844202D00A0020321D
:10AC5000A047002010BDC046A8B80000064B10B5A4
:10AC60001B68002B05D00020DA68D860824200D033
:10AC70009047002010BDC046A8B800000022024B3B
:10AC80001B689A60DA607047A8B80000F8B50E4BF0
:10AC900006001B680D005A88072121230B4851F03C
:10ACA00087FD10271923040003703A00310001309A
:10ACB00054F082F920003A002900113054F07CF958
:10ACC000200051F099FDF8BDA8B80000170D000054
:10ACD00007B5034B0092002252F049FF07BDC04662
:10ACE000E1AB021810B50100014852F055FF10BD4C
:10ACF000E1AB021807B50093014B53F06BF807BDA9
:10AD0000E1AB021810B51300014A53F091FC10BDDD
:10AD1000E1AB021830B585B0099D08AC24780295E6
:10AD2000034D0094019553F0B5FC05B030BDC0460D
:10AD3000E1AB021807B50093014B53F03BFD07BD93
:10AD4000E1AB021810B50A00014953F083FD10BDB4
:10AD5000E1AB021810B50A00014953F0C1FD10BD66
:10AD6000E1AB0218F0B58BB00993159B10AC11AD97
:10AD700012AE14AF24882D7836783F780693064BB0
:10AD800004970593139B029603930195099B0094E6
:10AD900053F008FC0BB0F0BDE9AB021870B50C4DD8
:10ADA00004002B689A68002A0CD15A8807210123D5
:10ADB000084851F0FDFC2F23037051F01DFD2B6856
:10ADC0009C6070BD002204481100A047F9E7C0460E
:10ADD000A8B800002B0D000082020000F7B5134F49
:10ADE00015003B680600DA680191002A19D15A88DB
:10ADF000072141230E4851F0DBFC2E230400037091
:10AE000020223100013054F0D7F82000202201998F
:10AE1000213054F0D1F8200051F0EEFC3B68DD60A9
:10AE2000F7BD00210348A847FAE7C046A8B80000CC
:10AE3000290D00008202000037B58025194B6846B5
:10AE40001C6850F021FE0099A26A206B8B1A1B012E
:10AE50001B092D05AB4203D9531A1B011B095B4289
:10AE6000019A1B1892B223636287834218D2FA2593
:10AE7000606B0D4BED00C31863630C4BD3189BB292
:10AE80006387AB4206D9A023DB05C3186363084B75
:10AE9000D2186287636B834202D2238F01332387E8
:10AEA000A16237BDA8B80000FFFFFF4F5F0500009B
:10AEB0008FFDFFFF10B5034B18681C3000F0F4F84D
:10AEC00010BDC046A8B8000037B5051E0DD1074B10
:10AED00068461C6850F0D8FD054B2563A361054BFF
:10AEE00065636362009BA563A36237BDA8B80000D9
:10AEF000B5AE02183DAF021870B504000D4D2E68B6
:10AF0000FFF79AFF2868103034F050FA0A4BF462C9
:10AF10009C4200D91C000A21600120F0C9FFB36ADD
:10AF2000C0180001000970612868103034F0F8F989
:10AF300070BDC046A8B80000CCCC0C00084B094A34
:10AF40001B6810B5D86A904205D9074A8018D862A4
:10AF5000FFF7D2FF10BD0022DA6202F071FCF9E7C0
:10AF6000A8B80000CCCC0C003433F3FF10B5034B71
:10AF70001868103034F01AFA10BDC046A8B80000A6
:10AF8000024B1B68586319877047C046A8B8000079
:10AF900070B506000A4B0C001D68FFF74DFF0A2331
:10AFA000696B3160286B2A8F43435B095B182280F1
:10AFB0003360696B8B4201D20132228070BDC04682
:10AFC000A8B8000070B5060014000D00FFF7E0FF00
:10AFD00033681C1934609C4202D22B8801332B80C9
:10AFE000012070BDF7B56B469F1C05000E0001A83F
:10AFF00039001400FFF7CCFF3B88B34206D1019B18
:10B000005A1CEB1AAA420BD308480BE0B342FBD2FE
:10B0100001339E4207D1019BAB4204D3013B5B1B32
:10B0200000202360FEBDC1204000FBE78205000038
:10B0300070B5012052F086F80F4D2B68002B19D007
:10B040000E4B1B68984706002868843052F02AFC93
:10B050000B4B04001B6830009847002C02D0A368FB
:10B06000606898472B6884331B68002B02D001204E
:10B0700052F046F870BDC046A8B8000094BE00006B
:10B0800098BE000010B5002808D1054B1868843020
:10B0900052F0AAFB0120034952F016F810BDC04639
:10B0A000A8B8000031B0021870B50C4E0500336826
:10B0B00084331B68002B02D1012052F021F8084B89
:10B0C0001B689847040030682900843052F0A2FBC6
:10B0D000044B20001B68984770BDC046A8B800000C
:10B0E00094BE000098BE00000A4B70B51B681C009F
:10B0F0003C34227A002A0CD1DA6B002A09D02000D5
:10B100005D8852F0CFFB0389237205810C3051F02A
:10B1100073FB70BDA8B800000A4B70B5051E1C6813
:10B120000BD13C34200052F05FFB257270BD200033
:10B130003C3052F0B7FB51F091FBE36B002BF6D1A2
:10B14000F4E7C046A8B80000054B10B51B680C39E1
:10B150003C330881180052F05DFBFFF7C5FF10BDBE
:10B16000A8B8000010B50E4B1C683C34227A022AA5
:10B170000AD0032A0BD0012A0CD100F019F90023C0
:10B180002372FFF7B1FF10BD00F058FAF7E700F0A7
:10B19000BBFFF4E7034B01001B6803209847EEE771
:10B1A000A8B8000008BF000010B5104A0B001268D4
:10B1B0003C32127A022A09D0032A0CD0012A0FD17C
:10B1C0000978587800F010F9002010BD09785878F7
:10B1D00000F04EFAF8E70978587800F0C1FFF3E77D
:10B1E000034B01001B6803209847EDE7A8B8000057
:10B1F00008BF0000154A10B512680B001400523445
:10B20000097824788C4205D19978587800F002F9B1
:10B21000002010BD1400573424788C4204D1997852
:10B22000587800F03BFAF3E71400723424788C422B
:10B2300004D19978587800F0A9FFE9E7044B44322B
:10B240000100127803201B689847E1E7A8B80000C6
:10B2500008BF0000384B70B51E6801003400483448
:10B2600000285ED1607A7288052813D853F078FEE2
:10B27000132C44572C0302230721304851F098FA2D
:10B28000A7230370A37A010043700120FFF75CFF3E
:10B290000023637270BDDA202C230721000151F0D6
:10B2A00087FAA0230380C0239B004360BA23038155
:10B2B000E3880100436183610823FF338383012016
:10B2C000FFF742FF0123E4E7A388072104339BB281
:10B2D0001B4851F06DFAA92305000370A37A43704F
:10B2E000A288B16C4280043053F066FE2900012030
:10B2F000FFF72AFF0223CCE73A230721114851F038
:10B3000057FAA4230370A37A0100437000234380FB
:10B31000237A03710120FFF717FF0323B9E7042302
:10B320006372E07AFF28B5D0FF23E3727368002BC5
:10B33000B0D01B699847ADE7A8B80000A30D000086
:10B34000A60D0000A10D000070B51F2B18D80F4CE2
:10B3500025682C004834667A002E06D0042E12D1BF
:10B36000E6888E4201D0052666722272049AE07247
:10B37000E1800020AA64A380FFF76CFF002070BD6D
:10B38000C1204000FBE70248F9E7C046A8B800002A
:10B3900082020000002808D1044B1B681A004832C2
:10B3A00050720122523352421A807047A8B80000EE
:10B3B0000300A0380A0010B509280CD853F0D0FDBE
:10B3C000070B0B0B050B0B070B07002902D090B2E4
:10B3D000FFF740FF10BD034903200C681900A04788
:10B3E000F8E7C04608BF000010B5084B1B6848339B
:10B3F0005A7A002803D1012A01D1997210BD044B59
:10B4000001001B6803209847F8E7C046A8B8000071
:10B4100008BF000010B50C00002805D00022064B24
:10B42000110001201B689847452C00D10024A0B2D0
:10B43000FFF710FF10BDC04608BF000055B5021849
:10B440008DB5021849B30218204B10B51B680100D6
:10B450001C005434002831D1A0785A88042814D80C
:10B4600053F07EFD03142C131400DA20022307216D
:10B47000000151F09DF9A1230370002301004370E6
:10B480000220FFF761FE0123A37010BD3A230721BC
:10B490000F4851F08DF9A4230370E3780100437045
:10B4A0000C4B228843800023C2800371C381038236
:10B4B00002810220FFF748FE0223E5E72079FF28FA
:10B4C000E3D05B681B689847DFE7C046A8B8000078
:10B4D000A10D000002210000144B10B51A680100F4
:10B4E00014005434002806D1A378032B0CD0FD207F
:10B4F000023B034218D12079FF2815D0FF23237186
:10B5000053685B6898470FE0022307215288084878
:10B5100051F04EF9A5230370E37801004370022037
:10B52000FFF712FE0423A37010BDC046A8B80000A8
:10B53000A20D0000002808D1044B05491B681A0021
:10B5400056321180FF2254331A717047A8B8000098
:10B5500000FFFFFF0B4B70B51D682B0054331C79A7
:10B56000FF2C01D084420BD104269C78B44307D130
:10B570006A60187119802000FFF766FF200070BD17
:10B580000148FCE7A8B800008202000010B5074B94
:10B590001B6854339A78022A06D1013200209A702F
:10B5A000FFF79AFF002010BD0148FCE7A8B8000093
:10B5B00082020000F0B51E4E1E4B356808001B6865
:10B5C00085B054350C0098472879FF280ED0336891
:10B5D0005F68002F0AD06278092A0AD11122237EDF
:10B5E000A2561A3400940021BC68A047002005B080
:10B5F000F0BD392AFAD15A331B78002BF6D1F968FD
:10B60000002904D10C4B0A0001201B6898472879B7
:10B610002500112231681A35A25649680295257E07
:10B62000A31C0195247A0094CC680021A047DDE793
:10B63000A8B80000ACB8000008BF00000A0010B5B0
:10B64000A42803D0A52805D0A12809D190B2FFF7DE
:10B65000FBFE10BD0029FCD088B2FFF73DFFF8E7E4
:10B66000024B01001B6803209847F2E708BF000067
:10B6700010B5084B1B6854339A78012803D1012A6E
:10B6800001D1D97010BD044B01001B6803209847FD
:10B69000F8E7C046A8B8000008BF000010B50C00CD
:10B6A000012805D00022044B110001201B68984797
:10B6B000A0B2FFF711FF10BD08BF0000F7B5354E6F
:10B6C000830035680090EB18DC6D002903D1227CE3
:10B6D000E37B9A4206D1002323602B6EA07C5B693A
:10B6E0009847F7BD009825F015FF227CE77B0438CA
:10B6F000D71B874200D907003268C120062600996F
:10B70000BBB20193090209339BB231435288000155
:10B7100051F04EF812235C3503702B7D0600022B8E
:10B720002DD1EB89300004339BB2B380BBB201331F
:10B73000F380E17B2368BDB259182A00093053F029
:10B740003BFCA27B3F2113008B4303D0124B032011
:10B750001B6898473F23A27BE17B1A40237C00298A
:10B760000FD1B9B25B1A591E8B419B01134333723F
:10B77000300051F041F8E37BDB19E373B1E72B8A2A
:10B78000D0E74919994202DB40235B42EEE7802370
:10B79000FBE7C046A8B8000008BF0000F7B501905D
:10B7A0002A480093076838005C30067D022E04D1D9
:10B7B000032906D0C120400023E0012EFAD102293E
:10B7C000F8D8009B002BF5D0002AF3D0022E19D117
:10B7D000452AEFD800251E4800780238854218DB3C
:10B7E0002FD0206800282ED1009BA17323602274E3
:10B7F000E073022E1AD1627C0123100018401A4215
:10B8000019D1FEBD012EE5D1822080008242E1D314
:10B81000D0E7AC003C19E46D002C04D0A37C9C461E
:10B82000019B9C45DDD00135EDB2D7E7012EE8D173
:10B83000637C9B07E5D528000021FFF73FFF002030
:10B84000DFE70448DDE70448DBE7C046A8B80000AE
:10B85000B5BE000082080000820200000F4B70B5E8
:10B860001B681C005C34227D002A15D0627D0025F7
:10B87000042A0FD15A8807210223094850F098FF63
:10B88000A5230370A37D010043700320FFF75CFC38
:10B8900005236375280070BD024DFBE7A8B80000C2
:10B8A000A20D000082020000F0B54E4A03001668A7
:10B8B0008BB0002800D089E034005C34607D75884E
:10B8C000072815D853F04CFB162F486F82142F040D
:10B8D00002232A000721444850F06AFFA72303707F
:10B8E000A37D010043700320FFF72EFC0023637546
:10B8F0000BB0F0BDDA202C232A000721000150F004
:10B9000057FFA023038000234372384B010043609C
:10B91000638A436183610823FF3383830320FFF736
:10B9200013FC0123E3E7A3892A00043307219BB218
:10B930002F4850F03DFFA92305000370A37D4370FD
:10B94000A289716E4280043053F036FB2900032037
:10B95000FFF7FAFB0223CAE700271B22390003A8DE
:10B96000029753F045FB6B46DE1DDF71214B310022
:10B970001B6802A8984733782A00072108331C481F
:10B9800050F016FFAA2305000370A37D32784370A0
:10B99000428002A9043053F00FFB29000320FFF777
:10B9A000D3FB0323A3E73A232A000721124850F0D0
:10B9B000FFFEA4230370A37D010043700023438096
:10B9C00003710320FFF7C0FB042390E7726E002A87
:10B9D00000D18DE7326E180012689047002373661D
:10B9E00086E7C046A8B80000A30D000000010300D0
:10B9F000A60D0000B0B80000A10D0000F7B500933F
:10BA0000431E070014000191012B50D8D31E192B9F
:10BA10004DD8089B002B4AD0009B002B47D0274BCA
:10BA20001E6832005C32137D002B01D0834204D1AA
:10BA3000012F04D1108A00283CD1214836E0D0895A
:10BA40000028FAD0022B05D0002123F073FB80B22E
:10BA500000282BD135005C356B7D042B18D1174A9B
:10BA6000231D1268072152889BB2164850F0A0FE91
:10BA7000A92306000370AB7D009943704480220027
:10BA8000043053F099FA31000320FFF75DFB0CE01E
:10BA9000089B00203366019B2F756B82009B7366A9
:10BAA000FF23AC81EB75FFF7FFFE0020FEBDC12038
:10BAB0004000FBE7012BCDD0C6E7C046A8B8000088
:10BAC00082020000A60D000010B50D4B1C685C340E
:10BAD000237E002B13D1237D002B10D0627D062AFC
:10BAE0000DD1022B03D10121E08923F023FB217D1D
:10BAF000012902D1208A23F01DFB0023237510BDEC
:10BB0000A8B80000082110B5074B00021B680143CC
:10BB10005A880648022350F04BFE0123037012336B
:10BB2000437050F069FE10BDA8B80000040E00007C
:10BB3000F7B5514B05001B680E0001935F88830029
:10BB40003F208979019AD3188A0901400091310078
:10BB5000DC6D0C396368022A50D0032A27D0012AF1
:10BB60003AD0002B00D079E0B388201D013B6373ED
:10BB700051F050FE019B5C331B7D022B4DD1009B8D
:10BB8000032B4FD10321607B50F04AFF00270600B2
:10BB90006368002B4FD1019B627B1B6EA07C0099D8
:10BBA0001C693300A047300050F0C4FF25E0002B93
:10BBB00054D0237B009A934250D1201D51F02AFE8D
:10BBC000B388627B39009B18013B63732B4BED18E4
:10BBD000A8B250F04BFDCDE7002B3FD1201D51F016
:10BBE00019FEB3883900013B6373009B244A237319
:10BBF000224BED18A8B250F09FFCF7BD002B2DD0C2
:10BC0000237B009A934229D1201D51F003FEB38873
:10BC1000627B9B18013B6373EFE7012B02D1009B12
:10BC2000022BAFD96368002BE7D0201D51F03AFEFC
:10BC300050F014FEF6E7201D51F034FE05002900F7
:10BC40002A8AF019013A133153F0B6F92B8A2800E9
:10BC5000013BFF18FFB250F001FE99E7080050F0D9
:10BC6000FDFD064B3900E81880B250F0FFFC2800BB
:10BC7000FFF748FFC1E7C046A8B80000C8C8FFFFEB
:10BC8000204E00000200002010B50C4B1C680C4B2D
:10BC90001B78023B984202DB09D10A480AE0810086
:10BCA0006118C96D002906D0897C914203D1FFF744
:10BCB00029FF002010BD0130C0B2EBE7A8B800009A
:10BCC000B5BE000082080000F0B58BB007925C4A58
:10BCD0001D001468109B0691002800D0ADE01626C8
:10BCE00004AAB6180A881F0032808022920201003E
:10BCF0001740134200D00631022218001040059070
:10BD0000134201D00631C9B2300022F00EFC002FE0
:10BD10003CD000283AD1152204ABD2183F2313702F
:10BD2000213B2B400393474B00900293079B30002D
:10BD300001934549062322F0C3FA220033885C327E
:10BD4000D38106333380059B002B24D0002822D1D9
:10BD5000152204ABD2183F231626137004ABF61835
:10BD60001E231D40394B00900293079B3000019326
:10BD700037490623039522F0A3FA230032885C3367
:10BD80001A82002F18D000282CD10CE023000022AA
:10BD90005C33DA81D7E7230000225C331A829742B2
:10BDA00007D090421ED123005C330121D88923F0B3
:10BDB000C1F9059B002B07D0002813D123005C3369
:10BDC0000121188A23F0B6F900280BD1214B050078
:10BDD0001A780300023A93420FDB2300FF227033EC
:10BDE0001D809A7000235C342376E389002B00D1F8
:10BDF000238A069A13800BB0F0BD990061180133B5
:10BE0000CD65DBB2E7E7AB00E318DE6D002E05D0B1
:10BE10007368002B0BD1300050F08CFE0135EDB271
:10BE20000C4B1B78023B9D42EDDB0020E3E7301D0D
:10BE300051F038FD50F012FDEAE70025F0E7C0466A
:10BE4000A8B8000014C202182718000044C2021843
:10BE500028180000B5BE0000034B1B685C335A7DF8
:10BE6000042A00D1D8757047A8B80000174BF7B561
:10BE70001C688600A619F56D0191002D1DD0144B8C
:10BE80006188C01880B250F0F1FB2B68002B04D001
:10BE9000236EA87C5B690F4998476F68002F0FD10C
:10BEA000236EA87CDB6801999847280050F042FE79
:10BEB0005C34F765237E013B2376FFF705FEF7BD73
:10BEC000281D51F0EFFC50F0C9FCE6E7A8B80000CF
:10BED000C8C8FFFF82080000F0B585B001911900C5
:10BEE0000025294B94461A6802AB9F1D0B0A9B0044
:10BEF000D318DB6D80261C003D80AB4215D05C3230
:10BF0000D489AC422AD001980088844226D8661D84
:10BF1000864223DB001B80262C00052805D1012248
:10BF20005B7C134000263B800234A31D9BB262461B
:10BF3000164850F03DFC019B05001B8806710380EC
:10BF40004480002C04D022003900053053F034F82E
:10BF5000280050F051FC002005B0F0BD148A802666
:10BF6000002CE2D0019A128894420AD8601D9042B7
:10BF700007DB121B0024052AD7D15B7C9B07DB0F54
:10BF8000D0E70024D1E7C046A8B80000140C000098
:10BF9000F0B585B00293494B03921A68029B180AC8
:10BFA0008300D318DF6D3D1E3FD000258B88AB4248
:10BFB0003BD0C0B2019008885C320090D089A84282
:10BFC00049D0009CA04246D8009E441DB44242DBAA
:10BFD000301A02282CD02C0005284DD14A88802602
:10BFE000002A0CD1022B0AD1CC798A79240214437D
:10BFF000012C28D100257B7C23437B742E00042355
:10C00000039A02992E4850F0D3FB009B8670038060
:10C0100050F0F2FB002C08D03B68002B05D0F97BD8
:10C02000002902D10198FFF749FB280005B0F0BDB7
:10C03000137D2C008026022BE1D10198FFF778FDBB
:10C0400001252600DBE7002C14D101227B7C9343E1
:10C050007B742500F5E7148A002C0CD000988442EC
:10C0600008D8009D601DA84204DB2C1B022C05D0C3
:10C07000052C0BD0002425008026C0E7157D012D5E
:10C08000F8D10198FFF754FD0024DAE74D88002D20
:10C09000F0D1022B0FD1CC798A7924021443012CE0
:10C0A00003D17A7C13437B74A8E7002C03D17A7CFC
:10C0B0009A437A74CDE72C00DDE7C046A8B80000AB
:10C0C000160C00000A7810B5122A0BD1180A064B7C
:10C0D00082001B689B18DB6D002B03D04978C0B22F
:10C0E000FFF7ECFA002010BDA8B80000054B820055
:10C0F0001B6810B59B18DB6D002B01D0FFF702FD0C
:10C1000010BDC046A8B800000A0013490300A038BB
:10C1100010B509680A2819D852F022FF0E1818180D
:10C120000E12180E18060E004B6E002B04D10B6E6B
:10C1300090B21B68984702E090B2FFF7B5FB10BDC4
:10C14000002AFCD00B6E90B25B68F3E70349032032
:10C150000C681900A047F2E7A8B8000008BF00006B
:10C1600010B5084B1B685C335A7D002803D1012AA7
:10C1700001D1997510BD044B01001B68032098473D
:10C18000F8E7C046A8B8000008BF00001F4BF7B58D
:10C190001D682B005C330093DE7D002805D0002253
:10C1A0001B4B110001201B6898470623009A53750A
:10C1B000FF2E1DD0B700EF19FB6D0193002B17D197
:10C1C0000121142050F02CFC2B6E04009B683000E1
:10C1D0009847A074FF2812D0201D51F005FB019B49
:10C1E000009A23606374009BFC651B7E0133137609
:10C1F0002B6E00205B689847FFF766FCF7BD3000A8
:10C20000FFF780FC200050F095FCF1E7A8B8000093
:10C2100008BF000000280002000000000328000200
:10C2200000000000DB2A0004008045000328000213
:10C2300000000000DC2A0010008045000229000AEE
:10C240000000000000280002000000000328000297
:10C2500000000000DD2A000400801506032800020B
:10C2600000000000DE2A0010008015060229000AE6
:10C2700000000000FDB902185DB8021885BC021864
:10C280009DB70218F7B5364D83002E680090F3185D
:10C290009C6F002903D1227CE37B9A4206D10023C4
:10C2A0002360F36FA07C5B699847F7BD009825F089
:10C2B00031F9227CE77B0438D71B874200D907007D
:10C2C0002A6806250099BBB2019309020D339BB27F
:10C2D00029435288234850F06BFA7836337A0500A8
:10C2E000022B33D1E38A02339BB2AB80BBB2013362
:10C2F0002B810E2300222800FF33EA806A812B80E5
:10C300002368E17BBEB2591832000D3052F054FE62
:10C31000A27B3F2113008B4303D0134B03201B68E8
:10C3200098473F23A27BE17B1A40237C00290FD151
:10C33000B9B25B1A591E8B419B0113432B73280022
:10C3400050F05AFAE37BDB19E373AEE7238DCAE7BB
:10C350008919994202DB40235B42EEE78023FBE729
:10C36000A8B800000A0C000008BF0000F7B5019053
:10C3700024480093076838007830047A022C04D1EE
:10C38000032906D0C126760021E0012CFAD102292A
:10C39000F8D8009B002BF5D0002AF3D0022C18D13E
:10C3A000452AEFD8184806780020023EB04217DB35
:10C3B00023D02E68002E22D1009B013CA9732B6054
:10C3C0002A74EE73012C02D83100FFF75BFF3000B6
:10C3D000FEBD012CE6D1822080008242E2D3D1E76B
:10C3E00085007D19AD6F002D04D0AB7C9C46019B70
:10C3F0009C45DED00130C0B2D8E7044EE7E7044EDA
:10C40000E5E7C046A8B80000B5BE000082080000FD
:10C4100082020000364BF0B51E6885B033007833D9
:10C420000C000090039201935972FF2921D08B00D8
:10C43000F3189F6F0293002F1BD101213C2050F075
:10C44000EFFA051E15D03C22390052F0D1FD28002C
:10C4500002223900383052F0CBFD281D51F0C4F9CA
:10C46000029B2F606F749D67019B019A9B7A013339
:10C470009372009B013B012B34D8039B002B31D0DE
:10C48000330078331A7A002A02D000998A422CD1DC
:10C49000039A2100F267009A01271A72144B551E65
:10C4A00018686B425D41134BED1830F0A1F806217E
:10C4B00023020200194310481A2350F079F901238E
:10C4C0005B42C3800D4B87800380FE3BFF3B437282
:10C4D000057250F091F90020A4003419A36F1F7564
:10C4E00005B0F0BDC1204000FAE70548F8E7C046B6
:10C4F000A8B8000027180000190C00001502000061
:10C5000082020000138870B50C001500002B11D0BA
:10C5100030F06EF821020624020008230648214369
:10C5200050F046F9102303702B8883806B88C380FA
:10C5300050F062F970BDC0460F0C0000F7B5574BC4
:10C5400007001B680D0001935E8883003F208979F6
:10C55000019AD3188A090140009129009C6F0C3977
:10C560006368022A50D0032A27D0012A3AD0002B30
:10C5700000D079E06B88201D013B637351F04AF9CC
:10C58000019B78331B7A022B4DD1009B032B4FD19B
:10C590000321607B50F044FA002706006368002BFB
:10C5A0004FD1019B627BDB6FA07C00991C6933003B
:10C5B000A047300050F0BEFA25E0002B54D0237B7A
:10C5C000009A934250D1201D51F024F96B88627B70
:10C5D00031009B18013B6373314BFF18B8B250F028
:10C5E00045F8CDE7002B3FD1201D51F013F96B88A2
:10C5F0003100013B6373009B2A4A2373284BFF18C9
:10C60000B8B24FF099FFF7BD002B2DD0237B009AD5
:10C61000934229D1201D51F0FDF86B88627B9B1855
:10C62000013B6373EFE7012B02D1009B022BAFD9D3
:10C630006368002BE7D0201D51F034F950F00EF95B
:10C64000F6E7201D51F02EF905002900EA89F019BE
:10C65000013A133152F0B0FCEB892800013BFF187E
:10C66000FFB250F0FBF899E7080050F0F7F80C4BD8
:10C670003100F81880B24FF0F9FF39020827074B54
:10C6800039431B6808485A88022350F091F8012367
:10C6900003701233437050F0AFF8B4E7A8B800004D
:10C6A000C8C8FFFF204E0000040E000003880020D1
:10C6B000834209D18B78FF2B06D1C978F93B4B43D4
:10C6C0009B5A834200D0833070470288030010B524
:10C6D000002A10D00279CC788520224094420ED1D5
:10C6E000D88800280CD0CA799B7A002013409A423F
:10C6F00005D0853003E08A788320FF2AF0D110BD71
:10C700008B79FF2BFBD18320F9E7F0B504000026DD
:10C7100089B0059103920693638AA28A0193D31A82
:10C720009E4201DB09B0F0BD16237343E318997DE7
:10C73000022960D1198B029191425CD8019AB218FA
:10C74000914258DDDB7D0793019BDD43039B6D1810
:10C750001F88EDB2002F51D0039B9F1DDB88002B5B
:10C7600049D1059B9A8816235D4328006319183028
:10C77000D97D201821F066FD00283CD001233D0022
:10C7800004933700019B01339B192B80029B6B8024
:10C79000079B2B71162001970137FFB278432318AE
:10C7A0009A7D042A16D10E9A1288002A12D1069A6E
:10C7B0000499D2788A420DD1069A18301288D97D10
:10C7C000201821F03FFD002804D0638A0E9A01331F
:10C7D000DB191380638AA28A0133DB19934206DCDA
:10C7E00016237B43E3189B7D013B012BD2D8019B91
:10C7F0009E1B6E711E000136F6B28DE7162068434F
:10C80000059B1A8823181830D97D201821F01AFDAD
:10C810000028A1D0039D0497B3E70000F8B5184B9A
:10C82000184E1C68002829D103003278023A904241
:10C8300006DB2200783480321380A3720020F8BD1A
:10C840008100611801308B67C0B2F0E7AB00E318DC
:10C850009F6F002F05D07B68002B09D1380050F066
:10C8600069F90135EDB23378023B9D42EEDBE5E735
:10C87000381D51F017F84FF0F1FFECE70025F2E713
:10C88000A8B80000B5BE000070470000F7B51C4F07
:10C8900086003C680191A619B56F002D1FD0194B79
:10C8A0006188C01880B24FF0E1FE2B68002B04D0E5
:10C8B000E36FA87C5B69144998476B680093002B71
:10C8C00017D1E36FA87CDB6801999847280050F0E6
:10C8D00031F9009B7834B367A37A013BA3723B68BC
:10C8E00078339A7A002A03D1197A002900D01A7273
:10C8F000F7BD281D50F0D6FF4FF0B0FFDDE7C04672
:10C90000A8B80000C8C8FFFF8208000070B5050085
:10C910000E00FF282FD0194B1868AB00C3189B6F6F
:10C92000002B28D002007832147A002C23D01B7DF3
:10C93000002B1AD0013C63425C41114B2900E418E2
:10C940002FF056FE06212B02020019430D481A2330
:10C950004FF02EFF01238380023BC3800A4B0472F9
:10C960000380182343724FF047FF28003100FFF780
:10C970008DFF002070BD0548FCE7C046A8B8000048
:10C9800027180000190C00001702000082020000A6
:10C99000180A144B82001B6870B59B189C6F221EEE
:10C9A00013D000224B8893420FD0E58A8B88C0B207
:10C9B00095420CD09D420AD86E1D9E4207DB5B1B40
:10C9C000042B02D1FFF7BAFD0122100070BD002236
:10C9D000248D9442F9D09C42F7D8651D9D42F4DB2A
:10C9E0001B1BEDE7A8B80000204BF7B51D680C0035
:10C9F0002E007836327A481C013A53425A411C4B79
:10CA00000978D218777A21F01DFC00281AD0BF00CF
:10CA1000ED19AB6FDA7C002A10D1327A022A13D1D9
:10CA20001A0026331A3200932000124B1249FFF7E6
:10CA30006CFE628AAB6FDA82A28A1A83AA6FD37CF9
:10CA40000133D3740020FEBD012AF7D11A00383318
:10CA50002C3200932000094B0949FFF756FE628AE9
:10CA6000AB6F1A85A28A5A85E8E7C046A8B80000CD
:10CA700027180000ACCB0218A4CB0218B8CB0218C0
:10CA8000B0CB02183E4BF7B51D680B782A00783200
:10CA9000547A152B5DD1A600AE19B36F0193DB7CE0
:10CAA000012B39D1137A022B38D1019F35491A371E
:10CAB0003800FFF70AFE00282ED101983A003249CB
:10CAC0002630FFF7F3FD002826D1019A2800210027
:10CAD0001632FFF717FDB36FDD8C294B1868002D58
:10CAE00017D021002FF084FD0621240202000E231E
:10CAF000264821434FF05CFE86235B000380002321
:10CB00000222C380438101338580028183814FF0FB
:10CB100073FE0022B36F1A750020FEBD012BF8D101
:10CB2000019F1B492C373800FFF7CFFD0028F3D1B8
:10CB300001983A0017493830FFF7B8FD0028EBD1CB
:10CB4000019A280021002832FFF7DCFCB36F1D8F0B
:10CB5000C3E70D2B04D120004978FFF793FBDBE7F7
:10CB60000C2BD9D1A300EB189E6FEB6F20009B68B4
:10CB70009847B074EB6F00201B689847CCE7C0461D
:10CB8000A8B80000A4CB0218ACCB02180A0C000015
:10CB9000B0CB0218B8CB021815C402180DC9021880
:10CBA0006DC30218DB2AFF04DC2AFF100229FF01F3
:10CBB000DD2AFF04DE2AFF100229FF01F7B50192EA
:10CBC00000220D00060000F045F80327C41CBC43FA
:10CBD0002C1921003000019A01F012FEC019B8434F
:10CBE000019A241821003000143216F0E7FBC01916
:10CBF000B8432018401B80B2FEBD70B50500002070
:10CC000000F045F804002800032601F053FE033429
:10CC10008019B043B44324182800143016F021FCC6
:10CC20008019B043A4B2201880B270BD074B10B574
:10CC3000984202D801F0D8FD10BD054B984202D8A9
:10CC400000F03CF8F8E716F047FCF5E76DC8000087
:10CC500081C80000F8B500220D00060000F05DFE5E
:10CC60000327C41CBC432C1921003000002201F012
:10CC700051FAC019B843241800223000210000F0F6
:10CC80008BF8C019B8432018401B80B2F8BD70B5AE
:10CC9000002000F063FE04000020032501F052FA9A
:10CCA00003344019A843AC432418002000F07CF85A
:10CCB0004019A843A4B2201880B270BD044B10B52F
:10CCC000984202D800F072F810BD01F04FFAFBE76D
:10CCD00077C80000016810B5002903D0054B186023
:10CCE000002010BD044B01200A001B689847C1209A
:10CCF0004000F6E7B4B8000008BF000010B5FEF72A
:10CD000047F910BD0123002203708370DB18C37044
:10CD1000033342700371704710B5FEF731F90020FC
:10CD200010BD10B500F0E2F810BD0000054B10B5C5
:10CD30001B68002B03D0196800F05EF910BD024893
:10CD4000FCE7C046B4B800008202000070B50821BC
:10CD500005000748FDF73CFE0B2303600023040099
:10CD600083808571FDF764FE2100FDF750FE70BDE4
:10CD70006FC8000070B506000C00064808211500B9
:10CD8000FDF726FE0660858001002000FDF73FFECE
:10CD900070BDC0466FC8000010B50248FFF79AFF8B
:10CDA000002010BD70CE02180020704713002D4ADD
:10CDB00073B50C0090421AD118680B284ED852F067
:10CDC000CFF80618224D4D4D4D4D4D4D2F450C21A0
:10CDD0002548FDF7FDFD0023050003608380811DCC
:10CDE0000830FFF78BFF29002000FDF710FE002020
:10CDF00076BD19895868FFF78FFF210002000120D6
:10CE0000FFF7B8FFF3E70C211748FDF7E1FD022318
:10CE100003600023050083800630FFF773FFE2E71D
:10CE20005A79511E8A4119796B46DE1DD2B2300003
:10CE3000FFF777FF082105000B48FDF7C9FD0A231E
:10CE400003603378010085808371CDE71879FFF79F
:10CE50006DFF021ECBD021000B20D1E72100034A39
:10CE6000CEE7C0466EC800006FC800008202000016
:10CE70004DCD0218F0B505000D4303242B002340CF
:10CE800025421ED00C0005008E18331B032B1BD926
:10CE9000637827781B023B43A7783F043B439C46BB
:10CEA0006746E37804341B063B431F0A2B706F7000
:10CEB0001F0C1B0EAF70EB700435E6E7CC58C45066
:10CEC0000433D41A032CF9D893089B00C018C9184E
:10CED000D21AFF2500231C002C40A24200D8F0BD2E
:10CEE000CC5CC4540133F6E734207047F0B585B00C
:10CEF0000D0003900292202944D80024234F3B6860
:10CF00001033E2B20192A2009A58002A36D1029B55
:10CF10005426002B00D1783628007043103080B2A0
:10CF2000FDF78FFD011E03D1B020C00005B0F0BD9C
:10CF3000012338680434A4005B4221500A004B608E
:10CF40000023134C0D734D738B608B731C329D4209
:10CF50000CD1029B002B02D102338B73083050F0AE
:10CF600059FC039B019A00201A70DFE7019F537060
:10CF7000013317705462DBB29219E8E70134052CD3
:10CF8000BFD1D1E7C1204000D0E7C046B8B800000B
:10CF9000A55A5AA537B5051E164C0ED16B4601226F
:10CFA0002160D81D2021FFF7A1FF6B462A00082130
:10CFB000D81DFFF79BFF34203EBD002522682B1DA6
:10CFC0009B009858002801D0FDF740FD0135052D44
:10CFD000F4D100252B00226808339B00D318586831
:10CFE000002801D0FDF732FD0135042DF2D10023D8
:10CFF0002360E0E7B8B80000F7B506000D0004288C
:10D0000028D8164F331D38689B001C580193002CFC
:10D0100020D0637B227B9A420DD120000024FDF7B3
:10D0200015FD3B68019A2800D450A54202D030007B
:10D03000A8470020FEBD002B06D0A37B9B0700D590
:10D040000830210050F038FC0123A27BA560134377
:10D05000A373EEE7C1204000ECE7C046B8B800007B
:10D06000F0B587B0049313000392049A05909D18BD
:10D070004D19404BADB21B680291982D07D8202D59
:10D080001AD854221F0020250192002B19D1002705
:10D090002433BA009A58FCB2002A57D00137042F23
:10D0A000F7D1B021344B022000221B68C9009847F9
:10D0B000B020C00007B0F0BD08331F00CC23982576
:10D0C00001933C68002CECD0802200266368120695
:10D0D0001100F1400B4202D10136202EF8D1617BC4
:10D0E000002904D1244B0A0003201B6898478023A1
:10D0F0001B06F34062689A43637B6260013BDBB2CC
:10D100006373002B03D12100380050F0D5FB019B45
:10D11000103473431E19316B184A914203D0164BD9
:10D1200003201B689847029B3000B380049B202299
:10D13000F380039B0021338101237581B373103089
:10D1400051F056FF059B00201E60B3E728003430E5
:10D1500080B2FDF776FC061EA3D0FF233373074B86
:10D1600008373363034BBF001B687473DF197E609D
:10D17000D9E7C046B8B8000008BF0000A55A5AA5B4
:10D1800083888B4206D35B1A83800389C918018187
:10D19000002070470048FCE78202000003898B42B0
:10D1A00006D382888A18591A82800181002070472C
:10D1B0000048FCE782020000C3888B4206D35B1A5A
:10D1C000C3800389C9180181002070470048FCE72B
:10D1D0008202000003898B4206D3C2888A18591A3A
:10D1E000C2800181002070470048FCE782020000F5
:10D1F000074B026B10B504009A4205D00022054B84
:10D20000110001201B689847A37B0133A37310BD55
:10D21000A55A5AA508BF0000016B244A70B5050045
:10D22000914203D0224B03201B689847A97B002919
:10D2300004D11F4B0A0003201B689847A87B0028D5
:10D2400032D00138C4B2AC73002C01D0002070BDC4
:10D25000184B2A7B1868FF2A08D16B7B08339B0088
:10D26000C01844602800FDF7F1FBEFE7131D9B0099
:10D2700019584E7B731C4B7380236D7B1B06EB4050
:10D280004D682B434B608B7BDD0704D5100089680C
:10D29000FFF7B2FEDAE7002ED8D10222134200D007
:10D2A000083050F0B7FAD1E70348D0E7A55A5AA59D
:10D2B00008BF0000B8B8000082020000F8B51F00E7
:10D2C0000B8905000C00934213D30026818834316A
:10D2D0004118A08834302018FFF7CCFDB74206D0A3
:10D2E00029002000202210311030FFF7C3FD30004C
:10D2F000F8BD014EFBE7C0468202000010B51300E6
:10D3000002899A4206D183883433C018FFF7B2FDF0
:10D31000002010BD0048FCE782020000030010B5A9
:10D32000080099881A8934315918FFF7A3FD10BDF8
:10D3300030B5002809D08C184589E418A54204DBD3
:10D3400081800281C380002030BDC1204000FBE706
:10D3500000207047F0B50127794B8FB01B6806930A
:10D36000069B90331D680793002D1ED0069A9832B5
:10D3700013783B4313706B7B581E092800D9C7E014
:10D380002C7B51F0EDFD051425256D7B96A6B1BCD7
:10D3900020006B680DAA0CA99847041E00D0BFE0BE
:10D3A000684A0D990C98FDF793FC0FB0F0BD0BAED9
:10D3B000200033006C680DAA0CA9A047041E00D001
:10D3C000AEE032885F4B0D990C98FDF793FCECE7CB
:10D3D000032B2FD102AA16339B1804930CAB039393
:10D3E00008AB02931A239B1801930DAB0093200006
:10D3F0000BAB6C680AAA09A9A0473B000400002CEB
:10D4000000D08DE0504A02A90592192252181278D4
:10D41000029304920C9A08AB03921B780B9A019327
:10D420001A235B181B880A99009309980D9BFDF736
:10D4300099FCBAE7192302AA9B1804930CAB039337
:10D4400008AB02931A239B1801930DAB00932000A5
:10D450000BAB6C680AAA09A9A04700230400CEE719
:10D460000CAE200032006B680DA99847041E57D1FE
:10D470003178344A0D98FDF745FC96E70AAB0193E5
:10D480000DAB009309AE200033006C680CAA0BA909
:10D49000A047041E44D120212A4B3278019302ABCD
:10D4A0005B181B780C9900930B980D9BFDF732FCD1
:10D4B0007BE70BAE200033006C680DAA0CA9A047D7
:10D4C000041E2DD132781F4B0D990C98FDF732FCBC
:10D4D0006BE720006B680DA99847041E20D11949FD
:10D4E0000D98FDF72FFC60E720006B680DA99847A9
:10D4F000041E15D113490D98FDF72CFC55E72000AB
:10D500006B689847041E0BD10E48FDF7EBFB4CE708
:10D5100000220E4B11003800A8241B6898472401F4
:10D52000079850F0BFF90022AB686A732100287B8E
:10D530009847069A98321378BB43137010E7C04699
:10D54000BCB80000F1D50218D9D5021808BF0000F8
:10D5500070B50E00082819D8002A17D0002B15D056
:10D560000D490D68010169184C7B002C11D1280070
:10D570008B604E734A609030983550F04BF92B78A1
:10D58000DB0701D4FFF7E6FE200070BDC124640074
:10D59000FAE7024CF8E7C046BCB80000820400007D
:10D5A0000C4B70B51C680500200090300E0050F048
:10D5B00079F900220300427329003200007B9B6846
:10D5C000984701229834237893432370FFF7C2FED3
:10D5D00070BDC046BCB80000431E984110B5034B57
:10D5E000404200211840FFF7DBFF10BD820300001E
:10D5F00010B501000020FFF7D3FF10BD084B002835
:10D600000BD1196003000C3108700130C0B24B70AF
:10D6100010310928F8D1EC20704700221A60FAE78F
:10D62000BCB80000EC20704710B513000A000121BF
:10D63000FFF78EFF10BD10B513000A000221FFF79F
:10D6400087FF10BD10B513000A000521FFF780FF0A
:10D6500010BD10B513000A000621FFF779FF10BDB9
:10D6600010B513000A000721FFF772FF10BD10B5B7
:10D6700013000A000821FFF76BFF10BD10B513005F
:10D680000A000921FFF764FF10BD0000094A0B00E2
:10D69000126810B5110098310978890704D5002166
:10D6A000D9329847002010BD0A21034AFFF750FFE6
:10D6B000F9E7C046BCB8000051D3021810B51300FA
:10D6C0000A000321FFF744FF10BD10B513000A0044
:10D6D0000421FFF73DFF10BD094A70B5146803002F
:10D6E000202620000D0032001900993051F064FC12
:10D6F000200032002900B93051F05EFC70BDC046F8
:10D70000BCB80000084B70B51C680D002026210035
:10D710003200993151F050FC210032002800B9311B
:10D7200051F04AFC70BDC046BCB80000074B10B5B4
:10D730001C68010020001022D93051F03DFC02236A
:10D74000983422781343237010BDC046BCB8000043
:10D75000094B07B51B681B68002B0AD0198AD868CB
:10D7600001AAFDF73FFC002803D10198FDF7C4FB97
:10D7700007BDFDF7FBFBFBE7C0B8000070B5040078
:10D78000054B21001868056850F096F8A54201D1B4
:10D79000FFF7DEFF70BDC046C0B8000043425841ED
:10D7A000024B40420840186008207047C0B8000093
:10D7B0000820704770B504000D00FFF7DFFF21005F
:10D7C00020002A0010310C30FDF7FCFB002823D08C
:10D7D000174D2868016800291AD0238A0A8A9342C3
:10D7E0000CD304D1E2689446CA68944506D9096806
:10D7F0000029F3D1210050F00DF802E0220050F092
:10D800000FF92B681B689C4201D1FFF7A1FF70BD87
:10D81000210050F035F8F4E76168002904D1054B88
:10D820000A0001201B6898476368A0689847EEE7E4
:10D83000C0B8000008BF000010B5FFF79FFF10BD83
:10D8400030B585B002A84FF0CFFF154D2B681C688E
:10D85000002C0FD0218AE06801AAFDF7C3FB114B11
:10D86000984207D1286850F01DF8210002A84FF017
:10D87000D1FFEAE7FFF76CFF02A850F013F8041E8F
:10D880000BD04168002904D1074B0A0001201B6816
:10D8900098476368A0689847EEE705B030BDC0467A
:10D8A000C0B800008205000008BF000010B5FDF7F9
:10D8B0006FFB10BD73B50D1814008D4201D20134F9
:10D8C000A4B26B469E1C310001A8FDF761FB3288B3
:10D8D000019BA24204D100209D4205D9E81A03E031
:10D8E0000020A41A012CF9D076BD37B56B46040090
:10D8F0009D1C290001A8FDF74BFB2888238A019A6B
:10D90000E168984204D100208A4205D2881A03E0D7
:10D910001B1A0020012BF9D03EBDF7B505000C0005
:10D920001600FFF76BFE03270330B84323183200BD
:10D93000190028000193FFF72DFB019BC019B84384
:10D940001B183200190028000193FFF727FF019BE5
:10D95000C019B8431818001B80B2FEBD70B5050091
:10D96000FFF760FE040028000326FFF7BDFA03342A
:10D970008019B043B44324182800FFF719FF801919
:10D98000B043A4B2201880B270BD0000074A030063
:10D990001268506C002800D17047027B9A4202D175
:10D9A000427B8A42F8D00068F4E7C046C4B8000061
:10D9B000F7B5050008680C001E38062800D9B7E046
:10D9C00051F0CEFA04243349708A9C000B89CA882E
:10D9D00001A88988FFF744FB041E15D108215B4884
:10D9E000FCF7F6FF1E230360019B84801A7B010075
:10D9F00082715B7BC3712800FDF709F8544B0199D4
:10DA0000186844304FF006FF2000FEBD49792079A8
:10DA1000FFF7BCFF00284BD0FFF7EAFB00222900EC
:10DA20001F2000F091FB0024EEE720794979FFF7F1
:10DA3000ADFF041E3CD0837B012B05D1444B21005C
:10DA4000186844304FF038FF2000FFF7E5FB002254
:10DA500029002020E5E749792079FFF797FF071E85
:10DA600026D001893948103189B2FCF7B1FF002472
:10DA7000212301000600848003603B7B1031837109
:10DA80007B7BC371BB8803813B894381FB88838196
:10DA9000BB7BC3813800FFF741FC31002800FCF755
:10DAA000B6FFB1E749792079FFF770FF002842D12E
:10DAB000284CA9E7002B09D0FFF762FB041EA3D175
:10DAC00002002900222000F03FFB9DE7FFF766FBE4
:10DAD000F4E7FFF77FFBF1E749792079FFF756FF7D
:10DAE0000028E5D02100E2880831FFF707FC041E7A
:10DAF00000D089E7220029002320E4E74979207932
:10DB0000FFF744FFE1790600A079FFF73FFF01002E
:10DB1000002ECDD00028CBD0002330003289FFF773
:10DB2000CDFB041E00D06FE7020029002420CAE7C5
:10DB3000C124640068E7A279E3792189002AB9D178
:10DB4000002BC6D0FFF738FBB8E7C04679C8000005
:10DB5000C4B80000820200000B4B70B51B680E00B9
:10DB60001C681500002C02D02368002B05D0002271
:10DB7000064B110003201B689847231D14343360A3
:10DB800000202C6070BDC046C4B8000008BF000073
:10DB9000F8B51D000B4B0F001B6816001C68002C0D
:10DBA00002D02368012B05D00022074B110003206F
:10DBB0001B689847A31D3B6010333360A388002087
:10DBC0002B80F8BDC4B8000008BF00000B4B70B537
:10DBD0001B680E001C681500002C02D02368022B65
:10DBE00005D00022064B110003201B689847631DD7
:10DBF0003360237900202B7070BDC046C4B800008C
:10DC000008BF0000F8B51F000F4B0E001B68150081
:10DC10001C68002C02D02368032B05D000220B4B7C
:10DC2000110003201B6898472379079A3B7063799A
:10DC300000201370A31D336010332B60237916333B
:10DC4000E418069B1C60F8BDC4B8000008BF0000C3
:10DC5000F8B51D000B4B0F001B6816001C68002C4C
:10DC600002D02368042B05D00022074B11000320AB
:10DC70001B689847631D3B60103333602379002095
:10DC80002B70F8BDC4B8000008BF0000094B70B588
:10DC90001B680D001C68002C02D02368052B05D0E2
:10DCA0000022054B110003201B6898470434002014
:10DCB0002C6070BDC4B8000008BF0000094B70B5EF
:10DCC0001B680D001C68002C02D02368062B05D0B1
:10DCD0000022054B110003201B68984704340020E4
:10DCE0002C6070BDC4B8000008BF0000F7B50193F8
:10DCF0001F4B0F001B6816001C68002C03D0236804
:10DD0000073B012B05D900221A4B110003201B6889
:10DD1000984722680023A588072A00D1A379ED1827
:10DD2000ADB22900083189B21348FCF751FE230037
:10DD30000833C5803B6010333360E379019A2533A3
:10DD4000E31813600200089B08321A60A388099A3E
:10DD50001380A3790A9A137022000B9B25321A6054
:10DD6000E3790C9A1370024B1B6858600020FEBDCB
:10DD7000C4B8000008BF000079C80000F7B506006D
:10DD8000019110482821FCF723FE0F4D04002F6855
:10DD90003B681B6886800360002E04D12022019915
:10DDA000063051F009F93868FCF748FE2100FCF70D
:10DDB0002EFE2B681868FCF725FE00222B681A60DF
:10DDC0005A60F7BD79C80000C4B80000F7B5060076
:10DDD0000091144848210192FCF7FAFD124D04000D
:10DDE0002F683B681B6886800360002E0AD12022C2
:10DDF0000099063051F0E0F82000202201992630E9
:10DE000051F0DAF83868FCF719FE2100FCF7FFFD45
:10DE10002B681868FCF7F6FD00222B681A605A6020
:10DE2000F7BDC04679C80000C4B80000F7B52D4F53
:10DE30000D003B6816001968002904D12A4B0A001E
:10DE400003201B6898473B681A6812680192082AE9
:10DE500015D8100051F084F8050505051C2630443E
:10DE6000440018212148FCF7B3FD0400002D04D123
:10DE700010220630310051F09FF8002C25D13B686C
:10DE80001868FCF7BFFD00223B681A605A60F7BDB6
:10DE900028211648FCF79CFD0400002DEDD121221D
:10DEA0000630E7E710211148FCF792FD0400002D31
:10DEB000E3D108220630DDE708210C48FCF788FD95
:10DEC0000400002DD9D133788371019BA580236094
:10DED0003B681868FCF7B2FD2100FCF798FDCEE71F
:10DEE0005C68CAE7C4B8000008BF000079C8000039
:10DEF0000A6870B50B00040000200C2A0ED8100030
:10DF000051F02EF8070D13191F252B31373D605C9A
:10DF100066000820374A3849FFF786FB70BD354A4E
:10DF200036490820FFF787FBF8E7324A34490820D2
:10DF3000FFF788FBF2E72F4A32490820FFF789FBF9
:10DF4000ECE72C4A30490820FFF78AFBE6E7294A2C
:10DF50002E490820FFF78BFBE0E7264A2C490820D2
:10DF6000FFF78CFBDAE7234A2A490820FFF7A6FBD4
:10DF7000D4E7204A27490820FFF7A7FBCEE748212E
:10DF80002548FCF725FD0024092301000500036056
:10DF9000263184800630FFF7B5FB204E33681868C1
:10DFA000FCF74CFD2900FCF732FD33681868FCF7DC
:10DFB00029FD33681C605C600020AFE71848FCF75F
:10DFC000EDFEF9E7174A2431181DFCF707FFF3E7C8
:10DFD000081DFFF7ABFB210000220C2000F0B4F875
:10DFE0000E4C23681868FCF70DFD002023681860AC
:10DFF000586093E72DDE021859DB021891DB0218F6
:10E00000CDDB021805DC021851DC02188DDC021889
:10E01000BDDC0218EDDC021879C80000C4B80000AD
:10E02000CDDD02187DDD021870B5082104000B4813
:10E03000FCF7CEFCE5B20100200A80B2022D07D821
:10E040001422E4B25443064B1B681C1900232361BD
:10E0500000230D710B60FCF7DAFC70BD7AC800007C
:10E06000C4B80000F8B50B6807000D00142B03D0EE
:10E07000152B2FD00020F8BD08212348FCF7A8FC61
:10E08000224B060018680469002C0BD0436A002B51
:10E0900007D0836B0224002B04D0B0230324DB00C1
:10E0A0000FE00124142223005343194AC118CA6007
:10E0B0003A02083322430A61C0186968FFF77AFB05
:10E0C00000232A68310038003260B380B471FCF755
:10E0D0009EFCCFE70879022812D80C4B1A6814234B
:10E0E000584314182369002B0AD008301018FFF782
:10E0F000A3FB002222613900286800F025F8B9E767
:10E10000C1225200F7E7C04679C80000C4B8000039
:10E1100029E0021810B50A4C002802D121604C20D9
:10E1200010BD23681868002801D0FCF76BFC236839
:10E130005868002801D0FCF765FC00232360EEE757
:10E14000C4B800004C20704770B506000C000648AB
:10E1500008211500FCF73CFC0660858001002000CA
:10E16000FCF755FC70BDC04679C80000F8B51F4BE0
:10E170000D001400984232D11D4F3A681668002EE7
:10E180002BD12368152B06D8132B1DD80C2B0AD99D
:10E19000C122520012E01E3B062BF9D821002800B4
:10E1A000FFF706FC14E0146021002800FFF7A0FE32
:10E1B00002000120002A0FD03B681E602900206861
:10E1C000FFF7C2FF002007E021002800FFF74AFF09
:10E1D000020000208242F1D1F8BD064AEEE7064B6C
:10E1E0000A001B68010002209847EBE778C800008E
:10E1F000C4B800008202000008BF000010B5024B46
:10E200001B685B69984710BDC8B8000010B5034B88
:10E210005C221B685B6D984710BDC046C8B8000003
:10E2200010B5034B61221B685B6D984710BDC0465B
:10E23000C8B8000010B5034B5D221B685B6D9847A2
:10E2400010BDC046C8B8000010B5034B62221B6861
:10E250005B6D984710BDC046C8B8000010B5041EDD
:10E2600001D104F0DFFD034B20001B685B68984779
:10E2700010BDC046C8B8000010B5041E08D101206A
:10E28000064906F07FFC002807D0200004F0CAFDF4
:10E29000034B20001B685B68984710BD5DE20218C5
:10E2A000C8B8000070B5040004F0FAFF104E002852
:10E2B0001AD104F0BDFE851E6B425D41EDB2002C0B
:10E2C00006D102280AD113F041FA012004F0AAFD78
:10E2D000290033681B682000984770BD11F0C4FB0B
:10E2E0000028F2D00400F3E7336800211B68F2E74E
:10E2F000C8B8000010B5002843D00368002B40D0F8
:10E300004368002B3DD08368002B3AD0C368002BB4
:10E3100037D00369002B34D04369002B31D0836997
:10E32000002B2ED0C369002B2BD0036A002B28D0E2
:10E33000436A002B25D0836A002B22D0C36A002BAE
:10E340001FD0036B002B1CD0C36B002B19D0036CA8
:10E35000002B16D0436C002B13D0002911D00B6872
:10E36000002B0ED04B68002B0BD08B68002B08D0F5
:10E37000CB68002B05D0074B18600020064B1960B6
:10E3800010BD0022054B012011001B689847C120D9
:10E390004000F5E7C8B80000CCB8000008BF000096
:10E3A000084B10B51B68002B01D1074810BD04F0C5
:10E3B000BDFE0028F9D102000100044B06F0C0FBAD
:10E3C000F4E7C046C8B8000082020000A5E20218C7
:10E3D000074B10B51B68002B01D1064810BD04F097
:10E3E000A5FE0028F9D00449002006F0CBFBF5E794
:10E3F000C8B800008202000079E2021810B50A00D5
:10E4000000230321FEF72CFE10BD10B5FEF704FF1C
:10E4100010BD13B504AC247800940BF079FB16BD45
:10E42000F0B585B00AAC0BAD0CAE0DAF24782D88DD
:10E4300036783F7802960397019500940BF076FCAE
:10E4400005B0F0BD7FB508AC09AD0AAE24782D78D3
:10E4500036880195029600940BF008FC04B070BD5C
:10E4600010B50BF0EBFC10BDF7B504000D00160065
:10E470001F0004F05BFE002808D1089B32000093C7
:10E4800029003B00200001F0D7FEFEBD0048FCE75C
:10E490008202000010B5FF2804D0142902D803F02E
:10E4A00097FF10BDC1204000FBE710B5FF2804D046
:10E4B000142902D804F016F810BDC1204000FBE773
:10E4C00070B504000D0004F031FE002805D12900CC
:10E4D0002000034A06F01AF970BD0248FCE7C04666
:10E4E000FDE102188202000010B506F031F910BDFE
:10E4F00010B506F0F5F810BD10B5040004F0B6F93B
:10E500000100200005F070F810BD10B50EF024FADF
:10E5100010BD13B5049C00940EF026FA13BD10B57F
:10E520000EF058F810BD10B511F046FB10BD10B537
:10E5300011F05AFB10BD70B50D001600040004F078
:10E54000AFFE32002900002803D0200012F0FCF9B1
:10E5500070BD200011F0C0FAFAE77FB508AC09AD34
:10E560000AAE24782D78367801950296009409F049
:10E57000D5FE04B070BD10B509F03CFF10BD10B55C
:10E5800009F07EFF10BD10B50CF0BAFB10BD10B540
:10E5900001200CF0DFFB10BD10B50222FF210CF0B2
:10E5A0007FF810BD10B50CF021FA10BD10B50CF0BD
:10E5B00025FA10BD37B506AC07AD2D882478019536
:10E5C00000940CF06FFA3EBD10B503F0C3F810BD17
:10E5D00010B5C0B203F000F910BD13B56B46DC1DD9
:10E5E000210003F065FB002803D10121207803F00E
:10E5F00081F916BD73B56B469D1D0E00290003F011
:10E6000057FB00280BD16B46DC1D2100300003F0C6
:10E6100083FD002803D12978207803F08BFC76BD98
:10E6200013B56B46DC1D210003F042FB002802D12C
:10E63000207803F035FA16BD13B56B46DC1D2100BA
:10E6400003F036FB002802D1207803F053FA16BD00
:10E6500010B512F0DFF910BD10B512F047FA10BD79
:10E6600010B512F015FA10BDF0B585B00AAC0BADBF
:10E670000CAE0DAF24782D7836783F78029603974C
:10E680000195009412F0C6FA05B0F0BD10B512F075
:10E6900023FB10BD10B5024B03F0C6F810BDC046F9
:10E6A0000DE2021873B56B46DE1D0C00310015003B
:10E6B00003F0FEFA002805D1290020003278024B31
:10E6C00003F0D6FB76BDC04621E2021837B56B4693
:10E6D000DD1D0C00290003F0EBFA002804D1210015
:10E6E0002878024A03F06CF93EBDC04635E20218B4
:10E6F00073B56B46DE1D0C003100150003F0D8FA2F
:10E70000002805D1290020003278024B03F01CFDBF
:10E7100076BDC04649E2021810B50EF033FE10BDBA
:10E7200010B50EF045FE10BD10B50EF067FE10BD21
:10E7300010B50EF0A5FE10BD10B50EF015FF10BD02
:10E7400010B50EF05DFF10BD13B5049C00940EF0E3
:10E75000A9FF16BD10B50FF031F810BD37B506ACE6
:10E7600007AD2D882488019500940FF093F83EBDE5
:10E7700010B50FF0F7F810BD10B50FF031F910BD5E
:10E78000F0B589B0079312AB1B780EAC9C46139B77
:10E790000FAD10AE11AF24782D7836783F78059301
:10E7A0006346039704930296079B019500940FF02C
:10E7B00063F909B0F0BD10B50FF0C2FA10BD10B585
:10E7C0000FF0D8FA10BD13B504AC247800940FF004
:10E7D00007FB16BD37B506AC07AD2D88247801952B
:10E7E00000940FF033FB3EBD044B10B5984202D8A5
:10E7F00000F0A8FF10BD13F047F8FBE759C8000070
:10E80000F7B5150000222A4B04001A602A000F00F9
:10E8100006F038F903260330B0433B1819002A00EC
:10E82000200001930FF062FB019B8019B0431B187D
:10E8300019002A002000019301F0F8FA019B8019C9
:10E84000B0431B1819002A002000019306F0A6FF10
:10E85000019B8019B0431B1819002A002000019366
:10E860000CF0ACFA019B8019B0431B1819002A0068
:10E870002000019312F072FE019B8019B0431B1817
:10E8800019002A002000019312F0D2FF019B801989
:10E89000B0431E18002C07D12B68DB0304D52A00D7
:10E8A0003100200000F040FFF01B80B2FEBDC046EA
:10E8B000C8B8000070B5050001F00BFB040028008B
:10E8C000032606F0F9F803348019B043B443241842
:10E8D000280006F025FF8019B043A4B224182800B0
:10E8E0000FF036FB8019B043A4B2241828000CF0B6
:10E8F000A8FA8019B043A4B22418280012F022FE0E
:10E900008019B043A4B22418280012F0A9FF80197E
:10E91000A4B2B0432B682418A4B2DB0302D52800AC
:10E9200000F00EFF200070BD10B5024B1B689B6904
:10E93000984710BDC8B8000010B5024B1B68DB69D2
:10E94000984710BDC8B8000010B5024B1B681B6883
:10E95000984710BDCCB8000010B5024B1B685B682F
:10E96000984710BDCCB8000010B5024B1B689B68DF
:10E97000984710BDCCB8000010B5024B1B68DB688F
:10E98000984710BDCCB80000F8B50D000231070063
:10E9900089B209481600FCF71BF804002A00310070
:10E9A00007704570023050F007FBFCF741F821007A
:10E9B000FCF72DF8F8BDC04620C8000010B5024B8A
:10E9C0001B681B6A984710BDC8B8000010B5024B01
:10E9D0001B685B6A984710BDC8B8000010B5024BB1
:10E9E0001B689B6A984710BDC8B8000037B5002562
:10E9F00006AC6557024C24680095E46AA04737BD11
:10EA0000C8B8000010B5024B1B681B6B984710BDBF
:10EA1000C8B8000010B5024B1B685B6B984710BD6F
:10EA2000C8B8000010B5024B1B689B6B984710BD1F
:10EA3000C8B8000010B5024C2468E46BA04710BDB4
:10EA4000C8B8000037B506AC2578034C246800959B
:10EA5000246CA04737BDC046C8B8000010B5024BB3
:10EA60001B685B6C984710BDC8B8000010B5024B1E
:10EA70001B689B6C984710BDC8B8000010B5024BCE
:10EA80001B68DB6C984710BDC8B80000F0B587B0B4
:10EA90000CAC25780DAC26880EAC27780FAC2488FA
:10EAA0000593A4466346054C246803930297019698
:10EAB0000095246D059BA04707B0F0BDC8B80000C5
:10EAC00010B502F01FF910BD10B502F025F910BD08
:10EAD00070B506000D0006480821FBF779FF040019
:10EAE00006604560FBF7A4FF2100FBF790FF70BDB7
:10EAF0002CC8000070B5022105000548FBF768FF2F
:10EB000004000580FBF794FF2100FBF780FF70BD38
:10EB10002BC80000F8B507000E00074804211500B7
:10EB2000FBF756FF040007808670C570FBF780FF77
:10EB30002100FBF76CFFF8BD29C8000070B5022169
:10EB400005000548FBF744FF04000580FBF770FF54
:10EB50002100FBF75CFF70BD28C80000F8B5060077
:10EB60000D00074808211700FBF732FF040007607B
:10EB700086808571FBF75CFF2100FBF748FFF8BD3D
:10EB800001C80000F0B587B001930CAB1B780600FC
:10EB900002930DAB1B880F0003930EAB1B7814215F
:10EBA00004930FAB1B880E4815000593FBF710FF6D
:10EBB000C82304000360019BC7804372029B067157
:10EBC0008372039B05728381049B8373059B03827D
:10EBD000FBF72EFF2100FBF71AFF07B0F0BDC04680
:10EBE00005C8000070B5042105000548FBF7F0FEDC
:10EBF00004000560FBF71CFF2100FBF708FF70BD58
:10EC000005C80000F8B507000E0008480C211500E3
:10EC1000FBF7DEFE8423040003600771C6800581D4
:10EC2000FBF706FF2100FBF7F2FEF8BD04C8000069
:10EC300070B5082105000648FBF7CAFE82230400D0
:10EC400003600571FBF7F4FE2100FBF7E0FE70BDE9
:10EC500004C8000070B506000D0007480821FBF746
:10EC6000B7FEB423040003600671C580FBF7E0FE25
:10EC70002100FBF7CCFE70BD04C8000070B5060093
:10EC80000D0006480221FBF7A3FE04000670457044
:10EC9000FBF7CEFE2100FBF7BAFE70BD46C80000B0
:10ECA000F7B5009308AB1B7807000E005BB2062196
:10ECB000094815000193FBF78BFE0400009B0780B9
:10ECC0000371019B8670C5704371FBF7B1FE210093
:10ECD000FBF79DFEF7BDC0463CC8000070B50600BE
:10ECE0000D0006480421FBF773FE040006804580F2
:10ECF000FBF79EFE2100FBF78AFE70BD3DC80000B9
:10ED0000F8B507000E00074804211500FBF760FE68
:10ED10000400C77006808570FBF78AFE2100FBF7B0
:10ED200076FEF8BD16C8000010B500210448FBF7B8
:10ED30004FFE0400FBF77CFE2100FBF768FE10BDD0
:10ED400015C8000070B5012105000548FBF740FE1D
:10ED500004000570FBF76CFE2100FBF758FE70BD48
:10ED60001EC8000070B5012105000548FBF730FE04
:10ED700004000570FBF75CFE2100FBF748FE70BD48
:10ED800014C8000070B506000C00064808211500E4
:10ED9000FBF71EFE0660858001002000FBF737FEB2
:10EDA00070BDC04601C8000010B50400FBF740FE6E
:10EDB000220001005020FFF7E5FF10BD10B5040050
:10EDC000FBF736FE220001000120FFF7DBFF10BD3C
:10EDD000F8B507000E00074804211500FBF7F8FD01
:10EDE0000400077046804570FBF722FE2100FBF708
:10EDF0000EFEF8BD35C8000010B500210448FBF731
:10EE0000E7FD0400FBF714FE2100FBF700FE10BD38
:10EE100033C8000070B506000D0006480421FBF75A
:10EE2000D7FD040006704580FBF702FE2100FBF7CA
:10EE3000EEFD70BD32C8000070B506000D00074839
:10EE40000821FBF7C5FD002304000360868085715F
:10EE5000FBF7EEFD2100FBF7DAFD70BD01C80000F5
:10EE600070B5082105000648FBF7B2FD68230400D1
:10EE700003608580FBF7DCFD2100FBF7C8FD70BD5A
:10EE800001C80000F0B51C0085B00AAB1E780291E5
:10EE9000A719F91C0190890025480392FBF798FDFA
:10EEA0009F230100877200270360029B0B9A037166
:10EEB000019B0500C380039B0C3103816000131884
:10EEC0000193A4B2019B9A420BD1A6190C98B6B239
:10EED000B44214D1FBF7ACFD2900FBF798FD05B057
:10EEE000F0BD13789C46604653788F701B02034335
:10EEF0000B701B0A4B70CF7002320431E2E743788B
:10EF0000027881781B021343C2780904671C0B4303
:10EF1000033412061A43A4002C19130A22706370DA
:10EF2000130C120EA370E2700430BCB2D0E7C046DE
:10EF300004C80000F0B587B001930CAB1B88060035
:10EF400002930DAB1B880F0003930EAB1B8814219B
:10EF500004930FAB1B780E4815000593FBF738FDA3
:10EF60009E2304000360019B07714381029BC680BE
:10EF70008381039B0581C381049B0382059B83746A
:10EF8000FBF756FD2100FBF742FD07B0F0BDC04680
:10EF900004C80000F7B506000F000A48102115004C
:10EFA0000193FBF715FD9C2304000360019B07718F
:10EFB000C6800581C360FBF73BFD2100FBF727FD01
:10EFC000F7BDC04604C80000F7B5009308AB1B8826
:10EFD00006000F000B48142115000193FBF7F8FC05
:10EFE0009A2304000360009B07714381099BC6803C
:10EFF000C360019B05720382FBF71AFD2100FBF73A
:10F0000006FDF7BD04C80000F0B585B002930AAB59
:10F01000019204CB0F001D88060029000A31490027
:10F0200089B214480392FBF7D3FC99230100040032
:10F030000360019B0C9A0372029B05824381039B30
:10F040006D000771C680C36012315519AA4206D1FE
:10F05000FBF7EEFC2100FBF7DAFC05B0F0BD5378BE
:10F0600010781B0203430B701B0A4B7002320231F3
:10F07000ECE7C04604C80000F0B585B002930AABC7
:10F08000019204CB0F001D88060029000A314900B7
:10F0900089B214480392FBF79BFC982301000400FB
:10F0A0000360019B0C9A0372029B05824381039BC0
:10F0B0006D000771C680C36012315519AA4206D18E
:10F0C000FBF7B6FC2100FBF7A2FC05B0F0BD5378BE
:10F0D00010781B0203430B701B0A4B700232023183
:10F0E000ECE7C04604C80000F0B589B002930EAB4F
:10F0F0001B88050003930FAB1B880E00049310AB15
:10F100001B782021059311AB1B781448069313AB91
:10F110001B780192079314AB1F78FBF759FC9723D8
:10F1200004000360019B06710372029BC58043814A
:10F13000039B47768381049BC381059B0374069BD5
:10F140004374129B4361079B0376159BC361FBF7D6
:10F150006FFC2100FBF75BFC09B0F0BD04C80000A8
:10F16000F7B5009308AB1B8806000F000A48102172
:10F1700015000193FBF72CFC962304000360009B11
:10F1800007714381019BC68005728381FBF750FCA8
:10F190002100FBF73CFCF7BD04C80000F7B5009365
:10F1A00008AB1B7806000F000A48102115000193D8
:10F1B000FBF70EFC952304000360009B077143815D
:10F1C000019BC68005720373FBF732FC2100FBF73D
:10F1D0001EFCF7BD04C8000070B505000E0007480E
:10F1E0000821FBF7F5FB9B23040003600671C58033
:10F1F000FBF71EFC2100FBF70AFC70BD04C80000F1
:10F20000F7B5009308AB1B7806000F000A481021E1
:10F2100015000193FBF7DCFB942304000360009BC3
:10F2200007714381019BC68005720373FBF700FCE5
:10F230002100FBF7ECFBF7BD04C80000F7B5019314
:10F2400008AB1D880F00290008314900060089B26B
:10F2500012480092FBF7BCFB9323010004000360FB
:10F26000009B099A0372019B85816D000771C6801E
:10F2700043810E315519AA4205D1FBF7D9FB210074
:10F28000FBF7C5FBF7BD537810781B0203430B70E7
:10F290001B0A4B7002320231EDE7C04604C8000081
:10F2A000F7B506000F000A480C2115000193FBF783
:10F2B0008FFB922304000360019B0771C6800572D7
:10F2C0004381FBF7B5FB2100FBF7A1FBF7BDC0466F
:10F2D00004C80000F0B587B000930CAB1B88060093
:10F2E00001930DAB1B780F0002930EAB1B7814211A
:10F2F00003930FAB1B781048049310AB1B781500D9
:10F300000593FBF765FB912304000360009B0771E5
:10F310004381019BC6808381029B05728373039B9B
:10F32000C373049B0374059B4374FBF781FB2100AB
:10F33000FBF76DFB07B0F0BD04C80000F0B587B067
:10F3400000930CAB1B78060001930DAB1B780F00EC
:10F3500002930EAB1B78142103930FAB1B8810484C
:10F36000049310AB1B8815000593FBF731FB90232A
:10F3700004000360009B07714381019BC6800373F7
:10F38000029B05724373039B8373049B0382059B5B
:10F390004382FBF74DFB2100FBF739FB07B0F0BDC3
:10F3A00004C80000F7B5009308AB1B7806000F00F7
:10F3B0000A480C2115000193FBF70AFB8F23040078
:10F3C0000360009B07714372019BC68005728372C4
:10F3D000FBF72EFB2100FBF71AFBF7BD04C800006A
:10F3E000F7B506000F000A480C2115000193FBF742
:10F3F000EFFA8E2304000360019B0771C68005723B
:10F400004372FBF715FB2100FBF701FBF7BDC0467C
:10F4100004C80000F7B50F00991D4900060089B225
:10F4200010481C000192FBF7D3FA8D23019A048146
:10F430006400050003600771C68014190A30A242F7
:10F4400005D1FBF7F5FA2900FBF7E1FAF7BD517892
:10F450001378090219430170090A4170023202301F
:10F46000EDE7C04604C80000F8B506000F000848E4
:10F470000C211500FBF7ACFA8C2304000360077124
:10F48000C6800572FBF7D4FA2100FBF7C0FAF8BD7D
:10F4900004C80000F8B506000F0008480C2115004C
:10F4A000FBF796FAA023040003600771C68005727B
:10F4B000FBF7BEFA2100FBF7AAFAF8BD04C800006A
:10F4C00070B506000C00064808211500FBF780FA0D
:10F4D0000660858001002000FBF799FA70BDC046E8
:10F4E00003C80000F7B51D0008AB1B7807000091AA
:10F4F0000F48202116000193FBF76AFA81230400CC
:10F500000360009B310087808371102207304FF029
:10F5100053FD20002900062217304FF04DFD019BBE
:10F520006377FBF785FA2100FBF771FAF7BDC04658
:10F5300004C80000F7B507000E000C481C211D0090
:10F540000192FBF745FA802304000360019B290028
:10F5500083721022476006810B304FF02DFDFBF7C0
:10F5600067FA2100FBF753FAF7BDC04604C8000054
:10F57000F8B506000D000C484421FBF729FA2027B6
:10F58000AA2304003A0008C031004FF015FD200006
:10F590003A00290024304FF00FFDFBF749FA210013
:10F5A000FBF735FAF8BDC04604C80000F7B50F00F8
:10F5B00019000C31060089B20B481D000192FBF7BF
:10F5C00007FA9D2304000360019B2A000372089937
:10F5D0000771C68045810C304FF0EEFCFBF728FA2E
:10F5E0002100FBF714FAF7BD04C80000F7B501933A
:10F5F00008AB1D780F002900060010310C4800925E
:10F60000FBF7E6F9A12304000360009B2A000372C4
:10F61000019B099943810771C68005730D304FF036
:10F62000CBFCFBF705FA2100FBF7F1F9F7BDC0466B
:10F6300004C80000F8B505000E0008480C211700AA
:10F64000FBF7C6F904000570476006812800FFF744
:10F650003BFA2100FBF7DBF9F8BDC0460EC80000FD
:10F6600070B505000E0007480821FBF7B1F904004A
:10F67000057046602800FFF727FA2100FBF7C7F95D
:10F6800070BDC0460AC80000F0B587B002930CAB4D
:10F690001B88019103930DAB1B7816005BB204939A
:10F6A0000EAB1B78050005931789938839000C3140
:10F6B00089B20F483436F618FBF78AF90400029B2A
:10F6C0003A004370049B31008370059B0570C37042
:10F6D000019B47814360039B03810C304FF06CFC1E
:10F6E0002800FFF7F1F92100FBF791F907B0F0BD11
:10F6F0000CC80000F7B505000F000A4804211600E9
:10F700000193FBF765F90400019B05704380477086
:10F710002800FFF7D9F92100FBF779F93000FEF74F
:10F7200074FEF7BD0DC8000010B503490348FEF78D
:10F73000E1FD002010BDC0460CFE0218B4FD021809
:10F7400000207047F0B51400954A03000D008BB0FF
:10F75000904200D1E6E217D8E0229201821892B2DC
:10F760000B2A1DD88F4A80180B2819D84FF00CFC93
:10F770001F0018006802180018001800AB021800DB
:10F78000180018001800D402874A904200D1D8E22D
:10F79000864A904200D1D8E2854A904200D1C7E221
:10F7A000844A1900146802202A00A047D0E120688A
:10F7B000842800D941E24FF0E7FB85008900400230
:10F7C00040028C00AB00B100400240024002400207
:10F7D0004002400240024002400240024002400219
:10F7E0004002CC00030140024002400240024002BD
:10F7F0004002400240022F0140024002400240020B
:10F80000400240024002400240023A0140024002EF
:10F8100040024002400240024002400240024901D0
:10F8200040024002400240024002400240024002C8
:10F8300040024D015A016001640169014002400229
:10F840004002400240026F017301800187014002C3
:10F8500040024002400240024002B600BD00C50026
:10F860004002400240024002400240024002400288
:10F870004002930199019E01A201A601AA01B101D2
:10F88000B801BD01C20140024002C801400240026D
:10F89000400240024002CE01D301DA01E201E80158
:10F8A000F201F90104020A02110240024002400280
:10F8B0004002400240024002400240024002250253
:10F8C0002C023502FEF76CFD0600F2E0FEF780FD2B
:10F8D000FAE709AF627A217A0097374B6068FEF742
:10F8E000C3FD061E079059D108213448FBF770F874
:10F8F000040029003878FFF7E3F80423210023608F
:10F90000079BA3803B78A3712800FBF780F81FE1D9
:10F9100061792079FEF7BEFD020085E061792079EA
:10F92000FEF7C3FDF8E721006368083198B2FEF7DF
:10F93000C7FDC9E7FEF7D8FD290002005120FFF7F7
:10F9400021FA05E16068FEF7D3FD2900020052208C
:10F95000F5E7BE23A2895B009A425AD20023032115
:10F9600009A8FDF77DFB061E18D1099B2100180090
:10F970009B8834300E31A289C0184FF01DFBA3794B
:10F980006279591E8B4120790093A168099BFEF78B
:10F9900040FD061E02D00998FEF737FD320043E015
:10F9A0001FC800000038FFFF34C8000036C8000040
:10F9B0002AC8000008BF00001CFE021801C8000091
:10F9C000BE23228A5B009A4223D20023032109A886
:10F9D000FDF746FB061EE1D1099B210018009B881C
:10F9E00034301231228AC0184FF0E6FAA37BA27994
:10F9F000591E8B4120790393E379591E8B41029361
:10FA0000A389019363790093A168099BFEF708FD20
:10FA1000BFE7C1267600C1E72300E279A179A0887B
:10FA20000833FEF772FD00222900206887E748218D
:10FA3000B448FAF7CDFF01002368060003602631C1
:10FA40000630FEF774FD3100B0805DE72079FEF7E7
:10FA500053FD61E7617CA37BA2890291217C019126
:10FA6000E17B0091A1686068FEF777FD54E7FEF73F
:10FA700082FD290002003D2061E7A088FEF77FFD9E
:10FA80004AE7217A6068FEF77EFD45E7FEF77FFDD5
:10FA900029000200402052E72079FEF77DFD3BE778
:10FAA0002079FEF77FFD0600020029002068FFF79D
:10FAB00069F9002E00D071E74AE02389A2796179C3
:10FAC0002079FEF773FDEEE76389E288617920799A
:10FAD0000193237A009323000C33FEF76BFDE2E7DA
:10FAE0000022A088A11DFEF7D5FDEDE6A088A11D8E
:10FAF000FEF7ECFDE8E6A088FEF76FFD0CE7A088B6
:10FB0000FEF78EFD08E7A088FEF796FD04E72200C9
:10FB1000E188A0880832FEF7C5FDD5E62200E1881D
:10FB2000A0880832FEF7E4FDCEE6E188A088FEF763
:10FB300061FDF1E6A179A088FEF78AFDECE6627D21
:10FB40002079611DFEF788FDE6E66F48FEF788FD27
:10FB500000200BB0F0BDE1882079FEF7E5FDDBE683
:10FB60002200E18820790832FEF7E2FDD4E6230086
:10FB70002289E18820790A33FEF7DEFDCCE6E188B0
:10FB80002079A268FEF7DCFDC6E622001032237B56
:10FB9000E18820790092A268FEF7D6FDBCE6E37901
:10FBA000A27961792079FEF7D5FDB5E6E689A37AD9
:10FBB0002289E188A0880196A6890096FEF7CEFDED
:10FBC000AAE62289E188A088FEF7D2FDA4E6228970
:10FBD000E1882079E368FEF7CFFD9DE622002669E3
:10FBE0002389E18820790596A67B16320496667BE8
:10FBF0000396267B0296E67A0196A67A0096FEF791
:10FC0000BFFD89E62389E279A179A088FEF7D7FDB7
:10FC100082E6667A237AE279A179A0880096FEF7D7
:10FC2000D2FD79E66689237AE279A179A0880196E6
:10FC3000667A0096FEF7CEFD6EE6A8263601ADE6A2
:10FC40002368652B0DD8592B0DD918005A380B286D
:10FC500009D84FF085F90D1F08080808080808089A
:10FC6000282C6E2B29D0A82229001800120117E099
:10FC700009AF3A00A18A201DFEF7A6FC0600082164
:10FC80002248FAF7A5FE2368868003603B780100CE
:10FC9000837139E6A088FEF79BFC290002002068EA
:10FCA000FFF70EFC54E71A48FEF736FDF5E7E28849
:10FCB00061792079FEF734FDEFE709AF3900154887
:10FCC000FEF779FDDAE72068C82804D0C92811D0EA
:10FCD000A8221201E4E7257B237AE2886179207962
:10FCE0000395E57A0295A57A0195647A0094FEF76A
:10FCF000BBFC2DE7220020792532611DFEF7C6FCF2
:10FD000026E7C04601C8000061EE021803C80000E3
:10FD10005CFD0218ACFD0218628820786168FEF76D
:10FD20009FFB15E761782078A21CFEF7F8FB0FE730
:10FD3000637922796188207806340094FEF7E9FB24
:10FD400006E72000FEF7EFFB02E720786178431E0C
:10FD50009841A21CC0B2FEF7EEFBF9E669F4021866
:10FD600015F40218E1F30218A5F302183DF3021886
:10FD7000D5F20218A1F202183DF2021801F202189F
:10FD8000D9F102189DF1021861F10218E9F0021888
:10FD900079F0021809F00218C9EF021895EF02185D
:10FDA000ADF5021835EF021885EE021895F4021829
:10FDB000EDF5021839EE0218BDED021815EE021825
:10FDC000F9ED0218D1ED0218A9ED021865ED02183F
:10FDD00045ED021829ED021801ED0218DDEC0218BC
:10FDE000A1EC02187DEC021855EC021871F502180E
:10FDF00035F50218E5F4021831EC021805EC02188A
:10FE0000E5EB021885EB02185DEB02183DEB0218DA
:10FE100015EB0218F5EA0218D1EA021889F6021861
:10FE2000F5F6021861F6021835F60218F7B5150056
:10FE300004000F0002F0BAFE03260330B0433B1863
:10FE40002A0019002000019300F0A8F9019B8019F5
:10FE5000B0431B182A0019002000019302F096FFFE
:10FE6000019B8019B0431B182A0019002000019340
:10FE700004F0FCFB019B8019B0431B182A001900F9
:10FE80002000019303F030FB019B8019B0431B1845
:10FE90002A0019002000019303F0CCFC019B80197B
:10FEA000B0431B182A0019002000019303F048FDFD
:10FEB000019B8019B0431B182A00190020000193F0
:10FEC00003F04EFE019B8019B0431818C01B80B28E
:10FED000FEBD70B5050001F021FC040028000326DA
:10FEE00000F076F903348019B043B4432418280095
:10FEF00002F07EFF8019B043A4B22418280004F059
:10FF0000EDFB8019B043A4B22418280003F0FCFADA
:10FF10008019B043A4B22418280003F0A3FC801970
:10FF2000B043A4B22418280003F026FD8019B04382
:10FF3000A4B22418280003F025FE8019B043A4B20F
:10FF4000201880B270BD70B50400008A012805D168
:10FF5000608B401A431E984180B270BD0028FCD0CF
:10FF60000023451EADB2EA1A52109A1892B216003A
:10FF70000C367600A61976888E4217D0AB42ECD0AC
:10FF80008E4211D315005A1C9542ECD10B3252000F
:10FF9000A21852888A420BD00D335B00E4186388A4
:10FFA0008B42DAD12800D8E71300ECE71000D4E741
:10FFB0001800D2E7184B10B51A68F0239B00D258EE
:10FFC000131E21D0002311899CB28B4210D3002331
:10FFD0008C4219D153898B421BD90124CBB29B008F
:10FFE000D31898819C7309191368118198470AE006
:10FFF0009C1CA4001419A488844207D19B00D31828
:020000041803DF
:100000009A7B01329A730023180010BD0133DBB2D2
:10001000DAE7B023DB00F7E7D0B800001C4B70B57F
:100020001A68F0239B00D4580600002C2BD000281F
:1000300026D0002521898D4225D2AB1C9B00E318D8
:100040009B88B34220D1AA00A218937B013BDBB26C
:100050009373002B17D163683000984722896B1C7B
:10006000934209DAE91C521B0C25890060180431FF
:100070006A4361184EF0A0FF2389013B238102E00F
:1000800063689847268170BD0135EDB2D3E7C0465D
:10009000D0B80000142310B558430D4C236818182D
:1000A0000C4BC2181378002B10D0013BDBB213703D
:1000B000002B0BD1F1239B00C0180088FFF7AEFF87
:1000C00085222168D2008B5C013B8B5410BDC04659
:1000D000D0B80000D6030000F8B5060000241027B1
:1000E0000A4B1D680A4BED182B7C002B06D03A00FA
:1000F000310028004EF052FF002805D00134E4B250
:100100001435052CF0D1FA342000F8BDD0B8000029
:10011000C6030000F7B5060008000D00FFF7DCFF7E
:100120001B4B1C68FF2808D014234343E418194BC9
:10013000E418237801332370FEBD8523DB00E35CE4
:10014000042BF9D80022134BE718D3B201931423E0
:100150005343F95C002903D00132052AF5D1EBE7BE
:10016000F121E218890051180E800A495218012124
:100170001170094A29009818201810224EF01CFF0F
:100180008522D200A35C01980133A354D4E7C04672
:10019000D0B80000D6030000C603000010B50A4C1A
:1001A000002806D10122094B2160CA548620C000D4
:1001B00010BDF02322689B00D058002801D0FAF728
:1001C00045FC00232360F1E7D0B800002A040000BA
:1001D0008620C00070470000024B1A68024BD05CBA
:1001E0007047C046D0B8000029040000F7B50F4B97
:1001F0001D680F4B2C00EB5C01930023019E9E4277
:1002000002D1A02080000BE0277E0A4EBC46AE5BE8
:100210006644864205D126688E4202D100201370C2
:10022000FEBD0133DBB23034E8E7C046D0B8000091
:10023000290400002C040000F7B506000C00009211
:100240000193002B33D01B4B1B4F1D68EB5D132B11
:1002500001D91A48FEBD1A4B089AE85A401880B2D4
:100260003100FFF7C3FFA0239B009842F1D1EA5D64
:10027000089B00991A70531CEB55302353430022FE
:10028000EB181A82019A00985A6001221C761E60AF
:100290001140104208D199750A4B0020EA5CA24235
:1002A000D8D80134EC54D5E702229A75F4E7C1207E
:1002B0004000CFE7D0B8000029040000820200000F
:1002C0002C0400002A040000024B1A683023434328
:1002D00098587047D0B80000094A030012680948CE
:1002E000105C984209D9302058431018037E064804
:1002F000125A00209B180B807047A0208000FBE75B
:10030000D0B80000290400002C040000074B084A64
:100310001B689A5C824206D9302250431B18002089
:100320005B680B607047A0208000FBE7D0B800003E
:1003300029040000F0B587B001930CAB1B7805923F
:1003400002930DAB1F780EAB1B78060003930FAB27
:100350001B780D000493334B1C6830234343E31890
:100360009A7D91075AD5D20706D51A89920B022A8F
:1003700002D1D87BFFF78EFEAB0B022B0BD12800EE
:100380000599FFF7C7FE30237343E318D873FF289E
:100390000DD1B02043E03023FF227343E318DA731A
:1003A000002D04D12F00049503950295019230226F
:1003B0007243A2185368DB68002B17D0917DC907E0
:1003C00005D51189A94202D1127BBA420ED03F2233
:1003D000B9090139C9B264203A40022902D8124849
:1003E000890008584243290030009847302373435E
:1003F000E418019BA27DA372029B0420E372049B7C
:100400003100A373039B2581637301231343277377
:10041000A37504F0A3F9002007B0F0BDF020C000E0
:10042000FAE7C046D0B800002C0D031830B5040020
:10043000134805681348285CA0421AD93020444369
:100440002D19AC7DE443A00716D100202C890C8027
:10045000E97B1170AA7A1A70EB7A039A1370AB7B5E
:10046000069A13702B7B049A13706B7B059A13709A
:1004700030BDA0208000FBE7F020C000F8E7C046B8
:10048000D0B8000029040000F7B530273B4B4743A4
:100490001B680500DF193C8A01937B8A0E001B193B
:1004A000092B00DD66E03800FFF74DFD030000205A
:1004B0009C4227D8012C26D1788BB0428041404203
:1004C000844209D018236B43621E92B201999B1893
:1004D0005B00CB18824245D218236B4318180C30AE
:1004E000019B4000181830236B43019A0134D31844
:1004F00046801C823000FFF75DFD0520290004F0D6
:100500002DF90020FEBD002CE6D018226A43944647
:10051000611E89B267460A1A5210821892B2BF1839
:10052000019B0C377F00DF197F88B74218D3110079
:10053000421C9142EED118236B431A18019F0C32D2
:100540005200BA185288B242BAD85B180C335B001A
:10055000FB185B880800B342B2D8013080B2AFE725
:100560001000E5E7598B023BD983002AB4D0013A49
:1005700092B2AFE7B020C000C4E7C046D0B80000D8
:100580002B4BF7B51D6830234343EB185F8A1B8A5A
:100590000400DB1916000191092B02DDB020C00018
:1005A000FEBD1000FFF798FD03008446FF281DD113
:1005B00031000198FFF7AEFD0300FF28EED0302098
:1005C00060432818428A013291B218226243521ABB
:1005D00016325200AA18418253800198FFF7EAFCB4
:1005E0000520210004F0BAF80020D9E786B21820CF
:1005F0000A226043D71BBFB2013A974209D961462C
:1006000014224A430B49AA1852181178013111706B
:10061000D5E781180C31490069184988B14202D0E8
:10062000013A92B2E9E700200A2AB9D1E7E7C046C9
:10063000D0B80000D6030000F8B53026144B46436E
:100640001D680400AE1930000F00FFF77CFC328AF1
:1006500082420FD918216143013A90420BDB3023CB
:100660006343ED1838002A82FFF7D8FC21000520EB
:1006700004F074F8F8BD0B181E000D367600AE19A4
:100680000C3376885B00EB1801305E8080B2E4E7C3
:10069000D0B80000F7B5284B050008001F6801928C
:1006A000FFF71AFD0023019A1380FF280CD01822AF
:1006B0000A26092430336B43FB185B8A6A43F61A17
:1006C000B6B281B2A64200D9F7BD13190C335B0054
:1006D000FB185B888B4202D0013CA4B2F2E70A2CE3
:1006E000F2D01423F12243439200FB189B181B887D
:1006F000019A1380FFF7CEFCA6420AD330236B4346
:10070000FF187B8A2900013B05207B8204F026F834
:10071000DAE718226A43013CE4B2B442EED313197B
:1007200019000C31490079180D3349885B00FB181A
:10073000013C5980E4B2F0E7D0B80000154BF7B5A2
:100740001E6830230A224343F318598A0400521AC0
:1007500092B201920022092518271A82019B9D421C
:100760000BD2302300206343F6187082FFF756FC4B
:100770002100052003F0F2FFF7BD3B0063435B1946
:100780000C335B00F3189878013DFFF783FCEDB262
:10079000E4E7C046D0B8000030224243034B1B6858
:1007A0009B18188A5B8AC01880B27047D0B80000C6
:1007B00030224243024B1B689B18588A7047C04640
:1007C000D0B80000F7B50C003021070041431820D5
:1007D000009200221F4B78431E6871180B8A9342C7
:1007E0000AD8302300257B43F31812330193019B71
:1007F0001B88AB420CD8F7BD83180C335B00F31891
:100800005B88013223701B0A637092B20234E5E701
:1008100009235A1B0F3314217B439B18F1220C33FD
:100820005B00F3189B789200594373189B181B8840
:1008300023701B0A6370009B0234002B06D0064B0A
:100840001022C918200071184EF0B6FB0135ADB268
:10085000CDE7C046D0B80000C603000070B5234BFA
:1008600004001D68224B0020EB5CA3421CD90BB294
:1008700083420BDB1F4BE85A30235C432D192B7E40
:10088000C018401A43425841C0B20DE08B0B9E0382
:10089000032B0AD1302044432D192800FFF753FBC6
:1008A0002B8A98428041404270BD80231B029E42A9
:1008B000FAD1302363431820EB18598A0A234443A2
:1008C000591A89B2013B96B2994205D90A23D8B286
:1008D0000A38431E9841D7E7E2180C325200AA1892
:1008E0005288B242F3D0013B9BB2EDE7D0B8000092
:1008F000290400002C040000104BF0B51D68F12302
:10090000060000279B00EC18A37CF8B2002B06D051
:100910002388B34203D1002907D00139C9B2013776
:100920001434052FF0D1FF20F0BD002AFCD0142391
:100930007B4303495B18EB181360F5E7D0B8000060
:10094000C60300003022074B42431B6801009B187E
:1009500010B5002B05D0DA7D06200132DA7503F0E0
:10096000FDFE10BDD0B800007FB5174B04001D6818
:1009700030234343EB180E00002B24D0D97D0029EF
:1009800004D1124B0A0003201B68984730236343AD
:10099000EB181A89002A0CD09B7AB34209D10021A6
:1009A000FF230A0020000391029101910091FFF7BB
:1009B000C1FC30236343ED18EB7D2100013B062091
:1009C000EB7503F0CBFE7FBDD0B8000008BF000080
:1009D00030224243024B1B689B18D87D7047C046AB
:1009E000D0B800003022094B42431B6864209B189A
:1009F0003F221B7B1A409B09013BDBB2022B02D832
:100A000003499B00585850437047C046D0B8000077
:100A10002C0D031810B5044B00211A68034BD0525B
:100A2000072003F09BFE10BDD0B800002C0400008E
:100A3000024B1A68024BD05A7047C046D0B800002B
:100A40002C04000010B5094B1A68094BD15A002339
:100A5000814207D8074C125D52180121904200DBF9
:100A600019000B000120184010BDC046D0B800008E
:100A70002C0400002A04000014234343024A9B185C
:100A8000024A1068C0187047C6030000D0B80000C2
:100A9000024B1A68024BD05C7047C046D0B80000C9
:100AA0002A0400000023F0B53026104C104F2468B3
:100AB0000B701370E55D9D4200D8F0BDFF2805D096
:100AC00035005D4365192D7E854207D135005D43B4
:100AD0002D592D0C05D01578013515700133DBB279
:100AE000E8E70D7801350D70F8E7C046D0B8000092
:100AF00029040000144BF0B51D68302300249C46E7
:100B0000124BEB5CA34200D8F0BD63466343EE1882
:100B1000367E86420BD15B591E0C3704002A09D160
:100B2000002F04D10B709BB21B0A4B7002310134B1
:100B3000E4B2E5E7002FFAD00B701F0A1B0E4F70CE
:100B40008E70CB700431F2E7D0B8000029040000A9
:100B5000F0B5F027354EBF00336885B0DC59019001
:100B600002910392002C03D00027380005B0F0BD9D
:100B7000019BD81C8000F9F764FF051E52D0336832
:100B8000D851019B04814381029B0360039B436016
:100B900033680293029A264BD35CA34201D8002704
:100BA0001BE00023019330336343029AD31803936D
:100BB000039B019A1B8A934202D80134E4B2E7E70F
:100BC00018236343019A9B180C33029A5B00D318D5
:100BD0005888FFF7EFF9071E11D0002485223368EB
:100BE000D2009A5CA2420FD8002FBDD02800F9F79E
:100BF0002DFFF023002132689B00D150B5E7019B07
:100C00000133DBB20193D3E7142262439B18F12234
:100C100092009B181888FFF7CDF9071EE6D1013422
:100C2000E4B2DBE7B027FF009FE7C046D0B8000082
:100C30002904000070B5F024054DA4002B68185954
:100C4000002804D0F9F702FF00222B681A5170BD6A
:100C5000D0B80000064B1A68F0239B00D358002B35
:100C600003D01B890370002070470248FCE7C04690
:100C7000D0B80000820200000D4B1A68F0239B00E0
:100C8000D158002291420DD10A487047931C9B0015
:100C9000CB189B8801325BBA9BB203701B0A43706E
:100CA000D2B202300B899342F0D80020EDE7C04663
:100CB000D0B80000820200007FB505000024302675
:100CC0000E4B0F4A1B689A5CA24200D87FBD3200CF
:100CD00062439B181A89002A0CD09B7AAB4209D137
:100CE0000021FF230A00200003910291019100914D
:100CF000FFF720FB0134E4B2E2E7C046D0B80000C1
:100D00002904000030224243024B1B689B18998241
:100D10007047C046D0B8000030224243024B1B68E7
:100D20009B18988A7047C046D0B80000E8030000BE
:100D300010270000C027090010B5DC24064B640012
:100D40001B681855D965DF211A6608224900585CCE
:100D500002435A5410BDC046D4B80000DF2110B57C
:100D60000824074B49001B685A5CA2435A540022CE
:100D7000DA651A6E002A02D00639595C904710BD18
:100D8000D4B80000F0B5BA250F4BFF351C68625D82
:100D9000160013003B367600A619002B09D15B0024
:100DA000E3181E00783679330132317018706255BD
:100DB000F0BD3778023E8F42F1D93771F778013BA9
:100DC0007771DBB2E9E7C046D4B80000F8B5194B3B
:100DD0000100BA25186800230400FF35425D79340C
:100DE0009A4213D1571E5C00BB4217DB002A03D185
:100DF000114B03201B68984700220E4B1B681C19DF
:100E0000783422805A5D013A5A55F8BD0234A71E43
:100E10003F788F42E6D00133DBB2E1E77826B44673
:100E20000419A44466467A34248801333480DBB242
:100E3000D9E7C046D4B8000008BF0000184BF7B58A
:100E40001C68E02301925B00E656E55ABE3BFF3B7F
:100E500073432033FF33E31872B23700002A13DCE8
:100E600003237B43E3181E002336FF36317019003D
:100E7000019A24312533FF31FF3308701A70E023C3
:100E800001355B00E552F7BD1A78013E033B8A420B
:100E9000E6D91F799A71DF715F791F72DCE7C0466E
:100EA000D4B80000264BF0B51C68E0235B000500B9
:100EB0000326E05A0023834202DB032201382DE09F
:100EC00032005A43A21817002437FF373F78AF4249
:100ED00004D12532FF3212788A42EED001335BB260
:100EE000E9E711005D1C694361180E005343233686
:100EF000E318FF3637781E002336FF3637700E00B2
:100F00002436FF3637781E002436FF3625313770F9
:100F1000FF3109782533FF3319706BB28342E0DB70
:100F20005343E3181900002223312533FF31FF33E7
:100F30000A704A701A70E0235B00E052F0BDC046B0
:100F4000D4B80000492F4E4F5F5441473A61646462
:100F50005F6E65745F6B65795F6C69643D25642CB9
:100F60006164645F6170705F6B65795F6C69643D3B
:100F700025642C696E6465783D25642C6169643D47
:100F800025640000F0B5DD240B001B4964000E68E9
:100F900085B0315D03913557B83CFF3C6C438934D3
:100FA00034196FB2002F18DC03246C433419270066
:100FB0008D373A708E34013F38702370DD240399E9
:100FC00064000131315501920C4A009514680C49B6
:100FD00002000120A04705B0F0BD2778874203D862
:100FE000E2D161789142DFD96178E770A778217109
:100FF0006771013D033CD4E7D4B80000B0BE0000E7
:10100000440F0318284BF7B51D68DD230024032681
:101010005B00EA5C944202DB531E019328E033003C
:101020006343EB181F008C373F78874203D18E3320
:101030001B788B42F0D0013464B2EBE70321032329
:10104000661C4C438A318C467343EB181F002C19E5
:10105000A44461468D373F780F701F008C37397874
:1010600027008C3739708E331B788E34237074B21E
:10107000019B9C42E2DB002A04D10C4B01001B685F
:101080000320984703235C432C19220000238D3250
:101090001370013A1370DD228E3423705200AB5C62
:1010A000013BAB54F7BDC046D4B8000008BF0000F8
:1010B000F7B50193274B00921D68E1235B00EB5CC1
:1010C0000F0018339B00EB185C68002C39D0631DAF
:1010D000DE7FDB7F5BB2002B30DAAA6D002A04D101
:1010E0001D4B310003201B6898477F23AA6D1E40CB
:1010F000B600B358002B24D06289A11DCA77E11D28
:10110000120ACA7722890131CA772031120A0A707D
:10111000E28802334A70120A8A70A2880020CA70DC
:10112000120A0A71220001212D3211703B60009BCE
:1011300025341C600923019A1370FEBDB600735953
:10114000D8E70022044B032011001B68984703488E
:10115000F3E7C046D4B8000008BF000082020000D8
:1011600007480068C06D002807D0023008600549B4
:101170000020116001221A7070470348FCE7C04646
:10118000D4B800005A2D031882020000054B1B68DA
:10119000DB6D002B03D0002002330B607047024848
:1011A000FCE7C046D4B800008202000010B5FFF78B
:1011B000EDFF10BDF0B5724B85B01C6817000B1E1B
:1011C00002917ED1C333FF33E35C18339B00E318F5
:1011D0005D68002D75D06B1DD97F7F230B40039375
:1011E000023BDBB201934BB2002B3DDA2B6A002BA2
:1011F00004D1644B03201B68029A9847019B2A6A1A
:101200009B009E58002E06D16B1DD97F5D4B32008E
:1012100003201B68984730003900102210304DF031
:10122000CBFE390010223000103101374DF0C4FEE2
:10123000F97FE1270136F1777F006E1DE25DF07FD7
:10124000FFF7FCFDE36D002B5FD0E35D0133E35559
:10125000E35D042B0ED9E1235B00E35C052B33D166
:101260000298FFF77BFD2FE0019B02339B00EB18F8
:101270005E68C7E71A0018329200A2185668002E5E
:10128000E4D0DC237F255B00E35C721D1D40023D42
:10129000EDB2D3775BB2AD00002B17DB7519EB68AD
:1012A000002B05D00022374B110003201B68984704
:1012B0002120F9F7C6FBE8600420334A3349FCF7E4
:1012C000CFF9E36D002BC6D105B0F0BD376A002F12
:1012D00007D11820F9F7B5FB1822390030624DF01C
:1012E00087FE336A5B59002B05D00022254B110085
:1012F00003201B6898472120376AF9F7A2FB326A5E
:101300007851137D01331375D6E71F22B256F37F50
:10131000002A26DB2A6A002A0BD0019989008A5804
:10132000002A06D0802252421343F377019B052BFB
:10133000C2D1039B013BDBB29A00AA18042B14D93B
:10134000052BB9D1DF220821FA33F3775200A35CD1
:101350008B43A354E1235B00E05C00212B6898479A
:10136000AFE77F221340F377E3E7D1680432002927
:1013700002D00233F3779FE70133DBB2DEE7C046EA
:10138000D4B8000008BF0000B5110318B11003184D
:10139000F0B5A44B85B01F681600FC6D0091002CC1
:1013A0002DD0DC235B00FD5C23780193012B06D05C
:1013B000022B00D1F4E0C1235B00009375E060785C
:1013C00003380328F7D84DF0CBFD021C2836200047
:1013D0003100102222304DF0EFFD310020001022AC
:1013E000103112304DF0E8FD230004200136F27F69
:1013F00042331A708C498D4A6070FCF72AF905B0A7
:10140000F0BD20001022310045304DF0D5FD052300
:101410000420864A84496370EFE7200031001022DF
:1014200032304DF0C9FD0623804A814963700420A3
:10143000FCF71DF9E3E720000822310058304DF099
:10144000BBFD2300423319782800FFF79BFC6BB2E9
:1014500003932300563302936BB2002B29DB002346
:10146000DE226370AB00DC515200BB5C0133BB5425
:10147000029B1B88002B04D10232B95C02330B4360
:10148000BB540121280010F0D1F82900002003F0FE
:1014900065F9E0235B00FB5A002B06D0E121002315
:1014A00049007B547B5C042B31D90098FFF756FC34
:1014B000A5E77F231D40AB00DE59BB6D0193002BD8
:1014C00007D15C20F9F7BDFA5C220199B8654DF0AF
:1014D0008FFD330056331B88029A0020138033009F
:1014E00060331A78230060331A70012360707370C0
:1014F000330044331A78230044331A70BB6DAA00BA
:10150000D45058331A78290001321A70BFE71A00F4
:1015100018329200BA185468002C3FD0DC237F2583
:101520005B00FB5C621D1D40023DD377039BEDB267
:10153000AD00002B13DB6419E368002B05D00022FB
:101540003C4B110003201B6898472120F9F779FADA
:10155000E060394A39490420FCF782F84FE7266AEF
:10156000002E07D11820F9F76CFA182231002062FA
:101570004DF03EFD236A5B59002B05D000222D4B18
:10158000110003201B6898472120266AF9F759FAB1
:10159000226A7051137D01331375DAE7013380E756
:1015A0006378072B00D006E70023127863706BB2D4
:1015B000E274002B15DBAB00DC51A07D8300DB590E
:1015C00060331978013119702900FFF7DBFCA18A1B
:1015D0002A000120FDF7FAF92900022003F0BEF8E5
:1015E00063E77F262E40B3000193DB599A8AA282DB
:1015F0009A7DA2759B7CA374B96D002904D10D4B13
:101600000A0001201B689847BB6DB2009C505833FC
:101610001A78290001321A70E27CA07DFFF7B2FC33
:101620003100DAE7D4B8000041160318911303180B
:101630008D11031808BF0000B5110318B11003186D
:10164000114810B50068C06D00281BD0841C1460C0
:1016500010221A70029B0D4A1A600623039A137017
:101660004378042B08D0052B0AD00022084B110028
:1016700003201B68984701E0064B0B60002010BD5B
:10168000054BFAE70548FAE7D4B80000542D0318D3
:1016900008BF0000442D0318342D031882020000F7
:1016A00070B57F250540AC1EE4B2042C2ED8194E2F
:1016B000AD003668AD59002D1BD018318900711866
:1016C0004968002915D000261660B34213D06B7804
:1016D000022B05D10B6AB34202D0A400E35803E009
:1016E0000234A40009194B68002013601368834278
:1016F00000D1094870BD40B2002802DA0B6A002B05
:10170000EBD10234A4000C196368EDE79020C0000F
:10171000F0E7C046D4B8000082060000E220400096
:10172000704700000A4B30B51968BE23FF33CD5C0B
:1017300002000023D8B2854201D8FF2030BD9C00B2
:101740000C59002C02D0A48A9442F7D00133F1E75F
:10175000D4B80000194BF0B51D68BE2385B00391C5
:10176000FF3302901600EA5C0023291FD8B20190D3
:10177000824203D8F820000105B0F0BD0093013388
:1017800098000F58002FF1D11620F9F75AF90400EC
:101790001022029902304DF00FFC039B2780A38298
:1017A000009B9B005C51002E01D0019B33700721F0
:1017B000080002F0D3FF0020DEE7C046D4B80000E6
:1017C000044B1A68BE23FF33D35C984280414042E9
:1017D0007047C046D4B800000A4B10B51C68BE2341
:1017E000FF33E35C834209D9800024182068002875
:1017F00004D0F9F72BF90020206010BDC8200001AB
:10180000FBE7C046D4B80000054B80001B68C358F6
:10181000002B02D000200B6070470248FCE7C04656
:10182000D4B8000082060000F7B501932D4B00925A
:101830001A68DF235B000E00D15C07000B074AD457
:101840000223FF2598001058DCB2002812D00400B3
:1018500056342488BC4210D13100102202304DF0A1
:101860009DFB43425841D0231F4E40423040DB0095
:10187000C018FEBDFF2D00D125000133072BE1D19B
:101880004B0704D5DE235B00D35C012B26D0FF2D54
:1018900024D06220F9F7D5F8012304003100037049
:1018A000102202304DF088FB23000026009A5633A8
:1018B0009E721F80133B1A705E7003232100280064
:1018C000019A6370FFF738FA0420084A0849FBF7C9
:1018D000C7FE3000CDE784204001CAE7B020C00039
:1018E000C7E7C046D4B800000206000091130318F1
:1018F00061110318304BF7B51C68DF235B00E35C14
:1019000005001B0750D47F200540AF003E59002E34
:101910004CD03378012B49D1BC33FF33E35C012B2E
:1019200001D1002945D0330060331B780193002B8F
:101930003FD12800FFF74AFA2900012002F00EFFEC
:101940003000F9F783F8DE22019B5200E351A35CDB
:101950005636013BA3543388002B04D102210232B6
:10196000A35C8B43A354A36D002B17D0DE59002E2C
:1019700014D080202843FFF729FA3000F9F766F8E1
:101980000023A06DC351030058331E78013EF6B208
:101990001E70002E02D1F9F759F8A6652800002123
:1019A0000FF044FE0020FEBD0448FCE79020C0007C
:1019B000F9E7C8200001F6E7D4B800008202000071
:1019C000F0B57F24044085B0A31E0D000392042BC4
:1019D00056D82D4B1E68DF235B00F35C1B074DD4EC
:1019E000A700B85900284BD003780293012B47D1A8
:1019F00043780193002B21D0012B1CD1B26D002A1A
:101A000004D1224B210003201B689847B36DDA599B
:101A1000002A04D11D4B210003201B689847B36D99
:101A20001022D859290002304DF0B8FA002802D10E
:101A3000174805B0F0BDB8200001FAE710220230C7
:101A40004DF0ACFA0028F3D06220F8F7FAFF029BC1
:101A5000060003701022290002304DF0ADFA032376
:101A600080203100039A73702043FFF765F904204A
:101A7000084A0949FBF7F4FD0198DAE70748D8E777
:101A80009020C000D5E7C046D4B8000008BF0000D1
:101A9000820C0000911303186111031882020000E8
:101AA0007F2101408B1E10B5042B16D8DF220F4B6F
:101AB00052001B68985CB73A0400FF3A1440104289
:101AC0000ED18A00D3585A78012A0BD10132200056
:101AD0005A7002F043FE200010BD9020C000FBE7CA
:101AE0000348F9E7B8200001F6E7C046D4B8000083
:101AF00082020000F0B57F260640B31E87B0DBB23D
:101B00000393042B00D9C6E0674B1C68DF235B00FE
:101B1000E25CB73B1100FF3B19401A4200D0BDE028
:101B2000A36D002B00D1BBE0B200A01804900068A8
:101B300000904078022800D0B2E0D3580293009B76
:101B4000597060331B78002B39D0250007271C35CE
:101B50002B680193002B2ED09B7DB3422BD13000FC
:101B6000F9B2FFF74FFABB000593A36DBA00D35843
:101B7000002B16D08021019A2B60927C49429A74E6
:101B8000FBB21943C9B23000FFF73CFA0198F8F7ED
:101B90005DFF0022A36DB900CA5058331A78013A8C
:101BA0001A702B683000F9B2DA7CFFF7EBF93900D4
:101BB000022002F0D3FD01370435152FC8D10025CE
:101BC000029A049B30001A605570FFF7FFF88023DB
:101BD000334318000493FFF7F9F8029B30004233B7
:101BE0001978FFF7CFF80098F8F730FFA06DB30031
:101BF0001D50030058331D78013DEDB21D70002DBE
:101C000002D1F8F723FFA565002300936B461B78EC
:101C1000009A0193244B18321B6892009B185C6851
:101C2000002C2CD0236A002B29D0039A9500671929
:101C3000FA68002A23D0EB58002B20D030000199FD
:101C4000FFF730F901990498FFF72CF9F868F8F7D5
:101C5000FDFE0021226A300055192B68FB602960C7
:101C6000117D013301391175D97F019AFFF7E6F82B
:101C7000206A057D002D02D1F8F7E8FE2562009B61
:101C800001330093052BC1D10020310002F066FD25
:101C9000002007B0F0BD9020C000FAE70348F8E745
:101CA000B8200001F5E7C046D4B800008202000069
:101CB0000A4B30B51C6802239A00A258DDB2002AF4
:101CC00006D056321288824202D100200D7030BDFB
:101CD0000133072BF0D19020C000F8E7D4B8000002
:101CE000124B30B51C68DE235B00E35C002B19D07F
:101CF0007F22037813409A1E042A00D9022302256A
:101D0000037003789A001259002A04D0081E01D0EB
:101D100000200A6030BD0133DBB20370062BF0D91E
:101D20000570EEE79020C000F4E7C046D4B800008C
:101D30007F23034070B50D0011009A1E042A23D89A
:101D4000144A9B0012689C58002C20D06678002E04
:101D500013D000290BD0022E0CD1926D9C58002C70
:101D600008D10D4B02001B680320984702E046B2E1
:101D7000002EF2DB00202C6070BD0029FAD140B2A9
:101D80000028F7DA0548F7E7C1204000F4E7902083
:101D9000C000F1E7D4B8000008BF000082060000D0
:101DA000164BDE22F0B51D6800232C002E005200D9
:101DB00019000127944608341C362268002A12D0E4
:101DC00056321288394217D01203134303701A0A8D
:101DD0001B0C837000234270033062460131AA5C01
:101DE000C9B28A4202D00434A642E6D1CA0702D55B
:101DF00003701B0A4370F0BD1300EEE7D4B8000077
:101E0000124A0B001168BA2230B5FF328D5C040013
:101E10000022AA4207DA10003C304000405CA04299
:101E200001D00FD96AB29B185BB2FF209D4208DD3A
:101E30005B00C9180B0078331B78A34201D17931BC
:101E4000087830BD013252B2E3E7C046D4B8000092
:101E50007F22064B10401B688000C358181E04D018
:101E60005633188843425841C0B27047D4B8000076
:101E7000F7B501932A4B0E001968DF2300905B0031
:101E8000CB5C1B0744D47F270723FF25174098000E
:101E90000858DAB2002815D0828A009CA24214D1D8
:101EA0007F22837D1340BB4234D1310002306F3A30
:101EB0004DF074F8434258411A4B404218407E336B
:101EC000C018FEBDFF2D00D115000133162BDED149
:101ED000FF2D22D01820F8F7B4FD022304003100B2
:101EE00003701022C0184DF067F8009B0026A382F3
:101EF000072321002800019A6370A775A674FEF7D6
:101F00001BFF0420084A0949FBF7B8FB3000D8E75B
:101F10000748D6E79020C000D3E7B020FBE7C046D3
:101F2000D4B800000206000091130318AD11031885
:101F300082020000524BF0B51E68DF235B00F25CAA
:101F4000B73B1400FF3B87B01C401A4200D091E021
:101F50007F2738400F40BB1E0500042B05D9494B95
:101F60002200390003201B689847EB1F0E2B05D970
:101F7000444B0022290003201B6898477F22AB00B6
:101F80009B5901939B7D13409F4200D074E0BB009E
:101F90009B590593019B987C00280CD0BC23FF33F0
:101FA0009C46F15C3300E633A14244D1091A8C42CD
:101FB00049DB6346F15429003800FFF723F8019B01
:101FC0002A00998A0020FCF701FD2900032002F075
:101FD000C5FB059B019860331A78013A1A700022FC
:101FE000AB009A510393F8F731FDB36D1C1E1FD05F
:101FF000BA00D258141E01921AD00024AA009B588D
:102000000293A34214D0802138002943FEF7FAFF3F
:10201000019D029860352B78013B2B70B26D110049
:1020200058310B78013B0B70039BD450F8F70EFD31
:10203000200007B0F0BD02339A1E1278AA42B5D034
:102040000134E4B2B0E723185B00F3181A00E6325B
:102050000293137862000493B318049A0393E6334F
:102060001A70029B039AE7331B78E732013413702E
:10207000E4B29CE7044CDBE79024E400D8E7C046D8
:10208000D4B8000008BF0000820200007F23F0B532
:10209000034085B00192DA1F040003910E2A2FD865
:1020A0001A4A9B00166802939D59002D2BD0AA7DD9
:1020B00093009F59002F04D1154B01001B6803208A
:1020C00098477A78002A13D0B36D02995B58002B99
:1020D00009D00199002903D0022A04D11D0002E091
:1020E00064B2002CFADB0020039B1D6005B0F0BD3C
:1020F000019B002BF7D164B2002CF4DA0548F5E718
:10210000C1204000F2E7E0208000EFE7D4B80000F3
:1021100008BF0000820600000A4B30B51C68072388
:102120009A00A258DDB2002A05D0928A824202D1DA
:1021300000200D7030BD0133162BF1D1E02080005E
:10214000F8E7C046D4B80000F0B587B003933E4B23
:1021500001921F68DF235B00FB5C0E001B0769D444
:1021600004ABDD1D2900FFF7D7FF041E45D17F22F8
:102170002B7813402B70019B13400193023B042BDF
:1021800005D9324B02001B68032001999847297832
:102190008B00DD59002D04D12C4B2A0003201B6835
:1021A00098477F22AB7D1340019A9A4244D1BB6D80
:1021B0000293002B43D09200D359002B3FD05B7881
:1021C000012B3CD110223100A81C4CF0E7FE002866
:1021D00038D004ABDD1D2B78029A9B00985800285C
:1021E0000ED01022310002304CF0D8FE431E984130
:1021F00044421748174B0440E418200007B0F0BDD4
:102200001820F8F71EFC022307003100037010228B
:10221000C0184CF0D1FE072328787B707933390041
:10222000039A1843FEF788FD0B4A0C490420FBF77C
:1022300025FAE2E70A4CE0E78C246401DDE7B824E4
:102240002401DAE7034CD8E7D4B8000008BF000047
:10225000FEFEFFFF820C000091130318AD1103185E
:1022600082020000F7B501927F22214B10401B68CB
:102270003C32FF329E5C2F3AFF3A944600259C4444
:10228000EAB2964230D9032467466C433F5DB842B8
:1022900024D18000C0588D346030057800201C198E
:1022A000854212D1019852191218D2B2FF209642DB
:1022B0000AD9FC3842439B181A008D321278FC3040
:1022C0008A4201D18E331878FEBD27788F420DD017
:1022D00003348F42E6D80130C0B2E1E70135B8429D
:1022E000CED2BA22FF329A5C0025DBE70500D9E79F
:1022F000D4B800001F4BF7B51D6883005E59DD237D
:102300005B00EA5C2B0000248C33A24206D1002043
:102310000123603602009C4601961EE00333DF1E57
:102320003F788742F3D00134E4B2EEE70327A318E5
:102330007B436746EB188E331B789B005B599B8A67
:102340003A420FD01B030343180A4870180C0B7055
:102350008870033118000132D2B2019B1E78964278
:10236000E4D8F7BD013EB242F4D1180A0B704870B0
:10237000F0E7C046D4B80000144BF0B51D688300E8
:102380005E59DD235B00EA5C2B0000248C33A24203
:1023900005D130000022FF260327603010E0033310
:1023A000DF1E3F788742F4D00134E4B2EFE7130038
:1023B00033401B197B43EB188E331B788B5401324F
:1023C00003789C46D3B29C45F1D8F0BDD4B8000048
:1023D000414BF0B51C687F23184085B0C31F0291A4
:1023E0000E2B05D9BE23FF33E35C834200D869E09E
:1023F000DF235B00E55C08222B00134015425FD110
:10240000820016590392002E5CD0BC22FF32A55CDC
:1024100094461E2D59D0AB4233DB59D16BB21A0012
:1024200072325200A2185FB2002F39DC5B00E31851
:102430001A00E6321070029AE7331A7063460020E1
:102440000135E554B37C0133B3747378834216D0FD
:10245000A16D814204D1214B0A001B6801309847CD
:10246000A36D039A9C58002C05D11C4B220021001F
:1024700001201B6898470020A37C0133A37405B09A
:10248000F0BD5A00A2181700E6373F78874204D102
:10249000E732127802998A421AD001335BB2BAE766
:1024A00011780191814204D8C0D15178029FB9427C
:1024B000BCD957780199D7709170013B023AB2E7C5
:1024C0000748DCE7E0208000D9E7D8200001D6E704
:1024D0008C204001D3E7C046D4B8000008BF0000FC
:1024E000820200007F23F7B51840C31F01910E2B15
:1024F00057D82D4B08221C68DF235B00E15C0B00E2
:10250000134011424BD185002E59002E49D0BC22D8
:10251000FF32A25C934203DB3FD18C2040013BE0C1
:10252000E627BC46590061188C4467463F788742CD
:1025300004D1E7310978019FB9422ED001335BB253
:10254000E8E7590061180800E8310988E6300133EE
:1025500001805BB29342F4DBBC230020FF33E254E2
:10256000B37C013BB3747378834215D0A16D814273
:1025700004D10E4B0A001B6801309847A36D5C59CB
:10258000002C05D1094B2200210001201B6898472F
:102590000020A37C013BA374FEBD013ADAE70448A6
:1025A000FAE7E0208000F7E7D4B8000008BF000099
:1025B00082020000104B70B51D687F231840BC23B9
:1025C000FF33EC5C0023A34205DB0020A34201D1D2
:1025D0008C20400170BD5A00AA181600E6363678E5
:1025E000864203D1E73212788A4202D001335BB2CD
:1025F000E9E70020EEE7C046D4B80000024B1A68B5
:10260000DE235B00D05C7047D4B80000034B800031
:102610001B68C358603318787047C046D4B80000B0
:10262000F0B585B00293234B01901D6800231E0076
:1026300018004C1E0394BC24FF342C5D844201D945
:102640008B4201D305B0F0BDE727BC4644002C19EE
:10265000A44467463F78BC46019FBC451AD1BE27BB
:10266000E634FF372478EF5DA74213D8A4006459FD
:10267000029FA48A002F17D001273B420DD02403CC
:102680003443260A5670260C1470967003322600C6
:102690000133DBB20130C0B2CDE7039EB342F6D1C5
:1026A000260A14705670F2E71470240A547034002D
:1026B0000232ECE7D4B80000034B80001B68C3581B
:1026C000563318887047C046D4B8000010B50400CF
:1026D000022000F033FD0223002805D0034BA400A4
:1026E0001B68E35844331B78180010BDD4B80000B1
:1026F00070B5040002200D0000F020FD002805D078
:10270000034BA4001B68E35844331D70002070BDC8
:10271000D4B80000F0B50600022408271A4B85B093
:102720001B6802910193A3000393019BA200985898
:10273000E5B2002806D03A00310058304CF02EFCAB
:10274000002810D0019B9B6D002B15D0039A985840
:10275000002811D03A00310058304CF01FFC0028FE
:102760000AD180231D437F232B40062B09D800204C
:10277000029B1D7005B0F0BD0134072CD3D125009C
:10278000F1E70248F6E7C046D4B800008206000030
:102790007F22034B10401B688000C3585878704755
:1027A000D4B800008B1E70B50400012B22D8134B47
:1027B0001A687F2303409B009B585B78012B0CD148
:1027C000022904D1FFF76CF90025280070BDFFF73E
:1027D00067F92000FFF78EF9F6E70025022B04D1F8
:1027E0000329F2D1FFF786F9EFE70329EDD083350E
:1027F000FF35EAE7C1256D00E7E7C046D4B8000021
:10280000184BF7B51F687F2303400C009900019314
:10281000CB595E78B44665460126022D19D113784E
:102820001E431670BB6D002B02D0CB58002B05D178
:102830000D4B0100002203201B689847094B1B68C1
:102840009A6D019B9B009B58002C01D0583323604C
:10285000F7BD1900433109783142F5D011780E43A4
:102860001670F1E7D4B8000008BF0000034B1A68E7
:10287000DF235B00D05C8007C00F7047D4B8000036
:10288000F8B51D4B05001E687F2303409B000F0019
:102890009C59FFF7EBFF002807D1220043320421A7
:1028A0001378B80710D50B4313706BB2002B1BDAEB
:1028B0006378012B02D12800FFF7F2F8FB0702D45E
:1028C0002800FFF717F9F8BD0B42EED032001C3696
:1028D00008321368002B03D04333187888431870EC
:1028E0000432B242F5D1E0E70122433423781342A7
:1028F000E9D093432370E6E7D4B8000010B5040094
:10290000FFF7B4FF002809D1054B7F3004401B6856
:10291000A400E358433318784007C00F10BDC046E9
:10292000D4B800000422DF2110B51400054B490083
:102930001868435C1C43134201D093431C00445469
:1029400010BDC046D4B80000F0B589B006930EABF8
:102950001B880190049105920793042805D9654BC3
:102960000100002203201B689847634B019A1B68F3
:10297000183292009B185B68002B05D05D4B00223B
:1029800003201B6801999847DF235B4E5B00346886
:10299000E25CB73B1100FF3B194003911A4200D0A3
:1029A000A5E03020F8F74DF8019F35681837BF00D3
:1029B000E4196060EB195C68002C25D023000C330F
:1029C00024221800039902934CF012FB049B621D11
:1029D000A380059BE380069B2381079B63810F9B5C
:1029E0002360631D0493FF23D377AB6D002B13D0BB
:1029F0001820F8F726F8051E206209D12000F8F704
:102A000025F83368DF197D60B020C00009B0F0BD43
:102A1000182203994CF0ECFA0225374EAA003168CF
:102A2000EBB25258002A25D0049AD27FFF2A01D156
:102A3000049AD377AB1E21200393F8F702F8231DE5
:102A4000AA00985000282BD0276A002F12D02A4BBA
:102A50001B689B6D9B58002B0CD02120F7F7F1FFD2
:102A6000AB1E9B00226AF8509B58002B18D0137D98
:102A7000013313750135072DCFD1E1223368019958
:102A800052009954DF214900585CBB3AFF3A024397
:102A90005A540420194A1A49FAF7E2FD0020B5E712
:102AA0002700029D20372868002801D0F7F7CEFFC5
:102AB0000435AF42F7D1236A002B0DD00025226ADE
:102AC000AB009858002801D0F7F7C0FF0135052D5D
:102AD000F5D1206AF7F7BAFF2000F7F7B7FF019B9F
:102AE000306818339B00C018002343608CE705480A
:102AF0008CE7C04608BF0000D4B80000B511031829
:102B0000B110031882040000F7B50400042805D9A9
:102B1000244B0100002203201B689847224B1B68AE
:102B2000002B3ED022001832019292009B185D6863
:102B3000002D36D02B6A0093002B16D01E000227E2
:102B40003368002B09D0802040423843C0B22100B6
:102B5000FEF7A8F93068F7F779FF0137FFB20436BE
:102B6000072FEDD10098F7F771FF2F0002260C37E1
:102B70003B68002B06D030002100FEF793F938683F
:102B8000F7F764FF0136F6B20437072EF0D12800BC
:102B9000F7F75CFF044B1A68019B9B00D3180022D7
:102BA0005A60F7BD08BF0000D4B8000070B5224CD1
:102BB00000280AD11368BE221B03DB0F0133FF324A
:102BC00021608B54E220400070BD2368D86D00283E
:102BD00001D0F7F73BFF23689B6D002B0FD000253A
:102BE0002368AA009B6DD058002801D0F7F72EFF6C
:102BF0000135162DF4D12368986DF7F727FF0025CE
:102C00002268AB009858002801D0F7F71FFF013564
:102C1000162DF5D10020FFF777FF0120FFF774FF95
:102C20000220FFF771FF0320FFF76EFF0420FFF77C
:102C30006BFF00232360C5E7D4B80000174BF0B545
:102C40001C68E0235B00E65A050000230327B3421B
:102C500009D23800584320182330FF300078A842AA
:102C600001D018D9F3B25B18D9B2DBB2FF209E4273
:102C700010D903234B43E31819002331FF3109789E
:102C8000A94207D119002533FF331B782431FF31C6
:102C900008781370F0BD0133DBB2D8E7D4B8000078
:102CA00037B5150000221C0006AB01921B7801AA63
:102CB000FEF7F6FC002804D1019B002D00D1103353
:102CC00023603EBD13B514000022019201AAFEF755
:102CD000E7FC002803D1019B0133DB7F237016BD85
:102CE000024B1A68E0235B00D05A7047D4B800004A
:102CF00070B5E024002203250D4B640019680B5BBE
:102D0000934200D870BD2B005343CB181E002336CE
:102D1000FF363678013206701E002436FF363678CC
:102D200025334670FF331B7892B283700330E6E799
:102D3000D4B80000EC3D393867226E3F23C193B709
:102D40009A61242CF4195E246ED863F1E482F1AB0D
:102D50001A5A79F801383231646900000A4B10B50B
:102D60001B681A004B3210780138C0B2107000286E
:102D700006D0FA210C3318008900FAF71BFD10BDAC
:102D8000FBF7D2FDFBE7C046D8B80000154B002882
:102D900024D119600B000B3048331870023898703A
:102DA000114B10680B61114B0340CB6390888B1C57
:102DB000D887D0880B1DD88710898B1DD88750895C
:102DC0000233D887927B4433002A05D01A70FF2340
:102DD00029310B70502070470122F7E700221A605A
:102DE000F8E7C046D8B800005D2D03180F000B00AF
:102DF00050207047014B1B6818607047D8B800001E
:102E0000014B1B6898607047D8B80000014B1B68E5
:102E100098687047D8B80000014B1B68586070472D
:102E2000D8B800000421054B1A68538F8B43411E0C
:102E300088418000034353877047C046D8B80000DC
:102E400010B5040003202300834304D0064B220066
:102E500001001B6898470322044B1B68588F90435E
:102E60002043588710BDC04608BF0000D8B80000F6
:102E700043B210B5002B0BDB012809D0064B012112
:102E80001B6848331870072001F068FC002010BD53
:102E9000C1204000FBE7C046D8B80000082110B5AB
:102EA000074B1A68538F8B43411E8841C000034370
:102EB00002210720538701F051FC0EF047FC10BDA2
:102EC000D8B80000044B10B51B6803214A331870B2
:102ED000072001F043FC10BDD8B8000070B50A4DC2
:102EE000040028680C30FAF7A7FC286803004B336D
:102EF0001C70002C04D0FA210C308900FAF75AFC1F
:102F00002000FBF711FD70BDD8B8000070B504AC0F
:102F1000258805AC2678840B022C41D00C00123C8D
:102F2000E4B2EC2C3FD9112A3DD8012B3BD05CB246
:102F3000002C38DB1D4C2468A084002803D0002915
:102F40000DD1002D0BD1002323626362FF231B02EE
:102F5000A362236800201B689847002070BD2000F2
:102F60000930C3770F231D402300293365851E7068
:102F700000239A4202D0013A013393402362012395
:102F8000FF2906D0002901D1E184E2E7112903D10C
:102F900002235B42E384DCE7012301398B40F9E73C
:102FA000C0204000DAE7C120FBE7C046D8B80000E7
:102FB000F7B56B460190140004229B5E0D00002BB8
:102FC00002DAC0204000FEBD8B0B022BF9D0174F58
:102FD0000BB23E68002B0EDDFDF72AFDA842F0D1B2
:102FE000112C0AD8019B002B0BD0002C0CD0FE23F7
:102FF000DB03736308E0112C01D9C120E2E700294B
:10300000F0D1002425000194019B358673860023AE
:103010009C4202D0013C0133A340F3623B68012093
:103020001B681B6898470020CDE7C046D8B8000051
:10303000024B1B68588F032318407047D8B8000014
:10304000024B1B68483318787047C046D8B8000058
:10305000024B1B68588F0007C00F7047D8B800009C
:10306000024B1B684A3318787047C046D8B8000036
:1030700010B50724064B1A684A32137823400133EF
:1030800003701378DB0801331B010B8010BDC046B1
:10309000D8B80000024B1B684B3318787047C04605
:1030A000D8B80000024B1B684C3318787047C046F4
:1030B000D8B8000030B50A4C2468A51CED8F0580F7
:1030C000201DC08F0880A11DC98F118022000832E9
:1030D000D28F03990A800F21E26B0A401A8030BD1B
:1030E000D8B80000014B186820307047D8B80000ED
:1030F000014B18682C307047D8B80000024B1B6891
:10310000588F0006C00F7047D8B80000014B1B68ED
:10311000D86B7047D8B800000022034B1B68188F8B
:103120001A87C0B27047C046D8B80000024B1B686F
:10313000588F4007C00F7047D8B80000034B1B687A
:10314000DB6B03405A1E9341D8B27047D8B80000D9
:1031500010B504000220FFF7F1FF00281CD00F4B30
:103160001A68538F5906C90FA14211D00221108F3E
:103170000143118740218B432100481E8141890171
:103180000B43013C538763425C41E0B207F066FBAE
:103190000521072001F0E2FA10BDC046D8B80000B2
:1031A00070B5040001200D00FFF7C8FF002818D0FB
:1031B0000C4B01211A68130049331D70538F1811ED
:1031C0000840A04209D0108F0143118710218B4382
:1031D000611E8C412401234353870421072001F001
:1031E000BDFA70BDD8B8000010B504000420FFF788
:1031F000A5FF002818D00D4B1A68538F9906C90FE8
:10320000A1420DD00421108F0143118720218B434F
:10321000611E8C4164012343538753681B689847A0
:103220000621072001F09AFA10BDC046D8B8000068
:10323000022010B5FFF782FF0223002804D0034BC1
:103240001B685B8F5B06DB0F180010BDD8B8000051
:1032500010B504000120FFF771FF030002000220F7
:10326000002B06D0054B1A68538F4932DB061278C3
:10327000D80F002C00D0227010BDC046D8B8000076
:10328000042010B5FFF75AFF0223002804D0034B97
:103290001B685B8F9B06DB0F180010BDD8B80000C1
:1032A000802010B50003FFF749FF10BD802010B546
:1032B0000003FFF743FF01235840C0B210BD0000D8
:1032C00010B5084B1B68DA8C002A09D01A00293285
:1032D0001278824204D10020D8841B681B6898476A
:1032E00010BDC046D8B800000C4B10B519680C4C86
:1032F0000A008B8E2C32A34207D001339BB28B86FF
:10330000012B02D19072D07203E0937A834201D9EB
:10331000907210BD8342FCD2F5E7C046D8B80000D9
:10332000FFFF0000044B05491A68D38C013B9BB298
:103330008B4200D8D3847047D8B80000FDFF00004E
:1033400010B5084C23689A8C002A0AD05A8D198F20
:10335000114206D01B6802201B6898470022236890
:103360001A8710BDD8B8000010B50A4B1A68538FE1
:103370001906C90F81420CD080218B43411E884120
:10338000C00118430823118F50870B431387FFF7A1
:10339000D7FF10BDD8B800000D4B10B5C0180023E2
:1033A000032809D84BF0DCFD020A0D11FFF740FF9E
:1033B000431E5A425341DBB2180010BDFFF760FFB5
:1033C000F6E70020FFF744FFF2E70123F4E7C046E9
:1033D0000400FFFF10B50821072001F0BFF900220B
:1033E000014B1B689A8410BDDCB8000010B50D4C71
:1033F00023681800191DFAF759FA01212068C21D27
:10340000D37F08308B43D377002307498361FAF7D2
:10341000D1F9102223680733D97F0A43DA77FFF7FF
:10342000D9FF10BDDCB800000070991470B54024BD
:10343000104D2868C21DD37F234204D0A343D37705
:10344000FFF7D4FF70BD10210B42FBD01E008E434E
:10345000D677D907F6D5990602D530218B43EEE70A
:1034600005490830FAF7A6F92B680733DA7F1443C9
:10347000DC77E7E7DCB8000000B84C0A70B50E4C0A
:10348000050023681800191DFAF710FA01222368B5
:10349000D91DC87F08330243CA775D610749180008
:1034A000FAF788F9102223680733D97F0A43DA77BD
:1034B000FFF790FF70BDC046DCB8000000709914A3
:1034C00010B5084B1968C81DC27FD30701D4D306B5
:1034D00006D420231343C377C8690130FFF7CEFF1A
:1034E00010BDC046DCB80000054B002804D11960AF
:1034F000044BCB602820704700221A60FAE7C046D0
:10350000DCB800002D34031828207047054B1B68D9
:10351000DA6901231340C31A591E8B41D21A1000D5
:103520007047C046DCB80000014B1B68D869704783
:10353000DCB80000014B1B68D8617047DCB80000A4
:10354000014B1B6818627047DCB80000014B1B6818
:10355000186A7047DCB80000F8B51C4C06002068FB
:10356000C51DEF7F0125036A2F409C46C369DB1B05
:103570000B60002A16D063461360036A144A5B1975
:103580001B021B0A036293420DD9002E01D0FFF7E4
:1035900097FF2268938C01339BB293840A2B01D14D
:1035A000FFF718FFF8BD002BF3D1011DFAF77EF9E4
:1035B0002368D91DCA7F2A4202D1DA690132DA6151
:1035C0000023CB77FFF706FFE3E7C046DCB8000037
:1035D000BEBDF000034B1B680733D87F01231840A2
:1035E0007047C046DCB8000070B5144D04002B686D
:1035F000DA1DD67F012230001040164205D1002C82
:1036000002D0002904D10E4870BD00208442FBD1B5
:1036100008331800FAF710F950202A68D11DCB7F23
:103620008343CB77002C05D0D0690130FFF726FF0C
:103630000020E9E7FFF7DAFE2000E5E7DCB800004C
:1036400082020000F7B50227244B01911E68F31D8A
:103650009C46DB7FF2693B4217D0002490420DD399
:10366000BB431C0039420BD16346DC77904202D049
:103670000023F0613362FFF7ADFE01242000FEBDA0
:10368000012361462343CB77F0E701251C002C4042
:103690002B420FD001992C003942EFD19042EDD14D
:1036A0005A0702D4FFF7A2FEE8E708221343624656
:1036B000D377E3E79042E1D3811A2A29DED82C00A0
:1036C0009042DBD0019A3A4204D0DB06D6D4FFF711
:1036D000D5FED3E7F061FFF789FECFE7DCB8000045
:1036E00010B50400FFF7C2F8002804D0024B9C423A
:1036F00001D9FFF7E5FE10BDBEBDF000042110B5F5
:103700000A4B1A680732D37F8B4301004C1EA1413C
:1037100089000B43D377002806D108210B4203D040
:103720008B43D377FFF762FE10BDC046DCB80000C4
:1037300030B57125054B1B68DC1DE47F2C400470FF
:10374000186808609B88138030BDC046DCB8000054
:1037500070B5144E0C003368150019609A80073359
:10376000D877C30609D51048FAF7A4F8011E06D089
:1037700030680830FAF71EF812E043060AD42A002F
:1037800021000A48FAF796F8002805D00020FFF734
:103790004DFE05E00648E7E7022233680733DA7793
:1037A00070BDC046DCB800000070991400E03229FA
:1037B00000B84C0AF7B51D4B00911C680192218896
:1037C000231D00291ED063888B422DD90026271D7A
:1037D0000C237343FA5AB5B2824208D80136013538
:1037E000B3B2ADB29942F3D80C236B4308E0A942BF
:1037F000FAD90C220E004A43A2180C3AB5420AD15B
:103800000433E31818800020009A01319A60019A6D
:103810005A602180FEBD9788013E1782D768B6B2F4
:10382000976197685761E8E70148F3E7E0B800005F
:103830008202000010B50A4C00280CD19389002B9D
:1038400000D11433002221600A804B800C205843A1
:10385000043080B210BD002223685B882260F5E747
:10386000E0B800008389002B00D114330C205843AA
:10387000043080B270470000F7B505000E000092DA
:10388000FFF73CFC041E54D12C4B19680B880193A4
:10389000002B48D0581E230080B20C27C21A5210A9
:1038A0009A1892B25743BC468C446746BF88BD42C3
:1038B0002ED098422ED0BD4228D810005A1C9042DB
:1038C000EBD10C2217005F43BC468C446746BF888F
:1038D000AF4205D042438A189388AB421AD1030005
:1038E000019A9A4216D90C22100058430818C5684C
:1038F000B54220D803D18068009DA8421BD2534313
:10390000C918009BCE608B602000FEBD1300D5E778
:103910001300E5E731002800009AFFF74BFF431E34
:103920009841C4B2F0E731002800009AFFF742FF47
:10393000EAE70024E8E70124E6E7C046E0B8000033
:103940000C4B002812D11960537C581E092800D94D
:103950000A238B76137C012B00D810234B76D37B64
:10396000002B00D15A330B761C20704700221A60BE
:10397000FAE7C046E4B800001C207047030010B509
:10398000064A800012688150907D01309075488908
:10399000002219000FF0FEFA10BDC046E4B8000086
:1039A00010B5064B01001B68DA7D0132DA75820022
:1039B000D358012258890FF0EDFA10BDE4B8000089
:1039C000030070B50A4E850032680C00AA58190031
:1039D000508902220FF0DEFA00223368EA509A7D05
:1039E000013A9A75002C02D0DA7D013ADA7570BD81
:1039F000E4B800000A4B30B51C6800239A00A258B6
:103A0000DDB2002A07D05289824204D10120002968
:103A100000D00D7030BD0133052BEFD10020F9E748
:103A2000E4B80000104B80001B680AB230B5C358E0
:103A3000002A0CDA00200124DA7C52009A18934202
:103A400010D09D8A8D4200D120000233F7E75A89B9
:103A500000208A4206D89B7CC80F9B1800228B420C
:103A60005041C0B230BDC046E4B80000024B8000F7
:103A70001B68C35818687047E4B80000014B1B6806
:103A8000987D7047E4B80000014B1B68D87D7047F3
:103A9000E4B80000194B70B51B688000C4581500CD
:103AA0009B7EE27C93420DD02000002314309A428A
:103AB00009D1002D06D01000083040002018013236
:103AC0008180E27470BD0230861E36888E4202D03C
:103AD0000133DBB2EBE7002DF4D19A42F2D91900A1
:103AE0000A314900D21A60180231520061184BF0B5
:103AF00063FAE37C013BE374E4E7C046E4B800000A
:103B0000024B1B68988A421C9A827047E4B80000F6
:103B100010B505F0D1FC10BD03000020042B03D824
:103B2000024A9B00126898587047C046E4B80000EB
:103B3000014B1B6898827047E4B80000014B1B687A
:103B4000187E7047E4B80000014B1B68587E704730
:103B5000E4B80000014B1B68987E7047E4B8000091
:103B600010B5074C002802D12160042010BD236845
:103B70001868002801D0F6F769FF00232360F4E7F6
:103B8000E8B8000004207047F8B50C4E050037680F
:103B90003C68002C0DD11020F6F753FF33683860D5
:103BA0001868002807D0102229004BF005FA2000E1
:103BB000F8BD0348FCE7B020C000F9E7E8B8000012
:103BC0008202000010B5064C2368002B07D018684D
:103BD000002804D0F6F73AFF002223681A6010BDCF
:103BE000E8B80000014B1B6818687047E8B800008F
:103BF00070B50D00FFF7C8FF041E06D1280004F0C1
:103C00009BFC041E01D0FFF7DDFF200070BD020009
:103C10000023D15CD8B2142903D00133142BF8D17E
:103C200018007047F0B595B00690002810D1B34B3E
:103C300005901B681B680793079BFF3319795E2962
:103C400000D93EE2AD4D059B2A68002B0FD00693AC
:103C5000AA4C069823681B681B6898472368186855
:103C6000F6F7F4FE002223681A6015B0F0BDA44BED
:103C70001B68082960D8116804A8FF310E79172144
:103C8000091810200870300014686038271D3A00A9
:103C9000C0B29847002815D12B681B68FF335A79AA
:103CA00001325A71082E0DD830004BF059F9051128
:103CB000161A1E23272B3900607923790002184336
:103CC000FCF7A8FE079AFF32137901331371B3E7AB
:103CD0002079FFF7CDF80590F4E72079FFF7DEF8BB
:103CE000F0E72079FFF7EEF8ECE761792079FFF74C
:103CF00057FAE7E72079FFF72BFAE3E72079FFF798
:103D000073FADFE70AAC220000213800FDF722FD3C
:103D1000031E0590D6D119002078FEF759FBD1E794
:103D20006068FFF707FCA068FFF70AFC228AA07C06
:103D3000E168FFF70DFDC5E70D2920D824200AA969
:103D4000087016683200FF321079341D6038220086
:103D5000C0B298470028B5D12B68211D1B68FF33DE
:103D60005A7901325A71F088664B059AFDF75CFD6D
:103D7000654B9842A6D0002800D15AE178E11C2971
:103D800023D8172104A809182620087014682000D9
:103D9000FF300079221D6038C0B29847002891D1C9
:103DA0002B680AAD1B682900FF335A7901325A711A
:103DB000E088FDF77DFF0028DAD121002A782089EC
:103DC000524B0A31FEF754F8D2E730294BD816216E
:103DD00004A809182020087014682200FF32167900
:103DE000221D30006038C0B29847002800D069E733
:103DF00017272B681B68FF335A7901325A7104ABBD
:103E0000FF183A00E088A168FCF7F0F9002800D01C
:103E100061E70AAD2900E089FEF77EF9A1893878CB
:103E2000059A8B0B022B01D1220014322B78E57CF2
:103E30000395A57C0295657C0195247C0094FCF794
:103E400079FA002800D046E71722300004A92B4B4E
:103E5000521811781B681D385A189B1954320433B4
:103E60001070D9772EE7442952D8172104A80918D1
:103E7000FF200870146822181679221D300060385F
:103E8000C0B29847002800D01CE72B681B68FF339E
:103E90005A7901325A71E088A1680AAAFCF7A6F99A
:103EA000002800D017E77F23A5880C341D40013D72
:103EB0000AABEDB21878FF2D0AD131000F4B313922
:103EC0001B681A189B197C32373311701870F9E689
:103ED0008022637821781B0219439B0BA71C9B034C
:103EE0001202934206D13A00FCF74AFB1234002832
:103EF000DDD0F0E6FCF7C8FA3C00F8E7F0B80000C7
:103F0000C0BE0000DD400318820600002D410318EA
:103F100058294AD8162104A80918FF2008701468E7
:103F200022181679221D30006038C0B29847002848
:103F300000D0C7E62B681B68FF335A7901325A71EB
:103F4000172204ABD218E088A168FCF74FF9031ED2
:103F5000059000D0B6E6A5887F331D400C34013DA6
:103F6000EDB2FF2D12D00AAF39002088FEF7D4F849
:103F700000280AD104ABD97D3878FEF729FA04ABC2
:103F8000D87DFCF7DFFC0234E9E70590172230000A
:103F900004A94E4B52181B68117845385A189B19C2
:103FA000A4324B33107019708CE65E2962D0162152
:103FB00004A809182820087014682200FF32167916
:103FC000221D30006038C0B29847002800D079E642
:103FD0003E4F0AAD3B6821001B681831FF335A7908
:103FE0000FA801325A71638AEB81E3896B81238ABE
:103FF000AB81A389E27D2B81A36852000B93636898
:104000000A93636917240E934AF0D6FF04ABE418B1
:10401000210028002E4AFFF77BFD002824D1300024
:1040200021783B6859385A189B19B832643310709C
:104030001970079BFF331B795F2B00D015E6234CCB
:1040400023681B68FF335B79002B02D00220FEF748
:10405000F7FE2068C18A002935D0FA239B00594316
:104060000430F9F7A7FBF3E51A4B984200D129E693
:104070000690EDE5172104A80918102008701468AF
:104080002000FF300079221D6038C0B29847002818
:1040900000D017E62B680AA81B680F49FF335A792E
:1040A00001325A7163680A93A38983802389C3808C
:1040B00063890381E3894381238A8381FFF798FD24
:1040C00056E6059857E60691C2E5C046F0B80000EE
:1040D000AD410318820600008D4103180B0070B536
:1040E00000281BD104250F4A11680A6894882C42C5
:1040F00008D0AC4394801832110018000A4AFDF72A
:104100005FFC70BD7F24FF32234014790C19043406
:10411000E3771479CB189C7501341471FFF782FD95
:10412000EFE7C046F0B80000DD40031873B5002883
:1041300025D10125134B1B681C68A2882A4212D086
:104140006B46DE1D3100E088FDF7B2FD002809D185
:104150002100A3883278AB43A38020890A4B1A310F
:10416000FDF7F2FF73BD7F22FF34114022799A18C8
:104170000432D177227959188A7501322271FFF7FA
:1041800051FDEFE7F0B800002D41031810B50028ED
:1041900006D1054B1B681B68FF331A7901321A716F
:1041A000FFF740FD10BDC046F0B8000010B5FFF7A6
:1041B000EDFF10BD0023F0B599B006936B461B7E52
:1041C0005A01603AD2B20492069A063352015B0158
:1041D0000592DBB25242089209937BE1069A089954
:1041E0003032920005989A1852680918CA40012185
:1041F0000A4200D163E1C34D082C47D8601E0EAEC1
:10420000072805D84AF0ACFE0B12171A21242733D1
:10421000FCF70EFC3070000A7070022402E0FEF71A
:104220000FFF30706B6821000EAA68E0FEF710FFE8
:1042300001243070F6E7FEF713FFF9E7212006AB03
:10424000C018FFF705F83070E7E7FEF7F1FFEFE77A
:10425000FFF716F8ECE70DA90020FDF7D5FA0D9B46
:104260001022991C0EA84AF0A7FE1024DAE7FFF7E7
:104270005BF93060FFF76AF90A3070602E2006ABF8
:1042800011AA10A9C018FFF753FAEEE70D2C40D879
:10429000059A0CA99B180433DC7F00222000FDF74F
:1042A00047FD021E00D0AAE10C990EAD0B0028803C
:1042B00056331B886B804B78002B23D080200DA9B0
:1042C0002043FDF735FD002815D1042228880C99DC
:1042D00002432A804B78022B02D10A3303432B80FE
:1042E000102202310FA84AF067FE0D9B1022991C84
:1042F00013A84AF061FE2421824B0EAA5B68049841
:10430000984778E1023110220FA84AF055FE142197
:10431000F2E71C2C40D8059A0BA99B180433DE7FCA
:1043200000223000FDF7B2FE041E00D067E10B9BB7
:104330002200987D0CA9FDF7FBFC0C9F26203B007A
:1043400056331B880B990EAD6B808B8A1022AB8085
:1043500006ABC0182C8002314AF02EFE7B7816275F
:10436000002B14D08020220030430DA9FDF78EFED3
:1043700000280CD101222B88363013432B800D9B53
:104380000F32991C06ABC0184AF016FE10375D4B71
:1043900039005B680EAAB2E7302C42D82221059A78
:1043A0000EAC9B180433DD7F06ABC9182800FBF761
:1043B00093FF2800FBF788FF6060000C431E9841C4
:1043C0002F2306AA9B18208003932E239B18029369
:1043D0002D239B180BAF01930CAE11AB0093320051
:1043E0003B00280010A9FCF721F838780023FF28AB
:1043F00005D000220DA9FDF749FE0D9B9B8A638124
:10440000238910249B0B022B08D13078FCF734FB56
:104410002200010012A84AF0CFFD2419394B5B6835
:1044200001E7442C00D975E0059A9B1837331E78B4
:104430003000FCF7B1F96B46079030001F7FFCF7A6
:10444000B7F9C500381D2D186D00EDB2A8B2F6F70A
:10445000F8FA0400811C3000FBF73EFF3000FBF748
:1044600033FF00237F2223803B006060934305D00D
:10447000254B3A007F2103201B6898477F23208823
:10448000210098436B461B7F0831184380239843D3
:1044900063681B0C5A1E9341DB01184301222080E4
:1044A0003000FCF78FF922002900164B5B68049856
:1044B0009847164B1B6898472000F6F7C7FA049BED
:1044C0000133DBB20493059B049A01330593099BE6
:1044D000934206D06B461C7D0D4B1B685F2C00D0B1
:1044E0007CE6069A0A4B30321B6892009B18002229
:1044F0005A60069B01330693032B00D05EE619B089
:10450000F0BDC046C0BE000008BF0000ECB800000F
:10451000F0B80000582C3BD8059A9B184B331F78F5
:104520003800FCF755FA061D7600F6B20500B0B269
:10453000F6F787FA0400811C3800FBF7CDFE38003F
:10454000FBF7C2FE00237F2223802B006060934391
:1045500005D03B4B2A007F2103201B6898477F2210
:104560002388380093432B43013293436268120C33
:10457000511E8A41D20113432200290023800832B0
:104580000023FEF74DF82F4B220031005B688EE7C9
:104590005E2C38D0059A9B1864331878FFF7BCFA64
:1045A000041E2CD0C67C14367600F6B2B0B2F6F7F4
:1045B00048FA21000500E3891431C381637C437408
:1045C000A3898381A37C837423680360237C0374A1
:1045D000E27CC27463685200436023890381143013
:1045E0004AF0EAFC174B2A0031005B6804989847B0
:1045F0002800F6F72BFA144B1B6898475FE7AB6867
:1046000004989847F7E7FFF7EDFA002815D00368FC
:104610000EAA0E93C388102193800389D3808388C8
:104620001381837A9372C37AD372037B1373437BB0
:10463000FE205373034B5B6862E6FE20AB68E0E745
:1046400008BF0000C0BE0000ECB8000010B5FFF7C6
:10465000B1FDFA21044B89001868C38A043059431C
:10466000F9F7A8F810BDC046F0B8000070B50C000E
:10467000184D002824D1184B08008B6003237822A2
:10468000CB822960403014214AF0B2FC2000142271
:10469000FF212C304AF0ACFC200014225F2118309E
:1046A0004AF0A6FC20000522FF21BD304AF0A0FC04
:1046B000200005225F21B8304AF09AFCD02070BD5E
:1046C0002B681868002801D0F6F7C0F900232B608A
:1046D000F4E7C046F0B800004D460318D0207047FC
:1046E0000100094B10B518688BB2C3820430002B4F
:1046F00007D01900FA239B005943F9F75BF8002013
:1047000010BDF9F799F8FAE7F0B80000F8B50E4EC9
:10471000150037683C68002C11D184204000F6F762
:1047200090F9336838601B68002B0AD01D60FF3396
:1047300020001C715C71FFF775FA2000F8BD03487A
:10474000FCE7B020C000F9E7F0B8000082020000EA
:1047500010B5FFF72FFD002010BD0000F7B56E4D1E
:104760000C002A681368002B34D10B2832D84AF089
:10477000F7FB06360636436281A0D0D0B1B1CFB286
:10478000BE1EF6B293191B7E00935F2B23D15A3BBA
:104790000193002802D005200F3301932B32019999
:1047A000C3B28B4207D35D4B00221B680320E1B2EA
:1047B0009847009B03E00130115CFF29EFD12A6884
:1047C0009619D2182C32337617700933DBB25E2B70
:1047D00000D872E0F7BDCCB21219937DF5E78B1EBD
:1047E000FF215F20DBB2D3181B7E0C401419D218B6
:1047F0002C32A0751170E8E7CEB2931954331B78B0
:104800000093142B14D140321000FFF700FA070078
:104810000090142805D1414B0022310003201B6871
:10482000984728688619C01954364030377004708C
:10483000009B1D33CAE7CEB293197C331B780093DB
:10484000142B14D168321000FFF7E1F90700009033
:10485000142805D1314B0022310003201B689847F2
:1048600028688619C0197C36683037700470009B40
:104870003133ABE7CEB29319A4331B780093142BDA
:1048800014D190321000FFF7C2F9070000901428ED
:1048900005D1224B0022310003201B68984728686D
:1048A0008619C019A436903037700470009B4533C8
:1048B0008CE7CBB2082B00D98CE759092A6889000C
:1048C00052181F21194001238B40C43211680B4339
:1048D00013607FE7CEB29319B8331B78FF2B00D05B
:1048E00075E70027BD32D15DFBB2FF2909D0013742
:1048F000052FF8D1094B00221B683100032098478F
:104900003B002A689619D218B836BD32337014703D
:10491000D3E75E23D1E7C046F0B8000008BF00002F
:1049200070B5C6680500002E29D00322437D1340D0
:10493000012B2DD1007D04282CD84AF011FB032136
:1049400025212500300000F045FB041E17D028006B
:104950000C3048F0A7FF134B1A68F37C9B009B5860
:10496000002B03D0210030001B6898473000F8F777
:1049700053FCEB68002B0FD02800F6F795FB70BDB9
:10498000300000F079FDE0E7300000F099FEDCE750
:10499000054CDCE7054CDAE704226B7D93436B752D
:1049A000EDE7C046F4B80000820800008202000073
:1049B00018220E4B42431B6810B59B181A002D326B
:1049C0001278D2070FD52C331B7802221C00944397
:1049D000012C05D0002B06D1080000F039FB10BDDA
:1049E00000F002FDFBE70248F9E7C046F4B800001A
:1049F00082020000214BF7B51E68182301904F7CFE
:104A00000D007B43F3181A0003212D3212780A405F
:104A1000012A31D12C33187804282DD84AF0A0FA75
:104A2000032428242800280000F0BAFA041E19D113
:104A3000019B2800EB74F8F7DBFB18204743380094
:104A400024302900301848F0E5FE0422F3192D33F4
:104A50001978114206D138000A4318301A703018FC
:104A6000F6F722FB2000FEBD280000F0E9FCDDE7A0
:104A7000280000F009FED9E7014CF3E7F4B8000084
:104A8000820200000A4B00280FD10A001960FF23A0
:104A90006C3213701372074B543A0B628B630B002A
:104AA0003033CA614B637C20704700221A60FAE7FA
:104AB000F4B80000214903187C207047024B8000A5
:104AC0001B6819507047C046F4B8000070B50B4D14
:104AD00014002B689B6C002B0AD1FD22831E13420D
:104AE00008D100F093FD002801D12B689C6470BDB3
:104AF0000348FCE7C1204000F9E7C046F4B80000D5
:104B00008202000070B50C4D1C002B6806009B6CE7
:104B100008001100002B0AD1023EFD331E4208D1CD
:104B200000F098FD002801D12B689C6470BD0348FB
:104B3000FCE7C1204000F9E7F4B800008202000061
:104B400070B50E4D1C002B689B6C002B10D106001D
:104B500002339E43012E08D000280BD100F0FAF951
:104B6000002801D12B689C6470BD00F0E1FBF7E7E1
:104B70000348F9E7C1204000F6E7C046F4B800005A
:104B80008202000070B50E4D0C002B689B6C002B50
:104B900010D1020002339A43012A08D000280BD119
:104BA00000F0B2FA002801D12B689C6470BD00F0BF
:104BB00001FCF7E70348F9E7C1204000F6E7C046EB
:104BC000F4B80000820200000020054B10B51A68FE
:104BD000936C9064834201D088B2984710BDC04660
:104BE000F4B8000010B5FFF7EFFF10BDF8B50500F1
:104BF0000E000024094F3B6879331A7801321A708D
:104C00003A68A3009B58002B03D0310028009B6812
:104C100098470134062CF3D1F8BDC046F4B8000023
:104C2000F7B5182747433A000600154D24322B6884
:104C30009A180192DF197C6A002C10D12A68A3000F
:104C40009B58002B02D03000DB6898470134062CBB
:104C5000F4D12B6879331A78013A1A70F7BD0198AC
:104C600048F020FEC37C2A689B009B580400002B60
:104C700002D01B68034998472000F8F7CDFADAE71D
:104C8000F4B8000082080000F7B506001820704351
:104C90001A4F00903C6824302018019148F002FE21
:104CA000051E20D0012E02D10221F8F777FAEB7C05
:104CB0003A689B009B58002B03D028001B68019981
:104CC00098472800F8F7A8FA18237343E3185A6A9C
:104CD000002A09D02D331B78DB0705D50098183042
:104CE0002018F6F7E1F9F7BD182004224643A4196D
:104CF0002D34237893432370F5E7C046F4B80000C1
:104D0000F0B587B0050001910392032942D8224AE9
:104D1000224F565CB20002923A68B1008A58002ACB
:104D200038D09BB202930023029A190005A8F8F725
:104D300097F900282ED1059C029A20000C99F8F7CB
:104D4000DDFA0123039A2374E318DA77019B657473
:104D5000A3743B68E674B200D358002B05D1104B06
:104D60003200290003201B6898470C4FB4003B68B1
:104D7000E3585B68002B05D1094B32002900032062
:104D80001B6898473B6805981B595B6898470598CE
:104D9000F8F742FA07B0F0BDA44D0318F4B80000CC
:104DA00008BF000000010200F5490318B1490318CB
:104DB0000A4A13B512680389D16C02008088343224
:104DC0001218009201228C6810002021A047011EB9
:104DD00002D00120FFF758FF13BDC046F4B8000011
:104DE000F0B589B01F000EAB1B781600109C039322
:104DF000012807D0274B0A001B68010003209847B1
:104E000009B0F0BD0029FBD1234B1B6830335A7D1C
:104E100003231340012BF3D1D306F1D4FEF740FA5C
:104E20000028EDD0FDF7F2FF051EE9D04368002B06
:104E3000E6D02378022BE3D16378012BE0D1E3782D
:104E4000032BDDD12379032BDAD1A3796179134ABE
:104E50001B020B439342D3D1E279152AD0D1227A97
:104E6000162ACDD1A27A617A12020A439A42C7D198
:104E7000210010220B3104A84AF09EF8207FE37E27
:104E800000021843039B310000936C683B0004AAA6
:104E9000A047B5E708BF0000F4B8000027180000DD
:104EA00037B5069D012806D0134B0A001B68010088
:104EB0000320984737BD0029FCD103200F4909681A
:104EC0003031497D08400128F4D1C906F2D429784F
:104ED0004C1CA342EED1022BECD96C78293CE4B2F5
:104EE000022CE7D80139CBB205490235095D00959E
:104EF000FFF706FFDEE7C04608BF0000F4B8000079
:104F0000E051031810B5012819D0104B0A001B6896
:104F100001000320984710BD0D4B1868020066324F
:104F20001378002B0DD0013B137003000A2164336A
:104F30001B8850301B095943F8F73CFCEBE700296C
:104F4000EAD00120FFF7A0FEE5E7C04608BF000059
:104F5000F4B8000070B50F4E0125306804003034FD
:104F6000637D1A002A402B4212D1831DDA873C3020
:104F700048F03AFC33683021DB6C28001B68064A95
:104F80009847002803D10323627D1343637570BDE6
:104F90000248FCE7F4B80000E85103188202000060
:104FA00070B5837C0400022B0FD8094A0221D55C1E
:104FB000F8F7E6F8002807D12300A28834339B18BD
:104FC00022895D70013A1A7070BDA8200001FBE7CC
:104FD000E35103187FB50E250D26837C04006D4434
:104FE0006E44002B25D129003000FEF741F8164B06
:104FF0002A8818681F2A21D814493378416501008E
:10500000013B663184650B70030064331A802023F2
:105010002B801F3B33702988C56C20002389A4880E
:105020003430001932780090AC680120A04704B0F9
:1050300070BD20232B801E3B3370D8E70300002275
:1050400066331A70E7E7C046F4B80000B14D0318A4
:105050002A4B70B501001C68012819D0022830D0F5
:10506000002813D1220001203032557D05420DD099
:105070002E000223864356751D4205D133435375D6
:10508000E36C5B68984770BD00F044F81C48FAE791
:10509000200010233030427D1340150708D5202111
:1050A0008A43002B02D042750020ECE70A43FAE75E
:1050B000002BEBD118331A434275E36C08005B6890
:1050C000E0E722003032537D10201D00082105400A
:1050D0000B4207D018318B43002D01D15375E3E704
:1050E0000B43FBE7002DD1D083430B435375E36C97
:1050F00030211B68034A01209847C4E7F4B8000038
:1051000082020000E851031810B50020FFF7A0FF4D
:1051100010BD00000A0010B5012811D0124B01008B
:105120001B680320984710BD980602D48B43537523
:10513000F9E728218B4353750220FFF789FFF2E737
:105140000A4B08211A683032537D1C000C400B4278
:10515000EAD1834321005375FFF762FD210020004F
:10516000FFF740FDDFE7C04608BF0000F4B80000CD
:1051700010B50C00012814D0144B0A001B68010064
:105180000320984710BD9C0602D48B435375F9E762
:1051900028218B435375FFF75BFFF3E78343537578
:1051A0000EE008210A4B1A683032537D0B42EAD1D7
:1051B000002CF3D102218B4353752100FFF716FD1C
:1051C0000020E1B2FFF700FDDCE7C04608BF0000A9
:1051D000F4B80000014B1B68D8647047F4B80000B5
:1051E0000100022A292B00007151031815510318E0
:1051F000A14E0318E14D0318054F031810B5002800
:1052000006D0054B0A001B6801000320984710BD1B
:10521000FFF73AFDFBE7C04608BF00000D4B70B535
:105220001B68012218002D3001780C001440114237
:1052300002D0FF24200070BD0225A9430A4302705A
:105240001A006C3211782C3320001970FFF7CEFC55
:10525000F0E7C046F4B800000100FF2210B5044B8F
:10526000C9B21B686C3318781A70FFF7BBFC10BD0D
:10527000F4B8000010B5064B01001B686C331878B9
:10528000002901D0FF221A70C9B2FFF79DFC10BDA2
:10529000F4B80000F7B504000D0016001F00002848
:1052A00005D0114B0A001B68010003209847182203
:1052B0000E4B62431B689B1803222D331B781A4048
:1052C000012A0FD110211A000A400B420AD1002EE8
:1052D00008D0032D06D8064B2000595D00973300F7
:1052E000FFF70EFDF7BDC04608BF0000F4B8000090
:1052F000B85403180A0010B5002805D0094B010066
:105300001B680320984710BD0121074B1A682D32F6
:1053100013780B42F7D08B4313700449FFF780FCDE
:10532000F1E7C04608BF0000F4B8000082080000A2
:10533000F0B51B4D85B02B6803921A0002916C32B8
:1053400012780400FF2A01D0824226D19B6E002BE6
:1053500023D0012C05D00126032C03D0A820000166
:1053600019E002260F4F104B38001B6898473B8806
:10537000191C9F2B00D8A0212B680C4A9B6E009211
:105380001F683000039B029A89B2B847002802D1F7
:105390002B686C331C7005B0F0BD0548FBE7C046B8
:1053A000F4B80000FCB80000F8B80000C0540318BE
:1053B0008202000010B50A4C23681A006C32127881
:1053C000FF2A0BD09B6E002B08D05B689847002803
:1053D00003D1FF2223686C331A7010BD0148FCE72B
:1053E000F4B8000082020000134B10B51B680129BD
:1053F00007D0022912D000291CD19B6E9B689847C8
:1054000010BD182250431B182D331978083A080094
:10541000104011420ED10A431A70F1E718221021F0
:1054200050431B182D331A780A4203D08A430020B8
:105430001A70E5E70148E3E7F4B8000082020000D3
:105440001821837C407C0B4A4143126852182C324D
:105450001278012A05D10020012B0AD0A8200001D2
:1054600007E0032AFAD10020834202D0023B012B3D
:10547000F4D87047F4B8000010B5817C03290DD82A
:105480000200084C8388615C074C34322468D318CE
:10549000A46E0289E468407CA04710BDA8200001EA
:1054A000FBE7C046BC540318F4B80000014B1B686E
:1054B00098667047F4B8000000020301000301027F
:1054C00075520318595203181D520318F552031848
:1054D00095520318FD51031810B5002806D0054B4E
:1054E0000A001B6801000320984710BDFFF7CCFBA2
:1054F000FBE7C04608BF00000D4B70B51B680122DA
:1055000018002D3001780C001440114202D0FF2405
:10551000200070BD0225A9430A4302701A007432AC
:1055200011782C3320001970FFF760FBF0E7C046BC
:10553000F4B800000100FF2210B5044BC9B21B688B
:10554000743318781A70FFF74DFB10BDF4B80000E3
:1055500010B5064B01001B6874331878002901D080
:10556000FF221A70C9B2FFF72FFB10BDF4B800007C
:10557000F7B504000D0016001F00002805D0114BE0
:105580000A001B6801000320984718220E4B624353
:105590001B689B1803222D331B781A40012A0FD158
:1055A00010211A000A400B420AD1002E08D0032D08
:1055B00006D8064B2000595D00973300FFF7A0FB8B
:1055C000F7BDC04608BF0000F4B80000005703183C
:1055D0000A0010B5002805D0094B01001B68032004
:1055E000984710BD0121074B1A682D3213780B42E2
:1055F000F7D08B4313700449FFF712FBF1E7C04665
:1056000008BF0000F4B80000820800000E4A10B580
:1056100012680300140074342078FF2801D09842E7
:1056200010D1126F002A0DD0022B05D00120042BBF
:1056300003D0A820000104E0180023701368034A77
:10564000984710BD0248FCE7F4B80000085703185B
:105650008202000010B50A4C23681A0074321278D6
:10566000FF2A0BD01B6F002B08D05B6898470028DF
:1056700003D1FF22236874331A7010BD0148FCE780
:10568000F4B80000820200001821837C407C0B4AA1
:105690004143126852182C321278022A05D1002098
:1056A000012B0AD0A820000107E0042AFAD100202B
:1056B000834202D0023B012BF4D87047F4B80000BB
:1056C00010B5817C03290DD80200084C8388615CE9
:1056D000074C34322468D318246F0289A468407CB4
:1056E000A04710BDA8200001FBE7C04604570318DF
:1056F000F4B80000014B1B6818677047F4B800004D
:105700000002030100030102515503183555031827
:10571000F9540318D155031871550318D9540318B7
:1057200070B5060000F0FEFF04003000032501F014
:105730007BFE03344019A843AC432418300002F028
:1057400097F94019A843A4B22418300004F0D8F9FE
:105750004019A843A4B2241803F0F2FF4019A8434B
:10576000A4B2241802F0CCFD4019A843A4B2241816
:1057700005F092FA4019A843A4B2241803F08EFE53
:105780004019A843A4B22418300004F073FF401954
:10579000A843A4B2201880B270BD0000F7B5040081
:1057A0001500009100F0B0FF0326009BC71CB74313
:1057B000DF193900200001F0E1FD8019B0433F18E6
:1057C0003900200002F044F98019B0433F18390035
:1057D000200004F06FF98019B0433F183900200011
:1057E00003F09AFF8019B0433F183900200002F0FF
:1057F00077FD8019B0433F183900200005F03CFACE
:105800008019B0433F183900200003F02DFE8019A5
:10581000B0433F1839002A00200004F0FDFE801933
:10582000B0433F182A003900200005F0B5F8801970
:10583000B0433B180193002C70D14348FFF7CAFCDA
:10584000FDF72EFD002800D16DE04048FFF752FF24
:105850003F4C200000F068FF00203E49FFF72EF982
:1058600000213D4800F066FF3C4F380001F0E0FDAC
:105870003B4801F0E3FD3B4802F0FCF800213A48C8
:1058800002F0FEF80121394802F0FAF8384E3000F3
:1058900003F058FF3748FDF7ADFA3748FDF7BCFA7B
:1058A0000121364800F046FF354801F0CDFD0321C7
:1058B000344802F0E5F8380003F0F8FD300003F05A
:1058C000EFFD03203049FFF7F9F802212F4802F0DD
:1058D000D7F8300002F016FD200002F019FD2C4828
:1058E00000F036FF2B490520FFF7E8F8200005F00F
:1058F000BDF9FDF7D5FC02212B68002817D00B421B
:1059000009D02548013100F015FF380005F066F890
:10591000200005F05BF8300004F0F4F8019B009AD9
:10592000981A80B2FEBD1D48FFF7C0FD90E70B42FC
:10593000F1D01B4800F0FEFE380004F0A9FE200064
:1059400004F09EFEE7E7C0463CB4021898CB02186C
:10595000A84D031870670318587403186C67031870
:10596000987A031854740318A89E031850970318C4
:10597000947A0318589703185C95031844950318F4
:105980004095031854950318C8850318E885031833
:10599000D8850318ACAD0318A0AB031874C2021865
:1059A0003CA90318164B70B51C680C230500434333
:1059B0000120E3188C331A7802431A7000290AD1A7
:1059C0002300B8331D705970A368002B09D028003C
:1059D0009B68984705E00429F6D12300B8331D7071
:1059E00058700C20454364190834E36F002B05D030
:1059F0000022044B11001B680938984770BDC0464F
:105A000000B9000008BF0000F7B504000D00637C7A
:105A1000666900932E4B1F68002E4BD00822337C02
:105A20001A4001920822134219D109213000F7F7D8
:105A3000B5FB274B1B681A00B9321178013A12786E
:105A4000002931D10098824200D0F17332002C320B
:105A5000127829009200D35830001B689847300014
:105A6000F7F7DAFB2000F7F7D7FB0C20009B0226A4
:105A700058433D188C352B781A00B2432A70DB0747
:105A800011D58430381847F00DFF041E0BD02B7849
:105A900001001E430E4B2E701B6800205B691B68C3
:105AA0009847051EB3D1F7BD00998A42CED1019A1D
:105AB000F273CBE7BB68002B06D00322E273290008
:105AC00020001B689847CDE7FB68002BF5D1C9E79C
:105AD00000B90000F7B50C24230005004343012062
:105AE000164E3268D3188C3319788143197013001D
:105AF000B8331978A94201D1FF2119706C432300F2
:105B0000141927008433D31801930837FB6F002B37
:105B10000CD102228C3423789343237033689B6822
:105B2000002B02D02800DB689847F7BD019847F0AA
:105B3000B9FE0349FFF768FFE8E7C04600B9000077
:105B400082080000F0B587B00393384B02921B68BF
:105B50000E009C69A31D6769D97FE31CBD88D87FAF
:105B6000FF2951D000230122009304ABFDF798F8E0
:105B7000002847D12D4B39001B68A07C1A00343116
:105B80004D19A832032849D110801A00A878AA32EA
:105B90001070E8785070287990706879D070A87982
:105BA00010710020507190711800A269B13012BAC2
:105BB000150A02704570150C120EC2708570BD88F2
:105BC0004A19507808227F2800D8043A601DC2770D
:105BD000049807353060A088039E20183B30306061
:105BE0000C984919016000200299A8330B602389A1
:105BF0000D99073B9B1A0B800E9B1A700F9B186028
:105C0000109B187007B0F0BD002205A9FCF790F8B2
:105C10000028F7D1059B12330493ABE700201070E6
:105C20001A006878A9321070AFE7C04600B90000CA
:105C3000F0B5264F87B03B680E009C691500A3881D
:105C400000220393A31DD97FE31CD87FFF2934D002
:105C5000009204ABFDF724F800282CD1039B002010
:105C6000E2183B683B321900B3310870013108601B
:105C7000A1691C000F0AAF34217067700F0C090E68
:105C8000E1701900A7701478AE310C7054780139A6
:105C90000C70947801390C70D47801390C70147937
:105CA00001390C70547901390C709279A8331A704B
:105CB000049A32602B6007B0F0BD05A9FCF738F8F4
:105CC0000028F8D1059B22330493C7E700B90000F0
:105CD000F0B5294F87B03B6803929D690E00AC6A0E
:105CE000A38802932B7C687CDB063BD52B1DD97FD8
:105CF000FF2937D001230022009304ABFCF7D0FF2B
:105D000000282DD1029B0020E4183B683B341A0088
:105D10001900B332107001321060AA69AF31150A50
:105D20000A704D70150C120ECA701A008D70217811
:105D3000AE3211706178013A1170A178013A117098
:105D4000E178013A11702179013A11706179013AD3
:105D50001170A279A8331A70049A3260039A136002
:105D600007B0F0BD012205A9FBF7E2FF0028F7D13B
:105D7000059B22330493C5E700B90000F0B5534CEE
:105D80008BB007932368059199690692002904D185
:105D90004F4B0A0003201B689847236808269C691C
:105DA000621CD27F7F2A00D8043EB8331B780122C0
:105DB0000393237C607CDB0600D474E0231DD97F31
:105DC000FF2900D16FE0009208ABFCF769FF051EC8
:105DD00066D1228900239219022192B209A8F7F70D
:105DE0003FF9051E5CD10300228920000999F7F7CD
:105DF00065FA227C354B7F2A5ED903211B68A27C81
:105E0000A833039219800491FF22606912040704E9
:105E10001740020CD2B23A43FF272C4B3F021B68BB
:105E2000384002431800AA300270170A120C47705B
:105E30008270A28B1F0052BA92B2C270120A027113
:105E40001A000020AF3210705070A269B13712BA38
:105E5000110A3A707970110C120EB970FA70089923
:105E6000059AA8331160A2880799A2183B320A60EC
:105E7000099A10999788D7193B370F6006990B60DC
:105E800023891199073B0B80129B1E70139B18608E
:105E9000149B1870039BA2625374049B5461937407
:105EA00028000BB0F0BD09A9FBF742FF051EF7D192
:105EB000099B123308938CE71B681A00A8321570EF
:105EC000621CD27FA9331A7004959DE700B90000C7
:105ED00008BF0000F0B585B000910400407C0229A5
:105EE00032D1E37B032B2FD10C27504D47432B6836
:105EF000DE198C3601933378DB0700D493E0200061
:105F0000F7F776F933780098009A1840134212D1C7
:105F1000134333702B6821005B691B689847051E8B
:105F200006D03378009A200093433370F7F774F962
:105F3000280005B0F0BD3800019B843021001818FE
:105F400047F068FC0025F3E7012203A9FBF7F0FE08
:105F5000051EEDD1039B092120000193F7F710F9ED
:105F6000051EE5D12600A3883436F61802ABDF1CE7
:105F7000237C3870DB064CD5231DD97FFF2948D000
:105F800001233A00607CFCF79DFE002846D1FF21EA
:105F9000A3693A78DB0113433370631CDB7F090488
:105FA0007370626913040B40110CC9B20B43FF21DB
:105FB00009020A401343B3701A0A1B0CF2703371C2
:105FC000A38B5BBA9BB273711B0AB371E38B5BBA91
:105FD0009BB2F3711B0A3372009B032B20D8230062
:105FE000009A2C331A702000F7F702F900230F4EA5
:105FF000A36230682100183047F00CFC33689B69BD
:106000009C4200D094E70A4A0A490320F7F756FB5E
:106010008EE7019B42331B783B70B8E7050087E7AA
:1060200004230093DBE7044D82E7C04600B900007B
:10603000B96403187D5D031882080000F0B50700FD
:106040007F2683883437FB5C87B000931E40FF2394
:10605000821DC51CD377EB770400FDF74FF8011EB6
:1060600003D13000FBF7CCFEE877EB7FFF2B54D059
:106070000023A08821893818013905AFC51D4118B2
:10608000EE5CC25C72405E428E5D7240DA55013356
:10609000042BF5D12F4A002615682A008332127886
:1060A00002922A008232127803930192029B9E424E
:1060B0003ED3019804221C3080003900281848F093
:1060C0007BFF2A00823213780133DBB2042B00D12C
:1060D0000023137083352B78042B01D001332B70F0
:1060E0002000F7F785F8002301226361A31CDA770B
:1060F000009BD809FDF70AFA164DA0612868210017
:10610000183047F087FB2B689B699C420ED1124ADE
:1061100012490320F7F788FA08E022000021300036
:106120002532FCF78BFDE877FF28A1D107B0F0BD41
:10613000019B9B1B591E042900D9D91C1C318900C5
:10614000039A691805A848F029FF0028EED0013607
:10615000ACE7C04600B9000019630318315C0318AE
:106160000A4B10B51B689B69002B07D01B7CDB0713
:1061700005D40320064A0749F7F7A0FA10BD064ADE
:1061800006490320F7F750FAF8E7C04600B90000C7
:10619000B96403187D5D031819630318315C031893
:1061A00070B50400806A0D00002801D0F7F734F8BC
:1061B000237C1B070AD4084B29001A6823002C33C0
:1061C0001B7820009B009B581B6898472000F7F71E
:1061D00023F8FFF7C5FF70BD00B90000F7B52F4FDA
:1061E0000D0038681400183047F05CFB0600002DE5
:1061F00052D12200856A0F32AB8809343533EB184F
:1062000019781078013A414019700133A242F7D150
:106210006B7C0193FF2B3DD03C68A368002B0FD013
:106220002200B9321278002A0AD12200B83212783C
:1062300001998A4204D10222EA7328005B689847D8
:106240000C23019A5343E2188C3201921278D10741
:1062500020D50220022110400A4213D1019B0A439B
:106260001A703B680C005B6929001B689847011E87
:106270000DD0019B019A1B78A34313703000FFF7E8
:106280008FFF06E084332900E01847F0C3FAFFF7D8
:1062900067FFF7BD0249F1E72900EFE700B9000009
:1062A00082080000F8B58388821DC31834331F7834
:1062B0007F23C51C1F408033D377EB770400FCF7A6
:1062C0001DFFA61C002804D13800F17FFBF798FDC4
:1062D000E877EB7FFF2B05D0F37F0133F377FFF7F0
:1062E0003FFFF8BD22003800F17F2532FCF7A6FC05
:1062F000E877FF28F0D1074B1868183047F0D2FA3A
:106300006069002801D0F6F787FF2000F6F784FFC8
:10631000E5E7C04600B90000F0B5644F14003B68E3
:1063200087B09D69002900D0BBE06969002900D0D1
:1063300098E00B002A8905A8F6F792FE002800D005
:10634000AFE00023072205992800F6F7B7FF2100E8
:10635000059A0F316A61938809343533D3181A7856
:106360000878013942401A7001338C42F7D1059CFC
:106370002200A3883432D218EB1CDB7F211D63740A
:10638000AB1DDB7FCB7701235B4263825178631CBB
:10639000D977D17890781379090201431B040B4314
:1063A000FF210902180C19400143FF201B040004BF
:1063B00003400B436361937951791B02AA690B4334
:1063C0005BBAA383A2616A1CD27FA11CCA77012297
:1063D00098B21BB22274002B63DDFAF733FB00285E
:1063E0005FD1059E3968B388F31834331A787F2358
:1063F0001A400B00039281331B7801930B0080330A
:106400001B780293019BB78B98422DD3029B039A72
:10641000DB00CB18981DDF84C277B269581DC277A4
:1064200072691A620B00029A80330132D2B20A2AD0
:1064300000D100221A70019B0A2B02D00133813156
:106440000B70A08B6269A169FDF716FA002828D1AC
:106450006069FDF745F90320154A1649F7F735F944
:1064600007B0F0BD05916CE7029B1B1A013B0A2B9C
:1064700000D90A33DB00CB18DA8CBA420FD19F1D4A
:10648000FF7F039A97420AD15F1DFA7F9446B26953
:10649000D7B2BC4503D11B6A7269934201D0013067
:1064A000B0E72800FFF7FEFEDAE7C04600B90000BB
:1064B000E9640318455B031810B50C1E05D10320D1
:1064C000064A0749F7F7B0F810BD064B18681830B0
:1064D00047F0E8F92100FFF763FEF5E7DD610318F7
:1064E000D15C031800B90000F0B5854F85B038685D
:1064F0008569002900D0FFE06C69183047F0D2F9B7
:10650000A2882000A2183B32537811781B020B435B
:106510005BBA0921E383F6F741FE6B1DD97F2000AA
:10652000F6F758FEFCF7EAFD002804D03B6820008F
:106530001B695B689847AB7C032B1BD13A68631CD3
:106540009168DB7FE68B002946D05AB2002A11DA27
:106550005B060FD1002E09D16B7CA3740023E3737B
:106560003B689B6820005B68984703E0FAF760FA95
:10657000B042F1D0E68B002E24D032B2002A06DAE7
:10658000631CDB7FDB0902D0B30B022B1AD03B6804
:10659000BA331B780093002B35D001230093584F5A
:1065A0003B689B68002B04D00122EA7328005B68DB
:1065B0009847009B002B00D172E03B6820001B68CD
:1065C0005B6898472000F6F727FE2800F6F724FEC0
:1065D000FFF7C6FD05B0F0BDD268002ACAD05AB296
:1065E000002AC7DA7F221900114000911342C1D15D
:1065F000FAF71EFAB042BDD16B7CA374009BE37323
:106600003B68DB68AEE7002A3DDA0020FCF720FE9D
:1066100006000128C3D1631CDB7F01937E23019A0E
:106620001A42BCD0E3882289A18803A8F6F718FD96
:106630000028B4D1039F3300390020002289F6F7E7
:106640003DFE7F21019E0E40013EF6B233008B439A
:1066500004D02C4B320003201B6898477F217A1C02
:10666000D37F03988B431E43D67701223B7C0021C6
:1066700093431A00082313433B74FFF72BFC039842
:10668000F6F7CAFD8BE73000FAF7DCF9002800D0F6
:1066900083E730000099FDF7ADF90028B5D07CE71D
:1066A0001E22A35EE68B002B00DB8BE73B68BA3330
:1066B0001B78002B00D080E7FCF7E2FD012800D119
:1066C0007BE7FF2332009A43FF231B029A4206D145
:1066D0003000FCF761FE002800D173E76DE7B30BD3
:1066E000022B00D069E7009A30001100FAF704F994
:1066F000FF2800D166E760E72800FFF7D3FD69E7D0
:1067000000B9000008BF0000054B002805D1196042
:10671000FF23B8310B80BC20704700221A60FAE7D3
:1067200000B90000BC207047014B1B6858617047DE
:1067300000B90000032900D904210022034B89007D
:106740001B68C850BA331A707047C04600B90000C1
:10675000014B1B681861704700B900000122024B11
:106760001B68BA331A70704700B90000D55E031871
:10677000095A03183D600318A5590318D55A031880
:10678000F7B5E826104C019325687600AC5D0B0A3E
:10679000E700A337FF37EF193970090CB970E10032
:1067A000A6246918FF347B700A55D022019B520041
:1067B000885206328B54AB5D0133DBB2052B01D816
:1067C000AB55F7BD0023FBE704B9000070B50568C1
:1067D00004001830F7F730F8AA69A88B696900231C
:1067E000FFF7CEFF054B29001868143047F064F816
:1067F0002800F6F711FD0023236070BD04B90000E6
:10680000F0B5002787B003930CAB1B88040016007B
:10681000029101930597FCF733FD009705000128CD
:1068200005D13000FAF70EF94540EBB20093FCF7C2
:1068300065FC002800D077E008230722092120000A
:10684000F6F776FD071E33D1FCF710F82200210081
:10685000FF2514321831FCF77FFE029B65826374BA
:10686000FCF7EEFB80235B420343621CD377039B60
:106870002774E383231DDD77009B002B1BD0FAF7E1
:10688000D7F8A0830D9B227C1EBA1100202325007F
:106890001940343502911A421BD003212000F6F72B
:1068A0007DFCA088042228180DA90D9648F084FBD1
:1068B000380007B0F0BD2300009A2C33A6831A706D
:1068C000019B2000A3841A4B1B685B681B689847D8
:1068D000D8E70098FF21431E9841019BC0059B0209
:1068E00003431A0209040A40FF21A08809021B0A77
:1068F0002D180B40134305A903222800059348F0E7
:106900005BFB0DA90422E81C0D9648F055FB084BD3
:1069100020001B6802999B681B689847002805D1D6
:106920002000F6F765FCC3E7024FC1E70700BFE7A9
:1069300004B90000820200000300F7B52E33009175
:1069400001921D780F4F09353E686D010400281D26
:106950003018F6F771FF0023AB51019B002B04D0D8
:1069600038682100143046F0A7FF3B6800991B6887
:1069700020001B6898472000F6F74EFC0020FCF72B
:10698000BDFEF7BD04B90000027F0123202A0BD011
:106990009340013B82695340C27F0020202A01D0EE
:1069A00001389040184070475B42F3E7F0B58FB074
:1069B000AA4B1E68F3680393002B02D07769002F5F
:1069C00001D10FB0F0BD01227B69DB04DB0C099320
:1069D0003B7C134228D034253B0028002D331C7803
:1069E000FA8B60433018806CBB8B797C01900998DE
:1069F00000900398FFF704FF00280FD1FCF720FB5D
:106A00003221013465434143751928009631F6F768
:106A1000D1FE924B18680C3046F044FF8F4B18683B
:106A2000143046F03FFFC3E73B001F242E331B7892
:106A300006931800BB8809300A937B1C1C57082357
:106A4000400130180593002C01DB04330593FFF758
:106A50009BFF002304930300049AD34001221342B6
:106A600004D1049B9B180493202BF4D1059B04991B
:106A7000049A59438BB2079300230D93069B5B0145
:106A8000F3183D33FF331B78013B9A4204D13B8915
:106A9000079A9B1ADBB20593059B1A1D0823002C4D
:106AA00000DB043B09210398F6F742FC041E00D0EA
:106AB000B7E03900039820221031103048F07CFAFA
:106AC000FBF7D4FE039A039914321831FCF744FD06
:106AD000039B7A695B6908939B1A80229201934217
:106AE00000D39DE0039B03989B883430C318089320
:106AF0003B002C331A78130605D5FE21584B032092
:106B00001B68C90598473B002C331B783D7C1B064E
:106B10000B938023AD051B041D40099B9B02099329
:106B2000049B5C01E0235B011C4206D0F8214C4B26
:106B300003201B68049A890098470B9B1F211C4364
:106B4000099B25432B430993069B5D0173193D3334
:106B5000FF331A78013A13008B4303D0404B0320D4
:106B60001B68984775192B0080263D33FF331C782E
:106B7000099B013C1C4336062643042236BA0DA964
:106B800008980D9648F018FA079A390094460A9B1F
:106B9000089863443431C918059A043048F00CFA57
:106BA0000120FCF7ABFD2D4E0021336803989B6854
:106BB0001B689847041E34D10398F6F719FB049B11
:106BC0004035FF3501332B70336803933B002E3380
:106BD0001D782800093043010493049A039B9446CE
:106BE000039863440C30059346F05CFE0598FFF76C
:106BF000CBFE002800D0DBE6039B6D015D192A0067
:106C00003E32FF3213780133DBB213701E217A5EFD
:106C1000002A11DA022B04D84035FF352870C7E668
:106C2000104C0E4B1868143046F03CFE0022210038
:106C30003800FFF781FEBBE630680137143046F0BC
:106C400031FE7F23F97F04980B4032215943039B87
:106C50000430C8311818F6F7ADFDA9E604B90000F4
:106C600008BF000082070000016810B500290AD0A3
:106C7000054C2068143046F0CDFD2368DB68002BFE
:106C800001D0FFF793FE10BD04B90000030010B55A
:106C90005A7F0068022A0FD800220A4CDA7723684C
:106CA00001001433180046F0B5FD2368DB68002BA3
:106CB00001D0FFF77BFE10BD00220349FFF73CFE29
:106CC000F9E7C04604B900008205000010B5037B57
:106CD0000400FE2B0BD10E4B210018680C3046F03F
:106CE00099FDFFF763FE2000F6F796FA10BD431CEE
:106CF000DB7F7F2B02D9C37C002B02D1A37CFF2B2F
:106D0000F1D0034B20001B681B681B689847EAE71B
:106D100004B90000F7B5451CEB7F04000B267F2B60
:106D200000D804362000F6F763FA2389B34233D83B
:106D3000237C9B0754D4414E200033685B681B685A
:106D40009847237C9B0606D500212000FFF7BEFF55
:106D500000252800FEBD27002500012120002C373A
:106D6000F6F70EFAA3883A783435ED18130605D5F0
:106D7000FE21334B03201B68C90598473B7800214F
:106D80002B70336820009B681B689847051EDFD076
:106D90002000F6F741FADCE7EB7F7F2B02D9237C5A
:106DA0009B071DD4254E200033685B681B689847FD
:106DB000237C9B06C8D4EB7F08217F2B00D80431AD
:106DC000376800233A002132FF325E019559D8B26C
:106DD0000090002D07D00133042BF6D1194DD7E7D1
:106DE000C1256D00D4E72200D8B209332E32BE1976
:106DF0005B011070DC5133003D332089FF33019378
:106E00004B1EC01815F05CF8019B009A18703300F7
:106E10003800FC334036DD63FF3641331D705A7055
:106E200021003570143046F0F5FC044B1B68DB681C
:106E3000002B00D18CE7FFF7B9FD8AE704B9000009
:106E400008BF0000820D00000300F0B5343393B09A
:106E50000C93838806000D930D9A0C9B9446634413
:106E600008930422431C089911A8DF7F48F0A4F876
:106E7000119BFF091BBA03931193002B00DBA9E0C0
:106E80005B02DB0C09931F23039A1A40013205921F
:106E9000039A52091A400292002F00D157E2173B81
:106EA000079300230E9373690999DA04D20C8A427E
:106EB00054D30A005B0B5B031A43954B04921B6887
:106EC00006930023069A0A931C3234330A995943D5
:106ED00055580B91002D4DD0A88BB18B884249D1CC
:106EE0000B9C069B1C341C19049A6B699A423BD973
:106EF0002000FFF76BFC864AB38B1268B069110063
:106F000006920022A131FF31C4B20888984237D1DD
:106F10004879A04234D1C8788D78000228430D7991
:106F20002D042843049D85422AD106993432D2008B
:106F30008A189279002A1BD01E20315EF28B00291C
:106F400016DB0021012508002C008C40059F013133
:106F50002043CCB2A742F7D8717C34E06D4A9B182D
:106F60005B0B099A5B03A7E7049A9A4200D351E1AD
:106F700013B0F0BD0A9901310A910529A6D1BAE7EB
:106F800001320831062AC0D1002306990A932E3215
:106F90001C310A9B53430B93CB58002B00D1BBE011
:106FA0000A9B01330A93052BF3D10023B26904999C
:106FB000B08BFFF7E5FB1E21735EF28B002BD7DB56
:106FC0000020B38B717C0190099800903000FFF78E
:106FD00017FCCDE7039B4E4D1C0E002F00D186E021
:106FE000002C00D083E05F02F08BFF0CF9F72AFD44
:106FF00000286ED02B68190021310293FF31630104
:10700000CE58002E09D07269D204D20CBA4204D1F3
:107010001E20325E002A00DBA0E10134042CEED1F8
:10702000A6E79340013B089A0593089B1179DB780A
:1070300009021943130052799B79120411431B066C
:107040000B431BBA03932300093307935B01069399
:10705000069A029B9818FFF797FC04900020FCF713
:107060004DFB039B002B26D0059B039A00279342E0
:1070700023D0029B64011C192300FC330698DA63B9
:1070800041331F70029B04301818F6F7D5FB4034CB
:10709000049BFF342770BB4200D069E728683100A9
:1070A000143046F0B7FB2B68DB68BB4200D15FE7CA
:1070B000FFF77CFC5CE7B027FF00049A0298531EA0
:1070C0009A41079B39005B011858D2B2FFF734FC94
:1070D0004EE733002C33187003213000B784F6F7E5
:1070E0005DF82B685B681B683000984740E7330009
:1070F00001212C331C7030003174F6F74FF82B68E7
:1071000030005B681B6898472B681B685B68EBE77F
:1071100004B9000000E0FFFF03210B9C069A1C3419
:107120001419059A05985143079A42432000F5F730
:1071300097FF0D90002800D037E7069B0B9A31008F
:107140009F18FD6920222B00280034330C93AB8854
:10715000103110300F9347F02FFF049B029A6B61A0
:107160000C9B07981A707369049A08999B1A2A0055
:107170009BB2353213701B0A53700D9B059ABB648A
:107180003B004C331A7001225A70039B0431934028
:107190002A005B0E2C3213700E9B5A0005231343FA
:1071A0002B74029B079A58430F9BC0180C9B18180E
:1071B00047F002FF059B029A013B9A4207D13189B1
:1071C000FB69079A0439891A1A89891819810B9859
:1071D000069B203018186749F6F7ECFA1E22B35EBA
:1071E000002B0BDB0B9D069B34355D19FBF728FF4D
:1071F0003221414328009631F6F7DCFA34230A9A0B
:1072000002995343069AD31801228A40996C0A4383
:107210009A646DE06B1CDB7FDB099F4200D0A7E620
:107220002B00039A2C331B7857007F0EBB4200D0F3
:107230009EE60B9A069B05999B181A004C32127811
:107240008A4200D094E60A0002998A4200D88FE66A
:107250009B6CCB40DB0700D58AE60B002F00079A1A
:10726000A88853430D99C0180C9B34370431591822
:10727000381847F0A1FEB31CDB7F02355BB2EB7719
:10728000059B029A013B9A420CD1079B31890A9ACD
:10729000591A34235343069A0431D318D86989B252
:1072A000F5F798FF0B98069B203018183149F6F730
:1072B00081FA34220A9B029D5A43069B9A181100B8
:1072C00003234D3108785843C555087843430133AB
:1072D000FF18049873691B1A9BB23B701B0A7B70E2
:1072E0000123AB40906C034393640B7801330B7024
:1072F000230030331A7801331B789A4200D037E6E6
:1073000020001830F6F798FA201DF6F795FA1A4D76
:1073100020682B685B681B6898472B6820681B688F
:107320005B6898472068F5F777FF00232360B26910
:1073300004990133B08BFFF723FA1E21735EF28BA1
:10734000002B00DA14E6B38B717CE06A3BE6039B0A
:107350001B02DB0F0E930C230793A4E5029AD318AC
:107360003D33FF331A780123202A00D059E65B42CF
:1073700059E6C0461027000004B90000F8B5254EB4
:10738000002843D10D000B004135FC33FF350800C8
:107390001D6520351D67C6251F4A2130FF30DA6282
:1073A000DA64DA6618636D0084334B51C4230C0031
:1073B0005B00CA500B00D534184D194A3160FF34B8
:1073C0001C331B62DD61DB609A6034339842F8D174
:1073D000A131FF3108003022FF2147F009FE0025CE
:1073E000FE27202363810F4B3068236301236573DD
:1073F000013521002773A3730C30EDB246F00AFA71
:107400005434042DEDD1C9208000F8BD0023336031
:10741000F9E7C04604B900008D6C0318696C0318C5
:10742000CD670318A55A5AA5C920800070470000EF
:10743000014B1B689860704704B90000014B1B6842
:107440001860704704B90000014B1B685860704712
:1074500004B90000156D0318CD6C0318496E0318AC
:10746000000000000000000070B5194C2068056A9B
:10747000002D09D02B002D331E78002E05D10120C0
:10748000144A1549F6F71AF970BD203046F00AFA89
:10749000236828001B691B689847104B010098421D
:1074A0000CD120682900303046F0B4F92068036A16
:1074B000002BE9D01430F3F7F7FDE5E70028F5D00D
:1074C0002368B600F35828001B689847EEE7C046CB
:1074D00008B90000E17403185D750318820D0000FF
:1074E000F8B51C4D0C1E2868066A1BD12030776A3F
:1074F00046F0D8F92B6838001B691B689847164B73
:10750000040098420CD128683900303046F082F9E6
:107510002868036A002B02D01430F3F7C5FDF8BDCC
:107520000028F5D0706A002801D0F5F775FE2868AC
:10753000203046F0B7F933002D331B782A689B00C2
:107540009B58300021001B6898473000F5F764FE17
:10755000DEE7C04608B90000820D0000F0B589B032
:107560000391042105935E4B04921D682C6A227CD2
:1075700023890191920704D508220192072B00D894
:1075800001916A46928800270292019A9B189BB249
:107590000F2B00D80A37A07CFAF712F90300A07C61
:1075A000002B00D18EE007A9FAF72EF9061E00D0B5
:1075B00092E0029B228939009A1892B2030006A831
:1075C000F5F74EFD061E00D086E001230200069965
:1075D0002000F5F773FE069F67627C62A07CFAF7D5
:1075E000EFF83300002803D1079BDA7C40231343D4
:1075F0003A002C321370019B082B03D13A7C063BD6
:1076000013433B74A07CFAF7DBF82A00431E984131
:10761000019B3832043B591E8B4129000130107008
:10762000FF20DB0139310B70616900040B0403405A
:10763000080CC0B20343FF20000201400B432900A5
:107640003A310B70180A1B0C48708B70A38B4435B1
:107650005BBA9BB2CB701B0A0B71E38B5BBA9BB21C
:107660004B711B0A8B71A3691BBA180ACB71087284
:10767000180C1B0E48722B70079B039902330B608A
:107680002300A18834335B1805990B6006990B0021
:10769000898834335B180E990B60049B1A60238928
:1076A0000F9A1380109B019A1A70E08B830B022BA8
:1076B0000DD10021119AF9F71FF91023FF2809D1E4
:1076C000084E09E0012207A9FAF7E0FC6EE7002363
:1076D000119A1360129A1370300009B0F0BDC046C1
:1076E00008B9000082020000F0B587B002934E4B4B
:1076F00008271E680091B46A0192237C9B0700D47E
:10770000043FA07CFAF75CF805A90200A07C002ADF
:1077100000D17EE0FAF778F8051E77D1BBB203936B
:1077200022890300D21B010092B204A8F5F798FC4D
:10773000051E6BD10200049901232000F5F7BEFD60
:10774000049BA07C6362FAF73BF83200431E984129
:107750003B1F591E8B413100383201301070FF2021
:10776000DB0139310B70616900040B040340080C24
:10777000C0B20343FF20000201400B4331003A3105
:107780000B70180A1B0C48708B70A38B44365BBAC5
:107790009BB2CB701B0A0B71E38B5BBA9BB24B7134
:1077A0001B0A8B71A3691BBA180ACB710872180CDB
:1077B0001B0E48723370059B009902330B60230047
:1077C000A18834335B1802990B6004990B008988F7
:1077D00034335B180C990B60019B1A602389BAB291
:1077E0009B1A0D9A13800E9B1F70E08B830B022B4C
:1077F00012D123002E3319780F9AF9F77DF803344C
:10780000E077FF280DD01023109A1370280007B0DE
:10781000F0BDFAF73BFC7FE70F9B1D60109B1D70CE
:10782000F4E7024DF2E7C04608B90000820200000A
:10783000002370B504004362032900D9042123000A
:107840002D3319702000F5F7D3FC074D210028686F
:10785000203045F0DFFF2868036A9C4202D11430D3
:10786000F3F722FC002070BD08B90000030070B5DA
:1078700004002C331878631CDB7F7F2B17D9431E41
:10788000092B0FD8234B02381B6808280BD847F068
:1078900067FB0C0A0C0A0A0A0A0C05005B68200048
:1078A0005B68984770BDDB68F9E79B68F7E74306BC
:1078B00026D53F2100220140607CFAF7D3FCA0745A
:1078C000A37CFF2BEED02000F5F792FC22000023D2
:1078D00001212D32636211705370FF220D4DE31CA4
:1078E0002868DA772100283045F094FF2B689B6ADE
:1078F0009C42D7D1084A09490220F5F7E6FED1E7B4
:10790000FBF7CEFC002803D0E08BF9F70BFFD6E79E
:10791000A074D8E708B90000AD790318E976031818
:1079200070B5431CDB7F0400164D7F2B21D8466ABF
:10793000002E07D02B6830001B681B68984730006A
:10794000F5F76AFC2000F5F767FC2868046B002C4B
:107950000ED0303045F0A6FF2B6820001B691B6855
:107960009847002804D128682100303045F088FF6E
:1079700070BD03002D331B782A689B009B581B6841
:107980009847DFE708B90000054B10B51B689B6AF4
:10799000002B04D00220034A0349F5F796FE10BDE0
:1079A00008B90000AD790318E976031870B5274DC2
:1079B0002868846A002913D1666AE31CDA7FF31C05
:1079C000DA77283045F06EFF2B6830001B685B6863
:1079D00098472000F5F720FC3000F5F71DFC0FE07C
:1079E000E38B9B0B022B0ED1E31CDB7FFF2B0AD01A
:1079F00022002E32137801331370A37CFF2B19D091
:107A0000FFF7C2FF70BDA07CF9F7DAFE00280FD1A6
:107A1000230026002C3319783F232D361940327865
:107A2000607CFAF71FFCA074337801333370E4E70D
:107A3000FF23A3742868283045F034FF606A0028CB
:107A400001D0F5F7E9FB2000C7E7C04608B9000000
:107A5000054B002804D11960044BCB6148207047C6
:107A600000221A60FAE7C04608B9000069740318DA
:107A700048207047014B1B681861704708B9000027
:107A8000032903D8024B89001B68C8507047C046C1
:107A900008B9000031780318217903186D780318AC
:107AA00010B5044B01211B68187C5B685B68984724
:107AB00010BDC0460CB9000010B5044B02211B6874
:107AC000187C5B685B68984710BDC0460CB9000025
:107AD000064A03001268D26812681068002800D1B4
:107AE0007047828C9A42FBD00068F7E70CB900001F
:107AF00070470000034B1B681A7C824201D1FF22B1
:107B00001A7470470CB9000010B50B4C2368DB6881
:107B1000002B10D01868002801D0F2F797FF002042
:107B2000FAF7F2FFFCF74EF82368D868F2F78EFFF9
:107B300000222368DA6010BD0CB900003E424244C6
:107B4000484248003E42003E48480000F0B50E253D
:107B500087B01E0002ABED18140004902980032AA0
:107B60002CD0052A34D0012A2ED0012300270293DD
:107B700008230E2130002A88F5F772FA03900028B6
:107B800019D1336818009B883430C018002F25D0D5
:107B9000049910232A00009745F0D0FB011E21D044
:107BA000224B22001B68032098473068F5F734FB0E
:107BB00084235B010393039807B0F0BD0A232B8055
:107BC00000231B4F0293D3E71A4F2A800292CFE77C
:107BD00004232B800023184F0293C9E72A880499B5
:107BE00047F0EAF9FBF7FEFF3568032C1AD0C3888B
:107BF000FF26EB83EB1CDE7702236B740F4B6B824B
:107C0000F8F716FF80226B1CA883DA77002202990E
:107C10002B332A741C702B1D914205D0DA77102368
:107C20002B74C8E7064BE3E7DE77C4E708BF000024
:107C30003C7B0318447B0318477B0318FF030000B9
:107C4000FDFF000010B5F5F7E7FA10BD10B5040010
:107C5000FAF70CFE2200210014321831FBF77CFCED
:107C6000034B02211B6820001B681B68984710BD4E
:107C70000CB900000E4B70B51B68DC686368002B04
:107C800014D0E61CF37F062B10D1FBF7ABFF0500E9
:107C9000201D45F007FEFFF7D9FF07232000F377EB
:107CA000A97A0C30F5F786FDFFF706FF70BDC046D8
:107CB0000CB9000013B5FBF795FF01226946437B21
:107CC000684613400B70002101ABFFF73FFF041E15
:107CD00008D1054B01991B68D868043045F09AFD1E
:107CE000FFF7C8FF200016BD0CB90000114B70B59E
:107CF0001B680400DD68002D1AD0FBF773FF002815
:107D000016D0EB1CDB7F062B12D9631CDB7F7F2B8D
:107D100007D97F22A388E418343423781340022B38
:107D200006D0437B01334373034B6B84FFF7C2FFE1
:107D300070BDC0460CB90000060300002B4B70B5A7
:107D40001B6886B0DE680023356802AC2370AA7D0C
:107D5000072113008B4303D0254B03201B68984752
:107D60000722182123789343AA7D134323706A7D49
:107D7000D3008B4303D01E4B03201B689847182267
:107D80006021237893436A7DD200134323702A7DB8
:107D900053018B4303D0164B03201B689847602286
:107DA000237893432A7D520113432370EB7D637044
:107DB0006B8A2381F8F76CFEA072338C2000A381BC
:107DC000AB6803226360002101ABFFF7BFFE041E16
:107DD00009D10198FFF73AFF300064210C300336D7
:107DE000F5F7E8FCF477200006B070BD0CB9000090
:107DF00008BF0000344B70B51B68DC68E51CE97FE8
:107E000008295AD8080047F0ABF8050E58585858BA
:107E10003C29310001232000FA21EB770C30890046
:107E2000F5F7C8FC0BE0221DD37F013BDBB2D37713
:107E3000002B05D0238C01332384FFF77FFF70BD17
:107E400023681968002902D00223EB77F7E7842022
:107E5000FF30F6F7C3FDFFF757FEF0E7FBF7C2FE72
:107E60000823EB77C17A20000C30D9E70623221DC6
:107E7000EB77D37F013BDBB2D377002B04D0FFF746
:107E80001BFEFFF717FFDAE7FBF7ACFE2468C1889B
:107E9000002C0ED10D48F6F7A1FD2000FBF764FA87
:107EA00021000920FCF75AFCFFF72EFEFFF704FE25
:107EB000C5E70748F6F792FDF6E7064B00220320D8
:107EC0001B689847BBE7C0460CB90000830500005B
:107ED0008303000008BF0000094B70B51B68DB6816
:107EE0001D682B68002B00D170BD280045F0DAFC1E
:107EF00004001030F5F7A0FC2000F5F78DF9F0E74D
:107F00000CB9000070B5184E0D003368DC68002C09
:107F100012D00334E17F04290FD1FBF763FE134A2B
:107F2000007B1349F8F714FE336805009B689847F7
:107F3000002D15D10523E37770BD032904D00D4B27
:107F4000002203201B689847002D09D10623E37700
:107F5000FFF7B0FE0028EFD029000748F6F73EFDF6
:107F6000FFF7D2FDE8E7C0460CB90000BD82031858
:107F70008D82031808BF000083020000224BF0B579
:107F80001B680600DF680D00FB1CDB7F85B0012B42
:107F90001CD10378002B19D08B8B18000293FFF7AC
:107FA00097FD002814D0028D3B8C9A420ED01030E1
:107FB0000400FA21B3882000E3823B8C89002383EC
:107FC000B378A3763378E376F5F7F4FB05B0F0BD2C
:107FD0003B6828000393029BAD61AB840B4B2C00E4
:107FE0006B61F5F705F9B378317802930323F35603
:107FF000A88B00937278029BF6F7F8FC290003988F
:10800000103445F007FCD4E70CB90000F1800318E8
:10801000020010B5081E11D1094B1B68197CFF29FD
:108020000CD11A74DB68002B08D00333DA7F052AE1
:1080300004D1023A0100DA77FFF764FF10BDC046B1
:108040000CB900003E4242424248003E424C4200CF
:108050001F4BF0B51B680400DB6889B0002B2ED0E5
:108060001C22835E002B2ADBC58BF8F7E1FC8542DE
:1080700025D123002C331D787F231D40042D0AD0E9
:10808000092D1ED0022D1FD0124B002229000320E3
:108090001B68984713E01048104E0E221023210051
:1080A0006A441380A788343100902389C91904A831
:1080B00045F044FA0028E7D1210004A8B04709B0F0
:1080C000F0BD0748074EE8E70748084EE5E7C04619
:1080D0000CB9000008BF0000448003187D7F03181E
:1080E000447B0318F17A03184B800318B9810318F5
:1080F00070B505000C4B01001B68DC682668033472
:10810000300045F0D9FB2800F5F786F8E37F022B15
:1081100008D13168002905D18420FF30F6F75EFCD4
:10812000FFF7F2FC70BDC0460CB90000F0B5460088
:108130000136B6B285B0040030000F000192F2F7AC
:1081400080FC051E26D01A4B01301B68DB685A1DC7
:108150000093D37F591CD1772B70002F25D0154A5F
:10816000013CA4B2944217D1019A310053425A41C2
:108170002800073203ABFFF7E9FC04002800F2F700
:1081800065FC002C06D100980399043045F042FBB1
:10819000FFF770FD05B0F0BD3B8802375BBA9BB2BC
:1081A00003701B0A43700230DAE7F8F765FDDBE77E
:1081B0000CB90000FFFF0000304BF7B51B6806004C
:1081C0000F00DC68FBF70EFD0500002C3AD0BA8BDF
:1081D000C3889A4236D1337A012B33D8E31CDB7F34
:1081E000062B2FD9437B01334373254B63842368CC
:1081F000002B2FD027000C373800F5F71DFB287B0C
:10820000204A2149F8F7A4FC061E1BD10120FBF7E8
:10821000ABF83000E988F6F7E1FB31000820FCF705
:108220009DFA2068F2F712FC6B462660DC1D2000E8
:10823000F8F710FD2078002805D00122310080B227
:10824000FFF774FFF7BD38002968F5F7B3FAFFF7B9
:1082500027FCF7E731787068FBF7F4F9002803D0C2
:108260003178787CFAF70CFB337A002B02D0FFF7D9
:1082700021FDE7E7200029680C30E6E70CB9000093
:1082800006030000BD8203188D82031807B56B46F4
:10829000991D094B08801B68DB68002B0AD01A68FF
:1082A000002A07D10333DB7F042B03D001321000F7
:1082B000FFF73CFF07BDC0460CB9000007B56B4691
:1082C000991D064B08801B68DB68002B05D01A68D7
:1082D000002A02D10120FFF729FF07BD0CB90000D9
:1082E00010B5064C002804D1FF2321600B74142024
:1082F00010BDFFF709FC00232360F8E70CB900006C
:1083000014207047014B1B68186070470CB90000BF
:10831000014B1B68586070470CB90000F0B587B07E
:108320001D000CAB1B782F4C02930DAB1B782768FC
:1083300003930EAB1B78FE680090059101920493A5
:10834000002E49D1092D49D9029B032B46D8039B06
:10835000032B43D8049B013B062B3FD80300224A42
:108360000A3B93423AD86B4604229B5E002B35DBD6
:108370002820F2F766FB2368F860DC68002C04D143
:10838000B024E400FFF7C0FB23E01820F2F759FB0C
:1083900020600028F4D00623271D2684FB77631D68
:1083A000DE77059BC575C360009B8360019B43829C
:1083B000029B0375039B4375049B83750B4B2361E1
:1083C00045F012FA380045F00FFAFFF7B7FC041E2B
:1083D000D8D1200007B0F0BD054CFAE7C1246400F5
:1083E000F7E7C0460CB90000F5BB3400F57D031873
:1083F00082020000204B37B51B68DC68002C39D0A6
:10840000E31CDB7F032B35D020000C30F5F714FA8A
:108410006568002D25D1FAF771FE002827D0FBF7FB
:10842000E1FB0400F8F704FB6B466A461880A3885A
:10843000290053806846052201ABFFF787FB00281F
:1084400002D10198FFF702FC00210920FCF786F910
:108450000020FAF789FFFFF757FBFFF72DFB0020FD
:108460003EBD201D45F01EFAF4F7D6FED0E7FFF71B
:1084700033FDE9E70148F3E70CB900008202000090
:10848000284BF0B51B680700DE6889B0002E44D089
:10849000F31C0393DB7F022B3FD8FFF719FB3168F6
:1084A0000500002904D1204B0A0003201B689847CF
:1084B000002D34D0336804A8DA6804922A8DC7806E
:1084C0008280EA8C0281DB7D83722B002B331B7848
:1084D000C3722B002A331B78037300234373FBF70B
:1084E00053FB041E16D1F8F7A3FA104A2B8D019204
:1084F000EA8C0100009220003A00FAF725FA041EE7
:1085000008D130000C30F5F797F9FFF7E5FC0323AD
:10851000039AD377200009B0F0BD054CFAE7054C6B
:10852000F8E7C0460CB9000008BF0000057F03183B
:108530008202000082060000F0B51F4D85B02B6856
:108540000390DE68002E32D1FBF74CFB0700282099
:108550002C68F2F776FA2B68E060DC68002C28D0F3
:108560002000062340C0C377631DDE77134B2361D1
:1085700045F03AF904230334E377F8F759FA010098
:108580000F48BB88FA880190388900903000FAF7CC
:10859000DBF92B68041E04D1039A9A60200005B011
:1085A000F0BDD868F2F752FA2B68DE60F6E7054CAA
:1085B000F4E7B024E400F1E70CB90000F57D0318FE
:1085C000057F031882020000000000000000000088
:1085D00011800318F57A031800000000ED7C0318E1
:1085E0000000000000000000457C031851800318C3
:1085F000704710B5F4F710FE10BD0000F8B5070085
:10860000040000685B373D78002804D0F5F714F9C2
:108610002068F2F71BFA6668002E1AD120000C3091
:10862000F5F70AF93878FAF76FFA2300032159337E
:108630001B783878994289414942FBF7C1F92000FB
:10864000F2F704FA064B02351B68AD005D196E6047
:10865000F8BD201D45F026F9F4F7DEFDDBE7C04646
:1086600010B9000010B50024064BA21C1B68920034
:108670009B185868002801D0FFF7C0FF0134052C73
:10868000F2D110BD10B900000300144A0233126881
:108690009B00D31870B55C680800002C06D025003C
:1086A00059352B78002B02D102332B7070BD012B72
:1086B000FCD19368984704232B7023005B33187810
:1086C000FBF76EF9616B228F206BF5F7F3F8010071
:1086D00020000C30F5F76EF8E8E7C04610B900004E
:1086E000F0B5162489B01E000EAB1B8802900493CF
:1086F00002ABE4180023B01E0391059223800728E3
:108700003DD846F02DFC2E3C0433333C3C38062348
:108710000025394F2380059808230E212288002840
:1087200036D0F4F705FE041E18D1059B162218005A
:108730009B8802A93430C01852181023039900975F
:1087400044F0FCFD011E36D02C4B320003201B6888
:10875000984784240598F4F75FFD6401200009B070
:10876000F0BD06230125264F2380D4E704230025EE
:10877000244F2380CFE70125234F2580CBE7002519
:108780001E4B0022310003201B6898472F00C2E7D0
:1087900005A8F4F765FCC6E702985B300278DA7743
:1087A00010233B74194B03211B6805981B681B6839
:1087B00098470400D2E7059F049BFB83029B5C3330
:1087C0001B787B74124B7B82F8F732F980227B1C7A
:1087D000B883DA77FAF74AF83A00390014321831D8
:1087E000FAF7BAFE3B002C331E703C743B1D002D83
:1087F000D2D1FF22DA77D5E74480031808BF000002
:108800004B800318477B0318447B031810B9000002
:10881000FF020000F0B50027456A89B00400069702
:10882000BD4200D016E1043045F03CF805000600DA
:108830006062007C04222300A76207001036174004
:108840005A33691C104200D1C7E02A002D3210783B
:108850001A78121A1A70CA7F08237F2A00D80433A4
:10886000A385230000222E3318705A70069B002B1C
:1088700000D09EE0B089F8F7E5F823002F330028F8
:1088800000D1FFE01B7800936B461B880393A38DF8
:108890000099019359438BB2049323002E331B7824
:1088A000009A013B9A4204D12B89049A9B1A9BB2ED
:1088B0000193019B317C1A1D92B208237F2900D8B5
:1088C000043B092106A8F4F7CBFB0290002800D056
:1088D00080E0069F31003B00B88834331B18380015
:1088E00020221030059346F067FB04223B7C934323
:1088F0003B74F9F7BBFF3900029A1831FAF72CFEE6
:108900007268039B944663447B61327F130605D5EE
:10891000FE21634B03201B68C90598478022337FE3
:1089200012041B060293337877689B051340039368
:108930005C4BBF021F40009B5E015B4B1E4206D09A
:10894000F821574B03201B68009A890098472300A1
:108950002E331A781F21013A13008B4303D0504B5A
:1089600003201B68984723002E331B780422013B09
:108970001E4337438026029B36061F43039B07A9ED
:108980001F43374305983FBA079746F015FB290068
:10899000049AAB8805989B183431019AC9180430A1
:1089A00046F00AFB2200069B2F32A36213780133A4
:1089B000137006985B342278031DDA771023027C4B
:1089C000012113430374394B1B685B681B6898478C
:1089D00000230293029809B0F0BD07972F001A7880
:1089E0002C37013A1A70CB7F3A787F2B25D9002A91
:1089F00023D1AA8C2E4B9102194204D0284B03207C
:108A00001B68284998470327AB8C9B020793B9B290
:108A10002800F4F7B5FB2800079B34301BBA0793F6
:108A2000AB883A00C01807A946F0C6FA0223FF3304
:108A3000E3852B89A385069518E7130605D5FE2146
:108A4000174B03201B68C90598473B7801271B0675
:108A50000793DCE72E00836A1036002B0BD00693B9
:108A6000A88BF7F7EFFF002800D1FFE6069A5369BD
:108A700001335361FAE603002E331B78012B00D03B
:108A8000F4E6D8E71A7803235A432B003433995C71
:108A90009B185A789B7800911B021343F6E6C04658
:108AA00008BF000000FC7F001FFCFFFF10B90000A2
:108AB000FF0380FFF0B5040085B001912700FAF7AD
:108AC00033FD002102ABDD1C29705C3706002A0053
:108AD0003878F9F795FEFAF77DFD002803D00223D8
:108AE0002A7813432B70019B002B08D1236AB342D1
:108AF00005D123005D331A782B789A421FD0A368E2
:108B00000393002B1DD01A7C52061AD55B7C022BD6
:108B100017D1002303930399002910D02A784E61BE
:108B2000CA74002B07D03B78201D8B7490239B00C8
:108B30000B8244F06FFE2B7826625D34237005B003
:108B4000F0BD08230622092103A8F4F789FA0123BE
:108B5000E1E70000F7B50024114F3B680C33A20099
:108B60009A58E6B20192002A15D16020F1F769FF08
:108B7000051E0AD06022019946F03AFA02343B6899
:108B8000A4001C1965605B352E703B680236B60088
:108B90009E197068FEBD0134052CE0D12600F4E773
:108BA00010B9000010B50400FAF768FF00280ED0D5
:108BB000074B1A68130020320C331868002802D0C3
:108BC000418FA14203D004339A42F6D1002010BD58
:108BD00010B9000070B500880E00FFF7E3FF041E17
:108BE00013D0030059331B78032B0ED90568002DD1
:108BF0000BD0B28BAB8B9A4207D12800F4F71CFE46
:108C00002800F1F723FF0023236070BDF0B585B085
:108C100003910500808BFFF7C5FF041E2DD00700D0
:108C200059373B78032B28D92A89531ED20724D5DC
:108C30002A00A9885B083432DBB252185B00117835
:108C40000133D318561C01910293029B9E4216D108
:108C5000019B2800AB7494231B012B82F4F7C8FA04
:108C60002900201D44F0D6FD05233B702300200081
:108C7000403319780C30F4F79DFD05B0F0BD7378E2
:108C800031781B020B435BBA99B202361B04DCD568
:108C900023005B331878039AFAF7FCFED5E700004F
:108CA000F0B5050085B0888B0E00FFF77BFF00282C
:108CB00008D0030059331B78032B01D9FFF79EFC22
:108CC00005B0F0BDFAF7DAFE0428F9D86B684A4A15
:108CD0000A3B9342F4D86B78092BF1D92A78072301
:108CE00014001C401A42EBD0FAF72EFF0123A340D8
:108CF000DBB28342E4D8AB7A002BE1D0FFF72AFF46
:108D0000041EDDD0B38BB71C4387AB898387030078
:108D1000AA7A42331A706A78023B1A7064236A682E
:108D2000406153430363354B03610300FA7F5833BB
:108D30001A70FAF7E5FE23002100E087727C5C33AD
:108D40001A70013B039318783031FAF717FE0822A6
:108D5000AB5E2E89002B15DDF7F76AFE864211D037
:108D60002020F1F76EFE061E20600BD0202200218D
:108D700046F03EF92B89B460B383FA239B007361FC
:108D80001F4B73602E78FAF7D9FE1F230100FB56A4
:108D90007209F708F60600D54100FE0702D5400823
:108DA000C0B20918CE1A910700D5F61AD20701D51C
:108DB0005B10F61A2300002259331A70039B1F78A8
:108DC000638F0393F7F734FE0E4902000191E18FA0
:108DD00038000091AB890399F9F7B6FD002801D05E
:108DE00020006BE73100642E00D2642120000C309B
:108DF000F4F7E0FC64E7C046F5BB3400D9920318F1
:108E00005992031889860318F0B58BB00400FAF75D
:108E100037FA01282ED11C22A35E002B2ADB230067
:108E20007F272C331A781740781E052834D846F04F
:108E300097F8033323332B2F0123284D284E10227C
:108E400002A9CA81002B03D0631CDB7F5B0611D112
:108E5000032F2CD0E38B0393F7F7EAFD039B8342A8
:108E600008D1002D25D10121072F00D0002120009D
:108E7000FFF7CCFE0BB0F0BDE28B1A4B9A420BD140
:108E80000123194D194EDAE70023194D194ED6E783
:108E90000023174D184ED2E7002501232E00CEE700
:108EA000164B0022390003201B689847E2E7002D8B
:108EB000DCD02100A288343189180E2202A81218B1
:108EC0002389009506A844F039FB0028E8D1002E3C
:108ED000D0D0210006A8B047CCE7C046447B031899
:108EE0004F910318FDFF00003C7B0318A18C031871
:108EF000477B0318F5930318D58B031808BF0000B0
:108F0000F0B589B00400FAF7BBF90390012856D1F7
:108F1000FAF7BAFD002852D0A08BF7F793FD049022
:108F2000002842D0631CDB7F7F2B4AD800230193AB
:108F30007B4B019A1B68023292009B185F68002FDE
:108F40002DD03B0059331B78032B28D93B005B33D2
:108F5000E18B1878FAF766FD002820D00021380050
:108F6000FFF7A8FD631CDB7F7F2B4AD923002C333E
:108F70001B78002B45D17D682A006B1C2C32002DFC
:108F800028D120000794F4F733F9039DFAF7DCFDAC
:108F90000590854200D87AE00798F4F73DF9019BE7
:108FA00001330193052BC3D109E0E08BF7F74AFDAC
:108FB000002804D1631CDA7F7E231A42B2D109B0A3
:108FC000F0BD23007F222C331B781340013B082B7C
:108FD000F5D9ABE7D97F7F29D1D911780029CED136
:108FE000A08CA98C8842CAD12900381D44F064FCA9
:108FF0003A005A3213782800013B1370F4F70CF949
:10900000BFE7E3882289A18807A8F4F729F8002898
:10901000D5D10123228907992000F4F74FF9079E43
:109020000123327C110099430B003174049900290B
:109030001BD17F25631CD87F711CCB7F2840AB439D
:1090400001380343CB7704231A429ED0300021001D
:10905000A2883431343045F0AFFF0321A08812F0EC
:1090600027FFC5B22D36357090E7711CC97F328954
:109070007F2951D90B2A00DC87E7082104221343FA
:10908000337420894B1EC01812F01AFFE9E77E687E
:109090003B005A3302931B78059A5B19381D9342A3
:1090A00014DC4022237C07999343237444F0B2FBE1
:1090B000029B18782D181D701E22A35E002B00DA6B
:1090C0006DE72023227C1343237478E74022337C0E
:1090D00013421FD144F0E6FB039A337C0292042230
:1090E000134203D033002D331B7802933000F4F782
:1090F00093F83B005A331978029B994204D2094BEA
:1091000003201B68029A98473A005A321378029952
:109110005B1A13703668BBE70C210F2AAEDC34E70C
:1091200010B9000008BF00001FB56A46438F0468ED
:109130009381838F03A9D381A38B002200930523FE
:10914000FFF7CEFA20006169F4F734FB1FBDF7B5D5
:10915000037806005B080D000193002B58D1888B23
:10916000FFF720FD041E53D00100270038313430B2
:109170005937F4F79BFB3B78042B68D0062B48D07B
:10918000032B45D101333B7023005B331878FAF78A
:1091900007FC2368002B02D02000FFF7C5FF230047
:1091A0003278260041331A705C363378AB749023E2
:1091B0009B002B82FAF7B8F900212A00E974686154
:1091C00030781332F9F71CFBFAF704FA002803D0C1
:1091D0000223EA7C1343EB746B69280023622300AB
:1091E000EA7C5D331A70F4F703F82900201D44F07F
:1091F00047FB23005B3319780A20FBF7AFFA0523FE
:109200003B7023002000403319780C30F4F7D2FA79
:10921000F7BD23004133327819789142E9D01A70B2
:10922000636A002BE5D0A06A002803D0F3F7F4FFAF
:10923000019BA36223002F331A78013B1B789A42CB
:10924000D7D1606AF3F7E8FF00236362D1E7230018
:10925000327841331A70CCE7F8B505680600002D66
:109260001CD1124B5B362A00032031781B689847CB
:10927000F8BDAB69326BE31864006C611C19002700
:10928000AB61944202D9D31A6B6101373000FFF70A
:109290004BFF002FECD000236B61E9E76C69002CD9
:1092A000E7D12800F1F7D2FB3460E1E708BF000006
:1092B0007FB50A00CB7C69460B73536904934368FE
:1092C000591E8B4169460B75438F03A900930223F6
:1092D000FFF706FA07B000BDF0B5050059352A784A
:1092E000040085B0062A00D97BE0100045F038FE66
:1092F000047904756F286F00230058331B7802AE81
:10930000F370FAF71BFC3070FAF71EFC7070FAF776
:1093100021FCB070E38F0022B380638F3100009393
:1093200020000423FFF7DCF9002856D12000FA21A1
:109330000C308900F4F73EFA03232B7005B0F0BD22
:10934000676A002F07D02000FFF764FA0623002881
:109350001BD0042319E06668002E2BD0337C5B06FB
:10936000F1D5201D44F09EFA737C022B08D0092B06
:1093700016D01F4B3A00390003201B68984703E0C2
:1093800031002000FFF794FF06232B7023002000FC
:1093900040331978236B0C30591AF4F70BFACDE7E8
:1093A000B27C02A90A70628F200000923200FFF79F
:1093B00097F9E9E701212000FFF77CFB201D44F02D
:1093C00071FA011EC5D02000FFF772FFC1E723002C
:1093D0005B330B201978FBF7C1F92000FFF70EF97A
:1093E000ACE7034B5B34032021781B689847A5E763
:1093F00008BF000070B51C228B5E05000E009CB0FB
:10940000002B1DDB0088FFF7CDFB041E1AD00300E4
:1094100059331B78032B13D96A88838FD31AFF2BF8
:109420000EDC418F6846B38B0182428204A900930F
:10943000002206232000FFF753F92000FFF7DEF893
:109440001CB070BD2B8804A84387717C1BAA1170C7
:1094500069886D46B28BAB81E9810623009203A92E
:109460002200FFF73DF9EBE770B50B4D002802D164
:109470002960202070BD00242A68A31C9B00D318FB
:109480005868002801D0F1F7E1FA0134052CF3D136
:1094900000232B60EDE7C04610B900002020704784
:1094A000014B1B681860704710B90000014B1B6826
:1094B0005860704710B90000F0B585B00392050000
:1094C00040890E00FFF76EFB00282FD1FFF742FB0B
:1094D00003005B3302931F780400377006003036B8
:1094E00028222900300045F067FD114B310023612F
:1094F00038006461FAF742FA012359342370029B61
:109500006E891C78F7F794FA0A4902000191E989FB
:1095100020000091AB893100F9F716FA002803D139
:10952000054B039A1B689A6005B0F0BD0348FBE742
:10953000D99203188986031810B90000820200002E
:10954000018F0318F18503180000000000000000DF
:1095500000000000F3850318098E031865860318C0
:1095600010B5F3F759FE10BDF0B585B00190F9F7CD
:10957000B9FD06000020F9F76BFE451E6B425D4108
:10958000ADB2F9F755FE012801D102231D43F9F7C9
:1095900077FE012801D104231D43F9F7AFFD002810
:1095A00001D008231D43082303220E2103A8F3F74B
:1095B00057FD071E32D1039C2300A28834339B1829
:1095C000327A58701A709D70737A637401235B420B
:1095D0006384164B6382F7F72BFAA083B388E38387
:1095E0008023327A5B421343621CD3772774F9F7E6
:1095F0003DF92200210014321831F9F7ADFF0A239A
:109600002C3423700A4B01211B6803981B681B68CC
:109610009847002802D00398F3F7FEFD019B002B2A
:1096200001D1F9F77FFE05B0F0BDC046FF01000093
:1096300014B9000010B5F9F755FDC388012B08D9FE
:10964000FA21036889005943044B18681830F4F76D
:10965000B1F80020FFF788FF10BDC04614B9000024
:1096600010B5012812D002281BD000280DD1F9F71F
:1096700039FD0E4BC28818681830002A02D1F4F761
:10968000DBF802E01421F4F795F810BDF9F730FD8E
:10969000064B026818680430002AF0D0FA218900CD
:1096A000F1E70120FFF760FFEFE7C04614B90000C3
:1096B00010B5F9F71DFD0368013B0360002B06D0D0
:1096C000FA21034B890018680430F4F773F810BDD1
:1096D00014B9000010B50400F9F70AFDC288002A89
:1096E00019D08388002B16D00168002913D0A18BD4
:1096F000914210D1E28B9A420DD17F22A388E318C8
:10970000343301341B78E07F13401040181A0130C5
:10971000C0B2F9F7E9FD10BD064B002806D119606B
:10972000054B8B60054BCB612C20704700221A60E3
:10973000FAE7C04614B90000B1960318359603182D
:109740002C207047014B1B681860704714B900004B
:1097500061950318D59603186196031873B53A4DB1
:109760002B689C69002C11D173BD6B469E1C2B6825
:10977000310080331878F6F7AFFDA28B33889A4218
:109780000CD12B6880331A7801321A702B68803321
:109790001E78F6F721FD8642E7D325E02B68A07CF2
:1097A00080331978F8F706FF0028EAD1E31CDA7F46
:1097B0002B68E18B80331878F7F750F80028E0D059
:1097C0002B6801A980331878F6F7A0FD0028D8D1BE
:1097D000019B9A68002AD4D01B68002BD1D02B683B
:1097E000A1698033187890472B6880331E78F6F78C
:1097F000F3FC8642B8D12868183044F053F8237C33
:109800005B060ED5E07C01A9F6F780FD031E17D19B
:10981000019A5668002E04D0A21CD17FE07C220061
:10982000B0472000F3F7F8FC28688369002B9BD031
:109830000300002280331A700430F1F735FC93E7FF
:109840002000F3F7E9FCECE718B90000F7B544682D
:1098500006000122A07C01A9F8F718FC204F051E84
:109860002FD1019B9B7D6374F9F700F82200210042
:1098700014321831F9F770FE3B6829001B6820008C
:109880001B689847051E1CD1337F013BDBB2337741
:10989000002B06D10023386831007360103043F08C
:1098A000B9FFF7BDA31CD97F019B22005B689C46D2
:1098B0002B006546A8472000F3F7AEFC0023337762
:1098C000E8E7E07C01A9F6F721FD0300E07C002B2E
:1098D000E8D0044B01002A0003201B689847EAE700
:1098E00018B9000008BF0000F7B50A0A01AC6270A1
:1098F0000A0CCBB2A2700A0E050001262370E2709A
:109900000A0606D53F229343803B1A00531E9A4114
:10991000961C2800B1B2F3F733FC071E07D12800CC
:10992000AB88343032002100C01845F045FB3800C8
:10993000FEBD0000244BF7B51B6805005A6A0E00F7
:1099400090422ED05A6C90422DD05A6E0024824202
:1099500005D10234013464011C19002E2CD0E87C9E
:10996000FF2811D001A9F6F7D1FC00281DD1019BD9
:109970005B681F1E05D0AB1CD97F2A003300E87C32
:10998000B8472800F3F748FC002C09D0002E13D06C
:10999000002363600C4B21001868103043F03AFF3D
:1099A000F7BD0024D6E70124D4E7084B320003209A
:1099B000E97C1B689847E4E720003221637F083088
:1099C0005943F3F7F7FEEBE718B9000008BF0000B2
:1099D00073B5002304000193A3883430C25CC1181E
:1099E000C3560125002B05DA3F239A43803A531EC4
:1099F0009A41951C2A0001A845F0DEFA019BA9B204
:109A00002000A361F3F7CAFB051E12D1094E210005
:109A10003068183043F0FEFE2000F3F7E9FB3068B1
:109A200083699C4205D10200803215700430F1F741
:109A30003BFB73BD18B90000002373B50400080098
:109A40000D0016000193F6F7FDFF002819D12BB287
:109A5000002B2CDAFF232A009A43FF231B029A4291
:109A600020D0012E0DD0E3882289A18801A8F3F728
:109A7000F7FA00281CD10123200022890199F3F76D
:109A80001DFC019B002B04D1227C40331343019425
:109A900023740198FFF79CFF0198A04207D0F3F7C9
:109AA000BBFB04E02800F9F777FC0028D9D100209F
:109AB00076BD000070B50F4D002817D10124296034
:109AC0002868631E0C4A61015B01C31841181963C1
:109AD000DA621030013443F09DFE042CF0D12B6883
:109AE000064ADA6000229A60842070BD00232B6051
:109AF000FAE7C04618B900004D9803185D9703189F
:109B000084207047014B1B681860704718B900002B
:109B1000F0B589B01C000EAB1B78060005910493CC
:109B2000002C00D198E0A31CE074DA77049B21009C
:109B30005A1E93415B0023741C31F6F7CDFB051EC2
:109B400000D082E0122702ABFF18112302AA9B1853
:109B5000029306AB019313239B180093220023006A
:109B6000210030000397123322321E31F6F75EFCDB
:109B7000051E00D073E0E38B002B00D16FE00820BE
:109B8000F9F7DCFA002863D03B78002B60D0102373
:109B9000227C13432374231DDD7702ABD87CFF287E
:109BA00001D1F9F74DFA671CF8773100A07CF8F77E
:109BB00001FD051E49D10122A07C07A9F8F766FA2C
:109BC000051E42D120000599FFF78EFE051E3CD1EF
:109BD000049908222389002900D1043A9B18C02245
:109BE0005200934238DC079B9B7D6374F8F73EFE7E
:109BF0002200210014321831F9F7AEFC2000FA7F60
:109C0000E18BFFF719FF051E1FD1237C5B061CD4D7
:109C10000726144F01003B6820001B681B6898470B
:109C200002AB5B7C33420DD038680369002B09D04E
:109C3000103043F037FE02AB5B7C4460DA083340FF
:109C4000427703772000F3F7D3FA280009B0F0BD7C
:109C5000FF22231DDA77A0E7C1256D00F5E7024D4D
:109C6000F3E7C04618B9000082020000F0B585B0E5
:109C70001C000AAB1E780BAB1B78050003930CABE2
:109C80001F8801910292002C02D1C1256D0045E090
:109C90003000F7F795FD0028F7D0002F41D00423BE
:109CA0002374039BE574A6746374E783F9F7C8F91A
:109CB000029AA31C661CF077DA77012321005B422D
:109CC000280063841C31F6F707FB051E26D120000F
:109CD0000199FFF709FE051E20D1BE2322895B00F2
:109CE0009A42D2D8F8F7C2FD22002100143218316E
:109CF000F9F732FC2000F27FE18BFFF79DFE051E95
:109D00000CD1237C5B0609D4074B01001B682000A3
:109D10001B681B6898472000F3F76AFA280005B013
:109D2000F0BDC025B2E7C04618B90000F0B587B055
:109D30001C000CAB1F780DAB060018880EAB1B780F
:109D4000150001930FAB1A780291002C02D1C125A6
:109D50006D0061E0002800D16BE0019BE674591EA4
:109D60008B41590004230B43002123747BB2E08311
:109D70008B4200DB39000020A174824201D1F9F747
:109D80005FF9631CD8770393A31CDD7701232100BF
:109D90005B42300063841C31F6F79EFA051E3BD10E
:109DA0003100A07CF8F706FC051E35D1A07CF7F742
:109DB00007FD002833D07F233B40200002996374C5
:109DC000FFF792FD051E27D101990822238900295A
:109DD00000D1043A9B18C02252009342B7DCF8F736
:109DE00045FD2200210014321831F9F7B5FB631C40
:109DF0002000DA7FE18BFFF71FFE051E0CD1237CCC
:109E00005B0609D40C4B01001B6820001B681B6813
:109E100098472000F3F7ECF9280007B0F0BD0122C5
:109E2000A07C05A9F8F732F9051EF5D1059B9B7DAD
:109E3000C3E7C0258CE7C04618B90000194BF0B540
:109E40001B6817009C6987B0002C29D01A0080324B
:109E50001578854224D1A6698E4221D1691C1170E2
:109E6000181DF1F721F9002F1AD1280005A9F6F7DE
:109E70004DFA002814D17F21621CD27FA37C0A40B6
:109E80000B4051424A410292A21CD27F310052B291
:109E90000192A28B28000092059A17682200B84709
:109EA00007B0F0BD18B9000035990318D19903180F
:109EB0000A4B10B51B680724180047300078204073
:109EC0000138012808D81869002805D045300860F5
:109ED00000204833136010BD0148FCE724B900009E
:109EE0008202000070470000F7B5164F07263C6855
:109EF0000192230047331B780D003340013B012BB7
:109F00001ED82369002B1BD0002919D1F6F790FD2C
:109F10002300483318704934000A20703C68082236
:109F2000200001994A3045F047F820000622290018
:109F3000523045F05DF83000034A0449F3F774FBF2
:109F4000F7BDC04624B9000069A10318B19E0318EB
:109F5000F7B5344B009018680192030047331A7824
:109F600008230C0010251A4200D11D002F00C168E3
:109F7000093700292BD02B4E162033680435DB68B7
:109F800019009A88343103238A18282113705370DA
:109F90001533D3709170917131685071D37147311D
:109FA00015710D7808212800084013008446100020
:109FB000093311300D4212D16146117200990731F7
:109FC0000C7801391C7001339842F9D11BE00B0069
:109FD0003A000C30F3F744F80028CCD0F7BD01214B
:109FE0001172010007342578013C1D700133834252
:109FF000F9D11000019B193007331C78013B0C701C
:10A0000001318142F9D139000320074BFAF798FD5D
:10A010000028E3D03368D868F3F7FEF800223368ED
:10A02000DA60DBE724B90000F1A7031870B5264E0B
:10A03000072531680B0047331A7813002B40013B8A
:10A04000012B3FD80B0046331B78002B3AD1080078
:10A05000443003781031D2060BD401221800F7F7F0
:10A0600067FE041E26D128001849F3F70FFB0400F1
:10A0700020E001330370F7F733FE041E1AD1336872
:10A080001A0047321278120716D4186921002200EC
:10A090005830FFF75DFF0E4D0E4B28001B689847A8
:10A0A0002B88191C632B00D86421306889B23030AA
:10A0B000F3F780FB200070BD443301211878F8F7D6
:10A0C00017FBD0E7044CF5E724B90000E99E03181C
:10A0D00028B9000020B900008202000070B50C4DC4
:10A0E00007242B681A00473212782240032A0DD128
:10A0F000443300211878F8F7FBFA02222B68473323
:10A100001978A1430A431A70FFF790FF70BDC0464B
:10A1100024B9000010B506490320FAF733FD054CB9
:10A120002368D868F3F778F800222368DA6010BD56
:10A1300089A8031824B9000010B5084B084C1B6807
:10A14000200098472388191C632B00D86421054BF5
:10A1500089B218683030F3F72DFB10BD20B900002C
:10A1600028B9000024B9000070B50E4C0D00110094
:10A1700022680720130047331B780340013B012B63
:10A180000FD8106900280CD0002D0AD14A3258305F
:10A19000FFF7DEFE236847331B78DB0601D5FFF7A8
:10A1A000CBFF70BD24B90000F8B51D4D04002B682D
:10A1B000002B23D003292ED11A4B1B78002B01D062
:10A1C000FFF7A8FF2B68A61CB700FA58002A16D183
:10A1D0003E20F0F736FC002303802B68B600F050D9
:10A1E00046331A78200001321A7007F003FB2B68FF
:10A1F00047331B781B0701D5FFF79EFFF8BD473398
:10A200001A78094B21001B68032098472B68FB58DC
:10A21000002BECD1DCE70029F0D145331870EDE7D5
:10A2200024B900001DB9000008BF0000F8B51A4DA0
:10A2300004002B6847331B789B0622D40126032792
:10A24000002C22D0E269002A1CD000231100D94042
:10A25000314202D10133202BF8D13100994063748F
:10A260002B68E7735B688A43200002211B68E26168
:10A2700098470028E4D120222B68473319780A43F5
:10A280001A70F8BD2000F2F7C7FF2868143043F0B9
:10A2900009FB041ED6D1F4E724B9000010B5C37B36
:10A2A000002B02D1F2F7B8FF10BD2021044B1B6830
:10A2B00047331A788A431A70FFF7B8FFF4E7C046AD
:10A2C00024B9000070B5144E0C003368050099687D
:10A2D000002904D1114B0A0001201B689847002275
:10A2E000336898684178914205D816000020002C08
:10A2F00000D0267070BD8B185B10DEB25B00C318F7
:10A300005B88AB4205D002D20136F2B2EBE73100F6
:10A31000E9E70120EBE7C04624B9000008BF0000D0
:10A32000F7B51A4C060023689968002904D1184B28
:10A330000A0001201B689847002E26D023683000B1
:10A340009C686B46DD1D2900FFF7BCFF00281CD16F
:10A3500061781D2919D82D78481C4F1B0223607085
:10A36000FFB2A94202D3013BDB1B5B000022A942E2
:10A3700000D37A0049004000C918C0186D00611868
:10A380002018641944F021FE6680F7BD24B900004E
:10A3900008BF000073B5114C0500236899680029B7
:10A3A00004D10F4B0A0001201B689847236828003E
:10A3B0009C686B46DE1D3100FFF784FF002805D046
:10A3C00062783378013A934201DB627073BD5900C1
:10A3D0006118888801334880DBB2F4E724B90000B3
:10A3E00008BF0000F0B5884D04002B6885B0002B35
:10A3F0006FD01A0046321278002A6AD0C27B002A37
:10A4000000D08AE0827C002A5FD19A68002A5CD062
:10A410000300818834335E5C5F18012E52D0022E17
:10A4200000D167E0002E50D10389022B4DD17B78FB
:10A43000012B4AD8002353707B781370A38B667C62
:10A4400000932B689968002904D1704B0A00012001
:10A450001B68984708230422092103A8F2F700FE8D
:10A46000071E32D1039C2B68A1889A6823003433DD
:10A470005B18032119701178597052789870DA704E
:10A48000F8F7F4F92200210014321831F9F764F8D2
:10A490008023DB0063828023621C6674D37723747D
:10A4A000009BE383F6F7C4FAA08303982B68C77375
:10A4B0005B6802211B689847002806D00398F2F7D2
:10A4C000ABFE02E00389334210D1514A13780133C5
:10A4D000137005B0F0BDBB195878BA5D0002104387
:10A4E00040BA80B2FFF71CFF0236F6B22389B342AE
:10A4F000F1D8A3E7012603893342E6D02389B3428A
:10A500009CD9BB195878BA5D0002104340BA80B29A
:10A510000236FFF73FFFF6B2F0E7511E0129D8D807
:10A52000FF210191022A01D0417C01916669002E30
:10A53000CFD000210091012A09D1190045310978B5
:10A54000FF2904D00198814201D08A4000929F687F
:10A55000002F18D0019B002B1FD13B78002B16D168
:10A560002C4B1B78002B0BD0294F3B78002B07D0AE
:10A5700032000221FF201C32F4F706FA019B3B70E7
:10A58000B08BFFF7CDFE009B002BA2D012E0012B79
:10A59000F9D1B08BFFF7FEFEF5E70021F08BFFF756
:10A5A00091FE3B78002B20D10028ECD00123009AAB
:10A5B0001A4300920221E388228903A8F2F750FD92
:10A5C000061E00D085E70123200022890399F2F7B7
:10A5D00075FE00280ED00D4B3200310001201B68A3
:10A5E00098470020FFF722FE73E7012BCBD100280C
:10A5F000C9D1DBE70399009B48612868CB6114301F
:10A6000043F008F9EDE7C04624B9000008BF000098
:10A610001CB900001DB9000010B5114C002813D161
:10A620001368104A1340022B0ED10B00FF22453352
:10A630001A700D4B21601B78002B01D10B4B0B6264
:10A640005C200B4B4B6310BD20680028FBD080685A
:10A65000002801D0F0F7FAF900202060F3E7C046A7
:10A6600024B90000020008001DB90000E59E03188F
:10A67000DDA00318036800209B0700D55C307047FD
:10A68000024B1B68002B00D01860704724B90000F3
:10A69000024B1B68002B00D05860704724B90000A3
:10A6A000F7B5040015000191F8F7C2FD012800D0AC
:10A6B00090E04B4B1B789C46002B06D1022C01D816
:10A6C000042D06D9C12676004AE0022CFAD8052DC1
:10A6D000F8D8444F07203B68190047310A781040EA
:10A6E000002C3FD1260094073AD0013801280CD81D
:10A6F0004024224234D11800019F59305B33067048
:10A70000477022431D700A702AE0019AFF2A05D083
:10A710001A004432127801998A4221D11A00583223
:10A7200015706246002A03D11C331800F3F784F831
:10A7300038683030F3F780F83B680721180047305D
:10A7400002788A43110004220A430270120704D5DA
:10A75000443300211878F7F7CBFFFFF7DBFC002626
:10A760003000FEBD04280CD1402700263A42F7D124
:10A77000180059300470019C5B3344703A431D70DB
:10A78000C1E7002828D11800583005700F20013C7F
:10A7900082436042444152B2E40014431022023D1D
:10A7A00094436A42554101202D01019A2C434433C0
:10A7B00004430C701A70FFF739FC094B06001B7834
:10A7C000002BCDD10028CBD1386807491C30F2F7D7
:10A7D000F1FFC5E7054EC3E7E8263601C0E7C046EE
:10A7E0001DB9000024B9000060EA000082020000E8
:10A7F00010B5194C2368002826D11A004732127868
:10A8000007301040012806D1120700D40230583317
:10A810001978F4F7F7F8216807200A00473213780F
:10A8200083431800032303434020034201D11370E4
:10A8300010BD834313700B005A315B331A780978CB
:10A840000020FFF72DFFF3E7D868F2F7E5FC0022C0
:10A850002368DA60ECE7C04624B9000010B5041E96
:10A860000DD10122FF21FFF71BFF064B1B689A68E1
:10A87000002A04D01B68210020005B689847002054
:10A8800010BDC04624B9000010B5124C23681A0050
:10A89000473210780822104042425041583319780C
:10A8A0004000F4F7AFF820680200473213785906E9
:10A8B00003D407218B43137010BD47218B431370C2
:10A8C00003005B331A785930013B19780078FFF7A1
:10A8D000E7FEF1E724B9000070B5164D04002B68BF
:10A8E000002B1BD000281ED1986800281BD0F0F741
:10A8F000ADF82B68072019009C6046310A78013AB0
:10A900000A704A7882434A700B4A1278002A06D0AD
:10A910000522443319780638FFF7C2FE70BD0522C0
:10A92000FF210120F8E745331A78A242F6D1FF2231
:10A930001A70F3E724B900001DB900009DA20318A6
:10A94000E5A30318A9A10318D9A8031810B5C37B60
:10A95000002B01D1F2F760FC10BD00000D4B10B5CB
:10A960001B68002B15D0C37B002B12D1837C002BDE
:10A970000FD1010083883431CA18CB5C032B08D176
:10A98000D17890780902014349BA507889B2F4F736
:10A9900041F810BD2CB90000002808D11368064A00
:10A9A0001340934206D10C30044B196070470021CC
:10A9B0000800F9E70100FBE7020008002CB90000DD
:10A9C000036800209B0700D50C307047024B1B68C2
:10A9D000002B00D0186070472CB90000024B1B6898
:10A9E000002B00D0586070472CB9000010B5010052
:10A9F00000220420FAF76AF810BD0000F0B5264FD7
:10AA000087B003933B680E0001900292002B40D068
:10AA1000224B1B78023B98423BDA012939D8029B32
:10AA2000023B042B35D808230222092105A8F2F79E
:10AA300017FB041E2AD1059D2B00AA8834339B18CE
:10AA400018705E70F7F712FF2A00290014321831CF
:10AA5000F8F782FD029B6A1C6B74019BAB740423A4
:10AA6000EB747C33D3772B74039BEB83F5F7E0FF18
:10AA7000059BA883DC733B6803215B6805981B6812
:10AA80009847041E02D00598F2F7C6FB200007B0D5
:10AA9000F0BD034CFAE7C0462CB90000B5BE00007B
:10AAA00082020000F0B589B003930EAB1B780E0054
:10AAB00004930FAB1B8817000593364B02901B685D
:10AAC000002B65D0344B1B78023B984260DA049B24
:10AAD000023B042B5CD800239F4246D87B00013305
:10AAE0009BB2019309210823019A07A8F2F7B8FA4B
:10AAF000041E37D1079D2A00AB883432D218734226
:10AB00005E41013616706300581C019EC1B2C0B28E
:10AB1000B04201D2BC4230D3F7F7A8FE2A00290088
:10AB200014321831F8F718FD049B6A1C6B74029BF1
:10AB3000AB740423EB747C33D3772B74059BEB83CA
:10AB4000F5F776FF0023079AA883D373114B0321EF
:10AB50001B6810005B681B689847041E02D00798AA
:10AB6000F2F75AFB200009B0F0BD03995A00525A7F
:10AB7000002A0DD00133DBB2AEE7039851181B5AFF
:10AB800001345BBA9BB20B701B0A4B70E4B2BAE79C
:10AB9000024CE7E72CB90000B5BE000082020000BD
:10ABA0004DA903185DA90318000000000000000073
:10ABB000034B1B681A7A824201D1FF221A72704736
:10ABC00030B9000010B5054C23685868002804D03F
:10ABD000EFF73CFF002223685A6010BD30B9000037
:10ABE00070B5194D02242B685B68197F01290BD0C1
:10ABF0000A00A24322D118005A7F0830002A10D13F
:10AC0000012459681C7703E01C7719780833180071
:10AC1000F2F7D0FD2B682100187A1B685B68984713
:10AC200070BD0A4D6A702C70F2F706FEFFF7CAFF7E
:10AC30002A002100FE20F3F7A7FEF1E7044B0022D3
:10AC400003201B689847EBE730B9000034B90000D7
:10AC500008BF0000002905D1034B1B681A7AFF2AA0
:10AC600000D118727047C04630B90000014B1B6814
:10AC70001860704730B9000010B5064C002804D1A8
:10AC8000FF2321600B720C2010BDFFF79BFF0023F8
:10AC90002360F8E730B900000C20704710B50B4C6A
:10ACA0002368586800280ED00830F2F7C5FD2368E5
:10ACB00000245868064B0477C36064210830F2F71B
:10ACC00079FD200010BD0348FCE7C04630B9000004
:10ACD000E1AB03188202000010B5084C23685B68E2
:10ACE0001B7F022B08D1FFF7D9FF236801215A6887
:10ACF000FD201C32F3F748FE10BDC04630B90000FD
:10AD0000F7B5124E0D00376801907C68002C03D017
:10AD1000FFF7C4FF0E48FEBD092914D92020EFF724
:10AD200090FE336878605B68002B04D1FFF74AFF20
:10AD3000B020C000EFE7019A1D705A605C77FFF702
:10AD4000ADFF2000E7E7C1204000E4E730B9000094
:10AD50008202000010B50B4C23685B68002B0ED0FC
:10AD6000587708331800F2F767FD236806495868DA
:10AD7000064B08304360F2F71DFD002010BD04486B
:10AD8000FCE7C04630B9000010270000D9AC03181A
:10AD900082020000044B1B685B68187F0138434245
:10ADA0005841C0B27047C04630B9000000000000F2
:10ADB0000000000055AC0318B1AB0318F8B507004C
:10ADC0000D001600002828D1F8F76AFA32000400B6
:10ADD0002900002812D0380002F0C2FA0323C41C54
:10ADE0009C432C1938003200210002F099FF032304
:10ADF000C71C9F433C19641BA0B2F8BD01F0CEFBF9
:10AE00000323C71C9F43EF1920003200390001F0D3
:10AE10008BFD0323C41C9C43ECE7012002F0A0FA45
:10AE200032002900012002F07BFF320029000120BE
:10AE300001F0B4FB32002900012001F075FD2C0067
:10AE4000D9E7036870B505001B030DD502F098FA29
:10AE50000400280002F072FF03230334C0189C434F
:10AE60009843201880B270BD01F0B2FB04002800A6
:10AE700001F070FDF0E780220300002012061100AF
:10AE8000C1400B4202D101302028F8D170470000A8
:10AE9000002808D0C3B2802B05D0044BC018431E35
:10AEA000984100017047000AFCE7C0467EF3FFFFAF
:10AEB00003000320DA0705D5013B5B10584302303D
:10AEC000C0B270475B085843FAE70000F7B50022AC
:10AED0000190012968D9032966D0354C354B0C40C7
:10AEE0000B40802B60D0A823334E1B010E409E42A6
:10AEF0005AD0C8231B019C4256D0F8231B0199420B
:10AF000052D00B0084252D4F6D013B40AB424BD0FE
:10AF10002B482C4D84460D40AC446046384243D00B
:10AF2000B4277F01BD423FD0C425274A6D010A40A6
:10AF3000009200980022A84236D08227234DBF01FC
:10AF40000D40BD4230D09227BF01BB422CD09E277E
:10AF5000BF01B94228D01E4A94461E4A60469F1837
:10AF600062463A4007421FD0B6270022BF01BE42C8
:10AF70001AD0E226B601B54216D0FE25AD01A9428F
:10AF800012D00135FF35AC420ED085240098E40183
:10AF9000A04209D08B24E401A34205D09B23DB010E
:10AFA000994201D0A82212010198F3F759FAF7BD8E
:10AFB000FFFEFFFFFFF6FFFFFFEFFFFFFFFDFFFFBD
:10AFC00080ECFFFFFFF7FFFFFFFBFFFFFFFCFFFF32
:10AFD000FFDFFFFF80D6FFFF064B10B51B68140094
:10AFE0005B69934201D1F3F7E9FC2000F2F714F911
:10AFF00010BDC04638B9000010B50A000023022178
:10B00000F2F72EF810BD0000002337B515891400A3
:10B0100019002A0001A8F2F723F8002812D1012311
:10B020002A0020000199F2F749F9074C019920689C
:10B0300042F0F0FB2068019B0268934202D1083085
:10B04000F0F732F837BDC04638B9000030B5094ACC
:10B050000300126885B01468107F002203920292E8
:10B06000A58B01958025647C2C430094F3F7D8F9D7
:10B0700005B030BD38B90000F0B58DB00793130CA2
:10B0800016001A04059105000C210692002B00D031
:10B0900002310AA8FFF7B0FF071E5FD10A9BFF220B
:10B0A0001C009B883434E41808AB1A709C46EE3AB6
:10B0B00004ABD21809A91070D8829874D87408709B
:10B0C0001520C0180770002D0FD102911321C91847
:10B0D00001911221C91803900091180016216346AE
:10B0E00009180798F5F7A2F905002800FFF7D0FE28
:10B0F000059B2070190A637008AB1878A170FF28AF
:10B1000005D000220BA9F6F7C1FF0B9B9F8A04AB69
:10B11000DB8A04AAE3701B0A237115239B18187895
:10B12000937C0003E371D37C3843237209AB1B7813
:10B1300000B26071069A80B2000A6372F3B2A07125
:10B14000A372002A0CD0330AE372330C360E237339
:10B150006673CC210A984901FFF778FF0DB0F0BD66
:10B16000B2B2120AE272F4E710B5074C206842F05E
:10B1700099FBF2F751F820680368002B02D00830E1
:10B18000EFF792FF10BDC04638B900003E4BF0B556
:10B190001B688FB01968002900D16EE008008B8809
:10B1A0003430C5186F78C35C3F021F431388EE7CB0
:10B1B0000493AB7C36021E432B7D2C7E05936B7D66
:10B1C00024020693AB7D220007932B00E87D0989BA
:10B1D000024314001733192905D09C782404224314
:10B1E000DC78240614433800F5F72CFC002841D005
:10B1F000162204AB21003800D218F4F7F7FF00281C
:10B200002CD11721300504AB000DC918F6F784FFC7
:10B21000002823D12B000AAA113301351978013BEC
:10B2200011700132AB42F9D1172304AA9B18049A7A
:10B2300004A891048022890C1202114316221218CC
:10B240001078079A1B780292069AF6040192059AE2
:10B25000F60F009203960AAAF5F76CF8162304AAD3
:10B260009B18390022001B78FFF706FFFFF77CFFD1
:10B270000FB0F0BDC0204000F0E7044B0A000120F1
:10B280001B689847F4E7C04638B9000008BF0000C3
:10B29000F0B5160C87B01F0033040191150007218B
:10B2A00002900393002E00D0023105A8FFF7A4FE00
:10B2B00000281DD1059B02981C009B883434E4189B
:10B2C000FFF7E6FD019B2070190A63703B0A2371AA
:10B2D000EBB2A170E770320463710DD02B0A2D0E12
:10B2E000A371E6712572FC2105984901FFF7AEFEB6
:10B2F000FFF73AFF07B0F0BDADB22D0AA571F2E736
:10B30000F0B5314E8BB033680191196817000029F0
:10B3100053D00A008B883432D518D25C6B78A87C65
:10B320001B0213430393EA7C0B8912020243142B82
:10B330002DD10024019B0292A34220D104ABDA1D3F
:10B3400002990398F4F752FF80233C881B02A4045F
:10B35000A40C1C4306AA2B001700113301351978E1
:10B36000013B11700132AB42F9D182223368920164
:10B370009B69934219D08A229201934211D02300F3
:10B38000029A03990198FFF783FF0BB0F0BDEA7CA6
:10B390002B7D120210436A7D1B04034312061A43DD
:10B3A000C7E704ABD879F5F7C9F904AB3A00210037
:10B3B000D879F5F7E5F80190E1E7044B0A000120A0
:10B3C0001B689847E1E7C04638B9000008BF000095
:10B3D00073B506000C0001A80421FFF70DFE00283C
:10B3E00012D1019B30001D009B883435ED18FFF70A
:10B3F0004FFDE0216C70230A240C2870AB70EC70B8
:10B4000001988900FFF722FEFFF7AEFE73BD000032
:10B41000F0B5050089B0019183883435ED186E7858
:10B4200029781700AA78214B360212040E431643DE
:10B43000808B1B68984702AB3005000DD91DF6F7CD
:10B4400037FC041E12D1300B002F14D004A9F6F7DC
:10B4500063FE00280AD102ABD979187AF6F76AFDA3
:10B46000041E03D102AB187AF5F726FC3100200048
:10B47000FFF7AEFF14E02B0004AA1233023519784F
:10B48000013B11700132AB42F9D1019902ABDA797B
:10B49000074B002906D104A9F6F7EAFC041EE5D102
:10B4A00009B0F0BD04A9F6F74FFEF7E73CB900007C
:10B4B00039C5031873B506000C0001A80321FFF776
:10B4C0009BFD002810D1019B30001D009B88343566
:10B4D000ED18FFF7DDFC89216C70240A2870AC7030
:10B4E0000198C901FFF7B2FDFFF73EFE73BD73B5CA
:10B4F00006000C0001A801311500FFF77DFD0028B2
:10B500000ED1019B290018009B883430C0180670AA
:10B510002200013043F050FD02210198FFF796FD13
:10B52000FFF722FE73BD00009A4BF0B51B6893B085
:10B530001D68EC23AC695B019C4201D100F0BCFCAE
:10B5400000D933E1C8231B019C425BD03BD8C02308
:10B550005B009C4201D100F0F4FC14D8032C01D113
:10B5600000F0E3FB06D80022012C06D9FFF7FCFD12
:10B5700000F062FC0122802CF8D121002800FFF7A6
:10B5800047FF00F059FC844B844AE318134201D171
:10B5900000F004FE88231B019C42E7D12A00AB88FF
:10B5A0003432D55CD418F7F77DFD854202D30138DB
:10B5B000C5B22570002D01D100F0A4FE2800F3F7DC
:10B5C000BBF900F039FCB4235B019C4235D06AD84A
:10B5D00094235B019C4201D100F032FE23D8704BD2
:10B5E0006E4AE318134201D100F0F9FDD8231B0184
:10B5F0009C42BBD1AB88ED1834352878F7F738FC7E
:10B600000028B3D101210EA8FFF7F6FC0028ADD128
:10B610000E9B1C009B883434E418F7F711FDE821D9
:10B62000207000F0DAFD9C235B019C4201D100F008
:10B63000FDFDAC235B019C4298D12A001E27AB88FC
:10B640003432D1184D78D35C2D021D4306ABFF1860
:10B65000FF230591280039003B70F6F729FB061EF1
:10B6600001D100F025FE3B7804210EA80593FFF7D9
:10B67000C3FC071E00D079E70E9B30001C009B889E
:10B680003434E418FFF704FC65702D0A2070A570AF
:10B690003800002E02D10598F7F77AF8BC21E07047
:10B6A000490100F085FCD4235B019C4200D1A4E356
:10B6B00026D8C4235B019C4200D057E72E00AB88FC
:10B6C0003436F618F478B2782B8924021443042B0C
:10B6D00006D0220034797379240414431B061C43DA
:10B6E0003088F5F7AFF90EAD002800D182E32A00CB
:10B6F00021003088F4F77AFD22002B78318872E33C
:10B70000284B264AE318134200D02FE72A00AB88C3
:10B710003432D118D25C4B78CE781B021343069397
:10B720008B7836021E434B7908791B021A000243BC
:10B730002889062800D081E305920698F5F782F95A
:10B74000002800D18FE30EAF3A0005990698F4F770
:10B750004DFD051E00D07DE3B30B032B00D082E32B
:10B76000114B9E4200D17EE3E4235B019C4200D159
:10B770006CE3F4235B019C4200D170E3DC235B01AA
:10B780009C4200D066E331003878F4F77DFE050076
:10B7900060E3C04638B9000080F6FFFFFFFEFFFF00
:10B7A00080F0FFFF80E4FFFFFFFF0000EA239B0122
:10B7B0009C4201D100F057FE00D951E19E239B012C
:10B7C0009C4201D100F066FD00D97AE08E239B01F6
:10B7D0009C4201D100F04CFD54D886239B019C4231
:10B7E00009D04DD8F4235B019C428FD082239B016A
:10B7F0009C4200D0BAE62A00AB883432D61877785B
:10B80000D35C3F021F431E2306AA9B1800221A8006
:10B81000F27CB17C2B8912020A431500142B08D04C
:10B82000F27C337D757D120211431B040B432D0600
:10B830001D433800F5F706F9002800D129E3290057
:10B8400038000DAAF4F7D2FC059000280ED186230B
:10B85000B01C9B019C4200D008E31E2206AB1B7F5C
:10B8600006A9521801001800F4F714FF1E2306AAB7
:10B870009B1839002A001B880598FFF709FDDBE2B9
:10B880008A23B4E792239B019C4201D100F0EAFC99
:10B890009A239B019C4200D068E602210EA8FFF784
:10B8A000ABFB002800D061E60E9B1C009B88343463
:10B8B000E418601CF7F7CCFCA2212070890100F08D
:10B8C000AEFCB6239B019C4201D100F0D7FD5FD8AE
:10B8D000B04B1C40A6239B019C4200D046E62900A9
:10B8E0001E27AA8834318B185E788A5C360216438C
:10B8F00006AABF18FF223A70DC7899782A892402B8
:10B900000C43042A06D021001C795B7924040C43E3
:10B910001B061C433000F5F795F8002800D0F8E22C
:10B92000C0233F785B0006930590059B220C120410
:10B930005B000792D91D220C00D1591D0EA8FFF7FC
:10B940005BFB002800D011E60E9B06981D0099882D
:10B9500034356D18FFF79CFA079A6E70E3B2360A19
:10B960002870AE70EB70002A00D1E4E2230A2B713C
:10B97000230C240EAC71B2246B71E91D059BA4014C
:10B98000002B03D000223800F4F71CFF21000FE346
:10B99000E222814B92012340934200D0E6E5E62368
:10B9A00000269B010EAF9C421DD12C00AB88343485
:10B9B000E418207AE379000239001843F6F778F9A1
:10B9C000061E10D160782578000228433D7823793F
:10B9D000E278A17801956579A47924022C4300943A
:10B9E000F7F794FA06000A213800FFF705FB002854
:10B9F00000D0BBE50E9B1C009B883434E418002E5D
:10BA000001D000F023FDF7F76DFB8388050063701C
:10BA10001B0AA3704389A3711B0AE371C788002F17
:10BA200001D000F0F3FCE67000232868984204D0AF
:10BA3000FFF721FA20231B1ADBB223712B7A6371E3
:10BA4000687A0023FF2802D0F6F736FE030023723F
:10BA50001B0A63723000FFF71BFA06212070A7E271
:10BA60008B23DB019C4200D1A4E200D996E0812324
:10BA7000DB019C4200D19DE26AD8F622454B92013F
:10BA80002340934200D108E3EE239B019C4200D067
:10BA90006CE52B00AA8834339B18D9789878090272
:10BAA000014358781D7800021A792843F7F780FA85
:10BAB000C02307905B00984200D157E509210EA8EA
:10BAC000FFF79AFA002800D050E5F7F711FB0E9B1C
:10BAD000EA221D009B883435ED180600C3889201C8
:10BAE000944208D11C1E01D100F0C1FC8488002CB6
:10BAF00001D100F0BCFC1C00B38830680593002322
:10BB00000693984205D0FFF7B6F920231B1ADBB243
:10BB1000069300273089B84204D0FFF7ACF9202300
:10BB20001B1ADFB2B37A0893F67A0798FFF7B0F9D9
:10BB3000059B6C70EB701B0A2B71069B240A6B71C2
:10BB4000089BF2212870AC70AF71EB712E72FFE28E
:10BB50008323DB019C4200D12CE20133FF339C4262
:10BB600000D003E5F6F74AFD0400FFF7A1F981B222
:10BB70000EA8FFF741FA002800D0F7E4002C06D009
:10BB80000E9B18009B883430C018F6F709F98721FE
:10BB9000C9010DE2FFFDFFFFFFFEFFFF9323DB0165
:10BBA0009C4200D198E357D88D22BC4BD201234050
:10BBB000934200D0DAE42A001E27AB883432D11831
:10BBC0004E78D35C36021E4306ABFF18FF23059167
:10BBD000300039003B70F6F76BF8051E1ED18F233D
:10BBE000DB019C421AD1059B9C78012C00D9BDE455
:10BBF0000220F7F7A3FA002810D021003878F6F7D2
:10BC000077FD051E0AD1032220003978FEF748FD92
:10BC1000051E03D000213878F6F76AFD04210EA82E
:10BC20003F78FFF7E9F90590002800D09EE40E9BCD
:10BC300028001C009B883434E418FFF729F966704B
:10BC4000360A2070A670FF2F00D142E33800F6F7C5
:10BC50003DFDE07091219BE7914BE418914B1C4214
:10BC600000D083E42E00AB883436F618F478B2782E
:10BC70002B8924021443042B06D0220034797379D3
:10BC8000240414431B061C433088F4F7DBFE1E25F6
:10BC900006ABED18002800D175E22A00210030889B
:10BCA000F4F7A4FA07003388002605932B7806934F
:10BCB000B74203D11800F4F78BFE06003000FFF7FF
:10BCC000F7F8230C1B04079381B2230C00D05DE22C
:10BCD000053189B20EA8FFF78FF9002800D045E49E
:10BCE0000E9B38001D009A883435AD18FFF7D0F848
:10BCF000059B079A6B701B0AAB70E3B22870EB7060
:10BD0000002A00D144E2230A2B71230C240EAC71CB
:10BD10009D246B71EA1DE401002E00D136E601235B
:10BD200031000698F6F77CFC30E62B00AA88343305
:10BD30009B189A790592803AD2B27E2A01D8FFF7F1
:10BD400015FC5E781A7836021643DA789978120272
:10BD50000A4309925A79197912020A430692DA794A
:10BD60009C7A07921A7A2402597A08921A002300C0
:10BD70000B4329891C0009320B2905D0947824042F
:10BD80001C43D3781B061C433000F4F75BFE0028ED
:10BD90002DD01E2506ABED182A0021003000F4F747
:10BDA00025FA002819D1069B0EAF18053900000DA1
:10BDB000F6F7B2F9002810D1069A2D78D204D20FE6
:10BDC0003B780392089A09990292079A0192059A80
:10BDD000009202002800F4F7ADFA1E2306AA9B1871
:10BDE000310022001B78FFF747F9FFF7BFFBC020A7
:10BDF0004000F2E7C02040007EE42B00AA883433E4
:10BE00009B181A7D803AD2B27E2A01D8FFF7AEFB8A
:10BE10001A000EAC2100981C113201331578013A3A
:10BE2000257001349A42F9D1102243F0C5F81E4A18
:10BE300000201E49F1F7FFFB13B0F0BD8B791B0406
:10BE40001343CA7912061A43059276E43100387812
:10BE5000F4F7F2FB3300059A069928000DE53878CF
:10BE6000F4F76CFC8FE4C0256D00F3E733000EAAF5
:10BE70001100113301361D78013B157001329E42CD
:10BE8000F9D1102243F098F8094B0A4A1B689C61CB
:10BE9000CEE7C0235B000593E8E4C046FFFEFFFF4A
:10BEA00080B4FFFFFFFDFFFF8DB1031809C5031824
:10BEB00038B9000001B303182900AA8834318B185F
:10BEC0005E788A5CDC783602997816432A892402E7
:10BED0000C43042A06D021001C795B7924040C430E
:10BEE0001B061C433000F4F7ADFD00280ED00EAF4A
:10BEF0003A0021003000F4F779F9051E02D13878B4
:10BF0000F4F71CFC002322003100A6E7C0256D00D9
:10BF1000F8E73A0021003000F4F768F900233F7891
:10BF200006900593002800D0FFE43800F4F734FCB5
:10BF3000C3B20593F9E4A4B2240A2C71691DAA24A2
:10BF40001CE52A001E24AB883432D118059106A9BD
:10BF500064182100D05AF5F7ABFE002506002778BB
:10BF6000A84203D13800F6F751FB05002800FEF780
:10BF70009FFF033081B20EA8FFF73EF8002801D0E2
:10BF8000FFF7F4FA0E9B30001C00998834346418D3
:10BF9000FEF77EFF059B20701B8863701B0AA37051
:10BFA000002D03D03800E11CF6F7A4F9A021890088
:10BFB0000E989FE12A00AB883432D5186E78D35C96
:10BFC00036021E438123DB019C4213D12B000EAAB3
:10BFD0001100113301351878013B107001329D4278
:10BFE000F9D100223000C54BF5F71EFC002800D126
:10BFF00022E74EE01E2706ABFF1839003000F5F7A8
:10C0000057FE8B230590DB019C4211D1002840D1C3
:10C010002B000EAA1100113301351878013B107066
:10C020000132AB42F9D13878B44AF5F7C9FCDDE703
:10C03000059B002B29D13878F6F7E8FA06900028FE
:10C0400014D038780EA9F6F797F90EAD397828781C
:10C05000F5F770FF2878F4F72FFE059801350130C9
:10C06000C3B20593059A069B9342EFD1002138781D
:10C07000F5F740FC002808D13878F7F721F9832339
:10C080000020DB019C4204D0D6E6C8231B01984265
:10C09000F5D13100FFF70EFACEE62E00AB8834362C
:10C0A000F6182B89082B55D1736830880593F4F75F
:10C0B000C9FC00285CD0059B002B5CD01E2706AB7A
:10C0C000FF183A0030880599F4F790F8051E15D14D
:10C0D00070880EA9F6F720F8051E0FD1202206ABB6
:10C0E0009B181878F62339789B019C4234D1F6F7D7
:10C0F0006FF9051E02D13878F4F724FC059B07215F
:10C100001B0C1F04002B00D002310EA8FEF774FF99
:10C11000002801D0FFF72AFA0E9B28001C009B88FC
:10C120003434E418FEF7B4FE2070338863701B0AC1
:10C13000A3707388E3701B0A2371002F1ED07368ED
:10C140001A0A6371A2711A0C1B0EE2712372FA2192
:10C1500089012DE7B388A8E7F6F7C4F9051ECDD10C
:10C16000202206AB9B1819783878F4F7FDFBC5E759
:10C17000C0256D00C2E7D8252D01BFE7B3886371E4
:10C180001B0AA371E3E7C0277F008CE50731A0E518
:10C19000A4B2240A2C716A1D9924BCE5A8231B01B2
:10C1A0009C4209D1AB88ED1834352878012801D993
:10C1B000FFF7DCF9F6F772FE01210EA8FEF71CFF6F
:10C1C000002801D0FFF7D2F90E9B1C009B88343465
:10C1D000E418F6F73DFFB82120700901E8E6842352
:10C1E0005B019C4209D1AB88ED18343528780128D1
:10C1F00001D9FFF7BBF9F6F7F7FF01210EA8FEF70B
:10C20000FBFE002801D0FFF7B1F90E9B1C009B88B4
:10C210003434E418F7F734F88C21207049010E9873
:10C22000FEF714FFF7F78CF8FFF7A0F9AB88ED18CD
:10C2300034352878012801D9FFF798F9F6F788FFF7
:10C2400001210EA8FEF7D8FE002801D0FFF78EF9D5
:10C250000E9B1C009B883434E418F6F7E9FFA421F8
:10C260002070DBE7AB88ED1834352878F6F72AFE26
:10C2700001210EA8FEF7C0FE002801D0FFF776F9D5
:10C280000E9B1C009B883434E418F6F7E9FE9621D7
:10C2900020705DE72A00AB883432D05CD1180128C9
:10C2A00001D9FFF763F94978F6F77AFFFFF7F5FA56
:10C2B000B4235B019C4201D0FFF7D5F9059B387888
:10C2C0009978F6F76FFA002801D0FFF74FF9FFF7DA
:10C2D000CAF9059BE370BDE400210EA8FEF78CFEB1
:10C2E000002801D0FFF742F99521054B0E981B68F5
:10C2F000C9015861FEF7AAFEFFF738F96DC50318AA
:10C3000038B9000017241626F4F7C2FB06ABE41870
:10C31000F618220031000690FF20F4F7C3FB2378C3
:10C3200031785B000531C918069B5B00C9184900CC
:10C330008BB218000593EEF784FB041E00D17BE559
:10C340000EAB00931E2306AA9B181A220DAE0CAF4B
:10C3500006A9521838003100F6F7ACFE3B8823706E
:10C360001B0A637033880A26A3701B0AE37006ABAE
:10C370005B8BA67123711B0A6371E57106ABDB8BC6
:10C3800023721B0A6372069BAB4209D16B462200E3
:10C390000020197DFFF7ABF82000EEF757FB4BE5C7
:10C3A000162706ABFF18172306AA9B181A00390098
:10C3B0002800F4F777FB0EAB1B88A21913701B0A39
:10C3C00053703B780436937006ABDB7DB6B2D37006
:10C3D0003B78002B08D0A11900222800F4F78AFB33
:10C3E0003B785B00F618B6B2172706ABFF183B7810
:10C3F000002B08D0A11901222800F4F77BFB3B7821
:10C400009B00F618B6B20135EDB2BCE7374B9F4240
:10C4100003D1FF23E370FFF707FB3800FEF72BFD86
:10C42000C3B29C46202362469B1AD8B201231A004D
:10C43000411E8A40BA4206D083409F4203DA21203F
