:020000041802E0
:10FF080010B50800110001F05DFA10BD10B5080029
:10FF180001F04EFA10BD000037B50024050023009B
:10FF2800220021000094012001F094F9230022000E
:10FF38002100012000F01EF9012000F0B3F9012092
:10FF480000F0D6FA012000F0AFFB012000F0F2FB30
:10FF5800012000F02DFD012000F0F8FD2200210015
:10FF6800012001F039FCE8684CF0D6FD014B1C601B
:10FF780037BDC046CCB80000F0B587B00C9D0390E3
:10FF8800280005921F00049101F045FC0323C41CBE
:10FF98009C43A4B28434012120004CF035FD1E4E50
:10FFA8002200002130604FF01FF83368002B2AD060
:10FFB800039B00201A8A2B68049900933B0001F0E8
:10FFC80049F9041E20D1059A03993B0000F0D2F8A4
:10FFD800200000F067F9200000F08AFA200000F005
:10FFE80063FB200000F0A6FB200000F0E1FC2000ED
:08FFF80000F0ACFD31682A00A5
:020000041803DF
:100000002000843101F0ECFB200007B0F0BD4B2450
:10001000034D28684CF084FD00232B60F4E7C046B4
:10002000CCB8000000487047B000031870B5060057
:1000300008000D000C3002214CF0EAFC041E05D132
:10004000064B020001001B68012098470123200095
:100050005B42A68065810C30236070BD10BF00003C
:1000600010B50C384CF0F4FB10BD70B50C00050059
:10007000C8202CF083FC00212CF098FC23000C3BC2
:100080001881DD8020004CF0B3FB70BD014B1B6874
:1000900018887047CCB800000C380089704710B53C
:1000A00001214CF0B5FC10BD10B54CF039FD10BD70
:1000B00081FF021821FF021815FF021809FF02181C
:1000C000087810B5192803D003002E3B012B04D863
:1000D000497800F0A5F8002010BD9F28FBD9497889
:1000E00000F052FBF7E7000070B504001D000800A7
:1000F000230AC82B26D11C4B9C4213D91B4BE31857
:100100009BB2012B07D838204042001BC0B201F03F
:100110009BFA002226E02A0021000220144B1B68D3
:100120009847F6E70A002000290001F091FB021E23
:1001300018D00122904215D00D4B2A002100032037
:100140001B68EDE70B4900228C420BD0F8318C4242
:1001500008D00E2BF0D1084B2A001B6819884CF0F0
:1001600066FB0122100070BDC7C8000038370000D0
:1001700010BF0000080D0000CCB8000010B514003E
:100180001A00002810D1094BC8301B68488218009B
:10019000803048600648D203086006482243CB609E
:1001A00088601A800A8A5A8010BDC046CCB8000008
:1001B000B801031801000B00FFFF0000E90003185D
:1001C000180D00005D0203182A0D00008D020318AF
:1001D0002C0D000069020318000D0000C100031877
:1001E000A40D0000CD070318A50D00001908031881
:1001F000A70D0000D50B0318000C000021160318F2
:10020000130C000039140318150C0000F514031822
:1002100010B50800904710BD10B5884710BD00000C
:100220000C4B0A001B6810B5002B0AD02E2809D1F0
:10023000002906D00021DC68D9608C4201D090B240
:10024000A04710BD0029FCD0034B01001B68032010
:100250009847F6E7CCB8000010BF000010B50020AA
:100260004DF0A4FC002010BD074B10B51B68002BFF
:1002700007D000209C689860844202D00A00203297
:10028000A047002010BDC046CCB80000064B10B5FA
:100290001B68002B05D00020DA68D860824200D0AD
:1002A0009047002010BDC046CCB800000022024B91
:1002B0001B689A60DA607047CCB80000F8B50E4B46
:1002C00006001B680D005A88072121230B484CF0BB
:1002D0006BFA10271923040003703A003100013033
:1002E0004EF06AFE20003A00290011304EF064FE04
:1002F00020004CF07DFAF8BDCCB80000170D0000CE
:1003000007B5034B009200224DF023FC07BDC04609
:100310001102031810B5010001484DF02FFC10BD6B
:100320001102031807B50093014B4DF045FD07BDC1
:100330001102031810B51300014A4EF06BF910BDFD
:100340001102031830B585B0099D08AC24780295D8
:10035000034D009401954EF08FF905B030BDC046B5
:100360001102031807B50093014B4EF015FA07BDB3
:100370001102031810B50A0001494EF05DFA10BDD4
:100380001102031810B50A0001494EF09BFA10BD86
:1003900011020318F0B58BB00993159B10AC11AD89
:1003A00012AE14AF24882D7836783F780693064B2A
:1003B00004970593139B029603930195099B009460
:1003C0004EF0E2F80BB0F0BD1902031870B50C4DF9
:1003D00004002B689A68002A0CD15A88072101234F
:1003E00008484CF0E1F92F2303704CF001FA2B6818
:1003F0009C6070BD002204481100A047F9E7C04688
:10040000CCB800002B0D000082020000F7B5134F9E
:1004100015003B680600DA680191002A19D15A8854
:10042000072141230E484CF0BFF92E23040003702E
:100430002022310001304EF0BFFD20002022019922
:1004400021304EF0B9FD20004CF0D2F93B68DD6060
:10045000F7BD00210348A847FAE7C046CCB8000022
:10046000290D00008202000037B58025194B68462F
:100470001C684BF01DFB0099A26A206B8B1A1B01B4
:100480001B092D05AB4203D9531A1B011B095B4203
:10049000019A1B1892B223636287834218D2FA250D
:1004A000606B0D4BED00C31863630C4BD3189BB20C
:1004B0006387AB4206D9A023DB05C3186363084BEF
:1004C000D2186287636B834202D2238F0133238762
:1004D000A16237BDCCB80000FFFFFF4F5F050000F1
:1004E0008FFDFFFF10B5034B18681C3000F0F2F8C9
:1004F00010BDC046CCB8000037B5051E0DD1074B66
:1005000068461C684BF0D4FA054B2563A361054B84
:1005100065636362009BA563A36237BDCCB800002E
:10052000E50403186D05031870B504000D4D2E6821
:10053000FFF79AFF286810302FF01EF90A4B2000B1
:10054000F4629C4200D918000A2140011BF0A2FE6F
:10055000B36AC018000100097061286810302FF0DC
:10056000C7F870BDCCB80000CCCC0C00084B094AD1
:100570001B6810B5D86A904205D9074A8018D8621E
:10058000FFF7D2FF10BD0022DA6201F06BFFF9E73E
:10059000CCB80000CCCC0C003433F3FF10B5034BC7
:1005A000186810302FF0E8F810BDC046CCB8000035
:1005B000024B1B68586319877047C046CCB80000CF
:1005C00070B506000A4B0C001D68FFF74DFF0A23AB
:1005D000696B3160286B2A8F43435B095B1822806B
:1005E0003360696B8B4201D20132228070BDC046FC
:1005F000CCB8000070B5060014000D00FFF7E0FF56
:1006000033681C1934609C4202D22B8801332B8042
:10061000012070BDF7B56B469F1C05000E0001A8B8
:1006200039001400FFF7CCFF3B88B34207D1019893
:10063000431CAB420FD2281A20600020FEBDB342FB
:1006400009D201339E4208D1019BAB4205D3013B45
:100650005B1B2360F1E70248F0E7C1204000EDE7B3
:100660008205000070B501204CF04EFD0D4D2B6849
:10067000002B16D00C4B1B689847286878304DF03B
:1006800003F90A4B04001B689847002C02D0A368AA
:10069000606898472B689B6F002B02D001204CF0BC
:1006A00011FD70BDCCB800009CBE0000A0BE0000D3
:1006B00010B5002808D1054B186878304DF086F841
:1006C000012003494CF0E2FC10BDC046CCB800004C
:1006D0006506031870B50A4D04002B689B6F002B4C
:1006E00002D101204CF0EEFC064B1B6898472868AD
:1006F000210078304DF080F8034B1B68984770BD9F
:10070000CCB800009CBE0000A0BE00000A4B70B533
:100710001B681C003C34227A002A0CD1DA6B002AB8
:1007200009D020005D884DF0AFF803892372058160
:100730000C304CF05DF870BDCCB800000A4B70B5C1
:10074000051E1C680BD13C3420004DF03FF825728B
:1007500070BD20003C304DF097F84CF079F8E36B19
:10076000002BF6D1F4E7C046CCB80000054B10B51D
:100770001B680C393C33088118004DF03DF8FFF739
:10078000C5FF10BDCCB8000010B50E4B1C683C3442
:10079000227A022A0AD0032A0BD0012A0CD100F0B7
:1007A00019F900232372FFF7B1FF10BD00F034FAEE
:1007B000F7E700F057FFF4E7034B01001B68032045
:1007C0009847EEE7CCB8000010BF000010B5104A03
:1007D0000B0012683C32127A022A09D0032A0CD08C
:1007E000012A0FD10978587800F010F9002010BDC7
:1007F0000978587800F02AFAF8E70978587800F074
:100800005DFFF3E7034B01001B6803209847EDE70A
:10081000CCB8000010BF0000154A10B512680B00DC
:1008200014005234097824788C4205D1997858788C
:1008300000F002F9002010BD1400573424788C42D7
:1008400004D19978587800F017FAF3E7140072345D
:1008500024788C4204D19978587800F045FFE9E774
:10086000044B44320100127803201B689847E1E7EB
:10087000CCB8000010BF0000384B70B51E680100F6
:100880003400483400285ED1607A7288052813D875
:100890004EF066FB132C44572C03022307213048EB
:1008A0004BF082FFA7230370A37A0100437001205D
:1008B000FFF75CFF0023637270BDDA202C23072151
:1008C00000014BF071FFA0230380C0239B00436015
:1008D000BA230381E3880100436183610823FF3366
:1008E00083830120FFF742FF0123E4E7A388072168
:1008F00004339BB21B484BF057FFA923050003703C
:10090000A37A4370A288B16C428004304EF054FB4D
:1009100029000120FFF72AFF0223CCE73A23072111
:1009200011484BF041FFA4230370A37A01004370E8
:1009300000234380237A03710120FFF717FF03236D
:10094000B9E704236372E07AFF28B5D0FF23E3728E
:100950007368002BB0D0DB689847ADE7CCB80000D7
:10096000A30D0000A60D0000A10D000070B51F2B07
:1009700018D80F4C25682C004834667A002E06D013
:10098000042E12D1E6888E4201D0052666722272AC
:10099000049AE072E1800020AA64A380FFF76CFF54
:1009A000002070BDC1204000FBE70248F9E7C046C7
:1009B000CCB8000082020000002808D1044B1B685C
:1009C0001A00483250720122523352421A80704744
:1009D000CCB800000300A0380A0010B509280CD8D4
:1009E0004EF0BEFA070B0B0B050B0B070B0700298C
:1009F00002D090B2FFF740FF10BD034903200C68FE
:100A00001900A047F8E7C04610BF000010B5084B1A
:100A10001B6848335A7A002803D1012A01D1997200
:100A200010BD044B01001B6803209847F8E7C0463F
:100A3000CCB8000010BF000010B50C00002805D095
:100A40000022064B110001201B689847452C00D15D
:100A50000024A0B2FFF710FF10BDC04610BF000079
:100A6000750B0318AD0B03186D0903181F4B10B558
:100A70001B6801001C005434002830D1A0785A882B
:100A8000042813D84EF06CFA03132B121300DA204B
:100A90000223072100014BF087FEA1230100037010
:100AA00002204870FFF762FE0123A37010BD3A23B5
:100AB00007210F484BF078FEA4230370E378010070
:100AC00043700C4B228843800023C2800371C38192
:100AD000038202810220FFF749FE0223E5E7207925
:100AE000FF28E3D05B681B689847DFE7CCB80000BD
:100AF000A10D000002210000144B10B51A6801007E
:100B000014005434002806D1A378032B0CD0FD2008
:100B1000023B034218D12079FF2815D0FF2323710F
:100B200053685B6898470FE0022307215288084802
:100B30004BF03AFEA5230370E378010043700220D6
:100B4000FFF714FE0423A37010BDC046CCB800000C
:100B5000A20D0000002808D1044B05491B681A00AB
:100B600056321180FF2254331A717047CCB80000FE
:100B700000FFFFFF0B4B70B51D682B0054331C7931
:100B8000FF2C01D084420BD104269C78B44307D1BA
:100B90006A60187119802000FFF768FF200070BD9F
:100BA0000148FCE7CCB800008202000010B5074BFA
:100BB0001B6854339A78022A06D1013200209A70B9
:100BC000FFF79AFF002010BD0148FCE7CCB80000F9
:100BD0008202000073B50C000D4B0E4E1B6808001E
:100BE000356898476378092B0FD154352879FF2849
:100BF0000BD033685968002907D01122237EA256F2
:100C00001A3400948C680021A047002076BDC046AD
:100C1000D0B80000CCB800000A0010B5A42803D05A
:100C2000A52805D0A12809D190B2FFF71FFF10BD5C
:100C30000029FCD088B2FFF75FFFF8E7024B010004
:100C40001B6803209847F2E710BF000010B5084B5F
:100C50001B6854339A78012803D1012A01D1D97035
:100C600010BD044B01001B6803209847F8E7C046FD
:100C7000CCB8000010BF000010B50C00012805D052
:100C80000022044B110001201B689847A0B2FFF717
:100C900033FF10BD10BF0000344BF7B51D68830053
:100CA000EB180600DC6D002903D1227CE37B9A421D
:100CB00006D1002323602B6EA07C5B699847F7BDAB
:100CC00020F036FE227CE77B0438D71B874200D910
:100CD00007000621C120254ABBB2126801933602E3
:100CE00009339BB23143528800014BF05DFD122362
:100CF0005C3503702B7D0600022B2DD1EB89300073
:100D000004339BB2B380BBB20133F380E17B236831
:100D1000BDB259182A0009304EF04EF9A27B3F218E
:100D200013008B4303D0124B03201B6898473F23CB
:100D3000A27BE17B1A40237C00290FD1B9B25B1A58
:100D4000591E8B419B011343337230004BF050FD11
:100D5000E37BDB19E373B2E72B8AD0E74D199D42A1
:100D600002DB40235B42EEE78023FBE7CCB80000C8
:100D700010BF000070B5224C246825005C352D7D25
:100D8000022D04D1032906D0C120400036E0012DF8
:100D9000FAD10229F8D8002BF6D0002AF4D0022D7F
:100DA00009D1452AF0D8E46D002C02D0A67C8642F9
:100DB00015D0144822E0012DF5D18226B600B242AA
:100DC000F1D3E1E7012D19D1637C9B0716D50021F2
:100DD0000800FFF761FF002010E00B480EE02068DC
:100DE0000028FAD1A17323602274E073022DE9D1A7
:100DF000627C0123100018401A42E8D170BDC04641
:100E0000CCB8000082080000820200000F4B70B5D1
:100E10001B681C005C34227D002A15D0627D0025F1
:100E2000042A0FD15A880721022309484BF0BCFC41
:100E3000A5230370A37D010043700320FFF796FCF8
:100E400005236375280070BD024DFBE7CCB8000098
:100E5000A20D000082020000F0B54E4A03001668A1
:100E60008BB0002800D089E034005C34607D758848
:100E7000072815D84EF074F8162F486F82142F04E7
:100E800002232A00072144484BF08EFCA72303705D
:100E9000A37D010043700320FFF768FC0023637506
:100EA0000BB0F0BDDA202C232A00072100014BF003
:100EB0007BFCA023038000234372384B0100436076
:100EC000638A436183610823FF3383830320FFF731
:100ED0004DFC0123E3E7A3892A00043307219BB2D9
:100EE0002F484BF061FCA92305000370A37D4370DC
:100EF000A289716E428004304EF05EF82900032012
:100F0000FFF734FC0223CAE700271B22390003A89D
:100F100002974EF06DF86B46DE1DDF71214B3100FC
:100F20001B6802A8984733782A00072108331C4819
:100F30004BF03AFCAA2305000370A37D327843707E
:100F4000428002A904304EF037F829000320FFF751
:100F50000DFC0323A3E73A232A00072112484BF094
:100F600023FCA4230370A37D01004370002343806E
:100F700003710320FFF7FAFB042390E7726E002A47
:100F800000D18DE7326E1800126890470023736617
:100F900086E7C046CCB80000A30D000000010300A6
:100FA000A60D0000D4B80000A10D0000F7B5009315
:100FB000431E070014000191012B50D8D31E192B9A
:100FC0004DD8089B002B4AD0009B002B47D0274BC5
:100FD0001E6832005C32137D002B01D0834204D1A5
:100FE000012F04D1108A00283CD1214836E0D08955
:100FF0000028FAD0022B05D000211EF09DFA80B205
:1010000000282BD135005C356B7D042B18D1174A95
:10101000231D1268072152889BB216484BF0C4FB6F
:10102000A92306000370AB7D009943704480220021
:1010300004304DF0C1FF31000320FFF797FB0CE0B7
:10104000089B00203366019B2F756B82009B7366A3
:10105000FF23AC81EB75FFF7FFFE0020FEBDC12032
:101060004000FBE7012BCDD0C6E7C046CCB800005E
:1010700082020000A60D000010B50D4B1C685C3408
:10108000237E002B13D1237D002B10D0627D062AF6
:101090000DD1022B03D10121E0891EF04DFA217DF3
:1010A000012902D1208A1EF047FA0023237510BDC2
:1010B000CCB80000082110B5074B00021B680143A3
:1010C0005A88064802234BF06FFB0123037012334A
:1010D00043704BF08DFB10BDCCB80000040E000037
:1010E000F7B5514B05001B680E0001935F88830024
:1010F0003F208979019AD3188A0901400091310073
:10110000DC6D0C396368022A50D0032A27D0012AEB
:101110003AD0002B00D079E0B388201D013B6373E7
:101120004CF06AFB019B5C331B7D022B4DD1009B75
:10113000032B4FD10321607B4BF06AFC0027060094
:101140006368002B4FD1019B627B1B6EA07C0099D2
:101150001C693300A04730004BF0E2FC25E0002B77
:1011600054D0237B009A934250D1201D4CF044FB75
:10117000B388627B39009B18013B63732B4BED18DE
:10118000A8B24BF06DFACDE7002B3FD1201D4CF0FB
:1011900033FBB3883900013B6373009B244A2373FC
:1011A000224BED18A8B24BF0C1F9F7BD002B2DD0A2
:1011B000237B009A934229D1201D4CF01DFBB3885C
:1011C000627B9B18013B6373EFE7012B02D1009B0D
:1011D000022BAFD96368002BE7D0201D4CF054FBE5
:1011E0004BF036FBF6E7201D4CF04EFB05002900C6
:1011F0002A8AF019013A13314DF0DEFE2B8A2800BD
:10120000013BFF18FFB24BF023FB99E708004BF0BE
:101210001FFB064B3900E81880B24BF021FA28007A
:10122000FFF748FFC1E7C046CCB80000C8C8FFFFC1
:10123000204E0000074B10B51B68DB6D002B02D061
:101240009B7C834201D0044810BD0020FFF732FF91
:101250000020F9E7CCB8000082080000F0B58BB0A0
:101260000792504A1D001468109B0691002800D078
:1012700094E0162604AAB6180A881F00328080223D
:10128000920201001740134200D0063102221800DA
:1012900010400590134201D00631C9B230001DF054
:1012A0003CFB002F3CD000283AD1152204ABD218C9
:1012B0003F231370213B2B4003933B4B0090029341
:1012C000079B30000193394906231DF0EDF92200F8
:1012D00033885C32D38106333380059B002B24D0C6
:1012E000002822D1152204ABD2183F2316261370F2
:1012F00004ABF6181E231D402D4B00900293079B54
:10130000300001932B49062303951DF0CDF92300EE
:1013100032885C331A82002F18D0002826D10CE0C6
:10132000230000225C33DA81D7E7230000225C33FC
:101330001A82974207D0904218D123005C330121D2
:10134000D8891EF0F9F8059B002B07D000280DD195
:1013500023005C330121188A1EF0EEF8002805D125
:101360002300FF227033E06518809A7000235C34FC
:101370002376E389002B00D1238A069A13800BB0D1
:10138000F0BD201D4CF080FA4BF062FA6568002D2C
:10139000F7D120004BF0C4FB2800F0E7E46D201EDD
:1013A000F4D1ECE7CCB80000801703182718000030
:1013B000B017031828180000034B1B685C335A7DD4
:1013C000042A00D1D8757047CCB80000174BF7B588
:1013D0001C688600A619F56D0191002D1DD0144BD7
:1013E0006188C01880B24BF03BF92B68002B04D009
:1013F000236EA87C5B690F4998476F68002F0FD157
:10140000236EA87CDB680199984728004BF088FB85
:101410005C34F765237E013B2376FFF72DFEF7BD95
:10142000281D4CF031FA4BF013FAE6E7CCB8000077
:10143000C8C8FFFF82080000F0B585B0019119000F
:1014400000252A4B94461A6802AB9F1D0B0A9B008D
:10145000D318DB6D3D80AB4242D05C32D489AC42C4
:1014600028D001980088844224D8661D864221DB5A
:10147000001B2C00052834D1012202245B7C134080
:101480003B80A31D9BB2624619484BF08DF9019B2E
:1014900006001B88057103804480002C04D02200C4
:1014A000390005304DF088FD30004BF0A1F90020E7
:1014B00005B0F0BD148A8025002CE2D0019A128874
:1014C000944210D8601D90420DDB121B0024052AA7
:1014D000D7D15B7C00259B07DB0F3B800234D0E734
:1014E0001C008025CDE70024CBE7C046CCB8000027
:1014F000140C0000F0B585B002930392464B029A9B
:101500001B68100A82009A18D76D3D1E4AD000252C
:101510008A88AA4246D0C0B2019008885C33009005
:10152000D889A84249D0009CA04246D8009E441DBC
:10153000B44242DB301A022804D005280CD02C001B
:10154000802619E01B7D022BF9D101982C00FFF7B2
:10155000C7FD012526000FE04B88002BEFD1022AA2
:10156000EDD1CB798C791B021C43012C1DD10025B8
:101570007B7C23437B742E000423039A0299274823
:101580004BF012F9009B867003804BF031F9002C70
:1015900008D03B68002B05D0F97B002902D10198C7
:1015A000FFF77AFB280005B0F0BD002C14D1012212
:1015B0007B7C934325007B74CCE71C8A002C0CD0E9
:1015C0000098844208D8009D601DA84204DB2C1BB3
:1015D000022C04D0052C0AD000242500B0E71D7D84
:1015E000012DF9D10198FFF77BFD0024B2E74D886A
:1015F000002DF1D1022A0DD1CC798B7924021C4324
:10160000012C03D17B7C1A437A74B4E7002C01D1FE
:101610007B7CCEE72C00E0E7CCB80000160C000085
:101620000A7810B5122A0BD1064A1B0A12689800D4
:101630001218D26D002A03D04978D8B2FFF72CFBDC
:10164000002010BDCCB80000054B82001B6810B50F
:101650009B18DB6D002B01D0FFF72CFD10BDC046A1
:10166000CCB800000A0013490300A03810B509687F
:101670000A2819D84DF074FC0E1818180E12180EFE
:1016800018060E004B6E002B04D10B6E90B21B6837
:10169000984702E090B2FFF7DFFB10BD002AFCD0B4
:1016A0000B6E90B25B68F3E7034903200C681900E6
:1016B000A047F2E7CCB8000010BF000010B5084BFF
:1016C0001B685C335A7D002803D1012A01D199752A
:1016D00010BD044B01001B6803209847F8E7C04683
:1016E000CCB8000010BF00001F4BF7B51D682B00E1
:1016F0005C330093DE7D002805D000221B4B1100D7
:1017000001201B6898470623009A5375FF2E1DD0B1
:10171000B700EF19FB6D0193002B17D101211420A5
:101720004BF076F92B6E04009B6830009847A0744C
:10173000FF2812D0201D4CF049F8019B009A23602D
:101740006374009BFC651B7E013313762B6E0020B7
:101750005B689847FFF790FCF7BD3000FFF7AAFCE5
:1017600020004BF0DDF9F1E7CCB8000010BF00001D
:10177000AD0F03180D0E031835120318750D03185D
:101780000028000200000000032800020000000002
:10179000DB2A00040080450003280002000000004E
:1017A000DC2A0010008045000229000A0000000029
:1017B00000280002000000000328000200000000D2
:1017C000DD2A000400801506032800020000000046
:1017D000DE2A0010008015060229000A0000000021
:1017E000F7B5019200220D00060000F045F803272E
:1017F000C41CBC432C1921003000019A01F080FC6C
:10180000C019B843019A241821003000143211F095
:10181000CDFFC019B8432018401B80B2FEBD70B583
:101820000500002000F045F804002800032601F020
:10183000C1FC03348019B043B44324182800143089
:1018400012F007F88019B043A4B2201880B270BD1E
:10185000074B10B5984202D801F046FC10BD054B6D
:10186000984202D800F03CF8F8E712F02DF8F5E7BE
:101870006DC8000081C80000F8B500220D00060008
:1018800000F05DFE0327C41CBC432C19210030006E
:10189000002201F051FAC019B84324180022300088
:1018A000210000F08BF8C019B8432018401B80B20B
:1018B000F8BD70B5002000F063FE04000020032591
:1018C00001F052FA03344019A843AC432418002015
:1018D00000F07CF84019A843A4B2201880B270BD73
:1018E000044B10B5984202D800F072F810BD01F018
:1018F0004FFAFBE777C80000016810B5002903D054
:10190000054B1860002010BD044B01200A001B6825
:101910009847C1204000F6E7D8B8000010BF00008B
:1019200010B5FEF74DFE10BD012300220370837039
:10193000DB18C370023342700371704710B5FEF7B5
:1019400037FE002010BD10B500F0E4F810BD000017
:10195000054B10B51B68002B03D0196800F062F925
:1019600010BD0248FCE7C046D8B800008202000063
:1019700070B5082105000748FEF758FB0B230360EC
:101980000023040083808571FEF780FB2100FEF7B1
:101990006CFB70BD6FC8000070B506000C000648F7
:1019A00008211500FEF742FB06608580010020003B
:1019B000FEF75BFB70BDC0466FC8000010B5024863
:1019C000FFF79AFF002010BD941A031800207047FB
:1019D00013002D4A73B50C0090421AD118680B28D9
:1019E0004ED84DF0BDFA0618224D4D4D4D4D4D4D82
:1019F0002F450C212548FEF719FB00230500036045
:101A00008380811D0830FFF78BFF29002000FEF73F
:101A10002CFB002076BD19895868FFF78FFF210045
:101A200002000120FFF7B8FFF3E70C211748FEF78B
:101A3000FDFA022303600023050083800630FFF7D0
:101A400073FFE2E75A79511E8A4119796B46DE1D10
:101A5000D2B23000FFF777FF082105000B48FEF7F0
:101A6000E5FA0A2303603378010085808371CDE7AE
:101A70001879FFF76DFF021ECBD021000B20D1E7B4
:101A80002100034ACEE7C0466EC800006FC80000C0
:101A90008202000071190318F7B505000D430324F5
:101AA0002B002340254220D00C0005008E18331B4C
:101AB000032B1DD9E778A3783F023B4367781B04CB
:101AC0003F02BC4601936346277804341F43019BC1
:101AD0003B431F0A2B706F701F0C1B0EAF70EB7017
:101AE0000435E4E7CC58C4500433D41A032CF9D895
:101AF00093089B00C018C918D21AFF2500231C00A8
:101B00002C40944200D3F7BDCC5CC4540133F6E7BB
:101B100034207047F0B585B00D0003900292202963
:101B200046D80024244F3B681033E2B20192A20051
:101B30009A58002A38D1029B5426002B00D17836BF
:101B400028007043103080B2FEF7A9FA011E03D1BD
:101B5000B020C00005B0F0BD012338680434A400F3
:101B60005B4221500A004B600023144C0D734D73EF
:101B70008B608B731C329D420ED1029B002B04D1D3
:101B80008A7B023313438B7308304BF035FE039B83
:101B9000019A00201A70DDE7019F5370013317701E
:101BA0005462DBB29219E6E70134052CBDD1CFE7D0
:101BB000C1204000CEE7C046DCB80000A55A5AA5B7
:101BC00037B5051E164C0ED16B4601222160D81D7B
:101BD0002021FFF79FFF6B462A000821D81DFFF741
:101BE00099FF34203EBD002522682B1D9B0098588C
:101BF000002801D0FEF758FA0135052DF4D1002553
:101C00002B00226808339B00D3185868002801D0A5
:101C1000FEF74AFA0135042DF2D100232360E0E7F4
:101C2000DCB80000F7B506000D00042828D8164FD0
:101C3000331D38689B001C580193002C20D0637B17
:101C4000227B9A420DD120000024FEF72DFA3B683A
:101C5000019A2800D450A54202D03000A8470020A5
:101C6000FEBD002B06D0A37B9B0700D508302100CA
:101C70004BF014FE0123A27BA5601343A373EEE790
:101C8000C1204000ECE7C046DCB80000F0B587B0EA
:101C9000049313000392049A05909D184D19414B2B
:101CA000ADB21B680291982D07D8202D19D8542267
:101CB0001F0020250192002B18D100272433BA00E1
:101CC0009A58FCB2002A59D00137042FF7D1B0211D
:101CD000354B022000221B68C9009847B020C00085
:101CE0004AE008331F00CC23982501933C68002C60
:101CF000EDD080220026636812061100F1400B42ED
:101D000002D10136202EF8D1617B002904D1264B67
:101D10000A0003201B68984780231B06F340626873
:101D20009A43637B6260013BDBB26373002B03D198
:101D3000210038004BF0B2FD019B103473431E1993
:101D4000316B1A4A914203D0174B03201B68984706
:101D5000029B3100B380049B0022F380039B7581BA
:101D600033810123B37333003031103304C39942FC
:101D7000FCD10020059B1E6007B0F0BD2800343068
:101D800080B2FEF78CF9061EA1D0FF233373074BF8
:101D900008373363034BBF001B687473DF197E6021
:101DA000D6E7C046DCB8000010BF0000A55A5AA50F
:101DB00083888B4206D35B1A83800389C91801810B
:101DC000002070470048FCE78202000003898B4234
:101DD00006D382888A18591A8280018100207047B0
:101DE0000048FCE782020000C3888B4206D35B1ADE
:101DF000C3800389C9180181002070470048FCE7AF
:101E00008202000003898B4206D3C2888A18591ABD
:101E1000C2800181002070470048FCE78202000078
:101E2000074B026B10B504009A4205D00022054B07
:101E3000110001201B689847A37B0133A37310BDD9
:101E4000A55A5AA510BF0000016B264AF8B5050037
:101E5000914203D0244B03201B689847A97B00299B
:101E600004D1214B0A0003201B689847A87B002857
:101E700036D00138C4B2AC73002C01D00020F8BDBC
:101E80001A4B2A7B18686B7BFF2A07D108339B000B
:101E9000C01844602800FEF707F9EFE7043292000B
:101EA0001158802212061400DC404F682742E5D109
:101EB0004E7B731C4B736B7BDA408B7B3A434A60DF
:101EC000DA0704D5287B8968FFF7ACFED6E7002E39
:101ED000D4D10222134200D008304BF08DFCCDE764
:101EE0000348CCE7A55A5AA510BF0000DCB8000093
:101EF00082020000F8B51F000B8905000C00934218
:101F000013D30026818834314118A088343020183A
:101F1000FFF7C2FDB74206D0290020002022103171
:101F20001030FFF7B9FD3000F8BD014EFBE7C046A9
:101F30008202000010B5130002899A4206D18388FC
:101F40003433C018FFF7A8FD002010BD0048FCE79F
:101F500082020000030010B5080099881A89343104
:101F60005918FFF799FD10BD30B5002809D08C181D
:101F70004589E418A54204DB81800281C3800020EA
:101F800030BDC1204000FBE700207047F0B50127BD
:101F9000744B8FB01B680693069B90331D680793A4
:101FA000002D1ED0069A983213783B4313706A7B3B
:101FB000501E092800D9BEE02C7B4CF0D1FF05143F
:101FC000252564728D9DA8B320006B680DAA0CA90D
:101FD0009847041E00D0B6E0634A0D990C98FEF7AE
:101FE0008FF90FB0F0BD0BAE200033006C680DAA66
:101FF0000CA9A047041E00D0A5E032885A4B0D99C9
:102000000C98FEF78FF9ECE7192302A95B186E68AC
:1020100004930CAB039308AB02931A23032A25D134
:102020005B1801930DAB200000930AAA0BAB09A922
:10203000B0473B000400002C00D084E04B4A02A9CA
:102040000592192252181278029304920C9A08AB46
:1020500003921B780B9A01931A235B181B880A9929
:10206000009309980D9BFEF795F9BAE702AA9B1811
:1020700001930DAB200000930AAA0BAB09A9B0474E
:1020800000230400D7E70CAE200032006B680DA9D6
:102090009847041E57D13178334A0D98FEF74AF914
:1020A0009FE70AAB01930DAB009309AE200033000C
:1020B0006C680CAA0BA9A047041E44D120212A4B0E
:1020C0003278019302AB5B181B780C9900930B9844
:1020D0000D9BFEF737F984E70BAE200033006C68E8
:1020E0000DAA0CA9A047041E2DD132781E4B0D99C4
:1020F0000C98FEF737F974E720006B680DA9984734
:10210000041E20D118490D98FEF734F969E7200024
:102110006B680DA99847041E15D113490D98FEF759
:1021200031F95EE720006B689847041E0BD10E481A
:10213000FEF7F0F855E700220D4B11003800A824F7
:102140001B689847240107984BF09EFB0022AB6860
:102150006A732100287B9847069A98321378BB430C
:10216000137019E7E0B8000015220318FD210318C9
:1021700010BF000070B50E00082819D8002A17D02B
:10218000002B15D00D4900010D6829184C7B002C3F
:1021900011D128008B604E734A60903098354BF017
:1021A0002BFB2B78DB0701D4FFF7F0FE200070BD7E
:1021B000C1246400FAE7024CF8E7C046E0B800002A
:1021C000820400000C4B70B51C68050020009030A4
:1021D0000E004BF059FB002203004273290032002D
:1021E000007B9B689847012298342378934323709F
:1021F000FFF7CCFE70BDC046E0B80000431E98411A
:1022000010B5034B404200211840FFF7DBFF10BD23
:102210008203000010B501000020FFF7D3FF10BDBE
:10222000084B00280BD1196003000C3108700130F5
:10223000C0B24B7010310928F8D1EC207047002251
:102240001A60FAE7E0B80000EC20704710B5130000
:102250000A000121FFF78EFF10BD10B513000A0020
:102260000221FFF787FF10BD10B513000A000521FA
:10227000FFF780FF10BD10B513000A000621FFF71D
:1022800079FF10BD10B513000A000721FFF772FF98
:1022900010BD10B513000A000821FFF76BFF10BD39
:1022A00010B513000A000921FFF764FF10BD0000FC
:1022B000094A0B00126810B5110098310978890796
:1022C00004D50021D9329847002010BD0A21034AC5
:1022D000FFF750FFF9E7C046E0B80000891F031878
:1022E00010B513000A000321FFF744FF10BD10B51D
:1022F00013000A000421FFF73DFF10BD094A70B525
:1023000014680300202620000D00320019009930C7
:102310004CF052FE200032002900B9304CF04CFE47
:1023200070BDC046E0B80000084B70B51C680D00D9
:1023300020262100320099314CF03EFE210032006F
:102340002800B9314CF038FE70BDC046E0B800003E
:10235000074B10B51C68010020001022D9304CF04A
:102360002BFE0223983422781343237010BDC046FD
:10237000E0B80000094B07B51B681B68002B0AD0AA
:10238000198AD86801AAFEF745F9002803D10198F7
:10239000FEF7CAF807BDFEF701F9FBE7E4B8000055
:1023A00070B50400054B2100186805684BF076FAFB
:1023B000AC4201D1FFF7DEFF70BDC046E4B80000BB
:1023C000434243415842024B08401860082070477E
:1023D000E4B800000820704770B504000D00FFF756
:1023E000DFFF210020002A0010310C30FEF702F937
:1023F000002823D0174D2868016800291AD0238AA5
:102400000A8A93420CD304D1E2689446CA68944580
:1024100006D909680029F3D121004BF0EDF902E05B
:1024200022004BF0EFFA2B681B689C4201D1FFF7AA
:10243000A1FF70BD21004BF015FAF4E76168002997
:1024400004D1054B0A0001201B6898476368A06807
:102450009847EEE7E4B8000010BF000010B5FFF7A2
:102460009FFF10BD30B585B002A84BF0AFF9154DF8
:102470002B681C68002C0FD0218AE06801AAFEF7A7
:10248000C9F8114B984207D128684BF0FDF921009B
:1024900002A84BF0B1F9EAE7FFF76CFF02A84BF096
:1024A000F3F9041E0BD04168002904D1074B0A0040
:1024B00001201B6898476368A0689847EEE705B05D
:1024C00030BDC046E4B800008205000010BF000027
:1024D00010B5FEF775F810BD73B50D1814008D42D8
:1024E00001D20134A4B26B469E1C310001A8FEF754
:1024F00067F83288019BA24204D100209D4205D991
:10250000E81A03E00020A41A012CF9D076BD37B5F3
:102510006B4604009D1C290001A8FEF751F828888D
:10252000238A019AE168984204D100208A4205D2A8
:10253000881A03E01B1A0020012BF9D03EBDF7B525
:1025400005000C001600FFF76BFE03270330B843AD
:1025500023183200190028000193FFF731FB019B7B
:10256000C019B8431B183200190028000193FFF767
:1025700027FF019BC019B8431818001B80B2FEBD8D
:1025800070B50500FFF760FE040028000326FFF782
:10259000BFFA03348019B043B44324182800FFF76E
:1025A00019FF8019B043A4B2201880B270BD00009A
:1025B000074A03001268506C002800D17047027B64
:1025C0009A4202D1427B8A42F8D00068F4E7C046C2
:1025D000E8B80000F7B5050008680C001E380628AA
:1025E00000D9B7E04CF0BCFC04243349708A9C004D
:1025F0000B89CA8801A88988FFF748FB041E15D1FA
:1026000008215B48FDF712FD1E230360019B8480B7
:102610001A7B010082715B7BC3712800FDF725FDE9
:10262000544B0199186844304BF0E6F82000FEBD89
:1026300049792079FFF7BCFF00284BD0FFF7F0FB6A
:10264000002229001F2000F091FB0024EEE72079F2
:102650004979FFF7ADFF041E3CD0837B012B05D1E8
:10266000444B2100186844304BF018F92000FFF764
:10267000EBFB002229002020E5E749792079FFF7CC
:1026800097FF071E26D001893948103189B2FDF71E
:10269000CDFC0024212301000600848003603B7BE5
:1026A000103183717B7BC371BB8803813B8943817C
:1026B000FB888381BB7BC3813800FFF74BFC310073
:1026C0002800FDF7D2FCB1E749792079FFF770FFC8
:1026D000002842D1284CA9E7002B09D0FFF768FB5E
:1026E000041EA3D102002900222000F03FFB9DE739
:1026F000FFF76CFBF4E7FFF785FBF1E749792079F9
:10270000FFF756FF0028E5D02100E2880831FFF7E7
:1027100011FC041E00D089E7220029002320E4E7F1
:1027200049792079FFF744FFE1790600A079FFF7A6
:102730003FFF0100002ECDD00028CBD00023300079
:102740003289FFF7D7FB041E00D06FE70200290093
:102750002420CAE7C124640068E7A279E3792189CB
:10276000002AB9D1002BC6D0FFF73EFBB8E7C04620
:1027700079C80000E8B80000820200000B4B70B579
:102780001B680E001C681500002C02D02368002B6B
:1027900005D00022064B110003201B689847231D1B
:1027A0001434336000202C6070BDC046E8B80000CF
:1027B00010BF0000F8B51D000B4B0F001B68160082
:1027C0001C68002C02D02368012B05D00022074B87
:1027D000110003201B689847A31D3B601033336032
:1027E000A38800202B80F8BDE8B8000010BF0000CF
:1027F0000B4B70B51B680E001C681500002C02D036
:102800002368022B05D00022064B110003201B6811
:102810009847631D3360237900202B7070BDC0463C
:10282000E8B8000010BF0000F8B51F000F4B0E0005
:102830001B6815001C68002C02D02368032B05D0F0
:1028400000220B4B110003201B6898472379079A3D
:102850003B70637900201370A31D336010332B602D
:1028600023791633E418069B1C60F8BDE8B8000015
:1028700010BF0000F8B51D000B4B0F001B681600C1
:102880001C68002C02D02368042B05D00022074BC3
:10289000110003201B689847631D3B6010333360B1
:1028A000237900202B70F8BDE8B8000010BF0000AD
:1028B000094B70B51B680D001C68002C02D0236802
:1028C000052B05D00022054B110003201B689847FB
:1028D000043400202C6070BDE8B8000010BF000078
:1028E000094B70B51B680D001C68002C02D02368D2
:1028F000062B05D00022054B110003201B689847CA
:10290000043400202C6070BDE8B8000010BF000047
:10291000F7B501931F4B0F001B6816001C68002CB5
:1029200003D02368073B012B05D900221A4B110065
:1029300003201B68984722680023A588072A00D136
:10294000A379ED18ADB22900083189B21348FDF71B
:102950006DFB23000833C5803B6010333360E3799F
:10296000019A2533E31813600200089B08321A60AD
:10297000A388099A1380A3790A9A137022000B9BEB
:1029800025321A60E3790C9A1370024B1B68586069
:102990000020FEBDE8B8000010BF000079C80000AC
:1029A000F7B50600019110482821FDF73FFB0F4DB8
:1029B00004002F683B681B6886800360002E04D1EA
:1029C0002022019906304CF0F7FA3868FDF764FBD5
:1029D0002100FDF74AFB2B681868FDF741FB002238
:1029E0002B681A605A60F7BD79C80000E8B800008B
:1029F000F7B506000091144848210192FDF716FB37
:102A0000124D04002F683B681B6886800360002E0F
:102A10000AD12022009906304CF0CEFA2000202264
:102A2000019926304CF0C8FA3868FDF735FB2100D3
:102A3000FDF71BFB2B681868FDF712FB00222B68C3
:102A40001A605A60F7BDC04679C80000E8B80000B7
:102A5000F7B52D4F0D003B6816001968002904D109
:102A60002A4B0A0003201B6898473B681A681268C3
:102A70000192082A15D810004CF072FA05050505D8
:102A80001C263044440018212148FDF7CFFA0400E9
:102A9000002D04D11022063031004CF08DFA002CAC
:102AA00025D13B681868FDF7DBFA00223B681A6005
:102AB0005A60F7BD28211648FDF7B8FA0400002D2A
:102AC000EDD121220630E7E710211148FDF7AEFADB
:102AD0000400002DE3D108220630DDE708210C4870
:102AE000FDF7A4FA0400002DD9D133788371019B3E
:102AF000A58023603B681868FDF7CEFA2100FDF73A
:102B0000B4FACEE75C68CAE7E8B8000010BF00007E
:102B100079C800000A6870B50B00040000200C2A78
:102B20000ED810004CF01CFA070D13191F252B317D
:102B3000373D605C66000820374A3849FFF786FB5E
:102B400070BD354A36490820FFF787FBF8E7324A5F
:102B500034490820FFF788FBF2E72F4A3249082062
:102B6000FFF789FBECE72C4A30490820FFF78AFB86
:102B7000E6E7294A2E490820FFF78BFBE0E7264AC3
:102B80002C490820FFF78CFBDAE7234A2A49082062
:102B9000FFF7A6FBD4E7204A27490820FFF7A7FB49
:102BA000CEE748212548FDF741FA0024092301001A
:102BB00005000360263184800630FFF7B5FB204E08
:102BC00033681868FDF768FA2900FDF74EFA336894
:102BD0001868FDF745FA33681C605C600020AFE7B9
:102BE0001848FDF7F3FBF9E7174A2431181DFDF7E4
:102BF0000DFCF3E7081DFFF7ABFB210000220C20C2
:102C000000F0B4F80E4C23681868FDF729FA00208C
:102C100023681860586093E7512A03187D2703182A
:102C2000B5270318F1270318292803187528031856
:102C3000B1280318E12803181129031879C80000E6
:102C4000E8B80000F1290318A129031870B508217C
:102C500004000B48FDF7EAF9E5B20100200A80B252
:102C6000022D07D81422E4B25443064B1B681C19EA
:102C70000023236100230D710B60FDF7F6F970BD91
:102C80007AC80000E8B80000F8B50B6807000D002E
:102C9000142B03D0152B2FD00020F8BD082123487A
:102CA000FDF7C4F9224B060018680469002C0BD00C
:102CB000436A002B07D0836B0224002B04D0B0237F
:102CC0000324DB000FE00124142223005343194A9C
:102CD000C118CA603A02083322430A61C018696801
:102CE000FFF77AFB00232A68310038003260B38096
:102CF000B471FDF7BAF9CFE70879022812D80C4B66
:102D00001A681423584314182369002B0AD008307A
:102D10001018FFF7A3FB002222613900286800F099
:102D200025F8B9E7C1225200F7E7C04679C800008C
:102D3000E8B800004D2C031810B50A4C002802D149
:102D400021604C2010BD23681868002801D0FDF7D1
:102D500087F923685868002801D0FDF781F900231E
:102D60002360EEE7E8B800004C20704770B506001D
:102D70000C00064808211500FDF758F9066085800B
:102D800001002000FDF771F970BDC04679C8000050
:102D9000F8B51F4B0D001400984232D11D4F3A6810
:102DA0001668002E2BD12368152B06D8132B1DD89F
:102DB0000C2B0AD9C122520012E01E3B062BF9D877
:102DC00021002800FFF706FC14E014602100280011
:102DD000FFF7A0FE02000120002A0FD03B681E6012
:102DE00029002068FFF7C2FF002007E0210028002B
:102DF000FFF74AFF020000208242F1D1F8BD064AE7
:102E0000EEE7064B0A001B68010002209847EBE73B
:102E100078C80000E8B800008202000010BF00007F
:102E200010B5024B1B685B69984710BDECB80000F9
:102E300010B5041E08D103F027FE00280AD00EF0BA
:102E400085FE012003F01CFD054B20001B681B685C
:102E5000984710BD0DF016FA0028F2D00400F3E7F1
:102E6000ECB8000010B5041E01D103F009FD034BBE
:102E700020001B685B68984710BDC046ECB8000096
:102E800010B5041E08D10120064905F0DFFA00281C
:102E900007D0200003F0F4FC034B20001B685B68A4
:102EA000984710BD652E0318ECB8000010B5002837
:102EB0003AD00368002B37D04368002B34D08368A6
:102EC000002B31D0C368002B2ED00369002B2BD0F0
:102ED0004369002B28D08369002B25D0C369002BC0
:102EE00022D0036A002B1FD0436A002B1CD0836AB8
:102EF000002B19D0C36A002B16D0036B002B13D004
:102F0000002911D00B68002B0ED04B68002B0BD082
:102F10008B68002B08D0CB68002B05D0074B1860BE
:102F20000020074B196010BD0022064B0120110044
:102F30001B689847C1204000F5E7C046ECB8000088
:102F4000F0B8000010BF0000084B10B51B68002B44
:102F500001D1074810BD03F013FE0028F9D102008B
:102F60000100044B05F052FAF4E7C046ECB800004B
:102F700082020000312E0318074B10B51B68002B8E
:102F800001D1064810BD03F0FBFD0028F9D004492B
:102F9000002005F05BFAF5E7ECB8000082020000C3
:102FA000812E031810B50A0000230321FEF76EFEE0
:102FB00010BD10B5FEF748FF10BD13B504AC247862
:102FC000009409F0C5FF16BDF0B585B00AAC0BAD95
:102FD0000CAE0DAF24782D8836783F780296039793
:102FE000019500940AF062F805B0F0BD10B50AF042
:102FF000E3F810BDF7B504000D0016001F0003F044
:10300000BFFD002808D1089B3200009329003B0037
:10301000200000F0D7FEFEBD0048FCE78202000061
:1030200070B504000D0003F0ABFD002805D12900A8
:103030002000034A05F04AF870BD0248FCE7C0468C
:10304000212E03188202000010B505F061F810BDB2
:1030500010B505F025F810BD10B5040003F052F9C5
:103060000100200003F0D6FF10BD10B50CF038FBB6
:1030700010BD13B5049C00940CF03AFB13BD10B5C1
:103080000CF0A0F910BD10B50DF096F910BD10B5FB
:103090000DF024F910BD10B50DF0A6F910BD7FB5E7
:1030A00008AC09AD0AAE24782D78367801950296E1
:1030B000009408F0B1FB04B070BD10B508F018FC26
:1030C00010BD10B508F05AFC10BD10B50AF06CFE2A
:1030D00010BD10B501200AF091FE10BD10B50222FE
:1030E000FF210AF077FC10BD044B10B5984202D8BE
:1030F00000F0CEFA10BD0EF0C7FDFBE759C8000086
:10310000F7B5150000222A4B04001A602A000F00B0
:1031100000F054FC03260330B0433B1819002A008A
:103120002000019305F04EF9019B8019B0431B1854
:1031300019002A002000019305F0FAFD019B801977
:10314000B0431B1819002A00200001930DF074F8F9
:10315000019B8019B0431B1819002A00200001931D
:103160000AF06EFE019B8019B0431B1819002A005B
:10317000200001930EF0F2FB019B8019B0431B1855
:1031800019002A00200001930EF052FD019B8019C6
:10319000B0431E18002C07D12B68DB0304D52A008E
:1031A0003100200000F066FAF71BB8B2FEBDC04641
:1031B000ECB8000070B5050000F053FC04002800D6
:1031C000032605F019F903348019B043B4432418D9
:1031D000280005F06FFD8019B043A4B22418280020
:1031E0000DF04EF88019B043A4B2241828000AF05C
:1031F0003DFE8019B043A4B2241828000EF0A2FBB3
:103200008019B043A4B2241828000EF029FD8019BB
:10321000A4B2B0432B682418A4B2DB0302D5280063
:1032200000F034FA200070BD10B5024B1B689B699A
:10323000984710BDECB8000010B5024B1B68DB6965
:10324000984710BDECB8000010B5024B1B681B6816
:10325000984710BDF0B8000010B5024B1B685B68C2
:10326000984710BDF0B8000010B5024B1B689B6872
:10327000984710BDF0B8000010B5024B1B68DB6822
:10328000984710BDF0B80000F8B50D0002310700F6
:1032900089B209481600FCF7C9FE04002A00310073
:1032A0000770457002304BF087FEFCF7EFFE2100FF
:1032B000FCF7DBFEF8BDC04620C8000010B5024B8D
:1032C0001B681B6A984710BDECB8000010B5024B94
:1032D0001B685B6A984710BDECB8000010B5024B44
:1032E0001B689B6A984710BDECB8000037B50025F5
:1032F00006AC6557024C24680095E46AA04737BDC8
:10330000ECB8000010B5024B1B681B6B984710BD52
:10331000ECB8000010B501F0BDFA10BD10B501F019
:10332000C3FA10BD70B506000D0006480821FCF771
:103330007DFE040006604560FCF7A8FE2100FCF756
:1033400094FE70BD2CC8000070B502210500054830
:10335000FCF76CFE04000580FCF798FE2100FCF7EA
:1033600084FE70BD2BC80000F8B507000E000748AA
:1033700004211500FCF75AFE040007808670C57012
:10338000FCF784FE2100FCF770FEF8BD29C80000A0
:1033900070B5022105000548FCF748FE04000580D1
:1033A000FCF774FE2100FCF760FE70BD28C8000029
:1033B00070B506000D0006480221FCF737FE040038
:1033C00006704570FCF762FE2100FCF74EFE70BDF2
:1033D00046C80000F7B5009308AB1B7807000E0045
:1033E0005BB20621094815000193FCF71FFE04009B
:1033F000009B07800371019B8670C5704371FCF7C9
:1034000045FE2100FCF731FEF7BDC0463CC8000078
:1034100070B506000D0006480421FCF707FE040005
:1034200006804580FCF732FE2100FCF71EFE70BDD1
:103430003DC80000F8B507000E000748042115003C
:10344000FCF7F4FD0400C77006808570FCF71EFED3
:103450002100FCF70AFEF8BD16C8000010B50021D7
:103460000448FCF7E3FD0400FCF710FE2100FCF724
:10347000FCFD10BD15C8000070B501210500054810
:10348000FCF7D4FD04000570FCF700FE2100FCF7FA
:10349000ECFD70BD1EC8000070B501210500054897
:1034A000FCF7C4FD04000570FCF7F0FD2100FCF7FB
:1034B000DCFD70BD14C8000070B506000C000648A5
:1034C00008211500FCF7B2FD066085800100200090
:1034D000FCF7CBFD70BDC04601C8000010B504006C
:1034E000FCF7D4FD220001005020FFF7E5FF10BDDE
:1034F00010B50400FCF7CAFD220001000120FFF70F
:10350000DBFF10BD10B50400FCF7C0FD2200010078
:103510000020FFF7D1FF10BDF8B507000E000748E7
:1035200004211500FCF782FD0400077046804570F9
:10353000FCF7ACFD2100FCF798FDF8BD35C8000094
:1035400010B500210448FCF771FD0400FCF79EFD56
:103550002100FCF78AFD10BD33C8000070B50600DD
:103560000D0006480421FCF761FD0400067045804B
:10357000FCF78CFD2100FCF778FD70BD32C800001F
:10358000F8B505000E0008480C211700FCF74EFDA9
:1035900004000570476006812800FFF7BFFE210088
:1035A000FCF763FDF8BDC0460EC8000070B505000D
:1035B0000E0007480821FCF739FD0400057046603D
:1035C0002800FFF7ABFE2100FCF74FFD70BDC046A1
:1035D0000AC80000F7B505000F000A4804211600CC
:1035E0000193FCF723FD0400019B057043804770A5
:1035F0002800FFF793FE2100FCF737FD3000FFF7AE
:10360000D8FCF7BD0DC80000F0B587B002930CAB35
:103610001B88019103930DAB1B7816005BB20493DA
:103620000EAB1B78050005931789938839000C3180
:1036300089B20F483436F618FCF7F8FC0400029BF8
:103640003A004370049B31008370059B0570C37082
:10365000019B47814360039B03810C304BF0ACFC22
:103660002800FFF75BFE2100FCF7FFFC07B0F0BD70
:103670000CC8000010B503490348FFF717FC0020F1
:1036800010BDC0469C3903186839031800207047E4
:10369000F0B5AD4B0D00140087B0984200D146E163
:1036A00011D8AA4B984200D135E1A94B984200D1DC
:1036B00037E11F3B984216D0A64B01002A0002209A
:1036C0001B68984786E0A44B984200D138E1A34B91
:1036D0009842F1D120786178431E98410232C0B2FD
:1036E000FFF7D5FC76E0106846285ED83B280FD857
:1036F000152800D1A8E047D8042800D170E017D8D9
:10370000002863D0012800D167E0A822120138E028
:103710003C380A28F9D84BF02DFCD800E500EB0026
:10372000F8FFF8FFF8FFF8FFF8FFF8FFF8FFFA00DE
:103730001428EAD1BE2392895B009A4200D3ADE0FF
:103740000023032105A8FEF7A1FA061E18D1059B48
:10375000210018009B8834300E31A289C0184BF02C
:103760002BFCA3796279591E8B4120790093A168C3
:10377000059BFFF722FC061E02D00598FFF719FCF7
:1037800032002900206855E0282800D189E032283D
:1037900000D195E01E28B8D11300A179D279A08874
:1037A0000833FFF762FC0022EBE750380B28ACD857
:1037B0004BF0E0FB34003B004300ABFFABFFABFF43
:1037C000ABFFABFFABFFABFFA200A700FFF7BCFB5B
:1037D000021ED6D1002007B0F0BDFFF7CDFBF7E702
:1037E00005AF527A217A00975D4B6068FFF702FCC3
:1037F0000600021EC5D108215A48FCF717FC040038
:1038000029003878FFF786FD042321002360A68075
:103810003B78A3712800FCF728FCDBE721006368F4
:10382000083198B2FFF7FCFBD2E7FFF70DFC290047
:1038300002005120FFF740FECCE76068FFF708FC6C
:10384000290002005220F5E7BE23128A5B009A424B
:1038500024D20023032105A8FEF718FA061E00D083
:103860008EE7059B210018009B8834301231228A94
:10387000C0184BF0A1FBA37BA279591E8B41207984
:103880000393E379591E8B410293A38901936379D2
:103890000093A168059BFFF797FB6CE7C1267600B4
:1038A0006EE748212F48FCF7C1FB010023680600A2
:1038B000036026310630FFF7EEFB3100B080A9E748
:1038C0001079FFF7C9FB02005BE7617C937B92896B
:1038D0000291217C0191E17B0091A1686068FFF772
:1038E000DEFBF0E7FFF7E9FB290002003D20A1E73E
:1038F0009088FFF7E6FBE6E7217A6068FFF7E5FBD3
:10390000E1E7FFF7E6FB290002005B2092E7107970
:10391000FFF7E4FBD7E7528820786168FFF766FB82
:1039200058E7617820780232FFF7A9FB52E76188F7
:1039300020780634537912790094FFF79AFB49E70F
:103940001000FFF7A0FB45E72AC800000BC80000E5
:103950001FC8000010BF000034C8000036C80000B7
:10396000AC39031801C8000005350318F1340318F9
:103970005D3503184135031819350318DD34031874
:1039800099340318793403185D3403183534031857
:1039900011340318D5330318B133031891330318C6
:1039A00069330318493303182533031809360318FC
:1039B000D5350318AD35031881350318F7B5150053
:1039C00004000F0002F036FE03260330B0433B181C
:1039D0002A0019002000019300F0A8F9019B80192A
:1039E000B0431B182A0019002000019302F00AFFBF
:1039F000019B8019B0431B182A0019002000019375
:103A000004F014FB019B8019B0431B182A00190015
:103A10002000019303F07EFA019B8019B0431B182C
:103A20002A0019002000019303F01AFC019B801961
:103A3000B0431B182A0019002000019303F096FCE4
:103A4000019B8019B0431B182A0019002000019324
:103A500003F09AFD019B8019B0431818C01B80B277
:103A6000FEBD70B5050001F0EFFB04002800032641
:103A700000F076F903348019B043B44324182800C9
:103A800002F0F0FE8019B043A4B22418280004F01C
:103A900005FB8019B043A4B22418280003F04AFAA9
:103AA0008019B043A4B22418280003F0F1FB801958
:103AB000B043A4B22418280003F074FC8019B0436A
:103AC000A4B22418280003F071FD8019B043A4B2F9
:103AD000201880B270BD70B50400008A012805D19D
:103AE000608B411A481E814188B270BD0028FCD00D
:103AF0000023451EADB2EA1A52109A1892B216006F
:103B00000C367600A61976888E4217D0AB42ECD0E0
:103B10008E4211D315005A1C9542ECD10B32520043
:103B2000A21852888A420BD00D335B00E4186388D8
:103B30008B42DAD12800D8E71300ECE71000D4E775
:103B40001800D2E7184B10B51A68A8239B00D2586A
:103B5000131E21D0002311899CB28B4210D3002365
:103B60008C4219D153898B421BD90124CBB29B00C3
:103B7000D31898819C7309191368118198470AE03A
:103B80009C1CA4001419A488844207D19B00D3185C
:103B90009A7B01329A730023180010BD0133DBB207
:103BA000DAE7B023DB00F7E7F4B800001C4B70B590
:103BB0001A68A8239B00D4580600002C2BD000289C
:103BC00026D0002521898D4225D2AB1C9B00E3180D
:103BD0009B88B34220D1AA00A218937B013BDBB2A1
:103BE0009373002B17D163683000984722896B1CB0
:103BF000934209DAE91C521B0C2589006018043134
:103C00006A4361184BF0D8F92389013B238102E014
:103C100063689847268170BD0135EDB2D3E7C04691
:103C2000F4B80000142310B558430D4C236818183D
:103C30000C4BC2181378002B10D0013BDBB2137071
:103C4000002B0BD1A9239B00C0180088FFF7AEFF03
:103C5000C222216892008B5C013B8B5410BDC04690
:103C6000F4B80000B6020000F8B5060000241027E2
:103C70000A4B1D680A4BED182B7C002B06D03A002E
:103C8000310028004BF08AF9002805D00134E4B255
:103C90001435052CF0D1FA342000F8BDF4B800003A
:103CA000A6020000F7B5060008000D00FFF7DCFFD4
:103CB0001B4B1C68FF2808D014234343E418194BFE
:103CC000E418237801332370FEBDC2239B00E35C1C
:103CD000042BF9D80022134BE118D3B2019314231B
:103CE0005343CF5C002F03D00132052AF5D1EBE717
:103CF000A921E218890051180E800A4952180121A1
:103D00001170094A29009818201810224BF054F914
:103D1000C2229200A35C01980133A354D4E7C046A9
:103D2000F4B80000B6020000A602000010B50A4C6C
:103D3000002806D10122094B2160CA54C42080000A
:103D400010BDA82322689B00D058002801D0FCF7A2
:103D5000ABF900232360F1E7F4B800000A03000088
:103D6000C420800070470000024B1A68024BD05CF0
:103D70007047C046F4B8000009030000F7B50F4BC8
:103D80001D680F4B2C00EB5C01930023019E9E42AB
:103D900002D1A02080000CE0C326277EB600BC46DE
:103DA000AE5B6644864205D126688E4202D1002071
:103DB0001370FEBD0133DBB23034E7E7F4B8000026
:103DC00009030000F7B506000D0000920193002BD7
:103DD00035D01C4B1C4F1C68E35D0D2B01D91B48D3
:103DE000FEBDC3239B00E05A089A401880B2310000
:103DF000FFF7C4FFA0239B009842F0D1E15D089B30
:103E0000009819703023E25D4B430132E2550022E5
:103E1000E3181A82019A00995A6001221D761E60E9
:103E20001140104208D19975094B0020E25CAA426A
:103E3000D6D80135E554D3E702229A75F4E7C120BC
:103E40004000CDE7F4B80000090300008202000042
:103E50000A030000024B1A68302343439858704706
:103E6000F4B800000A4A030012680A48105C98423D
:103E70000AD9302058431018037EC3208000125AFC
:103E800000209B180B807047A0208000FBE7C046F5
:103E9000F4B8000009030000074B084A1B689A5C4D
:103EA000824206D9302250431B1800205B680B6009
:103EB0007047A0208000FBE7F4B800000903000071
:103EC000F0B587B001930CAB1B78059202930DAB54
:103ED0001F780EAB1B78060003930FAB1B780D0009
:103EE0000493334B1C6830234343E3189A7D9107B6
:103EF0005AD5D20706D51A89920B022A02D1D87B4D
:103F0000FFF790FEAB0B022B0BD128000599FFF7B2
:103F1000C9FE30237343E318D873FF280DD1B020B6
:103F200043E03023FF227343E318DA73002D04D1FA
:103F30002F00049503950295019230227243A21836
:103F40005368DB68002B17D0917DC90705D511890F
:103F5000A94202D1127BBA420ED03F22B9090139DF
:103F6000C9B264203A40022902D812488900085890
:103F7000424329003000984730237343E418019BE3
:103F8000A27DA372029B0420E372049B3100A37301
:103F9000039B25816373012313432773A37504F0E7
:103FA000BDF8002007B0F0BDF020C000FAE7C04621
:103FB000F4B80000BC48031830B504001348056885
:103FC0001348285CA0421AD9302044432D19AC7DF7
:103FD000E443A00716D100202C890C80E97B1170E6
:103FE000AA7A1A70EB7A039A1370AB7B069A137055
:103FF0002B7B049A13706B7B059A137030BDA02045
:104000008000FBE7F020C000F8E7C046F4B80000ED
:1040100009030000F7B530273C4B47431B680500F8
:10402000DF193C8A00937B8A0E001B19092B00DDE7
:1040300069E03800FFF74FFD030000209C4228D8BC
:10404000012C27D1788BB04280414042844209D074
:1040500018236B43013CA4B2009A1B195B00D318D0
:10406000844248D218236B4318180C30009B400040
:10407000181830236B43009A4680D3181A8A3000F0
:1040800001321A82FFF75EFD0520290004F046F890
:104090000020FEBD002CE5D018231F009C466F4376
:1040A000621E92B20197131A5B100199C3189BB25A
:1040B000C918009F0C31490079184988B14218D3BA
:1040C0001A00431C9A42EED163466B431918009FB5
:1040D0000C31490079184988B142B7D89B180C3384
:1040E0005B00FB185B881000B342AFD8013080B290
:1040F000ACE71800E5E75A8B023BDA83002CB1D01D
:10410000013CA4B2ACE7B020C000C2E7F4B80000A4
:104110002B4BF7B51D6830234343EB185F8A1B8A8E
:104120000400DB1916000191092B02DDB020C0004C
:10413000FEBD1000FFF798FD03008446FF281DD147
:1041400031000198FFF7AEFD0300FF28EED03020CC
:1041500060432818428A013291B218226243521AEF
:1041600016325200AD1841826B800198FFF7EAFCCD
:104170000520210003F0D2FF0020D9E786B21820E5
:104180000A226043D71BBFB2013A974209D9614660
:1041900014224A430B49AA185218117801311170A0
:1041A000D5E781180C31490069184988B14202D01D
:1041B000013A92B2E9E700200A2AB9D1E7E7C046FE
:1041C000F4B80000B6020000F8B53024144B4443A4
:1041D0001F6805003C1920000E00FFF77CFC238AB5
:1041E00083420FD918226A432100238A1031013BF0
:1041F000984208DB30000B80FFF7D8FC290005202F
:1042000003F08CFFF8BD131819000D31490079181F
:104210000C3349885B00FB180130598080B2E3E71A
:10422000F4B80000F7B5284B050008001F6801929C
:10423000FFF71AFD0023019A1380FF280CD01822E3
:104240000A26092430336B43FB185B8A6A43F61A4B
:10425000B6B281B2A64200D9F7BD13190C335B0088
:10426000FB185B888B4202D0013CA4B2F2E70A2C17
:10427000F2D01423A92243439200FB189B181B88F9
:10428000019A1380FFF7CEFCA6420AD330236B437A
:10429000FF187B8A2900013B05207B8203F03EFF4B
:1042A000DAE718226A43013CE4B2B442EED31319B0
:1042B00019000C31490079180D3349885B00FB184F
:1042C000013C5980E4B2F0E7F4B80000154BF7B5B3
:1042D0001E6830230A224343F318598A0400521AF5
:1042E00092B201920022092518271A82019B9D4251
:1042F0000BD2302300206343F6187082FFF756FC80
:104300002100052003F00AFFF7BD3B0063435B1962
:104310000C335B00F3189878013DFFF783FCEDB296
:10432000E4E7C046F4B800003022044B42431B6867
:104330009B18188A5B8AC01880B27047F4B80000D6
:104340003022034B42431B689B18588A7047C04673
:10435000F4B80000F7B50C003021070041431820E5
:10436000009200221F4B78431E6871180B8A9342FB
:104370000AD8302300257B43F31812330193019BA5
:104380001B88AB420CD8F7BD83180C335B00F318C5
:104390005B88013223701B0A637092B20234E5E736
:1043A00009235A1B0F3314217B439B18A9220C337A
:1043B0005B00F3189B789200594373189B181B8875
:1043C00023701B0A6370009B0234002B06D0064B3F
:1043D0001022C918200071184AF0EEFD0135ADB267
:1043E000CDE7C046F4B80000A602000070B5244B2B
:1043F00004001D68234B0020EB5CA3421DD90BB2C7
:1044000083420CDBC3239B00E85A30235C432D1905
:104410002B7EC018401A41424841C0B20DE08B0BC0
:104420009E03032B0AD1302044432D192800FFF7A7
:1044300052FB2B8A98428041404270BD80231B0270
:104440009E42FAD130236343EB18598A0A2318207D
:104450005B1A9EB20923444392B29E4205D90A23B5
:10446000D8B20A38431E9841D7E7E1180C31490009
:10447000691849889142F3D0013B9BB2EDE7C046F1
:10448000F4B8000009030000104BF0B51D68A92323
:10449000060000279B00EC18A37CF8B2002B06D086
:1044A0002388B34203D1002907D00139C9B20137AB
:1044B0001434052FF0D1FF20F0BD002AFCD01423C6
:1044C0007B4303495B18EB181360F5E7F4B8000071
:1044D000A60200003022074B42431B6801009B18D4
:1044E00010B5002B05D0DA7D06200132DA7503F015
:1044F00015FE10BDF4B800007FB5174B04001D6811
:1045000030234343EB180E00002B24D0D97D002923
:1045100004D1124B0A0003201B68984730236343E1
:10452000EB181A89002A0CD09B7AB34209D10021DA
:10453000FF230A0020000391029101910091FFF7EF
:10454000BFFC30236343ED18EB7D2100013B0620C7
:10455000EB7503F0E3FD7FBDF4B8000010BF000071
:104560003022034B42431B689B18D87D7047C046DE
:10457000F4B800003022094B42431B6864209B18AA
:104580003F221B7B1A409B09013BDBB2022B02D866
:1045900003499B00585850437047C046F4B8000088
:1045A000BC480318054B10B51A68C3239B00D052B2
:1045B0000021072003F0B2FD10BDC046F4B8000092
:1045C000024B1A68C3239B00D05A7047F4B800000E
:1045D000094B10B51A68C3239B00D15A00238142AE
:1045E00007D8064C125D52180121904200DB1900D9
:1045F0000B000120184010BDF4B800000A030000B1
:1046000014234343024A9B18024A1068C01870479B
:10461000A6020000F4B80000024B1A68024BD05CFE
:104620007047C046F4B800000A0300000023F0B54C
:104630003026104C104F24680B701370E55D9D42BE
:1046400000D8F0BDFF2805D035005D4365192D7EEB
:10465000854207D135005D432D592D0C05D01578C5
:10466000013515700133DBB2E8E70D7801350D70C7
:10467000F8E7C046F4B8000009030000144BF0B599
:104680001D68302300249C46124BEB5CA34200D8EB
:10469000F0BD63466343EE18367E86420BD15B590C
:1046A0001E0C3704002A09D1002F04D10B709BB2D5
:1046B0001B0A4B7002310134E4B2E5E7002FFAD057
:1046C0000B701F0A1B0E4F708E70CB700431F2E717
:1046D000F4B8000009030000F0B5A827354EBF006C
:1046E000336885B0DC59019002910392002C03D00D
:1046F0000027380005B0F0BD019BD81C8000FBF7F7
:10470000CEFC051E52D03368D851019B04814381F1
:10471000029B0360039B436033680293029A264B1B
:10472000D35CA34201D800271BE000230193303360
:104730006343029AD3180393039B019A1B8A934203
:1047400002D80134E4B2E7E718236343019A9B18C7
:104750000C33029A5B00D3185888FFF7F3F9071E51
:1047600011D00024C222336892009A5CA2420FD872
:10477000002FBDD02800FBF797FCA823002132684A
:104780009B00D150B5E7019B0133DBB20193D3E726
:10479000142262439B18A92292009B181888FFF7E5
:1047A000D1F9071EE6D10134E4B2DBE7B027FF0000
:1047B0009FE7C046F4B800000903000070B5A824C4
:1047C000054DA4002B681859002804D0FBF76CFC99
:1047D00000222B681A5170BDF4B80000064B1A680D
:1047E000A8239B00D358002B03D01B890370002003
:1047F00070470248FCE7C046F4B80000820200009F
:104800000F4B10B51A68A8239B00D1580022914283
:1048100010D10C4810BD931C9B00CB189C88013212
:104820002302240A23431BB203709BB21B0A43706A
:10483000D2B202300B899342EDD80020EAE7C0469D
:10484000F4B80000820200007FB505000024302685
:104850000E4B0F4A1B689A5CA24200D87FBD320003
:1048600062439B181A89002A0CD09B7AAB4209D16B
:104870000021FF230A002000039102910191009181
:10488000FFF71EFB0134E4B2E2E7C046F4B80000D3
:10489000090300003022034B42431B689B18998296
:1048A0007047C046F4B800003022034B42431B68F7
:1048B0009B18988A7047C046F4B80000E8030000CF
:1048C00010270000C027090010B5DA24064B640049
:1048D0001B6818559965BA21DA650822FF31585CC2
:1048E00002435A5410BDC046F8B80000BA2110B5B2
:1048F0000824074BFF311B685A5CA2435A5400221C
:104900009A65DA6D002A02D00539595C904710BDCE
:10491000F8B80000F0B5B6250F4BFF351E68745D82
:104920002200230039325200B218002B09D15B005B
:10493000F3181A00013474327533117018707455FD
:10494000F0BD1778023A8F42F1D91771D778013B41
:104950005771DBB2E9E7C046F8B80000F7B51F4E63
:1049600001003068B62504000023FF35425D753430
:1049700000959A4203D11300541E019415E00234AD
:10498000A71E3F788F42F7D00133DBB2F1E77625DF
:10499000AC460419A444654627002D7874373D7051
:1049A0007734247801337C70DBB2019D5C00AB422C
:1049B000EDDB002A03D10A4B03201B6898473368BC
:1049C00000221C192100753474310A702270009A7B
:1049D00000999A5C013A5A54F7BDC046F8B80000F5
:1049E00010BF0000174BF7B51C68DD2301925B0078
:1049F000E656E55AB83BFF3B73431C33FF33E318DD
:104A000072B23700002A12DC03237B43E3181E0036
:104A1000FF36F1771900019A20312133FF31FF333E
:104A200008701A70DD2301355B00E552F7BD1A7876
:104A3000013E033B8A42E7D91F799A71DF715F79A2
:104A40001F72DDE7F8B80000254BF0B51C68DD23C8
:104A50005B0005000326E05A0023834202DB0322A9
:104A600001382BE032005A43A21817002037FF37D5
:104A70003F78AF4204D12132FF3212788A42EED021
:104A800001335BB2E9E711005D1C694361180E0058
:104A90005343FF36E318F77F1E00FF36F7770E000B
:104AA0002036FF3637781E002036FF36213137702A
:104AB000FF3109782133FF3319706BB28342E2DB97
:104AC0005343E31819000022FF312133CA77FF3323
:104AD00020310A701A70DD235B00E052F0BDC04641
:104AE000F8B80000174BF7B51C68DB2301915B0099
:104AF000E656E55CB43BFF3B73438533E31877B27E
:104B0000002F10DC03237343E3181E008936327034
:104B10001A0088321070019A8A331A70DB2301352B
:104B20005B00E554F7BD1F78874203D8EAD1597876
:104B30009142E7D95978DF709F7819715F71013E12
:104B4000033BDCE7F8B80000284BF7B51D68DB2312
:104B5000002403265B00EA5C944202DB531E0193AF
:104B600028E033006343EB181F0088373F78874203
:104B700003D18A331B788B42F0D0013464B2EBE767
:104B800003210323661C4C4386318C467343EB1888
:104B90001F002C19A444614689373F780F701F000D
:104BA000883739782700883739708A331B788A34F8
:104BB000237074B2019B9C42E2DB002A04D10C4BAF
:104BC00001001B680320984703235C432C19220033
:104BD000002389321370013A1370DB228A34237068
:104BE0005200AB5C013BAB54F7BDC046F8B80000C7
:104BF00010BF0000F7B50193264B00921D68DE231D
:104C00005B00EB5C0F0018339B005C59002C39D023
:104C1000631DDE7FDB7F5BB2002B30DA6A6D002A1A
:104C200004D11D4B310003201B6898477F236A6D18
:104C30001E40B600B358002B24D06289A11DCA774C
:104C4000E11D120ACA7722890131CA772031120A7E
:104C50000A70E28802334A70120A8A70A288002021
:104C6000CA70120A0A71220001212D3211703B60B4
:104C7000009B25341C600923019A1370FEBDB60009
:104C80007359D8E70022044B032011001B68984792
:104C90000248F3E7F8B8000010BF000082020000ED
:104CA00007480068806D002807D002300860054979
:104CB0000020116001221A7070470348FCE7C046CB
:104CC000F8B80000D267031882020000054B1B6889
:104CD0009B6D002B03D0002002330B60704702480D
:104CE000FCE7C046F8B800008202000010B5FFF7EC
:104CF000EDFF10BDF0B56E4B85B01C6817000B1EA4
:104D000002917CD1BD33FF33E35C18339B001D5906
:104D1000002D74D06B1DD97F7F230B400393013B83
:104D2000DBB201934BB2002B3DDA2B6A002B04D18E
:104D3000604B03201B68029A9847019B2A6A9B00DC
:104D40009E58002E06D16B1DD97F5A4B320003208E
:104D50001B68984730003900102210304AF02CF9B7
:104D6000390010223000103101374AF025F9F97F5F
:104D7000DE270136F1777F006E1DE25DF07FFFF7E1
:104D800031FEA36D002B5ED0E35D0133E355E35D9F
:104D9000042B0ED9DE235B00E35C052B32D1029895
:104DA000FFF7A4FD2EE0019B02339B00EB185E6829
:104DB000C7E71A00183292001659002EE5D0DA2300
:104DC0007F255B00E35C721D1D40013DEDB2D37792
:104DD0005BB2AD00002B17DB7519EB68002B05D01B
:104DE0000022344B110003201B6898472120FBF759
:104DF00056F9E8600420304A3049FDF743FAA36DC4
:104E0000002BC7D105B0F0BD376A002F07D118209D
:104E1000FBF745F91822390030624AF0E9F8336AA5
:104E20005B59002B05D00022224B110003201B6888
:104E300098472120376AFBF732F9326A7851137D9F
:104E400001331375D6E71F23F356F27F002B0CDBDB
:104E5000296A00290CD0019B9B005B58002B07D0CE
:104E600080235B421A43F277C4E77F231A40F2772C
:104E70002900039A0C31D3B2042B10D9052BB9D1D8
:104E8000BA220821FA33F377FF32A35C8B43A35491
:104E9000DE235B00E05C00212B689847AFE79000C1
:104EA00008580133DBB201320028E4D0F377A1E7E0
:104EB000F8B8000010BF0000F54C0318F54B0318BC
:104EC000F0B5A44B85B01F681600BC6D0091002C96
:104ED0002DD0DA235B00FD5C23780193012B06D0F3
:104EE000022B00D1F4E0C1235B00009376E06078F0
:104EF00003380328F7D84AF033F8021C283620007C
:104F00003100102222304AF057F8310020001022E0
:104F1000103112304AF050F8230004200136F27F9D
:104F200042331A708C498D4A6070FDF7A4F905B0C0
:104F3000F0BD20001022310045304AF03DF8052335
:104F40000420864A84496370EFE720003100102274
:104F500032304AF031F80623804A814963700420D8
:104F6000FDF797F9E3E720000822310058304AF0B6
:104F700023F82300423319782800FFF7CBFC6BB2EB
:104F800003932300563302936BB2002B2ADB0023DA
:104F9000DC226370AB00DC515200BB5C0133BB54BC
:104FA000029B1B88002B05D1BA22FF32B95C023369
:104FB0000B43BB54012128000CF038FD29000020D0
:104FC00003F0ACF8DD235B00FB5A002B06D0DE2299
:104FD00000235200BB54BB5C042B31D90098FFF76F
:104FE00085FCA4E77F231D40AB00DE597B6D019358
:104FF000002B07D15820FBF752F858220199786509
:1050000049F0F6FF330056331B88029A00201380C4
:10501000330060331A78230060331A700123607004
:105020007370330044331A78230044331A707B6D55
:10503000AA00D45054331A78290001321A70BFE7FD
:10504000190018318900CC59002C3FD0DA237F2574
:105050005B00FB5C621D1D40013DD377039BEDB2FD
:10506000AD00002B13DB6419E368002B05D0002290
:105070003C4B110003201B6898472120FBF70FF8D9
:10508000E060394A39490420FDF7FCF84FE7266A09
:10509000002E07D11820FBF702F8182231002062F9
:1050A00049F0A6FF236A5B59002B05D000222D4B47
:1050B000110003201B6898472120266AFAF7EFFFAA
:1050C000226A7051137D01331375DAE7013381E7EA
:1050D0006378072B00D006E70023127863706BB269
:1050E000E274002B15DBAB00DC51A07D8300DB59A3
:1050F00060331978013119702900FFF7F3FCA18A98
:105100002A000120FEF7E2F82900022003F006F849
:1051100064E77F262E40B3000193DB599A8AA2826E
:105120009A7DA2759B7CA374796D002904D10D4BE7
:105130000A0001201B6898477B6DB2009C505433D5
:105140001A78290001321A70E27CA07DFFF7CAFCB0
:105150003100DAE7F8B8000071510318C14E0318A6
:10516000CD4C031810BF0000F54C0318F54B031885
:10517000114810B50068806D00281BD0841C146095
:1051800010221A70029B0D4A1A600623039A1370AC
:105190004378042B08D0052B0AD00022084B1100BD
:1051A00003201B68984701E0064B0B60002010BDF0
:1051B000054BFAE70548FAE7F8B80000CC67031892
:1051C00010BF0000BC670318AC6703188202000020
:1051D00070B57F2505406C1EE4B2042C2DD8184E06
:1051E000AD003668AD59002D1AD0183189008959A3
:1051F000002915D000261660B34213D06B78022B1D
:1052000005D10B6AB34202D0A400E35803E0023494
:10521000A40009194B68002013601368834200D171
:10522000084870BD40B2002802DA0B6A002BEBD1AF
:105230000234A4000C196368EDE79020C000F0E789
:10524000F8B8000082060000E0204000704700002F
:10525000F8B50D4B06001F683C68002C11D11320D7
:10526000FAF71DFF102205003100023049F0A4FEBC
:1052700007212C7008006C703D6002F04FFF200089
:10528000F8BDF8200001FBE7F8B80000054B10B5A9
:105290001C682068002803D0FAF706FF002323606B
:1052A00010BDC046F8B80000044B1B681B68002BFB
:1052B00002D00360002070470148FCE7F8B8000006
:1052C00082060000F7B501932D4B00921A68BA23AD
:1052D000FF330E00D15C07000B074AD40123FF25E2
:1052E00098001058DCB2002812D0040056342488EC
:1052F000BC4210D131001022023049F04FFE46422C
:105300007041D0231F4E40423040DB00C018FEBD2C
:10531000FF2D00D125000133062BE1D14B0704D529
:10532000DC235B00D35C012B26D0FF2D24D0622030
:10533000FAF7B5FE01230400310003701022023099
:1053400049F03AFE23000026009A56339E721F80D1
:10535000133B1A705E70032321002800019A6370CA
:10536000FFF7B2FA0420084A0849FCF78BFF300027
:10537000CDE784204001CAE7B020C000C7E7C0469F
:10538000F8B8000002060000C14E0318A14C031833
:10539000344BF7B51C68BA23FF33E25C0500019378
:1053A000130756D47F200540AB00E7183E680093F2
:1053B000002E50D03378012B4DD1B833FF33E35C4E
:1053C000012B01D1002949D0330060331B780093B1
:1053D000002B43D12800FFF7C1FA2900012002F079
:1053E0009DFE3000FAF760FEDC22009B52003B601D
:1053F000A35C5636013BA3543388002B06D1019B96
:10540000B73AE35CFF3A9343019AA354636D002BD0
:1054100019D0AA009E58002E15D080202843FFF7EF
:105420009DFA3000FAF740FE0023606DAA00835019
:10543000030054331E78013EF6B21E70002E02D1D6
:10544000FAF732FE6665280000210CF0EFFA002022
:10545000FEBD0548FCE79020C000F9E7C820000128
:10546000F6E7C046F8B8000082020000F0B57F24DD
:10547000044085B0631E0D000392042B56D82D4BBB
:105480001E68BA23FF33F35C1B074DD4A700B8593D
:1054900000284BD003780293012B47D14378019326
:1054A000002B21D0012B1CD1726D002A04D1224B7C
:1054B000210003201B689847736DDA59002A04D134
:1054C0001D4B210003201B689847736D1022D8598B
:1054D0002900023049F062FD002802D1174805B0CA
:1054E000F0BDB8200001FAE71022023049F056FD65
:1054F0000028F3D06220FAF7D2FD029B0600037069
:1055000010222900023049F057FD0323802031008A
:10551000039A73702043FFF7D7F90420084A09491A
:10552000FCF7B0FE0198DAE70748D8E79020C00002
:10553000D5E7C046F8B8000010BF0000820C00009C
:10554000C14E0318A14C0318820200007F210140C4
:105550004B1E10B5042B16D8BA220F4BFF321B6816
:10556000985CB23A0400FF3A144010420ED18A000F
:10557000D3585A78012A0BD1013220005A7002F018
:10558000CDFD200010BD9020C000FBE70348F9E7E7
:10559000B8200001F6E7C046F8B80000820200001B
:1055A000F0B57F260640731E87B0DBB20493042B50
:1055B00000D9BFE0634B1C68BA23FF33E25CB23B07
:1055C0001100FF3B19401A4200D0B6E0636D002B7A
:1055D00000D1B4E0B200A0180590006801904078B6
:1055E000022800D0ABE0D3580393019B597060337D
:1055F0001B78002B33D00625AF00E3590293002B14
:105600002AD09B7DB34227D13000E9B2FFF79CFA44
:10561000636DFB58002B15D08021029AE351927CD8
:1056200049429A74EBB219433000C9B2FFF78CFAC1
:105630000298FAF739FD0022636DFA5054331A7854
:10564000013A1A70E3593000E9B2DA7CFFF74AFAFE
:105650002900022002F062FD0135142DCCD1002575
:10566000039A059B30001A605570FFF777F9802385
:10567000334318000593FFF771F9039B3000423361
:105680001978FFF747F90198FAF70EFD606DB3003E
:105690001D50030054331D78013DEDB21D70002DE7
:1056A00002D1FAF701FD6565002301936B461B7972
:1056B0000293244B1A68019B18339B009C58002CC2
:1056C0002CD0236A002B29D0049A95006719FA6818
:1056D000002A23D0EB58002B20D030000299FFF78E
:1056E000B3F902990598FFF7AFF9F868FAF7DCFC0F
:1056F0000021226A300055192B68FB602960117D5A
:10570000013301391175D97F029AFFF76BF9206ACD
:10571000057D002D02D1FAF7C7FC2562019B0133FC
:105720000193052BC2D10020310002F0F7FC0020CC
:1057300007B0F0BD9020C000FAE70348F8E7B820B2
:105740000001F5E7F8B80000820200000A4B30B50E
:105750001C6801239A00A258DDB2002A06D05632F6
:105760001288824202D100200D7030BD0133062B19
:10577000F0D19020C000F8E7F8B80000124B30B527
:105780001C68DC235B00E35C002B19D07F220378CC
:1057900013405A1E042A00D90123012503700378FF
:1057A0009A001259002A04D0081E01D000200A6075
:1057B00030BD0133DBB20370052BF0D90570EEE785
:1057C0009020C000F4E7C046F8B800007F230340F3
:1057D00070B50D0011005A1E042A23D8144A9B00EC
:1057E00012689C58002C20D06678002E13D0002917
:1057F0000BD0022E0CD1526D9C58002C08D10D4BB1
:1058000002001B680320984702E046B2002EF2DB3C
:1058100000202C6070BD0029FAD140B20028F7DAD0
:105820000548F7E7C1204000F4E79020C000F1E709
:10583000F8B8000010BF000082060000154BF0B55C
:105840001C68182300259C46DC272A000126211D00
:10585000A4447F000B68002B11D056331B883242C2
:1058600016D01B032B431D0A4570002503701B0C2B
:10587000837003300132E35DD2B2934202D004312F
:105880008C45E7D1D30702D52B0A05704370F0BDD4
:105890001D00EFE7F8B80000124A0B001168B622AD
:1058A00030B5FF328D5C04000022AA4208DA1000F5
:1058B0003830400008180079A04201D00FD96AB2F0
:1058C0009B185BB2FF209D4208DD5B00C9180B00EE
:1058D00074331B78A34201D17531087830BD013291
:1058E00052B2E2E7F8B800007F22064B10401B6876
:1058F0008000C358181E04D05633188843425841BC
:10590000C0B27047F8B80000F7B501932A4B0E00FB
:105910001968BA230090FF33CB5C1B0744D47F2760
:105920000623FF25174098000858DAB2002815D042
:10593000828A009CA24214D17F22837D1340BB4205
:1059400034D1310002306F3A49F028FB43425841CC
:105950001A4B404218407E33C018FEBDFF2D00D1C7
:1059600015000133152BDED1FF2D22D01820FAF7B8
:1059700096FB02230400310003701022C01849F086
:105980001BFB009B0026A382072321002800019A0D
:105990006370A775A674FEF797FF0420084A0949AB
:1059A000FCF77EFC3000D8E70748D6E79020C0001F
:1059B000D3E7B020FBE7C046F8B8000002060000BD
:1059C000C14E0318ED4C031882020000534BF0B592
:1059D0001F68BA23FF33FA5CB23B1400FF3B87B069
