:04000005180368383C
:020000041800E2
:100000003C3CA5A5C3C35A5A02000000FFFFFFFFF6
:0C001000FFFFFFFF00100018200D000093
:0600200020200503501032
:1010000000C00000791B0018A11B0018451900182A
:1010100000000000000000000000000000000000D0
:10102000000000000000000000000000A51B0018E8
:101030000000000000000000A11B0018A11B001808
:10104000A11B0018A11B0018A11B001831080000EB
:10105000A11B0018A11B0018A11B0018A11B001840
:10106000A11B0018A11B0018A11B0018A11B001830
:10107000A11B001831080000A11B0018A11B0018BB
:10108000A11B0018A11B0018A11B001831080000AB
:10109000A11B0018A11B0018A11B0018A11B001800
:1010A000A11B0018A11B0018A11B0018C11B0018D0
:1010B000D91B0018F11B001831080000310800008E
:1010C00000000000A41C0018C41C0018841C001898
:1010D0000000000000000000000000000000000010
:1010E0000000000000000000000000000000000000
:1010F00000000000000000000000000000000000F0
:1011000000000000000000000000000000000000DF
:1011100000000000000000000000000000000000CF
:10112000FEE70000F0B50400134D9B021D43903410
:101130000600256005009436A835042A12D8002A36
:101140000FD0013A12051A4320231A4303002260EC
:101150000A68A8331A600122143B1A600368002B46
:10116000FCDAF0BD80C9043A2F60112792B23760D3
:101170000768002FFCDAE0E720003000F7B5040034
:1011800008009902164B25000B43210090310B609B
:101190002600230011219433A035A436082A13D841
:1011A000002A10D023000121943319602368002BFA
:1011B000FCDA2300A0331B68A4340093236869463B
:1011C000019300F055FBF7BD083A196092B2083060
:1011D0002768002FFCDA2F68076037684760DDE773
:1011E00010000700F0B50F7A87B003930D793C0724
:1011F000E40F2D0664002C43BD072D0C01957D07DF
:10120000FE06ED0FBF06ED00FF0F0295BD00E027C3
:10121000AC46551EFF022D043D4017007B1E9F412A
:10122000F60F3F0176022743019C37432743029C78
:1012300006002743644627430124039B3D431B01CB
:1012400025431C430300903635604D6894332D0AC6
:10125000B5601C600368002BFCDAA03003680868E6
:1012600005A9059300F004FB07B0F0BDF0B50F7AB7
:1012700087B0039304003B070879DB0F00065B008F
:1012800003437807FD06BE07C00FBF06C000FF0F6F
:101290000290B800E0278446501EFF030005384046
:1012A000170001937B1E9F41019BED0F7F016D0293
:1012B0001F432F43029B360C3E431E4363460125CA
:1012C0001E432300304328439033186020004B68AE
:1012D00098301B0A0360096805A800F0C9FA2300CA
:1012E000059AA8331A60039B1B011D432300943306
:1012F0001D602368002BFCDA07B0F0BDF7B5019341
:101300008C8906000D001700042C0FD80023E4B2CE
:10131000290030682200B847AA892968121BAB7BD4
:101320003068091992B2019CA047F7BD0A680323EF
:1013300014001C401A4202D001331C1BE4B20123EA
:10134000E6E770B50400012100F010FA200000F07B
:10135000FDF92000256800F019FAE860200000F08F
:1013600011FA1E222368400010401861200000F08E
:101370000BFAF023C004DB031840812322681843D2
:10138000106070BD4A7810B553071407DB0FE40FE7
:10139000097824041B0323430B43D106C90F090515
:1013A000920700680B4392091343436010BD036822
:1013B0009962704710B5024B024AFFF79FFF10BDBC
:1013C0007D010000E501000010B5024B024AFFF765
:1013D00095FF10BD250100006D020000F0B51C0056
:1013E000013B05000E00170085B0032B01D9FFF764
:1013F00097FE6B462C221E711B7A694693436A4600
:10140000137200232800009794819373FFF7DCFF89
:1014100005B0F0BD036801221800090611439030A1
:101420000160190094310A601A68002AFCDA7047DA
:10143000F0B51C00013B05000E00170085B0072B1E
:1014400001D9FFF76DFE6B462C221E711B7A69468F
:1014500093436A4613720023280000979481937384
:10146000FFF7A8FF05B0F0BD7FB56B4607330293C9
:10147000EB233F2202A903930B7A064893431A00F9
:101480003D2313430B7201238B81FFF793FF07B0BA
:1014900000BDC046C808000070B50400044D00211E
:1014A0002800FFF784FF28002100FFF783FF70BDAD
:1014B000C808000010B501000148FFF77BFF10BD10
:1014C000C808000010B5FFF7F5FF10BD10B5020009
:1014D000022301210148FFF781FF10BDC808000069
:1014E00010B50200032320210148FFF777FF10BD4C
:1014F000C808000010B50200032344210148FFF78B
:101500006DFF10BDC808000010B560210148FFF74D
:1015100081FF10BDC808000010B501000148FFF7A9
:1015200053FF10BDC808000010B5FFF7F5FF10BD50
:101530000023044A1370044A1370044B044A1A60CF
:101540007047C046C4080000C5080000C808000075
:101550000000024010B50248FFF7F3FE10BDC04680
:10156000C808000037B50F4C2378002B18D100F0C5
:10157000DBF80D4D20212800FFF719FFFFF774FF5E
:101580006B469B88094A5B0B5B0313436A46280042
:10159000938001A9FFF7F6FE0123237000F0CCF839
:1015A00037BDC046C5080000C8080000EB1E00009B
:1015B00010B5084C2378002B0BD000F0B5F80021B3
:1015C0000548FFF7F4FEFFF74FFF0023237000F0FC
:1015D000B3F810BDC5080000C808000070B50D00C4
:1015E0000400FFF7E5FF2800A047FFF7BBFF70BD31
:1015F00010B50200012305210148FFF719FF10BDB6
:10160000C808000073B50D00040000F08DF8FFF766
:10161000CFFF06210B48FFF7FDFE2800A04701245D
:10162000094D2C7000F088F86B46DE1D3000FFF786
:10163000DFFF33781A0022402342F5D12A70FFF7EA
:1016400091FF73BDC8080000C408000010B5020077
:10165000012335210148FFF7EBFE10BDC80800004B
:1016600007B56B46991D08800148FFF7CBFF07BD02
:10167000CD04000010B5B9210148FFF7CBFE10BD25
:10168000C808000010B5AB210148FFF7C3FE10BD2C
:10169000C808000013B56B4601AC581DFFF7D6FF14
:1016A00063789B070BD42000FFF7A2FF63782078B4
:1016B0001B020343802080001843FFF7D1FF13BDB6
:1016C00010B575210148FFF7A5FE10BDC808000040
:1016D00010B57A210148FFF79DFE10BDC808000033
:1016E000014B18787047C046C4080000014B1878B9
:1016F0007047C046C508000070B504000D1E02D03A
:10170000012000F053F82020640104401F38054BED
:10171000284004431C60002D02D1280000F046F848
:1017200070BDC04600740140024A13680133136063
:1017300072B67047CC080000034A1368013B13607F
:10174000002B00D162B67047CC0800008022054B08
:10175000520599690A439A619A6903490A409A6154
:101760007047C04600100240FFFFFFEF034A0448E5
:10177000536A090703401943516270470010024041
:10178000FFFFFFEF022070470020704700487047BE
:10179000050301000121044B1A690A431A611A6901
:1017A0008A431A617047C0460010024010B502001B
:1017B0000124084B2240D9694007A1430A438021F4
:1017C000DA6189055A6A084003490A4010435862A1
:1017D00010BDC04600100240FFFFFFDF072110B51B
:1017E0000124104A53688B4323435360802351687C
:1017F0001B060B43536072B6FFF79AFEFFF7AAFE73
:10180000FFF748FFFFF7AEFE21002000FFF774FF4F
:10181000054B1B6883F30888044B1B68984700201E
:1018200010BDC04600100240006003180460031899
:1018300070B5FFF755FF0500FFF758FF0400002DB6
:1018400005D0002801D0FFF76BFCFFF739FF002C13
:1018500001D1FFF787FE00F017F800F01DF8002C0B
:1018600001D1FFF7A5FE002D01D0FFF731FF70BDBC
:10187000002310B59A4200D110BDCC5CC454013392
:10188000F8E700000000000001B40248844601BCF3
:10189000604700BFA5D2071801B40248844601BCC6
:1018A000604700BF35120618F8B5C046F8BC08BC42
:1018B0009E467047F8B5C046F8BC08BC9E467047C7
:1018C000164B002B00D1144B9D46402292029A1ACF
:1018D000924600218B460F461348144A121A7EF096
:1018E00087FB0F4B002B00D098470E4B002B00D0EE
:1018F00098470020002104000D000D48002802D068
:101900000C4800E000BF00F099F92000290000F029
:10191000F3F900F07BF9C0460000080000C00000A9
:101920000000000000000000A8080000E00800001F
:101930000000000000000000012801D172B6FEE79F
:101940007047000010B5EFF3088319005A68044887
:10195000083100F010F801221378002BFCD110BDE3
:10196000A808000000B57346FFF7E6FF00BD013888
:101970000028FCD170470160EFF309834360826067
:10198000C4600561466187617047000010B586B08C
:1019900002913221002B00D1303902AC21710102B9
:1019A0000398019068460079084303903C20217A0F
:1019B000A2818143080008210143217203482100CC
:1019C000A37300F091F906B010BDC04619050000E0
:1019D00007B5030C01A90B708870030A02484B700D
:1019E00000F082F907BDC046E104000010B50021F7
:1019F000014800F079F910BD090500007FB5EB231F
:101A0000029102A90B7103990302019169460879B9
:101A10003F211843039002AB1B7A07488B43190000
:101A20003D230B4302A90B7201238A818B7300F0C3
:101A30006BF907B000BDC046990400007FB50B23C9
:101A4000029102A90B710399030201916946087979
:101A50003F211843039002AB1B7A07488B431900C0
:101A60000C230B4302A90B7200238A818B7300F0B5
:101A70004BF907B000BDC046B504000007B5002310
:101A80000A0001A90B70D3050001DB0F03430348D3
:101A90004B708A7000F028F907BDC046F5040000BD
:101AA00010B586B00292422202AC2271039AC90597
:101AB00001926A46C90D00030843117900020843E8
:101AC0003C210390227AA3818A431100082200233B
:101AD0000A43044821002272A37300F005F906B0FE
:101AE00010BDC0462905000010B586B002924822FC
:101AF00002AC2271039AC90501926A46C90D00031E
:101B000008431179000208433F210390227AA38100
:101B10008A4311000C2200230A4304482100227248
:101B2000A37300F0F1F806B010BDC046C504000074
:101B300070B583690400023B1B78072B08D8054A5F
:101B40009B009D584168C36882680068A847206070
:101B500070BDC046581B00188D190018D119001807
:101B60003D1A0018FD190018ED1900187D1A00180B
:101B7000A11A0018E91A001800F046F80549064AAB
:101B8000064B9B1A03DD043BC858D050FBDCFFF723
:101B900097FE00000010001800000000A8080000D8
:101BA000FEE7C04604207146084202D0EFF30980E8
:101BB00001E0EFF30880014908470000311B0018DD
:101BC00010B5034B034A1B681068984710BDC04608
:101BD000DC080000D008000010B5034B034A1B6866
:101BE0005068984710BDC046DC080000D0080000CF
:101BF00010B5034B034A1B689068984710BDC04658
:101C0000DC080000D008000070470000084B10B549
:101C10000400002B02D0002100E000BF054B186833
:101C2000836A002B00D09847200000F05BF8C04684
:101C300000000000381C0018C000000070B500262D
:101C40000C4D0D4C641BA410A64209D10026FFF7D1
:101C50002BFE0A4D0A4C641BA410A64205D170BD90
:101C6000B300EB5898470136EEE7B300EB589847BE
:101C70000136F2E700000000000000000000000054
:101C80000000000000000000000000000000000054
:101C90000000000000000000000000000000000044
:101CA0000000000000000000000000000000000034
:101CB0000000000000000000000000000000000024
:101CC0000000000000000000000000000000000014
:101CD0000000000000000000000000000000000004
:101CE00000000000FEE7C04601B40248844601BC83
:101CF000604700BF0506000001B40248844601BCED
:101D0000604700BFDD07000001B40248844601BC03
:101D1000604700BFDD050000A8FBFF7F0100000059
:020000041803DF
:10600000C0B90000798F0318A18F03182D6E0318F3
:106010000000000000000000000000000000000080
:10602000000000000000000000000000A58F031821
:106030000000000000000000A18F0318A18F0318CA
:10604000A18F0318A18F0318A18F0318C1070000A7
:10605000A18F0318A18F0318A18F0318A18F031814
:10606000A18F0318A18F0318A18F0318A18F031804
:10607000A18F0318C1070000A18F0318A18F031877
:10608000A18F0318A18F0318A18F0318C107000067
:10609000A18F0318A18F0318A18F0318A18F0318D4
:1060A000A18F0318A18F0318A18F0318B9900318AB
:1060B000D1900318E9900318C1070000C107000040
:1060C000C4000000000000007CA003189CA003187E
:1060D0005CA00318000000000000000000000000A9
:1060E00000000000000000000000000000000000B0
:1060F00000000000000000000000000000000000A0
:10610000000000000000000000000000000000008F
:10611000000000000000000000000000000000007F
:1061200000000000FEE70000F0B50400134D9B02E4
:106130001D4390340600256005009436A835042AD6
:1061400012D8002A0FD0013A12051A4320231A430D
:10615000030022600A68A8331A600122143B1A6007
:106160000368002BFCDAF0BD80C9043A2F601127C8
:1061700092B237600768002FFCDAE0E720003000B9
:10618000F7B5040008009902164B25000B432100C7
:1061900090310B602600230011219433A035A436E2
:1061A000082A13D8002A10D0230001219433196043
:1061B0002368002BFCDA2300A0331B68A43400936F
:1061C00023686946019300F01BFBF7BD083A19608C
:1061D00092B208302768002FFCDA2F680760376812
:1061E0004760DDE710000700F0B50F7A87B0039332
:1061F0000D793C07E40F2D0664002C43BD072D0CE0
:1062000001957D07FE06ED0FBF06ED00FF0F02951D
:10621000BD00E027AC46551EFF022D043D4017008F
:106220007B1E9F41F60F3F0176022743019C3743B7
:106230002743029C06002743644627430124039B0F
:106240003D431B0125431C430300903635604D68D8
:1062500094332D0AB5601C600368002BFCDAA03073
:106260000368086805A9059300F0CAFA07B0F0BDF5
:10627000F0B50F7A87B0039304003B070879DB0F72
:1062800000065B0003437807FD06BE07C00FBF068C
:10629000C000FF0F0290B800E0278446501EFF03A5
:1062A00000053840170001937B1E9F41019BED0FB5
:1062B0007F016D021F432F43029B360C3E431E435A
:1062C000634601251E432300304328439033186062
:1062D00020004B6898301B0A0360096805A800F08D
:1062E0008FFA2300059AA8331A60039B1B011D43F4
:1062F000230094331D602368002BFCDA07B0F0BD47
:10630000F7B501938C8906000D001700042C0FD8F7
:106310000023E4B2290030682200B847AA8929681E
:10632000121BAB7B3068091992B2019CA047F7BDE4
:106330000A68032314001C401A4202D001331C1BBC
:10634000E4B20123E6E770B50400012100F00CFA85
:10635000200000F0F9F92000256800F015FAE86047
:10636000200000F00DFA1E22236840001040186142
:10637000200000F007FAF023C004DB03184081235B
:1063800022681843106070BD4A7810B5530714078F
:10639000DB0FE40F097824041B0323430B43D106CE
:1063A000C90F0905920700680B4392091343436024
:1063B00010BD03689962704710B5024B024AFFF79F
:1063C0009FFF10BD81010000E901000010B5024BE4
:1063D000024AFFF795FF10BD29010000710200007D
:1063E000F0B51C00013B05000E00170085B0032B23
:1063F00001D9FFF797FE6B462C221E711B7A694666
:1064000093436A4613720023280000979481937384
:10641000FFF7DCFF05B0F0BD036801221800090694
:10642000114390300160190094310A601A68002A03
:10643000FCDA7047F0B51C00013B05000E001700A8
:1064400085B0072B01D9FFF76DFE6B462C221E711C
:106450001B7A694693436A4613720023280000970B
:1064600094819373FFF7A8FF05B0F0BD7FB56B462D
:1064700007330293EB233F2202A903930B7A0648CA
:1064800093431A003D2313430B7201238B81FFF7C3
:1064900093FF07B000BDC046D80B000070B50400E4
:1064A000044D00212800FFF784FF28002100FFF79A
:1064B00083FF70BDD80B000010B501000148FFF745
:1064C0007BFF10BDD80B000010B5FFF7F5FF10BD26
:1064D00010B50200022301210148FFF781FF10BD22
:1064E000D80B000010B50200032320210148FFF75C
:1064F00077FF10BDD80B000010B502000323442124
:106500000148FFF76DFF10BDD80B000010B56021EA
:106510000148FFF781FF10BDD80B000010B5010046
:106520000148FFF753FF10BDD80B000010B5FFF76F
:10653000F5FF10BD0023044A1370044A1370044B86
:10654000044A1A607047C046D40B0000D50B000007
:10655000D80B00000000024010B50248FFF7F3FE20
:1065600010BDC046D80B000037B50F4C2378002B68
:1065700018D100F0C3F80D4D20212800FFF719FFB6
:10658000FFF774FF6B469B88094A5B0B5B03134361
:106590006A462800938001A9FFF7F6FE01232370C5
:1065A00000F0B4F837BDC046D50B0000D80B000092
:1065B000EB1E000010B5084C2378002B0BD000F028
:1065C0009DF800210548FFF7F4FEFFF74FFF002379
:1065D000237000F09BF810BDD50B0000D80B000015
:1065E00070B50D000400FFF7E5FF2800A047FFF796
:1065F000BBFF70BD10B50200012305210148FFF764
:1066000019FF10BDD80B000073B50D00040000F099
:1066100075F8FFF7CFFF06210B48FFF7FDFE2800B6
:10662000A0470124094D2C7000F070F86B46DE1D68
:106630003000FFF7DFFF33781A0022402342F5D104
:106640002A70FFF791FF73BDD80B0000D40B000038
:1066500010B50200012335210148FFF7EBFE10BD04
:10666000D80B000007B56B46991D08800148FFF75D
:10667000CBFF07BDD104000010B5B9210148FFF7D9
:10668000CBFE10BDD80B000010B5AB210148FFF7C1
:10669000C3FE10BDD80B000013B56B4601AC581DEE
:1066A000FFF7D6FF63789B070BD42000FFF7A2FF0C
:1066B000637820781B020343802080001843FFF793
:1066C000D1FF13BD10B575210148FFF7A5FE10BD20
:1066D000D80B000010B57A210148FFF79DFE10BDD0
:1066E000D80B0000014B18787047C046D40B00004F
:1066F000014B18787047C046D50B0000024A13685A
:106700000133136072B67047DC0B0000034A136854
:10671000013B1360002B00D162B67047DC0B000018
:106720004046494652465B46FFB500216A460A602C
:1067300000F03CF830BF00F03AF8FFBC80468946D4
:1067400092469B4600BD00008022054B5205996988
:106750000A439A619A6903490A409A617047C046A0
:1067600000100240FFFFFFEF034A0448536A090785
:10677000034019435162704700100240FFFFFFEFD2
:106780000220704700207047004870470503010051
:1067900010B5FFF70FFFFFF76FFFFFF7C1FFFFF720
:1067A000DBFEFFF771FFFFF7DFFE10BD70478023B0
:1067B000024A1B0651680B435360704700140240A5
:1067C00070B5FFF78FFF0500FFF792FF0400002D63
:1067D00005D0002801D0FFF7A5FCFFF773FF002CC0
:1067E00001D1FFF7C1FE00F017F800F01DF8002CF2
:1067F00001D1FFF7DFFE002D01D0FFF76BFF70BD69
:10680000002310B59A4200D110BDCC5CC4540133B2
:10681000F8E700000000000001B40248844601BC13
:10682000604700BFA5D2071801B40248844601BCE6
:10683000604700BF35120618F8B5C046F8BC08BC62
:106840009E467047F8B5C046F8BC08BC9E467047E7
:10685000164B002B00D1144B9D46402292029A1AEF
:10686000924600218B460F461348144A121A49F0EB
:10687000BFFB0F4B002B00D098470E4B002B00D0D6
:1068800098470020002104000D000D48002802D088
:106890000C4800E000BF03F0E5FA2000290002F0F8
:1068A00003FE03F0C7FAC04600000800C0B90000AC
:1068B000000000000000000038080000D84D000073
:1068C000000000000000000030B58A18914200D19D
:1068D00030BD0D78040A6C406400E45A0002604048
:1068E00080B20131F2E7000010B5024BFFF7ECFF78
:1068F00010BDC046F8680318000021104220633024
:106900008440A550C660E770088129914AA16BB107
:106910008CC1ADD1CEE1EFF13112100273325222AF
:10692000B5529442F772D662399318837BB35AA357
:10693000BDD39CC3FFF3DEE362244334200401147F
:10694000E664C774A44485546AA54BB528850995A7
:10695000EEE5CFF5ACC58DD553367226111630064F
:10696000D776F6669556B4465BB77AA719973887F7
:10697000DFF7FEE79DD7BCC7C448E5588668A7780F
:106980004008611802282338CCC9EDD98EE9AFF947
:10699000488969990AA92BB9F55AD44AB77A966AEF
:1069A000711A500A333A122AFDDBDCCBBFFB9EEB97
:1069B000799B588B3BBB1AABA66C877CE44CC55CBF
:1069C000222C033C600C411CAEED8FFDECCDCDDDE7
:1069D0002AAD0BBD688D499D977EB66ED55EF44E8F
:1069E000133E322E511E700E9FFFBEEFDDDFFCCF37
:1069F0001BBF3AAF599F788F8891A981CAB1EBA18B
:106A00000CD12DC14EF16FE18010A100C230E32006
:106A10000450254046706760B9839893FBA3DAB3AE
:106A20003DC31CD37FE35EF3B1029012F322D23256
:106A30003542145277625672EAB5CBA5A89589857E
:106A40006EF54FE52CD50DC5E234C324A0148104A6
:106A50006674476424540544DBA7FAB79987B8974E
:106A60005FE77EF71DC73CD7D326F2369106B016F6
:106A700057667676154634564CD96DC90EF92FE90E
:106A8000C899E9898AB9ABA9445865480678276846
:106A9000C018E1088238A3287DCB5CDB3FEB1EFBEE
:106AA000F98BD89BBBAB9ABB754A545A376A167A96
:106AB000F10AD01AB32A923A2EFD0FED6CDD4DCDBE
:106AC000AABD8BADE89DC98D267C076C645C454CE6
:106AD000A23C832CE01CC10C1FEF3EFF5DCF7CDF8E
:106AE0009BAFBABFD98FF89F176E367E554E745E36
:106AF000932EB23ED10EF01E10B50400002000F01F
:106B000049FA002C04D000220249100000F042FA99
:106B100010BDC046F76B03180EB403B503AB02CB30
:106B200001AA0193FFF7E8FF02B008BC03B01847C1
:106B300010B500F043FC10BD417373657274696F4A
:106B40006E204661696C65643A2066696C65202533
:106B5000732C206C696E652025642C2025730A0037
:106B600007B5130072B60A00009002490020FFF733
:106B7000D3FF07BD386B03186C766C3A25782C6C04
:106B8000723D3078253038782C706172616D303DFF
:106B9000307825782C706172616D313D30782578C0
:106BA0000A00000013B5040001920091020004499C
:106BB0000020FFF7B1FF012C01D172B6FEE713BD33
:106BC000786B0318212121212121212121214861D4
:106BD00072644661756C742048616E646C657220E5
:106BE0006973207472696767657265642121212168
:106BF0002121212121210D0A0050726F6C6F673A0B
:106C00000D0A0052342020203D203078253038787D
:106C10000D0A0052352020203D203078253038786C
:106C20000D0A0052362020203D203078253038785B
:106C30000D0A0052372020203D203078253038784A
:106C40000D0A006C722020203D20307825303878E5
:106C50000D0A006D737020203D2030782530387883
:106C60000D0A0070737020203D2030782530387870
:106C70000D0A0050535020537461636B20496E66B7
:106C80006F3A0D0A004D535020537461636B2049D5
:106C90006E666F3A0D0A0052302020203D20307879
:106CA000253038780D0A0052312020203D203078E0
:106CB000253038780D0A0052322020203D203078CF
:106CC000253038780D0A0052332020203D203078BE
:106CD000253038780D0A0052313220203D2030789E
:106CE000253038780D0A004C522020203D20307885
:106CF000253038780D0A0050432020203D20307880
:106D0000253038780D0A0078505352203D203078D5
:106D1000253038780D0A000010B500202F49FFF704
:106D2000FBFE00202E49FFF7F7FE2E4C0020E26804
:106D30002D49FFF7F1FE002022692C49FFF7ECFEF8
:106D4000002062692A49FFF7E7FE0020A26929496D
:106D5000FFF7E2FE0020A2682749FFF7DDFE0020D2
:106D600022682649FFF7D8FE002062682449FFF711
:106D7000D3FEA36803332DD1646822490020FFF7B6
:106D8000CBFE226800202049FFF7C6FE6268002083
:106D90001E49FFF7C1FEA26800201D49FFF7BCFE97
:106DA000E26800201B49FFF7B7FE226900201A495C
:106DB000FFF7B2FE626900201849FFF7ADFEA26935
:106DC00000201749FFF7A8FE0020E2691549FFF7E8
:106DD000A3FE10BD24681449D0E7C046C46B031855
:106DE000F96B031838080000036C0318136C0318C0
:106DF000236C0318336C0318436C0318536C03188B
:106E0000636C0318736C0318976C0318A76C031852
:106E1000B76C0318C76C0318D76C0318E76C03181A
:106E2000F76C0318076D0318856C031810B5EFF3A2
:106E3000088319005A680548083100F012F8FFF776
:106E40006BFF01221378002BFCD110BD3808000025
:106E500000B57346FFF7A6FE00BD01380028FCD13F
:106E600070470160EFF3098343608260C46005618D
:106E7000466187617047826810B504004068531C02
:106E8000834205D820688154A360E3680133E3603E
:106E9000A26863689A4209D12168206900F074FAF7
:106EA000A368984203D001235B42E36010BD002336
:106EB000A360FBE7F0B5050017000800012685B0C8
:106EC0000A9C02910093B84219D2009A0196964208
:106ED00000D2019201230B9A1A4003920B9A1A4294
:106EE00002D1002C10D10024EB680126002B4BDBD3
:106EF000009B012B1FD9013B00937E43F8E739002B
:106F000015F0C8FD0136DEE70B9B20269B0704D554
:106F1000009B1036002B00D0103E019BA342E3D211
:106F200031002800FFF7A7FFEB68013C002BDBDBFB
:106F3000002CF2D1D7E73100029815F0ABFD874263
:106F4000DBD90298310015F0B5FD114B0291195CA7
:106F50002800FFF790FFEB68002B05DB39003000BD
:106F600015F098FDBE4211D2039B002B0CD0002CD3
:106F70000AD0019BA34207D220212800FFF77BFF04
:106F8000EB68013C002BF2DA05B0F0BD0600D8E753
:106F9000F6710318F0B59FB00EAB099340230A9326
:106FA00000230E00150007900B930D900C93317881
:106FB0000136002907D10C9B0393002B00DD09E16A
:106FC0000C981FB0F0BD252900D0B3E0002708229F
:106FD000042006E0302B0DD1022300E001231F43E3
:106FE0000E003378711C2D2BF8D0F3D8232B10D042
:106FF0002B2B0CD000240A213378721C1800303857
:10700000092808D84C43303C16001C19F4E7074304
:10701000E6E71743E4E7002103912E2B0ED116007B
:107020000A203278711C1300303B092B06D8039BD1
:107030000E004343303BD3180393F2E70423317827
:107040000A0001369A43682A01D13178F8E7782995
:1070500009D86F290BD8632967D017D8252969D09B
:10706000582900D195E00C9B002BA0DAA3E77039DA
:1070700008000829F7D848F07DFFA500F6FFF6FFC5
:107080009400F6FF8300F6FFF6FF8C006429EAD136
:107090002B681A1D1B682A60DA17981804930123BD
:1070A00050400593092849DC039B059A06939342B7
:1070B00000D20692002C05D0049B002B01DB7B073D
:1070C00000D5013C02231F4202D0039B002B05D0B8
:1070D00001231F4202D1002C36D100240C9B0593C2
:1070E000002BC0DB049B002B3ADA2D215B4204937A
:1070F00009A8FFF7C0FE0C9B002BB4DB03233B4029
:10710000022B05D1039B002B02D1002C2CD1002493
:107110000C9B0593002BA6DB0A22039B0499019785
:10712000009409A8FFF7C6FE9DE72B6819681A1D91
:107130002A60C9B209A8FFF79EFE94E70A2115F05C
:10714000B1FC059B0133ACE7069BA342C6D22021CC
:1071500009A8FFF790FE0C9B013C002BBBDABDE7B2
:107160007B07C8D52B21C3E7069BA342D0D2302191
:1071700009A8FFF780FE0C9B013C002BC5DAC7E78E
:107180000A22296801970B1D2B60039B0094096854
:10719000C7E7296801970B1D2B60039B0094102201
:1071A000F5E72B681A1D2A601C6821780134002934
:1071B00000D158E709A8FFF75EFE0C9B0393002B54
:1071C000F3DA50E729680B1D2B6000230193083385
:1071D0000093E4E70B9A002A03D007980EA900F069
:1071E000D3F80C9B03930B9B0493049A039B944644
:1071F00063440C93E4E63031323334353637383972
:107200004142434445460369C268934201D88068BD
:107210001B18013B981A7047F7B58368C46801933F
:107220001F1B436805000E001819A418974207D8C1
:107230003A0002F07DFF019B6868E41A2200F11910
:1072400002F076FFEC60F7BD0023F7B506001700EB
:10725000C568019100933369B4689D421FD2013B18
:107260005B1B641BBC4200D93C009C4200D91C0043
:10727000736822005819019902F05AFF009B2D19DA
:107280001B190093019B3F1B1B190193B368AB4271
:1072900000D10025F560002FDDD10098FEBD1B193F
:1072A000DDE75465726D696E616C00525454005391
:1072B0004547474552000000032310B5104C1149C3
:1072C00023616361104BA161E361802321660F4953
:1072D000DB0001222362616600231021A362636246
:1072E0002367E366E262A16662670949094802F022
:1072F00033FE2000084902F02FFE2023A37110BDA9
:1073000054080000A2720318D5490000C5490000C6
:10731000AB7203185B080000AF720318F8B51600D3
:107320001822451C55434243164B0F00ED189B187D
:10733000DC6A012C10D0022C1BD0002C1FD128009D
:10734000FFF761FF864205D8320039002800FFF7B9
:1073500063FF34002000F8BD2800FFF754FF34001D
:10736000864200D90400220039002800FFF754FFAC
:10737000F0E732002800FFF767FF0400EAE7002487
:10738000E8E7C04654080000F8B50B4B04001B7832
:107390000E001700002B01D1FFF78EFFEFF31085D1
:1073A000012181F310883A0031002000FFF7B6FF79
:1073B00085F31088F8BDC0465408000010B5FFF7EB
:1073C0007BFF10BDF8B58568078A06000C00481BD6
:1073D000390015F077FB0020814208D10800A54252
:1073E00005D8708A4743ED19AC42A4416042F8BD0C
:1073F000F7B505001C001600002701910898002130
:1074000048F0F6FD280047F0E1F9089BAC60EB601E
:10741000019B6E822B82B74200D1F7BD210028006C
:1074200047F0EAF9019B0137BFB2E418F3E764655E
:10743000765C6D6F64756C655C7374617469635FB1
:107440006275666665725C6C696E6B65645F6275B9
:10745000666665722E630028656C656D2D287569FA
:107460006E74385F74202A297074722D3E627566BE
:1074700029257074722D3E656C656D656E745F7341
:10748000697A653D3D30000070B5050083680C00E9
:10749000C81A298A15F016FB002904D03B22054999
:1074A0000548FFF75DFBAB68298AE01A15F0FAFA88
:1074B00080B270BD2E7403185774031870B50500A0
:1074C00047F0E2F9041E07D001002800FFF7DCFFB7
:1074D000EA68135C01331354200070BD6C696E6B55
:1074E00065645F6275665F68646C5F73616E697422
:1074F000795F636865636B287074722C2875696E98
:1075000074385F74202A2968647229007074722D9F
:107510003E7265665F636E745B6964785D0000004F
:1075200070B504000E00FFF74DFF002804D1312292
:107530000D490E48FFF714FB31002000FFF7A4FFB0
:10754000E36805001B5C002B04D133220649084880
:10755000FFF706FB3100200047F04EF9E268505D6E
:107560000138C0B2505570BD2E740318DC74031876
:107570000C750318038A806859434018704770B52A
:1075800004000D00FFF71EFF002808D0290020008E
:10759000FFF77AFFE368185C431E9841C0B270BDE4
:1075A000A588031825890318CD88031813B50C4C3A
:1075B000A088002813D0FF2807D880225200121A72
:1075C0000630FF21001948F013FD8022054B0649C3
:1075D0001B6820685200019398470023A38013BDC5
:1075E000FC080000A075031802090000F7B50D00A3
:1075F00017000190002D00D1F7BDFF22019B144E12
:10760000934333608023B0885B001C1AA4B2063019
:107610008019AC420FD32A00390002F089FDB188ED
:107620004D19B58000258022B38852009342E1D1E4
:10763000FFF7BCFFDEE72200390002F079FD019B75
:107640002D1B1B190193B3883F19E418B480EAE796
:10765000FC080000144BF7B516001A6844180D001A
:10766000124F94421DD99B889B189C4219D8FF2326
:1076700082420CD91C400C1B002C0AD00C4B310050
:107680001B68A2B20193361998472D1B01E00340F5
:10769000FF18002D04D02A003900300002F048FD08
:1076A000F7BD2C00E8E7C046FC0800000209000016
:1076B000A4750318044B10B51B680003C018034BD6
:1076C0001B68984710BDC046980B0000A8750318AA
:1076D000020030B5080007250121022809D0013039
:1076E00080B20400C308D35C2C4023410B42F4D089
:1076F00030BD0020F5E70A6803001000083030B5FF
:107700001468086000201989814209D19D89A4B2BA
:10771000A54205D15268188A92B2801A4342584154
:1077200030BD0A680300101D0860002019898142DD
:1077300005D01268588A92B2801A43425841704765
:10774000044B010010B50020994202D00248FFF717
:1077500011FF10BDFFFF0000C00B00006465765CE8
:107760006D6F64756C655C74696E7966735C746961
:107770006E7966732E63006F6666736574253235A5
:10778000363D3D300000000030B5CBB204000D00A6
:10779000C1B0002B04D00E4A0E490F48FFF7E0F9A4
:1077A00080210E4B20031C6840196A4600194900CD
:1077B000FFF750FF002369469A008A58013205D12D
:1077C0000133402BF7D1012041B030BD0020FBE751
:1077D0001F0200005C77031877770318980B0000EE
:1077E00010B5010004000548FFF7C9FE002803D0CA
:1077F0002089431E9841C0B210BDC046C00B000096
:1078000013B56B46040019805A8069460422002093
:10781000FFF76AF86B469880044B20031C686A46A1
:1078200006210019FFF7E2FE13BDC046980B0000C9
:10783000F0B5374D87B000936B6801925B1A6B60AF
:1078400080232A8906000C005B019A420FD1AB8984
:107850000020022B01D0013398B2E98906220131C0
:1078600089B2A881E981FFF7CBFF06232B8180270E
:107870002B897F010293AB890393002C40D0244DC8
:107880002B89BB421ED1019B002B04D1009B9A1D6A
:10789000A21892B205E0009B00221B190633BB42DE
:1078A000F4D3AB890020022B01D0013398B2E989CF
:1078B000A881013189B2E981FFF7A2FF06232B815C
:1078C000053B0193124D2989AB892A681B0388184F
:1078D00018180B19BB420CDD3200791AFFF786FE2F
:1078E00029892F817B1AF6180A4BC9186418A4B28B
:1078F000C3E721003200FFF779FE298964182C8143
:10790000029B1804039B0343180007B0F0BDC04658
:10791000980B000000F0FFFF7FB56B465871000A1E
:1079200098716B46D971090A1972092300266B44B4
:1079300001AD1A701400120A29005A703000072293
:107940002E70FEF7D1FF0B236B4418700234000A2F
:107950005870320009212800A3B2FFF769FF04B074
:1079600070BD012330B585B001AC23706B465871F2
:10797000000A987109236B441970090A59706B4603
:107980000025DA71120A21001A7228000722FEF778
:10799000ABFF0B236B441870000A58702A002B00B1
:1079A00009212000FFF744FF05B030BD10B50B4A98
:1079B000FF2113891C000C400B420AD0802040009C
:1079C000041B01335068A4B2FF33001B8B4350608B
:1079D0001381FFF7EBFD200010BDC046980B00009F
:1079E00010B580240B8864019B18A3420CDB03882C
:1079F0000024022B01D001339CB2044B0480D21826
:107A00000B889A180A8010BD0B80FCE706F0FFFF78
:107A100070B50D00141E01D000231360084B98426E
:107A200001D1002070BDFFF78BFE0389002B02D12E
:107A3000038AAB42F6D0002C00D02060C089EDE76D
:107A4000FFFF000010B50C00074B984201D1002049
:107A500010BDFFF775FE0389002B02D0038AA342F5
:107A6000F6D0C089F0E7C046FFFF0000F7B5144F1D
:107A70001D003B680C0006000003C01880231100A5
:107A8000A21800195B019A4203DC2A00FFF7E2FD0D
:107A9000F7BDE4B261186442E4B2CBB22A0021001F
:107AA0000193FFF7D7FD00233868022E01D001367D
:107AB000B3B206301B0301992A19C018E6E7C04685
:107AC000980B0000F0B585B0009200890022019368
:107AD000FFF79EFF0A23071E31D0019B468A1A88B2
:107AE0000323B2422BD302AA941C8288C38803AD1D
:107AF00029002000228009222B80FFF771FF009BC4
:107B0000320029882088FFF7B1FF320029002000C9
:107B1000FFF766FF02AB0633022229882088FFF7B1
:107B2000A5FF320000200099FEF7DEFE02ABDA88E6
:107B30000123904203D17B8A019A1380002318000D
:107B400005B0F0BD010010B5002803D00248FFF7D2
:107B50009BFC10BD0148FCE7C00B0000FFFF0000CC
:107B6000706172656E742D3E6368696C640000001C
:107B700070B5038905000C00002B04D1164A174983
:107B80001748FEF7EDFF002C19D0A2896B8A9A42A4
:107B900005D12000FFF7D6FF2600288109E0E08903
:107BA000FFF7CEFD0400EEE7F089FFF7C9FD061EE2
:107BB00005D0B2896B8A9A42F6D0B44200D170BD2A
:107BC0002389002B03D031002000FFF7D1FFE0898B
:107BD000FFF7B6FD0400F0E79E0200005C77031893
:107BE000607B031870B505000089FFF7A9FD041E2E
:107BF00003D082896B8A9A4200D070BD2389002B02
:107C000002D02000FFF7EEFF2800FFF79BFFA081C6
:107C1000E089EAE7F7B5040000880D00FFF790FD62
:107C200023881F00854230D1628893420FD10123FF
:107C30005B42638023802A890923002A02D16B8A50
:107C40000B339BB20120A288D31AA380FEBD6B899F
:107C5000F0E73800FFF774FD438918000193FFF740
:107C60006FFD060085420FD13800FFF769FD73896B
:107C7000019A43816388934200D167803289092346
:107C8000002ADFD1738ADBE7019F024B9F42E0D1DC
:107C90000020DBE7FFFF000070B5040008000D00C6
:107CA000FFF750FF22880D4B06009A4200D120803A
:107CB000012252426A816088984202D0FFF740FD5B
:107CC000468166802A890923002A02D16B8A0B33F8
:107CD0009BB2A2889B18A38070BDC046FFFF000026
:107CE0007769706500693C3D6E756D00F0B58BB0CD
:107CF000664B00AFB8605A89002306251900644C12
:107D00006448013309182800504320188088091A54
:107D1000B868814217DD9BB27B610023FB610623BB
:107D20005A4D5B4C6A89B9685343E3189B885B18CA
:107D300058495B186968994202D8AB89934212D1BD
:107D4000BD460BB0F0BD022A0BD0013292B29BB2FD
:107D5000032BD5D1504A51495148FEF701FF00236A
:107D6000DAE70022F3E77B69FA69934204D24D4ACD
:107D70004A494D48FEF7F4FE6B893B6106233A6998
:107D80005343E3187B607B681888484B984214D1B2
:107D9000FFF70CFE3869FFF78DFC3C4B3D495A68F4
:107DA00052185A605A890021022A01D0013291B238
:107DB0005981FB6901339BB2B0E7FFF7C1FC062292
:107DC00004008388324853432100C018FFF722FF84
:107DD0002389258AA089002B11D0668AFFF7B0FC81
:107DE0003100428A2800FFF7BCFD60600622A388AC
:107DF000274853432100C018FFF74EFFC3E7FFF7A2
:107E00009FFC628A418A2800FFF786FD3862638AF8
:107E100002339EB263687B626B463B60331C402E2C
:107E200000D940236A469BB2BB610733DB08DB0005
:107E3000D31A9D46FB602623F918023B0922F81845
:107E4000FFF7CEFD002E04D13B689D463B6A636080
:107E5000CCE7BB693D8BB34200D9351CADB22A00DB
:107E6000F98CB88CFB68FFF701FE2623761BF91806
:107E7000023BF8182A00B6B2FFF7B2FD3300012228
:107E80002900F868FFF7D4FCDCE7C046980B000037
:107E9000AC0B0000FA0F0000D70300005C7703185A
:107EA000E07C0318DD030000E57C0318FFFF000001
:107EB000F0B587B001900E890C001500002E2ED071
:107EC0000520FFF713FF09210322638A02A809187E
:107ED00004AE0B701B0A4B70002031003270FEF7AD
:107EE00003FD0B2302AA9B181870000A5870002388
:107EF00005211A003000FFF79BFCE389002D32D0EA
:107F0000EB810620A388210043431848C018FFF7DF
:107F100081FE21001648FFF703FB07B0F0BD0720E4
:107F2000FFF7E4FE0221019B04AF5B8A228A02A8CC
:107F30003970073109180A70120A4A700B22121898
:107F400013701B0A5370390005223000FEF7CCFC79
:107F50000D2302AA9B181870000A587032003300D3
:107F600007213800C7E7019A1381CAE7AC0B00006C
:107F7000C00B000013B5040001AA0089FFF748FDFB
:107F800001000A20002904D02000019AFFF790FF89
:107F9000002016BDF7B50400100015001F000B30BF
:107FA00080B20E00FFF7A2FE2A0039006582208A07
:107FB000FFF7B2FC29000223606001223000FFF7C6
:107FC00037FC2A0031000020FEF78EFC6A460300D1
:107FD0000221901D038001220023FFF729FC0620C7
:107FE000A388210043430248C018FFF755FEF7BDA0
:107FF000AC0B000064656C00F7B5060001920089C7
:1080000000221F000091FFF703FD051E16D0838894
:108010000620434317482900C018FFF7FBFD00283E
:1080200004D1154A15491648FEF79AFD28003A0072
:10803000738A0199FFF7AEFF0020FEBD1148FFF7DC
:108040003DFA04000220002CF7D030002581FFF714
:1080500079FD009BA081238233892000E381FFF713
:1080600071FD3A003081738A20000199FFF792FF79
:108070002800E2E7AC0B0000D10400005C77031895
:10808000F47F0318C00B00000FB473B5104D2E0021
:10809000123607AB288800930E4B984204D1002477
:1080A0000635B542F5D10DE0FFF74AFB009B01A96B
:1080B0000193069B04009847002801D16089EBE7F3
:1080C000002CEDD0200076BC08BC04B01847C04698
:1080D000AC0B0000FFFF0000572F54494E59465388
:1080E0003A6469722072656D6F7665207061727393
:1080F00065207761726E696E673A666C617368209D
:10810000616464723A25780070B50D0091785378F7
:1081100009020D481943FFF7B7FF041E0DD08388ED
:108120000620434309482100C018FFF773FD2100D2
:108130000748FFF7F5F9052070BD2A000120054921
:10814000FEF7EAFCF7E7C04623770318AC0B000004
:10815000C00B0000D8800318572F54494E5946537E
:108160003A7265636F72642072656D6F7665207018
:1081700061727365207761726E696E673A666C61D1
:10818000736820616464723A25780000130070B54A
:108190000D0051789278D87812020A4319790902B1
:1081A00001430C48FFF770FF041E0DD083880620A2
:1081B000434309482100C018FFF72CFD2100074860
:1081C000FFF7AEF9072070BD2A0001200449FEF731
:1081D000A3FCF7E7F7760318AC0B0000C00B000018
:1081E0005881031870747200F7B501919179537931
:1081F00009020700194324481500FFF745FF234EE5
:10820000041E2CD083880620584321003018FFF725
:1082100001FD002805D1CE221D491E48FF32FEF780
:108220009FFC019BA780E380AB786A781B02134315
:1082300023822B79EA781B021343A381AB796A79F5
:108240001B021343144A118A994200D2138206205A
:10825000784321003018FFF71FFD0920FEBD0F48AD
:10826000FFF72CF9041E05D1D22209490C48FF3230
:10827000FEF776FCAB796A791B0213436382012314
:108280005B422381E381CCE723770318AC0B00002A
:108290005C770318F47F0318980B0000C00B0000F4
:1082A000E4810318F7B51500019153789278297984
:1082B00012021A43EB780902070019432148FFF71D
:1082C000E3FE214E041E23D083880620584321005C
:1082D0003018FFF79FFC002805D1D7221B491C4806
:1082E0005200FEF73DFC0620019BA780E380AB799E
:1082F00078436A791B021343301863822100FFF729
:10830000CBFCA8796B79000218430B3080B2FEBD1C
:108310001048FFF7D3F8041E05D1D9220B490E48A7
:108320005200FEF71DFCAB786A781B0213432382D0
:108330002B79EA781B021343A38100232381013B9D
:10834000E381D0E7F7760318AC0B00005C770318E5
:10835000F47F0318C00B0000E481031862617365A9
:108360002025202830783130303029203D3D203004
:1083700000616C72656164795F696E5F6C697374CA
:108380002D3E752E6964213D746F5F696E73657251
:10839000742D3E752E696400F0B5030505008DB09F
:1083A000002B05D0C222A849A8489200FEF7D8FBAE
:1083B000A74EA84B1322142130000093A64BFFF7C1
:1083C00017F8A64C30002560FFF778F8A44B00257D
:1083D00018600123A34AA4495B4241608360C360E3
:1083E00013805380D38013819381D3819F4B05AE3B
:1083F0001B780561337009AB958002930391236864
:1084000006AF2803C0183A000621FFF723F904221B
:1084100039000020FEF768FABB88834209D10122A7
:10842000AA40337813433370029A3B8813807B88C9
:108430005380029B013504330293032DDFD1327840
:10844000002A6AD0002301211000D84005000D4009
:10845000084200D0F6E00133202BF5D180227A4982
:1084600083485200FEF77CFB29003000FFF730F90B
:108470000CAAAB00D3180CA982008A180C3B1B88ED
:108480000C3A1288591C0700914250D09B1A1BB21B
:10849000002B52DD6081A581A5890CAAAB00D31801
:1084A0000C3B1B88E381290005A8FFF711F90500A3
:1084B00083000CAAD3180C3B5C88A31F6D4A9BB2A7
:1084C00093424CD806AB092221002800FFF7CEFAD0
:1084D00002AB1B7C032B33D80E27674AD65C02AB5A
:1084E000023EFF18F6B206AB99190222380001F0DD
:1084F0001FFE3200002006A9FEF7F6F93B889842DD
:108500001ED102AB1B7C5D4A9B0021009B582800BA
:1085100006AA98472418A4B2CFE7594B2282636079
:1085200080235B01A3600223E3600DB0F0BD39003E
:108530003000FFF7CDF83D009AE76581A081ABE7F9
:10854000FF231C4205D0FF230134FF34A4B29C4317
:10855000B3E721002800FFF717F90028F3D03F4ABE
:1085600093899D429FD180205389400114814549C0
:10857000041B9D4223D35B1B02334B431C19394E12
:1085800054603788039B9F421ED13F4B0636B3424F
:10859000F7D1334E012734687F42E089FFF7D0F8E6
:1085A00001002000FFF7E4FA3068FFF7CBFA04007F
:1085B000039B9C4236D13068FFF714FBB5E75D1B87
:1085C000013D4D432C19DAE73800FFF7B9F80400F4
:1085D000234B1B680293029BD889FFF7B1F8051E55
:1085E00006D1029BDB89E381029BDF816789C9E7B2
:1085F0008289A3899A42F4D812D30389002BF0D040
:108600002389002B0CD0428A638A9A4204D11F4AE4
:108610000D491F48FEF7A4FA6A8A638A9A42E0D895
:108620000295D8E72000FFF78BF8C48905002000E9
:10863000FFF786F80028BBD08289AB899A42B7D071
:10864000EF81B5E79DB20FE75C7703185C830318F1
:10865000C00B0000800B0000040A0000980B000013
:10866000940B0000AC0B0000FFFF0000F86B031838
:108670006F830318F90F00004C8803185088031803
:10868000EE2F0000FA0F0000BE0B00007502000084
:1086900071830318F8B504000D0016001F000028B0
:1086A00004D1094A09490A48FEF75AFA2000FFF79F
:1086B00097F803000520002B05D03B00320029006D
:1086C0002000FFF7FFF9F8BD270400005C770318CE
:1086D000DA86031875707065725F64697200000055
:1086E000F7B507000D001600002904D1244A2549DA
:1086F0002548FEF735FA2800FFF772F80523002811
:1087000008D031002889FFF79DF90190002803D097
:10871000082338601800FEBD1C4B1D4A198A04232B
:108720009142F7D01B48FEF7C9FE0223041EF1D088
:10873000164B164A1B8A01339BB213824382068270
:108740002B89C381FFF7FEF901235B422881238136
:108750002800FFF7F7F9A0810920FFF7C7FA6A8A16
:10876000618A3000FFF7FDF80623606080B2434362
:1087700009482100C018FFF78FFA019B3C60C9E748
:108780008D0400005C770318D4860318980B000052
:10879000FFFF0000C00B0000AC0B000064617461BF
:1087A000006C656E67746800F8B504000F00150072
:1087B0001E00002804D1104A10491148FEF7D0F9D4
:1087C000002D04D10F4A0D490F48FEF7C9F9002EBC
:1087D00004D10E4A09490E48FEF7C2F92000FEF7FF
:1087E000FFFF03000520002B05D033002A003900CD
:1087F0002000FFF701FCF8BDEC0400005C770318D3
:10880000DA860318ED0400009C870318EE040000CC
:10881000A187031870B504000D00002804D1084A90
:1088200008490948FEF79CF92000FEF7D9FF03002C
:108830000520002B03D029002000FFF79BFB70BD13
:10884000220500005C770318DA860318090907057A
:10885000A5820318E98103188D8103180981031883
:1088600010B586B002913221002B00D1303902AC14
:108870002171010203980190684600790843039032
:108880003C20217AA2818143080008210143217202
:1088900003482100A37301F033FC06B010BDC046AD
:1088A0001D05000010B5012300F0DEF910BD000029
:1088B00007B5030C01A90B708870030A02484B70BE
:1088C00001F01EFC07BDC046E504000010B500F035
:1088D000D6F910BD10B50021014801F011FC10BD02
:1088E0000D0500007FB5EB23029102A90B710399DE
:1088F00003020191694608793F211843039002ABB6
:108900001B7A07488B4319003D230B4302A90B72C6
:1089100001238A818B7301F0FBFB07B000BDC046C9
:108920009D04000010B500F0B5F910BD7FB50B2314
:10893000029102A90B71039903020191694608791A
:108940003F211843039002AB1B7A07488B43190061
:108950000C230B4302A90B7200238A818B7301F055
:10896000D7FB07B000BDC046B904000007B500231F
:108970000A0001A90B70D3050001DB0F0343034874
:108980004B708A7001F0BCFB07BDC046F9040000C3
:1089900010B586B00292422202AC2271039AC90538
:1089A00001926A46C90D0003084311790002084389
:1089B0003C210390227AA3818A43110008220023DC
:1089C0000A43044821002272A37301F099FB06B008
:1089D00010BDC0462D05000010B586B00292482299
:1089E00002AC2271039AC90501926A46C90D0003BF
:1089F00008431179000208433F210390227AA381A2
:108A00008A4311000C2200230A43044821002272E9
:108A1000A37301F07DFB06B010BDC046C904000081
:108A200010B5541EA241074C12022263012261625A
:108A30002062216B1142FCD1A26A1A60E26A029B99
:108A40001A6010BD0024004010B504000120002C65
:108A50002ED000F0B5FA00F0C3FA0421A279236801
:108A60001007C00F1140000101439007D206800F8C
:108A7000D20F014352020A43DA608022D9681143BF
:108A8000D960A188002900D09960D968914301225A
:108A9000D960D9691143D9610421D8690143D961E9
:108AA0000448210000F0A6FA0020034BE061238374
:108AB00010BDC046BD8A03182020000002220368B2
:108AC00070B51E6B0400DD6A164214D0154212D038
:108AD000027E212A0BD1DA699203D20E07D1083225
:108AE000E189002949D10222996A0A439A62022245
:108AF000996B0A439A6380229200164216D015425F
:108B000014D0A90712D4D9698903C90E08D1996A6A
:108B100020000A439A622023616A237600F084FCD5
:108B2000802322689B00916B0B43936301231E42B9
:108B300022D01D4220D0637E222B1DD11F20302148
:108B400020252268D3691B0A034215D023691268C5
:108B50005E1C26611A70E38A2268013B9BB2E382A5
:108B6000002B16D1D36920008B4320210B43D36106
:108B70006176216A00F068FC70BD0139E181A1686D
:108B8000013A481CA0600978D2B25960002AA7D1E6
:108B9000ADE7072B03D8D3698B43D361D1E7D36902
:108BA0008B432B43F9E7F0B5057E04000220202D0E
:108BB00028D10138002925D0002A23D0636221233F
:108BC000237623680025DE69A2813043C026E56153
:108BD000D861D869013AB043D861986B4136FF3605
:108BE0003043986302209F6B07439F635F6A3E4355
:108BF0005E625E6A304358622800E2814A1CA260CD
:108C00000A785A60F0BD30B5457E04000220202D60
:108C10001ED1013800291BD0002A19D02161002162
:108C20002362E161236822316176D968A2822943F7
:108C3000E282D960D9690843D8613021072A08D86F
:108C4000DA698A43DA6101220020596A0A435A62CA
:108C500030BDDA698A431543DD61F4E700DF704710
:108C600001DF704703DF704710B5EFF31084002C6D
:108C700002D0FFF7F5FD10BDFFF7F0FFFBE710B5E1
:108C8000EFF31083002B02D0FFF712FE10BDFFF7A9
:108C9000E7FFFBE710B5EFF31083002B02D0FFF7DF
:108CA00021FE10BDFFF7DEFFFBE7000070B5836912
:108CB0000400023B1B78072B08D8054A9B009D58EF
:108CC0004168C36882680068A847206070BDC046DC
:108CD000D48C031861880318B18803182D890318F0
:108CE000E5880318D58803186D890318918903183E
:108CF000D989031810B50021044A054847F078F9CE
:108D0000044A0549054801F013FA10BD4006000069
:108D1000C0B900000000000000000818C0B9000041
:108D200080221349D205CB69C1201B021B0A1343C1
:108D3000C02210B5CB610F4B0F49920099500F4ADA
:108D400080001A500E4C04301A5004301C5004306D
:108D50001950C52189005A5004315A50C722094977
:108D600092009950C021084A49005A501A6010BD1B
:108D700000ED00E000E100E08080800080808080E5
:108D80008000808080800000082008C0492F504C5F
:108D9000463A73797320696E6974000013B5FDF764
:108DA000C7FE01201349FDF7B7FEFFF7B9FF124CCC
:108DB000124B05220C2120000093114BFEF718FBEB
:108DC000200000F0D3FF00F017FB00F027FB0D4858
:108DD0000D4B000B0003C018FFF7DEFAFF220B4B10
:108DE000D2001A641A6C0A490A401A6400F0F0FAB8
:108DF00013BDC0468C8D0318240C00001C0C000011
:108E0000E00B000094CA041800D0FFE700100240F5
:108E10000FFEFFFF10B5FFF76DFF00F02BF801F01C
:108E20007FF900F07FF8FFF7B9FF10BD014B186024
:108E3000FEE7C046D84D000070477FB504000D0026
:108E4000160001F07DF903AB2900200032000093E9
:108E500002ABFFF7E5FD01F07BF90298039904B03E
:108E600070BD7047014B18687047C046D84D000070
:108E700001207047174B184A10B51A60174B184A53
:108E80001A60184B184A1A60184B194A1A60194B85
:108E9000194A1A60194B1A4A1A601A4B1A4A1A6070
:108EA0001A4B1B4A1A6002221A4B1A7001231A4AE3
:108EB00013701A4A13701A4A13708022110010009E
:108EC000BD339B0092014901000100F005FD00F057
:108ED00035FC10BD3CBF0000516E0318F0BE000011
:108EE0002D8E0318D4BF0000398E0318C4BF0000B4
:108EF000AD9E0318C0BF0000F59E0318C0B9000066
:108F00003B8E0318D0BE0000FD060000D4BE00005A
:108F10000D070000E9BE0000EABE0000EBBE000045
:108F2000ECBE00000922094B1A70094B094A1A606D
:108F3000094B0A4A1A600A4B0A4A1A600A4B0B4A42
:108F40001A600B4B0B4A1A607047C046E8BE00001F
:108F5000BCBE0000718E0318C8BE000069940318DF
:108F6000CCBE000085940318C4BE0000A194031871
:108F7000C0BE0000A3940318FFF773FF0549064A1B
:108F8000064B9B1A03DD043BC858D050FBDCFDF7B1
:108F90005FFC0000006003180000000038080000BB
:108FA000FEE7C04604207146084202D0EFF3098074
:108FB00001E0EFF30880014908470000AD8C031879
:108FC0008022054BD20199690A439A619A69034943
:108FD0000A409A617047C04600100240FFBFFFFF81
:108FE0008023034ADB01516A0B4353627047C0463A
:108FF00000100240294B70B51C68002C00D118608D
:109000000E68274D274C2848002A23D0AE4208D1AD
:109010008022C025254B12056D005A51244D296030
:109020001A600B68A34208D18022C0241F4B52054E
:1090300064001A511E4C61601A600B68834208D1AB
:109040008022C020194B920540001A5018488160B8
:109050001A6070BDAE4207D18025164A2D05D5672E
:10906000BFF34F8FBFF36F8F0A68A24207D18024EE
:10907000104A6405D467BFF34F8FBFF36F8F0A6840
:10908000824207D180210B4A8905D167BFF34F8FF8
:10909000BFF36F8F00221A60DBE7C0466049000013
:1090A00000380140004400400048004000E100E07A
:1090B0005449000004E100E010B5034B034A1B686B
:1090C0001068984710BDC046604900005449000030
:1090D00010B5034B034A1B685068984710BDC04643
:1090E000604900005449000010B5034B034A1B6857
:1090F0009068984710BDC046604900005449000080
:1091000020222A4B10B519690A431A618022D969B5
:1091100012060A431F21DA611A698A4311001422D8
:109120000A431A611A6922490A401A611A692149D7
:109130000A401A61802219699143196119690A4329
:1091400004211A611C4A986B08422AD0002A28DCA4
:109150008022196852010A431A60DA6A1749184CCA
:109160000A40DA62D96A02222140D9628021D86A93
:10917000C9050143D9621049986B104213D00029E8
:1091800011DC8021986BDA6A890511438022D9624B
:109190001969000691431961DA6AC00E2240DA6249
:1091A00010BD013ACFE70139E6E7C0460074004040
:1091B000FFFFF8FFFFDFFFFF50C30000FFFFFFDFEF
:1091C000FFFFFFBF014B185C7047C046F0930318C8
:1091D00070477047030007221340044AC008D35C5D
:1091E0004000C01A403840B27047C046E8930318A8
:1091F0000F2070470F20704700207047F8B50126F8
:1092000010224021354CF827236D354D334323651B
:10921000236D7F0513432365236D324A0B4323657A
:10922000314B2360314B6360314BA360314BE360C2
:10923000314B236180231B0663618123DB01A36122
:109240002E4BE3612E4B23622E4B63622E4BA362A7
:109250002B781B063B401343E3622C4B23632C4BC0
:109260002365FFF74DFF2B4BC0B21870FFF748FF87
:10927000294BC0B21870FFF743FF1F21C0B22870FE
:10928000E36A264A1340E362E26A2B781B061F401A
:10929000234B13401F43E762226F2B788A430B4016
:1092A000F82113432367226F2B7849011B020B40DF
:1092B0001C490A40134323678023E26A9B0513433A
:1092C00010224021E362236DB3432365236D934352
:1092D0002365236D8B432365F8BDC04600740040B1
:1092E00066490000002064A0000FFCC30F335D60DE
:1092F0000024800F0100C920344020408000001F5E
:109300008C00EE00C82A705A1D01153F441400F06D
:10931000FD6106066449000065490000FFFFFFDFAC
:10932000FFFFFFE0FFE0FFFF10B5FFF767FF194BFE
:10933000194A1A491A601A4A5A601A4A9A601A4A0D
:10934000DA601A4A1A61802212065A6180229A61F2
:10935000174ADA61174A1A62174A5A62174A9A621A
:10936000174ADA62174A1A63174A1A65174B9A683E
:1093700011408022D2040A4380219A601A6AC900EF
:10938000520B52030A431A628022196A92010A435D
:109390001A6210BD007400403F01FEC3FFFF00E0F1
:1093A0000F335D600024800FC100C92005402040BC
:1093B0008000001F8C00EE00C82A705A1D01153F66
:1093C000002064A7447400F0AC61060600780040F9
:1093D000C023044A10B5116ADB050B431362FFF783
:1093E000A3FF10BD001002402B251F19130D07010C
:1093F000E9ECEFF2F5F8FBFE8022064B920059698A
:10940000054811435961596901405961196A0A4374
:109410001A62704700100240FFFDFFFF0423014A5B
:109420001A60704737070000054A030010B50800AE
:109430009A4203D1034B00211B68984710BDC046D8
:109440006849000094490000054A030010B508006F
:109450009A4203D1034B00211B68984710BDC046B8
:10946000684900009049000010B5044C22608AB29F
:1094700001000348FFF7C7FB10BDC046904900003C
:109480006849000010B5044C22608AB2010003480C
:10949000FFF789FB10BDC0469449000068490000F1
:1094A000704701207047000010B5FFF7B3FC1F2282
:1094B0000848094B0360094B8380837993431A0062
:1094C000032313438371FFF7BFFA00F0EBFA00F0B8
:1094D00009FBFCE7684900000038014082060000F3
:1094E0000020704700207047002070470020704720
:1094F0000020704700207047002070470020704710
:1095000000207047002070470020704700207047FF
:1095100000207047002070470020704700207047EF
:1095200000207047002070470020704700207047DF
:1095300000207047002070470020704700207047CF
:1095400000207047002070470020704700207047BF
:1095500000207047002070470020704700207047AF
:10956000002070470020704700207047002070479F
:10957000002070470020704700207047002070478F
:10958000002070470020704700207047002070477F
:10959000002070470020704700207047002070476F
:1095A0000020704700207047C3B210B5462B21D869
:1095B0000020132B25D9153B1800312B25D846F058
:1095C000CFFC2843463D40211E2B2E373A313449EB
:1095D0004C4F5255585B615E67646D6A7F7C858233
:1095E00073707976888B8E919497A0A39A9DA6A983
:1095F000ACAFB2B50020C82B03D14E4B06E0FFF74D
:109600006FFF10BDFFF76EFFFBE74B4B1B689847E2
:10961000F7E7FFF769FFF4E7FFF768FFF1E7FFF708
:1096200067FFEEE7FFF766FFEBE7FFF765FFE8E7A9
:10963000FFF764FFE5E7FFF763FFE2E7FFF762FF8D
:10964000DFE7FFF761FFDCE7FFF760FFD9E7FFF730
:109650005FFFD6E7FFF760FFD3E7FFF75BFFD0E7D9
:10966000FFF75EFFCDE7FFF759FFCAE7FFF75AFFA5
:10967000C7E7FFF759FFC4E7FFF758FFC1E7FFF758
:1096800057FFBEE7FFF756FFBBE7FFF755FFB8E709
:10969000FFF754FFB5E7FFF753FFB2E7FFF752FFBD
:1096A000AFE7FFF759FFACE7FFF758FFA9E7FFF770
:1096B00057FFA6E7FFF756FFA3E7FFF745FFA0E731
:1096C000FFF744FF9DE7FFF743FF9AE7FFF742FFED
:1096D00097E7FFF749FF94E7FFF748FF91E7FFF7A8
:1096E00047FF8EE7FFF746FF8BE7FFF745FF88E769
:1096F000FFF744FF85E7FFF743FF82E7FFF742FFED
:109700007FE7FFF74DFF7CE7FFF74CFF79E7FFF7B7
:109710003BFF76E7FFF73AFF73E7FFF739FF70E7A4
:10972000FFF738FF6DE7FFF737FF6AE7FFF736FF10
:1097300067E7C0469C49000098490000014B024A77
:109740001A607047A0BA0000A995031810B5044B21
:10975000044A19680448FEF7C3FF002010BDC04644
:10976000940B0000FEFF0000A049000073B5060046
:109770000C001500002813D11A222A492A48FDF7A7
:10978000EFF96A4623782948D3806B462A0000689F
:10979000B1B20633FEF77EFF00283ED0012023E061
:1097A00001381128EDD846F0D1FB09ECECECECECDB
:1097B0002EECECECECEC152020EC2B2B0B780420A1
:1097C000052B11D906221C300A702900FFF7AAF8D0
:1097D000002009E00B780420012B05D9022300208A
:1097E0000B7030331370507076BD0B780420012B52
:1097F000FAD902230B70DA331370D73B6B70E7E7AB
:1098000001231370E4E70B780420012BECD9022329
:109810000B70F2331370F33BF0E76B46DB88237079
:10982000E2E7C046AC9D0318C49D0318A0490000A0
:1098300010B5041E0DD15A220E490F48FDF790F9BC
:109840000E4BA1B21868FEF7E5FF431E9841C0B267
:1098500010BD01381128F3D846F078FB09F2F2F276
:10986000F2F209F2F2F2F2F2090909F2090905200D
:10987000EEE7C046AC9D0318C49D0318A049000044
:1098800070B504000D00160000280FD173220F4997
:109890000F48FDF765F90F48ABB232000068A1B27E
:1098A000FEF782FF431E9841C0B270BD01381128F7
:1098B000F1D846F04BFB09F0F0F0F0F009F0F0F0D1
:1098C000F0F0090909F009090520EEE7AC9D03183D
:1098D000C49D0318A0490000F0B5354C354D2560F6
:1098E000354C364D2560364C364D2560364C374D5F
:1098F0002560374C374D2560374C384D2560384C46
:10990000384D2560384C394D2560394C394D25602E
:10991000394C3A4D25603A4C3A4D25603A4C3B4D16
:1099200025603B4C3B4D25603B4C3C4D25603C4C01
:109930003C4D25603C4C3D4D25603D4C3D4D2560EA
:109940003D4C3E4D25603E4C3E4D25603E4C3F4DCE
:1099500025603F4D3F4C25603F4C404D404E2560BB
:10996000404C414D2560414C414D2560414C424D9C
:109970002560424C424D2560424D434C2560840891
:10998000A7007F1937608E083619404FB40064195C
:109990003C609408A419A40064193D4D2C603D4C12
:1099A00020603D4801603D490A603D4A1360F0BDBA
:1099B00040BA00003C0D000044BA0000400D000019
:1099C000F0B900004C0D000048BA0000440D000042
:1099D0009CBA00008C480000F4B90000500D000053
:1099E000DCB900004C480000E0B90000504800001D
:1099F00050BC00006048000054BC0000C848000093
:109A000048BC0000380C00004CBC0000F80C000002
:109A100088BD0000544800008CBD00005C48000078
:109A200090BD0000F00C00008CBE0000E80C0000AF
:109A3000A8BE00000C0D000090BE00008048000091
:109A40009CBE00002049000080BC0000A04800002F
:109A5000580C000078BC00007CBC0000140D000015
:109A6000ACBE0000A4BA0000080D0000C4BA00009B
:109A7000884800002CBC00001049000060BF0000B6
:109A800028490000540D0000B0BE0000B4BE000024
:109A9000B8BE0000DCBE0000D8BE0000E0BE000082
:109AA000E4BE000010B5FFF751FE094B094A0A4811
:109AB0001A600A4A5A600A4A9A6000F029F8FFF7C9
:109AC000D1F943F017F800F063F962B610BDC04653
:109AD000F4BE00006D97031804BF000081980318BE
:109AE0003198031810B543F099F8034B1B68984759
:109AF000024B1B68984710BDD0BE0000D4BE0000CA
:109B00000723024A11680B4313607047300000506E
:109B10000023F0B5040003624362734B8BB04361D2
:109B2000FFF76AFB23002C331870FFF763FB230059
:109B300094222D3318706D4BD203A3626C4BFF2619
:109B400023606C4B6C4863606C4BC027E3616C4BCB
:109B5000BF02A3616B4B6C4C1A606C4B6C4A1A6071
:109B60006C4B6D4A1A606D4B6D4A1A606D4B1A68EA
:109B70001202120A1A605A221968B1430A43C0211C
:109B80001A601A68C90002400A431A60B4221D68AC
:109B9000D20325402A431A60634B64491A688C46F5
:109BA0000A403A431A607F221D68502195436B3A60
:109BB0002A431A60A0221D68120105402A431A6038
:109BC0005B4BA0251A68ED031202120A1A601A688C
:109BD000B2430A43C0211A601A68C90002400A430E
:109BE00061461A601A6822402A431A60514B1A686B
:109BF0000A403A431A607F221F6850219743783AFF
:109C00003A431A60C0221F68920007403A431A6024
:109C1000494A4A4F13681B021B0A13603B68B3434F
:109C20000B43C0213B603B68C90003400B433B60D2
:109C30001368614623401D431560C025404BAD04A9
:109C40001F683F023F0A2F431F601F680F40C0215B
:109C500089020F431F601F6839007F27B943693F9E
:109C60000F431F60374B1F68BC466146364F394073
:109C70009827BF010F4350211F601768B7430F4358
:109C8000C02117601668C9003040014311601A688E
:109C90007F271202120A15431D601A682240C82449
:109CA000E403144336221C601968B9430A431A605E
:109CB00025236A461370243B69465A1ECA54013351
:109CC0000C2BF9D11A330B73193B69469A1ECA54EF
:109CD0000133272BF9D102AAD3771C48282200F0A0
:109CE00027FA0BB0F0BDC046C5910318019B0318BD
:109CF000D1910318D3910318FF80FFFFD59103186A
:109D0000F191031870000050FFFF00FF7400005035
:109D100020500000780000504000C0C87C00005077
:109D200000E400E48000005090000050FFFF80FF3E
:109D30008400005094000050880000508C000050B7
:109D40009C00005098000050FF00FFFF00410050B1
:109D5000054B013810B5C1B21868FDF70BFC43681C
:109D60008068984710BDC046A4490000014B1860A8
:109D70007047C046A449000010B548680B68984772
:109D8000002010BD10B5FFF7E3FF002010BD00005C
:109D900010B5044B044918780930C0B244F028F8D3
:109DA00010BDC046EABE0000C89D0318737461630D
:109DB0006B5C6578706F72745F6C69625C6E766400
:109DC000732E630074616700D49D0318A8490000D6
:109DD00001000200FFFF0000859D031800540000F1
:109DE000799D0318F0B515042D0C0F0001002E000D
:109DF000C64684460004140C000C090C46434D432F
:109E0000604361434019340C241800B5A54203D9BE
:109E10008020400280464144250C6D18614659431C
:109E20007A43300449192404000C2018891804BC12
:109E30009046F0BD084B10B50400002B02D0002165
:109E400000E000BF054B1868836A002B00D09847DC
:109E5000200000F053F9C04600000000609E031887
:109E6000C400000070B500260C4D0D4C641BA410FE
:109E7000A64209D10026FCF7DFFC0A4D0A4C641B00
:109E8000A410A64205D170BDB300EB589847013627
:109E9000EEE7B300EB5898470136F2E70000000008
:109EA0000000000000000000000000000D4B70B535
:109EB0001D680400AB6B002B0FD1182000F054F884
:109EC000094BA8630360094B01224360084B836080
:109ED0000B2383810023026143610022AB6B1C6171
:109EE0005A6170BDC00000000E33CDAB34126DE678
:109EF000ECDE0500124B10B51C68A36B002B0FD1D4
:109F0000182000F031F80F4BA06303600E4B0122C4
:109F100043600E4B83600B23838100230261436106
:109F2000A46B0B4A206961690A4BFFF75BFF0122B2
:109F3000002380185941206161614800400810BD2C
:109F4000C00000000E33CDAB34126DE6ECDE050030
:109F50002D7F954C2DF4515803000A7801311A7069
:109F60000133002AF9D1704710B5034B010018687E
:109F700000F004F810BDC046C0000000F8B503238F
:109F8000CD1C9D43083506000C2D1FD20C25A9427F
:109F90001ED8300000F094F825490A681400002CFF
:109FA0001AD1244F3B68002B04D12100300000F06F
:109FB00043F838602900300000F03EF8431C2BD1F4
:109FC0000C233000336000F083F803E0002DDEDA6C
:109FD0000C2333600020F8BD23685B1B19D40B2BC6
:109FE00003D92360E418256003E06368A2420ED120
:109FF0000B60300000F06CF8200007220B30231DAE
:10A000009043C21A9842E6D01B1AA350E3E753606C
:10A01000EFE722006468C2E70323C41C9C43A0420C
:10A02000E1D0211A300000F007F8431CDBD1C7E76C
:10A03000AC490000B0490000002370B5064D040093
:10A0400008002B6000F04CF8431C03D12B68002B58
:10A0500000D0236070BDC046B84900000000000079
:10A0600000000000000000000000000000000000F0
:10A0700000000000000000000000000000000000E0
:10A0800000000000000000000000000000000000D0
:10A0900000000000000000000000000000000000C0
:10A0A00000000000000000000000000000000000B0
:10A0B0000000000000000000000000007047704732
:10A0C00010B50248FFF7FAFF10BDC046C0490000B6
:10A0D00010B50248FFF7F3FF10BDC046C0490000AD
:10A0E000044A03001068002802D0C31813607047A8
:10A0F0000148FAE7B4490000E04D0000FEE7C04621
:10A1000001B40248844601BC604700BF0906000054
:10A1100001B40248844601BC604700BFE10500006D
:10A1200001B40248844601BC604700BF3505000009
:10A1300001B40248844601BC604700BF010800002A
:10A1400001B40248844601BC604700BFFD06000020
:10A1500001B40248844601BC604700BF0D070000FF
:08A16000F0C6FF7F01000000C2
:020000041804DE
:10CA940010B5024B00221B68984710BDC0B90000B6
:10CAA40010B5024B01221B68984710BDC0B90000A5
:10CAB40010B5024B00221B68984710BDC0B9000096
:10CAC40010B5024B01221B68984710BDC0B9000085
:10CAD400F8B5092031F016FB114D2E68002E1CD13B
:10CAE400F8BD3B00A3401E4203D02000C9B200F0B1
:10CAF4001DFA0134E4B20B4B1B78013B9C4202DA71
:10CB040029890029EDD12B68002BE9D02B89002B32
:10CB1400E6D0092031F0D4FAE2E700240127EAE75D
:10CB2400C4B90000E9BE000010B5040001280ED00D
:10CB3400022809D0002803D10920084931F0A4FAB9
:10CB4400200000F03DF910BD092031F0DBFA0C2281
:10CB54000021034833F04AFAF2E7C046D5CA041864
:10CB6400C4B9000010B500F031F810BD024B988034
:10CB7400D98019817047C046C4B90000014B188997
:10CB84007047C046C4B9000070B50125094C854002
:10CB9400236800290BD01D4205D12389002B02D024
:10CBA400092031F08DFA23681D43256070BDAB4325
:10CBB4002360FBE7C4B9000010B504000021FFF7AF
:10CBC400E3FF0021200000F089F810BDF8B5184FEC
:10CBD40086003B6804009B59002B05D00022154BAE
:10CBE400110001201B6898470423200218430021E8
:10CBF40031F054F90021382030F004FF041E08D12C
:10CC04000C4B020001001B68012098473B689C51B3
:10CC1400F8BD002520C031F0D7FD2000E560A576E1
:10CC2400103031F0D1FD0423E5762377EEE7C046DA
:10CC3400DCB900003CBF000070B5042400020443CA
:10CC4400200016000D0031F095F9002E05D0284380
:10CC5400C1B2200031F022F970BDA843F8E700000A
:10CC6400F8B50D00110004221C0006AB1E8800025A
:10CC740007AB1F8802430623044830F08FFD05707C
:10CC840087804680447030F0ADFDF8BD040A000092
:10CC9400F7B51300104A0D00126881008E58040085
:10CCA400002E17D0002D15D1316800290DD00F00AA
:10CCB40005200C3F3A890978009001952000FFF780
:10CCC400CFFF380030F0BEFD356000220121200086
:10CCD400FFF7B2FFF7BDC046DCB90000F0B5334F33
:10CCE40087B0830004933B6882009D5804220302AA
:10CCF4001A43040003910592002D27D02C481100FB
:10CD040030F0CAFC2868002807D0039B002B23D1ED
:10CD1400462219002000FFF7BBFF012629690029DC
:10CD24001ED1E868002801D030F0F8FE214AAB7E1D
:10CD340011895B1813816E68002E17D13B68049A21
:10CD4400985830F0EBFE3B68049A9E503F210598BA
:10CD540031F0A4F807B0F0BD0C3830F073FDDCE717
:10CD6400039A2000724001F00DFFD7E7281D31F02F
:10CD740089FD039B0600002B0DD182880E4B9A423D
:10CD84000DD1039B02890193438A0621009320005D
:10CD94004623FFF765FF300030F0C0FECBE7074BBA
:10CDA400210002201B689847F5E7C046DCB9000063
:10CDB400140A0000C4B90000120A00003CBF0000BD
:10CDC40070B5040001282FD002282BD0002814D1DC
:10CDD4001A491B4B1B4D0B601B4B04201B6804267C
:10CDE4004B602B78013B0B81184B1B884B8130F037
:10CDF400FDFF2B78013B9C4200DB70BD20023F21EC
:10CE04003043013431F04AF8E4B2F2E72000012162
:10CE1400FFF764FF0134E4B20A4B1B78013B9C42E8
:10CE2400F4DBEAE70024F7E7064B00211A78084B05
:10CE3400013A1868920033F0D9F8DEE7D0B900005F
:10CE440044DA0418E9BE0000E0B90000ACDA0418C2
:10CE5400DCB900000F4B70B51B688200D5580E4B2F
:10CE64000C001B78013B984205DB00220B4B1100A0
:10CE740001201B689847002C05D00022074B1100A5
:10CE840001201B689847A4006359181E00D0187825
:10CE940070BDC046DCB90000E9BE00003CBF000024
:10CEA4000D4B70B51B688200D5580C4B0C001B78D9
:10CEB400013B984205DB0022094B110001201B684D
:10CEC4009847002C05D00022054B110001201B6857
:10CED4009847A400605970BDDCB90000E9BE0000A9
:10CEE4003CBF00000E4B70B51B6815008200D6587D
:10CEF4000C4B0C001B78013B984205DB00220A4BCB
:10CF0400110001201B689847002C05D00022064B15
:10CF1400110001201B689847A400A55170BDC046AC
:10CF2400DCB90000E9BE00003CBF0000F0B5AB4B2B
:10CF340082001B688FB0D358070008910493002B1C
:10CF440000D143E15C68231E02D00B005A1E9341BA
:10CF5400042206933B021A430B92069B002B00D13A
:10CF64002CE1162308AA9B1800221A8015230125F8
:10CF740008AA9B181D7014F049FB0590002805D1E0
:10CF8400974B020001001B6828009847954A059BAF
:10CF9400944663440993A188934B994235D0934BAB
:10CFA400994200D0A9E0152208ABD218E3892000E9
:10CFB400591E8B4113700092162208A952182100A1
:10CFC400099B0E31103000F0E5FD0300051E03D16E
:10CFD400228A002A00D095E0002122890191618AE9
:10CFE400380000910621FFF73BFE049B181D31F029
:10CFF40049FC200030F026FC002D00D17BE0059890
:10D0040014F05EFB00230693D4E002213800228A48
:10D0140001F09CFD061E00D1DCE0431CDB7FDB0736
:10D0240000D4D5E0438BE5890793A38A0A93002DA6
:10D0340016D11D00079B02359D4200D91D00ADB2DB
:10D04400B18B002904D1664B0A0001201B68984764
:10D05400B38B013BB383638A0133638200230EE005
:10D06400A81C0799FFF72CFD079B0A9A5B1A551B0E
:10D074009D4200D91D00ADB28BB20029E0D05A1EEA
:10D084009341152208A9DBB2521813701622029399
:10D094002300521821000E33019500933800099B98
:10D0A400103100F003FD051E03D1E289A38A9A42E0
:10D0B40015D1B37B618A2289380001910093042140
:10D0C4002B00FFF7CDFD049B181D31F0DBFB200086
:10D0D40030F0B8FB002E8FD0002373608CE7B58B43
:10D0E400002D0FD102230136F27F1343F377049B03
:10D0F400181D31F0C7FB069504E0394B3A000320B4
:10D104001B689847380007F001FA082301000B9ABE
:10D11400374830F043FB162308AA9B1819880500EA
:10D124004180002904D12E4B0320A2881B68984714
:10D13400059B38006B6007F0E9F9000B08D0284B19
:10D1440038001E6807F0E2F92A4902000320B047BC
:10D1540038002E8807F0DAF91523360B360336B279
:10D16400064308AA2E809B181A78234E13033342D1
:10D1740005D0C0211A4B03201B68890198472B88CE
:10D1840008AA1E4015239B181B7828001B031E4366
:10D19400B604B60C2E8010F073FD184A0899138952
:10D1A4000139013B1381049B049A9B7E01339376DE
:10D1B400CBB20893089B002B00D0CEE6049B38002A
:10D1C40059684B1E9941C9B2FFF7DEFC0FB0F0BDA0
:10D1D40033256EE73325237C6CE7C046DCB90000B9
:10D1E4003CBF0000004000500D0A0000120A00007D
:10D1F40006110000FF0F0000FFCFFFFFC4B90000BD
:10D2040010B5024B1B68984710BDC046C0BF000054
:10D2140000207047F7B510000D0014001E0030F018
:10D22400A9FE240A462329783F2803D04B1F5A1EFF
:10D23400934142330027E879AA7900020243019717
:10D24400200000923200FFF70BFD3800FEBD73B5DD
:10D2540010000E00150030F08DFE00243F280AD087
:10D26400F388052B07D13378280AA34205D1311D51
:10D2740001F008FC0400200076BD332BFBD0717A4A
:10D28400312B05D1012200941A3B01F093FBF2E704
:10D294000029F0D0230022000094F6E7F0B50888B6
:10D2A40089B00005000D059107F014F90600FF2868
:10D2B40058D04E4B82001B68D558059B59684C4B7F
:10D2C400CB180793002904D14A4B0A0001201B689C
:10D2D4009847059B02AA5B885382059B1B889B0485
:10D2E4009F0F002D05D1434B2A00290001201B6804
:10D2F4009847012F04D0022F34D1300000F0E4FE0F
:10D30400EA7E2B7F9A4208D2122302AA9B181A00A3
:10D31400300007A900F038FF0227EC68002C21D068
:10D32400A188354B994225D0344B994258D1029764
:10D3340002AB5B8A22000193079B210000932B0020
:10D34400300018330E32103100F066FD002802D18F
:10D354002B8B002B06D10023EB60207320000C30B4
:10D3640030F040FA059B586880B214F0FFF80020B2
:10D3740009B0F0BD2A0002AB18325B8A0192220088
:10D3840021000E32029700923000079A103100F00B
:10D39400C3FB071E02D12B8B002BE3D101213000EC
:10D3A400228A01F0D3FB011E16D0431CDB7FDB076E
:10D3B40012D5002F0BD1E289A38A9A4204D1876047
:10D3C40020000C3030F00EFA0023EB60CAE73A007C
:10D3D400300001F02DFCF7E7E86830F09FFBF3E73D
:10D3E400044B320003201B689847BBE7DCB90000FC
:10D3F400004000503CBF00000E0A0000130A000069
:10D4040070B510000D00140030F0B4FD3F2808D0B2
:10D41400240A00212000FFF71DFD01280DD0022859
:10D4240001D0002070BD01216A88200001F08EFB2C
:10D4340001220100200001F0A5FB4522002120006B
:10D44400FFF726FCEDE70000F7B5150010000C000F
:10D454001F0030F08FFD2D0AEEB23F2838D023781C
:10D46400042B0BD043230025A2883000009221789E
:10D474003A000195FFF7F4FB280022E00121300077
:10D48400A28801F063FB002824D04368002BE9D173
:10D494002189028B91421FD844606380C38AA38090
:10D4A400838B002B0ED021000C4BAD001B680C3974
:10D4B400E858043031F09EF901213000FFF764FB95
:10D4C4000120FEBD02230130C27F1343C377F7E777
:10D4D4004623C8E73323C6E73123C4E7DCB9000099
:10D4E400F7B5140010000D001E0030F043FD220AB1
:10D4F4002978D7B23F2813D04323062911D1290014
:10D504000D4B92001B680C39D058043031F072F97D
:10D5140038000121FFF738FB002301206B80FEBD9A
:10D5240046230024EA883800009201943200FFF771
:10D5340097FB2000F3E7C046DCB90000F7B5009183
:10D54400132B0FD1FFF71AFB0024009B01909D1CA5
:10D55400009B1B78A34207D8019B002B02D1092012
:10D5640030F0AEFD0020FEBD288806F0B3FF0200B7
:10D57400FF2814D00C4F86003B689B59002B04D124
:10D584000A4B032029881B689847094B69881A8924
:10D594008A181A813B689A59937E5B1A93760134F0
:10D5A400A4B20235D4E7C046DCB900003CBF000099
:10D5B400C4B90000F0B5100087B00D00049230F03B
:10D5C400D9FC3F2800D179E0049B02211F0A3800CE
:10D5D4002A8801F0BBFA041E00D16FE0AB7837262D
:10D5E400002B36D0431CDA7F012316001E401A425A
:10D5F40000D072E02B8905930BF0EEFD059B984259
:10D6040000D26CE02B89162B00D868E06B89059357
:10D614000BF0E8FD059B984200D262E06989162967
:10D6240000D85EE0288908180130FFF739FAEB8842
:10D63400984258DAAB88002B43D0AA881300403BA9
:10D644003F2B52D80121380001F080FA002800D085
:10D654003E26AB883000E3812B8923826B89638269
:10D66400EB88A38201F054FA0100208AE21CE389CA
:10D67400D27F0290608A0190A08A0090380001F065
:10D684001FFBAB78002B12D00C23E18B049A1B48B0
:10D6940030F084F8A38906704380E3898380A38BE8
:10D6A400C380238B0381638B438130F09BF8002E6E
:10D6B4001DD101230134E27F1343E377002007B037
:10D6C400F0BD4023AB8001213800AA8801F03EFA66
:10D6D4000028B2D0AB880133F4E74326B9E73126FA
:10D6E400B7E73226B5E73D26B3E73326B1E7002294
:10D6F4002100380001F046FAE0E7C046080A0000BD
:10D70400190010B5030A04000A2B08D18A4206D076
:10D714000448083B30F042F8048030F063F80020FD
:10D7240010BDC0460F0A0000F0B585B004000D001E
:10D7340016000293002905D00022244B1100012079
:10D744001B68984708202302184330F013FC3378F1
:10D75400070003933F2828D029002000FFF7A0FBEF
:10D7640001231A00864203D02F41DA181F4208D041
:10D77400100005B0F0BD039A934218D0029B013308
:10D784000293029B1B78002BF5D14025300030F02A
:10D7940060F8002605230200009320002B00039963
:10D7A4000196FFF75DFA3200E2E74325EEE7320027
:10D7B400012629002000FFF795FB3100A940320023
:10D7C4002000C9B2FFF738FAEDE7C0463CBF0000BD
:10D7D400F0B5170A022285B003AB1A800D000A00C7
:10D7E40038000021FFF7A0FF0600012826D1010020
:10D7F4006A88380001F0AAF9041E25D0431C01935D
:10D80400DB7F334203D1831CDB7F002B1CD0FFF76B
:10D81400F7FCC0B2002814D06870E38AE2893800AB
:10D82400697801F06FFA0122631CDB7F134205D093
:10D83400A6219343019A0234E177D377300005B0EF
:10D84400F0BD01236B70E8E7332200213800FFF7B5
:10D854001FFAF3E7F7B50C00032101AB170A19808F
:10D86400220000213800FFF75FFF0600012829D1BC
:10D8740001006288380001F069F94722051E1DD0B5
:10D88400431CDB7F334219D0A188073A002915D005
:10D89400808A0E4B1B1A994210DCFFF7B1FCC0B210
:10D8A400002811D06070A388EA893800617801F0FB
:10D8B4005AFAA288AB8A9B180022AB820021380056
:10D8C400FFF7E6F93000FEBD6670ECE7FFFF0000ED
:10D8D400F0B5120A8BB005926A460C000121177D3F
:10D8E400079309AB1980220000213800FFF71CFFC1
:10D8F4000690012865D16388002B00D17AE0258940
:10D904000BF06AFC854200D976E023893126162B78
:10D9140000D866E065890BF065FC854200D96DE0AE
:10D924006189162900D869E0208908180130FFF7B9
:10D93400B7F8E388984200DB62E0A388002B43D069
:10D94400A2881300403B3F2B4AD80121380001F044
:10D95400FDF8011E44D160880BF044FD86B2002E10
:10D964003FD10121242030F04DF805006388059A49
:10D974008381A388C682C381238992000382638939
:10D9840029004382E38806848382079B4660C3831D
:10D994001C4B86601B68D058103030F061FFFFF7D5
:10D9A4002FFCC0B2002822D06070288AEB89AA8993
:10D9B4000290688A61780190A88A0090380001F08A
:10D9C40051F906980BB0F0BD4023A3800121380023
:10D9D400A28801F0BBF80028B2D0A3880133F4E791
:10D9E400332600213800F2B2FFF752F9E9E70123A8
:10D9F4006370DAE73A26F4E73126F2E73226F0E7F5
:10DA04003D26EEE7DCB9000070B50D0004211400DA
:10DA14001A0004AB1B8800024A3301439BB204483A
:10DA24002FF0BCFE0623C58004720370083070BD5D
:10DA3400120A000010B508382FF0D4FE10BD000003
:10DA4400FFFF000005D70418120A0000E5D40418EB
:10DA54000D0A00004DD40418100A000019D204184D
:10DA6400050A0000D5D80418070A0000B9D504181F
:10DA74000B0A000059D80418090A0000D5D7041865
:10DA8400140A000005D404180311000041D5041839
:10DA940006110000A1D20418130A000053D204187E
:10DAA400040A000015D204180D00000070B5180017
:10DAB40004AB20CB1C8806AB1E7800239E420BD1FE
:10DAC400230A047043700B8883701B0AC3702B886D
:10DAD400002B16D0042304300E4E1C19B688B44211
:10DAE40000D93400A4B21480E41A2B88A4B20633FB
:10DAF4002200C91832F05EFA2B880020E4182C802A
:10DB040070BD8B88023C03711B0A4371A4B20623C7
:10DB14000630E1E7C4B90000F7B51F000AAB1B7873
:10DB2400089D099C00910192012B1DD0184B2A8855
:10DB34001B688000C1580423002A03D12388023BB8
:10DB440023800623CE7E2888009AF61AF6B21D3367
:10DB540006301018C918320032F02CFA2B88F3184A
:10DB64002B8023889E1B268023883420BB420ED31F
:10DB74002888009B06303A001818019932F01AFAE6
:10DB840000202B88FB182B802388DF1B2780FEBDF9
:10DB9400DCB90000F0B587B00293002313800C9B1E
:10DBA40005001B78160004910093002B00D009E1B6
:10DBB400038043880179052B0DD0062B2ED0042B2E
:10DBC40000D01BE1904B522900D11BE11F22D22926
:10DBD40003D1152205E017228C4B914200D30FE1AB
:10DBE4000A009200D3580193002B00D108E1029B54
:10DBF4006C1D19715F1D2B8801332B803388013311
:10DC0400338000230393019B1878009B002800D1E4
:10DC1400AFE0002B05D0009807B0F0BD0F227C4B7D
:10DC2400DBE7019B0133059352280FD8402811D913
:10DC3400413811280ED832F091F955100D0D0D0D03
:10DC44000D0D0D0D3B2F0D0D0D8F0D4857280FD0C9
:10DC54006C2854D0342300931AE0237801343B70A9
:10DC64002B88013701332B803388013333800FE055
:10DC740001342000012398432B88841C02332B8019
:10DC840033880233338003883B701B0A7B7002376E
:10DC9400019B01330193B6E7012301349C432B8894
:10DCA400023402332B803388039702333380EEE748
:10DCB40021003800102232F07DF92B881034103303
:10DCC4002B80338810371033D0E721003800082226
:10DCD40032F070F92B88083408332B8033880837E6
:10DCE4000833C3E721003800062232F063F92B8899
:10DCF400063406332B80338806370633B6E7012310
:10DD040001349C43637822781B021343019A023442
:10DD14005278572A1BD15B009BB23E4A31889088C7
:10DD24002A889A182A80021F521A92B201929A42A1
:10DD340000D901932100019A380032F03BF9019A8D
:10DD44003388A4189B183380059B0193A0E7422ACB
:10DD5400E3D0059B01937DE721003800202232F0B7
:10DD640029F92B88203420332B8033882037203323
:10DD74007CE7002B00D04EE7039B002B06D03388B2
:10DD8400039A043B9BB213701B0A53702F880BF049
:10DD940023FA874213D82B88029A13701B0A5370F4
:10DDA4006B8893701B0AD3703288131D33802B88C1
:10DDB4009B1A2B80049B0435641B1C802BE73123A6
:10DDC4000093F7E7134A038892889A4200D91A000D
:10DDD400049B291D1B880298C91894B232F0EAF8F2
:10DDE4003388049AE3183380049B1B88E318138058
:10DDF4002B881C1B00232C8000930CE73323FBE7A8
:10DE04003423F9E71422ECE664E404181CE504184E
:10DE1400E0E40418C4B90000F0B58DB0079312AB68
:10DE2400069204CB01911B880B92039314AB1B78CD
:10DE3400022B00D0EEE09F4B80001B68C358049374
:10DE44000B79498805290ED0062900D102E104295D
:10DE540011D1994A522B00D129E11F21D22B00D094
:10DE6400FAE01523FCE0049A0332D27F002A00D0A2
:10DE74001AE13F2606E0019B03201A888F4B3326C4
:10DE84001B6898470222019B5B889343042B04D0B0
:10DE9400049B019A0333DB7F537130000DB0F0BD56
:10DEA40057280DD06C2850D0342605E02B78013744
:10DEB400237001350134FFB2029B01330293DDE08C
:10DEC400013423000122697893432A7809020A4322
:10DED4009C1C1A8002350237EDE72900200010222D
:10DEE40032F068F8103410351037E4E7049B1B7FD8
:10DEF400043BDB1B09930593202B01D920230593B5
:10DF04006B461B7D29002000059A0A9332F052F8D3
:10DF1400099B1F2B01D801230893059BE418ED18D6
:10DF24000A9BFF18C7E729002000082232F042F8B4
:10DF3400083408350837BEE729002000062232F0ED
:10DF440039F8063406350637B5E70122019B01345A
:10DF54009443029A1B8852785B1A9BB2572A1AD1AF
:10DF64005B08049A2900127F2380043AD2B2D71B9B
:10DF7400FFB20234200005923A0032F01BF8019BF4
:10DF8400019A1B88E41902331380099B059F0293AD
:10DF94000123089390E7422AE3D0099B02930123CB
:10DFA400089381E7002E72D1914270D8029B01330D
:10DFB4000993522800D973E7402800D874E7413800
:10DFC400112800D970E731F0D3FFB7FF71FF6FFF5D
:10DFD4006FFF6FFF6FFF6FFF6FFF6FFF6FFF88FFB4
:10DFE4007BFF6FFF6FFF6FFF91FF6FFFAEFF089B1B
:10DFF400002B01D191424AD1079B521A1A80019BEE
:10E004000433E41A069B1B881C19069B1C80002EF3
:10E0140000D037E7039B002B1AD0079B039A1B8879
:10E024003426934200D238E7069B019819880430BD
:10E0340040180B9931F0BEFF069B039A1B88D31836
:10E04400069A1380079B039A1B889B1A079A1380CE
:10E05400002622E70F211A4A3F268B4200D311E7FC
:10E064009B009B580293002B00D102E7019B0127E0
:10E074005C1D00231E00049D08932235029BB9B247
:10E084001878079B1A8800288CD19142AFD9019B3C
:10E0940034265B88052B00D0F4E6019B1B88172BE4
:10E0A40000D8EFE6033EEDE61721064AD4E7142331
:10E0B400D6E7C046DCB9000064E404183CBF0000A5
:10E0C400E0E404181CE504182C4B82001B6870B5AE
:10E0D400D4580500E068002820D0294B82889A4251
:10E0E40016D10121028A280000F030FD011E05D05E
:10E0F400002334228360280000F09AFDE0682FF0AA
:10E10400A1FB0023E3600023E3760433237770BD8F
:10E1140034230C3003702FF065FBF2E7E37E227F9B
:10E124009A42F0D9032BEED90420611CC97F2A023C
:10E13400E57F09020D4313B229B20243052D1BD01A
:10E14400062912D0814215D0110033264A230D48E6
:10E154002FF024FB0023067043808380C580A31C1A
:10E16400DB7F03722FF03EFBCDE70821194389B210
:10E174003426EBE70621F9E71100F9E7DCB90000E2
:10E184000E0A0000130A0000F0B50E00A24B17009F
:10E194001B68820085B0D5580190E87E2C7FA04290
:10E1A40025D23B88002B01D105B0F0BD241A9C4236
:10E1B40000D91C001D3022003168281831F0FAFE05
:10E1C400EB7E1B19EB763B881B1B3B8033681C19C9
:10E1D4003460EB7E042BE0D1AA7F6B7F12021343E1
:10E1E400172B00D917232A7F9B182B77D5E7A0423A
:10E1F400DAD1AB7F6A7F1B021A436B1C0092DA7F71
:10E20400EB7F120213431AB20393403B3F2B00D916
:10E21400A7E00121039A019800F098FC041E00D1A4
:10E22400E7E0431CDB7FDB0700D4E2E08668002ED6
:10E234003BD033000C3BEB6033897088029300279A
:10E24400618A009B99426AD3A38A9C46002B00D121
:10E2540083E0228A029B9A4200D280E0002834D1D3
:10E264009A1C009B9A4235DB002F59D16346013B2F
:10E27400A382002E30D1019A029B100204220A3399
:10E284009BB20243E18B65482FF088FA0123C380D7
:10E29400039B47808380029B038103000C3BA060A7
:10E2A400EB600770009B2B834AE0009B012B08D98D
:10E2B400EB1CDB7F30001A02AB1CDB7F13430293A1
:10E2C400BDE7300034270296BAE7009BC218029BD0
:10E2D4009A42C9DD342723E0F488009B01340230DC
:10E2E400C018A4B24B1EF480C018FEF7D9FB80B24C
:10E2F4008442D7D90421019B49481A0211430623B9
:10E304000A002FF04BFA03230370039B438001237D
:10E314008380F388013BF3802FF064FAC2E732274D
:10E3240001983A00210000F083FCE868002803D03B
:10E334002FF088FA0023EB600023A360332F58D01A
:10E34400E868002800D12FE7002F00D12CE70C301B
:10E354002FF048FA0023EB6026E73B27E0E731275C
:10E36400DEE70426AB1CDB7F0293019B19020BB290
:10E374000E43052A38D0062A31D0042A39D106247E
:10E3840001981C4303F0CCFE009B31279842804146
:10E39400A4B20740009B002B00D134270AF01CFFD5
:10E3A400009B984222D34A23002F02D1009B4A3378
:10E3B4009BB2320021001B482FF0F0F90023438068
:10E3C400039B0770C3807B427B41009A5B421340EE
:10E3D4008380029B0C3803751300E86063E708240C
:10E3E4001C43A4B20027D5E73400FBE731274A23B6
:10E3F400DFE70422019B0B48190211434A230A0058
:10E404002FF0CCF933270023039A43800770C2808E
:10E4140083800C38E86093E7DCB900000E0A000042
:10E424000B0A0000130A000042574200426C4200EB
:10E434005757576C42004B0057520042410050500E
:10E44400004257576C5700424C575700424C57579D
:10E45400575700424C5700424C57575757570000E4
:10E46400000000002CE4041859E4041859E40418CA
:10E474004DE4041830E4041834E4041831E40418B6
:10E4840035E4041830E4041859E4041831E4041899
:10E494004DE4041831E4041848E4041831E4041881
:10E4A40035E4041830E4041836E4041841E404188C
:10E4B40036E4041836E4041835E4041835E4041882
:10E4C4002CF4051841E404180000000036E4041894
:10E4D4000000000036E4041841E4041800000000C1
:10E4E40014F4051814F405183AE404183AE404186A
:10E4F4002CF405183AE404183CE404183AE404182B
:10E504003FE404183AE404182CF4051842E404180F
:10E514003AE404182CF405180000000045E404183B
:10E5240000000000000000000000000000000000E7
:10E534004BE404184BE40418000000000000000041
:10E5440000000000000000000000000000000000C7
:10E5540000000000000000000000000000000000B7
:10E5640050E4041857E404185BE404185BE404184A
:10E574004BE40418F8B50E008A880221050000F067
:10E58400E5FA041E0ED0471CFB7FDB070AD5818BFE
:10E594001D4BF2885B1A9A4206DD01003D222800D9
:10E5A40000F046FB0020F8BD002AFBD004232A0219
:10E5B400C18B1A4315482FF0F1F8F288A38BD318B6
:10E5C400A383E389428003802FF00CF9FA7F930739
:10E5D400E8D56368002B04D10D4B290003201B6888
:10E5E40098470222FB7F9343FB770A4BAA001B68E0
:10E5F4006168D0580C39043030F0FCF8012128004F
:10E60400FEF7C2FACEE7C046FFFF00000C0A000086
:10E614003CBF0000DCB90000F7B50D000021060086
:10E62400FEF73EFC00285BD06A7843789A4257D1C3
:10E634000178012954D18288300000F087FA33230D
:10E64400041E019347D0042733021F433900264890
:10E654002FF022F8AB890B2B44D8244AD35C0193C6
:10E66400002B06D1AA881300403B3F2B07D94C232B
:10E67400019300222100300000F084FA2BE0EB88A3
:10E68400162BF4D92B89162BF1D90221300000F076
:10E694005DFA0028EBD13A000C23E18B14482FF0EB
:10E6A4007DF8AB88E382EA8822832B8963839C46C6
:10E6B40001236989651CA183EF7F3B43EB77A38921
:10E6C4004380E389C18083806346438100230281C0
:10E6D40003702FF087F800213000019AFEF7D8FA72
:10E6E4000020FEBD3C23C3E7140A0000C4EA04185A
:10E6F400080A000070B50D0000210400FEF7D0FBED
:10E7040000281ED06A7843789A421AD10378022BE3
:10E7140017D101214288200000F018FA4725011E74
:10E7240004D00122200000F02DFA00250421230248
:10E73400054819432EF0B0FF2A0000212000FEF7FF
:10E74400A7FA002070BDC046140A00001523F0B5D6
:10E7540089B002AA05009B18162288880F0002A916
:10E76400521829000AF024FE84B2472C00D193E009
:10E774000121280006F008F802AB01005E7D0028A4
:10E7840000D071E0B3070CD0280005F0FDFF00288D
:10E7940006D00221280005F0F7FF3924002800D113
:10E7A4003624E0B200F0B4F90590002800D07AE0F5
:10E7B400FA881300403B3F2B01D9092305933B8979
:10E7C400162B00D86AE07B89162B00D866E002215C
:10E7D400280000F0BBF90A23002800D062E00121E0
:10E7E400B8880AF0FFFD00285BD1059B002B5AD1A5
:10E7F4002A02043302A91A43C98A04332F482EF08B
:10E80400CDFF0121060024202FF0FCF8BB88059AD7
:10E814008381C281FB8802AAC3823B8904000383EB
:10E824007B89AD004383BB8921008383D38AC3835F
:10E83400042303847A78C31CDA77059B43608360DE
:10E844001F4B1B68E858103030F00AF8A3893000D9
:10E854003380E38A7380238BB380638BF3802EF041
:10E86400C1FF002009B0F0BDB3070CD402AB5B7D3F
:10E874005B0700D495E7280005F0C0FF0F2800D9F6
:10E884008FE738248DE7280005F0A2FF03231E40FC
:10E89400B04200D284E7E9E73A2482E70B230593E8
:10E8A40095E704230593002328007A7805990293B9
:10E8B4000193009300F004FAD3E7C046060A00006F
:10E8C400DCB90000F8B50E00CA880221050000F08A
:10E8D4003DF9041E12D00127421CD37FBB43D377DA
:10E8E400A322831CDA77C28AC3897178280000F0D6
:10E8F40027FA3A002100280000F044F90020F8BD6E
:10E90400F8B58B8804000D004C27022B01D8274A48
:10E91400D75C00212000FEF79DFA431E060000216B
:10E92400012B03D82000FEF7BBFA4178042322020E
:10E9340010B21A436B788B422ED111001C482EF072
:10E94400ABFE012E14D100212000FEF7A9FA002805
:10E9540007D082883100200000F0F8F80022011E60
:10E9640016D120003A000021FEF792F90020F8BDEC
:10E97400022EF6D100212000FEF792FA0028F0D0F2
:10E9840001214288200000F0E1F8011EE9D00122B3
:10E99400200000F0F7F8E4E708230343280099B2C5
:10E9A40008382EF03EFF0120E1E7C046D0EA041803
:10E9B400140A0000F0B585B01C000AAB1E880027BD
:10E9C4000423150002020391134305210122009739
:10E9D400FFF71AF88580012D03D0022D0FD0C780D0
:10E9E40003E00472240AC5804472039B4370C38805
:10E9F40001335B004380FFF71DF805B0F0BD0472DE
:10EA04008672240A360AC5804472C672EDE773B56D
:10EA140005000E0005F090FD041E08D1030002005D
:10EA2400009071782800FFF7C5FF200076BD08210B
:10EA3400042230002D022BB2194308382A4389B22C
:10EA44002EF0EFFE0120F1E737B504000D0005F0CC
:10EA540073FD012809D16978002520002B002A00C4
:10EA64000095FFF7A7FF28003EBD082104222800D7
:10EA7400240223B219430838224389B22EF0D1FE6E
:10EA84000120F1E773B5082300240D790B4A1678A9
:10EA9400AE4200D15468013BDBB20832002BF6D100
:10EAA400002C02D00431A04776BD4979230022000E
:10EAB4000094FFF77FFF2000F6E7C046D4EA04186D
:10EAC400003C3A3C3536373839333E403C3133002C
:10EAD4000100000005E90418120000004DEA0418C2
:10EAE4001300000013EA041806000000C9E8041823
:10EAF40007000000F9E604181400000051E70418A8
:10EB0400150000001DE604181600000079E504183D
:10EB1400030000B500280DD0353BDAB218000623F7
:10EB2400052A07D8052804D831F018FA0608030A7C
:10EB34000C0E062398B200BD0423FBE70523F9E776
:10EB44000723F7E70823F5E70223F3E70C4B8000DC
:10EB54001B68C058002811D0006900280ED0012974
:10EB640008D0022908D0002902D18389934205D014
:10EB74000068F2E7C389F9E7C38AF7E77047C0463C
:10EB8400DCB90000F0B5284B85B01B680392820005
:10EB9400D658070030000C0010302FF07DFE631CA7
:10EBA400D97FA0894907C90F0AF036FC039B002BC3
:10EBB40010D004233A021A43E18B1C482EF0EEFDD8
:10EBC400E3890380A31CDB7F002B00D146338370D1
:10EBD4002EF008FEA068002807D0F3680C388342A2
:10EBE40001D10023F3602EF02DFE6568002D15D0B1
:10EBF4000C3D2900301D2FF04FFE039B002B0AD043
:10EC0400002063682A89197801909B883800009352
:10EC14004623FEF725F828002EF014FE20002EF0DF
:10EC24007DFF05B0F0BDC046DCB900000A0A000053
:10EC3400042370B50C0001021943150008480A00AA
:10EC44002EF0ACFDE3894380022303702EF0CAFD4D
:10EC54000121621CD37F02348B43D377E57770BDE7
:10EC6400090A0000F0B5042487B01D000CAB1B8812
:10EC74000F0003930DAB1B88160004930EAB1B8887
:10EC84001422059303021C4300230521009323004F
:10EC9400FEF7BAFE039B47708381049B8680438101
:10ECA400059BC5800381FEF7C5FE2100024A034887
:10ECB4002EF072FC07B0F0BD30750000140A00009D
:10ECC400F0B585B01C000AAB1F880BAB1E880CABDB
:10ECD4001B881500039304230202134300220291AC
:10ECE400009205211532FEF78FFE039B4570C38009
:10ECF400029B8480478106818381FEF79BFE05B0D9
:10ED0400F0BD0000F7B504241D0003021C430023DA
:10ED14000F0016000521062200932300FEF774FE5F
:10ED24004770C6808580FEF785FE2100024A0348AD
:10ED34002EF032FCF7BDC04630750000140A000006
:10ED440073B51C00042315000202134300220E00B5
:10ED5400009205210732FEF757FE46708580C48075
:10ED6400FEF768FE73BD73B51C0004231500020290
:10ED7400134300220E00009205211632FEF744FED2
:10ED840046708580C480FEF755FE73BD7FB50500CF
:10ED94000E001400684610220A4931F00BF90C20C9
:10EDA400042C03D0022C01D00020102431002200B6
:10EDB400684431F0FFF828001022694631F0FAF86F
:10EDC4007FBDC04620F5041870B516001D0088B03C
:10EDD400022909D1022B0BD12A00310031F0DCF8D1
:10EDE40044424441E4B206E0042907D1042BF3D0A1
:10EDF4000024102D04D0200008B070BD1029F7D1D4
:10EE04000A0001006846FFF7C1FF2A00310004A888
:10EE1400FFF7BCFF1022684604A9DFE707B513001B
:10EE24006A46063213800223FFF7CEFF0EBD0000B0
:10EE340030B51025040085B02A006846084931F031
:10EE4400B9F8210002220C3103A831F0B3F82B00E9
:10EE5400220029006846FFF7B7FF05B030BDC04661
:10EE640020F5041830B51025040085B02A00684642
:10EE7400084931F09FF8210004220C3103A831F035
:10EE840099F82B00220029006846FFF79DFF05B082
:10EE940030BDC04620F50418F0B587B002930CAB22
:10EEA400009204CB01901F880FAB1B7800250493BC
:10EEB40004ABD9800123072118000392029A9342DC
:10EEC40036D31626681C032170432EF09BFD019B4C
:10EED400049A1B880400038060239A4304AB4571A1
:10EEE40047800271991D0222063031F063F8012730
:10EEF40000220E9D0835029B9F4229D3200000F07A
:10EF040059FB051E0ED12388019A010013800722A4
:10EF14000300944601270298CAB2904202D903988A
:10EF240000283AD120002EF0F9FD280007B0F0BDEA
:10EF3400009A002A07D0009CDA08A25C1C000C404E
:10EF44002241024201D00135EDB20133DBB2B5E713
:10EF5400009B002B07D00099FB08CB5C07213940AC
:10EF64000B41DB0715D533005343E988E3181985B2
:10EF7400A9881448014059856988D984531C18000C
:10EF84007043022229002018049331F013F86B46D1
:10EF94001A7C0137FFB20835ADE70098002807D086
:10EFA400009ED008305C664632401041384206D09C
:10EFB400019A039812889A1801334254DBB2013142
:10EFC400A9E7C046FF9FFFFFF0B587B003930CABE2
:10EFD400019204CB0F001B88029005930FAB1D78A0
:10EFE40001230026072118000492039A93423AD37E
:10EFF4001620731C584303212EF004FD029B0400C9
:10F004001B8805710380059B6D06467143800222AF
:10F014000630AD0F03D09218012D00D00C32390008
:10F024000126002730F0C6FF0E9D1635039B9E4235
:10F0340029D3200000F0BEFA051E0ED12388029ABF
:10F044000100138007220300944601270398CAB2E3
:10F05400904202D90498002843D120002EF05EFD8E
:10F06400280007B0F0BD019A002A07D0019CDA08F5
:10F07400A25C1C000C402241024201D00136F6B2CF
:10F084000133DBB2B1E7019B002B07D0019AF308EF
:10F09400D35C072232401341DB071ED516227A4384
:10F0A400AB8AA21813856B8A781C5385298A5B1353
:10F0B400D1840321162219408C4603215043143A6B
:10F0C40020180B4204D063460232012B00D00C32CC
:10F0D400290030F06FFF0137FFB20136F6B2163562
:10F0E400A4E70198002807D0019ED008305C66464A
:10F0F40032401041384206D0029A049812889A1875
:10F1040001334254DBB20131A0E710B586B06A4640
:10F1140003880400013968461380517100F026FA0F
:10F124006B461B88238006B010BD0000F0B585B087
:10F1340001930023140002AA0F001100029313711B
:10F1440000F012FE061E07D1A02102A8890100F0DA
:10F1540061FE002803D00626300005B0F0BD20492A
:10F1640002A800F057FE0028F5D11E4902A800F0BD
:10F1740051FE0028EFD11C4902A800F04BFE0028E4
:10F18400E9D1A42102A8890100F044FE0028E2D1BB
:10F19400164902A800F03EFE0028DCD1144902A85A
:10F1A40000F038FE0028D6D1029B04215A5E9D88C7
:10F1B400002AD0DB2D052D0D5D196B88A34200D2EA
:10F1C40007262A883B19934207DC201D3A0001993F
:10F1D400281830F0EFFE6F80BEE70D26BCE7C0466E
:10F1E4000128000003280000022800000229000072
:10F1F400032900000023F0B58FB006AE039131005F
:10F20400070015000693337100F0AEFD041E1BD1F8
:10F21400A0213000890100F0FDFD002817D00F2740
:10F2240002ABFF1801233900300000930AAA00F052
:10F234004FFE041E08D14A4E3A78039B30001A80D0
:10F244000AA930F0B7FE2E6020000FB0F0BD3000E8
:10F25400444900F0DFFD0028E1D13000424900F0CC
:10F26400D9FD002826D0013708AEBFB231003800DE
:10F274000894347100F078FD041E4FD101230F214E
:10F284000093030002A809180AAA300000F020FE27
:10F2940002ABDA7B0399D31C0B80089B33495B8850
:10F2A40033481B0A4B77CF830AA930F083FE2C4BDB
:10F2B4002B60C9E730002F4900F0ACFD00282FD0A7
:10F2C400336808AE9A8831001205120D9B185A79DA
:10F2D4001879120210430894347100F045FD041E9D
:10F2E4001CD10F2702ABFF18012339003000009313
:10F2F4000AAA00F0EDFD3F78039A089E3B1D138097
:10F3040031000222164830F055FE0222B11C1A4880
:10F3140030F050FE3A0019480AA9C6E7802493E762
:10F32400A4213000890100F075FD3268938800281B
:10F3340007D01B051B0DD3180222039904330A803E
:10F34400B6E70420115E002908DB1B051B0DD3184A
:10F354001A1D2A605B88039A138075E7062473E7F5
:10F3640015BA00000128000003280000F8B90000C5
:10F3740018BA00000228000017BA000019BA0000E9
:10F384000023F0B587B0019202AA00911100040095
:10F394000293137100F0E8FC051E07D1A02102A816
:10F3A400890100F037FD002803D00625280007B0A6
:10F3B400F0BD204902A800F02DFD0028F5D11E491A
:10F3C40002A800F027FD0028EFD11C4902A800F094
:10F3D40021FD0028E9D1A42102A8890100F01AFD29
:10F3E4000028E2D104AF013C3900A0B2029E04958A
:10F3F4003D7100F0B9FC00280DD138000E4900F031
:10F4040009FD002807D07388009A1B0A120A934248
:10F4140001D004F0FDFD8022009B0199520173800C
:10F42400B388114202D01343B380BFE7044A1340A8
:10F43400FAE7C04601280000032800000228000063
:10F44400FFEFFFFF73B5002315006A460E006946FF
:10F454000093137100F088FC041E07D1A0216846B4
:10F46400890100F0D7FC002802D00624200076BDD4
:10F4740068460F4900F0CEFC0028F6D168460D49D5
:10F4840000F0C8FC0028F0D168460B4900F0C2FC2B
:10F494000028EAD1A4216846890100F0BBFC0028B9
:10F4A400E3D1009B5A88B2432A435A80DEE7C04620
:10F4B40001280000032800000228000010B50C00F9
:10F4C40000F0B2FA03000120002B07D060220020D4
:10F4D400997A94434906890F2143997210BD10B556
:10F4E4000C0000F0A1FA03000120002B04D06022DC
:10F4F40000209B7A9343237010BD000010B50128AF
:10F5040004D0022801D100F077FA10BD0022024B8A
:10F514005A609A60F9E7C046F8B90000FB349B5F73
:10F52400800000800010000000000000F7B50E4CC1
:10F53400050027680E000192002F14D0002806D180
:10F54400200010220C3030F035FD012323773B6876
:10F55400002B03D031002800019A984720682EF030
:10F56400DDFA00232360F7BDF8B900000288104BD0
:10F57400002A18D101221B680280002B16D0417981
:10F584000288521899888A4210DBDA880132F2E73D
:10F59400D988914207D3417900209B888A189A42DE
:10F5A4004041C0B270471B68002BF1D10020F9E73D
:10F5B400FCB90000F0B589B00190FFF7D7FF051E34
:10F5C400029014D1019B10241E797606B60F06D042
:10F5D400012E1ED0022E00D1EEE140230293019BA6
:10F5E4005B79AB4200D8CAE0029B002B14D002988E
:10F5F40009B0F0BD6022019B01991B793800934347
:10F60400019A12311371320030F0D4FC10240295A7
:10F61400E5E714240290E2E716236B43019AD3181A
:10F624005B8D5B049B0F38D0012B31D0022B02D0B1
:10F6340040230293DBE71027A01D83B20393162314
:10F64400691C4B430493049A019B39009E18A02221
:10F6540030009201FFF7E2FB0028E9D139003000C5
:10F66400CC4AFFF7DBFB0028E2D139003000CA4A5C
:10F67400FFF7D4FB002815D016236B43019AD31847
:10F68400A022DB8C1201134093421CD05623D0E7F6
:10F69400A01D83B204270393D1E7A01D83B20227E0
:10F6A4000393CCE739003000BC4AFFF7B7FB0028CE
:10F6B400E2D139003000BA4AFFF7B0FB002806D087
:10F6C4000C34A3B203930135039CEDB287E7A42263
:10F6D400390030009201FFF7A1FB0028F0D1390076
:10F6E4003000B04AFFF79AFB0028ECD1042F03D175
:10F6F4000A34A3B2039316E0102F14D13000FFF79D
:10F7040097FB002820D016236B43019AA649D318EF
:10F714005A8D0A405A8502220499019B0C315918CA
:10F72400300030F047FC16236B43019AD3182A218A
:10F734005A5E002AC7DB1C8D01232405240D0534E1
:10F744009C43039B1C19BCE73000FFF78BFB00288C
:10F7540013D00A34A3B2039316236B43019A92493C
:10F76400D3185A8D1140802292010A4304995A8574
:10F77400019B0C3104225918D2E71634B9E7029BD5
:10F78400002B00D033E7200001212EF03BF9019B30
:10F79400019A1B8805008380527904199B18C38041
:10F7A400019B029A5B880381019B1B79C27283725D
:10F7B4005B069B0F17D1019B0222991D0C3030F080
:10F7C400F9FB0027019B5B79BB4220D80023012071
:10F7D400764A1168002900D1D5E0002B00D1C8E099
:10F7E40004F016FC03E7012B0AD10422019B043C1C
:10F7F400991D200030F0DEFB2B1DE31AAB81E0E7FE
:10F80400022BDED1019B1022103C991DF1E7162139
:10F814000B007B43019AD3187A1C51435B8D019AE8
:10F824005B049B0F06915618002B23D106207843C6
:10F834000E3002223100281830F0BCFB022303935F
:10F8440006237B430793EB18049316237B43019A07
:10F854003000D3180593049ADB8C03991382514A20
:10F86400FFF7DCFA002829D00023049A53820137D9
:10F87400FFB2A7E7012B0ED1043C04223100200083
:10F8840030F098FB06237B43EA180E33EB18E31A97
:10F89400D3810423D3E700220392022BD0D1103C5E
:10F8A40010323100200030F085FB06237B43EA1838
:10F8B4000E33EB18E31AD3811023C0E73000384A23
:10F8C4000399FFF7ABFA002813D002220699019B93
:10F8D400A61F123132807280A01E591830F06AFBC4
:10F8E40006237B43EA180E33EB18F31A34005382D1
:10F8F400BDE7A422300003999201FFF78FFA002894
:10F90400E3D13000244A0399FFF788FA00280DD088
:10F91400162206237A4301997B438A18528D24497F
:10F92400D204D20FEB180A435A82A0E730001B4AD4
:10F934000399FFF773FA0028EAD1059B1D4E2A218B
:10F94400595E059B0E401B8D1B051B0D002903DA18
:10F954001E43049B5E828AE701215A1D8A4307994C
:10F96400A41A0E316918621A23806080049B324302
:10F97400DAE7AE888C88A64203D2296003001560BA
:10F9840027E70A0025E7002B00D029E715602B6044
:10F9940026E7C046012800000229000003290000D0
:10F9A4000228000003280000FF9FFFFFFCB90000AD
:10F9B4000280FFFF00F0FFFF019B9F1D3800FFF74F
:10F9C40037FA002800D015E63800FFF74BFA202359
:10F9D4001C00002800D102E66021019A3800127947
:10F9E4000C3C8A4313430199019A12311371042286
:10F9F40030F0E0FA0295F2E570B50A4C6068002830
:10FA04000AD12068002801D02EF088F80023636012
:10FA1400A3602360237770BD05682EF07FF828006B
:10FA2400EDE7C046F8B90000104A0300906810B52D
:10FA34005168002806D084889C4203D8C188994222
:10FA44000ED2016808000121002809D084889C4254
:10FA540009D8C4889C4204D3C47A0C4201D1906072
:10FA640010BD0068F0E70020FAE7C046F8B90000CE
:10FA7400F0B5A44B8BB0049006911C7F002C09D0E8
:10FA8400071E04D00A0000209F49B8470027380009
:10FA94000BB0F0BD27005D68002D67D0002F08D0A3
:10FAA400984C20680028F2D02EF038F80023236008
:10FAB400EDE70122EB7A134217D10320AA88EB88E1
:10FAC400A97A9B1A49110622DBB2014200D00E32F8
:10FAD400A41806222E00002753435B19A4B20393F3
:10FAE400039BB34201D0002F01D02D68D4E7032239
:10FAF400338A5B1313420BD1A422F38992019342FC
:10FB040030D007D8814A93420AD0814A93421FD009
:10FB14000636E5E77F4A9B18042BF9D8043415E030
:10FB2400738A1B051A0D33000E339B185A79187902
:10FB340012021043FFF778FF002815D00321827AC0
:10FB44000A2352110A4200D00E33E418A4B2DFE7AC
:10FB54000321728A07345213A3B202240A42F4D056
:10FB64000E34F2E70634F1E75127D1E7002F97D19D
:10FB74000321201D2DF046FF2500049A614B0260ED
:10FB840018605B6803900493049B002B00D1A3E0EE
:10FB9400002F03D0432F00D179E781E70122049B92
:10FBA400DB7A134240D1049B06A99E88DB8809AA0C
:10FBB4009B1BDBB207930A235B1819003000FFF785
:10FBC40019FB049BAA1E998892B20B02090A0B43E3
:10FBD40003991BB28A181371043D9BB21B0AADB280
:10FBE40053714A197F21049B07009B7A282099426C
:10FBF4009B415B425371107106AB5B890399ED1A0B
:10FC0400ADB22A1D8A180999002B11D1049B013623
:10FC14000E330593079BB6B2F3189BB20793079B69
:10FC24009E4201D0002F09D0049B1B680493ABE7CC
:10FC3400013B9BB2C85C10700132E5E70322059BCF
:10FC44005B885B13134241D1A422059B92011B885C
:10FC5400934204D035D8304A9B18012B36D8012260
:10FC64000398AB1E9BB271BAC31889B21971090A01
:10FC74005971059B043D1988ADB20B02090A0B4367
:10FC84001BB241190B719BB21B0A4B71002A1DD088
:10FC94000A2306A95B18190009AA3000FFF7AAFA7B
:10FCA400070006AB5B890399ED1AADB22A1D8A18C9
:10FCB4000999002B0AD0013B9BB2C85C1070013239
:10FCC400F7E7144A9B183A00042BC9D9059B01365F
:10FCD4000633B6B20593A2E7002F00D05AE7002DF1
:10FCE40005D00E4B2200290003201B689847069B71
:10FCF4000399009322000A4B0A4804312FF05AF862
:10FD0400C5E6C046F8B9000004BA000002280000A5
:10FD140003280000FFD6FFFFFED7FFFF3CBF000013
:10FD240031F50418D800051870B50E4C6368002B23
:10FD340001D1012070BD9A888242F8D8DA888242C3
:10FD440001D21B68F3E7DA7A0120150005408D42E1
:10FD540004D082430A43DA7204F05AF90020A06006
:10FD6400E8E7C046F8B9000070B505000C00FFF7DD
:10FD74005BFE03000120002B07D09888A84205D120
:10FD84000433236001230020237170BD01302D1A38
:10FD9400062068430E301B18002023602071F4E70E
:10FDA40070B51B4CA3686268002B07D005889E8839
:10FDB400AE4203D8DA88AA4216D21A681300012286
:10FDC400002B01D1012070BD06889D88AE4207D367
:10FDD400DD88B54202D3DD7A154205D01B68EFE712
:10FDE400DE7A1642FAD105809A880088824206D1CA
:10FDF4001A1D0A6001220A710020A360E3E70132A0
:10FE0400801A062242430E329A180A600022F2E750
:10FE1400F8B90000030000791B6800280BD1002BFF
:10FE240008D09A885204920F04D11888401A41428B
:10FE34004841C0B27047002B0CD0A02292019142DD
:10FE4400F8D09B7900207F2BF4D9034BC918484282
:10FE54004841EEE71800EDE7FFD7FFFF70B50D004E
:10FE6400A02189010400FFF7D5FF0623002826D12D
:10FE740020001449FFF7CEFF062300281FD12000DD
:10FE84001149FFF7C7FF0623002818D120000F49A6
:10FE9400FFF7C0FF0623002811D1A4212000890107
:10FEA400FFF7B8FF0623002809D121688A881305C3
:10FEB40012B21B0D002A00DBCB5A2B800300180062
:10FEC40070BDC0460128000003280000022800007D
:10FED400F7B51F0008AB050010001A7800230B705B
:10FEE4002E680C0001219E421AD02B79002B35D0AC
:10FEF400B379002F22D05B069B0F19D08B420CD113
:10FF04000423237029680B89C918002A14D00422F9
:10FF1400FEF73CFF1023237001E0022B02D00021E6
:10FF24000800FEBD1023237029680B89C91803E05B
:10FF3400022323702968083122780AE05BB2002B7F
:10FF44000ADBA0239B016A46D38002226B462270FF
:10FF5400991D30F02FF8E2E70C4BF4E7B3885B040B
:10FF64009B0F08D0012B0CD0022BD8D10E33237059
:10FF740029680B88DAE70223237029680029CED088
:10FF8400DAE70423237029680B88BDE70128000001
:10FF9400F0B585B00A9E0F00336815000190002B60
:10FFA40026D0A02130008901FFF734FF002818D1A2
:10FFB40030004249FFF72EFF002812D1300040499B
:10FFC400FFF728FF00280CD130003E49FFF722FF3D
:10FFD400002806D1A42130008901FFF71BFF002867
:10FFE40016D080239B00002D0BD12C003B8005E014
:0CFFF40031000198FFF7B8FE041ED2D0C7
:020000041805DD
:10000000200005B0F0BD9D4201D00624F8E7002491
:100010003C80F5E7336804005B883B80002DEFD01F
:100020001D42F2D002ABD871D91D0198FFF759FAE1
:10003000041EE5D133680C349A8880235B011A4290
:1000400007D102AAD17902220C001440114200D03B
:100050000C249D422FD00DD880239B009D4218D0A8
:1000600010D31A4B1A4AEB1813420BD13B881B07CB
:100070009B0F11E080239B019D4219D08023DB015F
:100080009D42F3D0134B2A0003201B680199984727
:1000900003E003223B8813403B8002ABDB79DA06A6
:1000A0000CD43A881B079B0F9A42A9D23B80A7E742
:1000B0003B889B06DCE73B881B06D9E708249FE7C3
:1000C00001280000032800000228000000FCFFFFB8
:1000D000FFFB00003CBF000000000000000000002B
:1000E000000000000000000070B50D7806001B3D08
:1000F0006B1E9D411A4B0C00ED181A4B4A881B6869
:100100008100CB589B69002B04D1300004F036FBF2
:10011000010006E09988914220D8D98891421DD3E8
:1001200019890622A38836020633324328009BB27F
:100130002DF036FB237805001B3B5A1E93411233EA
:100140000370A288A11D42806388838006302FF04F
:1001500033FF28002DF048FB002070BD1B68D2E75C
:100160000C0C0000F0B9000010B50121040001F0F2
:10017000F7FF0C2804D000220F2810D041220EE0F7
:100180000121200002F038F84189038900229942B8
:1001900005D0064BA2001B68D3582C331A782000D8
:1001A000012102F0D1F9002010BDC046F0B90000D5
:1001B00070B50D00040009F011F86988814200D97A
:1001C0000100200089B202F03BF80121200001F07B
:1001D000C7FF00220100012801D041220121200097
:1001E00002F0B2F9002070BDF0B587B00291012194
:1001F000040001F0B5FF41220B2816D10026012191
:10020000200001F0F9FF0622370023021A43039071
:1002100005920096039B009A5B7893420CD8029B50
:100220005B88BB4200D0502632002000012102F042
:100230008BF9002007B0F0BD0121200002F096F8F4
:10024000009B039A9B00D3180193DB8801000633BF
:10025000059A9BB215482DF0A3FA019B05009B88D7
:100260000380029B5A88019BD21BDB889A4200D9EB
:100270001A0093B20493AB8000236B80029B391D5C
:100280005918A81D2FF098FE049B049AFF18019B93
:10029000BFB2DB88934200D0502628002DF0A4FA8C
:1002A000009B0133DBB20093B4E7C046090C0000A9
:1002B000F7B50E000121070001F052FF0C2824D1F0
:1002C0000121380001F098FFB588C3880400ED1AB9
:1002D000ADB229000C31458141183000F388083057
:1002E0001A0001932FF05AFE00280CD1019B5D19D2
:1002F00023899D4207DCADB201213800658102F0FF
:1003000003F80020FEBD044DF6E74122012138002C
:1003100002F01AF9F5E7C046FFFF0000F0B585B01E
:1003200001910121040001F01BFF402203281AD192
:100330000121200001F060FF0622050000262302B3
:100340001A43A3000393274B02920093019B5B88FF
:10035000B3420DD8009BEA8801339BB29A4201D385
:10036000002B37D10A220121200002F0EDF836E0FF
:100370000121200001F0FAFF6B780100029A063398
:1003800019482DF00DFA019B070099194A790B794C
:100390002900120213430380019AB31C9BB2D318A5
:1003A0005A791B7912021343438000936A7808310B
:1003B000027105302FF000FE38002DF015FA0B4BBE
:1003C000039A1B6804369B58B6B24C331A78013234
:1003D0001A70BBE701212000AB8001F095FF0020DF
:1003E00005B0F0BDFFFF0000040C0000F0B90000F4
:1003F000F0B587B002910121050001F0B1FE402265
:10040000072820D10121280001F0F6FE029B03906D
:100410005B780227012B00D00E37062200242B0226
:100420001A43AB00049205930094029B009A5B88E8
:1004300093420DD8039B0134DB88A4B2A34201D3BD
:10044000002C34D10A220121280002F07DF834E08A
:100450000121280001F08AFF049A01003B1D184881
:100460002DF09EF9009A029B911C9B185C791B79D8
:1004700024021C4389B2029B04313A0059180190AE
:100480000480877003302FF097FDBEB2009B0236C8
:100490009E19B3B2019800932DF0A6F9094B059A65
:1004A0001B689B584C331A7801321A70BDE7039BC6
:1004B000012128009C8001F027FF002007B0F0BD3B
:1004C000070C0000F0B90000F0B587B000914E882D
:1004D0004F780121040001F043FE0500022800D0FE
:1004E00080E039003000FCF7DDFA002800D179E027
:1004F0000121200001F080FE009B02905B78142B0C
:1005000000D10E3500260622370023021A43A3002D
:10051000049205930396009B5B88BB424AD8002E49
:100520004ED000220121200002F00EF857E00121F8
:10053000200001F01BFFABB206330100049A9BB20E
:1005400029482DF02DF9009B461DD9194A790B79C0
:10055000120213430380009ABB1C9BB2D3185A7932
:100560001B79120213430393391D039A009B89B22E
:100570000431428059182A000190057130002FF093
:100580001BFDABB20433029AFF18029B08325B7862
:1005900029003000FEF71AFC060001982DF024F91E
:1005A000124B059A1B68BFB29B584C331A78013224
:1005B0001A70B0E7002EB4D10D4B039A9A42B6D10F
:1005C000039B029A0133D2889BB29A42A9D3002B93
:1005D000A7D0029A01212000938001F095FE00200F
:1005E00007B0F0BD41229DE7040C0000F0B9000007
:1005F000FFFF000010B50121040001F0B1FD002251
:100600000C2800D041222000012101F09DFF002094
:1006100010BD00007F2310B50A780C001340522B48
:1006200009D01E2A07D0062100020143C420044A33
:1006300000012CF0B3FF2000FDF7FEF910BDC0460D
:1006400030750000062302021343002213B5042173
:1006500000921E320400FDF7D9F901002000FFF7D7
:10066000D9FF13BD062337B50202134300220D0044
:100670000092042118320400FDF7C8F9457001000A
:100680002000FFF7C7FF37BD70B50B7904000D00E0
:10069000122B0ED104F072F80622230201001A4335
:1006A00017482DF0B9F8012120002A7901F04CFFFC
:1006B00024E00A2B0BD1134B82001B68D3584C3318
:1006C0001A78002A03D000221A700A71EBE76B78BF
:1006D000162BE8D10121200001F08EFD0028E2D088
:1006E0004378002BDFD0074BA2001B680021D358B2
:1006F0002A792C3320001A70FFF7B4FF002070BD58
:10070000230C0000F0B90000F0B50C0089B0012105
:10071000050001F025FD062805D804282FD800D1B2
:10072000A5E0402249E00A28FBD12800667801F0C4
:10073000F9FC02380121864200DB18E1280001F0B3
:1007400015FE06226378010028020243043398480C
:100750002DF026F800260700627923791202134350
:1007600003806278A11D023A92B2828046800630F0
:100770002FF022FC38002DF037F832001DE0012167
:10078000280001F039FD039063781026072B00D86C
:100790000E3E06222B021A43AB00069300231F00D5
:1007A000059204936388BB420CD8049B039A0133DF
:1007B000D2889BB29A4251D20A220121280001F02C
:1007C000C3FED2E0E219537912791B021A43039B4C
:1007D00004921B78052B31D10121280001F0C6FDC0
:1007E000059A0100B31D73482CF0DAFFBB1C9BB2C5
:1007F000E3181B79049A0371FB1C9BB20280E31877
:100800005A7905371B791202BFB21343391D3200E2
:10081000438002904671611806302FF0CDFBB3B2D1
:100820000298DF192CF0E0FF634B069A1B68BFB2F9
:100830009B584C331A7801321A70B3E73800039B87
:10084000039A093031005B7820180832FEF7BEFAAF
:100850000028C1D16378FF18BFB2A3E7039A002B29
:10086000AAD001212800938001F04EFD7DE00121F6
:10087000280001F0C1FC069063885B071FD10123AB
:100880000393DB1800260622370002932B021A433B
:10089000059204966388BB4215D8039B002B01D1B7
:1008A000002E54D1049B069A0133D2889BB29A42FF
:1008B00000D281E7002B00D17EE7069AD1E7002322
:1008C00003931033DEE70121280001F04FFD6B4652
:1008D0001B8901000793029B059A083337482CF0C7
:1008E0005FFFE219537912791B021A43BB1C9BB2BA
:1008F0000280E31804925A791B7912021343438051
:100900003B1D9BB2E3185A791B7912021343838073
:10091000039BB91D060089B2002B0FD0029B043146
:100920001A008371611807302FF046FB079B3000D7
:100930000633FF18BFB22CF057FFABE731001E4B58
:10094000AA001B680C39D05810302DF055FF002438
:100950000421059B0A2228000094FDF757F87388AC
:10096000010043802800FFF755FE00201EE028000C
:1009700001F042FC62792379120213430022838042
:100980006378028122002100023B9BB2083AC380B7
:100990005380094BAA001B681439D05810302DF031
:1009A0002BFF0121280001F0AFFC012009B0F0BDB0
:1009B000090C0000060C0000F0B90000050C000056
:1009C000F0B5374C830085B00393236882009B58B1
:1009D00005001B69002B47D0012101F00DFC2368A5
:1009E000AA009B5807001C69012123000C330193C6
:1009F0002800E68901F0BAFC0622B31D2D02010091
:100A00009BB22A4327482CF0CBFE8680BB8805008A
:100A10000380FB88002602934380237D092B17D196
:100A20002100627D0630023A1A312FF0C5FA637D4B
:100A300027689E1EB6B2002F03D0029AD31A023343
:100A40006B8020002CF000FF3B003C000C33019336
:100A5000002C0BD1124B039A1B68985810302DF0C4
:100A6000B5FE28002CF0C0FE05B0F0BD019BB01D06
:100A700019005A8928180C312FF09EFA019B24681E
:100A80005A899619B6B2002C02D06B889B1A6B80DB
:100A900001980C382CF0D8FE20000C300190D7E7DC
:100AA000F0B90000090C0000F7B50D0001210400A9
:100AB00001F056FB04282FD00838C0B2022800D914
:100AC0007CE00121200001F097FB2B00002229008F
:100AD00006003B4F083B5A80A30001933B68A200ED
:100AE0009858143910302DF087FE3289002A42D1EF
:100AF0003B68A2009B586F881A69D389FB189BB288
:100B0000D381304A93423CD9F53AFF3A0121200083
:100B100001F01AFD0120FEBD0121200001F06CFB57
:100B2000274BA2001B680700D05810302DF0ACFEF8
:100B3000291D0300102506000C332A0013300193F1
:100B40002FF03AFA0198B5742CF04EFEB389FA886A
:100B500001339BB29A4201D3002B05D10A22012115
:100B6000200001F0F1FC04E001212000BB8001F035
:100B7000CBFB0020CFE76B88934200D913006B803A
:100B8000B6E7200001F0CEFA0138874205DB6A881B
:100B900033899A4206D3002B04D02000FFF710FFC0
:100BA0000022B3E7F1885118F180002B01D09B1A85
:100BB00033810121200001F0A7FBABE74122CEE702
:100BC000F0B900000502000070B50E2305000026F4
:100BD0000C000A7A0E490878904200D14E68013B19
:100BE000DBB20831002BF6D1FF20002E0ED01B3ACD
:100BF000FD331A4206D00621C4202B0219430001FE
:100C00002CF04CFD210028000831B04770BDC046D3
:100C1000140C051803000000B101051805000000C0
:100C2000F1030518070000001D0305180900000066
:100C30000907051811000000C90405180B00000081
:100C4000A90A05180D000000A90A05180F000000E8
:100C5000E901051813000000F5050518170000004C
:100C6000B102051819000000690105180100000013
:100C7000890605181D000000E90005181B0000008A
:100C8000E900051870B5040008000E00FEF7CEFE5E
:100C9000051E05D1064B3200210003201B68984732
:100CA000AB7A2889DB0701D52402204370BDC046FA
:100CB0003CBF000037B514006A4600230D00911DAB
:100CC000D380FFF7CDF8002807D16B46DB88A3421D
:100CD00004D964199C4200DD0D303EBD0720FCE7BD
:100CE000F0B50E000621714305001000224A85B0C0
:100CF00054188A5A0E216788009369443B00FFF715
:100D000049F9062805D00C2805D0041E04D005B0EA
:100D1000F0BD2079F9E701246B46DB89002B01D176
:100D20000020F4E7280003F055FD002809D0032E29
:100D300009D1280003F04EFD6B46DB8980B2834267
:100D4000EED90520E3E70121280003F01FFD00286C
:100D500008D10221280003F019FD03000F20002B09
:100D6000D5D1EEE7002CE4D0280003F049FD0F2890
:100D7000DFD80C20CBE7C0469420051873B50023BC
:100D80006A46009313714A888E880C006B460321D3
:100D90000500FFF7A5FF021E01D0002076BD31003F
:100DA0000C39684689B2FFF785FF0028F5D1082184
:100DB0000622EF202D02A3882EB2073331432A43A7
:100DC0009BB289B200012CF0EBFCF1230370A388E5
:100DD000050003334380D22303716388A11D43714F
:100DE0001B0A8371A28807302FF0E6F828002CF048
:100DF000FBFC0120D2E70000F8B515000F0004004D
:100E000019001E00FFF73EFF0622AB1D2402010061
:100E100022439BB208482CF0C3FC002304002A00A4
:100E2000390006808580438006302FF0C5F8200009
:100E30002CF0DAFCF8BDC046150C000037B50023D5
:100E40006A46009313714A880C006B460221050024
:100E5000FFF746FF021E01D000203EBD6846A18874
:100E6000FFF728FF0028F7D128006388A288A11D7A
:100E7000FFF7C2FF0120F0E773B51C000623150041
:100E80000202134317220E0000920421163AFCF7C7
:100E9000BDFD467045800471FCF7CEFD73BD0000BA
:100EA0000022F0B589B006AB0F1F06921A713A887E
:100EB00005000C00002A2BD0AB000393444BAA0082
:100EC0001B6861889858036B002B30D0DA8A8A42FD
:100ED0002BD140302DF0D8FCE38803999C463B8809
:100EE00002001B051B0D0593394B1B685B58196BE2
:100EF000002931D08888374F604486B20496B842C2
:100F00002CDD4033180011002DF0ACFC092305E066
:100F10004A880121FFF7E4FE031ECDD02800628835
:100F20002178FFF7A9FF002014E01B68CCE73B887D
:100F3000002BCED12800FFF7A5FE06222D020100CE
:100F400002232A4324482CF02BFC638803802CF0D6
:100F50004BFC012009B0F0BD604604906646A788AE
:100F600060885681059E1781D680002905D13033CF
:100F7000180011002DF040FC06E0CF8A874225D9E9
:100F8000303318002DF03EFD114B039A1B680421ED
:100F90009B58049A1B6B28009A8006232A0213434D
:100FA000E28800921722FCF731FD210005006388DA
:100FB00008314380E288C28008302EF0FDFFA3880C
:100FC0002800AB80FCF738FD0220C3E70968CCE7B6
:100FD000F0B9000005020000170C000037B500232F
:100FE0006A46009313714A886B460C000121050084
:100FF000FFF776FE031E0ED10200A1886846FFF7B8
:1010000059FE031E07D128006388A288A11DFFF79F
:10101000F3FE01203EBD280062882178FFF72CFFF7
:101020000020F7E7F0B58DB00600049101F07AF8E2
:10103000023883B20593049B5F88B3000693049B38
:101040009A88BA4200D291E0002F00D193E00E229C
:1010500006ABD21817800027059B0AAA0A971771BA
:1010600003930E2306AA9B1818000AA9FEF79AFEFE
:10107000041E00D078E0049B9A8806ABDB899A4274
:1010800062D3022118202CF0BFFC0123C21D811D58
:101090000093050023000AA8FEF71CFF041E06D0DB
:1010A00006ABD989434B02001B68032098470E23E7
:1010B00006AA9B181B88AB80AB790793002F2ED014
:1010C0009F422CD028002CF02BFD3B4D069A2B681C
:1010D0009B589B6B002B61D0059B039A30009C1A98
:1010E00006233202A4B21343009405220421FCF724
:1010F0008DFCBB1E5A1E9341013343702B68069A28
:1011000006009B5840889D6B002324187480002D96
:1011100034D13000FCF790FC00200DB0F0BD264B20
:10112000069A1B682900985838302DF065FB0E226E
:101130000398079B0238C01A83B2039306ABD218F8
:101140001388079F013313800E2306AA9B18049A65
:101150001B8892889A42B8D3002BB6D0039A7B1C86
:10116000934200DA7DE7B0E70A24AEE70027059B4B
:1011700003930124A9E7059B0393FAE7A988F218D2
:1011800002339CB29180201DAA79E91D30182EF0FF
:1011900013FFAB792D68E3189BB2B8E7002C00D1A0
:1011A0000A34049B30005A8819782300FFF764FE44
:1011B000B2E7C0463CBF0000F0B90000164BF7B5DF
:1011C0001B688200D358040053331D780F00002D94
:1011D0001CD108F003F806232202042113430095D2
:1011E000032206002000FCF711FC050007F0F6FFC3
:1011F0007988814200D90100200089B201F020F8ED
:1012000028006E80FCF718FC0020FEBD042300229D
:101210000221FFF731FEF7E7F0B90000F7B514003F
:1012200000236A46A7781371009363783F021F4337
:101230003A000D006B4603210600FFF751FD021E28
:1012400008D10E2D01D90F3DAAB23B003000E11CA0
:10125000FFF7D2FDF7BD00000023F0B587B004AE64
:10126000049333710B7805000C00122B47D01D2717
:101270000521402B0CD03900280002F0E3F912239D
:101280000293002838D1217812394B1E994104313C
:1012900033002800A288FFF723FD029000282BD1FD
:1012A000E3882800039300F03DFF039BC61E9E4287
:1012B00000D91E0006222B021A43B3B204212800D3
:1012C0000392009313003A00FCF7A0FB21000500F5
:1012D000A38832004380B3B28380083106302EF0F9
:1012E0006BFE2800FCF7A8FB2378122B04D0054ADC
:1012F000039905482CF052F9029807B0F0BD1B275E
:10130000B9E7C04630750000410C000010B58400FC
:10131000064B1B681859036B002B00D110BD3030F1
:101320002DF0B2FA2CF0FCFBF2E7C046F0B9000059
:10133000F0B58BB005914B780500012B00D09DE0F6
:101340000A00043A1288029282000692029A002A47
:1013500041D15A4A810012685258146B002C3AD07D
:10136000029A08AF04920392079300233B603B71FB
:101370003900E08AFEF7FAFC021E04D0504B03202D
:10138000E18A1B689847228938006189FFF792FC3F
:10139000059B079A043B1A800600E28A002800D0C9
:1013A00081E0029B9A4203D0E388A08004930394D7
:1013B0002189049B994200D974E004986389814291
:1013C00039D20398A04236D00499A380E1800394D7
:1013D0002468002C2DD10026384F069A3B689B5874
:1013E0001C6B002C4BD02800E18AFFF74BFC062237
:1013F000A3882D02063301009BB22A4331482CF00A
:10140000CFF900260500E38A0380A388838023891F
:101410004380AB88B34201D8002B03D12A88E38AEA
:101420009A4211D028002CF0DFF9012420000BB0E3
:10143000F0BD029299E7C91889B20491039989888D
:101440005B1803998B80C3E72100B01D1C316289B2
:1014500028182EF0B1FD6389069AF6182368B6B2F3
:1014600002933B68985830302DF00EFA20002CF093
:1014700057FB029B002BD5D01C00CAE70026002496
:101480002800FFF743FFA642D0D106232A021343C8
:1014900017220421009228000232FCF7B7FAFCF769
:1014A000CBFAC3E70726059B280019783300FFF71E
:1014B000E3FC2800FFF72AFF8EE7C046F0B90000E2
:1014C0003CBF0000150C000010B58400064B1B68E3
:1014D0001859836B002B00D110BD38302DF0D4F992
:1014E0002CF01EFBF2E7C046F0B9000070B5074DC6
:1014F00084002B681B59986C002806D00C382CF0FF
:10150000A3F900222B681B599A6470BDF0B9000042
:10151000F7B51F001B4B01921B688200D3580400D3
:101520009B6C0E00002B26D01A888A4221D11D798F
:10153000062D08D0002D07D15A88019905330A805D
:101540003B602800FEBD80252000FFF7CFFF062D61
:10155000F7D131002000FFF795FB24022C43010056
:101560000223A2B208482CF01BF906802CF03CF9AB
:10157000E7E7FFF7BBFF3A0030000199FDF73CFEBB
:101580000500E4E7F0B90000130C0000F0B50C0012
:101590001D008FB0159E0F8804900392310020002B
:1015A000FEF700FC031E28D1039A2188128891427D
:1015B0001CD80F21009004A80AAA09183000FEF7D1
:1015C00089FC021E04D0354B032021881B689847F4
:1015D0000F2304AA9B1829000AAA1B781498FDF768
:1015E000F5FB2288002820D101322280039A23882B
:1015F00012889A4201D3002BD0D10A23278002936C
:1016000002980FB0F0BD33685D88039B1D80059B79
:10161000002BF5D12188179B169A0498FFF778FFC5
:101620000290EDE7013EB5B2EFE7330000210498E8
:10163000FFF756FB059002903779002FE3D1300079
:1016400017492588FEF7E8FB0028DED0280008AB04
:1016500008971F71FEF7EAF907000135AEB2FD8861
:10166000B542D2D3BB88B342CFD208A93000FEF72F
:101670007DFB0B4908A8FEF7CFFB0028D2D1094912
:1016800008A8FEF7C9FB011ECCD108A8FEF7C4FBD1
:101690000028C7D10136B6B2E1E7C0463CBF000022
:1016A00003280000022800000023F0B58BB008AA30
:1016B0001371089383000493504B82001B6805004C
:1016C0009858029138302DF0E1F9029B03901C1FCD
:1016D0002388002B04D1280000F024FD013820804D
:1016E0000024029B039A5B88934256D9029B043BD9
:1016F00005931B88002B50D0002C0CD0062C6DD0ED
:10170000039B5800029B1818828819782800230030
:10171000FFF7B2FB62E0039B21005E00029B280002
:101720009E19B28808ABFFF7DBFA041EE6D10A2740
:1017300004ABFF183A002800B18807ABFFF7E8FEBA
:10174000041ECED1059B3F881B889F4200D91F00F5
:101750003800BBB20221083005932CF055F9060081
:10176000BBB283803A00079906302EF025FC234B4C
:10177000049A1B683100985838302DF03DF8280045
:10178000FFF7B4FE029B03981A1F138805990130D6
:101790005B1A138083B20393A3E7002CAED1280019
:1017A00000F0C0FC0299062304390E882A02F64391
:1017B0008619B6B2134328000F2200960421FCF7C5
:1017C00025F9270005000D4B049A1B6846809B589D
:1017D0009E6B002E07D12800FCF72EF9063C6042D4
:1017E00060410BB0F0BD381DB288B11D28182EF035
:1017F000E3FBB3883668FF18BFB2EAE7F0B9000030
:10180000F0B50E00002189B006AB19717288050091
:101810000691FFF765FA041E4CD10A2702ABFF18A8
:101820003A002800718805ABFFF772FE041E41D113
:10183000B3883F880393BB4207D9073423002800AD
:1018400072883178FFF718FB2FE0280000F06AFC5F
:10185000039B0138FF1A874200D9070006232A029A
:10186000134302AA52890421009228000D22FCF79A
:10187000CDF84780059BB188BFB23A005918039054
:1018800004302EF099FB0398FCF7D6F8B38802AA2F
:101890005289DB19934208D1280000F043FC01383B
:1018A000874202D02800FFF721FE063C60426041DB
:1018B00009B0F0BD062CF8D0C0E7F0B50E0000214D
:1018C00089B006AB0691197172880500FFF708FA16
:1018D000041E3BD10A2202A812187188280005AB09
:1018E000FFF716FE041E31D102AB28005F8900F01D
:1018F00019FC461EBE4200D93E000623B1B22A02A0
:10190000134303910B22009128000421FCF77EF879
:101910000700039B32004380059904302EF04CFBF6
:101920003800FCF789F802AB5B89039A934208D12F
:10193000280000F0F7FB0138864202D02800FFF7AC
:10194000D5FD063C6042604109B0F0BD062CF8D0E0
:101950002300280072883178FFF78EFAF1E7000043
:101960000023F0B50C008FB00CAA0C9313714A88B9
:10197000163304A95B18251F1A802B880600002B3C
:1019800000D1B0E00027B30006936A4BB2001B6899
:101990009B589B6B0493002B01D09B790493002FE1
:1019A0005ED11625A3880AAA04A913806D180BA975
:1019B000A37903911A2104A8091802910CA9019195
:1019C00021000831009130002900FFF7DFFD071EDC
:1019D00000D096E004AB5B8B049A934201D0002ABE
:1019E0003ED1221F1588043DFB2B00D9FB239D42CD
:1019F00000D91D002800ABB202210C3007932CF057
:101A000003F804AB5B8B2A00049304ABDB8A0B99CD
:101A1000838004AB1B8B0590C380057209302EF0C8
:101A2000CBFA221F13880799043B5B1A1380414BA2
:101A3000069A1B680599985838302CF0DDFE04ABE7
:101A40005B8B079A934202D13000FFF74FFD04AB46
:101A5000198B04AA4B1C9BB2D382A288934255D9FE
:101A6000344D069A2B68985838302DF00FF800281E
:101A700056D02B68069A04219B5832029C6B062391
:101A8000257A134304354543ADB230001122009549
:101A9000FBF7BCFF4580237A060004334370002324
:101AA000A288F1180A71120A4A719A1CE18892B24E
:101AB000B2181171090A5171210004339DB2281D19
:101AC000227A301809312EF077FA237A2468EB183D
:101AD0009BB2002CE4D13000FBF7AEFFB81F4342AD
:101AE00058410FB0F0BD00F01DFB0238288063881C
:101AF000A28801279A4200D245E7002B00D041E797
:101B000041E70628ACD12B886380E7E79142A7D054
:101B1000049B221F12880333934200DA41E79FE7B8
:101B2000162304AA9B181A8830003B002178FFF77F
:101B3000A3F9D3E7F0B900000023F0B50E008FB091
:101B40000CAA0C9313714A88163304A95B18341F2E
:101B50001A8023880500002B00D1A5E00027AB00E8
:101B60000693654BAA001B689B589B6B0493002B44
:101B700001D09B790493002F5BD11624B3880AAA65
:101B800004A9138064180BA9B37903911A2104A83E
:101B9000091802910CA90191310008310091280027
:101BA0002100FFF7F3FC071E00D08BE004AB5B8B3A
:101BB000049A934201D0002A3BD1321F1488023C80
:101BC000FD2B00D9FD239C4200D91C002000A3B2AC
:101BD0000221083007932BF017FF04AB5B8B220028
:101BE000049304ABDB8A0B998380059084710730E2
:101BF0002EF0E2F9321F13880799023B5B1A13801B
:101C00003D4B069A1B680599985838302CF0F4FD26
:101C100004AB5B8B079A934202D12800FFF766FC66
:101C20000AAB198804AA4B1C9BB2D382B288934298
:101C30004DD9314C069A2368985838302CF026FF3D
:101C400000284ED02368069A04219B582A029C6BD8
:101C50000623A679134302364643B6B2280009226A
:101C60000096FBF7D3FE4680A3790500023343704C
:101C70000023A288E91802330A719EB2120A4A713F
:101C8000301DA279E11D28182EF096F9A379246859
:101C9000F3189BB2002CECD12800FBF7CDFEB81F47
:101CA000434258410FB0F0BD00F03CFA02382080AA
:101CB0007388B28801279A4200D250E7002B00D0E7
:101CC0004CE74CE70628B4D123887380E7E79142BC
:101CD000AFD0049B321F12880133934200DA4CE7E5
:101CE000A7E7162304AA9B181A8828003B0031781E
:101CF000FFF7C2F8D3E7C046F0B900000023F0B503
:101D00000C008DB00AAA0A9313714A88163302A9EF
:101D10005B18271F1A803B880500002B37D0AB00CB
:101D20000593A38802AA138309AB03931A231621F0
:101D30009B1802930AAB019302A8A31D00930918F4
:101D40000223280008AAFFF721FC061E04904ED0AB
:101D50000A2828D0062814D002AB1B8B02AA013314
:101D6000D382162202A95218A38812889A4206D852
:101D700008AA12889A4202D03B88032BD1D8062E9B
:101D800011D1162302AA9B181B88638029E000F05A
:101D9000C9F9013838806388A2889A4201D3002BA0
:101DA000BDD1012304933D4FAE003B6898593830B4
:101DB0002CF06CFE002800D165E00623800084B280
:101DC0002A0213430421072228000094FBF71EFE79
:101DD0003B6844809B59996B0023002943D1FBF752
:101DE0002BFE04980638434258410DB0F0BDE388FD
:101DF0002B4A9B18012B0ED91A2202A952182389AB
:101E000012889A4227D1200009990A302EF0C6F88C
:101E100000280AD01FE0200002AB9B7E217A099A9D
:101E20000A30FCF7D3FF0028E6D0022108202BF06F
:101E3000EBFD02ABDB8A059A838008AB1B880100AF
:101E4000C380164B083F1B68985838302CF0D4FCE0
:101E50002800FFF74BFB162208AB1B8802A90133B1
:101E6000521813807DE78A88C4182271120A6271A1
:101E70009A1CCC8892B282181471240A54710433CB
:101E800009689BB2A9E7162302AA9B181A882800A2
:101E90002178049BFEF7F0FFA3E7C046F0B90000ED
:101EA00000D8FFFF07B5002A0AD1062301020B4321
:101EB000009204211332FBF7A9FDFBF7BDFD07BD1E
:101EC00013000A001221FEF7D7FFF8E7F7B5050067
:101ED0002A4E83000093336882009B581C6C002CB0
:101EE00000D1F7BD238A264901930C23227DD80017
:101EF000475C974225D109184F68002F05D1214B27
:101F0000290003201B6898470027019B002B1BD04A
:101F1000210028001431B84702000128E1D002282E
:101F20000CD0002824D12800FFF7CEFA3368009A9D
:101F3000985840302CF0A8FC2BF086FC3368009AAF
:101F4000CBE7013BD3D2DAE72800217D01F07AFB11
:101F50000028DDD04023217D1942E4D10E2905D18E
:101F6000228B12232800FEF787FFDCE7E28AF8E7DE
:101F7000044B290003201B689847B0E7F0B9000024
:101F80002C2005183CBF0000F7B50A7A04000D00AC
:101F90000C231E2A15D1002100F0E2F8132802D0EC
:101FA000002540280BD10621230219431C482BF0A1
:101FB00075FB00222000110000F0C6FA0025280061
:101FC000FEBD1848D900095C914224D10620164F65
:101FD000A6003B689B591B6C0193230218432BF00E
:101FE000CBFF00230093830604D4019B5A42534144
:101FF000DBB2009329003B680C39985940302CF033
:10200000FBFB0023AB80009B0125002BD7D02000D9
:10201000FFF75CFFD3E7013BD3D2FF25CFE7C046F4
:10202000410C00002C200518F0B90000020000004F
:10203000BD11051804000000251005180600000059
:10204000FD1C051808000000391B051810000000D1
:10205000611905180A000000BB1805180C000000E3
:10206000011805180E000000A916051852000000FE
:102070003D0E051812000000DD0F0518D20000000B
:102080007D0D051816000000A10E051818000000AF
:102090003113051800020300020000080C000300C1
:1020A00000040C00030000400C0003000010C000FE
:1020B000060000203000060070B50C00184E8500A8
:1020C000012911D1336858590369002B06D13368AF
:1020D000A4005B59E058002813D170BD10302CF0DB
:1020E000D3FB2BF0B1FBEDE70229F0D1336858594F
:1020F000036A002BEBD020302CF0C6FB2BF010FD38
:10210000F4E72BF0ABFB002805D133685B59E058AE
:102110000C382BF099FB002233685B591A51DCE72D
:10212000F0B90000034B80001B68C3585033188877
:102130007047C046F0B9000070B5140006220D00CB
:102140000002190004AB1E7802430423C02098400B
:102150002BF026FB0570467044802BF045FB70BDCC
:1021600070B50F4B05001B780C00013B984205DB56
:1021700000220C4B110001201B689847032C05D945
:102180000022084B110001201B689847064BAD0048
:102190001B68A400EB58E358181E00D0187870BDD7
:1021A000E9BE00003CBF0000F0B9000070B50F4B65
:1021B00005001B780C00013B984205DB00220C4B0C
:1021C000110001201B689847032C05D90022084BF9
:1021D000110001201B689847064BAD001B68A40046
:1021E000EB58E358181E00D0588870BDE9BE0000B7
:1021F0003CBF0000F0B9000070B50E4B05001B7825
:102200000C00013B984205DB00220B4B1100012022
:102210001B689847032C05D90022074B11000120A9
:102220001B689847054BAD001B68A400EB58E058AD
:1022300070BDC046E9BE00003CBF0000F0B9000020
:10224000F7B51C4F830001933B6882009B581A4AE4
:102250000400914229D911001A000126503253334B
:10226000118020001E7002F089FA0622230201006C
:102270001A43124804232BF093FA3B68A2009B58A0
:10228000310050331B88050003802000FFF768FFF2
:1022900000230100B04203D12000FFF7ADFF4388C7
:1022A00028006B802BF0A0FAF7BD1729D4D2172194
:1022B000D2E7C046F0B9000005020000020C0000A1
:1022C00070B50E4B05001B780C00013B16009842C0
:1022D00005DB00220A4B110001201B689847032CE4
:1022E00005D90022064B110001201B689847054BB9
:1022F000AD001B68A400EB58E65070BDE9BE0000BD
:102300003CBF0000F0B9000070B5154B04001B780D
:102310000D00013B984205DB0022124B1100012009
:102320001B689847032D05D900220E4B1100012090
:102330001B68984700200C4BA2001B68AD00D358C7
:10234000ED5885420AD028002BF085FA0621240298
:102350000200214328002BF066FA012070BDC04620
:10236000E9BE00003CBF0000F0B9000070B5114BA1
:1023700005001B780C00013B984205DB00220E4B48
:10238000110001201B689847032C05D900220A4B35
:10239000110001201B6898470020084BAD001B6806
:1023A000A400EB58E358834202D018002BF053FAF4
:1023B00070BDC046E9BE00003CBF0000F0B900009F
:1023C00070B5062400020443200016000D002BF017
:1023D000D3FD002E05D02843C1B220002BF060FDB4
:1023E00070BDA843F8E7000070B500210600542036
:1023F0002BF00AFB041E05D11D4B020001001B68D7
:1024000001209847002520006560A560E560103038
:102410002CF0DCF9200018302CF0D8F92000203006
:102420002CF0D4F92000A562256030302CF0CEF9D4
:10243000200038302CF0CAF9200040302CF0C6F9CA
:10244000230004224D33A5641A7017230620236548
:10245000084BB2001B682900D450330218432BF0FC
:102460001FFD300001222021FFF7AAFF70BDC046EA
:102470003CBF0000F0B90000F0B585B004000AA828
:10248000008801900BA8008802900CA80088039097
:1024900000294AD02A49A600096817008D59012150
:1024A0003035687F0F40884307438B4002208743C5
:1024B00003403B4304270240BB43574257415BB2B2
:1024C000B80003430820FF0083433B436B77002A97
:1024D00003D020001B4A01F065F8194F3B689D5955
:1024E0002B8D002B21D1039B002B1ED001210C2012
:1024F0002BF08AFA019B22028380029B0100C38099
:102500000623134303813B68985918302CF074F963
:10251000019B29002B856B46029A1B792A31D21A1E
:102520000A70039A2B35D31A2B7000222021200029
:10253000FFF746FF2000FFF7C9FC05B0F0BDC0461D
:10254000F0B90000FFFF0000F7B5174F86003B68A9
:1025500000929B598A00D35804000D000192002B71
:1025600016D0FFF703FF06220100C02023021A4302
:10257000000104232BF014F93B68AA009B59D3589F
:102580001A780270009A42705B8843802BF02CF915
:1025900029002000FFF790FD0121A9400022200022
:1025A000C9B2FFF70DFFF7BDF0B90000F7B5284F2E
:1025B00086003B6804009B590191002B25D0002523
:1025C000019B002B32D0462229002000FFF7BCFFE0
:1025D0003B6898598369002B2DD10135EDB2042D4C
:1025E000EED12000FEF792FE3B689859056C002D55
:1025F00027D12000FEF768FF2000FEF777FF3B6839
:1026000098592BF08DFA3B689D5106202402044313
:10261000C420210000012BF041F821000D482BF0CF
:102620003DF8402120002BF03BFCF7BD29002000A5
:10263000FFF742FDCCE718302CF026F92BF070FAAA
:10264000C6E740302CF020F92BF0FEF8CCE7C0466E
:10265000F0B90000410C000070B5040001282FD033
:1026600002282BD0002814D11A491B4B1B4D0B609C
:102670001B4B06201B6806264B602B78013B0B8109
:10268000184B1B884B812BF0B3FB2B78013B9C42F2
:1026900000DB70BD20024021304301342BF000FCF0
:1026A000E4B2F2E720000021FFF780FF0134E4B23A
:1026B0000A4B1B78013B9C42F4DBEAE70024F7E776
:1026C000064B00211A78084B013A186892002DF049
:1026D0008FFCDEE7E4B9000064320518E9BE0000B3
:1026E000F4B900006C330518F0B9000070B50400AF
:1026F00002F044F80622230201001A43144808237A
:102700002BF04EF8134BA4001B68E35819001A8DE8
:102710002A31028009785118418019002B310C7838
:1027200000218C4201D0121991B2042281803033F1
:102730005B7F01211A4055426A411C008A400B41CF
:102740000C4022430B408271C3712BF04DF870BDD9
:10275000280C0000F0B9000070B510000D00140046
:102760002BF00AFC402817D0240A01212000FFF793
:10277000F7FC0D38012804D8012120006A78FFF702
:10278000E3FE00212000FFF7EBFC122804D100211A
:1027900020006A78FFF7D8FE002070BD70B51000E9
:1027A0000D0014002BF0E8FB402812D02B78F12B01
:1027B0000FD16B78002B0CD0074B240A1B68A200AA
:1027C000D05840302CF060F82BF03EF8E0B2FFF724
:1027D0007DFB002070BDC046F0B90000F0B51000D0
:1027E00085B00C0015002BF0C7FB402806D02378DD
:1027F0002D0AEEB2F02B04D0F12B2ED0002005B024
:10280000F0BD01213000FFF7ABFC41220E281FD1A3
:1028100001213000FFF7F0FC062367882D02033FFB
:10282000BFB22B43D2220421039000973000FBF764
:10283000EDF80500039B87809B883A004380E11DEB
:1028400006302DF0B9FB29003000FDF7E3FE002231
:1028500001213000FFF778FED0E730006188221DAB
:10286000FEF7DCFCCAE7000070B510000D00140094
:102870002BF082FB40282FD02878240AE6B21528B6
:1028800010D8012828D90238132825D82DF068FB44
:1028900026262626242633243F24332424243324A6
:1028A00024242433402817D16B78002B14D11E4BDD
:1028B000A4001A681419042223684D3319781142B0
:1028C0000AD10A431A700822236830004D33197860
:1028D0000A431A70FFF70AFF002070BD0221300082
:1028E000FFF73EFC1538C0B20128F5D83000297832
:1028F00001F018F8F0E703213000FFF731FC212840
:10290000EAD130006A78297801F0A8FAE4E70321D7
:102910003000FFF725FC2028DED1032130006A7843
:10292000FFF712FED8E7C046F0B9000010B510005E
:1029300014002BF021FB402802D0200AFDF782FE74
:10294000002010BDF7B50190100015002BF014FB0E
:1029500040281ED0144F2C0A3B68E6B2A4001B5935
:1029600052331B78002B07D1300001F007FF2A00FB
:1029700001000E482AF050FF01213B68019A1B59C3
:1029800052331970C4231B019A4204D0084B9A4257
:1029900006D00020FEBD45223000FFF7D5FDF8E748
:1029A00045220021F8E7C046F0B900001B0C0000EA
:1029B000410C0000F7B510000D0014002BF0DCFAFC
:1029C000402801D1002010E02B78240AE6B2002B29
:1029D0000CD129003000FFF7D7FAFF2805D12900D4
:1029E0003000FEF7F1F8FF28ECD0FEBD342B01D00B
:1029F0003F2BE7D12A7A402317001F401A42E1D12A
:102A00002302062401222343042130000097FAF711
:102A1000FDFF47802B7A43702B783F2B00D0023C80
:102A20000471FBF709F8CDE7F8B510000D001400AC
:102A30002BF0A2FA0023402814D00B4F240A3B6845
:102A4000A6009A59136C002B0CD0906C002802D071
:102A50000C382AF0F9FE3B68E0B29B599D64FFF701
:102A600035FA01231800F8BDF0B90000F8B51000E0
:102A70000C0017002BF080FA402815D0154E3F0AA5
:102A80003368BD005B591A6C002A0DD0117D1629E0
:102A900018D12379FFB2002B08D161880E4B0B436C
:102AA00013823800FFF712FA0020F8BD38002288A0
:102AB000FEF7E2F93368585940302BF0E5FE2AF072
:102AC000C3FEEEE7054B0A00032039001B68984758
:102AD000EAE7C046F0B900000080FFFF3CBF0000FD
:102AE000F8B510000C0015002BF046FA402823D052
:102AF000224F280A3B6886009B59C5B21B6C002BED
:102B00000BD0197D18292ED018D8122925D01C4B8E
:102B10000A001B68010003209847A378002B0BD103
:102B20003B689B599B6C002B06D01A8823889A42DD
:102B300002D12800FEF7DAFC0020F8BD7F230B400D
:102B4000522BE4D13B68985940302BF09DFE2AF07F
:102B50007BFE2800FFF7BAF9DFE72800A27821887A
:102B6000FFF7A0F9EEE7A378002BF2D02800228827
:102B7000FEF782F92800FEF7C9FBE3E7F0B9000091
:102B80003CBF0000190010B5030A04000C2B08D14B
:102B90008A4206D004480A3B2AF002FE04802AF04A
:102BA00023FE002010BDC0461C0C0000F0B587B00D
:102BB00004000D0016000393032905D90022284BB9
:102BC000110001201B6898470620230218432BF0B0
:102BD000D3F933780700049373880593402825D0F0
:102BE00029002000FFF708FB01231A00864203D0CA
:102BF0002F41DA181F4208D0100007B0F0BD049A28
:102C0000934215D0039B01330393039B1B78002B46
:102C1000F5D1402530002AF01EFE059A03000499E4
:102C200020000095FFF788FA0022E5E74325F1E749
:102C30000C4BA2001B68D35852331B78002BF5D1E4
:102C40003200012629002000FFF73AFB3100A9409D
:102C500032002000C9B2FFF7B3FB3200CCE7C04618
:102C60003CBF0000F0B90000F7B514000D00240AC5
:102C70000422144901A8E7B22DF09EF92A00002190
:102C8000380001ABFFF792FF0600012817D10E4B69
:102C9000A4001B68E3589B6C002B06D01A88AB88F5
:102CA0009A4202D13800FEF721FC29003800FEF7D5
:102CB000D3FA021E03D000213800FFF745FC300094
:102CC000FEBDC0464C320518F0B90000F0B5140046
:102CD0000D002A4987B0240A0322043105A8E6B270
:102CE00003932DF069F92A000121300005ABFFF7AD
:102CF0005DFF029001281AD1A300214F0193019A90
:102D00003B6898588469002C14D12B784022112BF1
:102D10001ED1002C07D0210018302BF0BFFD200061
:102D20002AF0FEFE002201213000FFF70DFC029880
:102D300007B0F0BDA288AB889A4207D1E288EB8841
:102D40009A4203D12389039A9342DED02468DAE7BA
:102D5000002CE8D101210C202AF056FEAB88019A04
:102D60008380EB880100C380039B03813B689858F4
:102D700018302BF041FD2200D5E7C0464C32051833
:102D8000F0B9000073B50E000F2101AB150A1980D0
:102D9000320028000E39FFF709FF0400012803D193
:102DA00028007178FDF75EFC200076BDF0B51500B7
:102DB0000C00704987B02F0A0422073105A8FEB223
:102DC0002DF0FAF822000121300005ABFFF7EEFEEE
:102DD0000390012800D085E023780D2B2CD00E2BFA
:102DE0004BD00C2B00D07DE06378002B00D182E02B
:102DF0003000FFF797F922890238904200DC7AE030
:102E0000E388002B00D076E03F02063304213B43E9
:102E1000009230001222FAF7F9FD21000500A38884
:102E20000C3143802289828006302DF0C5F82900BC
:102E30003000FDF7EFFB55E0238930000293FFF7E8
:102E400071F9029BC51E9D4200D91D0006233F0259
:102E5000AAB23B430421009230005222FAF7D6FD79
:102E600021002A00A38807004380ABB283800C3185
:102E700006302DF0A1F83900DAE70021300001F02A
:102E800085FC002831D0300001F0A4FC00282CD0B3
:102E9000238930000293FFF745F9029B0F339BB261
:102EA000984222D30821EF20029B3F0213332A00CD
:102EB0009BB2394300012AF073FCF023037023898D
:102EC000210007334380D22305000371A3880C310E
:102ED00043711B0A8371228907302DF06DF8280099
:102EE0002AF082FC039807B0F0BD53220121300084
:102EF000FFF72AFBF6E72389658902939D4220D2DA
:102F00003000FFF70FF9029B05385D1B854200D9A1
:102F1000050006233F02AAB23B4304210092300081
:102F20001622FAF773FDA388070043806189E388BE
:102F3000CB1883800C31ABB2C3801A000830611803
:102F400097E76278002A0FD052220B4BBF001B6814
:102F50003000FB582C331A70029BED1A694269410C
:102F6000C9B2FDF77FFBBDE7029B9D42BED0522256
:102F7000BCE7C0464C320518F0B90000F0B51700A8
:102F80000C00474985B03F0A05220B3102A8FDB26B
:102F90002DF012F822000121280002ABFFF706FEF7
:102FA0000600012817D120780838032813D82CF000
:102FB000D7FF4050025E3B4BBA001B68D3581B69D9
:102FC000002B36D1A288E3889A4207D940220121FA
:102FD0002800FFF7B9FA300005B0F0BD217A1029BA
:102FE00006D0042903D0022902D05122EFE7102194
:102FF00006233F023B430822009128000421FAF7F0
:1030000005FD2100A38807004380E3880931838000
:10301000227A0830042A08D11023FB80FBF7B8FE7F
:1030200039002800FDF7F6FAD5E7FA802CF0C4FF46
:10303000F6E7E18800290CD106233F0200910A221D
:10304000043128003B43FAF7E1FC0100A3884B80E0
:10305000E7E7002206233F0204213B4300922800B9
:103060000C32FAF7D3FCE38801008380EEE70623F5
:103070003F021F4363780E225B0004210093280067
:103080003B00FAF7C3FC01006378021D43809B00FC
:10309000E3189C42C5D0A088043410800232F8E7BF
:1030A0004C320518F0B90000F0B517000C004B4980
:1030B00085B03F0A0722103102A8FDB22CF07CFF38
:1030C00022000121280002ABFFF770FD0600012855
:1030D00008D1A288E3889A4207D94022310028000B
:1030E000FFF732FA300005B0F0BD6178102905D045
:1030F000FD228B1E134201D0AC3AEFE72078023854
:103100000528EFD806233F022CF02AFF490339286F
:10311000285A022900D010213B43062200912800A2
:103120000421FAF773FCA38821004380E388070099
:103130008380A0239B01C380627808310A30042A6F
:1031400008D110233B81FBF723FE39002800FDF74F
:1031500061FAC7E73A812CF02FFFF6E73B430227DD
:103160000421082228000097FAF750FC0100A388E8
:103170004380E388C7808380194B0B81E6E73B439C
:1031800002270421082228000097FAF73FFCA388B1
:1031900001004380E388C7808380124BEDE73B4307
:1031A00002270421102228000097FAF72FFCA38899
:1031B00001004380E388C7808380A0239B01DCE774
:1031C00000220092043211003B432800FAF71EFC53
:1031D000A38801004380E3888380B7E74C32051859
:1031E00003280000022800007FB508000121140A0E
:1031F00003ABE6B2020019803000FFF7D7FC0500F0
:10320000012818D1104BA2001B68D35853331A78E9
:10321000002A13D106232402042123430092300004
:103220000232FAF7F3FB040005F0D8FF21006080BA
:103230003000FDF7EFF9280004B070BD0100432213
:103240003000FFF781F9F6E7F0B9000012134000F3
:103250001011000C0D0E0008090A0B0002030405F2
:1032600006070000FFFF0000852B0518010C000079
:10327000E9310518030C0000A9300518080C0000FE
:103280007D2F05180A0C0000AD2D05180B0C000051
:10329000852D0518400C0000452905180F0C00006D
:1032A000CD2C05180E0C00002D290518190C000056
:1032B000C1360518040C000089370518050C0000FC
:1032C000B9370518060C000029380518070C00004E
:1032D000B5380518220C00005D3C05181A0C0000DA
:1032E000D93C0518090C0000113E0518200C0000FF
:1032F000693E05180D0C0000C13E0518250C0000A4
:10330000253F0518140C0000292A0518160C00008A
:10331000E12A0518180C00006D2A0518100C000091
:10332000692C0518410C000045290518150C0000F2
:10333000D1330518170C0000C1340518130C000018
:103340000D350518000C000069280518F10E000065
:10335000DD270518000E00009D270518130A000040
:10336000B5290518040A0000592705182100000096
:10337000F8B50F00062115001202114389B2162379
:1033800006000A0010482AF00BFA0400072000F09B
:10339000F9FD1023208063802671002E0FD10B4B86
:1033A000AD001B68EB584D3319784A0702D4082248
:1033B0000A431A7010223900601D2CF0FDFD200018
:1033C0002AF012FAF8BDC046140C0000F0B9000053
:1033D000F0B5100085B00D00019202932AF0CCFDEB
:1033E000402850D0029B28881E0AF7B200F0BAFD90
:1033F000032816D0802405283AD12F4BB6001B682D
:10340000AC799E19326802234D32117808001840B9
:10341000039001200440194238D0002C49D11334C4
:1034200026E0AA888024022A22D1EB79A8791B02FF
:10343000184300B20100914309B2002918D11E4B74
:10344000B6001B680238F258464246414D321378A6
:10345000F0B21C00039001200440A4460C00B445C7
:1034600006D0039983430B4338001370FFF73EF9EE
:103470000423019A029911482AF092F984702B884A
:1034800003802AF0B1F9002005B0F0BD002CEFD088
:103490000B4313700422336838004D3319780A4304
:1034A0001A70082233684D3319780A431A70FFF7EF
:1034B0001DF90024DCE7C046F0B90000160C00003E
:1034C000F7B510000D00160001932AF055FD4028B5
:1034D00018D0288800F046FD032805D000240528D0
:1034E00000D08024002701E00024022706233200B8
:1034F000019905482AF054F92B880471038047800C
:103500002AF072F90020FEBD180C0000F7B50888FB
:103510000F001D0A00F026FD052826D0072831D00F
:10352000032835D1022400261B4BA9001B6801AAE1
:10353000CB584D331B7856705B0023401370062127
:103540002D0229430A00A31D14482AF029F9050079
:103550003B88220003804480067101A905302CF0CD
:103560002BFD28002AF040F910E001240A4BAA00A4
:103570001B680026D35801AA4D331B785B102340EB
:103580001370DCE729000648FCF774FA0020FEBD42
:1035900000248026D3E7C046F0B90000140C0000D8
:1035A00071330518144B70B51B6815008200D35891
:1035B0000E004D331B78DB071CD5062100020143AA
:1035C000C1200C230A0000012AF0EAF8402303700E
:1035D000002304004380022000F0D4FC0423267260
:1035E000A572360A2D0AA080E38020006672E5727B
:1035F0002AF0FAF870BDC046F0B9000070B50F4E61
:103600008500336804005B59002B16D001210C4A59
:10361000FFF7C8FF33685B191A684D3211788807C5
:103620000BD004208143117008211B6820004D330A
:103630001A788A431A70FFF759F870BDF0B9000084
:10364000FFFF000070B506251C4B82001B680400BC
:10365000D358002030335A7F1540022D1BD11D292D
:1036600014D8012917D9881E1B2821D82CF078FCE2
:1036700014201420142014201720172017201420A1
:103680001720202017201420202420247F200140F0
:1036900052394842484170BD00201107FBD508212E
:1036A0000A4207D004390A4320005A77FFF71EF870
:1036B0000020F0E70A435A770120ECE7F0B9000058
:1036C000F7B515000C0004222C4901A82F0A2CF094
:1036D00073FC22000221380001ABFFF767FA0600F5
:1036E00001283BD123784322172B0FD0A288002A30
:1036F0000BD0E188914208D3152B0DD1FD226378C0
:10370000991E114208D0102B06D040220221380009
:10371000FEF71AFF3000FEBD18232A0029001848C2
:103720002AF03EF8237805000830152B0FD1210030
:10373000123B2B70627808316A702CF03DFCA38834
:103740002800AB80E388EB802AF04EF8E2E70D4BCF
:10375000022200212B802CF04BFCF0E70228D9D16B
:103760002378172BD6D101003800FEF745FD002342
:1037700006009842CED01E008380CBE7E03A0518C1
:10378000030C00000202000070B5140A0D00E0B244
:103790000221FEF7E5FC1538C0B2012808D829003F
:1037A000044BA4001B680C39E05820302BF024F89F
:1037B000012070BDF0B9000070B5150A0C00E8B228
:1037C0000221FEF7CDFC1538C0B2012826D8144BD3
:1037D000AD001B68EB58186A00281FD0114B828877
:1037E0009A421BD12388C28B934217D9018C9942EC
:1037F00014D3013B9B1A162201259BB25343C118D7
:10380000CA1CD577628804310A86A288C0184A8605
:10381000A2792430CA77E11D2CF0CEFB002070BDC8
:10382000F0B900001A0C0000F8B5150A0C00E8B257
:103830000221FEF795FC1538C0B2012833D81B4B86
:10384000AD001B68EB58186A00282CD0184B8288F2
:103850009A4228D12388C28B934224D9018C8B426F
:1038600021D816250227013B9B1A9BB26B43C31834
:10387000DE1CF777668804331E842779DF77B2422F
:1038800011D2B1420FD30321013EB21A92B2554375
:103890004319DA1CD177627904334019DA7724307E
:1038A000A11D2CF089FB0020F8BDC046F0B9000036
:1038B0001A0C000070B5150A0C00E8B20221FEF7E0
:1038C0004FFC1538C0B2012825D8144BAD001B6839
:1038D000EB58186A00281ED0114B82889A421AD1E0
:1038E0002388C28B934216D9018C994213D3013B92
:1038F0009B1A16229BB25343C118CA1CD57F002DB8
:1039000009D10435D577A2784919C018CA7724306F
:10391000E11C2CF051FB002070BDC046F0B9000046
:103920001A0C0000F0B50D0085B002210090FEF7E2
:1039300063FC002800D185E00378153B012B00D9FA
:1039400080E08388002B00D1A4E0009BA81E9B0090
:1039500001935F4B019A1B689B581C6A002C00D195
:103960009CE05C4AA188914200D0A7E00C34052875
:1039700068D82CF0F5FA0D0D8C9F6703002C00D150
:1039800096E0203318002AF07FFF200029F02CFF5A
:1039900000250622009B1B021A43039242E02030BE
:1039A0002AF072FF4C4B828806009A4203D029F01D
:1039B0004BFF412511E0C389828902219B1A9BB2EA
:1039C0005C1C029316235C43200029F0C1FF0028F1
:1039D00009D1300029F038FF4B252A000221009838
:1039E000FEF7B2FD2EE002210098FEF7BFFCA3B265
:1039F0000100039A374829F0D3FE3100B389113111
:103A00004382F38904008382327C027001302CF0FF
:103A1000D3FA300029F018FF029B002B14D12000AC
:103A200029F0E2FE2A4F019A3B689858036A002B5E
:103A3000B5D1002DD1D1264B019A1B689B581B6A2A
:103A4000002BCAD005B0F0BD21003B68019A0C39AB
:103A50009858042720302AF005FF0621009B1F48B4
:103A60001A0211430A000A2329F09AFE02220600D4
:103A70000770638A002101338380A38A4270C38068
:103A800008302CF0B5FA300029F0AEFED1E705275A
:103A90000025E2E74425A0E700259EE70528FBD89E
:103AA0002CF068FA76FF76FF87FF87FFFAFF0600A3
:103AB00041256EE70727002CEAD17AE70528C1D80F
:103AC0002CF058FA66FF66FF77FF77FFC0FFF6FF1E
:103AD000F0B900001A0C0000040C0000030C0000F8
:103AE00015161700F8B50F00062100021D0001434E
:103AF0000C3316009BB20A000A4829F051FE00233D
:103B00000400C38043810D33FF332A004780868041
:103B10000581038006990C302CF04EFA200029F024
:103B200063FEF8BD0A0C0000F0B5464B82001B682E
:103B30000F0085B003210500D658FEF75DFB041E7B
:103B400023D00378212B20D1002F00D070E04078C3
:103B500005281AD82CF004FA031B2A45536C0621B9
:103B60002D0229431A230A00374829F019FE6388D9
:103B700001254380354B8580038001235B42C38050
:103B8000334B038129F030FE657005B0F0BDE2884B
:103B9000002A0BD00E200123684403706188009036
:103BA0002800FFF79FFF02236370EEE733002B33FB
:103BB0001B78002B15D006212D0229430A0008236B
:103BC000244829F0EDFD1023037063884380338D72
:103BD0002A36838032789B18C38029F005FE0323A0
:103BE000E2E7A288002A0AD00E200223684403805C
:103BF000618800902800FFF775FF0423D4E723892C
:103C0000002B15D006212D0229430A230A00124851
:103C100029F0C6FD6388438084235B000380002372
:103C2000C38003812389838029F0DEFD0523BBE760
:103C30002800FEF75BFD3A0003212800FEF784FC14
:103C4000A3E7C046F0B90000190C000015020000FF
:103C5000011800000F0C0000080C0000F0B5140063
:103C600087B0120A01926A4621251779039305ABA2
:103C70000A000E00380003211D80FEF797FF019017
:103C8000012822D1124B21001A68230A9B009B585D
:103C90001048039A02930A2329F082FD058000252B
:103CA0007388040043808580C580058130000C380E
:103CB00029F0CAFD032138002200FEF701FB029B18
:103CC000290038009D62FFF72FFF019807B0F0BD73
:103CD000F0B90000220C0000F0B5100087B00D0014
:103CE00014002AF049F9402833D0424B240A1B68BB
:103CF000A200D3580321E0B20293FEF77DFA0190AF
:103D0000002826D00378212B23D1029B1B8D0393FF
:103D1000002B1ED12978384A681CFBF781F800284F
:103D200008D1AB786A781B021A43344B21001B6818
:103D300002309847002637006A8A029B1A85AB8AB0
:103D40009B1A029A2A321370AB8A6A8A9B1A9F4284
:103D500002DB002007B0F0BD162078432B18049337
:103D60007A1C9B7DD2B20592032B08D0042B2ED057
:103D7000022B02D1049B1B8B0393059FE4E7049B5A
:103D800018302C182000D97D1D4AFBF749F8061E73
:103D900004D0029B059A2B331A70EEE7049B200097
:103DA000D97D184AFBF73CF8071E03D0019B039A04
:103DB0001A81E2E7049B2000D97D134AFBF730F813
:103DC000061EDAD0019B039A3E00DA80D5E7002E6A
:103DD000D3D02B181830D97D0C4A2818FBF720F8BF
:103DE0000028CAD06B8A06000133DF19019B9F802F
:103DF000C3E7C046F0B90000011800003CBF000056
:103E0000052A00002A2B0000292B000002290000AF
:103E100070B510000C0015002AF0AEF8402819D03B
:103E20002E0A03213000FEF79BF92038C0B201288A
:103E300010D8300000F0A2FC2A0001001023064830
:103E400029F0AEFC05001022A11D2CF0B5F82800C9
:103E500029F0CAFC002070BD210C000010B5110033
:103E6000FFF762FE10BD000073B50D00202101AB0D
:103E7000160A19802A00F0B21D39FEF797FE0400D9
:103E8000012816D10621360231430A230A000A48C6
:103E900029F086FC6B888480438085235B00038047
:103EA0000C3BFF3BC380054B03812B23837229F01E
:103EB0009BFC200076BDC046080C0000022A0000D2
:103EC00070B510000D0014002AF056F8402822D0DA
:103ED000124B240A1B68A200D358A9881A8D2B33D1
:103EE0001B78D318994216D1E0B200F047FC0622A5
:103EF0002402010004232243094829F051FCEA79F5
:103F0000AB791202134303806A7A2B7A12021343AD
:103F1000438029F069FC002070BDC046F0B9000064
:103F2000240C000070B5100014002AF025F8402879
:103F300012D00A4A230A12689B009D5821000223CE
:103F40002200074829F02CFC2B002B331B782A8DEC
:103F50009B18038029F048FC002070BDF0B90000D8
:103F60000E0C0000064A0300928EFF20002A05D0A6
:103F70009A4203D29B1A072B00DCD8B27047C04686
:103F8000F8B90000054A0300908E002803D0072BE3
:103F900002D8C01880B270470020FCE7F8B90000D2
:103FA00010B5041E05D0022807D02000FEF754FBF0
:103FB00010BD0520034929F01BFF0021052029F031
:103FC0006FFFF2E7904205187FB5FF230593094B79
:103FD000094998863433180001230393074B05AA37
:103FE000029306230193002300930833FAF756FF48
:103FF00007B000BDF8B90000011800003C400518EA
:1040000010B5FEF7F1F910BD10B50121FEF7CEFA9B
:1040100010BD000010B50024064B1C77064B1B7822
:10402000013B9C4200DB10BD20000134FFF7E6FAA3
:10403000E4B2F3E7F8B90000E9BE0000002800028E
:10404000000000000328000200000000052A0020F4
:10405000008004000229000A000002000328000278
:1040600000000000292B000A008010000328000235
:10407000000000002A2B00020080100070B519001B
:10408000084816001D00FBF7F5FC041E08D011239C
:1040900032002900044829F083FB047029F0A4FBB6
:1040A000002070BDAD400518210B000070B5112334
:1040B00006000D00074891B2052229F071FB0400AB
:1040C00029000670102201302BF076FF200029F025
:1040D0008BFB70BD210B000070B50A480C00190065
:1040E000042329F05DFB002205006188231D208840
:1040F000FBF71EF8A870238828002B8029F074FB9A
:10410000002070BD0D0B0000F0B5002785B01D002C
:1041100002AB9C1C0E000092088803AA21005F805D
:10412000FBF76AF8238829000633009A01909BB2B6
:10413000094829F035FB05002288039942800530A3
:104140002BF03AFF019B28002B7133882B8029F03C
:104150004BFB380005B0F0BD0B0B000070B50A48F2
:104160000C001900042329F01BFBA28805006188BC
:104170002088FBF707F9A870238828002B8029F0F6
:1041800033FB002070BDC046090B0000F0B50025D0
:1041900085B00E0002AF19000E48082302953D714C
:1041A00029F0FEFA2B000400811C2A0030880097B9
:1041B000FBF7F0FE8022029BA0719B885201134006
:1041C000A38033882000238029F00EFB280005B04F
:1041D000F0BDC046070B000070B509480D0019007E
:1041E000042329F0DDFAA97804002888FBF768F990
:1041F000A0702B882000238029F0F6FA002070BDE3
:10420000050B000070B509480D001900042329F0C2
:10421000C7FA0400811C2888FBF763F9E0702B883B
:104220002000238029F0E0FA002070BD030B00007D
:1042300070B50C480C001900042329F0B1FA0500F0
:104240006088C3B2102B02D104F0A6FF608020006A
:10425000FBF7B2F9A870238828002B8029F0C4FA54
:10426000002070BD010B0000190010B5030A040006
:104270000B2B08D18A4206D00448093B29F090FA5A
:10428000048029F0B1FA002010BDC0460E0B0000DA
:104290009C42051830BA000001000900FFFF000031
:1042A00069420518000B000031420518020B00009E
:1042B00005420518040B0000D9410518060B000043
:1042C0008D410518080B00005D4105180A0B000020
:1042D000094105180C0B0000D9400518200B0000FF
:1042E0007D40051870B505000C00012901D103F0CF
:1042F000E9FD0B4EAD003368A4005B59E05800287F
:104300000DD029F0ABFA002805D133685B59E0588D
:104310000C3829F099FA002233685B591A5170BDA4
:1043200040BA0000F0B50C000027082687B00293C1
:104330000CAB1B7800920393594D2B78013B9F42A5
:1043400005DA3802304329F017FE3F2805D12D78D1
:10435000013DAF4204D1FF278EE00137FFB2EBE70A
:104360000622504904A82BF027FEAF4205DB0022AD
:104370004D4B110001201B6898474C4EBD0033681F
:1043800000215B195820019329F03EFB019B582224
:1043900018603368002158592BF02AFEC822336870
:1043A00000215B599A875533A93A1A70173A3B0294
:1043B00013431800019329F073FD336861885D1978
:1043C0002B6826009A1DD187202146331A78123691
:1043D0008A4311002279501E824152010A431A7009
:1043E0003000062204A92BF0D9FD2B684E3300289B
:1043F00045D01800062231002BF0DEFD01222B688B
:10440000543326000C361A703000062204A92BF013
:10441000C5FD0300286806224730002B38D0310044
:104420002BF0CAFD01222B684D331A70FF222B6836
:104430009A81009ADA81072A1ED01223019A0099E4
:104440001B4829F0ADF9012205006388A11D0380F6
:1044500063791340437205320A302BF0ADFD238B94
:1044600028006B80638BAB80A38BEB80A37F2B72C8
:1044700023792B7429F0B8F9380007B0F0BD180083
:104480000622A11D2BF098FD2B6862795433B8E702
:1044900002992BF091FD2B68039A4D33C5E7C04676
:1044A000E9BE0000D04A05183CBF000040BA000039
:1044B000010E000070B515000822000202430C0036
:1044C00004481900042329F06BF90580847029F051
:1044D0008BF970BD030E00000100002010B50A4BDF
:1044E0000A4A1B781468013B984202DB00D1FF2086
:1044F00010BD82001259002A03D00632D28F8A42A0
:10450000F6D00130C0B2EFE7E9BE000040BA0000CB
:10451000074B1B78013B984208DA064B80001B686A
:10452000C358002B02D00633D88F70470248FCE7EF
:10453000E9BE000040BA0000FFFF000003000020B9
:10454000FF2B09D0054A9B0012689B58181E03D008
:10455000463318788006C00F7047C04640BA000046
:10456000074B10B51C6880002418206806224730CD
:104570002BF022FD012223684D331A7010BDC04676
:1045800040BA000003000A000020FF2B0BD00129D5
:1045900009D805499B0009685858002803D007210D
:1045A000514347314018704740BA0000044B800027
:1045B0001B68C358181E01D0563318787047C04680
:1045C00040BA000070B50D0011000822000202433D
:1045D000E0201C000001022329F0E2F8057044707D
:1045E00029F002F970BD000070B50F4B05001B7873
:1045F0000C00013B984205DB00220C4B110001200E
:104600001B689847022C05D90022084B1100012095
:104610001B689847064BAD001B68A400EB58E35895
:10462000181E00D0187870BDE9BE00003CBF000025
:1046300040BA000070B50E4B05001B780C00013B22
:10464000984205DB00220B4B110001201B689847A4
:10465000022C05D90022074B110001201B68984746
:10466000054BAD001B68A400EB58E05870BDC04678
:10467000E9BE00003CBF000040BA000070B50E4B20
:1046800005001B780C00013B1600984205DB002258
:104690000A4B110001201B689847022C05D9002203
:1046A000064B110001201B689847054BAD001B68A5
:1046B000A400EB58E65070BDE9BE00003CBF00000E
:1046C00040BA000070B5154B04001B780D00013B8B
:1046D000984205DB0022124B110001201B6898470D
:1046E000022D05D900220E4B110001201B689847AE
:1046F00000200C4BA2001B68AD00D358ED5885423A
:104700000AD0280029F0A7F808212402020021433A
:10471000280029F088F8012070BDC046E9BE0000DD
:104720003CBF000040BA000070B5114B05001B787B
:104730000C00013B984205DB00220E4B11000120CA
:104740001B689847022C05D900220A4B1100012052
:104750001B6898470020084BAD001B68A400EB586D
:10476000E358834202D0180029F075F870BDC046A6
:10477000E9BE00003CBF000040BA0000024B8000D0
:104780001B68C358D889704740BA0000030001294C
:104790000DD0022914D00020814210D10C4A9B0078
:1047A00012689B58463318784007C00F07E0084A44
:1047B000830012689B5846331878C0100840704731
:1047C000034A830012689B5846331878C006ECE70A
:1047D00040BA0000084A030012780020013A9342D0
:1047E00009DA064A9B0012689B58834203D046337D
:1047F0001878032318407047E9BE000040BA000053
:1048000003000020FF2B07D0044A9B0012689B582E
:10481000181E01D03E3318787047C04640BA0000D9
:1048200070B513001B4A1278013A904230DA1A4AE6
:104830008000126810180468002C29D00425463422
:1048400022788E002E40AA4332431026227004683C
:1048500046342278B2435E1EB341AB401A43227005
:1048600008240322036821420CD11A004632107832
:104870000222294206D1013A1140204001434A1E3A
:104880009141CAB20320463319788143114319700C
:1048900070BDC046E9BE000040BA00000E4A0300E9
:1048A00012780020013A93420FDA0C4A9B001268FA
:1048B0009B58834209D0032246331B785807C00F08
:1048C0001340022B02D0934203D0704704231843B5
:1048D000FBE70C23FBE7C046E9BE000040BA00003E
:1048E00070B508240002044320000D00160029F0D2
:1048F00043FB1F2809D0200029F03EFB002E05D0E5
:104900002843C1B2200029F0CBFA70BDA843F8E7D4
:10491000F7B5164F86003B6800929B598A00D35822
:1049200004000D000192002B14D0FFF7FDFE0822B9
:104930000100E02023021A430001022328F030FF87
:104940003B68AA009B59D3581B780370009B4370A7
:1049500028F04AFF29002000FFF7C4FC0121A940EC
:1049600000222000C9B2FFF7BBFFF7BD40BA00002C
:10497000F7B5082483001D4F009303021C433B68D6
:1049800082009B580500002B17D0200029F0F4FA74
:1049900000260190019BF1B21F2B1BD02800FFF7CE
:1049A000A1FC0136032EF5D13B68009A985829F0F6
:1049B000B7F800223B6800995A5020003F2129F0A7
:1049C0006FFA21000A4828F069FE2100094828F002
:1049D00065FEF7BD009A3B689B58B200D358002B88
:1049E000DFD046222800FFF793FFDAE740BA000045
:1049F000F20E0000F40E000070B5040001282ED065
:104A000002282AD0002814D11A491B4B1B4D0B60D9
:104A10001B4B08201B6808264B602B78013B0B8141
:104A2000184B1B884B8129F0E3F92B78013B9C4202
:104A300000DB70BD20023F213043013429F030FA01
:104A4000E4B2F2E72000FFF793FF0134E4B20B4B2E
:104A50001B78013B9C42F5DBEBE70024F7E7074BB3
:104A600000211A78084B013A186892002BF0C0FA1E
:104A7000DFE7C04634BA0000E0560518E9BE000082
:104A800044BA00003058051840BA000010B50400C0
:104A9000FF2801D0FFF76CFF200010BD30B50638AD
:104AA000094D84B20020AC420DD8063989B2A94222
:104AB00009D80A3B05499BB28B4204D8F530FF3038
:104AC00082428041404230BD7A0C0000760C0000EA
:104AD0000000000000000000F7B510000C001500F9
:104AE0001E0029F049FA3F2820D02B0A02202788EF
:104AF000019304F009FD874225D16788002F17D163
:104B0000280AFFF73BFEA388010004332A009BB26A
:104B1000274828F045FE05000770A288A11D4280A5
:104B200004302BF049FA280028F05EFE0020FEBD7C
:104B300004232A0031001F4828F032FE2388038016
:104B400008238370F0E70420278804F0DDFC874207
:104B500024D16388002B13D1A388022B10D1280AFB
:104B6000FFF70CFE042301002A00114828F018FE6C
:104B700001230370E279A379120213434380D3E740
:104B800004232A0031000B4828F00AFE2388038002
:104B9000A2880823022AD4D00533D2E704232A00AE
:104BA0003100044828F0FCFD238803808023C8E7F7
:104BB0000C0E0000160C000070B51000140029F057
:104BC000DBF93F2817D0250A02212800FFF70CFD4A
:104BD000092810D1220021000223084828F0E0FD16
:104BE000012303703A33437028F0FEFD4522022171
:104BF0002800FFF78DFE002070BDC046040E0000A7
:104C000070B510000D00140029F0B6F93F2816D039
:104C10002B78FD2218000A380100240A11401042A6
:104C200009D04122062B04D100212000FFF7DCFC33
:104C30000122002100E06A782000FFF769FE0020D1
:104C400070BD000070B510000C00150029F094F93B
:104C5000002306003F280FD0E1882A0AD0B2052998
:104C600006D006290AD00A4B03201B6898470DE09E
:104C7000211D01F061FA0300180070BD0822022313
:104C80001642F9D12278211D03F0F8F80023F3E74A
:104C90003CBF0000F8B510000F00150029F06CF9BA
:104CA0003F2832D02D0AEEB202213000FFF7C2FCBD
:104CB000022104003000FFF797FC09283DD1334B57
:104CC000AA001B68D358022255331B78134234D0F4
:104CD0003B78002B1BD00E2329002D4A2D4828F0AD
:104CE0005FFD05003000FFF713FC288063886B80B0
:104CF000A388AB80E388EB8063896B81A389AB8158
:104D000023892B81280008F0BDFF0020F8BD042373
:104D10002900214A1F4828F043FD04003000FFF716
:104D2000F7FB3B232080A370200008F0ABFF482254
:104D300002213000FFF7ECFDE7E702213000FFF72A
:104D400053FC0928E1D101213B78300059406278B9
:104D500001F0AAF93B78002BE9D00E2329000F4A75
:104D60000C4828F01DFD05003000FFF7D1FB28801E
:104D7000E388EB8023892B81A388AB8063886B80D9
:104D8000BB88AB817B886B81BCE7C04640BA000022
:104D90002020000005110000212000001320000049
:104DA00070B510000C00150029F0E6F83F280CD073
:104DB0002D0AEEB200213000FFF716FC06284ED077
:104DC00005D8022818D0052833D0002070BD15283A
:104DD000FBD100213000FFF7A7FC08222D020100C3
:104DE0000C2331482A4328F0DBFC0323037023887B
:104DF0004380A379037119E000213000FFF794FC90
:104E00000822A3882D020C3301002A439BB22648B6
:104E100028F0C6FC0023050003702388A11D4380F1
:104E2000A288828006302BF0C7F8280028F0DCFC2E
:104E3000CBE700213000FFF777FC08222D020100AC
:104E40000C232A43184828F0ABFC01230370238865
:104E50004380E279A379120213438380E6E70021BD
:104E60003000FFF761FC08222D0201000C232A43C9
:104E70000D4828F095FC0223037023884380E279D3
:104E8000A379120213438380627A237A12021343B6
:104E9000C380E27AA37A120213430381627B237BED
:104EA000120213434381C1E7060E0000F7B50191DA
:104EB0000978170A1C0015004023FEB2012925D1EC
:104EC000100029F059F8DF2318401F281BD01F219C
:104ED000280028F0E5FF104BBA001B683900D358B2
:104EE0000E489C810E4A042328F05AFC040030002E
:104EF000FFF70EFB019B20805B782000A37008F079
:104F0000C1FE0020FEBD019B197843232200300022
:104F1000FFF758FBF5E7C04640BA00000511000056
:104F20000604000070B510000D00160029F024F8EA
:104F30003F2804D02B78002B03D0012B15D0002064
:104F400070BD022004F0E0FA041EF8D00621330AF6
:104F50001B02194332000423054828F021FC048079
:104F60006B78837028F040FCE9E70420EAE7C0464C
:104F7000160C0000F7B510000C001700019328F084
:104F8000FBFF3F281FD00220258804F0BDFA854290
:104F90001BD00420258804F0B7FA854217D00820DA
:104FA000258804F0B1FA854214D080250026062316
:104FB0003A000199094828F0F3FB23880571038022
:104FC000468028F011FC0020FEBD0025EEE70025FC
:104FD0000226ECE700250126E9E7C046180C000090
:104FE000190010B5030A04000E2B08D18A4206D01E
:104FF00004480C3B28F0D4FB048028F0F5FB00208B
:1050000010BDC046340E000070B510000D00140035
:1050100028F0B2FF3F2820D02E78210A012E1ED082
:10502000022E32D0002E18D106226B8809020633D8
:1050300011439BB22200264828F0B2FB0400022054
:1050400004F062FA267120806A88601D6280291D42
:105050002AF0B2FF200028F0C7FB002070BD062315
:105060000902220019431A48023328F099FB040070
:10507000042004F049FA0023237102332080638066
:105080006B8863711B0AA371E4E7062609020E23ED
:10509000220031430E4828F083FB0400300004F066
:1050A00033FA002323710833208063806B88637197
:1050B0001B0AA371AB88E3711B0A2372EB8863722E
:1050C0001B0AA3722B89E3721B0A2373C2E7C04633
:1050D000140C0000F7B510000D001400019328F027
:1050E0004BFF3F2842D004F007FA00282BD10220C2
:1050F0002F8804F009FA002687422BD004202F883D
:1051000004F002FA0126874224D008202F8804F0F8
:10511000FBF987422CD10621230A1B0222001943E6
:105120001948072328F03CFB0400082004F0ECF9A0
:10513000002366802080237104F0D6F980080640A1
:105140006671200010E006202E8804F0DDF986420A
:10515000CDD10226200AFFF711FB01230100220016
:105160000A4828F01DFB067028F03EFB0020FEBD1B
:10517000062322000199044828F012FB2B880380A3
:1051800080230371F0E7C046140C00000A0E0000F3
:10519000F0B5100085B00C00150028F0EDFE3F289A
:1051A00037D0270028373B78012219002D0AEEB2AC
:1051B0001140134230D022002A32190030001278F8
:1051C000FFF72EFB174BAD001A68236955192868A5
:1051D00010224363636A2100836314302AF0ECFEDB
:1051E000210028681022243014312AF0E5FE012124
:1051F0002300220038782B330140208E29321B787F
:1052000012780290E08D0190A08D00903000FDF7A3
:1052100033F9002005B0F0BD0A003000FFF700FBB5
:10522000E5E7C04640BA0000F0B504000D001600E6
:105230001F0085B0022905D90022234B110001204F
:105240001B68984708202302184328F095FE3378FE
:1052500043220193DF230390034002921F2B18D0B7
:1052600029002000FFF7E6F901231A00864204D046
:105270000398DA182841184206D0100005B0F0BD96
:10528000019A934210D001373B78002BF8D140337C
:105290000293300028F0DFFA029B020001992000FF
:1052A000FFF790F90022E8E73200012629002000EC
:1052B000FFF7E4F93100A94032002000C9B2FFF73E
:1052C0000FFB3200D9E7C0463CBF0000F7B50D0028
:1052D0001721140A01ABE7B219802A0038001539EA
:1052E000FFF7A2FF060001281AD121000D4A08236A
:1052F0000D4828F055FA04003800FFF709F920801E
:10530000A878697820714B424B4142424241520099
:105310001343A370E170EB782000E38008F0B2FC47
:105320003000FEBD3220000005110000F7B50D0071
:105330001421140A01ABE7B219802A0000213800B9
:10534000FFF772FF0600012811D106232100094A48
:10535000094828F025FA04003800FFF7D9F8208022
:105360006B8820006380AB88A38008F08BFC300042
:10537000FEBDC0462220000005110000F7B50E005A
:105380001321140A01ABE7B2198032000021380062
:10539000FFF74AFF050001280FD104232100084A26
:1053A000084828F0FDF904003800FFF7B1F8208024
:1053B00073882000638008F065FC2800FEBDC046AD
:1053C0007C0C000005110000F7B5140A1B2201AB8C
:1053D000E7B21A800D000A0038000021FFF724FF11
:1053E0000600012811D106232100094A094828F0A6
:1053F000D7F904003800FFF78BF820806B88200075
:1054000063802B79237108F03DFC3000FEBDC0465F
:1054100014FC000005110000F7B5140A1A2201ABB4
:10542000E7B21A800E000A0038000021FFF7FCFEE8
:10543000050001280FD104232100084A084828F05C
:10544000AFF904003800FFF763F82080738820006C
:10545000638008F017FC2800FEBDC04613FC000066
:1054600005110000F0B587B0039209221F0005ABBB
:105470001A80039A0C00150AEEB20A0030000221CD
:10548000FFF7D2FE029001280CD12389E2886188BF
:10549000A088FFF703FB002807D14022022130003B
:1054A000FFF736FA029807B0F0BD344BAA001B682C
:1054B0000221D3581A005532107802000A400842DF
:1054C00003D146331B789B0631D4FFB2082F13D18A
:1054D0003000FFF753F93B000100039A284828F0F9
:1054E0005FF9A388438063880380E38883802389EE
:1054F000C38028F079F9D5E729000E23214A2248F4
:1055000028F04EF905003000FFF702F82880E38804
:105510002800EB8023892B81A388AB8063886B8074
:10552000A389AB8163896B8108F0ACFBBAE70823E0
:105530002D022B430521009230001222F8F766FA63
:10554000124B05001B689847C0B2002813D060704A
:10555000A3882800EB806388AB80E3882B812389B4
:105560006B8163786B70F8F767FA094A0399094809
:1055700028F014F896E7029B6370E9E740BA000050
:105580000F0E00001320000005110000C0BF000036
:1055900030750000F20E0000F0B516000F0087B065
:1055A000340A0C223E4903A8E5B201932AF004FD17
:1055B0003A000021280003ABFFF736FE00900128D7
:1055C00035D138780238172831D82AF0C9FC0C3781
:1055D000460C0C494C3030303030303030304F30A9
:1055E000300C30305255062124020C2332002D4855
:1055F000214328F0D5F885235B0003800A3BFF3B5D
:105600008380023BC380033303723B78052B11D0A8
:10561000062B11D0153B5A1E9341A5225B429343A2
:10562000214A9B1843722A23837228F0DDF80098E0
:1056300007B0F0BD1D4BF5E71D4BF3E702231D4AF4
:1056400021001D4828F0ACF804002800FEF760FF98
:105650002080200008F016FBE9E70223174AEFE755
:105660000223174AECE70223164AE9E70223164A07
:10567000E6E70223154AE3E73200019901231448C3
:1056800028F08EF804002800FEF790FF207020001C
:1056900028F0AAF8002228001100FFF739F9C6E720
:1056A000D4560518080C0000A62A0000012A0000A4
:1056B000042A00001D04000005110000162000004F
:1056C00005140000152000007B0C000030200000B5
:1056D000310E000002050615030407081218190010
:1056E000FFFF0000E14F0518040E0000AD4E051845
:1056F000020E000091510518050E0000995505187D
:10570000090C0000A14D0518000C0000014C051803
:105710000E0E000065540518100E0000954C05187B
:10572000130A0000454C0518F20E0000B94B05188D
:10573000320E000019540518330E0000C953051825
:10574000120E0000F17E0518140E00008D80051861
:10575000160E0000C1850518180E00006986051890
:105760001A0E0000FD860518F00E00008D87051842
:10577000040A000039880518000D0000858A051804
:10578000F30E0000D18A0518F40E0000158B0518E1
:105790002C0D0000758805182A0D00009589051844
:1057A0002D0E0000E5890518150C0000D94A0518D2
:1057B000170C0000754F0518130C0000D550051884
:1057C0000B0E0000095005180D0E0000254F05189E
:1057D000011100009D5E0518021100009D5E051874
:1057E000041100009D5E0518031100009D5E051860
:1057F000280E00007D5305182B0E00002D530518B0
:105800002F0E0000CD520518350E0000C58C05186E
:10581000380E0000B18D0518390E00001D8E0518D8
:105820003A0E00008D8E05183B0E0000E58E05181F
:105830002A00000010B548880C00FEF74DFEFF2836
:1058400006D0044B80001B682279C35856331A7067
:10585000002010BD40BA0000F7B510000E00140083
:1058600028F08AFB3F2835D0230A01936B461F7925
:1058700000213800FEF7B8FE4124032825D13478F2
:10588000002C29D121003800FEF74EFF0822019B91
:1058900001001B021A431248062327F081FF05006E
:1058A0003379037133894380F388038027F09CFFA9
:1058B0002B79062B09D802210A4B019A1B6892000A
:1058C000D35855331A788A431A70220000213800C1
:1058D000FFF71EF80020FEBD703CE4B2F5E7C046BD
:1058E000070E000040BA0000F8B510000C001600CA
:1058F00028F042FB07006088FEF7EEFD05003F2F11
:1059000020D06378002B0ED1FEF738FF0100E32092
:1059100002233200000127F043FF637943702379AB
:10592000037027F061FF02212800FEF75DFE1728B3
:1059300008D16278002A01D0703AD2B20221280040
:10594000FEF7E6FF0020F8BDF8B510000C001600C9
:1059500028F012FB07006088FEF7BEFD05003F2F10
:105960001AD02378002B0ED1FEF708FF0100E320A8
:1059700002233200000127F013FF6379437023797B
:10598000037027F031FF2278002A01D0703AD2B29A
:1059900000212800FEF7BCFF0020F8BD70B5100004
:1059A0000C0028F0E9FA05006088FEF795FD3F2D10
:1059B00007D02278002A01D0703AD2B20021FEF737
:1059C000A7FF002070BD10B5FFF7E8FF10BD10B5B0
:1059D000FFF7E4FF10BD70B510000D00140028F0B3
:1059E000CBFA3F2808D02A78002A01D0703AD2B2E8
:1059F0000021200AFEF78CFF002070BD70B510005A
:105A00000C00160028F0B8FA3F2819D02178350A82
:105A100000290CD12800FEF787FE02230100320086
:105A2000084827F0BDFEA388038027F0DDFE22781A
:105A3000002A01D0703AD2B200212800FEF768FF98
:105A4000002070BD290E0000F8B510000E001400F3
:105A500028F092FA3F2820D0240AE7B2002138002B
:105A6000FEF7C2FD4125072812D13578002D16D149
:105A700029003800FEF758FE082224020100012305
:105A80000848224327F08CFE3379037027F0ACFEE0
:105A90002A0000213800FEF73BFF0020F8BD703DD2
:105AA000EDB2F5E7090E0000F7B510000D00140087
:105AB00028F062FA3F2828D02B79154F0093AB7855
:105AC000240A01933B68E6B2A4001B599B89FF2B73
:105AD00003D13000FEF752FE0300019A3000009916
:105AE000FEF7E8FC3B681B599A89FF2A08D02B78FF
:105AF000002B01D0703BDBB201213000FEF762FDCC
:105B000030002A79698803F01BFB0020FEBDC046E7
:105B100040BA0000F8B510000C00160028F02CFA6E
:105B20003F2834D06378320AD5B21A2B18D8012115
:105B3000080098401B4F384217D1084210D0280067
:105B4000FEF71CFE062301003200174827F028FE4E
:105B5000A3880380E38843802389838027F044FE61
:105B60006278002A18D0703A15E01049920009684E
:105B7000525811004631097889060AD513000221CE
:105B800055331A7828008A431A70FEF79BFD0020CF
:105B9000F8BD703B1A00D2B202212800FEF7B8FE11
:105BA000F5E7C04602100206110E000040BA0000E0
:105BB000F7B510001500009128F0DEF93F2830D02D
:105BC0002D0AEEB200213000FEF70EFD412204281E
:105BD00023D1009B5C78AB000193002C23D12100E2
:105BE0003000FEF7A1FD08272A0201003B003A43DE
:105BF0001A4827F0D5FD0500194B019A1B689B58E0
:105C0000009A553312791A70009B3A00191D2AF038
:105C1000D3F9280027F0E8FD220000213000FEF72C
:105C200077FE0020FEBD0E4B01991B6822005B58D9
:105C3000703A190046310978D2B28906EDD5013C97
:105C4000E4B2192CE9D80121A14006480142E4D070
:105C500002205533197881431970DEE7080E0000E1
:105C600040BA000001080103F7B5100014000191CB
:105C700028F082F93F2827D0240AE7B20021380013
:105C8000FEF7B2FC41250600082818D1019B1D78BB
:105C9000002D1BD129003800FEF746FD22023243B9
:105CA0000100052392B20B4827F07AFD0400019908
:105CB000052204312AF080F9200027F095FD2A0002
:105CC00000213800FEF724FE0020FEBD703DEDB23D
:105CD000F5E7C0461D0E0000F8B5070010000E00E5
:105CE000140028F049F93F283FD0364B240AE5B28A
:105CF0009F4243D007D8344B9F421DD0334B9F4225
:105D000035D0412238E0324B9F4230D0314B9F4258
:105D1000F7D13378002B28D002212800FEF764FC4D
:105D2000172822D13278002A01D0703AD2B202214B
:105D30002800FEF7EDFD18E03378002B15D0264F34
:105D4000A6003A6892599289FF2A0ED0703B012131
:105D5000DBB22800FEF736FC3B689959002904D1D4
:105D600008202402204328F09BF80020F8BD327858
:105D7000002AFAD0703AD2B20021D9E73378002B4A
:105D8000F3D002212800FEF72FFC0928EDD132784C
:105D90001A2AC8D80123934010490B42C3D00E4B96
:105DA000A4001B68E3581900463109788906BAD562
:105DB000022155331A7828008A431A70FEF782FCB4
:105DC000D3E7C04613200000060400001D040000B5
:105DD000162000003220000040BA00000210020627
:105DE00010B51000140028F0C7F83F2807D0200A8B
:105DF000FEF7C4FC22000100024827F00DFD002040
:105E000010BDC0462A0E000070B510000C00150031
:105E100028F0B2F83F2812D0280AFEF7AFFC08237A
:105E200001002A00074827F0BBFC2389838063898F
:105E3000C380A3880380E388438027F0D5FC00203B
:105E400070BDC0462C0E000070B510000D0014008F
:105E500028F092F83F281BD0220021000E230D4885
:105E600027F09EFC02220C4B240A1B68A400E35876
:105E7000553319780A431A7009230370EB8883801D
:105E8000AB8843802B89C3806B89038127F0ACFCEE
:105E9000002070BD0E0E000040BA000070B5154C19
:105EA0000019032815D82AF05BF8020A110D1024F6
:105EB0001148E4000419A0420ED1002018E0062485
:105EC0000E48F6E708240B780D48F2E705240D4844
:105ED000EFE700242000ECE7050008300600083E4C
:105EE00036889E42E7D16C68201E01D01800A0477A
:105EF00070BDC046FFEEFFFF085F0518885F0518FC
:105F0000E05F0518B85F051805140000495A051828
:105F100015200000695C05187B0C0000FD59051870
:105F20007C0C0000D7590518222000009D59051847
:105F300030200000495905181A200000F9DF071821
:105F40001B200000F9DF071813FC0000C7590518D3
:105F500014FC0000CF5905185B200000718D051856
:105F60005A200000718D051855200000318F05184A
:105F700054200000318F051856200000318F05187D
:105F800057200000318F051806040000D95C051861
:105F90001D040000D95C051816200000D95C051806
:105FA00013200000D95C051832200000D95C0518C8
:105FB00019200000618B051805000000A95A05187A
:105FC0000C0000005958051857000000E15D051845
:105FD00008000000298C0518300000004B8C0518C3
:105FE00004000000B15B051803000000155B0518F4
:105FF00006000000495E051807000000095E05184C
:106000000C000000E9580518140000003558051868
:1060100005000000AD8B051816000000758F0518EF
:1060200070B58B8804000D004C26022B01D80B4A5A
:10603000D65C00212000FEF7D7FA09280CD10021F8
:106040002000FEF7F7FA6A7843789A4204D13200CA
:1060500000212000FEF75CFC002070BD6461051883
:1060600070B50D0002210400FEF7BEFA092817D111
:1060700002212000FEF7DEFA6A7843789A420FD1B7
:10608000AB884822591E8B415B42200002211A40F6
:10609000FEF73EFC082124020248214327F0FEFAC5
:1060A000002070BDF20E0000082337B51400020274
:1060B000134300220D00009205211332F7F7A6FCCE
:1060C00085804470F7F7B8FC37BD000070B50C0050
:1060D00005004B890A89E0888988FEF7DFFC0028E3
:1060E00020D008212A0211430A000E23104827F06D
:1060F00057FB09230370E388AD008380A3884380A6
:106100002389C380638903816378437027F06CFB24
:106110000221084B1B68EB5855331A788A431A70D2
:10612000002070BD012128006278FFF7BDFFF7E76E
:106130000E0E000040BA000010B50B79012B07D0FD
:10614000054A122B05D0054A132B02D0002002E08D
:10615000034A0431904710BDCD60051861600518F1
:10616000216005183C313300010000002160051852
:1061700012000000CD6005181300000061600518D2
:106180000D4B80001B6870B5C5582C69002C05D1DB
:106190000A4B2200210001201B689847E17CA27E67
:1061A0000B1C914200D9131CDAB20020062A02D936
:1061B0003E352B70013070BD40BA00003CBF00007E
:1061C000204BF7B51B688000C0580191026946302A
:1061D00006784020D47E137D157F2340547D0640F1
:1061E0002540947C3F38044208D0547E044205D0B8
:1061F000180028433043441EA041C0B2A427012107
:106200007F008C46D45D002E03D0664626433400C2
:1062100004E01E002E430E42F7D18C430199D45561
:106220004C1E012C05D8A4246400125DD207D2179D
:10623000104001990339012903D82B435B07DB1771
:106240001840FEBD40BA00003A4B80001B6870B594
:10625000C5582C69002C05D1374B220021000120A4
:106260001B689847230046352878627CA17C4E3312
:10627000400635D4012A14D1227E012A11D10132DF
:106280001A70042223004F331A700123A27C1A4291
:1062900006D0627E1A4203D04F3422781343237013
:1062A00070BD0422114207D1617E080010401142E6
:1062B00002D118700022E5E70522E17D207C5143E0
:1062C0001E4A5218125C1A70002AF3D0013A012AB1
:1062D000D7D90022184B110001201B689847D4E73A
:1062E000012A02D0227E012A03D102221A700C2236
:1062F000C8E70422114204D1617E08001040114217
:10630000D7D00525E07D0D4A4543217C5219525CCA
:106310001A70012801D0042805D1012901D00429CF
:1063200001D10322E2E7002AC4D0013A022AD0D8E0
:10633000DDE7C04640BA00003CBF00006F8C051886
:10634000144B80001B6870B5C5580C0029690029E2
:1063500004D1114B0A0001201B6898472B69002CBF
:106360000AD19A7D0020052A0CD81000012229F0BC
:10637000F7FD0E0E050E050A5A7FF3E74F33187826
:106380008008104070BD4F331878C008F9E701202D
:10639000F8E7C04640BA00003CBF000008220002F7
:1063A00010B5024301230721034827F0F9F92F23F1
:1063B000037027F019FA10BD2B0D0000F8B5150079
:1063C000082200020E000243412307210A4827F059
:1063D000E7F920272E23040003703A003100013032
:1063E00029F0EAFD20003A002900213029F0E4FDDF
:1063F000200027F0F9F9F8BD290D0000474BF7B54B
:106400001B688200D75806003C690191002C05D119
:10641000434B2200210001201B6898473000FEF703
:10642000ADF90822330201001A433E48212327F028
:10643000B7F9019B050003700A2B68D8180029F0F2
:106440008FFD066666662A0D161166571B001F2211
:10645000A37C403713401D3A6B703A70280027F038
:10646000C3F9F7BD3000FEF7CBF96870F6E73B00E3
:10647000132240331A70F1E723004E331B78032BAD
:10648000ECD1FC34A36A1A0A6B701B0CEB7000236E
:10649000AA702B71E2E7002C05D1214B22002100CC
:1064A00001201B689847637C012B05D1237E012BBB
:1064B00002D100236B70D1E73000FEF73FF8E37D97
:1064C00000280CD10222023B9343DBB2002B04D103
:1064D000237C934201D00123ECE76A70BEE7012BD5
:1064E000F9D9042B02D1237C022BF4D00223E1E75B
:1064F00021001022681C3E3129F05EFD2100280099
:1065000039311022FF31113029F056FDA6E7002263
:10651000034B110001201B6898479FE740BA000019
:106520003CBF0000130E0000F0B53D4B8DB01B6862
:1065300003928200D35804AD0F0010220021040002
:1065400028001E6929F054FD1022002108A829F016
:106550004FFD002F4DD139002000FEF713F883794D
:10656000012120002B70FEF70DF883790121200016
:106570006B70FEF707F80622010008A829F01CFD41
:1065800039002000FDF7FEFF01001E2002AB0622AD
:10659000C01829F011FD012331000B20AB7002ABB4
:1065A00006221031C01829F007FD02233100122005
:1065B0006B7202ABC0181731062229F0FDFC03985C
:1065C0003100431E9841FF23404298430233FF337A
:1065D000C018039B04432E31002B00D01039114BFF
:1065E0002A0000933000019408AB28F0FFFC0DB0A6
:1065F000F0BD01212000FDF7C5FF837900212000B7
:106600002B70FDF7BFFF8379002120006B70FDF731
:10661000B9FF0622010008A829F0CEFC0121B0E74D
:1066200040BA0000957905180E4B82001B6870B5C2
:10663000D55808242E003F363378000204439B07C8
:1066400003D52100084827F029F80A22AB8F210042
:106650005A43054826F0A2FF0223327813433370D1
:1066600070BDC04640BA0000F40E0000174B820017
:106670001B6870B5D258040013003F331978022309
:106680000D001D4019420ED0938F114901258B42F8
:1066900006D0AB400F489BB2834206D893870235A1
:1066A0002000FFF7C1FF280070BD91872000FEF792
:1066B00065F80825220201002A431E23064827F018
:1066C0006FF8057027F090F8053DE9E740BA000043
:1066D000B80B0000B70B0000150E000070B50125C7
:1066E000084B82001B68D4583F3423782B4208D0D3
:1066F000082100020143044826F0D0FF2378AB4371
:10670000237070BD40BA0000F30E0000F8B50127F9
:10671000134B82001B680500D4580E003F342378C9
:106720003B4208D00821030219430E4826F0B6FF69
:106730002378BB4323703000F7F77EF933780B2BB7
:106740000CD0052B0AD008212D02074A0548294301
:1067500026F024FF0123227813432370F8BDC0469E
:1067600040BA0000F30E000030750000082302025A
:106770001343002273B50E00009206210332040079
:10678000F7F744F9050031001022013029F014FC1C
:1067900029002000FFF7BAFF73BD0823020213434C
:1067A000002273B50E000092062104320400F7F7B0
:1067B0002DF9050031001022013029F0FDFB2900E0
:1067C0002000FFF7A3FF73BD08230202134300223A
:1067D00073B50E00009206210D320400F7F716F98A
:1067E000050031001022013029F0E6FB29002000CD
:1067F000FFF78CFF73BD73B508220E000021030262
:106800001343009106310400F7F700F90500310049
:106810001022013029F0D0FB29002000FFF776FF7D
:1068200073BD082337B50202134300220D00009206
:10683000062105320400F7F7E9F845700100200051
:10684000FFF764FF37BD0000154B82001B68F0B5F1
:10685000D35804001D6908222F002E0087B02E3760
:106860001E36002914D1310002A829F0A5FB082208
:10687000390004A829F0A0FBC020800004430122B5
:106880002800084B009402A928F063F907B0F0BD76
:10689000390002A829F090FB08223100E9E7C04640
:1068A00040BA00009579051810B509020143024865
:1068B00028F064F910BDC04695790518F8B5334B3A
:1068C00082001B680400D5580F002E004036337834
:1068D000042B1ED12969002904D12D4B0A00012067
:1068E0001B68984728692022791C913029F064FBA5
:1068F000390028692022B130213129F05DFB2000C8
:10690000FDF71CFE012806D12000FFF747FD0323F9
:1069100033700020F8BD296920000A009131B1329E
:10692000FFF74CFD2B691A004E3210780328F0D87F
:1069300029F016FB020A1002A42104224900585C27
:1069400002435A540723E3E704212000FFF756FDD2
:106950000523DDE7052131705A7C012A03D120008F
:10696000FFF7A2FFD5E73933FF33180010220021CB
:1069700029F03EFB2869102200213E3029F038FB27
:1069800009212000FFF73AFDC3E7C04640BA0000E6
:106990003CBF0000F8B5244B82001B680400D758A8
:1069A0000D00FDF7CBFD06003869002816D0691CE4
:1069B0003D0010223E30403529F0FEFA2B78072B9F
:1069C0000CD1396946373B785B0609D4002E17D1C4
:1069D00020001E31FFF7E1FE08232B700020F8BDD8
:1069E0000B004E331B78002B01D0032B04D1002E5B
:1069F000F4D105232B700AE0012BEFD1012E0BD12E
:106A000005232B704433FF33CB5C5B07E6D50021B5
:106A10002000FFF749FFE1E7082320002B701E311B
:106A2000FFF7BBFEDAE7C04640BA0000F0B585B01C
:106A300002930AAB1B88019203931E4B82001B68D2
:106A40000500D7580E001C2381B21B4A1B4826F0B4
:106A5000A7FE04002800FDF75BFD2080A01C002E8F
:106A600014D108223100668129F0C2FA2000019970
:106A700010220C3029F0A0FA200007F003F90122BF
:106A800008212800FDF72CFF05B0F0BD3B00463380
:106A90001B785B0603D5002108226181E4E7039B94
:106AA00008226381029929F087FA3B001A224033B9
:106AB0001A70DBE740BA0000192000000511000041
:106AC000F7B52E4B07001B6816008200D4580191C1
:106AD000FDF754FE08223B0201001A4328481E23FA
:106AE00026F05EFE019B05000370981E05283ED827
:106AF00029F036FA0E033D2C2F263378AB70402256
:106B00004634237893432370280026F06DFEF7BDAA
:106B10002669002E05D11B4B3200310001201B6875
:106B2000984733004F331978A423A9705B00F25CB7
:106B3000483BFF3B1A403800EA70FDF771FEDEE784
:106B40001C22A81C310029F037FADDE71722A81C07
:106B5000F8E710223100A81C29F02EFA200010229C
:106B60003100243029F028FA0023A363CCE7002267
:106B7000044B110001201B689847C5E740BA00008C
:106B8000150E00003CBF0000F7B5284A83001268CC
:106B90000E00D2184B78062104000B4205D00131BB
:106BA0000B40043B0A25012B06D820001768FDF78F
:106BB000C5FC002802D000252800FEBD2000FFF7FC
:106BC00055FD051EF7D173781B070DD402F0D4FBD9
:106BD000002809D16B46DA1D6323032120001370BE
:106BE0000335FFF76DFFE7E73B69002B11D120006C
:106BF000FDF7C4FD082224020100224301230C48B2
:106C000026F0CEFD1F2273781340037026F0ECFDB2
:106C1000D2E701212000FDF7E7FC0A28CBD00022B3
:106C2000044B110001201B689847C5E740BA0000DB
:106C30001B0E00003CBF0000082337B502021343BF
:106C400000220621009209320400F6F7DFFE05005B
:106C500002F04AFC01231840687002F06DFC062225
:106C60000100A81C29F0A8F929002000FFF74EFD1B
:106C700037BD00002F4BF7B51B68820005000E00E2
:106C8000D758FDF75BFC012802D000242000FEBD90
:106C900073780A24042BF9D80622F378134204D01F
:106CA00001321340043B012BF0D8B3780A24012BA6
:106CB000ECD83379043C073B092BE7D82800FFF7D1
:106CC000D5FC041E04D000240328DFD10934DDE7FD
:106CD0003B69002BD9D102F04FFB002815D0F37887
:106CE0001B0718D50823290219430A00124826F069
:106CF00057FD0A23050003700622711C013029F09C
:106D00005BF9280026F070FDC0E702F03DFB00288B
:106D1000E5D10524BAE702F02FFB0028E2D16B464B
:106D2000DA1D63230321280013700324FFF7C8FE34
:106D3000ACE7C04640BA0000120E0000F0B5D3B276
:106D400015003D4A87B0126803939B009E580F00C0
:106D50000190002E66D0002803D07038C3B2019392
:106D600060E00121E8B2FDF765FC03780837040014
:106D70000497F02B08D041880822043141183800CC
:106D800029F00CF9002854D1E8B2FDF7F7FC0823EC
:106D90002D021D43ADB22A000100284826F000FD57
:106DA000012107000398FDF7BFFC638801000C3345
:106DB0002A009BB2224826F0F3FC237862880293D3
:106DC000F03B591E8B41A15C0C338C469B00F318A1
:106DD000059363460500A018417809021943C3785A
:106DE00080781B0218430004059B01430131596060
:106DF000029B211D2B70130008336B80281D29F086
:106E0000DBF86088082204300499281829F0D4F8A7
:106E1000280026F0E9FC736B38003B60B36B7B60A5
:106E200026F0E2FC0121019A0398FDF771FD07B0FD
:106E3000F0BD212393E7C04640BA00001C0E0000BD
:106E4000F10E0000F7B54B7805000E00042B02D9B7
:106E50000A242000FEBD0622CB78134204D0013262
:106E60001340043B012BF3D8B378012BF0D83379CE
:106E7000073B092B01D90624EBE7464BAA001B6808
:106E80002800D758FDF75AFB041E74D13B0040334D
:106E9000019318780128DCD13B69002B04D13E4BCB
:106EA000220021001B689847731C00937378042B01
:106EB000CED8009B5B78012BCAD8009B1B79102B86
:106EC000C6D8009B5B79102BC2D801212800FDF7A2
:106ED0008BFB0A2805D000222F4B110001201B68D4
:106EE0009847386906220099173029F065F83E0066
:106EF00008233A694636517E194206D0927C1A42DE
:106F000003D0327838331343337033785B061FD5A0
:106F10002800FFF735F90028ADD03B692800997D9E
:106F2000FFF74EF9002833D02800FFF78DF9002134
:106F30002800FFF705FA00280ED0402332781A42C5
:106F40000CD02800FFF72AFA0323019A137080E778
:106F500002F012FA0028DBD103247AE70523019A14
:106F600013703B691A004E321478002C05D00421AE
:106F70002800FFF743FA00246BE7A421042249000C
:106F8000585C02435A5428002100FFF78DFC60E74B
:106F900008245EE740BA00003CBF000070B54B78A3
:106FA00005000E000A20042B24D8164BAA001B68EB
:106FB000D35840331B78013B182B1CD808242B02D4
:106FC0001C432100104826F0ABFB002804D0210010
:106FD0000E4A0D4826F0E2FA28007678FDF7CEFB3F
:106FE0000123010022000A4826F0DAFB067026F091
:106FF000FBFB002070BD0022064B110001201B6826
:107000009847F6E740BA0000F30E00003075000024
:107010002E0E00003CBF000073B56B46D9711A4BB1
:1070200016001B688200D55804002969002904D184
:10703000164B0A0001201B6898476B46DA79002A34
:1070400016D102212000FFF73BFD20000022012184
:10705000FDF75EFC2869002803D026F061FD0023BF
:107060002B612000FFF73AFB002340352B7073BDE6
:107070006B4603212000DA1DFFF722FD002EE4D02D
:107080002000FFF7D1FAE0E740BA00003CBF000063
:10709000354BF7B51B688200D35804001F690E00FA
:1070A0000193002F05D1314B3A00390001201B68B4
:1070B0009847019D4035297810290DD00B00113BD0
:1070C000022B02D810232B7006E03B0050331A78B5
:1070D000264B03201B6898472B78102B3ED13A0093
:1070E0000121503213780B420CD08B431370019B5B
:1070F00046331B785B06EFD420000631FFF77EF99C
:107100001123E0E702210B4215D08B43137002F0EC
:10711000EBF9430705D505212000FFF76FF912238E
:10712000D1E702F003FA01002000FFF764FB200022
:10713000FFF782FDD0E704210B4208D08B43137088
:10714000132320002B700231FFF758F9C4E7002EFB
:1071500005D1320031002000FFF75EFFF7BD31009E
:10716000200000F089F8F9E740BA00003CBF0000B9
:10717000F8B5104B82001B680500D7580E003C691B
:10718000002C05D10C4B2200210001201B689847E0
:10719000002E0CD1227DE37E134050342370102347
:1071A0004037310028003B70FFF772FFF8BD627D69
:1071B000237FF1E740BA00003CBF00002C4BF7B53D
:1071C0001B688200D75806003C690191002C05D14C
:1071D000284B2200210001201B6898473D004035C4
:1071E000297808001438052823D828F0B9FE0503AB
:1071F000201E202016232B702B78142B14D14637F9
:107200003B7850345B0603D50122237893432370E7
:10721000012223781521134203D10222134210D0F8
:107220001721297093432370F7BD1823E3E7142334
:10723000E1E7230050331A780E4B03201B68984770
:10724000DAE7042019000140034203D019228343E6
:107250002A70E8E7019B002B04D119003000FFF7EA
:1072600087FFE1E70A003000FFF7D6FEDCE7C04603
:1072700040BA00003CBF0000F8B5104B82001B680C
:107280000500D7580E003C69002C05D10C4B22009C
:10729000210001201B689847002E0CD1627D237FBE
:1072A00013405034237014234037310028003B70C2
:1072B000FFF784FFF8BD227DE37EF1E740BA0000CE
:1072C0003CBF0000184B82001B6870B5D658040004
:1072D000330040331B780D0086B0182B20D1316964
:1072E000002904D1114B0A0001201B68984706228F
:1072F000A91C04A828F060FE6A466B78684693755E
:107300003169102228F058FE05216A462000FFF757
:10731000D7FB2000FDF712F901002000FFF74EFF18
:10732000002006B070BDC04640BA00003CBF00005F
:10733000104B82001B6870B5D658040033004033F0
:107340001B780D00172B13D13169002904D10A4B8A
:107350000A0001201B689847691C1022306928F038
:107360002BFE2000FDF7EAF801002000FFF726FFC2
:10737000002070BD40BA00003CBF00001C4B8200E2
:107380001B6870B5D6580400330040331B780D00DD
:1073900088B0162B29D13169002904D1154B0A0078
:1073A00001201B689847EA78AB7812021343162035
:1073B0006A46291D93826844082228F0FDFD1022A8
:1073C000316901A828F0F8FD2000FDF719FA6B4695
:1073D0000721987701AA2000FFF772FB2000FDF734
:1073E000ADF801002000FFF7E9FE002008B070BDF5
:1073F00040BA00003CBF0000104B82001B6870B513
:10740000D6580400330040331B780D00152B13D1E0
:107410003169002904D10A4B0A0001201B689847F2
:10742000691C1022306928F0C7FD2000FDF786F89E
:1074300001002000FFF7C2FE002070BD40BA00002E
:107440003CBF000013B54A780400531E0D2B00D931
:107450000822702313436A46D3710C4BA2001B68A9
:10746000D3581B69002B0AD02000FDF767F86B4644
:1074700000222000D979FFF7CFFD002016BD6B4612
:1074800003212000DA1DFFF71BFBF6E740BA0000DE
:10749000F7B5524B16001B688200D75801910022A5
:1074A000082104002225FDF71BFA062E13D0013512
:1074B000112E10D00135222E0DD0002E04D0350013
:1074C000703DEDB2002D06D13A000823002546326A
:1074D00011780B4313703E00403633780F2B47D89A
:1074E0000D2B6FD901212000FDF77EF80A2805D069
:1074F00000223B4B110001201B6898473969002985
:1075000004D1374B0A0001201B689847002D5FD13A
:1075100033780F2B24D13A690E3B917C19421FD04E
:10752000527E1A421CD02000FDF728F908232202BF
:1075300001001A432B48163326F032F907230600C0
:1075400003701C223969023028F036FD3000082211
:107550002900143028F04CFD3000758226F044F9E3
:10756000019B002B2FD119002000FFF785FE29E099
:107570001A2B27D101212000FDF736F80B2805D062
:107580000022174B110001201B689847002D12D1D3
:107590002000FDF7F3F80822230201001A431248E5
:1075A000012326F0FDF807002000FDF777F9387079
:1075B000380026F019F900232A0001212000337039
:1075C000FDF7A6F9F7BD01212000FFF7D1FDF9E78E
:1075D000002229002000FFF71FFDF3E740BA00005A
:1075E0003CBF0000150E0000190E0000104B820079
:1075F0001B6870B5D35804001A00403212780D0091
:10760000192A13D11969002904D10A4B0A00012053
:107610001B689847062120006A1CFFF751FA2000DA
:10762000FCF78CFF01002000FFF7C8FD002070BDB3
:1076300040BA00003CBF0000F0B5274B82001B6839
:107640008DB0D4580500FCF779FF236926001A0095
:107650002700E13207924E364737C33A2E330028CF
:1076600024D1390005920AAF062208A8069328F013
:10767000A3FC06223100380028F09EFC23004D3385
:107680001B7804AA937554342378BB71C020134B24
:10769000C000054301930AAB0093069A0599079829
:1076A000029508AB27F03EFD0DB0F0BD310006920B
:1076B0000AAE062208A8059328F07EFC06223900AF
:1076C000300028F079FC230054331B7804AA93750A
:1076D0004D342378B371D9E740BA00009579051885
:1076E00070B5122304000E000B4A81B20B4826F03D
:1076F00057F805002000FCF70BFF3100288010220E
:10770000A81C28F059FC280006F0BCFA0122082128
:107710002000FDF7E5F870BD1A20000005110000FB
:10772000334B82001B68F0B5D55893B02C69290003
:1077300023000AAE1E33070006220693473110339A
:107740003000079328F038FC290006224E310CA89F
:1077500028F032FC2B004D331B782E21B3712B0007
:1077600054331B7802AA521838001370FCF7E6FE57
:10777000D1342B6909AA002823D1597E9170197E32
:107780005170D97D117019004E31097802291DD828
:1077900000291FD1102200210EA828F029FC8020EA
:1077A000144B000103930CAB3843019309AB0093D6
:1077B000049002960EAB2000069A079927F002FD6E
:1077C00006E0997C188A91701080DCE70329E1D0EB
:1077D00013B0F0BD802007490001393338430391CD
:1077E0000CA9FF330490029601910092E3E7C04692
:1077F00040BA000095790518164BF7B51B68820052
:10780000D65804000D00FCF799FE0190306900285D
:1078100012D0370040373B780D2B0DD1123010229B
:10782000FF30691C28F0C8FB019B002B06D10C33EC
:1078300020003B70FFF774FF0020FEBD0B233B7060
:1078400032693E33FF33D35C9B07F5D52000FFF749
:10785000F3FEF1E740BA00004C4BF0B51B68820024
:10786000D35887B01C69050005910393002C23D0E1
:107870002700FCF763FE230005992E3704904E3352
:107880000131102238001E7828F096FB039B40330C
:107890001978082910D106221A70039A402046321E
:1078A00012789446024005926246024207D12800AF
:1078B000059A0499FEF738FE002007B0F0BD002EAF
:1078C00001D0032E30D1049B012B1ED126001E3681
:1078D00031002800FEF761FF23004E331B78032B95
:1078E0000ED1802321002000DB001D43284B3A00ED
:1078F0000093513133009130019527F0A3FCDBE771
:107900000D22039B40331A70D6E780239B001D4352
:107910001F4B21002000009300235131913001952D
:107920003A0027F08DFBC7E7012E14D12300222255
:10793000FC33FF32A25C9B6A2100D34080222000EE
:10794000334013438132FF321543114A5131913094
:1079500001950092E4E7022EAED1039A1069A422A9
:107960005200825C0498012808D10A42A4D0052262
:10797000002128001A70FEF797FF9DE70B21197070
:10798000324299D02800FFF757FE95E740BA000031
:1079900095790518F0B597B00A926B4628229B1886
:1079A0001D78040028000E00FCF7C8FDFF220A9B8A
:1079B0000790134009939B000B93BA4B0B9A1B68DB
:1079C0009F58002F38D001212800FCF70DFE0A280F
:1079D00032D1002C07D0210000227039C9B2280012
:1079E000FFF71AFB28E03C6923004E331B7808930D
:1079F0000A9B180AFF231840082800D92EE228F015
:107A0000C3FA0900640099001B0157013A01730190
:107A1000EF01050223001E331800102231000A93E3
:107A200028F0CAFA3B0046331B785B0606D40122D5
:107A300028000799FEF778FD17B0F0BD089B002BD2
:107A400001D0032B18D1079B012B0ED1099AFF33CC
:107A500013430193944B21002000009300239131A4
:107A600051300A9A27F0ECFAE6E728000A99FEF767
:107A700094FE0823403726E0089B012B16D12300F3
:107A80002222FC33FF32A25C9B6A089ED3408022F4
:107A9000210020001E408023099C520022430192B5
:107AA000814A3343913151300092DAE7089B022B2F
:107AB000C2D128000A99FEF770FE079A0823002A0F
:107AC00000D0053340373B70B6E73B0046331B78A8
:107AD0005B060AD428003100FEF748FE07984037BD
:107AE000431E984107303870A6E7089B002B01D051
:107AF000032B0DD1079B012B05D06C4B03201B687A
:107B0000089A0999984731002800FEF72FFEB0E740
:107B1000089B012BDED0089B022B00D08CE72000B5
:107B2000310010223E3028F047FA09212800FEF7E4
:107B300065FC81E72000102231003E3028F02EFA4B
:107B4000002872D13B0046331A78402311001940B7
:107B50001A420FD1FF18323B3B70079B012B05D116
:107B6000210028001E31FEF718FE65E72800FEF709
:107B70006BFE61E7089B002B30D0032B11D18025D1
:107B80002300220021002000099CED002543464CE3
:107B90002E331E32913151300195009427F052FB63
:107BA0004AE7089B012B2DD1079B012B04D1210013
:107BB00028001E31FEF7F1FD2222FF32A35C132BB9
:107BC0000CD00133A354079B002B04D100212800C3
:107BD000FEF76AFE30E70723403774E72800FCF71A
:107BE000ADFC3C000D234034002809D1A4233A69A0
:107BF0005B00D35C9B0702D52800FFF71DFD0B231C
:107C0000237019E7089B022B00D015E7A42252002D
:107C1000A15C06330B43A354079B002BD6D04037FF
:107C20003B78052B00D007E7D0E704212800FEF7BA
:107C3000F8FD01226421D2E62800FCF7E1FD3100C5
:107C40000400020012A828F0B7F9102212AB18198C
:107C50000021121B28F0CCF9079B002B06D119003C
:107C60002800009312AAFEF7E1FEE5E6280012A91B
:107C7000FFF736FDE0E62000413008223100FF30FA
:107C800028F09AF9200022008024099B64001C43FC
:107C9000054B51303932009301000023FF3201942B
:107CA000E0E6C04640BA0000957905183CBF0000E8
:107CB000089B032B05D06D4B03201B68089A09997C
:107CC0009847F378B07872781B0218433378120221
:107CD0001343000466491843F4F7ECFEFC34A16238
:107CE0000A214037397021E72800FCF789FD070099
:107CF000200031001022D13028F05EF931003A0026
:107D00002000103128F058F91023E019DA1B002167
:107D100028F06EF9574B0B9A1B680EAE9C5830003A
:107D2000236921001A001E321F000792D133062258
:107D30004731089328F040F9210006224E3110A85F
:107D400028F03AF923004D331B782E21B37123001C
:107D500054331B7806AA521828001370FCF7EEFB68
:107D60002E3723690DAA00280FD1997C188A9170AB
:107D7000108019004E310878032800D95CE6E02411
:107D8000E40028F0EDF8091F2B09597E9170197E47
:107D90005170D97D1170ECE71022002112A828F053
:107DA00027F9099B01961C43334B0494039310ABB2
:107DB00002930DAB009312AB3A000799089827F095
:107DC00001FA39E639330999FF330C432A490494FF
:107DD000039110A9029101960092EDE72933F2E791
:107DE000A01C10223100FF3028F0E6F8079B403736
:107DF000002B05D131002800FEF7E6FC0D2362E6DA
:107E00000C2328003B70FFF78BFC15E62100123194
:107E100030001022FF3128F0C1F8061E17D1079B51
:107E20004037012B06D1A11C2800FF31FEF7CCFC06
:107E30000F2348E60100102212A828F0D9F82200EA
:107E400001212800009612ABFEF7F0FDF0E70B21B0
:107E50002800FEF7E6FC01226B21C0E5034B40370A
:107E6000032039781B68079A9847E5E53CBF000076
:107E700040420F0040BA00009579051870B5040023
:107E80000E00002A1AD133790D4A9B009B58043109
:107E90009847051E12D001002000FEF7C2FC33797E
:107EA000012B0BD00B2B09D02000FCF747FB6021E6
:107EB000294301222000C9B2FFF7AEF870BDC046C9
:107EC000888C0518094B82001B6870B5D4580500D2
:107ED0002069002803D025F023FE00232361280019
:107EE000FEF7FCFB00234034237070BD40BA000055
:107EF000F0B515000A2287B01E0005AB1A802A0AC9
:107F000002926A46177A0C000A0038000121FDF738
:107F10008BF9039001287BD13800FCF70FFB011E81
:107F200000D078E0574B029A1B689200D65833690C
:107F3000002B04D0544B02001B6803989847330071
:107F40003F331B785A0700D595E09B0700D594E096
:107F50006378651C042B00D991E06B786A22012BB1
:107F600012D82B79102B0FD86B79102B0CD8EB78FB
:107F7000073B092B08D80824AB78234209D101F02C
:107F8000FBF900280CD1632201213800FCF7C0FC6A
:107F90003EE001F0F9F90028F5D0AB782342EED0AD
:107FA000A6200221400025F02FFDA622040000217A
:107FB0005200306128F01CF8200007222900103000
:107FC00027F0FAFFA27C0123110019401A4200D1C8
:107FD000A182029B06211A020823134300223800C3
:107FE00000920132F5F712FD237C01004370637C9F
:107FF0008370A37CC370E37C0371237D4371637D35
:1080000083713800FEF782FB3300012240331A707F
:10801000039807B0F0BD4222B542B5D1194B0134E7
:108020001A68029B9B009D582B69002B05D00022EB
:10803000154B11001B6803989847A62002214000A9
:1080400025F0E2FC011E286104D10F4B02001B68E1
:1080500001209847A62200212869520027F0C8FF76
:10806000286921000622103027F0A6FF00213800E1
:10807000FEF7C4F9CCE7452286E7692284E76A2245
:1080800082E7C04640BA00003CBF0000F0B51000D7
:1080900089B01400039125F06FFF3F2800D1A2E0C2
:1080A000230A04936B461C7C039B1878013809282B
:1080B00000D998E027F068FF0A00970097001601A2
:1080C000DE01DD007E019700FF014F02039B049A51
:1080D0005D78B54B92001B682000D3580593FCF7E0
:1080E0002DFA01287FD1059B40331B78022B7AD1D2
:1080F000002D00D15BE2059B1F69002F04D1AB4B23
:108100003A0039001B6898473D00039B173502333E
:10811000072219002800079327F04EFF01F034F9D9
:10812000002803D10822AB789343AB700823AA78C8
:108130001A4208D0BA7C1A4205D0059A3833463222
:1081400011780B431370059B463306931B785B062F
:108150004CD5039BDB78002B64D02000FEF710F891
:108160000626002847D0079B20009979FEF728F8BB
:10817000002804D1069B1B785B0600D417E2200080
:10818000FEF762F801212000FEF7DAF8002831D06E
:10819000A97803220B00134011424DD12B716B7152
:1081A000049B06211A020823134300222000009298
:1081B0000232F5F72BFCFB7D010043706B78837076
:1081C000AB78C370EB7803712B7943716B79837152
:1081D0002000FEF79BFA069B1A78059B4033520657
:1081E00032D504221A70002009B0F0BD01F0C4F8A5
:1081F0000028AED103266C4B1A68049B9B009B5849
:1082000040331B78002BEED031002000FEF709FB35
:108210002000FCF793F96021012220003143FEF792
:10822000FBFEE0E77B7C012B97D1069B1B785B066E
:1082300000D592E70226DEE72A793B7D13402B71B9
:108240006A797B7D1340AAE707221A70059B1B6998
:108250001A004E321278002A04D004212000FEF7C2
:10826000CDF8C0E7A42104224900585C02435A54C7
:10827000B9E74D4B049A1B689200D5582000FCF7D3
:108280005DF92B0040331B780600132BABD1296915
:10829000002904D1454B0A0001201B68984728009B
:1082A000039F102202373900143027F085FE049B0B
:1082B00000211A0208236963134300910A22063140
:1082C0002000F5F7A3FB050010223900013027F04C
:1082D00073FE29002000FEF719FA31002000FEF796
:1082E000D7FE80E7304B049A1B689200D5582B6963
:1082F000002B00D15BE1A4277F00DB5D04261A0080
:1083000032400792334200D06DE7039B20005B7838
:108310000693FCF713F905902869C35D1E43069B7D
:10832000C655002B3AD0039B991C2B0046331B7873
:108330005B062FD503004E331B78012B00D052E78C
:1083400039301022FF3027F037FE039B039A5B7908
:1083500010791B0218431300D2789B781202134342
:108360002E69000418431249F4F7A4FB37002223B6
:10837000079AFC37FF33B962F254059B002B04D0F7
:1083800040352B78052B00D02DE700212000FEF78B
:108390008BFA28E7102227F00FFEEEE74E30067822
:1083A000012E00D01FE726E740BA00003CBF0000C6
:1083B00040420F007F4B049A1B689200D558200062
:1083C000FCF7BCF82B00059040331B78112B00D034
:1083D00009E72969002904D1774B0A0001201B68AD
:1083E00098472000FCF70CFA102805D90022724BA0
:1083F000110001201B6898472000FCF701FA0022B9
:10840000039B1B1801330F2830D9049B0827062231
:108410001D0200233D431100009320002B00F5F7BF
:10842000F5FA0600039A01300232049204991022F0
:1084300027F0C2FD31002000FEF768F90023072273
:108440000621009320002B00F5F7E0FA0500049BBD
:1084500003991B8A3A0043801431043027F0ACFDA5
:1084600029002000FEF752F9059937E701305A70CC
:10847000C0B2C7E74F4B20001968049B9B005E58B1
:10848000FCF75CF8330040331B780500122B00D05A
:10849000A9E63169002904D1474B0A0001201B6875
:1084A0009847039920000231FEF7A5F92000FEF756
:1084B000C3FB290012E7039B5B78002B00D1B9E6D0
:1084C0003C4B049A1B689200D658A42204233569B9
:1084D0005200A95C194200D085E60B43AB540F2330
:1084E000039F12375AB20592FA5C002A02D1013B6F
:1084F000F8D2059328000399102202313E3027F06C
:108500005BFD059B3069013316D0293039001022FC
:10851000FF3027F051FD8023280004999B00326929
:108520000B430193254B9130293200930100002326
:10853000FF3226F085FD56E6A42208235200815C16
:108540000B4383542000FBF7F9FF002800D11CE700
:108550004036337816E7174B049A1B689200D758B9
:108560003B69002B00D13EE64E331B78032B00D035
:1085700039E63D0040352B780A2B00D033E6039BCB
:108580000C265B78002B00D135E62000FBF7D6FFE8
:108590000D23002809D1A4233A695B00D35C9B0713
:1085A00002D52000FFF748F80B232B701BE60826A6
:1085B00021E6C04640BA00003CBF0000957905188E
:1085C000F0B517000B2287B0039305AB1A803A0A67
:1085D00002926A46167A0C000A0030000121FCF76C
:1085E00023FE0500012816D13000FBF7A7FF002865
:1085F00014D12300628AA71C1433009229003A0088
:108600003000FEF713FA164B029A1B689200D358FB
:10861000227F3E331A70280007B0F0BD039B9F42B3
:1086200018D13000FCF7AAF80827029B01001A02B3
:108630003A430A230B4825F0B3F821000600638A69
:108640003A0003801431023027F0B6FC300025F0E8
:10865000CBF8E0E7422229003000FCF759F9DAE7CD
:1086600040BA0000170E0000F0B5100085B00D00F4
:10867000140025F081FC3F281CD0240AE6B230000B
:10868000FBF75CFF0290012814D1A30001932B7823
:10869000174F0393002B10D03B68019A6C7C9F58B6
:1086A0001A223B00403330001A70691C3E37FFF736
:1086B00017F83C70002005B0F0BD022321000D4AE0
:1086C0000D4825F06DF804003000FBF721FF2080F5
:1086D000200005F0D7FA962230000299FCF718F92D
:1086E000019A3B689B58039A40331A70E2E7C046F0
:1086F00040BA00001B20000005110000F0B50F007B
:108700000C2185B0140A03ABE5B219803A002800A9
:108710000B39FCF789FD0600012826D12800FBF75C
:108720000DFF4222012824D1174BA2001B68D35809
:108730003F331B785A071BD49B071FD47F783B0716
:108740001ED500F021FE6322002812D0002208234B
:10875000240206210092280023430B32F5F756F934
:10876000010047702800FDF7D1FF300005B0F0BDD3
:10877000452201212800FCF7CBF8F6E76922F8E74B
:1087800000F0FAFDDFE7C04640BA0000F0B5150082
:1087900087B00C000322244905A827F00DFC2B0A02
:1087A00003936B461F7B22000121380005ABFCF7C9
:1087B0003BFD0500012834D11C4B039A1B68920035
:1087C000D65823786288F02B15D10020736BA1183E
:1087D000A3541A0A4A701A0C1B0E8A70CB7001300F
:1087E000039B0001043000936288114B211D301857
:1087F00026F0E2FA15E00C2A04D800220D4B1100F5
:108800001B68984763880120E218083A083B1278F1
:108810006380B36B9A42E2D2010021223800FCF758
:1088200077F8280007B0F0BD6C8C051840BA00003E
:108830003D6D05183CBF000010B51000140025F078
:108840009BFB3F280BD0240A01212000FBF7CCFE24
:108850000C2806D1002201212000FCF759F8002045
:1088600010BD00212000FBF7BFFE1628F7D1002223
:108870001100F1E7F0B5100085B01400029125F069
:108880007BFB3F285ED0414B240A1B68A200D658D0
:10889000370040373B78032B54D13169002904D18C
:1088A0003B4B0A0001201B6898473069202202993F
:1088B000513027F081FB029B3069203319002022C0
:1088C0007130039327F078FB0823E5B22402234399
:1088D000002406210C2228000094F5F797F80100E7
:1088E0000B0001302133029A125D0255039A125D8A
:1088F0001A550134202CF6D12800FDF707FF280077
:10890000FBF71CFE0423012824D1316928000A004A
:108910009131B132FDF752FD33691A004E321078B1
:1089200003280FD827F01CFB02111802A4210422EF
:108930004900585C02435A54052300213B7028002B
:10894000FDF7B2FF002005B0F0BD04212800FDF7BF
:1089500055FD07233B70F5E708223A701A7E012A7D
:1089600001D10521EBE73933FF3318001022002134
:1089700027F03EFB3069102200213E3027F038FB03
:1089800009212800FDF73AFDDCE7C04640BA0000A7
:108990003CBF000070B510000E00140025F0ECFA8A
:1089A0003F281AD00E4B240A1B68A200D55828690C
:1089B000002812D0A42202235200815C40350B43D0
:1089C0008354293A3100E130FF3A27F0F5FA2B7849
:1089D0000B2B02D1E0B2FEF72FFE002070BDC04687
:1089E00040BA0000F0B5234B150A1B681000AA001E
:1089F000D35887B00291039325F0BEFA00243F2894
:108A00002ED0162205ABEFB221001A803800029A50
:108A1000FCF70AFC0400012822D1082300262D02BD
:108A20001D432B000E22062138000096F4F7EEFFBE
:108A3000029B01005B7843703800FDF767FE039BE3
:108A400040331B78013B182B0DD829000A4824F02D
:108A500067FEB04204D02900084A074824F09EFD72
:108A6000200007B0F0BD064B3200310020001B682B
:108A70009847F5E740BA0000F30E0000307500009B
:108A80003CBF000070B510000D00140025F074FA12
:108A90003F281BD06B78002B18D0240A012120001E
:108AA000FBF7A2FD0A2811D12B780B252E2B00D025
:108AB000033D29002000FDF7B4FE2000FBF73EFD3A
:108AC0006021012220002943FEF7A6FA002070BD94
:108AD00070B51000140025F04FFA3F2815D0012181
:108AE0000B4B240A1B68E5B2A400E35828003F336F
:108AF0001A788A43110004220A431A70FBF71EFDFC
:108B0000002245212800FEF787FA002070BDC046EC
:108B100040BA000070B51000140025F02DFA3F286F
:108B200017D00D4B240A1B68A400E55802232C0023
:108B30003F342278110019401A4204D1074B0A0031
:108B400001201B689847C8230222AB8723789343F0
:108B50002370002070BDC04640BA00003CBF00003A
:108B600070B510000D00140025F006FA3F2818D04B
:108B70002B78002B15D0240A01212000FBF734FDAF
:108B80000B2805D00022084B110001201B689847D4
:108B90002A78002A01D0703AD2B201212000FBF7D6
:108BA000B7FE002070BDC0463CBF0000F8B5488845
:108BB0000D001700FBF790FC0400FF281ED0184B97
:108BC00082001B680121D658FBF70EFD0A2817D03A
:108BD000082624023443A1B21E233A00114824F08F
:108BE000DFFD0B2304000370AB8932004382291D93
:108BF000143027F0E1F9200024F0F6FD0020F8BD44
:108C0000330046331B785B0604D520003169FEF73C
:108C100067FDF3E701212000FDF716FEEEE7C046F1
:108C200040BA0000160E000070B548880D00FBF732
:108C300053FC0400FF2806D0FBF780FC2A780100D3
:108C40002000FEF725FC002070BD70B548880D009F
:108C5000FBF742FC0400FF2806D0FBF76FFC2A78E4
:108C600001002000FEF714FC002070BDF0F10000B0
:108C700000010001000001000101010100010000EC
:108C8000000000010101000100000000756C0518E2
:108C9000456E051895690518597805184574051825
:108CA000F97305187D73051831730518C572051819
:108CB000ED750518896B0518BD680518F977051855
:108CC0009D6F0518F7B50C001C21150A01ABEFB21A
:108CD0001980220000213800FCF7A6FA06000128BE
:108CE00026D16B466A466946033260780633023104
:108CF00002F09AF8021E2FD16B469B78002B19D1F7
:108D00006B46DB784232022B26D129000433154A08
:108D1000154824F045FD05003800FBF7F9FB6B46CC
:108D2000DB8828802B71638828006B8004F0AAFF01
:108D30003000FEBD4222032B0ED1290003330B4A23
:108D4000094824F02DFD05003800FBF7E1FB6B46D8
:108D5000DB882880AB80E6E700213800FBF7D8FDF0
:108D6000E6E7C0465B200000051100005A20000025
:108D700070B548880D00FBF7AFFB03020400082024
:108D8000184380B225F0F8F83F280FD000212000CA
:108D9000FBF72AFC41221C2804D12A78002A01D0A2
:108DA000703AD2B200212000FBF7B2FD002070BD66
:108DB000F7B50D002021140A01ABE7B219802A0093
:108DC00000213800FCF730FA0600012819D12100F3
:108DD0005023104A104824F0E3FC04003800FBF74D
:108DE00097FB20806B784B20A3700023A978E1705B
:108DF0000A004B2900D90200934204D3200004F05A
:108E000041FF3000FEBDEF18FF78E2180133177103
:108E1000DBB2EDE75520000005110000F7B50D00AD
:108E20002121140A01ABE7B219802A000021380081
:108E3000FCF7FAF9060001281BD121005023114A42
:108E4000114824F0ADFC04003800FBF761FB2080E2
:108E50006B784B20A370AB78E3700023E978217125
:108E60000A004B2900D90200934204D3200004F0E9
:108E700009FF3000FEBDEF183F79E218013357714A
:108E8000DBB2EDE75420000005110000F7B50D003E
:108E90002221140A01ABE7B219802A000021380010
:108EA000FCF7C2F90600012815D1082321000B4A5E
:108EB0000B4824F075FC04003800FBF729FB2080E8
:108EC0006B782000A3706B88A3802B79A3716B79DA
:108ED000E37104F0D7FE3000FEBDC046562000000E
:108EE00005110000F7B50E002321140A01ABE7B20B
:108EF0001980320000213800FCF796F9050001289E
:108F00000FD104232100084A084824F049FC04003A
:108F10003800FBF7FDFA208073782000A37004F07E
:108F2000B1FE2800FEBDC04657200000051100001C
:108F300070B548880D00FBF7CFFA03020400082043
:108F4000184380B225F018F83F2810D000212000E7
:108F5000FBF74AFB20384122032804D82A78002A4C
:108F600001D0703AD2B200212000FBF7D1FC0020E2
:108F700070BD000070B548880C001500FBF7ACFA16
:108F8000030206000820184380B224F0F5FF3F28B2
:108F900024D03000FBF7F2FBA37B010006332A004C
:108FA0005B00144824F0FCFB020023790B320370B1
:108FB00063794370E3884380237A0371637A437152
:108FC000A37A8371E37AC371A3890381A37B83723C
:108FD0005B00E3189C4203D124F006FC002070BD26
:108FE0000F21615611701021615602345170023206
:108FF000F0E7C0463C0E00007FB50A4B0591588350
:109000001A33180001230393074BC021029308234E
:109010000193002305AA009349010B33F5F73EFFA6
:1090200007B000BD4CBA00004A95051810B5040001
:10903000022805D90022064B110001201B68984721
:10904000044BA400E358181E00D0187810BDC04689
:109050003CBF00004CBA000010B50400022805D93E
:109060000022074B110001201B6898470020054B88
:10907000A400E358834202D0180024F0ECFB10BD9A
:109080003CBF00004CBA000070B505001400002978
:1090900009D0D02002230722000124F081FB0570B3
:1090A000447024F0A1FB70BDF0B5214C85B02300C5
:1090B0000390012038331F780B790E000740002BF6
:1090C0001AD01C4B1A7823003033310003980097D4
:1090D000FBF728F90500FF280BD03734237801333C
:1090E0002370F3F741FD2800FAF78AFF280004F007
:1090F00051FA280005B0F0BD23000F4A43331B7816
:1091000012689B009D58002D04D10C4B2A002900A9
:109110001B689847AB7B0722022B00D0AA8A23004A
:10912000697C30330029D0D02B0001271633CCE7DF
:109130004CBA0000E8BE000048BA00003CBF000086
:1091400070B504001500FF2810D0094B37331A788A
:10915000013A1A70FBF79AFC2000F3F72FFD20006C
:10916000FAF752FF2900200004F036FA70BDC0461D
:109170004CBA000010B5040AC0B2031F9BB2052B05
:1091800005D8044AD05C2402204380B210BD04F00C
:1091900071FAF8E744950518C3B210B5040A18002F
:1091A0000A38062814D826F0DBFE0F0B0D1704131F
:1091B000110008202402204380B224F041FF10BD9A
:1091C0000520F7E70620F5E70420F3E70920F1E79B
:1091D000180004F06DFAEDE70720EBE7014B588F1C
:1091E0007047C0464CBA0000014B988F7047C0468C
:1091F0004CBA000003001B3B4020E02B08D8E020C5
:109200004939FF3989B2C00088428041404280011B
:10921000704770B5050007200C0024F0ADFE08284B
:109220000AD00121A94040B249B2002C05D0014327
:10923000C9B2072024F034FE70BD8843C1B2F8E7FC
:10924000F8B50A4E87000400B859002808D024F069
:1092500005FB051E04D1B8590C3824F0F5FABD51B0
:1092600000212000FFF7D5FFF8BDC0464CBA000032
:10927000F8B504000E00022805D90022104B110099
:1092800001201B6898470F4DA3005F59002F0ED097
:109290002000FFF7E1FE0100D02002230722000199
:1092A00024F07EFA3B784670037024F09DFA012C7E
:1092B00002D1FF2344352B702000FFF7C1FFF8BD1A
:1092C0003CBF00004CBA0000F0B585B004000E00B1
:1092D0000092022805D90022254B110001201B68AD
:1092E0009847072024F048FE0025029008283CD02B
:1092F00033780193022C05D91D4B2A002900012047
:109300001B6898471B4BA700FB5803930123039A44
:109310001D00964229D00298204105001D401842A8
:1093200007D0022521E0019A93420FD0009B013320
:109330000093009B1B78002BF5D1300024F08BFAB2
:10934000402201000198FFF79FFE0EE0022C05D994
:109350000022074B110001201B689847054B012193
:109360002000DE510125FFF754FF280005B0F0BDB5
:109370003CBF00004CBA0000024B3933187801237F
:10938000184070474CBA0000024B393318788007F8
:10939000C00F70474CBA0000054A0300D06800288F
:1093A00000D1704782889A42FBD00068F7E7C04638
:1093B0004CBA0000F8B50C0016001F00FFF7ECFFD8
:1093C00005004720002D0DD007222B7A00201340E6
:1093D0003B70E98831802B7A7F2B03D92402C9B2F4
:1093E0000C433480F8BD00000B4A70B515003E32C6
:1093F0003F352B78127835249A420BD9002401335B
:109400002B70A14206D0FFF7C7FFA04202D0437ADB
:1094100001334372200070BD4CBA000010B5084BF8
:109420003F331A78013A1A70002906D0FFF7B4FFCB
:10943000002802D0437A013B4372002010BDC04691
:109440004CBA000010B50548C368002B00D110BD10
:109450000C3025F019FA24F063FBF4E74CBA000055
:1094600070B50400012825D0022816D000280DD19F
:109470001B49072024F0BCFC1A4D0C2221002800B7
:1094800026F0B6FD28000C3025F0A0F9200003F0EE
:10949000EDFF2000FBF7B0FA70BD03F0EFFEFFF721
:1094A000D1FF0020FFF7CCFE0120FFF7C9FE20000E
:1094B000FFF7C6FE200001F06FFC0A4B00221900E6
:1094C0003F31DA860A705A611A00FF214532117065
:1094D000012207205242F7391A8324F0E1FCD5E734
:1094E000649605184CBA0000024B383318780723ED
:1094F000184070474CBA0000024B38331878800689
:10950000C00F70474CBA0000074B0200588B002870
:1095100009D0801880B2062A05D938331B789B06FB
:1095200001D4023880B270474CBA000001482030A4
:109530007047C0464CBA0000014830307047C04602
:109540004CBA00000A0B0C0D0E100028000200009F
:1095500000000328000200000000002A0002008032
:1095600020000328000200000000012A0002008001
:1095700002000328000200000000042A000200800C
:1095800008000328000200000000A62A0002008054
:1095900001000328000200000000C92A00020000A8
:1095A00001000000144A70B5904211D0134A904255
:1095B0000AD0134A90420ED13624124AE4001419FC
:1095C000A2420BD1002015E00C240B780E4AF5E7DF
:1095D00003240E4AF2E700242200EFE710000832CD
:1095E0001500083D2D889D42EAD14268101E01D029
:1095F0001800904770BDC046021100000411000021
:109600000111000070960518389805182098051863
:1096100070B51D000C00074B07481978042324F08F
:10962000BFF80C3C63894580038024F0DDF80020FE
:1096300070BDC046E8BE00001D0D0000190010B549
:10964000030A04000D2B08D18A4206D004480B3BC4
:1096500024F0A6F8048024F0C7F8002010BDC0460E
:10966000AE0D00009898051898BA0000010025007A
:1096700039200000B5BA051836200000B5BA051823
:1096800037200000B5BA0518030C0000A5A1051885
:10969000010C0000A5A1051801200000A5A10518D6
:1096A0004F200000A5A1051850200000A5A1051815
:1096B0001F20000045A5051814200000A5A10518CD
:1096C0000110000039A2051824200000A5A10518EA
:1096D0002320000005A305182F20000041A3051832
:1096E0004B200000A9A405184C200000F9A405187F
:1096F0004D200000A5A1051831200000A5A10518E6
:109700000F20000011A8051811200000CDA6051893
:1097100010200000CDA6051838200000B5BA0518A5
:109720003E200000B5BA05183F200000B5BA051864
:1097300040200000B5BA05183A20000029A40518F9
:109740003B2000006DA405183C200000B5BA0518A8
:109750003D200000B5BA051841200000B5C205182B
:1097600042200000B5C2051845200000CDCD0518E7
:1097700046200000CDCD05185920000005CE051863
:109780005C200000CDCD051847200000CDA60518AF
:1097900049200000CDA605184A20000085A805181C
:1097A0000E200000D1C805180520000031D405188E
:1097B0003520000031D4051807200000BDA205188F
:1097C0002A2000004BA805182B200000C1A805186E
