:020000041806DC
:101C340010B5024B01221B68984710BDA4BA0000DE
:101C440010B5024B00221B68984710BDA4BA0000CF
:101C540010B5024B01221B68984710BDA4BA0000BE
:101C640010B5024B00221B68984710BDA4BA0000AF
:101C7400F8B500262A4D04002E701CF02BF9294BD0
:101C840030001A68284B92B219681BF0ABFD274B41
:101C940001201A68264B92B219681BF0A3FD254B4C
:101CA40002201A68244B92B219681BF09BFD287815
:101CB4001CF0B2FE214930001DF0EAF8287800F04B
:101CC4008BFA287803F012FB28781BF0E9F8B44269
:101CD40009D01B4B9C4202D01A4B9C4208D11A4B90
:101CE40020001B68984701232B701BF001F8F8BDF6
:101CF40001231022310015481BF0F2FC144B07009D
:101D04009C4205D101230370380000F0A3F9EAE7EF
:101D1400104B3200210003201B689847F4E7C046AB
:101D240020BF0000C8BE0000A0BE0000CCBE000062
:101D3400A4BE0000D0BE0000A8BE000078CD0718E5
:101D4400A5A5A5A5C3C3C3C3D8BE00000311000045
:101D5400F2F2F2F224BF0000F7B51022664B1D68C0
:101D640015420BD00121654B49421A60644B19603E
:101D740064490B6893430B6002F016FC2022154261
:101D84000BD001215D4B49421A605D4B59605D499E
:101D94000B6893430B6002F037FB0124254234D0D7
:101DA400564B574E1C60738B23422ED068461BF053
:101DB4003DF8544B009F1A68A2431A6032681C0015
:101DC400531C0AD0974208D1012310225B4233608E
:101DD40023689343236002F0E7FB73685A1C0AD01C
:101DE4009F4208D1012320225B42736023689343FE
:101DF400236002F009FBB3685A1C03D09F4201D14F
:101E04001AF0D2FF01201BF057F980242402254246
:101E140003D002F075FD394B1C6002231D4249D0EA
:101E2400364E08203360384B1F681BF045F90120FB
:101E34001BF022F8354B9F4205D90022344B110088
:101E440001201B6898473D242D4AF9001369FB18AB
:101E540067435B18180A3F18DBB2136138002D4939
:101E6400FFF7EEFE80232C4A1B06034313609C23DA
:101E7400284C9B004443E41BE418A4B2A30A05D0F5
:101E84000022234B110001201B6898470821234B93
:101E9400234A1C6013680B4313601A4A21491368D0
:101EA4000B400121136013688B430B4313603160B3
:101EB4001DF048F840231D4203D0104A13601AF065
:101EC40073FF042425420BD00C4B10201C601BF024
:101ED400F3F80C4A01201368A34313601BF08AFF34
:101EE4000822154207D0054B06491A600B68934334
:101EF4000B6002F001FBF7BD1C00005020000050F5
:101F040034BF000018000050380000507F841E00C9
:101F140024BF000071020000440000504000005043
:101F240030000050FFFFFF8F70B580256D020B4A13
:101F34001368002B11D02B42FAD0094B094C1D60B9
:101F4400094B032019681A682368120C9847002269
:101F54000120110023689847E9E770BD1000005084
:101F64001400005024BF00006000005010B5034B63
:101F74005B8BDB0701D41BF081FF10BD34BF000075
:101F84000120704701207047F8B507000E001500C6
:101F9400034C20001CF07CFAA760E6602561F8BDC4
:101FA4005CBF0000F0B59C27002685B0009001912D
:101FB400BF00124D009B6A6901369C18019BAA69F7
:101FC40024019B182409BB4204D90D4A013424017D
:101FD40024099B186C61AB6102A81BF001FA029BF7
:101FE40001331C1B074B240124099C42E1D9686975
:101FF400A9691BF085F8300005B0F0BD5CBF000096
:1020040090FDFFFFFEFFFF0773B56C460E00050051
:1020140020001BF0E5F9044B2800143306CC06C35A
:102024003100FFF7BFFF73BD5CBF0000083810B577
:102034000100040006481CF093FA002807D0A08889
:10204400FF22E1881BF08AFB20001BF071FC10BD0D
:102054005CBF0000F8B506000C3883881D4A934223
:1020640005D01D4A934223D000F02CFB1FE0037AD5
:102074003F2B1FD85A1ED2B21849D4080F5D07242B
:102084000125224017412A00BA432F420BD03E2B90
:1020940009D13278013AD3B2DA0889180A7C23408C
:1020A4001A4195432A00002ADED01BF05EFBF8BDDE
:1020B4003E23DFE7582BD7D8403BDBB2074AD90889
:1020C40052180721127A0B401A41130001229A4335
:1020D400E9E7C0460311000004110000ACBA000097
:1020E40070B50C4B04001A78824204D80A4B0100E4
:1020F4001B6803209847094D2B681B5D002B05D0F6
:102104000022054B110001201B68984701222B680F
:102114001A5570BDD4BE000024BF0000A8BA000048
:1021240070B50C4B04001A78824204D80A4B0100A3
:102134001B6803209847094D2B68195D002904D1B9
:10214400054B0A0001201B68984700222B681A558A
:1021540070BDC046D4BE000024BF0000A8BA000071
:10216400030010B504292AD808001CF0F7FE030365
:10217400091023000A000320144B1B68984717E03A
:1021840008221900124880181CF014FF10E0104CAB
:102194001900200008221CF00DFF002320000D4C24
:1021A4000278195D01330A4302700130082BF7D11C
:1021B400002010BD0648082219001030E4E7002270
:1021C400024B110001201B68D8E7C04624BF000061
:1021D400ACBA00004022061870B5022305000400C2
:1021E4009D4315D1182229000B481CF0FFFE0B4B10
:1021F40029001A780A4B18681CF0F8FE03210948D4
:10220400FFF7AEFF04210848FFF7AAFF01F030FEF4
:10221400200000F0DDFA70BDACBA0000D4BE0000AE
:10222400A8BA00003022061838220618FFFFFFFF64
:10223400FF9F00201F000000000000000060040059
:10224400F8074002F0B5A54B87B01C68002C09D1F3
:1022540001F050FE002800D18BE0A04B9C68002CBC
:1022640000D186E09D4B1C61A1889D4BC8180528B0
:1022740000D92AE11CF086FE060058007F00D00039
:1022840029011101954B5B7D5BB2042B02DC934A5F
:10229400013353750E26E31D0393258902ABF6180B
:1022A40063892800338001F0F1F9021E1FD03388BE
:1022B400002B1CD08768002F17D0200092780C3098
:1022C4007F2A0DD80100320000971BF07BFE01002D
:1022D400002910D02A00834B1B68032098470AE08A
:1022E40001003200B847C1B2F2E70421F2E7002D41
:1022F40015D0012323730E23E3713288774B033205
:10230400D2B222725B7D191C5BB2002B00DA002171
:10231400A5722D0A6172E5720420023222E0714B2B
:10232400290032881B68D8E76C4B5B7D5BB2042BB9
:1023340002DC6A4A013353750F22E31D0393E271F1
:102344000B3A23892272227B6272644A527D111CE9
:1023540052B2002A00DA002104200622E3721B0A8A
:10236400A172237300235D490B755F4B03991CF025
:10237400BBFD07B0F0BD23000E270A33039302AB65
:102384002189FF186389CEB23B80FF2904D9554BBC
:10239400002203201B689847300001F0A9F9021EAF
:1023A40033D04568002D19D0200092783B880C303A
:1023B400002A0ED100953A0001001BF003FE05002F
:1023C400002D0ED0474B3200290003201B6898478C
:1023D40008E03A000100A847C5B2F1E76389002B81
:1023E40011D1002562893B889A4205D23D4B3200C7
:1023F400290003201B6898470E2302AAA6729B1883
:102404001B88E37206E00425DCE7364B3100032029
:102414001B689847E27A7FE723000A33267B0393FD
:10242400638902AA3000D38101F074F9021EECD052
:102434004568002D2FD02000927802ABDB890C3048
:10244400002A21D102A90E320095521801001BF076
:10245400B9FD0500002D05D0224B320029000320D0
:102464001B6898470E2702ABFF18398863898B4293
:1024740004D21C4B320003201B689847002DC9D19D
:102484003E23A3723B88BCE70E2202A95218010026
:10249400A847C5B2DEE70425DEE7216913480A1F11
:1024A4000918A389039112491248535412491B0A6B
:1024B4005354E38911495354190A1154DAB20902E5
:1024C4000A430432022092B24CE7064B0022032056
:1024D4001B68984700200200039043E7C8BA000035
:1024E400FFEEFFFF24BF000005250618FC3F005047
:1024F4000040005003400050014000500240005092
:102504002E4B70B52E4C1B68256998472D4BAA8815
:1025140006009A4212D12B7B022B04D0022219000E
:1025240091430D2924D1217E002905D1264B0A008F
:1025340001201B68984701E00139217601232375A6
:10254400A988224B99421BD8053B99422FD923696C
:10255400002B03D020001BF0F9FF050028001BF01E
:1025640004F91B4B30001B689847FFF76BFE70BDE6
:10257400152BE3D1E17D0029D8D00139E175DDE7E0
:10258400144B994213D1200008301BF0DFFF124B8B
:102594001A78AB891B051B0D9A4203DD2B6998B28F
:1025A40003F040F80023236101F08EFCCFE7064BD3
:1025B400002203201B689847C9E7C046C0BE00003C
:1025C400C8BA00000411000024BF00000511000077
:1025D400C4BE000006110000D4BE0000F0B587B0F0
:1025E40006000D001700039300285AD08468002CBD
:1025F4004FD083787F2B29D80E2202A952180021AC
:1026040000940800294B1BF0E3FD0400002C38D192
:10261400B36802221800264902931CF0BDFC0E2365
:1026240002AA9B181E88002819D12A002100330011
:1026340020481BF055F80222040007700230039969
:102644001CF0B8FC2000FFF705FD20E000230E225B
:1026540002A9521818001900A047C4B2D6E70322F1
:10266400154902981CF098FC33002A002100002828
:102674001AD110481BF034F8062204000770013008
:10268400DDE70E4B2A00210003201B68984707B0A2
:10269400F0BD0A000123210009481BF021F807704E
:1026A400D1E70A00012301000248F6E7FFFF00001A
:1026B400CEA50618011100009537061824BF0000A6
:1026C400021100003C4B70B505001B689847AB88AD
:1026D4003A4A06003A4C934205D1200029000830BA
:1026E4001BF0ECFE50E0374A934207D12B7B0F2BB3
:1026F40030D006D8022B27D00D2B0AD02900200079
:10270400EEE7152BFAD1E37D032B3AD80133E375B9
:10271400F4E7EB89E97D5B069B0F01290DD1627E0D
:10272400022A3BD0002A02D1227E032A36D8013B5A
:102734005A425341DAB2002333E0A27EF0E7012388
:1027440000222EE0A2762FE00323227E93429B41B7
:102754005B4229E01C4AA97B1068EB7C4218415C6F
:10276400022924D0002902D1217E03291FD8013B4C
:1027740059424B411370237E01332376BEE7002375
:10278400137028001AF0F1FF104B30001B689847B3
:10279400237D012B01D1FFF755FD70BD012BCED157
:1027A40002220129CED16276002BE4D0E9E7012B85
:1027B400E5D10223E4E7C046C0BE000006110000D4
:1027C400C8BA000004110000C4BA0000C4BE00006E
:1027D40070B5051E0C4C14D101001C2220001CF005
:1027E40005FC0A4B29001A78094B18681CF0FEFBFB
:1027F40020001BF04DFE200008301BF049FE012391
:1028040023750523637570BDC8BA0000D4BE0000EB
:10281400C4BA000010B500F039FFFF23002800D02F
:10282400C378D8B210BD0000F0B589B0050003919B
:10283400029200F02BFF5D4C0700637D7F2B05D9CE
:1028440000225B4B110001201B689847594B9D42A5
:1028540002D0637D013B6375002F00D1A2E0637D4C
:102864007F2B00D96DE00F21BB7804931940082910
:1028740046D808001CF072FB05260526444444444F
:102884004B0000260E2204ABD21800239C46138072
:10289400039B634542D07C68644555D040216B4618
:1028A40004989B89084005900498084231D100940B
:1028B400029905981BF08CFC0400012C2FD10023F5
:1028C400122218E0039B012B13D9029B029A5B7816
:1028D40012781B021343384A12789A4209DD374AA8
:1028E4001268D25C002A04D001221B0213439EB258
:1028F400C8E70222029B29003800FFF76FFE04E0BC
:102904002B4B2A0003201B68984709B0F0BD022610
:10291400B8E760460299A047C4B2CEE7039C04AB73
:1029240031002A00DB8926481AF0DAFE0600002C62
:1029340005D01F4B2A00210003201B689847002E56
:1029440004D100230722D6E70424E8E704ABDB899B
:10295400002B12D07B689C46002B0ED06B46BA78B5
:102964009B89520615D4624600920E2204A952187D
:10297400300002991BF02CFC0400002C05D00C4BF9
:102984002A00210003201B68984730001AF0CCFE6F
:10299400BBE70E2204A96446521830000299A047EE
:1029A400C4B2EAE73B000122A5E7C046C8BA00006A
:1029B40024BF0000350C0000D4BE0000A8BA0000FB
:1029C4000511000070B5134A0C00117802050300CC
:1029D400120D002091420BDD9B0B834208D118009D
:1029E400FB2C05D802F064FE011E02D00A4BC0186D
:1029F40070BD01231A2209481AF072FE01250570E0
:102A0400FFF728FB290020001AF006FF044B9D75F0
:102A1400EEE7C046D4BE00000040005003110000A1
:102A2400C8BA0000F8B5174B06009C7D0D001700CE
:102A3400002C06D010001AF07BFF0023114A937576
:102A4400F8BD114B01051B78090D8B4212DD0123E2
:102A54000902194322000D4889B207331AF040FED7
:102A640006804580002D01D0094BFC1844601AF003
:102A74005BFEE5E7074B0200290003201B6898472B
:102A8400DEE7C046C8BA0000D4BE0000061100004C
:102A940000C0FFAF24BF0000F8B50D0006A90E78F2
:102AA4000168070088190124824211D31C1E09D031
:102AB4002A6828689419A342A4413200644264003D
:102AC4001CF078FA3B689B193B602B689E192E60BA
:102AD4002000F8BDF0B589B005000291039206917B
:102AE400002940D0CE18012317880790C7190093F6
:102AF40032003B0007A906A8FFF7CEFF0400031E1F
:102B040026D0079B5D1B039B1D80200009B0F0BDF0
:102B1400013305935B000493EB18079302233200FF
:102B2400009307A93B0006A8FFF7B6FF002818D1B9
:102B3400049A07A90232AB180793022332000093C8
:102B440006A83B00FFF7A8FF00280AD16B461B7DAF
:102B54000299079A0978521B9942D2D9062AD7D9E1
:102B6400CFE70400CDE70623039A029C1380CCE749
:102B7400F0B599B01D0002903A23081E0592079102
:102B840060D0029B002B61D001271488029B1C1982
:102B94000126029B451908932A002300009608A9E0
:102BA40007A8FFF779FF002849D1029B2A009B1947
:102BB40008930096230008A907A8FFF76DFF0028D3
:102BC4003DD1029B2A00023308930096230008A9F2
:102BD40007A8FFF761FF002831D1029B2A000333C5
:102BE4000893062308A9009307A82300FFF754FFBE
:102BF400002824D1029B2A0009330893009623005D
:102C040008A907A8FFF748FF002818D1029B597AA2
:102C14000390002921D1039B032B04D9434B0A00C1
:102C240001201B6898477F4200233C400227029EF4
:102C340004931836039B049A934216DC0020089BE5
:102C4400029A9B1A059A138019B0F0BD4E2404AB66
:102C5400E41809AB029F02939AE7314203D0039B25
:102C64000133DBB203934908D3E733000E3B0893E7
:102C74002A002300009708A907A8FFF70DFF0028E2
:102C8400DDD133000C3B08932A002300009708A9E8
:102C940007A8FFF701FF0028D1D133000A3B0893AE
:102CA4002A002300009708A907A8FFF7F5FE0028CB
:102CB400C5D13300083B08932A002300009708A9D4
:102CC40007A8FFF7E9FE0028B9D1B31F08932A002B
:102CD4002300009708A907A8FFF7DEFE0028AED15D
:102CE400331F08932A002300009708A907A8FFF7B9
:102CF400D3FE0028A3D1B31E08932A002300009713
:102D040008A907A8FFF7C8FE002898D123002A00C5
:102D1400009708A907A80896FFF7BEFE10360028FA
:102D240000D08CE7049B0133049383E724BF0000A5
:102D3400F0B58DB0070003920691002900D176E02A
:102D4400002843D015880122451904920126CB1886
:102D54000293029A2B00009607A906A80797FFF78B
:102D64009BFE041E2BD1BB190793029A2B000096DD
:102D740007A906A8FFF790FE041E20D1BB1C0793E9
:102D8400029A2B00009607A906A8FFF785FE041EE9
:102D940015D1B97800291DD1022C04D9264B0A007B
:102DA40001201B68984706203E006043049B5B4259
:102DB4001D40C3190593059BB34211D10024079B01
:102DC400D81B039B188020000DB0F0BD04900CADFF
:102DD40008AFBBE7314201D00134E4B24908D9E776
:102DE400331D07930123029A009307A92B0006A819
:102DF400FFF752FE041EE2D1B31D0493079302238E
:102E0400029A009307A92B0006A8FFF745FE041EAB
:102E1400D5D10223029A009308362B0007A906A8ED
:102E24000796FFF739FE041EC9D1049EC3E7102399
:102E3400039A0C001380C6E724BF0000F0B58BB0E2
:102E440007000C1E0492069166D0002832D0158823
:102E54000122451905920126E3180393039A2B00D6
:102E6400009607A906A80797FFF716FE041E1AD1B5
:102E7400BB190793039A2B00009607A906A8FFF72E
:102E84000BFE041E0FD17B783F2B05D9244B020087
:102E940001001B6830009847059B5E4235400026C0
:102EA4007B78B3420AD8079BD81B049B1880200068
:102EB4000BB0F0BD05900AAD08AFCCE7B31C059389
:102EC400FB1807930123039A009307A92B0006A874
:102ED400FFF7E2FD00281DD1059A07A9530002223D
:102EE400FB18079300922B00039A06A8FFF7D4FD62
:102EF40000280FD1B31DFB1807930123039A0093F5
:102F040007A92B0006A8FFF7C7FD002802D1013648
:102F1400F6B2C5E70400C6E70823049A1380C6E79F
:102F240024BF0000F0B5B7B007001D0003920029CC
:102F340000D1C7E0002800D1A2E016888619012339
:102F44004D1900932A00330008A907A8089707978A
:102F5400FFF7A2FD041E00D08BE0BB1C07930223E5
:102F64002A00009308A9330007A8FFF795FD041E63
:102F740000D07EE03B1D079301232A00009308A99B
:102F8400330007A8FFF788FD041E72D17B1D079349
:102F940001232A00009308A9330007A8FFF77CFD4A
:102FA400041E66D1BB1D079302232A00009308A9BF
:102FB400330007A8FFF770FD041E5AD13B00083305
:102FC400079301232A00009308A9330007A8FFF7F9
:102FD40063FD041E4DD13B000933079301232A00EE
:102FE400009308A9330007A8FFF756FD041E40D13B
:102FF4003B000A33079301232A00009308A93300F6
:1030040007A8FFF749FD041E33D13B000B33079398
:1030140001232A00009308A9330007A8FFF73CFD09
:10302400041E26D13B000C33079302232A0000938D
:1030340008A9330007A8FFF72FFD041E19D1BB7B95
:103044002A0004933B000E330793012308A900933D
:1030540007A83300FFF720FD041E0AD1049B029742
:103064005B00DB19059301230493059B029A9342A9
:1030740009D1089BD81B039B1880200037B0F0BDF2
:1030840036AE09AF5BE7029B2A000F330793049B1C
:1030940008A9009307A83300FFF7FEFC00280FD10E
:1030A400029B2A0010330793049B08A9009307A8E6
:1030B4003300FFF7F1FC029B023302930028D4D0C3
:1030C4000400D6E7039B0C001980D6E7F0B5B7B02F
:1030D40007001D000492002900D1B8E0002800D1A7
:1030E40093E01688861901234D1900932A003300B2
:1030F40008A907A808970797FFF7CEFC041E00D07D
:103104007CE0BB1C079302232A00009308A9330028
:1031140007A8FFF7C1FC041E70D13B1D07930123D0
:103124002A00009308A9330007A8FFF7B5FC041E82
:1031340064D1BB1D079302232A00009308A933001E
:1031440007A8FFF7A9FC041E58D13B0008330793D6
:1031540001232A00009308A9330007A8FFF79CFC69
:10316400041E4BD13B000933079301232A0000932B
:1031740008A9330007A8FFF78FFC041E3ED13B00CB
:103184000A33079301232A00009308A9330007A8F0
:10319400FFF782FC041E31D13B000B33079301235C
:1031A4002A00009308A9330007A8FFF775FC041E42
:1031B40024D13B000C33079302232A00009308A96F
:1031C400330007A8FFF768FC041E17D1BB7B2A0055
:1031D40005933B000E330793012308A9009307A826
:1031E4003300FFF759FC041E08D1059B03975B00CD
:1031F400DB190593059B039A934209D1089BD81BBD
:10320400049B1880200037B0F0BD36AE09AF6AE7E2
:10321400039B2A000F330793012308A9009307A8EF
:103224003300FFF739FC00280FD10123039A0093E0
:1032340010323300079208A92A0007A8FFF72CFCD4
:10324400039B023303930028D4D00400D6E7049BE5
:103254000C001980D6E7F0B5C9B00C001D0002902F
:103264000592002900D1E2E000282ED016888619A4
:10327400029B65190793069301232A00009307A96B
:10328400330006A8FFF708FC041E16D1029B2A008F
:1032940001330693012307A9009306A83300FFF71F
:1032A400FBFB041E09D10123029F049019370393E9
:1032B400029B049A5B7893420BDC079B029A981A50
:1032C400059B1880200049B0F0BD08AB48AE0293BE
:1032D400CEE73B00173B069302232A00009307A97D
:1032E400330006A8FFF7D8FB002800D09DE03B0080
:1032F400039A153B0693009233002A0007A906A8F7
:10330400FFF7CAFB002800D08FE03B00143B069374
:1033140006232A00009307A9330006A8FFF7BCFB85
:10332400002800D081E03B00039A0E3B06930092F4
:1033340033002A0007A906A8FFF7AEFB002874D1C2
:103344003B00039A0D3B0693009233002A0007A921
:1033540006A8FFF7A1FB002867D13B00039A0C3BAA
:103364000693009233002A0007A906A8FFF794FBEE
:1033740000285AD13B00039A0B3B0693009233007A
:103384002A0007A906A8FFF787FB00284DD13B00B8
:10339400039A0A3B0693009233002A0007A906A861
:1033A400FFF77AFB002840D13B00093B0693022338
:1033B4002A00009307A9330006A8FFF76DFB002835
:1033C40033D1FB1F0693039B2A00009307A9330004
:1033D40006A8FFF761FB002827D1BB1F069306232D
:1033E4002A00009307A9330006A8FFF755FB00281D
:1033F4001BD1039B2A00009307A9330006A8069754
:10340400FFF74AFB002810D13B787A1C0692009300
:103414002A00330007A906A8FFF73EFBFE37002861
:1034240003D1049B0133049342E7040045E7059B61
:10343400198047E7F0B58FB007000C001D00059216
:10344400002900D188E000282BD016888619012392
:10345400651900932A00330008A907A8089707975D
:10346400FFF71AFB041E15D17B1C079301232A00C6
:10347400009308A9330007A8FFF70EFB041E09D127
:103484003B00113302930123049003937B78049A45
:1034940093420BDC089BD81B059B188020000FB0BF
:1034A400F0BD262604ABF61809AFD0E7029B2A002C
:1034B4000F3B0793039B08A9009307A83300FFF76A
:1034C400EBFA002846D1029B2A000E3B0793039B8C
:1034D40008A9009307A83300FFF7DEFA002839D1C2
:1034E400029B2A000D3B0793062308A9009307A813
:1034F4003300FFF7D1FA00282CD1029A08A9D31F70
:10350400039A0793009233002A0007A8FFF7C4FA2E
:1035140000281FD1029A08A9931F079306232A00A3
:10352400009307A83300FFF7B7FA002812D1029BD3
:103534002A000793039B08A9009307A83300FFF709
:10354400ABFA029B10330293002803D1049B01338E
:1035540004939BE704009DE7059B19809EE7F0B563
:1035640095B007000C001D000592002900D189E0E8
:1035740000282BD0168886190123651900932A0088
:10358400330008A907A808970797FFF785FA041ED0
:1035940015D17B1C079301232A00009308A933004B
:1035A40007A8FFF779FA041E09D13B000A330293F6
:1035B4000123049003937B78049A93420BDC089BC9
:1035C400D81B059B1880200015B0F0BD3F2604AB26
:1035D400F61809AFD0E7029B2A00083B0793039B28
:1035E40008A9009307A83300FFF756FA002847D12B
:1035F400029B2A00073B0793039B08A9009307A893
:103604003300FFF749FA00283AD1029B2A00063B0F
:103614000793062308A9009307A83300FFF73CFA91
:1036240000282DD1029B2A000793039B08A900932D
:1036340007A83300FFF730FA002821D1029B029A31
:103644001B780132079200932A00330008A907A8C7
:10365400FFF722FA002813D1029B2A002033079394
:10366400039B08A9009307A83300FFF715FA029BF0
:1036740029330293002803D1049B013304939AE76E
:1036840004009CE7059B19809DE700008205920DCC
:10369400830A012B19D0032B19D0042B19D0052B25
:1036A40019D0082B19D000203F2B0DD13A3B0F49DC
:1036B400DB00CB1858685988002805D00C234B43ED
:1036C400C31898420BD1002070470023EFE7012371
:1036D400EDE70223EBE70323E9E70423E7E70188A7
:1036E4008905890D9142EFD00C30EAE73838061885
:1036F400002310B502000648D9000C5C944201D1A5
:10370400401810BD0133092BF6D10020F9E7C0465B
:103714006C3D06180200002310B50549DC00601852
:103724000C5D944203D00133182BF7D1002010BD57
:10373400B43D061842424842423642484848420094
:1037440042424848484800424248384200424838C9
:103754004248004242484242364236423642484893
:10376400484200424236344200424233324200422E
:1037740042484242004242484242364242484200A3
:103784004248424242426E42004242424842004261
:103794004242364200424248484842423642424847
:1037A4004200424848484C00424833423342424275
:1037B4004236424242424242424200423842004879
:1037C4004842424236424242004233314200424879
:1037D40048424200484842423642424848484848E3
:1037E4004800424835420048384248313642004297
:1037F4003642313642313642004842424248004263
:1038040048484800424248480042424236424848FA
:10381400420042364242004242424242426E42002A
:1038240048424848420036344242004242484248F4
:1038340048000000010002000C3D061803000900C6
:103844006838061804000400D4380618050001007E
:10385400243D061808005600043906183F000500E8
:10386400303D0618010C0008C0370618D03706187A
:10387400030C000000000000D03706182D0C1103C3
:103884008137061880370618310C0001D037061826
:10389400D0370618330C000731380618D03706180D
:1038A400350C401ED92A0618D03706187B0C110295
:1038B400CFA50618093806187C0C11040A38061816
:1038C400CEA50618630C0008C0370618D0370618B2
:1038D40001100000000000002F380618021000003C
:1038E4000000000068370618031000000000000004
:1038F400BF370618091000000000000095370618AD
:103904003920422A412E0618D037061836200219CB
:10391400AC3706182C380618372002FF1E38061854
:10392400D037061801200208C0370618D037061809
:103934000220020000000000803706180320020065
:1039440000000000BF37061805200206FA370618E3
:10395400D037061807200200000000002C38061893
:103964000620020FC3370618D03706180820022095
:10397400CD370618D037061809200220CD3706188F
:10398400D03706180A200201D0370618D037061897
:103994000B200207D2370618D03706180C20020273
:1039A4002C380618D03706180D200219D8370618F7
:1039B400000000000E20020000000000D0370618AE
:1039C4000F200200000000002C380618102002000E
:1039D40000000000D037061811200207953706189A
:1039E400D03706181220020795370618D037061864
:1039F4001320130EE6A5061800000000142002058B
:103A0400E8370618D037061815201302CFA5061874
:103A1400E637061816201302CFA50618000000008A
:103A240017200220F6370618F83706181820020067
:103A340000000000BF3706181920131CEB370618C6
:103A4400000000001A201312EE370618CEA506183F
:103A54001B201302CFA50618CEA506181C200200B1
:103A640000000000BF3706181D200201D0370618D9
:103A7400D03706181E200203C9370618D037061897
:103A84001F20020000000000CEA506182020130EFF
:103A9400E6A50618CEA506182120130381370618BB
:103AA400CEA506182220130604380618CEA506183B
:103AB4002320020000000000093806182420020414
:103AC4000A380618D0370618252002000000000026
:103AD400000000002620024069370618000000009C
:103AE40027200227F3370618D037061828200207A4
:103AF40095370618D0370618292002000000000068
:103B0400D03706182A200200000000002C380618BE
:103B14002B20020795370618953706182C20020724
:103B240095370618953706182D200201D037061848
:103B3400D03706182E200202CFA50618D037061853
:103B44002F20020000000000453706183020130221
:103B5400CFA506187437061831200203C937061892
:103B6400D037061832201307FD370618000000006E
:103B740033200203C9370618D0370618342002044C
:103B8400BA370618D03706183520020795370618B5
:103B9400D0370618382002FF1E380618D03706180A
:103BA4003A20020000000000CEA506183B200200C7
:103BB400000000002C3806183C200201D0370618FB
:103BC400D03706183D20020000000000D037061848
:103BD4003E20020703380618D03706183F2002FF9C
:103BE4001F380618D0370618402002022C38061851
:103BF400D03706184120420D352D0618D037061847
:103C04004220020608380618D03706184320423AE4
:103C1400752B0618000000004420020E0D3806180B
:103C2400000000004520020000000000D037061804
:103C340046200202CFA50618D037061847200208EE
:103C440016380618D0370618482002081638061801
:103C5400D03706184920020000000000D0370618AB
:103C64004A200200000000002C3806184B200200F5
:103C740000000000C93706184C20020000000000B4
:103C8400093806184D2002040A380618D0370618D9
:103C94004E20020816380618D03706184F20025254
:103CA4001B380618D0370618502002521B38061845
:103CB400D03706185920020381370618D037061862
:103CC4005A20130604380618CEA506185B201305DF
:103CD40012380618CEA506185C20030824380618E6
:103CE400CEA506185D20020611380618D03706182E
:103CF4005E2002412A380618000000005F200201FD
:103D0400D0370618D0370618060411038137061871
:103D1400000000001D041102CFA5061800000000D9
:103D240005141102CFA506188037061811FC0801E6
:103D3400D0370618D037061812FC0800000000001F
:103D4400A637061813FC13040A380618CEA506185D
:103D540014FC130512380618CEA5061815FC130614
:103D640004380618CEA50618050100008037061889
:103D740008010000803706180C01000030380618CE
:103D840010000000D037061811010000CFA5061856
:103D940013020000093806181A000000D03706186C
:103DA40030010000CEA5061857010000CFA5061863
:103DB40001000000383706180200010063350618B8
:103DC4000301000044370618040100004B370618AD
:103DD400050100005137061806010000C5A50618A4
:103DE40007010000C5A506180A0000005737061889
:103DF4000800000067370618090000006D37061830
:103E04000B000100393406180C0100007337061842
:103E14000D0001005B3206180E0000007937061809
:103E24000F0000008437061810000000CEA5061805
:103E340011000000D0370618120000008D37061854
:103E44001300000093370618140100008037061889
:103E540015000100D130061816010100292F06189B
:103E640017010000FF3706181800000099370618DC
:103E740010B50822002102481BF0B8F810BDC04656
:103E8400E4BA00001123FA2802D9024B5980002316
:103E940018007047E4BA0000084B094A1B681278FE
:103EA400D2189A4203D1074B1870002005E0013361
:103EB400591E09780029F4D00C207047A8BA0000D4
:103EC400D4BE0000E4BA0000034B1A78002A02D0E2
:103ED400DA880132DA807047E4BA0000044A00212B
:103EE400D388834201D91B1A99B2D1807047C04646
:103EF400E4BA0000064A1378002B07D05388D2880E
:103F04000020934201D99B1A98B270470148FCE7FC
:103F1400E4BA0000FFFF0000F7B50F004A688021F3
:103F2400436806008068D51A0090B8682D012D09F1
:103F3400090501908D4227D99B1A1B011B095D427B
:103F4400002B03D1019B009A93421FD8019B3F6928
:103F54000524D819009BC01A002834DD1B490138F8
:103F6400FDF766FEE8422ED4009B3069013C181828
:103F7400019BC01AC01B002825DC1549FDF758FE1B
:103F84004419E40F03341EE0002DDBD00024009B11
:103F940036699E19019BF61AA64214DD0C49701E5F
:103FA400FDF746FE4019A0420DDC38690134301A91
:103FB400002808DD06490138FDF73AFE45196C1E54
:103FC4002C43E40F01342000FEBDC0467102000002
:103FD4008FFDFFFF37B5684618F028FF019B9C2032
:103FE40019009131FF31009A8000814204D9E13BEC
:103FF40019000132120112090F4B1B68002B12D059
:104004000E485C6800780E4D201A000100099C6877
:10401400831A1B011B09AB420BD8904201D1A14268
:1040240004D2210002E001201900404219F0D8F81E
:1040340037BD1000FAE7C046ECBA0000E8BE000045
:10404400FEFFFF07394BF0B5DD68002385B0039010
:104054000093002D07D1354BDB68002B01D019F0FC
:1040640079F905B0F0BDAA8A2B680293930B5AD054
:104074003F233F2011110B40014254D00024A97D5D
:10408400303810400918A9752949013B1B010A4021
:1040940013439BB2AB82039E9B0B0193002E0DD165
:1040A400224E2A00300000990C301AF091FA2A00AE
:1040B400210030001AF0E4FA009D34E031002800B9
:1040C400FFF72AFF0028EBD0052802D13400366818
:1040D400E4E7B368326917499F183800FDF7B0FD6B
:1040E40073681449C4183800FDF7BAFDAB688B42F5
:1040F4008941494264182401019B24096C60012B05
:10410400E4D98023E8681B05071B3F013F099F4250
:1041140003D9271A3F013F097F4206492869FDF761
:104124008FFDB842D2DD0095029D92E7ECBA000003
:104134000FFCFFFF71020000013810B5012809D8F7
:10414400054C20001AF0A4F920000C301AF0A0F954
:104154000023A36010BDC046ECBA0000F0B5854B47
:1041640001690400CA18844B87B09A4204D9834B6E
:10417400002203201B6898479C23A2689B009A4254
:1041840005D900227D4B110001201B6898477C4B08
:104194001B689847039004A818F048FE794B049ACA
:1041A4001B7805999B18FA2292001B018918793A09
:1041B4001B09FF3A914216D86568734EEA1A120138
:1041C400A08A1209B24204D89D421AD1A2688A4236
:1041D40017D2820B0DD101256C4B03981B689847AD
:1041E400280007B0F0BD634801331B0109181B09FF
:1041F400E0E7A26863608A4203D201331B011B0912
:104204006360800B012812D98020E168636800058F
:10421400CA1A12011509854203D95B1A1B011B092D
:104224005D425B492069FDF70BFDA842D3DC594B85
:104234009D68002D00D11D68002601960096029607
:10424400002D6FD0A54205D100224C4B1100012056
:104254001B68984729002000FFF75EFE002861D004
:10426400052813D0A17DAA7D914230D9494B9B6882
:10427400AB422CD0009B002B00D100950223984325
:104284000136C0B2F6B2019501284BD0A38A9B0B2C
:10429400012B13D98021E26863680905D71A3F010D
:1042A4003F098F4203D99F1A3F013F097F42384992
:1042B4002069FDF7C5FCB84200DD8CE7354B9A68F0
:1042C400AA424FD0002E00D102952D68B8E7A38AE8
:1042D4009B0B18D0AB682A692D499F183800FDF74D
:1042E400AFFC6B682A49C6183800FDF7B9FCA3680F
:1042F4008B428941494276183601360966600026A8
:1043040001960096C2E7914200D864E7214B9B686E
:10431400AB4200D05FE7C31EDBB2012B00D95AE7E2
:104324000328B3D1009B002B0BD01A4D019A28000F
:1043340002991AF083F92800019A00990C301AF0B6
:10434400D3F8029B1348002B0ED0220019001AF058
:1043540097F90025009BAB4200D13DE72000FFF711
:1043640071FE39E71D686BE721001AF0DDF8FFF7ED
:1043740031FEEEE78FFDFFFF0F18060024BF00009B
:10438400C0BE0000E8BE0000FEFFFF07C4BE000080
:1043940071020000ECBA0000F8B5184B07001B6866
:1043A4000C0098470500002F06D10024144B280068
:1043B4001B6898472000F8BD124EB368BB4202D177
:1043C4000024B460F2E7002CEFD133689F4205D19A
:1043D40030001AF0BBF8FFF7FDFDE7E739003000C5
:1043E4001AF0BEF80028E0D1300039000C301AF081
:1043F400B7F80028D9D10224D8E7C046C0BE0000CF
:10440400C4BE0000ECBA0000F0B5374E85B0346885
:1044140002A818F00BFD002C06D1F368002B5FD125
:10442400FFF7D8FD05B0F0BD0625039B6268019334
:104434002E4B029F1B78ED1BD31A5A192C491201DB
:1044440012098A4208D806331B011B09BB4227D133
:10445400A368019A934223D230001AF077F801003E
:1044640030000C301AF02AF83468002CD5D01F4BD9
:1044740062681B78D31A5D191D4A2D012D099542D6
:1044840008D806331B011B09BB4209D1A368019A52
:10449400934205D20022174B110001201B68984754
:1044A400124B62681B781249D31AFA43D2181201CC
:1044B40012098A4208D8013B1B011B09BB42ACD13B
:1044C400A368019A9342A8D830001AF03FF8836990
:1044D400B060002B00D098473468002CE0D19CE7F2
:1044E40018F038FF9CE7C046ECBA0000E8BE0000B4
:1044F400FEFFFF0724BF000070B50F4E30000C30E4
:104504001AF0E0F8C4B263B2002B00DC70BD3000D6
:104514000C301AF01BF8051E05D1084B02000100EF
:104524001B68012098472B6A002B01D0280098476C
:10453400013CE4B2E7E7C046ECBA000024BF000047
:10454400124B13B51C68002C1CD0684618F06EFC86
:104554009C22019BC8219200D21A00234900914257
:104564005B41009A01339B181B0162681B09D21A34
:104574000749120112098A4200D96360606818F081
:1045840007FE13BD01204042F9E7C04600BB00000E
:10459400FEFFFF07013810B5012802D8014819F0C1
:1045A40077FF10BD00BB000013B5684618F03EFC51
:1045B4000E480468002C17D06268009B9B1A0C4AB2
:1045C4001B011B0993420DD819F0C0FFA1680029F3
:1045D40002D020008847E8E7064B0A0001201B6848
:1045E4009847E2E7FFF7ACFF13BDC04600BB0000ED
:1045F400FEFFFF0724BF00001E4BF7B51B68040035
:1046040098470500684618F011FC9C22019BFA218A
:104614009200D21A0023490091425B41009A01336F
:104624009B181B0162681B09D21A134E120112094E
:10463400B24200D96360002110480268002A09D1FF
:10464400002911D022001AF01BF80D4B28001B681A
:104654009847F7BD53686768DB1B1B011B09B3420E
:10466400EED911001268E9E7210019F05DFFFFF7A8
:1046740067FFEAE7C0BE0000FEFFFF0700BB0000C3
:10468400C4BE000070B5144D04002B00FF335A78EB
:10469400824204D0114B01001B68032098472B0071
:1046A400FF33D978002904D10C4B0A0001201B6880
:1046B400984724012B19197B002904D1074B0A00C0
:1046C40001201B68984729194B68002B03D002224C
:1046D40089682859984770BD08BB000024BF0000B2
:1046E40070B5144D04002B00FF335A78824204D075
:1046F400114B01001B68032098472B00FF33D97826
:10470400002904D10C4B0A0001201B68984724019E
:104714002B19197B002904D1074B0A0001201B68BF
:10472400984729194B68002B03D00322896828591C
:10473400984770BD08BB000024BF0000F8B5284CA2
:1047440005002300FF33D978002904D1254B0A0042
:1047540001201B6898472E01A7193B7B002B31D001
:10476400214BE818000118F043FA8006400F062890
:1047740028D17B68002B1ED00422B968A059984721
:104784002300FF335A78AA4203D10F200135054094
:104794005D7000232200A619FF323373D378013BE6
:1047A400D370FF34E378012B13D10F2263780133E4
:1047B4001340A370F8BD0B4A1900176801201A00B2
:1047C400B847DDE70022074B110001201B6898471A
:1047D400E7E7002BEED18020800018F06DFCE9E7BC
:1047E40008BB000024BF000000040005F8B5304EEB
:1047F40004003300FF335A78824204D02D4B010069
:104804001B68032098472C4BE018000118F0F0F9BE
:104814003300FF33D97885066D0F002904D1254B69
:104824000A0001201B6898472701F3191B7B002B02
:1048340005D1204B2200290003201B689847EB1E5A
:10484400022B05D900221B4B110001201B6898473D
:10485400F1194B68002B23D0043D6A426A418968F0
:10486400F059D2B29847002332000F25F719FF32CE
:104874003B73D3789178013BDBB2D370A14206D06D
:1048840001342C402201B218127B002AF6D0FF36E4
:104894007470002B03D18020800018F00DFCF8BD4B
:1048A400044A1900156801201A00A847DBE7C0462E
:1048B40008BB000024BF000000040005013870B5E7
:1048C400012816D8822200210A4852001AF08EFBD1
:1048D40038261825084C200018F08AF90100B14345
:1048E4002943200089B218F095F9044B10349C42F6
:1048F400F1D170BD08BB00000040005000410050E1
:104904000C4B70B51C6825012D0F230702D5280018
:10491400FFF7E6FEE30602D52800FFF7B3FE6307C0
:1049240002D5200FFFF70AFFA30702D52800FFF7DF
:104934005DFF70BD24000050F0B5A94E85B0330072
:10494400FF339A78040000925A780099881A0F214C
:1049540008400290DB78002B08D0009B9A4205D1D6
:10496400A04B009A032011001B6898470F20009B5E
:104974006268013B034001931B01F3589A4205D13D
:104984000022984B11001B680E389847009B964AEA
:1049940007279D182D01280018F02AF9C010384067
:1049A400012800D0FAE03300FF3359788D4B0320FF
:1049B4001B68009A9847029B0D2B1BD9894B1B68D7
:1049C4000393009B981E0F231840874BC0180001C7
:1049D40018F00EF9844A019B9446634407001801B9
:1049E40018F006F90721C210FF100A400220039BA9
:1049F400394098470127009B61681B01F150F61864
:104A0400236989B2B3602368377373609C26A81C3A
:104A140018F000F96368281D1901090D18F0FAF857
:104A2400A368B600B34205D900226E4B11003800CA
:104A34001B689847A368F61AB6B2B30A05D00022D9
:104A4400684B110001201B689847A81D310018F01D
:104A5400E1F82F008023E0680A371B02984200D255
:104A6400A5E0624B1900C018FDF7EAF8060003043C
:104A740005D500225B4B110001201B6898475C4957
:104A8400314389B2380018F0C5F8A37D1A1C1F2BD6
:104A940000D91F22617DD2B212020B1C1F2900D93A
:104AA4001F232800D9B211430C3018F0B3F8E17D6C
:104AB400504F0B0201933B4205D00022494B110099
:104AC40001201B6898472E000E36300018F090F82D
:104AD400019B07401F433000B9B218F09BF8637E76
:104AE400002B3BD1702128000D26237E083059432A
:104AF4005131FF31890818F08DF8029B3E489E42DF
:104B0400B6417642B3020193237F227DA67E002B19
:104B140051D0E77E141C1F2A00D91F24E4B23602A8
:104B2400E402064205D000222E4B110001201B682E
:104B34009847FF0180233A009A4305D00022294B6D
:104B4400110001201B6898474221019B33431C43F9
:104B540027433943280089B218F05CF80F23009AE0
:104B64009A4305D000221F4B110001201B6898476F
:104B740080230F218020009A1B0613431F4A8000C4
:104B84001360174BFF339A7801320A409A70DA782F
:104B94000132DA7018F070F905B0F0BD280018F091
:104BA40027F8C0100740022F00D004E7FBE60130CD
:104BB400400881B266E7141C1F2A00D91F24E4B2FE
:104BC4003602E402064205D00022064B1100012001
:104BD4001B6898470221019B33431C432143B9E7D7
:104BE40008BB000024BF000000040005710200009F
:104BF4000080FFFFFFE0FFFFFFFEFFFF000100500A
:104C0400F0B593B01C0002900E910492002809D1D3
:104C1400002A75D10022B74B110001201B68984768
:104C240001236BE0002CF5D063680393A3890D93F3
:104C34000023802510A80B9318F0F8F8109B2D057D
:104C44001D402B005A1E9341DBB20193039B002BA2
:104C540005D1A84B039A012011001B689847002234
:104C6400A54B1A60A54B1B78934258D1A34B019ACC
:104C74001A70029B012B6AD123680593059B002BB4
:104C8400CED0039B002BCBD00B9B0193029B012B1B
:104C940001D1A36801939A4B1E68002337000A933D
:104CA4000993039B013B0F93002F00D1C0E0019BAC
:104CB400059A93421BD2029B002B4BD10E9B002BD7
:104CC40048D03B697D680693002D51D0069B002B8C
:104CD4004ED0BB8A0D9A93424AD0059B2C009D422C
:104CE40000D91C00069B039A9B18A34234D90A9B43
:104CF400002B02D0804B099A1A6003230293B6E07A
:104D0400049B9B6803930E9B002B02D0049BDB68DF
:104D14000393049B1B8A0D93049BDB7C89E7002D82
:104D2400A4D18026764B76051D68002D9ED06F6831
:104D3400AB683900FB1830000593FCF791FF059B25
:104D4400581A3900FCF78CFFA9602D68EDE7049B25
:104D54005B6992E7FB68B5E721000598FCF780FFE3
:104D6400002905D121002800FCF77AFF002902D090
:104D74003F68019932E02100B868FCF771FF069B97
:104D84000D005B180C932100013B01980893FCF77C
:104D940067FF8C460F9B0691634407938D4200D9AD
:104DA400B0E0089B8B4207D2079B9D4218D8089B12
:104DB400079A934200D298E0029B012B32D0210043
:104DC4000C98FCF74DFF019B8B4224D201230B9AD4
:104DD4000B40002A21D0002B22D03700019163E739
:104DE400069B9D4203D1089B079A9342E4D9089BF2
:104DF4009C4206D818002100FCF732FF069B99421A
:104E0400DAD2079B9C42B3D821001800FCF728FF94
:104E1400A942ADD3D0E70919D5E73700002BDDD07F
:104E24000131DAE701230997059937000A93D5E799
:104E34000A9B002B02D0304B099A1A60019B059AF9
:104E4400934200D359E7029B002B4CD1049B019A57
:104E54005F699A611B8A06937B1E9B180593002E3B
:104E640008D139000598FCF7FBFE049BD961029830
:104E740013B0F0BDB38A069A934217D07568BD4249
:104E840000D93D00002D05D11A4B2A00290001202C
:104E94001B68984729003800FCF7E2FE002905D179
:104EA40029007068FCF7DCFE002901D03668D6E7DB
:104EB4002900B068FCF7D4FE0C00019BA34210D279
:104EC400039A9B189C4205D200220A4B1100012030
:104ED4001B689847039BE41A059BA342E6D90594F3
:104EE400E4E76419E9E7002308E7069B9D4200D242
:104EF4007DE761E724BF00000CBC000018BC000083
:104F040010BC0000079B9D4200D855E76BE7C046E4
:104F1400013810B5012805D80022034B03481A7044
:104F240019F0B6FA10BDC04618BC000010BC000051
:104F34001FB5C1680400002904D1184B0A000120E0
:104F44001B6898476A46636801200093E3680193ED
:104F5400A38A93810022A368110002936B46FFF792
:104F64004FFE032809D10E4B1B68002B05D0A16905
:104F74009A69002906D1002A0BD12100094819F0A9
:104F84009DFA1FBD002A03D0A17D9A7D914200D3D2
:104F94002300988A9B699847EFE7C04624BF000026
:104FA4000CBC000010BC000010B50100014819F051
:104FB400D7FA10BD10BC0000F7B5036846680400BA
:104FC400466101939E4216D92B4B01271A68002390
:104FD4007F42002A22D1002B2CD1A57C002D48D061
:104FE40029003000FCF72CFE4543019BAB4202D85C
:104FF400AE4200D365610023220001211800FFF7AF
:10500400FFFD002809D0A368E268934205D200237B
:10501400220019001800FFF7F3FDFEBD908A218AD3
:10502400884205D051680133DBB28F4200D90F00AA
:105034001268CEE7BE4206D339003000FCF700FE0A
:1050440078430500D1E7012500966D4238000099A8
:10505400FCF706FE0023994201D1009D0133009A1A
:10506400023A00920099019A8A42BED8002BEDD0F0
:10507400BBE701256D42BBE710BC0000002210B560
:10508400030011000120FFF7BBFD10BDF7B52B4F46
:105094002B4DBB89BE68AB8001235B422B60294B3F
:1050A4000193002E15D1019A274B5343AA889A42A3
:1050B40000D91A00AA807A68531C09D02B68591C9D
:1050C40005D09B1A21491B011B098B4200D92A6078
:1050D400F7BD002380221206DA40164202D10133C2
:1050E400202BF7D11F22D31A0093194B009A1B7857
:1050F400934205DC0022174B110001201B689847DE
:10510400009BDA00144B1B689B181C68002C0FD002
:1051140098880D49FCF794FD241AA4B2022C01D9F5
:10512400023CA4B2019BA34200D923009BB2019389
:105134000123009A93409E43B3E7C04620BC00007D
:1051440030BC0000FFFF000071020000FEFFFF07FB
:10515400D4BE000024BF00001CBC000037B50138D9
:10516400012822D8114C10220021200019F03EFF02
:105174000F4B00211A780F4BD200186819F036FF34
:1051840001230D4D5B4263602B606B46D91D0223E6
:1051940022000B70094B17201B680C32984700281B
:1051A40001D0074BA381A389AB8037BD20BC00008D
:1051B400D4BE00001CBC000030BC0000DCBE0000FB
:1051C400E45700000122824010B503490B781343D1
:1051D4000B70FFF75BFF10BD20BC00000122824072
:1051E40010B503490B7893430B70FFF74FFF10BDC5
:1051F40020BC00000300012070B505009D40084A52
:1052040014782C431470022B03D15160FFF73EFF36
:1052140070BD0022034B11001B689847F6E7C04697
:1052240020BC000024BF00000300012010B50400CE
:105234009C400B4A1178A1431170022B0AD1033B05
:105244005360FFF723FF074B1B68013301D111F0B3
:105254005DF810BD0022044B11001B689847F0E76D
:1052640020BC000030BC000024BF0000033810B58F
:1052740001280ED80A48CC00006800198380012355
:105284008B400260074A91680B439360FFF7FEFE70
:1052940010BD0022044B110001201B689847F5E75C
:1052A4001CBC000020BC000024BF0000033810B563
:1052B40001280DD800200A4BCA001B68D0500123D6
:1052C4008B40084A916899439160FFF7DFFE10BD57
:1052D4000022054B110001201B689847F5E7C046E2
:1052E4001CBC000020BC000024BF000010B504005A
:1052F40000F00CF8002C02D020000AF045FD20003C
:1053040004F0B6F9200000F0F7FB10BD7021F0B5F1
:10531400814D0C262B780400181D414303209A1C50
:1053240056435431FF313618814389197B4E8143EA
:10533400377838267E433618891930265E438143F0
:10534400AB31361881438919754E81438919462634
:105354005E43814336188919120212188143891851
:105364002722534381431B18C91880238143693181
:105374008143E131814309188143091885B0814390
:105384001B02994204D9674B890A1B68073A98475C
:10539400002C05D0013C012C00D899E005B0F0BDEB
:1053A40021002022604819F021FE5B4B70251878FB
:1053B4005A4B41001A7838235A43083B434303337A
:1053C40001930C23071D84B20230434303269C46F9
:1053D4007D435435FF35B444B54365440332B54386
:1053E4005519B543019BAB35B5435D194C4BB543DA
:1053F400ED18B543ABB24D4D02932B6801390393BD
:1054040023239C4609B24B1C56D170250C266F43AE
:1054140081B2704354376D3DFF37AF43401938189C
:10542400A8431218AA43019BAB32AA439A18AA4371
:1054340092B215003E483F4B0068D318FB3D9BB227
:105444004430ADB20380013BFF3B9BB20838AB4212
:10545400F8D14623324E634392190326601CB243AB
:1054640003339B180500C2003348B34300689BB262
:105474008018ADB22A02013D9A182DB282800838F4
:105484006A1CF6D12720090203315B180321444327
:105494008B436418294A1B1912688B4369338B4365
:1054A4001100B9339BB22C31043A0B80253B0839E7
:1054B4009BB28A42F9D171E766468DB26E43029B74
:1054C400C9009E19039B013D59188E8029B29AE7A1
:1054D400154C2B7815492000082209685B0018F048
:1054E400DBFF20001249092308220968083018F05C
:1054F400D3FF20002B7810490822096802331030AA
:1055040018F0CAFF20000D49062308220968183044
:1055140018F0C2FF42E7C046D4BE0000D5BE00006A
:105524000309000024BF000048BC000040BC000088
:1055340044BC00000508000038BC00003CBC00006E
:10554400074B70B51B6898470500064818F0FEFF26
:105554000400054B28001B689847200070BDC04616
:10556400C0BE000048BC0000C4BE0000F8B5060080
:1055740070201E4B03241D7823212B1D58430C231C
:10558400AA1C53435430FF301B19A043C018184BB6
:10559400A0431A78382353431B19C01830236B4394
:1055A400A043AB301B19A043C018124BA043C01832
:1055B400A043301AFCF744FBC7B26D00AF4205DBD1
:1055C4000D4B3200390020001B6898470B4BFF003D
:1055D4001B68984704000A4B0A481968C91918F04F
:1055E4006DFF094B20001B689847F8BDD4BE00002E
:1055F400D5BE00000309000024BF0000C0BE0000A7
:1056040040BC000048BC0000C4BE0000044810B503
:10561400083018F09BFF002800D0808810BDC046D9
:1056240048BC000070B51C4B0C24197870230A1D6B
:10563400534303228D1C6C435433FF33A418934308
:105644001B19164C9343257838246C43A4181B1952
:105654003024FF2661439343AB33934389185B188B
:1056640005389343C41A344203D1240AE3B2082B05
:1056740000D9FEE70A4B34401B6898470500094BE4
:1056840009481968E4000919083018F017FF074B96
:1056940028001B68984770BDD4BE0000D5BE00002A
:1056A400C0BE000044BC000048BC0000C4BE0000F2
:1056B400084B70B51B68984705000748103018F070
:1056C40045FF0400054B28001B689847201E00D0A6
:1056D400A08870BDC0BE000048BC0000C4BE00006D
:1056E40070B57024194B02001B780320191D4C431C
:1056F4000C219D1C69435434FF34091884436418F5
:10570400134984430D7838216943091864183021FA
:1057140059438443AB340918844364180D498443C2
:105724006418462159438443091864188443141B9C
:10573400240AE4B20133A34203DA074B21001B68B5
:105744009847064BE4001868001970BDD4BE0000E9
:10575400D5BE00000309000024BF000038BC0000CF
:1057640070B570241F4B02001B780320191D4C4395
:105774000C219D1C69435434FF3409188443641874
:10578400194984430D783821694309186418302174
:1057940059438443AB34091884436418134984433C
:1057A4006418462159438443091864188443141B1C
:1057B400240AE4B20133A34203DA0D4B21001B682F
:1057C40098470C4BE4001B68984705000A4B0B48AC
:1057D40019681030091918F071FE094B28001B686C
:1057E400984770BDD4BE0000D5BE00000309000078
:1057F40024BF0000C0BE000038BC000048BC00004C
:10580400C4BE0000084B70B51B68984705000748E4
:10581400183018F09BFE0400054B28001B689847BD
:10582400201E00D0A08870BDC0BE000048BC00008F
:10583400C4BE000070B505007020274B03241A78FD
:10584400111D48430C21931C59435430FF3009194E
:10585400A04340182149A0430E7838217143091907
:10586400401830215143A043AB300919A0434018DC
:105874001B49A043401846215143A043091940182D
:105884001B021B19A043C01827235A43A043121913
:105894008018A0436930A0432521281AFCF7D0F9C9
:1058A400C6B2C0B2052805D90E4B2A00310020002B
:1058B4001B6898470C4BF6001B68984704000B4B79
:1058C4000B4819681830891918F0F8FD094B2000A5
:1058D4001B68984770BDC046D4BE0000D5BE00000A
:1058E4000309000024BF0000C0BE00003CBC00004F
:1058F40048BC0000C4BE000010B502000C00012327
:105904000021034817F0ECFE0470FCF7A3FB10BD64
:105914000111000010B502000C000123002103480E
:1059240017F0DEFE0470FCF795FB10BD02110000B9
:10593400F7B5002400900191124D2B78A3421BD996
:105944004426114F66433B6899190B0040331B787A
:10595400092B02D00134E4B2EEE70098203118F0AC
:105964000EFB0028F6D03B68019A9E190736F37F98
:10597400534001221342EDD12878844280414042B1
:10598400FEBDC046D4BE000068BC0000F0B50024D3
:1059940085B0019002910392174D2B78A34225D92B
:1059A4004426164F66433B6899190B0040331B7815
:1059B4001A000E3A012A04D9112B02D00134E4B2A0
:1059C400EAE70198203118F0DAFA0028F6D03B68AB
:1059D400029A9E19330036331B7853400122134236
:1059E400ECD12E363378039A9342E7D12878844257
:1059F4008041404205B0F0BDD4BE000068BC000048
:105A040030B500200A240125074B1968074B1B7881
:105A14000133220042438A18527A2A4203D00130C9
:105A2400C0B28342F5DA30BD6CBC0000D4BE0000C5
:105A3400F7B5050000240A26012701910D4B1868CB
:105A440033006343C018437A3B4208D10A4B013404
:105A54001B78E4B20133A342F0DA2000FEBD037ADE
:105A6400019A9342F2D1290018F089FA0028F4D15E
:105A7400ECE7C0466CBC0000D4BE0000F7B50500DE
:105A840000242726012701910C4B1B78A34213D92C
:105A94000B4B186833006343C0188379FF2B02D182
:105AA4000134E4B2F0E7019A3A409342F8D1290074
:105AB40018F065FA0028F3D02000FEBDD5BE000022
:105AC40070BC00000A4B18780A4B1A68002306328F
:105AD400984205D02732110027390978FF2904D0CC
:105AE400C01A43425841C0B270470133DBB2EFE7FA
:105AF400D5BE000070BC0000F0B585B0012821D0EF
:105B0400022800D1BDE0002802D1614918F07CF8D8
:105B140005B0F0BD2A005F4B62431B68D0580028D3
:105B240002D00C3817F021FE0134E4B25A4B1B7832
:105B3400A342EFD80021042017F086FD002106209F
:105B440017F082FD554CF4220021200019F04EFA82
:105B54002722534B00211B7806265A43514B1B68BE
:105B64001800019319F042FA44224B4D00212B787E
:105B74005A43484B186819F039FA0A222B78002145
:105B840002335A43484B1F25186819F02FFA230093
:105B9400E122543392001A80444B08226362444B3E
:105BA40044496385444819F005FA0122434B5242A3
:105BB4001A60FF2105324248257719F017FAA31C11
:105BC400DD7702AB3F4D5E713F4B02A92A000120F5
:105BD4001B6805319847002804D0320028003B494F
:105BE40019F0E8F920230125374F02AA537102ABBB
:105BF400591D374A3B688020984702AB9E1D02A975
:105C04005D71320015203B6805319847002801D1A9
:105C140033781D402300EF331D70012502ABDE1DD8
:105C24005D71294B02A9320019201B680531984780
:105C3400002801D133781D4023000126F0331D7064
:105C440002AB244D5E71204B02A92A0016201B686A
:105C540005319847002800D02E70114A114B117855
:105C640027224A43FF211B68D2189A420CD1FA22F8
:105C7400543423889200002106205A4317F04AFC2A
:105C840046E70024442551E799712733EDE7C046E0
:105C94009C60061868BC0000D4BE000074BC000000
:105CA400D5BE000070BC00006CBC00001B004801A5
:105CB40007070000905F061878BC00008CBC000049
:105CC40091BC000080BC0000DCBE00003CE407186E
:105CD400A7BC000060BD0000012310B5094C83403F
:105CE4002268002906D0802013434001236017F066
:105CF400C3F810BD9A432260FBD18020400117F005
:105D0400DBF9F6E774BC0000F8B544241E4E4443A6
:105D1400336800211F190500FFF7DEFF00223368F6
:105D240004371B1940331A703800FFF73DF9336804
:105D34001819C31DD97F2030FFF77AFE134B1B7847
:105D4400013383420EDB0A22114B42431B689B182A
:105D54005B7A9B0706D533681919CB1DDA7F20318E
:105D640009F050FD30680019C31DD97F2030FFF7BA
:105D740085FE084B1B78834202D900210AF018FBE8
:105D84002800FCF7CDF9F8BD68BC0000D4BE0000C3
:105D94006CBC0000D5BE00000048704791BC0000F8
:105DA400054BC2089B1807221B79104003411800B9
:105DB400012318407047C04674BC00000048704777
:105DC400985F0618024B5A330020185E7047C0468D
:105DD40074BC0000024B58330020185E7047C04664
:105DE40074BC00004423034A43431068C0180430C1
:105DF4007047C04668BC0000F7B509F08BFC019001
:105E040009F0BEFC072300229C460124654645494F
:105E1400D310CB18197E15402941214206D1210007
:105E2400A9400D00597FA943597713E03D49F0314A
:105E3400097800290ED09100019E4158C827711A93
:105E44000600090109097F019436B94235D2B156D9
:105E54000131E4DB0132252AD8D1334E300018F069
:105E64009BF8012817D80023072501211F002D4C7A
:105E7400DA10A218147E2F403C410C4208D00C00CA
:105E8400BC402700547F3C435477012803D00800CA
:105E94000133252BEAD1002430000AF06BFC2500E5
:105EA400224B1B78A34214DC002D37D0FA220021A8
:105EB4000420120117F02EFBF7BD0027B754FA2671
:105EC400F601B142C6D92100A9400D00597F2943EA
:105ED400AAE744236343164F0193019A3B689B1836
:105EE4001A0040321278092A0BD10833DA7F002ACB
:105EF40007D1012321021943022089B217F02EFC95
:105F040001253B68019A9B1840331B780C2B03D165
:105F14003100E0B20EF0BEF80134C1E7014B0333A7
:105F2400DD77C9E774BC000091BC0000D4BE00005A
:105F340068BC0000F8B50023040044270E4A0F494A
:105F4400037023781678B34210D2380058430D6892
:105F54002818050040352D78002D0AD1202229006B
:105F6400203019F043F82378B34200D307252800E2
:105F7400F8BD01332370E4E7D4BE000068BC000020
:105F8400014B18687047C04670BC00001F00000039
:105F940000000000FF79010F000000000020024B08
:105FA4000433D8777047C04674BC000070B5222310
:105FB4000D003E220021094817F092FB0026092318
:105FC40004002900037046702022023018F0F2FF0A
:105FD4002000FCF73FF8300070BDC04604110000FB
:105FE400F8B53E220D00422300210F4817F078FB3C
:105FF400202608230027040003703200290047707C
:10600400023018F0D7FF2000A9193200223018F00E
:10601400D1FF2000FCF71EF8044B31005B68044AF2
:10602400802098473800F8BD04110000DCBE000051
:10603400A7BC000070B511230D00094A00210948CE
:1060440017F04EFB691C040000251022013018F0E3
:10605400B1FF20002570FBF7FDFF280070BDC0468E
:106064001720000001110000FA2210B5064B92001F
:1060740054331B88062000215A4317F04BFA09F0C9
:1060840083FB002010BDC04674BC000010B5FFF7B0
:10609400B3FE002010BD0000A860061868BD000013
:1060A4000100120007000000396006180400000017
:1060B4009160061805000000A15F061806000000A4
:1060C4006D60061808000000E55F0618090000006E
:1060D400B15F06180A0200000995061802020000C2
:1060E4003D74061807020000A17406180802000097
:1060F400B179061803000000B97E061801020000F9
:10610400F57E0618060200007D8C061803020000C6
:1061140021850618040200007D8606180502000089
:10612400498A061809020000419106180511000069
:10613400056C0618442130B5104B1A68104B140036
:106144001B78403459430023994201D1012030BDCA
:10615400E05C851E012D05D8D058C07C00280BD1E9
:106164004433F1E7072802D1D0584078F6E70528F0
:10617400F6D1D0580078F1E70020E8E768BC0000C9
:10618400D4BE000030B50D4A0124117844220C4BD2
:106194004A431B680B484033D218934201D1002074
:1061A40030BD197844331129F7D80500CD402900B2
:1061B40025008D43F1D10120F2E7C046D4BE000092
:1061C40068BC0000AC40020002001E2313B50C00A2
:1061D4000B49C85C002807D1013BFAD20C212000EE
:1061E400FFF798FB002016BD00211300019109312F
:1061F400009102200349203318F010FC0100EEE75F
:10620400A8BC0000A7BC000073B508000021FFF77C
:1062140081FB6A460123D3716B46154E941DD91D2B
:106224002200822033689847002801D0002323707D
:1062340020236A46D37123780E4D002B09D069467A
:106244002A008020336807319847002806D00023AD
:1062540023700021280018F02DFC02E02378002B85
:10626400F7D028000022082118F0FAFB002076BDA0
:10627400DCBE0000A7BC000010B50A000A23002100
:10628400074817F02DFA0024FB22064BC280038135
:10629400428083800470FBF7DDFE200010BDC04601
:1062A400011100009042000010B500210623074AA6
:1062B400074817F015FA0024064B9A8C4280DB8CB1
:1062C40004708380FBF7C6FE200010BD232000006D
:1062D4000111000074BC000070B500210F4A0923AD
:1062E4000F4817F0FDF90F4D04002B689847030A77
:1062F400A370030C6070E370000E2B682071984744
:106304000025030A6071A371030C000E207225702E
:106314002000E371FBF79EFE280070BD18200000EA
:10632400011100006CBD000010B50A000223002119
:10633400054817F0D5F90024044B04701B7843700A
:10634400FBF788FE200010BD01110000D5BE00003F
:1063540010B50A0002230021064817F0C1F90024F1
:10636400054B04701B7802334370FBF773FE200067
:1063740010BDC04601110000D4BE000010B50021BC
:10638400074A0623074817F0ABF9022300240371D8
:10639400F93343800470FBF75DFE200010BDC04656
:1063A400022000000111000070B507230A0009480B
:1063B400002117F095F900250400074906220C3145
:1063C400013018F0F7FD20002570FBF743FE28008C
:1063D40070BDC0460111000074BC00000A0010B575
:1063E4000A230021074817F07BF90923064A038191
:1063F400C2804380C632013302800371FBF72AFE58
:10640400002010BD011100003A090000030070B51E
:106414001C88080022001B3A1221E02A0BD85A8853
:10642400074D1300493BFF3B9BB2AB4203D800210D
:10643400044B9C84DA84FFF75FFA002070BDC046E9
:106444004841000074BC000070B50C000500FFF763
:1064540099FE0C21002809D12B780631012B05D88F
:10646400012201001340044A563213702000FFF742
:1064740043FA002070BDC04674BC000070B5092307
:106484000021084A084817F02BF9002504000822C7
:106494000649013018F08EFD20002570FBF7DAFD67
:1064A400280070BD1C20000001110000C06D0618FA
:1064B40013B5010000240122034B1031009418F09D
:1064C40064F9200016BDC046D1640618002270B5D8
:1064D400112306000D000720110017F001F9040034
:1064E400290006701022013018F064FD200017F016
:1064F4001BF970BD70B50A000500072300210E4882
:1065040017F0EEF8122303702978040001290AD841
:10651400681CFFF7B3FA094B1B78834208D9611C46
:1065240009F0A4FF20702000FBF794FD002070BD4B
:1065340002232370F7E7C04601110000D5BE000016
:1065440070B50A000500072300210E4817F0C8F8AB
:10655400122303702978040001290AD8681CFFF764
:106564008DFA094B1B78834208D9611C09F048FF56
:1065740020702000FBF76EFD002070BD0223237005
:10658400F7E7C04601110000D5BE000003880C489F
:106594005A1E92B210B50C00122182420AD8094A3E
:1065A400002154321380FA22920006205A4316F036
:1065B400B1FF00212000FFF79FF9002010BDC04665
:1065C400B7A1000074BC000010B5104B0C0056338A
:1065D4001B78002B04D0FFF7D5FD0C2100280CD12B
:1065E4000B4B1A680B4B197827234B43FF219B183D
:1065F4009A4207D109F09CFB00212000FFF77CF9A7
:10660400002010BD91712732F2E7C04674BC00002F
:1066140070BC0000D5BE000070B506780D00040003
:106624001221012E1DD8114B56331B78002B04D098
:10663400FFF7A8FD0C21002813D13100601CFFF7DF
:106644001DFA0B4B04001B780221834209D909F07F
:106654008DFE2720074B44431B6800211C19FF2390
:10666400A3712800FFF748F9002070BD74BC000036
:10667400D5BE000070BC0000F0B5037889B00700F7
:1066840007910493012B06D912210798FFF734F9D7
:10669400002009B0F0BD3E4B56331B78002B04D0CC
:1066A400FFF770FD0C210028EFD10024394B7E1C2C
:1066B4001B780593384B1D684035059BA34225DCA8
:1066C4000023300004990593FFF7B2F90022314BFF
:1066D40004921B780133834208DB0A3250432F4B68
:1066E4001B681818457AAD07EB0F0493300039780E
:1066F400FFF7C4F92A4B1A788242C5D80024294BE3
:106704001B680633A24211D10721BEE72B78092B5F
:1067140007D1290006223000203918F03DFC00285A
:1067240002D001344435C8E70123CAE727331900EE
:1067340027390978FF2928D13B0017330693049B96
:10674400FD1D0293059B200001933B782A00310034
:106754000093069B09F058FD2720124B4443186808
:106764003B780419A3710622791C200018F022FC3E
:1067740010220699E01D18F01DFC200029001022AB
:10678400173018F017FC00217FE70134E4B2B9E7B1
:1067940074BC0000D4BE000068BC00006CBC0000E7
:1067A400D5BE000070BC0000F8B50D000400FFF772
:1067B400C1FC0C21002805D021788B1EDBB2FC2BF8
:1067C40005D812212800FFF797F80020F8BD661CB1
:1067D4003000FFF72DF90D4B1B7801338342F0DBBA
:1067E4000A22022142430A4B1B689A18537A0B422D
:1067F400E7D05F0707D58B4353723100227809F045
:10680400A3F80021DEE70321F5E7C046D4BE00006B
:106814006CBC0000F8B50D00FFF78CFC0C210028BF
:106824001BD000240A26012731000F4B61431B684B
:1068340059184B7A3B4208D05A0713D50222934386
:1068440020000A7A4B7209F07FF8084B01341B7858
:10685400E4B20133A342E7DA00212800FFF74CF841
:106864000020F8BD0322EAE76CBC0000D4BE00009F
:10687400F7B505000191FFF75DFC0C26002805D053
:1068840029788B1EDBB2FC2B06D812263100019826
:10689400FFF732F80020FEBD6F1C3800FFF7C8F880
:1068A4001B4E040033780133834227DB0A22194B41
:1068B40042431B689B185B7A9B07E6D40A23634315
:1068C400144E0093009A336839009818062218F081
:1068D40071FB3368009A29789B180322587A19723D
:1068E40002435A723800FFF723F80026B042CDD194
:1068F400390020002A7808F085FFC7E7FFF780F801
:1069040033780400023307269842D7D1BEE7C04645
:10691400D4BE00006CBC0000F8B5164E0500043669
:10692400F37F0F000C24002B04D104791F339C4304
:1069340006D0122438002100FEF7DEFF0020F8BD47
:1069440017F02AFB0138C0B22428F2D82900052206
:10695400094818F02FFBFA2221009200052016F0B6
:10696400D9FD012321000420F37716F06DFEFFF713
:1069740043FADFE774BC00008CBC0000F7B50500E7
:1069840000240191384B1B78A3420DD837492800C5
:1069940017F0F5FA1221041E61D1290006223448A9
:1069A40018F008FB21005AE0442363430093314B61
:1069B400009A1B689B181A0040321278911E012914
:1069C4002DD92C4F009A3B689B181A00403212783C
:1069D400072A0CD11E68002E04D1274B2100032066
:1069E4001B689847022233789343012B32D0009AD4
:1069F4003B689B181A0040321278052A0CD11E6895
:106A0400002E04D11C4B210003201B68984702224E
:106A140073789343012B1DD00134E4B2B2E71749D4
:106A2400EE3109780129CCD11E68002E04D1124B15
:106A3400210003201B689847102372881A4204D14E
:106A44000D4B210003201B6898470222F37A9343DD
:106A5400012BB6D1044B0C211B78A34296D9019883
:106A6400FEF74AFF0020FEBDD4BE000042E4071832
:106A740086BC000068BC000024BF000074BC000099
:106A840070B509230021094A094816F029FE0400BB
:106A9400FFF794F9002501000822601C18F08AFA17
:106AA40020002570FBF7D6FA280070BD03200000F3
:106AB4000111000070B50C00074D082201002800E8
:106AC40018F078FA28000421FBF74AFB2000002183
:106AD400FEF712FF002070BD78BC000010B50C005A
:106AE4000221FBF73DFB01002000FEF705FF00201B
:106AF40010BD10B50C000321FBF732FB0100200090
:106B0400FEF7FAFE002010BD10B50C008188008845
:106B1400FDF7B8F901002000FEF7EEFE002010BDDD
:106B2400007810B50C001221032804D80123184062
:106B3400FDF7B2F901002000FEF7DEFE002010BDD3
:106B440070B50A0009230021084816F0C9FD08227F
:106B540004000021013018F049FA002560232000C8
:106B640025706371FBF776FA280070BD01110000EF
:106B740070B541230A000B48002116F0B1FD040052
:106B84002A220949013018F015FA2000002516229E
:106B940000212B3018F02AFA20002570FBF75AFA4E
:106BA400280070BD01110000346C061810B50C00EB
:106BB40016F09EF820000021FEF79EFE002010BD76
:106BC40010B503000C4A00780C001278002803D09A
:106BD4005988914203D29888FDF780F909E0002290
:106BE400064B110001201B68984712212000FEF774
:106BF40083FE002010BDC046D4BE000024BF0000A8
:106C0400002270B50C001900084BD000C518185AA2
:106C1400884205D16B68181E01D02000984770BDCA
:106C240001322C2AF1D10020F9E7C046606C061825
:106C34002000800000C000000000E40000002822C2
:106C4400000000000000040000F7FFFF7F000000C8
:106C540030F0FFFFFFFFFFFFFF170000030C0000F1
:106C6400B16B061801100000E1630618091000005A
:106C7400AD63061802100000756B061803100000BF
:106C8400456B0618010C0000F76A0618630C000037
:106C9400E16A0618310C0000256B0618330C00005D
:106CA4000D6B0618350C0000C56B0618012000009A
:106CB400B96A061802200000816306180320000048
:106CC400856A061805200000816906180620000060
:106CD400056F0618082000006D7006180A200000D1
:106CE400BD71061809200000157106180B2000005C
:106CF400C17B06180C200000E17C06180D20000062
:106D0400B98E0618142000001D6906180F20000013
:106D14005563061810200000196806181120000099
:106D24007568061812200000AD6706182A200000B6
:106D34002D630618272000007D6606182820000011
:106D44001D66061829200000CD6506182E200000B7
:106D5400916506182D2000004D6406182B200000B4
:106D6400456506182C200000F96406181720000059
:106D7400B564061818200000DD6206181C20000007
:106D84008164061823200000AD6206182420000048
:106D9400116406182F2000007D6206181D200000D3
:106DA400319506181E2000006B950618252000005A
:106DB4000D62061826200000CD610618FFFFFFFFB4
:106DC400FF03000070B544251D4C454323685B59FF
:106DD400002B05D000221B4B110001201B68984793
:106DE4000022236811005E1910001A2316F078FCA3
:106DF400FF2330602068002645192C683100237079
:106E0400EC3B638080231B01A380082320002381A3
:106E1400013BE6806381267306220D3018F0E6F804
:106E24008023FF33A3827F3BE382074BE6742683F0
:106E3400DA682A631B8AAB86012340352B7070BD48
:106E440068BC000024BF000074BC000070B51400CE
:106E54000F4B06001A78E3B20D009A4205D80D4B89
:106E6400220003201B68E1B29847002E0FD1442072
:106E7400E4B24443084B18680019030040331B78FC
:106E8400022B04D106222900363018F093F870BD85
:106E9400D4BE000024BF000068BC0000F7B50D009C
:106EA40000240190134F3B78A34202D8FF24200012
:106EB400FEBD4422104B62431B689B181A004032EB
:106EC4001278511E022902D90134E4B2EAE71E689D
:106ED400002E04D1094B210003201B689847337806
:106EE400019A9342F0D13B78A342DFD9002DDED042
:106EF4002E60DCE7D4BE000068BC000024BF0000A4
:106F0400F0B5544B87B00391EE331A780400022A8B
:106F140000D19DE001220021FF201A70FFF7BEFF7F
:106F240004AAD51D03002870FF2813D04A4A10680C
:106F340044225343C01840300378012B00D087E02B
:106F44002379042B0FD912210398FEF7D5FC0020D6
:106F540007B0F0BD2800FEF7EDFF011EF4D128783C
:106F6400FFF730FFECE7012B09D0218862889142BA
:106F7400E9D81F29E7D98021C9018A42E3D8627B75
:106F8400013A062ADFD8A27B032ADCD86279032AD5
:106F9400D9D8A279012AD6D8012B03D00022029293
:106FA400042B07D12D49E01D16F0E9FF0028CAD1B2
:106FB40001230293442300212A78274F53433A683C
:106FC400D3181D68264A2800019323790D30D35C19
:106FD4006B80638869721A0A2A72EB712388A9711B
:106FE400AB80637B0622AB726679E11DEE72A379F6
:106FF4002B7317F0DFFF0023029A9A4200D1A37B80
:10700400EB74032E1DD83000019B1249303317F066
:10701400A5FF02120212019AC86810630A8A9A80B4
:10702400442204ABD9793B684A439B18012240337C
:1070340000211A7088E706221800123117F0BAFFEF
:10704400EEE7084B0022310003201B689847E7E76E
:107054000C2179E774BC000068BC000042E4071806
:10706400CC7A061824BF0000F0B5274B85B00191F7
:10707400EE331A7805000C21022A38D001221A7046
:10708400037806311F2B32D80021FF20FFF706FFBB
:1070940002ABDE1D3070FF2807D13000FEF74AFF37
:1070A400011E24D13078FFF78DFE44223378174F28
:1070B40053433A68D3181B8C0093FEF7A3FB0721B4
:1070C400041E14D021002A78681C15F0C7FD442240
:1070D40030783B68424329789B181C845984403398
:1070E4001B78022B09D122000CF0F8F8002101983A
:1070F400FEF702FC002005B0F0BD009B002BF5D08C
:107104001800FEF797FBF1E774BC000068BC0000B0
:10711400F0B5274B85B00191EE331A7805000C21A8
:10712400022A38D001221A70037806311F2B32D874
:107134000021FF20FFF7B2FE02ABDE1D3070FF28F6
:1071440007D13000FEF7F6FE011E24D13078FFF798
:1071540039FE44223378174F53433A68D3181B8DB2
:107164000093FEF74FFB0721041E14D021002A7858
:10717400681C15F073FD442230783B68424329783B
:107184009B181C85598540331B78022B09D122009A
:107194000CF0D4F800210198FEF7AEFB002005B0F6
:1071A400F0BD009B002BF5D01800FEF743FBF1E780
:1071B40074BC000068BC0000F0B5964B93B004901A
:1071C4000591EE331A78022A14D001220021FF20FF
:1071D4001A70FFF763FE06AB9C1C049B20701B789F
:1071E400002B03D0012B26D012210FE18A4B1B78F0
:1071F400834201D80C2109E144252A00874E4243E9
:1072040033689A1840321378022BF3D10CF02AF821
:10721400011E00D0FAE02278336855435D19032338
:1072240040352B70049B00211B78002B00D0EDE02F
:10723400002013B0F0BD784B1B78834269D94422F7
:10724400764B50431B681B1840331B78012BD1D15C
:1072540006ABDD1C00232B70704B21781A68442385
:107264004B439C58E37ADB075CD46388DB0711D576
:107274002800FEF75FFE011E00D0C7E00C236288E1
:107284001A4207D02000217B0D30FEF751FB002865
:1072940000D0BAE00A262100638807AD02932B834D
:1072A400637A227A1B0412021343E2790D311343E9
:1072B400EB60A37A06226B77E37A0193AB77237BA7
:1072C4000393EB7706ABF618300017F073FEE27CFD
:1072D40006AB0533DA77227D06AB0633DA77637DB6
:1072E40006AA0732D377A17D08AAD177092206A975
:1072F4005218D377237EF3770B23627E5B18DA77F9
:10730400019B4449DB0715D4CB6807930B8AAB80F8
:1073140015E02000FEF70EFE011E77D12078FFF75E
:1073240051FD95E73E493F4816F029FE002800D05C
:107334005AE79AE706222800123117F03BFE44224E
:1073440006AB9F1C3B78354D5A432B682C209A186A
:10735400118C07AB1982518C334E9982118D59824D
:10736400528D06A9DA8200225A831A77294B09AA78
:1073740056331B780918D37732780A70002B02D061
:10738400029B5B0702D4019B9B0720D52000039935
:107394000D30FEF773FB2C2206AB9B181870337864
:1073A400834214D9E37A9B0711D527261F4B7043D8
:1073B4001E681F493618073630001C3A17F0ECFDDA
:1073C400002804D030003A781A4917F0AFFA07A918
:1073D40038780CF01BF8011E18D144203A7829683B
:1073E40042438B181A000225403215706288D20776
:1073F40000D417E706AAD4783E331C700300042295
:107404006343CB1840331A700CE70B210598FEF741
:1074140073FA0DE774BC0000D4BE000068BC000021
:1074240042E4071886BC0000D5BE000070BC000012
:1074340048E40718516E0618442270B50D00097807
:10744400134B4A431B689B181E6840331A78931EDB
:10745400012B03D90F4B03201B689847737E002B25
:1074640014D009233E2200210B4816F039F91323C6
:10747400040003703378062243706B78A91C837070
:10748400033017F097FD2000FAF7E4FD002070BDEB
:1074940068BC000024BF000004110000F0B54425BE
:1074A4000B7895B004936B437F4E0293029A336832
:1074B4000C009B181A003E3212781F680192403368
:1074C4001A78032A22D1794D2B00EE331B78012B35
:1074D40009D100217648FEF70FFA3368029A9B1807
:1074E400403301229DE02B00ED331978002904D1AB
:1074F400704B0A0001201B689847ED352978013943
:10750400C9B229700029E8D16B48E4E70A001532B2
:10751400039220321278002A00D1EDE10B003733B8
:1075240019780398FEF704FA0590002800D1C9E001
:107534000C237A881A4205D000225E4B11000120E8
:107544001B6898477D8806AB1D837B7A3A7A1B04B7
:1075540012021343FA79390013430993BB7A06AA3A
:107564005377FB7A0D3103931300039A9A7706221B
:107574003E7B9818DE7717F01DFD04212A000A408F
:10758400944600230D4200D1FB7C06A90131CB7740
:10759400397D06AB0233D9777B7D06A90331CB77DE
:1075A400B87D07A9C87706A90531CB77397E06AB24
:1075B4000633D977797E3C4D06AB0733D9772B68F0
:1075C400029928225B18196B06A806919B8E06A9BE
:1075D4008B8000234B830B77344B08A956331B78DD
:1075E4008018CB77354909780170002B02D06346A7
:1075F400002B02D1039B9B0708D5380031000D30C6
:10760400FEF73CFA282206AB9B181870049806A9CA
:107614000BF0FCFE002806D1029A2B689B1802226C
:1076240040331A7005E00022224B110001201B6830
:1076340098477B88DB0708D5442201991A4B4A43B3
:107644001B689B18002240331A7063783C2B00D1CE
:10765400E9E0164BEE331B78022B1AD123003533A5
:107664001B78002B02D16378002B12D008233E2212
:107674000021134816F034F8122303706378383469
:1076840043703B788370019B838023788371FAF77E
:10769400E1FC054B029A1B6800209B18FF223E3335
:1076A4001A7015B0F0BDC04668BC000074BC000080
:1076B4000A20000024BF000039200000D5BE0000CD
:1076C400041100000422A11C06A817F073FC032275
:1076D400A11D07A817F06EFCE37E06AAD371E36927
:1076E40006A80893236A0993636A0A932300243340
:1076F4001A790AAB1A71230029331B7806AA537529
:1077040023002A331B7806321374A38D5382236B10
