:020000041805DD
:10E1C80010B5024B01221B68984710BDA4BA000085
:10E1D80010B5024B00221B68984710BDA4BA000076
:10E1E80010B5024B01221B68984710BDA4BA000065
:10E1F80010B5024B00221B68984710BDA4BA000056
:10E20800F8B500262A4D04002E701FF061FE294B38
:10E2180030001A68284B92B219681FF0F5FA274B9C
:10E2280001201A68264B92B219681FF0EDFA254BA7
:10E2380002201A68244B92B219681FF0E5FA287870
:10E2480020F0E8FB2149300020F020FE287800F07B
:10E258008BFA287803F00AFB28781EF031FEB442C6
:10E2680009D01B4B9C4202D01A4B9C4208D11A4B36
:10E2780020001B68984701232B701EF04BFDF8BD4A
:10E2880001231022310015481FF036FA144B0700FD
:10E298009C4205D101230370380000F0A3F9EAE796
:10E2A800104B3200210003201B689847F4E7C04652
:10E2B80020BF0000C8BE0000A0BE0000CCBE000009
:10E2C800A4BE0000D0BE0000A8BE00009CCD071868
:10E2D800A5A5A5A5C3C3C3C3D8BE000003110000EC
:10E2E800F2F2F2F224BF0000F7B51022664B1D6867
:10E2F80015420BD00121654B49421A60644B1960E5
:10E3080064490B6893430B6002F010FC202215420D
:10E318000BD001215D4B49421A605D4B59605D4944
:10E328000B6893430B6002F031FB0124254234D083
:10E33800564B574E1C60738B23422ED068461EF0F6
:10E3480085FD544B009F1A68A2431A6032681C006E
:10E35800531C0AD0974208D1012310225B42336034
:10E3680023689343236002F0E1FB73685A1C0AD0C8
:10E378009F4208D1012320225B42736023689343A4
:10E38800236002F003FBB3685A1C03D09F4201D1FB
:10E398001EF01AFD01201EF09FFE80242402254253
:10E3A80003D002F06DFD394B1C6002231D4249D099
:10E3B800364E08203360384B1F681EF08DFE012052
:10E3C8001EF06AFD354B9F4205D90022344B1100DF
:10E3D80001201B6898473D242D4AF9001369FB1852
:10E3E80067435B18180A3F18DBB2136138002D49E0
:10E3F800FFF7EEFE80232C4A1B06034313609C2381
:10E40800284C9B004443E41BE418A4B2A30A05D09B
:10E418000022234B110001201B6898470821234B39
:10E42800234A1C6013680B4313601A4A2149136876
:10E438000B400121136013688B430B431360316059
:10E4480020F07EFD40231D4203D0104A13601EF0C9
:10E45800BBFC042425420BD00C4B10201C601EF082
:10E468003BFE0C4A01201368A34313601FF0C0FC55
:10E478000822154207D0054B06491A600B689343DA
:10E488000B6002F0FBFAF7BD1C00005020000050A2
:10E4980034BF000018000050380000507F841E0070
:10E4A80024BF0000710200004400005040000050EA
:10E4B80030000050FFFFFF8F70B580256D020B4ABA
:10E4C8001368002B11D02B42FAD0094B094C1D6060
:10E4D800094B032019681A682368120C9847002210
:10E4E8000120110023689847E9E770BD100000502B
:10E4F8001400005024BF00006000005010B5034B0A
:10E508005B8BDB0701D41FF0B7FC10BD34BF0000E4
:10E518000120704701207047F8B507000E0015006C
:10E52800034C20001FF0B2FFA760E6602561F8BD2C
:10E538005CBF0000F0B59C27002685B000900191D3
:10E54800BF00124D009B6A6901369C18019BAA699D
:10E5580024019B182409BB4204D90D4A0134240123
:10E5680024099B186C61AB6102A81EF047FF029B4F
:10E5780001331C1B074B240124099C42E1D968691B
:10E58800A9691EF0CDFD300005B0F0BD5CBF0000EC
:10E5980090FDFFFFFEFFFF0773B56C460E000500F8
:10E5A80020001EF02BFF044B2800143306CC06C3B2
:10E5B8003100FFF7BFFF73BD5CBF0000083810B51E
:10E5C8000100040006481FF0C9FF002807D0A088F2
:10E5D800FF22E1881FF0CCF820001FF0B9F910BD28
:10E5E8005CBF0000F8B506000C3883881D4A9342CA
:10E5F80005D01D4A934223D000F02AFB1FE0037A7E
:10E608003F2B1FD85A1ED2B21849D4080F5D0724D1
:10E618000125224017412A00BA432F420BD03E2B36
:10E6280009D13278013AD3B2DA0889180A7C234032
:10E638001A4195432A00002ADED01FF0A8F8F8BD39
:10E648003E23DFE7582BD7D8403BDBB2074AD9082F
:10E6580052180721127A0B401A41130001229A43DB
:10E66800E9E7C0460311000004110000ACBA00003D
:10E6780070B50C4B04001A78824204D80A4B01008A
:10E688001B6803209847094D2B681B5D002B05D09C
:10E698000022054B110001201B68984701222B68B6
:10E6A8001A5570BDD4BE000024BF0000A8BA0000EF
:10E6B80070B50C4B04001A78824204D80A4B01004A
:10E6C8001B6803209847094D2B68195D002904D160
:10E6D800054B0A0001201B68984700222B681A5531
:10E6E80070BDC046D4BE000024BF0000A8BA000018
:10E6F800030010B504292AD8080020F02DFC0303D4
:10E70800091023000A000320144B1B68984717E0E0
:10E71800082219001248801820F04AFC10E0104C1A
:10E7280019002000082220F043FC002320000D4C93
:10E738000278195D01330A4302700130082BF7D1C2
:10E74800002010BD0648082219001030E4E7002216
:10E75800024B110001201B68D8E7C04624BF000007
:10E76800ACBA0000D4E7051870B502230500040010
:10E778009D4315D1182229000B4820F035FC0B4B7E
:10E7880029001A780A4B186820F02EFC0321094842
:10E79800FFF7AEFF04210848FFF7AAFF01F02CFE9F
:10E7A800200000F0D9FA70BDACBA0000D4BE000059
:10E7B800A8BA0000C4E70518CCE70518FFFFFFFF5B
:10E7C800FF9F00201F000000000000000060040000
:10E7D800F8074002F0B5A54B87B01C68002C09D19A
:10E7E80001F04CFE002800D18BE0A04B9C68002C67
:10E7F80000D186E09D4B1C61A1889D4BC818052857
:10E8080000D92AE120F0BCFB060058007F00D000A8
:10E8180029011101954B5B7D5BB2042B02DC934A05
:10E82800013353750E26E31D0393258902ABF618B1
:10E8380063892800338001F0EDF9021E1FD0338868
:10E84800002B1CD08768002F17D0200092780C303E
:10E858007F2A0DD80100320000971FF0B1FB01009C
:10E86800002910D02A00834B1B68032098470AE030
:10E8780001003200B847C1B2F2E70421F2E7002DE7
:10E8880015D0012323730E23E3713288774B0332AB
:10E89800D2B222725B7D191C5BB2002B00DA002118
:10E8A800A5722D0A6172E5720420023222E0714BD2
:10E8B800290032881B68D8E76C4B5B7D5BB2042B60
:10E8C80002DC6A4A013353750F22E31D0393E27198
:10E8D8000B3A23892272227B6272644A527D111C90
:10E8E80052B2002A00DA002104200622E3721B0A31
:10E8F800A172237300235D490B755F4B039920F0C8
:10E90800F1FA07B0F0BD23000E270A33039302ABD8
:10E918002189FF186389CEB23B80FF2904D9554B62
:10E92800002203201B689847300001F0A5F9021E59
:10E9380033D04568002D19D0200092783B880C30E0
:10E94800002A0ED100953A0001001FF039FB05009E
:10E95800002D0ED0474B3200290003201B68984732
:10E9680008E03A000100A847C5B2F1E76389002B27
:10E9780011D1002562893B889A4205D23D4B32006D
:10E98800290003201B6898470E2302AAA6729B1829
:10E998001B88E37206E00425DCE7364B31000320D0
:10E9A8001B689847E27A7FE723000A33267B0393A4
:10E9B800638902AA3000D38101F070F9021EECD0FD
:10E9C8004568002D2FD02000927802ABDB890C30EF
:10E9D800002A21D102A90E320095521801001FF019
:10E9E800EFFA0500002D05D0224B32002900032044
:10E9F8001B6898470E2702ABFF18398863898B423A
:10EA080004D21C4B320003201B689847002DC9D143
:10EA18003E23A3723B88BCE70E2202A952180100CC
:10EA2800A847C5B2DEE70425DEE7216913480A1FB7
:10EA38000918A389039112491248535412491B0A11
:10EA48005354E38911495354190A1154DAB209028B
:10EA58000A430432022092B24CE7064B00220320FC
:10EA68001B68984700200200039043E7C8BA0000DB
:10EA7800FFEEFFFF24BF000099EA0518FC3F005095
:10EA88000040005003400050014000500240005038
:10EA980070B52D4C2D4B25691B6898472C4BAA88BF
:10EAA8009A4212D12B7B022B04D0022219009143E7
:10EAB8000D2923D1217E002905D1264B0A000120EA
:10EAC8001B68984701E00139217601232375A9883D
:10EAD800214B99421AD8053B99422ED92369002B1C
:10EAE80003D020001FF030FD050028001EF04FFE67
:10EAF8001A4B1B689847FFF76DFE70BD152BE4D1C4
:10EB0800E17D0029D9D00139E175DEE7144B99423E
:10EB180013D1200008301FF017FD124B1A78AB896B
:10EB28001B051B0D9A4203DD2B6998B203F036F8DA
:10EB38000023236101F08CFCD0E7064B0022032060
:10EB48001B689847CAE7C046C8BA0000C0BE0000A4
:10EB58000411000024BF000005110000C4BE00001D
:10EB680006110000D4BE0000F0B587B006000D0005
:10EB78001700039300285AD08468002C4FD083785C
:10EB88007F2B29D80E2202A95218002100940800D0
:10EB9800294B1FF01BFB0400002C38D1B36802225C
:10EBA80018002649029320F0F5F90E2302AA9B18B3
:10EBB8001E88002819D12A002100330020481EF0A1
:10EBC8009BFD0222040007700230039920F0F0F93F
:10EBD8002000FFF707FD20E000230E2202A95218AB
:10EBE80018001900A047C4B2D6E7032215490298B5
:10EBF80020F0D0F933002A00210000281AD110484B
:10EC08001EF07AFD0622040007700130DDE70E4B86
:10EC18002A00210003201B68984707B0F0BD0A00AE
:10EC28000123210009481EF067FD0770D1E70A009B
:10EC3800012301000248F6E7FFFF0000FE8E0618D8
:10EC48000111000021FD051824BF00000211000079
:10EC580070B505003A4B1B689847AB88394A3A4C5F
:10EC6800934205D12000290008301FF025FC50E010
:10EC7800364A934207D12B7B0F2B30D006D8022B74
:10EC880027D00D2B0AD029002000EEE7152BFAD14A
:10EC9800E37D032B3AD80133E375F4E7EB89E97D8B
:10ECA8005B069B0F01290DD1627E022A3AD0002A09
:10ECB80002D1227E032A35D8013B5A425341DAB2A7
:10ECC800002332E0A27EF0E7012300222DE0A276A5
:10ECD8002EE00323227E93429B415B4228E01C4A9C
:10ECE800A97B1068EB7C4218415C022923D00029DB
:10ECF80002D1217E03291ED8013B59424B41137092
:10ED0800237E01332376BEE70023137028001EF00C
:10ED18003EFD104B1B689847237D012B01D1FFF75F
:10ED280059FD70BD012BCFD102220129CFD16276C6
:10ED3800002BE5D0EAE7012BE6D10223E5E7C04640
:10ED4800C0BE000006110000C8BA0000041100008F
:10ED5800C4BA0000C4BE000070B5051E0C4C14D126
:10ED680001001C22200020F03FF90A4B29001A78E4
:10ED7800094B186820F038F920001FF087FB2000A5
:10ED880008301FF083FB012323750523637570BDCD
:10ED9800C8BA0000D4BE0000C4BA000010B500F024
:10EDA80039FFFF23002800D0C378D8B210BD000077
:10EDB800F0B589B005000391029200F02BFF5D4C7D
:10EDC8000700637D7F2B05D900225B4B11000120D2
:10EDD8001B689847594B9D4202D0637D013B637580
:10EDE800002F00D1A2E0637D7F2B00D96DE00F21B9
:10EDF800BB7804931940082946D8080020F0ACF8DD
:10EE080005260526444444444B0000260E2204AB44
:10EE1800D21800239C461380039B634542D07C682C
:10EE2800644555D040216B4604989B89084005905D
:10EE38000498084231D10094029905981FF0C6F948
:10EE48000400012C2FD10023122218E0039B012B70
:10EE580013D9029B029A5B7812781B021343384A33
:10EE680012789A4209DD374A1268D25C002A04D027
:10EE780001221B0213439EB2C8E70222029B29000B
:10EE88003800FFF771FE04E02B4B2A0003201B68B3
:10EE9800984709B0F0BD0226B8E760460299A04736
:10EEA800C4B2CEE7039C04AB31002A00DB892648B4
:10EEB8001EF022FC0600002C05D01F4B2A00210062
:10EEC80003201B689847002E04D100230722D6E7A9
:10EED8000424E8E704ABDB89002B12D07B689C464E
:10EEE800002B0ED06B46BA789B89520615D4624621
:10EEF80000920E2204A95218300002991FF066F9F8
:10EF08000400002C05D00C4B2A00210003201B68AC
:10EF1800984730001EF014FCBBE70E2204A9644693
:10EF2800521830000299A047C4B2EAE73B00012218
:10EF3800A5E7C046C8BA000024BF0000350C000091
:10EF4800D4BE0000A8BA00000511000070B5134A2D
:10EF58000C00117802050300120D002091420BDD10
:10EF68009B0B834208D11800FB2C05D802F05AFEEF
:10EF7800011E02D00A4BC01870BD01231A2209488D
:10EF88001EF0BAFB01250570FFF72CFB29002000B5
:10EF98001EF054FC044B9D75EEE7C046D4BE00003D
:10EFA8000040005003110000C8BA0000F8B5174B24
:10EFB80006009C7D0D001700002C06D010001EF0E6
:10EFC800C7FC0023114A9375F8BD114B01051B7846
:10EFD800090D8B4212DD01230902194322000D4855
:10EFE80089B207331EF088FB06804580002D01D0CA
:10EFF800094BFC1844601EF0A3FBE5E7074B020031
:10F00800290003201B689847DEE7C046C8BA0000FD
:10F01800D4BE00000611000000C0FFAF24BF0000EE
:10F02800F8B50D0006A90E780168070088190124B3
:10F03800824211D31C1E09D02A6828689419A34259
:10F04800A4413200644264001FF0B2FF3B689B1980
:10F058003B602B689E192E602000F8BDF0B589B082
:10F068000500029103920691002940D0CE18012391
:10F0780017880790C719009332003B0007A906A814
:10F08800FFF7CEFF0400031E26D0079B5D1B039BE2
:10F098001D80200009B0F0BD013305935B00049387
:10F0A800EB18079302233200009307A93B0006A838
:10F0B800FFF7B6FF002818D1049A07A90232AB1847
:10F0C800079302233200009306A83B00FFF7A8FF2E
:10F0D80000280AD16B461B7D0299079A0978521BB2
:10F0E8009942D2D9062AD7D9CFE70400CDE706231B
:10F0F800039A029C1380CCE7F0B599B01D000290EA
:10F108003A23081E0592079160D0029B002B61D01C
:10F1180001271488029B1C190126029B4519089394
:10F128002A002300009608A907A8FFF779FF0028FE
:10F1380049D1029B2A009B1908930096230008A92D
:10F1480007A8FFF76DFF00283DD1029B2A00023374
:10F1580008930096230008A907A8FFF761FF002875
:10F1680031D1029B2A0003330893062308A9009390
:10F1780007A82300FFF754FF002824D1029B2A0088
:10F18800093308930096230008A907A8FFF748FF4A
:10F19800002818D1029B597A0390002921D1039B9A
:10F1A800032B04D9434B0A0001201B6898477F4270
:10F1B80000233C400227029E04931836039B049ABE
:10F1C800934216DC0020089B029A9B1A059A13802A
:10F1D80019B0F0BD4E2404ABE41809AB029F0293AA
:10F1E8009AE7314203D0039B0133DBB2039349080A
:10F1F800D3E733000E3B08932A002300009708A9A1
:10F2080007A8FFF70DFF0028DDD133000C3B08935A
:10F218002A002300009708A907A8FFF701FF002884
:10F22800D1D133000A3B08932A002300009708A98C
:10F2380007A8FFF7F5FE0028C5D13300083B08935F
:10F248002A002300009708A907A8FFF7E9FE00286D
:10F25800B9D1B31F08932A002300009708A907A86B
:10F26800FFF7DEFE0028AED1331F08932A002300E3
:10F27800009708A907A8FFF7D3FE0028A3D1B31E5B
:10F2880008932A002300009708A907A8FFF7C8FEDB
:10F29800002898D123002A00009708A907A80896F3
:10F2A800FFF7BEFE1036002800D08CE7049B013320
:10F2B800049383E724BF0000F0B58DB007000392E4
:10F2C8000691002900D176E0002843D01588012254
:10F2D800451904920126CB180293029A2B00009636
:10F2E80007A906A80797FFF79BFE041E2BD1BB1999
:10F2F8000793029A2B00009607A906A8FFF790FE2D
:10F30800041E20D1BB1C0793029A2B00009607A964
:10F3180006A8FFF785FE041E15D1B97800291DD16E
:10F32800022C04D9264B0A0001201B6898470620A6
:10F338003E006043049B5B421D40C3190593059B37
:10F34800B34211D10024079BD81B039B18802000CF
:10F358000DB0F0BD04900CAD08AFBBE7314201D051
:10F368000134E4B24908D9E7331D07930123029A0F
:10F37800009307A92B0006A8FFF752FE041EE2D14E
:10F38800B31D049307930223029A009307A92B0045
:10F3980006A8FFF745FE041ED5D10223029A009362
:10F3A80008362B0007A906A80796FFF739FE041EA2
:10F3B800C9D1049EC3E71023039A0C001380C6E743
:10F3C80024BF0000F0B58BB007000C1E0492069114
:10F3D80066D0002832D015880122451905920126E9
:10F3E800E3180393039A2B00009607A906A807972A
:10F3F800FFF716FE041E1AD1BB190793039A2B00B8
:10F40800009607A906A8FFF70BFE041E0FD17B780C
:10F418003F2B05D9244B020001001B683000984798
:10F42800059B5E42354000267B78B3420AD8079B8D
:10F43800D81B049B188020000BB0F0BD05900AADC6
:10F4480008AFCCE7B31C0593FB1807930123039A75
:10F45800009307A92B0006A8FFF7E2FD00281DD19D
:10F46800059A07A953000222FB18079300922B0064
:10F47800039A06A8FFF7D4FD00280FD1B31DFB1887
:10F4880007930123039A009307A92B0006A8FFF707
:10F49800C7FD002802D10136F6B2C5E70400C6E769
:10F4A8000823049A1380C6E724BF0000F0B5B7B05C
:10F4B80007001D000392002900D1C7E0002800D1F1
:10F4C800A2E01688861901234D1900932A003300FB
:10F4D80008A907A808970797FFF7A2FD041E00D000
:10F4E8008BE0BB1C079302232A00009308A9330072
:10F4F80007A8FFF795FD041E00D07EE03B1D07938B
:10F5080001232A00009308A9330007A8FFF788FD04
:10F51800041E72D17B1D079301232A00009308A9BA
:10F52800330007A8FFF77CFD041E66D1BB1D0793B7
:10F5380002232A00009308A9330007A8FFF770FDEB
:10F54800041E5AD13B000833079301232A00009375
:10F5580008A9330007A8FFF763FD041E4DD13B003F
:10F568000933079301232A00009308A9330007A849
:10F57800FFF756FD041E40D13B000A3307930123D1
:10F588002A00009308A9330007A8FFF749FD041EC5
:10F5980033D13B000B33079301232A00009308A9BA
:10F5A800330007A8FFF73CFD041E26D13B000C33AF
:10F5B800079302232A00009308A9330007A8FFF73E
:10F5C8002FFD041E19D1BB7B2A0004933B000E3388
:10F5D8000793012308A9009307A83300FFF720FD2C
:10F5E800041E0AD1049B02975B00DB1905930123D3
:10F5F8000493059B029A934209D1089BD81B039B4D
:10F608001880200037B0F0BD36AE09AF5BE7029B2B
:10F618002A000F330793049B08A9009307A8330017
:10F62800FFF7FEFC00280FD1029B2A001033079336
:10F63800049B08A9009307A83300FFF7F1FC029B7D
:10F64800023302930028D4D00400D6E7039B0C00B1
:10F658001980D6E7F0B5B7B007001D00049200295D
:10F6680000D1B8E0002800D193E01688861901235C
:10F678004D1900932A00330008A907A8089707978F
:10F68800FFF7CEFC041E00D07CE0BB1C07930223CE
:10F698002A00009308A9330007A8FFF7C1FC041E3D
:10F6A80070D13B1D079301232A00009308A933005A
:10F6B80007A8FFF7B5FC041E64D1BB1D07930223FE
:10F6C8002A00009308A9330007A8FFF7A9FC041E25
:10F6D80058D13B000833079301232A00009308A957
:10F6E800330007A8FFF79CFC041E4BD13B000933ED
:10F6F800079301232A00009308A9330007A8FFF7FE
:10F708008FFC041E3ED13B000A33079301232A00D5
:10F71800009308A9330007A8FFF782FC041E31D123
:10F728003B000B33079301232A00009308A93300F9
:10F7380007A8FFF775FC041E24D13B000C33079380
:10F7480002232A00009308A9330007A8FFF768FCE2
:10F75800041E17D1BB7B2A0005933B000E33079389
:10F76800012308A9009307A83300FFF759FC041EDA
:10F7780008D1059B03975B00DB190593059B039A4A
:10F78800934209D1089BD81B049B1880200037B0EE
:10F79800F0BD36AE09AF6AE7039B2A000F33079323
:10F7A800012308A9009307A83300FFF739FC0028B4
:10F7B8000FD10123039A009310323300079208A94E
:10F7C8002A0007A8FFF72CFC039B023303930028A9
:10F7D800D4D00400D6E7049B0C001980D6E7F0B516
:10F7E800C9B00C001D0002900592002900D1E2E08A
:10F7F80000282ED016888619029B65190793069350
:10F8080001232A00009307A9330006A8FFF708FC84
:10F81800041E16D1029B2A0001330693012307A96F
:10F82800009306A83300FFF7FBFB041E09D1012350
:10F83800029F049019370393029B049A5B789342C2
:10F848000BDC079B029A981A059B1880200049B088
:10F85800F0BD08AB48AE0293CEE73B00173B0693DA
:10F8680002232A00009307A9330006A8FFF7D8FB54
:10F87800002800D09DE03B00039A153B06930092B8
:10F8880033002A0007A906A8FFF7CAFB002800D002
:10F898008FE03B00143B069306232A00009307A938
:10F8A800330006A8FFF7BCFB002800D081E03B002E
:10F8B800039A0E3B0693009233002A0007A906A874
:10F8C800FFF7AEFB002874D13B00039A0D3B06936B
:10F8D800009233002A0007A906A8FFF7A1FB002819
:10F8E80067D13B00039A0C3B0693009233002A0031
:10F8F80007A906A8FFF794FB00285AD13B00039AF2
:10F908000B3B0693009233002A0007A906A8FFF7CD
:10F9180087FB00284DD13B00039A0A3B06930092CF
:10F9280033002A0007A906A8FFF77AFB002840D170
:10F938003B00093B069302232A00009307A93300E2
:10F9480006A8FFF76DFB002833D1FB1F0693039B26
:10F958002A00009307A9330006A8FFF761FB0028D7
:10F9680027D1BB1F069306232A00009307A933005B
:10F9780006A8FFF755FB00281BD1039B2A0000931C
:10F9880007A9330006A80697FFF74AFB002810D1FD
:10F998003B787A1C069200932A00330007A906A830
:10F9A800FFF73EFBFE37002803D1049B0133049385
:10F9B80042E7040045E7059B198047E7F0B58FB09B
:10F9C80007000C001D000592002900D188E00028DE
:10F9D8002BD0168886190123651900932A00330055
:10F9E80008A907A808970797FFF71AFB041E15D15F
:10F9F8007B1C079301232A00009308A9330007A85A
:10FA0800FFF70EFB041E09D13B00113302930123BB
:10FA1800049003937B78049A93420BDC089BD81BD1
:10FA2800059B188020000FB0F0BD262604ABF61801
:10FA380009AFD0E7029B2A000F3B0793039B08A955
:10FA4800009307A83300FFF7EBFA002846D1029B82
:10FA58002A000E3B0793039B08A9009307A83300CD
:10FA6800FFF7DEFA002839D1029B2A000D3B0793E5
:10FA7800062308A9009307A83300FFF7D1FA002846
:10FA88002CD1029A08A9D31F039A07930092330036
:10FA98002A0007A8FFF7C4FA00281FD1029A08A96C
:10FAA800931F079306232A00009307A83300FFF744
:10FAB800B7FA002812D1029B2A000793039B08A9D2
:10FAC800009307A83300FFF7ABFA029B10330293A9
:10FAD800002803D1049B013304939BE704009DE7AE
:10FAE800059B19809EE7F0B595B007000C001D0036
:10FAF8000592002900D189E000282BD016888619A4
:10FB08000123651900932A00330008A907A808975C
:10FB18000797FFF785FA041E15D17B1C079301236D
:10FB28002A00009308A9330007A8FFF779FA041EF2
:10FB380009D13B000A3302930123049003937B7895
:10FB4800049A93420BDC089BD81B059B1880200065
:10FB580015B0F0BD3F2604ABF61809AFD0E7029BFD
:10FB68002A00083B0793039B08A9009307A83300C2
:10FB7800FFF756FA002847D1029B2A00073B079354
:10FB8800039B08A9009307A83300FFF749FA002848
:10FB98003AD1029B2A00063B0793062308A9009343
:10FBA80007A83300FFF73CFA00282DD1029B2A0052
:10FBB8000793039B08A9009307A83300FFF730FABF
:10FBC800002821D1029B029A1B78013207920093E8
:10FBD8002A00330008A907A8FFF722FA002813D142
:10FBE800029B2A0020330793039B08A9009307A8C8
:10FBF8003300FFF715FA029B29330293002803D13B
:10FC0800049B013304939AE704009CE7059B198041
:10FC18009DE700008205920D830A012B19D0032B62
:10FC280019D0042B19D0052B19D0082B19D0002076
:10FC38003F2B0DD13A3B0F49DB00CB185868598848
:10FC4800002805D00C234B43C31898420BD1002041
:10FC580070470023EFE70123EDE70223EBE70323D7
:10FC6800E9E70423E7E701888905890D9142EFD088
:10FC78000C30EAE7C4FD0518002310B50200064859
:10FC8800D9000C5C944201D1401810BD0133092BF6
:10FC9800F6D10020F9E7C046F80206180200002352
:10FCA80010B50549DC0060180C5D944203D001339F
:10FCB800182BF7D1002010BD4003061842424842D5
:10FCC8004236424848484200424248484848004272
:10FCD800424838420042483842480042424842427C
:10FCE800364236423642484848420042423634425A
:10FCF80000424233324200424248424200424248B5
:10FD080042423642424842004248424242426E42E1
:10FD18000042424248420042424236420042424881
:10FD280048484242364242484200424848484C000D
:10FD380042483342334242424236424242424242BF
:10FD48004242004238420048484242423642424219
:10FD58000042333142004248484242004848424249
:10FD680036424248484848484800424835420048D8
:10FD78003842483136420042364231364231364204
:10FD880000484242424800424848480042424848E7
:10FD9800004242423642484842004236424200420D
:10FDA80042424242426E420048424848420036348B
:10FDB8004242004242484248480000000100020016
:10FDC8009802061803000900F4FD05180400040051
:10FDD80060FE051805000100B0020618080056006C
:10FDE80090FE05183F000500BC020618010C00082B
:10FDF8004CFD05185CFD0518030C00000000000010
:10FE08005CFD05182D0C11030DFD05180CFD0518DA
:10FE1800310C00015CFD05185CFD0518330C00076A
:10FE2800BDFD05185CFD0518350C401E65F005186C
:10FE38005CFD05187B0C1102FF8E061895FD051850
:10FE48007C0C110496FD0518FE8E0618630C00083C
:10FE58004CFD05185CFD05180110000000000000AD
:10FE6800BBFD05180210000000000000F4FC051896
:10FE780003100000000000004BFD051809100000E9
:10FE88000000000021FD05183920422ACDF305188D
:10FE98005CFD05183620021938FD0518B8FD05184F
:10FEA800372002FFAAFD05185CFD0518012002088D
:10FEB8004CFD05185CFD051802200200000000003A
:10FEC8000CFD051803200200000000004BFD05187A
:10FED8000520020686FD05185CFD051807200200AE
:10FEE80000000000B8FD05180620020F4FFD051898
:10FEF8005CFD05180820022059FD05185CFD051851
:10FF08000920022059FD05185CFD05180A20020188
:10FF18005CFD05185CFD05180B2002075EFD051841
:10FF28005CFD05180C200202B8FD05185CFD0518DB
:10FF38000D20021964FD0518000000000E200200C3
:10FF4800000000005CFD05180F2002000000000002
:10FF5800B8FD051810200200000000005CFD05181F
:10FF68001120020721FD05185CFD05181220020763
:10FF780021FD05185CFD05181320130E168F0618B1
:10FF8800000000001420020574FD05185CFD05182A
:10FF980015201302FF8E061872FD0518162013028D
:10FFA800FF8E0618000000001720022082FD0518A9
:10FFB80084FD051818200200000000004BFD0518FC
:10FFC8001920131C77FD0518000000001A201312D1
:10FFD8007AFD0518FE8E06181B201302FF8E0618E0
:10FFE800FE8E06181C200200000000004BFD0518BC
:08FFF8001D2002015CFD05184B
:020000041806DC
:100000005CFD05181E20020355FD05185CFD051852
:100010001F20020000000000FE8E06182020130E94
:10002000168F0618FE8E0618212013030DFD0518E5
:10003000FE8E06182220130690FD0518FE8E061867
:10004000232002000000000095FD05182420020472
:1000500096FD05185CFD0518252002000000000033
:100060000000000026200240F5FC051800000000FA
:10007000272002277FFD05185CFD051828200207B0
:1000800021FD05185CFD0518292002000000000074
:100090005CFD05182A20020000000000B8FD0518CC
:1000A0002B20020721FD051821FD05182C20020731
:1000B00021FD051821FD05182D2002015CFD051804
:1000C0005CFD05182E200202FF8E06185CFD051847
:1000D0002F20020000000000D1FC05183020130280
:1000E000FF8E061800FD05183120020355FD051886
:1000F0005CFD05183220130789FD0518000000007B
:100100003320020355FD05185CFD05183420020458
:1001100046FD05185CFD05183520020721FD051870
:100120005CFD0518382002FFAAFD05185CFD0518C6
:100130003A20020000000000FE8E06183B2002005C
:1001400000000000B8FD05183C2002015CFD051808
:100150005CFD05183D200200000000005CFD051854
:100160003E2002078FFD05185CFD05183F2002FFA9
:10017000ABFD05185CFD051840200202B8FD05180E
:100180005CFD05184120420DC1F205185CFD051803
:100190004220020694FD05185CFD05184320423AF2
:1001A00001F10518000000004420020E99FD051819
:1001B0000000000045200200000000005CFD051862
:1001C00046200202FF8E06185CFD05184720020833
:1001D000A2FD05185CFD051848200208A2FD0518BF
:1001E0005CFD051849200200000000005CFD0518B8
:1001F0004A20020000000000B8FD05184B20020054
:100200000000000055FD05184C2002000000000011
:1002100095FD05184D20020496FD05185CFD051896
:100220004E200208A2FD05185CFD05184F20025261
:10023000A7FD05185CFD051850200252A7FD051802
:100240005CFD0518592002030DFD05185CFD05181D
:100250005A20130690FD0518FE8E06185B20130524
:100260009EFD0518FE8E06185C200308B0FD0518DB
:10027000FE8E06185D2002069DFD05185CFD051822
:100280005E200241B6FD0518000000005F2002015B
:100290005CFD05185CFD0518060411030DFD05182D
:1002A000000000001D041102FF8E0618000000006F
:1002B00005141102FF8E06180CFD051811FC08012B
:1002C0005CFD05185CFD051812FC0800000000002C
:1002D00032FD051813FC130496FD0518FE8E061852
:1002E00014FC13059EFD0518FE8E061815FC13065A
:1002F00090FD0518FE8E0618050100000CFD05187E
:10030000080100000CFD05180C010000BCFD0518DB
:10031000100000005CFD051811010000FF8E06189A
:100320001302000095FD05181A0000005CFD051879
:1003300030010000FE8E061857010000FF8E0618DF
:1003400001000000C4FC051802000100EFFA0518C6
:1003500003010000D0FC051804010000D7FC0518BB
:1003600005010000DDFC051806010000F58E0618E9
:1003700007010000F58E06180A000000E3FC0518CE
:1003800008000000F3FC051809000000F9FC05183E
:100390000B000100C5F905180C010000FFFC051851
:1003A0000D000100E7F705180E00000005FD051817
:1003B0000F00000010FD051810000000FE8E06184A
:1003C000110000005CFD05181200000019FD051861
:1003D000130000001FFD0518140100000CFD051896
:1003E000150001005DF6051816010100B5F40518A9
:1003F000170100008BFD05181800000025FD0518E9
:1004000010B50822002102481EF0F2FD10BDC046C2
:10041000E4BA00001123FA2802D9024B59800023C4
:1004200018007047E4BA0000084B094A1B681278AC
:10043000D2189A4203D1074B1870002005E001330F
:10044000591E09780029F4D00C207047A8BA000082
:10045000D4BE0000E4BA0000034B1A78002A02D090
:10046000DA880132DA807047E4BA0000044A0021D9
:10047000D388834201D91B1A99B2D1807047C046F4
:10048000E4BA0000064A1378002B07D05388D288BC
:100490000020934201D99B1A98B270470148FCE7AB
:1004A000E4BA0000FFFF0000F7B50F004A688021A2
:1004B000436806008068D51A0090B8682D012D09A0
:1004C000090501908D4227D99B1A1B011B095D422A
:1004D000002B03D1019B009A93421FD8019B3F69D7
:1004E0000524D819009BC01A002834DD1B490138A7
:1004F000FDF76AFEE8422ED4009B3069013C1818D3
:10050000019BC01AC01B002825DC1549FDF75CFEC5
:100510004419E40F03341EE0002DDBD00024009BBF
:1005200036699E19019BF61AA64214DD0C49701E0D
:10053000FDF74AFE4019A0420DDC38690134301A3B
:10054000002808DD06490138FDF73EFE45196C1EFE
:100550002C43E40F01342000FEBDC04671020000B0
:100560008FFDFFFF37B568461CF074FC019B9C2093
:1005700019009131FF31009A8000814204D9E13B9A
:1005800019000132120112090F4B1B68002B12D007
:100590000E485C6800780E4D201A000100099C6826
:1005A000831A1B011B09AB420BD8904201D1A14217
:1005B00004D2210002E00120190040421CF022FE7A
:1005C00037BD1000FAE7C046ECBA0000E8BE0000F4
:1005D000FEFFFF07394BF0B5DD68002385B00390BF
:1005E0000093002D07D1354BDB68002B01D01CF0A8
:1005F000C3FE05B0F0BDAA8A2B680293930B5AD0B4
:100600003F233F2011110B40014254D00024A97D0B
:10061000303810400918A9752949013B1B010A40CF
:1006200013439BB2AB82039E9B0B0193002E0DD113
:10063000224E2A00300000990C301DF0CBFF2A001A
:10064000210030001EF01EF8009D34E0310028002B
:10065000FFF72AFF0028EBD0052802D134003668C6
:10066000E4E7B368326917499F183800FDF7B4FD15
:1006700073681449C4183800FDF7BEFDAB688B429F
:100680008941494264182401019B24096C60012BB3
:10069000E4D98023E8681B05071B3F013F099F42FF
:1006A00003D9271A3F013F097F4206492869FDF710
:1006B00093FDB842D2DD0095029D92E7ECBA0000AE
:1006C0000FFCFFFF71020000013810B5012809D8A6
:1006D000054C20001DF0DEFE20000C301DF0DAFE7F
:1006E0000023A36010BDC046ECBA0000F0B5854BF6
:1006F00001690400CA18844B87B09A4204D9834B1D
:10070000002203201B6898479C23A2689B009A4202
:1007100005D900227D4B110001201B6898477C4BB6
:100720001B68984704A81CF095FB7A4B049A1B7829
:1007300005999B18FA2292001B018918793A1B0926
:10074000FF3A914215D86568734EEA1A1201A08AE1
:100750001209B24204D89D4219D1A2688A4216D227
:10076000820B0CD101256D4B1B689847280007B000
:10077000F0BD644801331B0109181B09E1E7A268B9
:1007800063608A4203D201331B011B096360800B43
:10079000012812D98020E16863680005CA1A120195
:1007A0001509854203D95B1A1B011B095D425C498F
:1007B0002069FDF711FDA842D4DC5A4B9D68002D3D
:1007C00000D11D680026029601960396002D6FD079
:1007D000A54205D100224D4B110001201B6898470E
:1007E00029002000FFF760FE002861D0052813D003
:1007F000A17DAA7D914230D94A4B9B68AB422CD057
:10080000019B002B00D10195022398430136C0B211
:10081000F6B2029501284BD0A38A9B0B012B13D96A
:100820008021E26863680905D71A3F013F098F42BA
:1008300003D99F1A3F013F097F4239492069FDF7DB
:10084000CBFCB84200DD8DE7364B9A68AA424FD008
:10085000002E00D103952D68B8E7A38A9B0B18D012
:10086000AB682A692E499F183800FDF7B5FC6B6804
:100870002B49C6183800FDF7BFFCA3688B4289419D
:1008800049427618360136096660002602960196BE
:10089000C2E7914200D865E7224B9B68AB4200D08B
:1008A00060E7C31EDBB2012B00D95BE70328B3D19D
:1008B000019B1C4D002B0AD02800029A03991DF0C1
:1008C000BFFE2800029A01990C301DF00FFE039B19
:1008D000002B0FD02200190028001DF0D3FE0025A8
:1008E000019BAB4200D13EE72000FFF773FE3AE7E1
:1008F0001D686BE7210028001DF018FEFFF732FE8F
:10090000EDE7C0468FFDFFFF0F18060024BF000073
:10091000C0BE0000E8BE0000FEFFFF07C4BE00002E
:1009200071020000ECBA0000174B70B51B6806009E
:100930000C009847002E05D10024144B1B689847E3
:10094000200070BD124DAB68B34202D10024AC60F0
:10095000F3E7002CF0D12B689E4205D128001DF052
:10096000F7FDFFF7FFFDE8E7310028001DF0FAFD75
:100970000028E1D1280031000C301DF0F3FD0028E3
:10098000DAD10224D9E7C046C0BE0000C4BE0000D0
:10099000ECBA0000F0B5374E85B0346802A81CF000
:1009A00059FA002C06D1F368002B5FD1FFF7DAFD6E
:1009B00005B0F0BD0625039B626801932E4B029F94
:1009C0001B78ED1BD31A5A192C49120112098A42BD
:1009D00008D806331B011B09BB4227D1A368019A23
:1009E000934223D230001DF0B3FD010030000C30E3
:1009F0001DF066FD3468002CD5D01F4B62681B7853
:100A0000D31A5D191D4A2D012D09954208D80633C8
:100A10001B011B09BB4209D1A368019A934205D26D
:100A20000022174B110001201B689847124B626887
:100A30001B781249D31AFA43D218120112098A42BA
:100A400008D8013B1B011B09BB42ACD1A368019A2A
:100A50009342A8D830001DF07BFD8369B060002B65
:100A600000D098473468002CE0D19CE71CF084FC4F
:100A70009CE7C046ECBA0000E8BE0000FEFFFF079E
:100A800024BF000070B50F4E30000C301DF01CFE6E
:100A9000C4B263B2002B00DC70BD30000C301DF01E
:100AA00057FD051E05D1084B020001001B680120FF
:100AB00098472B6A002B01D028009847013CE4B2EC
:100AC000E7E7C046ECBA000024BF0000124B13B5A4
:100AD0001C68002C1CD068461CF0BCF99C22019BB1
:100AE000C8219200D21A0023490091425B41009A2A
:100AF00001339B181B0162681B09D21A07491201B6
:100B000012098A4200D9636060681CF053FB13BD70
:100B100001204042F9E7C04600BB0000FEFFFF078E
:100B2000013810B5012802D801481DF0B3FC10BDF2
:100B300000BB000013B568461CF08CF90E48046831
:100B4000002C17D06268009B9B1A0C4A1B011B09E2
:100B500093420DD81DF0FCFCA168002902D02000B2
:100B60008847E8E7064B0A0001201B689847E2E740
:100B7000FFF7ACFF13BDC04600BB0000FEFFFF0740
:100B800024BF000073B51D4B04001B6898476846DE
:100B90001CF060F99C22019BFA219200D21A0023DA
:100BA000490091425B41009A01339B181B01626826
:100BB0001B09D21A124D12011209AA4200D9636010
:100BC000002110480268002A08D1002910D0220014
:100BD0001DF058FD0C4B1B68984773BD5368666841
:100BE0009B1B1B011B09AB42EFD911001268EAE7FE
:100BF00021001DF09BFCFFF769FFEBE7C0BE000082
:100C0000FEFFFF0700BB0000C4BE000070B5144D1E
:100C100004002B00FF335A78824204D0114B0100AC
:100C20001B68032098472B00FF33D978002904D193
:100C30000C4B0A0001201B68984724012B19197BD3
:100C4000002904D1074B0A0001201B689847291985
:100C50004B68002B03D0022289682859984770BD41
:100C600008BB000024BF000070B5144D04002B0029
:100C7000FF335A78824204D0114B01001B680320D5
:100C800098472B00FF33D978002904D10C4B0A0078
:100C900001201B68984724012B19197B002904D1D6
:100CA000074B0A0001201B68984729194B68002B45
:100CB00003D0032289682859984770BD08BB0000FB
:100CC00024BF0000F8B5284C05002300FF33D97875
:100CD000002904D1254B0A0001201B6898472E01EA
:100CE000A7193B7B002B31D0214BE81800011BF0EA
:100CF00095FF8006400F062828D17B68002B1ED068
:100D00000422B968A05998472300FF335A78AA42B1
:100D100003D10F20013505405D7000232200A61984
:100D2000FF323373D378013BD370FF34E378012B68
:100D300013D10F22637801331340A370F8BD0B4A1F
:100D40001900176801201A00B847DDE70022074B99
:100D5000110001201B689847E7E7002BEED18020A7
:100D600080001CF0BDF9E9E708BB000024BF0000CB
:100D700000040005F8B5304E04003300FF335A7804
:100D8000824204D02D4B01001B68032098472C4B56
:100D9000E01800011BF042FF3300FF33D9788506CD
:100DA0006D0F002904D1254B0A0001201B689847CC
:100DB0002701F3191B7B002B05D1204B22002900B2
:100DC00003201B689847EB1E022B05D900221B4B02
:100DD000110001201B689847F1194B68002B23D0A4
:100DE000043D6A426A418968F059D2B298470023AB
:100DF00032000F25F719FF323B73D3789178013B0E
:100E0000DBB2D370A14206D001342C402201B218CB
:100E1000127B002AF6D0FF367470002B03D180209D
:100E200080001CF05DF9F8BD044A19001568012026
:100E30001A00A847DBE7C04608BB000024BF00003B
:100E400000040005013870B5012816D8822200215F
:100E50000A4852001EF0CCF838261825084C20000D
:100E60001BF0DCFE0100B1432943200089B21BF0D6
:100E7000E7FE044B10349C42F1D170BD08BB00006A
:100E800000400050004100500C4B70B51C6825011B
:100E90002D0F230702D52800FFF7E6FEE30602D553
:100EA0002800FFF7B3FE630702D5200FFFF70AFF04
:100EB000A30702D52800FFF75DFF70BD2400005096
:100EC000F0B5A94E85B03300FF339A780400009244
:100ED0005A780099881A0F2108400290DB78002B7D
:100EE00008D0009B9A4205D1A04B009A0320110024
:100EF0001B6898470F20009B6268013B03400193E9
:100F00001B01F3589A4205D10022984B11001B682F
:100F10000E389847009B964A07279D182D012800F8
:100F20001BF07CFEC0103840012800D0FAE03300EE
:100F3000FF3359788D4B03201B68009A9847029B1A
:100F40000D2B1BD9894B1B680393009B981E0F2305
:100F50001840874BC01800011BF060FE844A019BBB
:100F600094466344070018011BF058FE0721C21085
:100F7000FF100A400220039B394098470127009B3D
:100F800061681B01F150F618236989B2B3602368C8
:100F9000377373609C26A81C1BF052FE6368281DE3
:100FA0001901090D1BF04CFEA368B600B34205D928
:100FB00000226E4B110038001B689847A368F61A90
:100FC000B6B2B30A05D00022684B110001201B689D
:100FD0009847A81D31001BF033FE2F008023E068E6
:100FE0000A371B02984200D2A5E0624B1900C018D4
:100FF000FDF7F2F80600030405D500225B4B110053
:1010000001201B6898475C49314389B238001BF0C6
:1010100017FEA37D1A1C1F2B00D91F22617DD2B29F
:1010200012020B1C1F2900D91F232800D9B211431B
:101030000C301BF005FEE17D504F0B0201933B424B
:1010400005D00022494B110001201B6898472E0053
:101050000E3630001BF0E2FD019B07401F433000BD
:10106000B9B21BF0EDFD637E002B3BD1702128004F
:101070000D26237E083059435131FF3189081BF07A
:10108000DFFD029B3E489E42B6417642B302019389
:10109000237F227DA67E002B51D0E77E141C1F2AC1
:1010A00000D91F24E4B23602E402064205D0002231
:1010B0002E4B110001201B689847FF0180233A0046
:1010C0009A4305D00022294B110001201B68984744
:1010D0004221019B33431C4327433943280089B2F3
:1010E0001BF0AEFD0F23009A9A4305D000221F4B40
:1010F000110001201B68984780230F218020009A4F
:101100001B0613431F4A80001360174BFF339A7866
:1011100001320A409A70DA780132DA701BF0C0FEB0
:1011200005B0F0BD28001BF079FDC0100740022F6C
:1011300000D004E7FBE60130400881B266E7141CEA
:101140001F2A00D91F24E4B23602E402064205D069
:101150000022064B110001201B6898470221019BC9
:1011600033431C432143B9E708BB000024BF000000
:1011700000040005710200000080FFFFFFE0FFFF98
:10118000FFFEFFFF00010050F0B593B01C0002907D
:101190000E910492002809D1002A75D10022B74B84
:1011A000110001201B68984701236BE0002CF5D04B
:1011B00063680393A3890D930023802510A80B93E4
:1011C0001BF048FE109B2D051D402B005A1E93411D
:1011D000DBB20193039B002B05D1A84B039A01209E
:1011E00011001B6898470022A54B1A60A54B1B787D
:1011F000934258D1A34B019A1A70029B012B6AD1DA
:1012000023680593059B002BCED0039B002BCBD0EE
:101210000B9B0193029B012B01D1A36801939A4B75
:101220001E68002337000A930993039B013B0F9329
:10123000002F00D1C0E0019B059A93421BD2029B74
:10124000002B4BD10E9B002B48D03B697D68069349
:10125000002D51D0069B002B4ED0BB8A0D9A934295
:101260004AD0059B2C009D4200D91C00069B039A86
:101270009B18A34234D90A9B002B02D0804B099AB9
:101280001A6003230293B6E0049B9B6803930E9BB2
:10129000002B02D0049BDB680393049B1B8A0D93F5
:1012A000049BDB7C89E7002DA4D18026764B760554
:1012B0001D68002D9ED06F68AB683900FB183000A8
:1012C0000593FCF799FF059B581A3900FCF794FF2A
:1012D000A9602D68EDE7049B5B6992E7FB68B5E7C1
:1012E00021000598FCF788FF002905D1210028007E
:1012F000FCF782FF002902D03F68019932E021000B
:10130000B868FCF779FF069B0D005B180C93210071
:10131000013B01980893FCF76FFF8C460F9B0691E9
:10132000634407938D4200D9B0E0089B8B4207D2FB
:10133000079B9D4218D8089B079A934200D298E0D9
:10134000029B012B32D021000C98FCF755FF019B2A
:101350008B4224D201230B9A0B40002A21D0002B70
:1013600022D03700019163E7069B9D4203D1089B81
:10137000079A9342E4D9089B9C4206D818002100A2
:10138000FCF73AFF069B9942DAD2079B9C42B3D8FE
:1013900021001800FCF730FFA942ADD3D0E70919AE
:1013A000D5E73700002BDDD00131DAE701230997BB
:1013B000059937000A93D5E70A9B002B02D0304BE2
:1013C000099A1A60019B059A934200D359E7029B40
:1013D000002B4CD1049B019A5F699A611B8A06938A
:1013E0007B1E9B180593002E08D139000598FCF749
:1013F00003FF049BD961029813B0F0BDB38A069A2B
:10140000934217D07568BD4200D93D00002D05D12B
:101410001A4B2A00290001201B6898472900380030
:10142000FCF7EAFE002905D129007068FCF7E4FE0C
:10143000002901D03668D6E72900B068FCF7DCFE49
:101440000C00019BA34210D2039A9B189C4205D228
:1014500000220A4B110001201B689847039BE41AE5
:10146000059BA342E6D90594E4E76419E9E7002364
:1014700008E7069B9D4200D27DE761E724BF00009C
:101480000CBC000018BC000010BC0000079B9D4273
:1014900000D855E76BE7C046013810B5012805D8DC
:1014A0000022034B03481A701CF0F4FF10BDC04625
:1014B00018BC000010BC00001FB5C1680400002962
:1014C00004D1184B0A0001201B6898476A466368DC
:1014D00001200093E3680193A38A93810022A3680B
:1014E000110002936B46FFF74FFE032809D10E4B04
:1014F0001B68002B05D0A1699A69002906D1002A32
:101500000BD1210009481CF0DBFF1FBD002A03D0CE
:10151000A17D9A7D914200D32300988A9B699847C8
:10152000EFE7C04624BF00000CBC000010BC000068
:1015300010B5010001481DF015F810BD10BC0000E9
:10154000F7B5036846680400466101939E4216D9C8
:101550002B4B01271A6800237F42002A22D1002B3F
:101560002CD1A57C002D48D029003000FCF734FE9A
:101570004543019BAB4202D8AE4200D365610023D4
:10158000220001211800FFF7FFFD002809D0A36801
:10159000E268934205D20023220019001800FFF7E9
:1015A000F3FDFEBD908A218A884205D0516801333F
:1015B000DBB28F4200D90F001268CEE7BE4206D3DD
:1015C00039003000FCF708FE78430500D1E701251B
:1015D00000966D4238000099FCF70EFE00239942F8
:1015E00001D1009D0133009A023A00920099019ABC
:1015F0008A42BED8002BEDD0BBE701256D42BBE788
:1016000010BC0000002210B5030011000120FFF7FC
:10161000BBFD10BDF7B52B4F2B4DBB89BE68AB8012
:1016200001235B422B60294B0193002E15D1019AB7
:10163000274B5343AA889A4200D91A00AA807A6895
:10164000531C09D02B68591C05D09B1A21491B013A
:101650001B098B4200D92A60F7BD002380221206A5
:10166000DA40164202D10133202BF7D11F22D31AC0
:101670000093194B009A1B78934205DC0022174B0C
:10168000110001201B689847009BDA00144B1B686F
:101690009B181C68002C0FD098880D49FCF79CFD06
:1016A000241AA4B2022C01D9023CA4B2019BA34289
:1016B00000D923009BB201930123009A93409E43DB
:1016C000B3E7C04620BC000030BC0000FFFF0000B4
:1016D00071020000FEFFFF07D4BE000024BF00001F
:1016E0001CBC000037B50138012822D8114C10224B
:1016F000002120001DF07CFC0F4B00211A780F4BBD
:10170000D20018681DF074FC01230D4D5B4263602C
:101710002B606B46D91D022322000B70094B17204A
:101720001B680C329847002801D0074BA381A3897E
:10173000AB8037BD20BC0000D4BE00001CBC000044
:1017400030BC0000DCBE0000E457000001228240F3
:1017500010B503490B7813430B70FFF75BFF10BD07
:1017600020BC00000122824010B503490B7893434E
:101770000B70FFF74FFF10BD20BC000003000120DD
:1017800070B505009D40084A14782C431470022B54
:1017900003D15160FFF73EFF70BD0022034B1100E3
:1017A0001B689847F6E7C04620BC000024BF000035
:1017B0000300012010B504009C400B4A1178A1439E
:1017C0001170022B0AD1033B5360FFF723FF074B35
:1017D0001B68013301D114F027FD10BD0022044B1A
:1017E00011001B689847F0E720BC000030BC0000E7
:1017F00024BF0000033810B501280ED80A48CC00D9
:1018000000680019838001238B400260074A9168B9
:101810000B439360FFF7FEFE10BD0022044B110046
:1018200001201B689847F5E71CBC000020BC0000A5
:1018300024BF0000033810B501280DD800200A4B42
:10184000CA001B68D05001238B40084A9168994315
:101850009160FFF7DFFE10BD0022054B1100012053
:101860001B689847F5E7C0461CBC000020BC000080
:1018700024BF000010B5040000F00CF8002C02D0CA
:1018800020000CF081FF200006F08CFB200000F00F
:10189000E9FB10BD7021F0B5814D0C262B780400BA
:1018A000181D414303209A1C56435431FF3136180A
:1018B000814389197B4E8143377838267E43361819
:1018C000891930265E438143AB313618814389192B
:1018D000754E8143891946265E438143361889191E
:1018E00012021218814389182722534381431B187F
:1018F000C9188023814369318143E131814309184B
:101900008143091885B081431B02994204D9674B72
:10191000890A1B68073A9847002C05D0013C012C26
:1019200000D899E005B0F0BD2100202260481DF0EC
:101930005FFB5B4B702518785A4B41001A783823AF
:101940005A43083B4343033301930C23071D84B2DE
:101950000230434303269C467D435435FF35B4444F
:10196000B54365440332B5435519B543019BAB35C7
:10197000B5435D194C4BB543ED18B543ABB24D4D76
:1019800002932B680139039323239C4609B24B1C15
:1019900056D170250C266F4381B2704354376D3D8C
:1019A000FF37AF4340193818A8431218AA43019BC8
:1019B000AB32AA439A18AA4392B215003E483F4B55
:1019C0000068D318FB3D9BB24430ADB20380013BAD
:1019D000FF3B9BB20838AB42F8D14623324E6343FB
:1019E00092190326601CB24303339B180500C20002
:1019F0003348B34300689BB28018ADB22A02013D60
:101A00009A182DB2828008386A1CF6D12720090264
:101A100003315B18032144438B436418294A1B1983
:101A200012688B4369338B431100B9339BB22C315D
:101A3000043A0B80253B08399BB28A42F9D171E701
:101A400066468DB26E43029BC9009E19039B013D01
:101A500059188E8029B29AE7154C2B781549200029
:101A6000082209685B001CF019FD200012490923B7
:101A70000822096808301CF011FD20002B7810495D
:101A800008220968023310301CF008FD20000D49BF
:101A900006230822096818301CF000FD42E7C04602
:101AA000D4BE0000D5BE00000309000024BF000022
:101AB00048BC000040BC000044BC00000508000019
:101AC00038BC00003CBC0000064B10B51B689847B2
:101AD00005481CF03DFD0400044B1B68984720009E
:101AE00010BDC046C0BE000048BC0000C4BE00001F
:101AF000F8B5060070201D4B03241D7823212B1DF3
:101B000058430C23AA1C53435430FF301B19A043E5
:101B1000C018174BA0431A78382353431B19C01819
:101B200030236B43A043AB301B19A043C018114BAB
:101B3000A043C018A043301AFCF74EFBC7B26D009B
:101B4000AF4205DB0C4B3200390020001B68984780
:101B50000A4BFF001B689847094B0A481968C919C6
:101B60001CF0AEFC084B1B689847F8BDD4BE0000C3
:101B7000D5BE00000309000024BF0000C0BE000065
:101B800040BC000048BC0000C4BE0000044810B5C2
:101B900008301CF0DDFC002800D0808810BDC04655
:101BA00048BC000070B51B4B0C24197870230A1D2B
:101BB000534303228D1C6C435433FF33A4189343C7
:101BC0001B19154C9343257838246C43A4181B1912
:101BD0003024FF2561439343AB33934389185B184B
:101BE00005389343C41A2C4203D1240AE3B2082BCC
:101BF00000D9FEE7094B2C401B689847084B094861
:101C00001968E400091908301CF05AFC064B1B68DF
:101C1000984770BDD4BE0000D5BE0000C0BE000015
:101C200044BC000048BC0000C4BE0000074B10B517
:101C30001B689847064810301CF08AFC0400054BCE
:101C40001B689847201E00D0A08810BDC0BE0000B1
:101C500048BC0000C4BE000070B57024194B0200DF
:101C60001B780320191D4C430C219D1C69435434DF
:101C7000FF34091884436418134984430D783821CC
:101C8000694309186418302159438443AB34091857
:101C9000844364180D49844364184621594384439E
:101CA000091864188443141B240AE4B20133A342C4
:101CB00003DA074B21001B689847064BE4001868BD
:101CC000001970BDD4BE0000D5BE0000030900009D
:101CD00024BF000038BC000070B570241E4B020009
:101CE0001B780320191D4C430C219D1C694354345F
:101CF000FF34091884436418184984430D78382147
:101D0000694309186418302159438443AB340918D6
:101D10008443641812498443641846215943844318
:101D2000091864188443141B240AE4B20133A34243
:101D300003DA0C4B21001B6898470B4BE4001B682F
:101D400098470A4B0A481968103009191CF0B8FB6B
:101D5000084B1B68984770BDD4BE0000D5BE00007C
:101D60000309000024BF0000C0BE000038BC000012
:101D700048BC0000C4BE0000074B10B51B68984764
:101D8000064818301CF0E4FB0400054B1B6898471C
:101D9000201E00D0A08810BDC0BE000048BC0000BE
:101DA000C4BE000070B505007020264B03241A78CD
:101DB000111D48430C21931C59435430FF3009191D
:101DC000A04340182049A0430E78382171430919D7
:101DD000401830215143A043AB300919A0434018AB
:101DE0001A49A043401846215143A04309194018FD
:101DF0001B021B19A043C01827235A43A0431219E2
:101E00008018A0436930A0432521281AFCF7E4F983
:101E1000C6B2C0B2052805D90D4B2A0031002000FA
:101E20001B6898470B4BF6001B6898470A4B0B48FA
:101E30001968183089191CF043FB094B1B68984737
:101E400070BDC046D4BE0000D5BE0000030900002E
:101E500024BF0000C0BE00003CBC000048BC000025
:101E6000C4BE000010B502000C000123002103488D
:101E70001BF046FC0470FCF7B9FB10BD011100001B
:101E800010B502000C000123002103481BF038FCB0
:101E90000470FCF7ABFB10BD02110000F7B5002485
:101EA00000900191124D2B78A3421BD94426114F6B
:101EB00066433B6899190B0040331B78092B02D00D
:101EC0000134E4B2EEE7009820311CF05AF8002803
:101ED000F6D03B68019A9E190736F37F53400122E2
:101EE0001342EDD12878844280414042FEBDC04675
:101EF000D4BE000068BC0000F0B5002485B001909D
:101F000002910392174D2B78A34225D94426164FF0
:101F100066433B6899190B0040331B781A000E3A50
:101F2000012A04D9112B02D00134E4B2EAE7019866
:101F300020311CF026F80028F6D03B68029A9E1942
:101F4000330036331B78534001221342ECD12E3636
:101F50003378039A9342E7D1287884428041404203
:101F600005B0F0BDD4BE000068BC000030B5002054
:101F70000A240125074B1968074B1B7801332200FF
:101F800042438A18527A2A4203D00130C0B28342B7
:101F9000F5DA30BD6CBC0000D4BE0000F7B505001A
:101FA00000240A26012701910D4B18683300634372
:101FB000C018437A3B4208D10A4B01341B78E4B283
:101FC0000133A342F0DA2000FEBD037A019A934266
:101FD000F2D129001BF0D5FF0028F4D1ECE7C04670
:101FE0006CBC0000D4BE0000F7B505000024272615
:101FF000012701910C4B1B78A34213D90B4B186896
:1020000033006343C0188379FF2B02D10134E4B25B
:10201000F0E7019A3A409342F8D129001BF0B1FF52
:102020000028F3D02000FEBDD5BE000070BC00002B
:102030000A4B18780A4B1A6800230632984205D0DA
:102040002732110027390978FF2904D0C01A4342EA
:102050005841C0B270470133DBB2EFE7D5BE000094
:1020600070BC0000F0B585B0012821D0022800D155
:10207000BDE0002802D161491BF0CCFD05B0F0BDE8
:102080002A005F4B62431B68D058002802D00C38EE
:102090001BF081FB0134E4B25A4B1B78A342EFD80A
:1020A000002104201BF0E0FA002106201BF0DCFADE
:1020B000554CF422002120001CF09AFF2722534B9C
:1020C00000211B7806265A43514B1B6818000193C8
:1020D0001CF08EFF44224B4D00212B785A43484B75
:1020E00018681CF085FF0A222B78002102335A431E
:1020F000484B1F2518681CF07BFF2300E122543356
:1021000092001A80444B08226362444B4449638521
:1021100044481CF051FF0122434B52421A60FF21F8
:102120000532424825771CF063FFA31CDD7702AB24
:102130003F4D5E713F4B02A92A0001201B6805310B
:102140009847002804D0320028003B491CF034FF97
:1021500020230125374F02AA537102AB591D374A7C
:102160003B688020984702AB9E1D02A95D7132003A
:1021700015203B6805319847002801D133781D4070
:102180002300EF331D70012502ABDE1D5D71294B6D
:1021900002A9320019201B6805319847002801D197
:1021A00033781D4023000126F0331D7002AB244D0F
:1021B0005E71204B02A92A0016201B680531984742
:1021C000002800D02E70114A114B117827224A4363
:1021D000FF211B68D2189A420CD1FA22543423886A
:1021E0009200002106205A431BF0A4F946E7002480
:1021F000442551E799712733EDE7C04604260618B8
:1022000068BC0000D4BE000074BC0000D5BE000055
:1022100070BC00006CBC00001B00480107070000F8
:10222000F824061878BC00008CBC000091BC0000AB
:1022300080BC0000DCBE00003CE40718A7BC000026
:1022400060BD0000012310B5094C834022680029BD
:1022500006D080201343400123601AF021FE10BDF8
:102260009A432260FBD1802040011AF039FFF6E743
:1022700074BC0000F8B544241E4E4443336800216A
:102280001F190500FFF7DEFF0022336804371B1912
:1022900040331A703800FFF74BF933681819C31D23
:1022A000D97F2030FFF77AFE134B1B78013383422E
:1022B0000EDB0A22114B42431B689B185B7A9B077B
:1022C00006D533681919CB1DDA7F20310BF09AFF40
:1022D00030680019C31DD97F2030FFF785FE084BF9
:1022E0001B78834202D900210CF08EFD2800FCF7F8
:1022F000E3F9F8BD68BC0000D4BE00006CBC00006F
:10230000D5BE00000048704791BC0000054BC208D4
:102310009B1807221B791040034118000123184025
:102320007047C04674BC000000487047002506187E
:10233000024B5A330020185E7047C04674BC000040
:10234000024B58330020185E7047C04674BC000032
:102350004423034A43431068C01804307047C04602
:1023600068BC0000F7B50BF0D5FE01900BF008FF3C
:10237000072300229C46012465464549D310CB180B
:10238000197E15402941214206D12100A9400D00A6
:10239000597FA943597713E03D49F0310978002965
:1023A0000ED09100019E4158C827711A06000901FC
:1023B00009097F019436B94235D2B1560131E4DBC7
:1023C0000132252AD8D1334E30001BF0E7FD012819
:1023D00017D80023072501211F002D4CDA10A21861
:1023E000147E2F403C410C4208D00C00BC4027001A
:1023F000547F3C435477012803D008000133252B38
:10240000EAD1002430000CF0E1FE2500224B1B78BD
:10241000A34214DC002D37D0FA220021042012013F
:102420001BF088F8F7BD0027B754FA26F601B14231
:10243000C6D92100A9400D00597F2943AAE74423AA
:102440006343164F0193019A3B689B181A00403270
:102450001278092A0BD10833DA7F002A07D1012329
:1024600021021943022089B21BF086F901253B683D
:10247000019A9B1840331B780C2B03D13100E0B23A
:1024800011F09CFD0134C1E7014B0333DD77C9E74F
:1024900074BC000091BC0000D4BE000068BC000009
:1024A000F8B50023040044270E4A0F49037023782F
:1024B0001678B34210D2380058430D68281805002A
:1024C00040352D78002D0AD12022290020301CF023
:1024D0008FFD2378B34200D307252800F8BD0133D0
:1024E0002370E4E7D4BE000068BC0000014B18680C
:1024F0007047C04670BC00001F00000000000000D4
:10250000FF79010F000000000020024B0433D87750
:102510007047C04674BC000070B522230D003E22F7
:10252000002109481BF0ECF80026092304002900CB
:1025300003704670202202301CF03EFD2000FCF7A4
:1025400055F8300070BDC04604110000F8B53E22B9
:102550000D00422300210F481BF0D2F8202608234B
:1025600000270400037032002900477002301CF07D
:1025700023FD2000A919320022301CF01DFD20008F
:10258000FCF734F8044B31005B68044A802098471C
:102590003800F8BD04110000DCBE0000A7BC00003C
:1025A00070B511230D00094A002109481BF0A8F855
:1025B000691C04000025102201301CF0FDFC2000E5
:1025C0002570FCF713F8280070BDC04617200000E6
:1025D00001110000FA2210B5064B920054331B88FB
:1025E000062000215A431AF0A5FF0BF0CDFD002074
:1025F00010BDC04674BC000010B5FFF7B3FE00204C
:1026000010BD00001026061868BD00000100120071
:1026100007000000A125061804000000F92506188F
:10262000050000000925061806000000D52506183B
:10263000080000004D25061809000000192506189D
:102640000A020000617C061802020000714F0618A1
:1026500007020000D54F061808020000E5540618CE
:102660000300000059620618010200009562061876
:10267000060200001D70061803020000C16806185B
:10268000040200001D6A061805020000E96D061824
:102690000902000099780618051100003534061863
:1026A000442130B5104B1A68104B14001B7840348D
:1026B00059430023994201D1012030BDE05C851EC1
:1026C000012D05D8D058C07C00280BD14433F1E748
:1026D000072802D1D0584078F6E70528F6D1D0581F
:1026E0000078F1E70020E8E768BC0000D4BE0000F5
:1026F00030B50D4A0124117844220C4B4A431B6823
:102700000B484033D218934201D1002030BD1978D4
:1027100044331129F7D80500CD40290025008D4309
:10272000F1D10120F2E7C046D4BE000068BC000031
:10273000AC400200F7B5174A01911400EE34257839
:1027400003000C21012D1FD00A39217007781031A8
:10275000022F19D8FA2446886400A64214D285882C
:102760000D482C000A3CA4B284420DD89C79172352
:102770002000984308D111002C310F701100323124
:102780000C700100D68515860198FFF76BFB0020C1
:10279000FEBDC04674BC0000F63F0000F8B5030063
:1027A0001A780800140002210C400A4203D19D78D7
:1027B0001031002D2AD0012115000D400A4206D10A
:1027C0005A781131002A21D0002C0AD101E0002CC6
:1027D00020D107229E7811213240964216D1002D39
:1027E00008D15E780722370011211740BE420DD173
:1027F000002C00D19A78084C21002B310A70072256
:10280000002D00D15A7800212A342270FFF72AFBCC
:102810000020F8BD0722EEE774BC0000030070B58D
:102820001C88080022001B3A1221E02A0BD85A8883
:10283000074D1300493BFF3B9BB2AB4203D800213D
:10284000044B9C84DA84FFF70DFB002070BDC0466A
:102850004841000074BC000070B50C000500FFF793
:1028600047FF0C21002809D12B780631012B05D810
:10287000012201001340044A563213702000FFF772
:10288000F1FA002070BDC04674BC0000030013B50F
:1028900040331B7802000C00002B0CD10D491E3375
:1028A000C85C002813D1013BFAD20C212000FFF7AD
:1028B000E7FA002016BD08490020130001900930F6
:1028C0000090203307381CF0ABF80100EEE7034915
:1028D000F2E7C046A8BC00008E340618A7BC000072
:1028E00002001E2313B50C000B49C85C002807D159
:1028F000013BFAD20C212000FFF7C2FA002016BDDE
:102900000021130001910931009102200349203375
:102910001CF086F80100EEE7A8BC0000A7BC000090
:1029200073B508000021FFF7ABFA6A460123D371A3
:102930006B46154E941DD91D22008220336898479E
:10294000002801D00023237020236A46D371237806
:102950000E4D002B09D069462A00802033680731CC
:102960009847002806D000232370002128001CF07F
:10297000A3F802E02378002BF7D0280000220821DA
:102980001CF070F8002076BDDCBE0000A7BC000083
:1029900010B50A000A23002107481AF0B1FE0024EE
:1029A000FB22064BC2800381428083800470FBF7C8
:1029B0001DFE200010BDC046011100009042000025
:1029C00010B500210623074A07481AF099FE002493
:1029D000064B9A8C4280DB8C04708380FBF706FEEA
:1029E000200010BD232000000111000074BC000075
:1029F00070B50400A026A025012300210F4A10482D
:102A00001AF07EFE0223E15EF6008B199BB22D01C7
:102A1000AB4211D80023E25E93199BB2AB420BD8B4
:102A2000084B1C005A331A8000235834218003704D
:102A3000FBF7DCFD002070BD1223F8E74D200000FD
:102A40000111000074BC000010B500210623094AE2
:102A500009481AF055FE094B00241A005832128812
:102A60005A3382801B8804704380FBF7BFFD20002F
:102A700010BDC0464C2000000111000074BC0000D5
:102A800070B50E4A032300210D481AF039FE0D4D92
:102A900000262B0006702C330400012118786B6986
:102AA00098472B0060702D33012118786B69984787
:102AB000A0702000FBF79AFD300070BD4B20000095
:102AC00001110000ECBE000070B500210F4A09237F
:102AD0000F481AF015FE0F4D04002B689847030AA3
:102AE000A370030C6070E370000E2B682071984790
:102AF0000025030A6071A371030C000E207225707B
:102B00002000E371FBF772FD280070BD1820000063
:102B1000011100006CBD000010B50A000223002165
:102B200005481AF0EDFD0024044B04701B78437037
:102B3000FBF75CFD200010BD01110000D5BE0000B8
:102B400010B50A000223002106481AF0D9FD00241E
:102B5000054B04701B7802334370FBF747FD2000E0
:102B600010BDC04601110000D4BE000010B5002108
:102B7000074A062307481AF0C3FD01230024037106
:102B8000FA3343800470FBF731FD200010BDC046CE
:102B9000022000000111000070B507230A00094857
:102BA00000211AF0ADFD00250400074906220C3172
:102BB00001301CF001FA20002570FBF717FD2800FA
:102BC00070BDC0460111000074BC00000A0010B5C1
:102BD0000A23002107481AF093FD0923064A0381BE
:102BE000C2804380C632013302800371FBF7FEFCD2
:102BF000002010BD011100003A090000F8B503786B
:102C00000E005A425A41124B05001B680024591EFF
:102C10008B41442743219A4204D00E4B1B78A34298
:102C200005D800213000FFF71DF90020F8BD3A005B
:102C3000094B62431B689B1840331B78092B03D157
:102C4000200029780BF006F80134E4B2E5E7C0462D
:102C500074BC0000D4BE000068BC000070B5124B0C
:102C6000040056331B780D00002B04D0FFF740FD05
:102C70000C23002812D1E2791223012A0ED82178E0
:102C800001290BD8601CFFF7AFF9084B1A78022313
:102C9000824203D9E1790CF08BF800232800190057
:102CA000FFF7E0F8002070BD74BC0000D5BE000046
:102CB00070B509230021084A08481AF021FD0025B3
:102CC00004000822064901301CF076F92000257026
:102CD000FBF78CFC280070BD1C20000001110000D7
:102CE0004037061813B5010000240122034B1031B0
:102CF00000941BF04CFD200016BDC046012D0618A7
:102D0000002270B5112306000D00072011001AF0F3
:102D1000F7FC040029000670102201301CF04CF969
:102D200020001AF011FD70BD70B50A0005000723E0
:102D300000210E481AF0E4FC1223037029780400E5
:102D400001290AD8681CFFF74FF9094B1B78834209
:102D500008D9611C0CF0B6F820702000FBF746FC87
:102D6000002070BD02232370F7E7C0460111000068
:102D7000D5BE000070B50A000500072300210E48EB
:102D80001AF0BEFC122303702978040001290AD826
:102D9000681CFFF729F9094B1B78834208D9611C8D
:102DA0000CF05AF820702000FBF720FC002070BDCA
:102DB00002232370F7E7C04601110000D5BE0000D2
:102DC00003880C485A1E92B210B50C0012218242A0
:102DD0000AD8094A002154321380FA2292000620B0
:102DE0005A431AF0A7FB00212000FFF73BF8002010
:102DF00010BDC046B7A1000074BC000010B5104B58
:102E00000C0056331B78002B04D0FFF771FC0C210B
:102E100000280CD10B4B1A680B4B197827234B4316
:102E2000FF219B189A4207D10BF082FC0021200061
:102E3000FFF718F8002010BD91712732F2E7C04665
:102E400074BC000070BC0000D5BE000070B50678F0
:102E50000D0004001221012E1DD8114B56331B7892
:102E6000002B04D0FFF744FC0C21002813D13100C3
:102E7000601CFFF7B9F80B4B04001B78022183425A
:102E800009D90BF073FF2720074B44431B6800212F
:102E90001C19FF23A3712800FEF7E4FF002070BD7A
:102EA00074BC0000D5BE000070BC0000F0B5037813
:102EB00089B0070007910493012B06D912210798C6
:102EC000FEF7D0FF002009B0F0BD3E4B56331B7813
:102ED000002B04D0FFF70CFC0C210028EFD10024BC
:102EE000394B7E1C1B780593384B1D684035059B7C
:102EF000A34225DC0023300004990593FFF74EF828
:102F00000022314B04921B780133834208DB0A32E2
:102F100050432F4B1B681818457AAD07EB0F0493ED
:102F200030003978FFF760F82A4B1A788242C5D80A
:102F30000024294B1B680633A24211D10721BEE7AA
:102F40002B78092B07D129000622300020391CF0EC
:102F500025F8002802D001344435C8E70123CAE728
:102F60002733190027390978FF2928D13B00173367
:102F70000693049BFD1D0293059B200001933B7863
:102F80002A0031000093069B0BF03EFE2720124BD7
:102F9000444318683B780419A3710622791C200069
:102FA0001CF00AF810220699E01D1CF005F820001C
:102FB0002900102217301BF0FFFF00217FE70134AA
:102FC000E4B2B9E774BC0000D4BE000068BC0000E5
:102FD0006CBC0000D5BE000070BC0000F8B50D0050
:102FE0000400FFF75DFB0C21002805D021788B1E23
:102FF000DBB2FC2B05D812212800FEF733FF00209E
:10300000F8BD661C3000FEF7C9FF0D4B1B7801337D
:103010008342F0DB0A22022142430A4B1B689A18C2
:10302000537A0B42E7D05F0707D58B4353723100C9
:1030300022780BF089F90021DEE70321F5E7C0468D
:10304000D4BE00006CBC0000F8B50D00FFF728FBF3
:103050000C2100281BD000240A26012731000F4B29
:1030600061431B6859184B7A3B4208D05A0713D565
:103070000222934320000A7A4B720BF065F9084B49
:1030800001341B78E4B20133A342E7DA00212800BF
:10309000FEF7E8FE0020F8BD0322EAE76CBC000062
:1030A000D4BE0000F7B505000191FFF7F9FA0C2630
:1030B000002805D029788B1EDBB2FC2B06D81226FF
:1030C00031000198FEF7CEFE0020FEBD6F1C3800D7
:1030D000FEF764FF1B4E040033780133834227DB85
:1030E0000A22194B42431B689B185B7A9B07E6D464
:1030F0000A236343144E0093009A336839009818EA
:1031000006221BF059FF3368009A29789B18032286
:10311000587A197202435A723800FEF7BFFE002631
:10312000B042CDD1390020002A780BF06BF8C7E708
:10313000FEF71CFF33780400023307269842D7D1EC
:10314000BEE7C046D4BE00006CBC0000F8B5164E09
:1031500005000436F37F0F000C24002B04D1047902
:103160001F339C4306D0122438002100FEF77AFE5C
:103170000020F8BD1AF012FF0138C0B22428F2D89E
:103180002900052209481BF017FFFA2221009200AE
:1031900005201AF0CFF9012321000420F3771AF05B
:1031A00063FAFFF7DFF8DFE774BC00008CBC0000B7
:1031B000F7B5050000240191384B1B78A3420DD8C8
:1031C000374928001AF0DDFE1221041E61D12900C2
:1031D000062234481BF0F0FE21005AE044236343EA
:1031E0000093314B009A1B689B181A0040321278EA
:1031F000911E01292DD92C4F009A3B689B181A006B
:1032000040321278072A0CD11E68002E04D1274BB9
:10321000210003201B689847022233789343012B37
:1032200032D0009A3B689B181A0040321278052A67
:103230000CD11E68002E04D11C4B210003201B68FA
:103240009847022273789343012B1DD00134E4B2D6
:10325000B2E71749EE3109780129CCD11E68002E5A
:1032600004D1124B210003201B6898471023728859
:103270001A4204D10D4B210003201B6898470222FB
:10328000F37A9343012BB6D1044B0C211B78A34254
:1032900096D90198FEF7E6FD0020FEBDD4BE0000E1
:1032A00042E4071886BC000068BC000024BF000090
:1032B00074BC000070B509230021094A09481AF0BE
:1032C0001FFA0400FFF730F8002501000822601CF7
:1032D0001BF072FE20002570FBF788F9280070BDF6
:1032E000032000000111000070B50C00074D0822FA
:1032F000010028001BF060FE28000421FBF7FCF908
:1033000020000021FEF7AEFD002070BD78BC00005B
:1033100010B50C000221FBF7EFF901002000FEF7C9
:10332000A1FD002010BD10B50C000321FBF7E4F94E
:1033300001002000FEF796FD002010BD10B50C0026
:1033400081880088FDF766F801002000FEF78AFDFD
:10335000002010BD007810B50C001221032804D8FD
:1033600001231840FDF760F801002000FEF77AFD08
:10337000002010BD70B50A000923002108481AF08A
:10338000BFF908220400002101301BF031FE0025A6
:103390006023200025706371FBF728F9280070BDB9
:1033A0000111000070B541230A000B4800211AF0FA
:1033B000A7F904002A22094901301BF0FDFD200075
:1033C0000025162200212B301BF012FE2000257054
:1033D000FBF70CF9280070BD0111000064340618D9
:1033E00010B50C0019F09AFC20000021FEF73AFD00
:1033F000002010BD10B503000C4A00780C001278B4
:10340000002803D05988914203D29888FDF72EF8FE
:1034100009E00022064B110001201B689847122189
:103420002000FEF71FFD002010BDC046D4BE0000E6
:1034300024BF0000002270B50C001900084BD0001A
:10344000C518185A884205D16B68181E01D0200093
:10345000984770BD0132522AF1D10020F9E7C046E9
:10346000B03406182000800000C000000000E40016
:1034700000002822000000000000040000F7FFFF09
:103480007F00000030F0FFFFFFFFFFFFFF17BD1AB6
:103490003CCDA6B8995899B740EB7B60FF4A503FA6
:1034A00010D2E3B3C974385FC5A3D4F6493F000016
:1034B00039200000F944061836200000953F061810
:1034C0003720000011420618030C0000E1330618F3
:1034D00001100000CD2B061809100000992B0618CA
:1034E00002100000A53306180310000075330618FB
:1034F000010C000027330618630C00001133061876
:10350000310C000055330618330C00003D3306180B
:10351000350C0000F533061801200000E9320618CA
:10352000022000006D2B061803200000B53206189B
:1035300005200000B1310618062000005D3A06188B
:1035400008200000C53B06180A200000153D06189B
:10355000092000006D3C061807200000113A0618EB
:10356000352000008941061838200000A1430618C4
:103570003A200000ED4D06183B200000254E0618AD
:103580003C200000894E06183D200000F94E061828
:103590003E200000F94906183F200000E54A0618C1
:1035A000402000000D4C06180B2000002157061883
:1035B0000C2000004158061841200000195A061836
:1035C00042200000255B061844200000995D061883
:1035D000452000008D5E061846200000695F061831
:1035E00047200000C55F0618482000009D600618AF
:1035F000492000004D6106184A200000C5610618E8
:1036000059200000056206180D20000059720618A6
:103610000E2000001578061843200000E1740618FB
:10362000142000004D3106180F200000412B061811
:10363000102000004930061811200000A53006189F
:1036400012200000DD2F06182A200000192B061872
:1036500027200000AD2E0618282000004D2E061849
:1036600029200000FD2D06182E200000C12D06186F
:103670002D200000592806182B200000752D061853
:103680002C200000292D061817200000E52C061814
:1036900018200000C92A06181C200000B12C0618AA
:1036A0004B200000812A06184C200000492A0618E9
:1036B0004D200000F12906184E2000005D2C061850
:1036C0005F200000FD2B061823200000C1290618EA
:1036D000242000001D2806182F200000912906181C
:1036E0001D200000897C06181E200000C37C0618DF
:1036F00033200000077D0618342000004F7D061897
:103700004F2000009F7D0618502000002B7E0618D9
:103710001F200000B57E061825200000212906186C
:1037200026200000E12806185E2000008D280618DB
:10373000312000009D2706185D200000352706185F
:10374000FFFFFFFFFF03000070B544251D4C4543FC
:1037500023685B59002B05D000221B4B1100012070
:103760001B6898470022236811005E1910001A2375
:1037700019F0C6FFFF2330602068002645192C6829
:1037800031002370EC3B638080231B01A38008235E
:1037900020002381013BE6806381267306220D30E1
:1037A0001BF026FC8023FF33A3827F3BE382074B81
:1037B000E6742683DA682A631B8AAB8601234035C8
:1037C0002B7070BD68BC000024BF000074BC0000FA
:1037D00070B54425354C454323685B19188C002887
:1037E00005D0FEF7DFFA002223685B191A6223680E
:1037F0005B19988C002805D0FEF7D4FA00222368C4
:103800005B195A6223685B19188D002805D0FEF7F2
:10381000C9FA002223685B199A6223685B19988DA4
:10382000002805D0FEF7BEFA002223685B19DA6291
:1038300023685859002805D00C3819F0ACFF002334
:103840002268535123681A495A193D32127809786F
:10385000914225D9442656439B19188C002805D03F
:10386000FEF7A0FA002223689B191A6223689B19AD
:10387000988C002805D0FEF795FA002223689B1942
:103880005A6223689859002805D00C3819F083FF34
:1038900000232268935123689E1900234036337019
:1038A00000232068451940352B7070BD68BC0000AE
:1038B000D4BE000070B504000E00252805D90022F2
:1038C0000F4B110001201B689847F0212000FAF7E8
:1038D00083FC0130C5B22620012D04D80F34844268
:1038E00000D90400E0B2013EF1B21AF083FD2D30A0
:1038F000FF3068430349FAF76FFC0130C0B270BD76
:1039000024BF000071020000038870B505000C00A0
:10391000DB0605D50022104B110001201B689847DB
:103920002B88012019000140034203D10A4B0A00F1
:103930001B689847298806224B0700D59218D31C8C
:10394000490600D4931C0133D9B209190020252956
:1039500000DD123070BDC04624BF000070B51400F9
:103960000F4B06001A78E3B20D009A4205D80D4BB2
:10397000220003201B68E1B29847002E0FD144209B
:10398000E4B24443084B18680019030040331B7825
:10399000022B04D10622290036301BF00DFB70BD2E
:1039A000D4BE000024BF000068BC0000F7B50D00C5
:1039B00000240190134F3B78A34202D8FF2420003B
:1039C000FEBD4422104B62431B689B181A00403214
:1039D0001278511E022902D90134E4B2EAE71E68C6
:1039E000002E04D1094B210003201B68984733782F
:1039F000019A9342F0D13B78A342DFD9002DDED06B
:103A00002E60DCE7D4BE000068BC000024BF0000CC
:103A10000A0010B5022300210D4819F071FE0D4B6C
:103A200004001A002D3210785B69012198470A4B77
:103A30006070EE331A78022A06D10C23200023701E
:103A4000FAF7D4FD002010BD01221A700023F5E71B
:103A500001110000ECBE000074BC0000F0B5544B36
:103A600087B00391EE331A780400022A00D19DE05A
:103A700001220021FF201A70FFF798FF04AAD51D2C
:103A800003002870FF2813D04A4A10684422534389
:103A9000C01840300378012B00D087E02379042B35
:103AA0000FD912210398FEF7DDF9002007B0F0BD11
:103AB0002800FEF7F5FC011EF4D12878FFF744FE3C
:103AC000ECE7012B09D0218862889142E9D81F29AF
:103AD000E7D98021C9018A42E3D8627B013A062AEC
:103AE000DFD8A27B032ADCD86279032AD9D8A2794D
:103AF000012AD6D8012B03D000220292042B07D131
:103B00002D49E01D1AF03DFA0028CAD10123029385
:103B1000442300212A78274F53433A68D3181D685D
:103B2000264A2800019323790D30D35C6B8063888B
:103B300069721A0A2A72EB712388A971AB80637BC0
:103B40000622AB726679E11DEE72A3792B731BF02E
:103B500033FA0023029A9A4200D1A37BEB74032E1E
:103B60001DD83000019B124930331BF0F9F90212C5
:103B70000212019AC86810630A8A9A80442204AB30
:103B8000D9793B684A439B180122403300211A70BF
:103B900088E70622180012311BF00EFAEEE7084BF8
:103BA0000022310003201B689847E7E70C2179E7E2
:103BB00074BC000068BC000042E4071800560618F8
:103BC00024BF0000F0B5274B85B00191EE331A7881
:103BD00005000C21022A38D001221A700378063120
:103BE0001F2B32D80021FF20FFF7E0FE02ABDE1DC5
:103BF0003070FF2807D13000FEF752FC011E24D19F
:103C00003078FFF7A1FD44223378174F53433A68C9
:103C1000D3181B8C0093FEF7AFF80721041E14D0B5
:103C200021002A78681C19F02FF8442230783B686C
:103C3000424329789B181C84598440331B78022BFB
:103C400009D122000EF074F800210198FEF70AF95C
:103C5000002005B0F0BD009B002BF5D01800FEF74A
:103C6000A1F8F1E774BC000068BC0000F0B5274B78
:103C700085B00191EE331A7805000C21022A38D064
:103C800001221A70037806311F2B32D80021FF2041
:103C9000FFF78CFE02ABDE1D3070FF2807D130002D
