:020000041805DD
:10D2840010B5024B00221B68984710BD98BA0000E5
:10D2940010B5024B01221B68984710BD98BA0000D4
:10D2A40010B5024B00221B68984710BD98BA0000C5
:10D2B40010B5024B01221B68984710BD98BA0000B4
:10D2C400F8B506000C3883881D4A934205D01D4AE0
:10D2D400934223D000F02AFB1FE0037A3F2B1FD890
:10D2E4005A1ED2B21849D4080F5D072401252240E2
:10D2F40017412A00BA432F420BD03E2B09D1327872
:10D30400013AD3B2DA0889180A7C23401A419543BA
:10D314002A00002ADED01FF09BFCF8BD3E23DFE785
:10D32400582BD7D8403BDBB2074AD90852180721FB
:10D33400127A0B401A41130001229A43E9E7C046CE
:10D344000311000004110000A0BA000070B50C4BDA
:10D3540004001A78824204D80A4B01001B68032097
:10D364009847094D2B681B5D002B05D00022054B07
:10D37400110001201B68984701222B681A5570BDC3
:10D38400D1BE000024BF00009CBA000070B50C4B55
:10D3940004001A78824204D80A4B01001B68032057
:10D3A4009847094D2B68195D002904D1054B0A00E3
:10D3B40001201B68984700222B681A5570BDC0468F
:10D3C400D1BE000024BF00009CBA0000030010B5C9
:10D3D40004292AD8080021F0C1FD03030910230001
:10D3E4000A000320144B1B68984717E00822190011
:10D3F4001248801821F0DEFD10E0104C19002000C6
:10D40400082221F0D7FD002320000D4C0278195D7D
:10D4140001330A4302700130082BF7D1002010BDFC
:10D424000648082219001030E4E70022024B1100DC
:10D4340001201B68D8E7C04624BF0000A0BA000042
:10D44400ACD4051870B50223050004009D4315D122
:10D45400182229000B4821F0C9FD0B4B29001A782A
:10D464000A4B186821F0C2FD03210948FFF7AEFFFB
:10D4740004210848FFF7AAFF01F02CFE200000F069
:10D48400D9FA70BDA0BA0000D1BE00009CBA000059
:10D494009CD40518A4D40518FFFFFFFFFF9F0020AC
:10D4A4001F0000000000000000600400F8074002B4
:10D4B400F0B5A54B87B01C68002C09D101F04CFED7
:10D4C400002800D18BE0A04B9C68002C00D186E0A2
:10D4D4009D4B1C61A1889D4BC818052800D92AE1E1
:10D4E40021F050FD060058007F00D00029011101F1
:10D4F400954B5B7D5BB2042B02DC934A013353757D
:10D504000E26E31D0393258902ABF61863892800D0
:10D51400338001F0EDF9021E1FD03388002B1CD09C
:10D524008768002F17D0200092780C307F2A0DD8FE
:10D5340001003200009720F0BFF80100002910D04C
:10D544002A00834B1B68032098470AE0010032003D
:10D55400B847C1B2F2E70421F2E7002D15D0012348
:10D5640023730E23E3713288774B0332D2B22272D3
:10D574005B7D191C5BB2002B00DA0021A5722D0A19
:10D584006172E5720420023222E0714B2900328874
:10D594001B68D8E76C4B5B7D5BB2042B02DC6A4AE8
:10D5A400013353750F22E31D0393E2710B3A238970
:10D5B4002272227B6272644A527D111C52B2002A8A
:10D5C40000DA002104200622E3721B0AA1722373ED
:10D5D40000235D490B755F4B039921F077FC07B07D
:10D5E400F0BD23000E270A33039302AB2189FF18F1
:10D5F4006389CEB23B80FF2904D9554B0022032016
:10D604001B689847300001F0A5F9021E33D0456825
:10D61400002D19D0200092783B880C30002A0ED1BE
:10D6240000953A00010020F047F80500002D0ED0C7
:10D63400474B3200290003201B68984708E03A0052
:10D644000100A847C5B2F1E76389002B11D1002579
:10D6540062893B889A4205D23D4B3200290003205F
:10D664001B6898470E2302AAA6729B181B88E372B4
:10D6740006E00425DCE7364B310003201B6898479D
:10D68400E27A7FE723000A33267B0393638902AAA5
:10D694003000D38101F070F9021EECD04568002DF2
:10D6A4002FD02000927802ABDB890C30002A21D1E4
:10D6B40002A90E320095521801001FF0FDFF05006B
:10D6C400002D05D0224B3200290003201B68984707
:10D6D4000E2702ABFF18398863898B4204D21C4B96
:10D6E400320003201B689847002DC9D13E23A37242
:10D6F4003B88BCE70E2202A952180100A847C5B214
:10D70400DEE70425DEE7216913480A1F0918A38907
:10D71400039112491248535412491B0A5354E38982
:10D7240011495354190A1154DAB209020A43043252
:10D73400022092B24CE7064B002203201B68984754
:10D7440000200200039043E7BCBA0000FFEEFFFF95
:10D7540024BF000071D70518FC3F00500040005062
:10D7640003400050014000500240005070B52D4C61
:10D774002D4B25691B6898472C4BAA889A4212D1D5
:10D784002B7B022B04D00222190091430D2923D1B3
:10D79400217E002905D1264B0A0001201B689847E9
:10D7A40001E00139217601232375A988214B99428F
:10D7B4001AD8053B99422ED92369002B03D02000A7
:10D7C40020F03EFA050028001FF042FA1A4B1B68AD
:10D7D4009847FFF76DFE70BD152BE4D1E17D00295C
:10D7E400D9D00139E175DEE7144B994213D12000F9
:10D7F400083020F025FA124B1A78AB891B051B0D53
:10D804009A4203DD2B6998B203F020F900232361C7
:10D8140001F08CFCD0E7064B002203201B689847DC
:10D82400CAE7C046BCBA0000B0BE00000411000044
:10D8340024BF000005110000B4BE00000611000062
:10D84400D1BE0000F0B587B006000D0017000393A9
:10D8540000285AD08468002C4FD083787F2B29D895
:10D864000E2202A95218002100940800294B20F02E
:10D8740029F80400002C38D1B36802221800264984
:10D88400029321F089FB0E2302AA9B181E8800280C
:10D8940019D12A002100330020481FF085F9022203
:10D8A400040007700230039921F084FB2000FFF785
:10D8B40007FD20E000230E2202A9521818001900C7
:10D8C400A047C4B2D6E703221549029821F064FBAD
:10D8D40033002A00210000281AD110481FF064F9EF
:10D8E4000622040007700130DDE70E4B2A002100F8
:10D8F40003201B68984707B0F0BD0A0001232100EC
:10D9040009481FF051F90770D1E70A00012301000B
:10D914000248F6E7FFFF0000FA7D06180111000037
:10D92400F9E9051824BF00000211000070B50500D4
:10D934003A4B1B689847AB88394A3A4C934205D115
:10D9440020002900083020F033F950E0364A934291
:10D9540007D12B7B0F2B30D006D8022B27D00D2BD1
:10D964000AD029002000EEE7152BFAD1E37D032B22
:10D974003AD80133E375F4E7EB89E97D5B069B0F45
:10D9840001290DD1627E022A3AD0002A02D1227ED8
:10D99400032A35D8013B5A425341DAB2002332E01C
:10D9A400A27EF0E7012300222DE0A2762EE00323DD
:10D9B400227E93429B415B4228E01C4AA97B10686B
:10D9C400EB7C4218415C022923D0002902D1217E3C
:10D9D40003291ED8013B59424B411370237E013366
:10D9E4002376BEE70023137028001FF031F9104B93
:10D9F4001B689847237D012B01D1FFF759FD70BDAA
:10DA0400012BCFD102220129CFD16276002BE5D0A0
:10DA1400EAE7012BE6D10223E5E7C046B0BE0000E9
:10DA240006110000BCBA000004110000B8BA0000DE
:10DA3400B4BE000070B5051E0C4C14D101001C22AC
:10DA4400200021F0D3FA0A4B29001A78094B1868F0
:10DA540021F0CCFA200020F095F82000083020F0C6
:10DA640091F8012323750523637570BDBCBA0000CA
:10DA7400D1BE0000B8BA000010B500F039FFFF2392
:10DA8400002800D0C378D8B210BD0000F0B589B02A
:10DA940005000391029200F02BFF5D4C0700637DAB
:10DAA4007F2B05D900225B4B110001201B6898478E
:10DAB400594B9D4202D0637D013B6375002F00D119
:10DAC400A2E0637D7F2B00D96DE00F21BB78049326
:10DAD4001940082946D8080021F040FA05260526F1
:10DAE400444444444B0000260E2204ABD2180023C5
:10DAF4009C461380039B634542D07C68644555D0A3
:10DB040040216B4604989B8908400590049808427C
:10DB140031D10094029905981FF0D4FE0400012C21
:10DB24002FD10023122218E0039B012B13D9029B4F
:10DB3400029A5B7812781B021343384A12789A428D
:10DB440009DD374A1268D25C002A04D001221B0284
:10DB540013439EB2C8E70222029B29003800FFF754
:10DB640071FE04E02B4B2A0003201B68984709B080
:10DB7400F0BD0226B8E760460299A047C4B2CEE7DA
:10DB8400039C04AB31002A00DB8926481FF00CF803
:10DB94000600002C05D01F4B2A00210003201B681F
:10DBA4009847002E04D100230722D6E70424E8E78F
:10DBB40004ABDB89002B12D07B689C46002B0ED073
:10DBC4006B46BA789B89520615D4624600920E229F
:10DBD40004A95218300002991FF074FE0400002CAE
:10DBE40005D00C4B2A00210003201B689847300005
:10DBF4001EF0FEFFBBE70E2204A964465218300053
:10DC04000299A047C4B2EAE73B000122A5E7C04657
:10DC1400BCBA000024BF0000350C0000D1BE0000D7
:10DC24009CBA00000511000070B5134A0C0011786D
:10DC340002050300120D002091420BDD9B0B834271
:10DC440008D11800FB2C05D802F044FF011E02D0B5
:10DC54000A4BC01870BD01231A2209481EF0A4FF04
:10DC640001250570FFF72CFB290020001FF0D4F8D4
:10DC7400044B9D75EEE7C046D1BE00000040005045
:10DC840003110000BCBA0000F8B5174B06009C7DD8
:10DC94000D001700002C06D010001FF047F90023D8
:10DCA400114A9375F8BD114B01051B78090D8B4280
:10DCB40012DD01230902194322000D4889B20733FA
:10DCC4001EF072FF06804580002D01D0094BFC1820
:10DCD40044601EF08DFFE5E7074B02002900032096
:10DCE4001B689847DEE7C046BCBA0000D1BE0000FE
:10DCF4000611000000C0FFAF24BF0000F8B50D00FE
:10DD040006A90E780168070088190124824211D3FC
:10DD14001C1E09D02A6828689419A342A441320021
:10DD24006442640021F046F93B689B193B602B6810
:10DD34009E192E602000F8BDF0B589B0050002914F
:10DD440003920691002940D0CE180123178807902A
:10DD5400C719009332003B0007A906A8FFF7CEFFBE
:10DD64000400031E26D0079B5D1B039B1D8020001F
:10DD740009B0F0BD013305935B000493EB180793DE
:10DD840002233200009307A93B0006A8FFF7B6FF61
:10DD9400002818D1049A07A90232AB18079302236A
:10DDA4003200009306A83B00FFF7A8FF00280AD121
:10DDB4006B461B7D0299079A0978521B9942D2D966
:10DDC400062AD7D9CFE70400CDE70623039A029C9D
:10DDD4001380CCE7F0B599B01D0002903A23081ED9
:10DDE4000592079160D0029B002B61D00127148813
:10DDF400029B1C190126029B451908932A00230043
:10DE0400009608A907A8FFF779FF002849D1029BCB
:10DE14002A009B1908930096230008A907A8FFF776
:10DE24006DFF00283DD1029B2A000233089300961F
:10DE3400230008A907A8FFF761FF002831D1029B3E
:10DE44002A0003330893062308A9009307A8230094
:10DE5400FFF754FF002824D1029B2A0009330893BA
:10DE64000096230008A907A8FFF748FF002818D147
:10DE7400029B597A0390002921D1039B032B04D9D7
:10DE8400434B0A0001201B6898477F4200233C4013
:10DE94000227029E04931836039B049A934216DCCD
:10DEA4000020089B029A9B1A059A138019B0F0BDB2
:10DEB4004E2404ABE41809AB029F02939AE7314263
:10DEC40003D0039B0133DBB203934908D3E7330048
:10DED4000E3B08932A002300009708A907A8FFF720
:10DEE4000DFF0028DDD133000C3B08932A002300EA
:10DEF400009708A907A8FFF701FF0028D1D1330034
:10DF04000A3B08932A002300009708A907A8FFF7F3
:10DF1400F5FE0028C5D13300083B08932A002300EE
:10DF2400009708A907A8FFF7E9FE0028B9D1B31F95
:10DF340008932A002300009708A907A8FFF7DEFE2C
:10DF44000028AED1331F08932A002300009708A9A4
:10DF540007A8FFF7D3FE0028A3D1B31E08932A0015
:10DF64002300009708A907A8FFF7C8FE002898D146
:10DF740023002A00009708A907A80896FFF7BEFE09
:10DF84001036002800D08CE7049B0133049383E708
:10DF940024BF0000F0B58DB007000392069100295C
:10DFA40000D176E0002843D0158801224519049257
:10DFB4000126CB180293029A2B00009607A906A803
:10DFC4000797FFF79BFE041E2BD1BB190793029AF8
:10DFD4002B00009607A906A8FFF790FE041E20D187
:10DFE400BB1C0793029A2B00009607A906A8FFF70B
:10DFF40085FE041E15D1B97800291DD1022C04D93F
:10E00400264B0A0001201B68984706203E00604307
:10E01400049B5B421D40C3190593059BB34211D178
:10E024000024079BD81B039B188020000DB0F0BD73
:10E0340004900CAD08AFBBE7314201D00134E4B227
:10E044004908D9E7331D07930123029A009307A9CE
:10E054002B0006A8FFF752FE041EE2D1B31D049361
:10E0640007930223029A009307A92B0006A8FFF73F
:10E0740045FE041ED5D10223029A009308362B00D4
:10E0840007A906A80796FFF739FE041EC9D1049E06
:10E09400C3E71023039A0C001380C6E724BF0000D3
:10E0A400F0B58BB007000C1E0492069166D00028D0
:10E0B40032D015880122451905920126E3180393ED
:10E0C400039A2B00009607A906A80797FFF716FEE8
:10E0D400041E1AD1BB190793039A2B00009607A9B3
:10E0E40006A8FFF70BFE041E0FD17B783F2B05D942
:10E0F400244B020001001B6830009847059B5E42D8
:10E10400354000267B78B3420AD8079BD81B049B72
:10E11400188020000BB0F0BD05900AAD08AFCCE725
:10E12400B31C0593FB1807930123039A009307A9D3
:10E134002B0006A8FFF7E2FD00281DD1059A07A9C8
:10E1440053000222FB18079300922B00039A06A89F
:10E15400FFF7D4FD00280FD1B31DFB18079301234B
:10E16400039A009307A92B0006A8FFF7C7FD002810
:10E1740002D10136F6B2C5E70400C6E70823049AC3
:10E184001380C6E724BF0000F0B5B7B007001D0038
:10E194000392002900D1C7E0002800D1A2E016882C
:10E1A400861901234D1900932A00330008A907A8F2
:10E1B40008970797FFF7A2FD041E00D08BE0BB1C55
:10E1C400079302232A00009308A9330007A8FFF746
:10E1D40095FD041E00D07EE03B1D079301232A0019
:10E1E400009308A9330007A8FFF788FD041E72D125
:10E1F4007B1D079301232A00009308A9330007A875
:10E20400FFF77CFD041E66D1BB1D079302232A0081
:10E21400009308A9330007A8FFF770FD041E5AD124
:10E224003B000833079301232A00009308A9330015
:10E2340007A8FFF763FD041E4DD13B000933079384
:10E2440001232A00009308A9330007A8FFF756FD0D
:10E25400041E40D13B000A33079301232A00009394
:10E2640008A9330007A8FFF749FD041E33D13B007A
:10E274000B33079301232A00009308A9330007A84E
:10E28400FFF73CFD041E26D13B000C330793022309
:10E294002A00009308A9330007A8FFF72FFD041EE6
:10E2A40019D1BB7B2A0004933B000E33079301234F
:10E2B40008A9009307A83300FFF720FD041E0AD124
:10E2C400049B02975B00DB19059301230493059BD0
:10E2D400029A934209D1089BD81B039B1880200003
:10E2E40037B0F0BD36AE09AF5BE7029B2A000F33AF
:10E2F4000793049B08A9009307A83300FFF7FEFCCB
:10E3040000280FD1029B2A0010330793049B08A90D
:10E31400009307A83300FFF7F1FC029B023302933A
:10E324000028D4D00400D6E7039B0C001980D6E75C
:10E33400F0B5B7B007001D000492002900D1B8E081
:10E34400002800D193E01688861901234D19009303
:10E354002A00330008A907A808970797FFF7CEFCFF
:10E36400041E00D07CE0BB1C079302232A00009308
:10E3740008A9330007A8FFF7C1FC041E70D13B1D98
:10E38400079301232A00009308A9330007A8FFF785
:10E39400B5FC041E64D1BB1D079302232A0000931D
:10E3A40008A9330007A8FFF7A9FC041E58D13B00B5
:10E3B4000833079301232A00009308A9330007A810
:10E3C400FFF79CFC041E4BD13B0009330793012348
:10E3D4002A00009308A9330007A8FFF78FFC041E46
:10E3E4003ED13B000A33079301232A00009308A976
:10E3F400330007A8FFF782FC041E31D13B000B3326
:10E40400079301232A00009308A9330007A8FFF704
:10E4140075FC041E24D13B000C33079302232A000D
:10E42400009308A9330007A8FFF768FC041E17D15E
:10E43400BB7B2A0005933B000E330793012308A9F5
:10E44400009307A83300FFF759FC041E08D1059B6D
:10E4540003975B00DB190593059B039A934209D14B
:10E46400089BD81B049B1880200037B0F0BD36AE43
:10E4740009AF6AE7039B2A000F330793012308A916
:10E48400009307A83300FFF739FC00280FD10123BC
:10E49400039A009310323300079208A92A0007A8B0
:10E4A400FFF72CFC039B023303930028D4D0040011
:10E4B400D6E7049B0C001980D6E7F0B5C9B00C0070
:10E4C4001D0002900592002900D1E2E000282ED020
:10E4D40016888619029B65190793069301232A005F
:10E4E400009307A9330006A8FFF708FC041E16D101
:10E4F400029B2A0001330693012307A9009306A86F
:10E504003300FFF7FBFB041E09D10123029F049093
:10E5140019370393029B049A5B7893420BDC079BA5
:10E52400029A981A059B1880200049B0F0BD08ABE8
:10E5340048AE0293CEE73B00173B069302232A0022
:10E54400009307A9330006A8FFF7D8FB002800D0E2
:10E554009DE03B00039A153B0693009233002A008A
:10E5640007A906A8FFF7CAFB002800D08FE03B00EC
:10E57400143B069306232A00009307A9330006A838
:10E58400FFF7BCFB002800D081E03B00039A0E3B60
:10E594000693009233002A0007A906A8FFF7AEFBF2
:10E5A400002874D13B00039A0D3B0693009233007C
:10E5B4002A0007A906A8FFF7A1FB002867D13B00A2
:10E5C400039A0C3B0693009233002A0007A906A87D
:10E5D400FFF794FB00285AD13B00039A0B3B0693A8
:10E5E400009233002A0007A906A8FFF787FB00283A
:10E5F4004DD13B00039A0A3B0693009233002A0054
:10E6040007A906A8FFF77AFB002840D13B00093B85
:10E61400069302232A00009307A9330006A8FFF7F4
:10E624006DFB002833D1FB1F0693039B2A00009344
:10E6340007A9330006A8FFF761FB002827D1BB1FF9
:10E64400069306232A00009307A9330006A8FFF7C0
:10E6540055FB00281BD1039B2A00009307A9330014
:10E6640006A80697FFF74AFB002810D13B787A1CCE
:10E67400069200932A00330007A906A8FFF73EFB81
:10E68400FE37002803D1049B0133049342E70400BE
:10E6940045E7059B198047E7F0B58FB007000C00EC
:10E6A4001D000592002900D188E000282BD016888F
:10E6B40086190123651900932A00330008A907A8C5
:10E6C40008970797FFF71AFB041E15D17B1C0793C5
:10E6D40001232A00009308A9330007A8FFF70EFBC3
:10E6E400041E09D13B0011330293012304900393C8
:10E6F4007B78049A93420BDC089BD81B059B1880FB
:10E7040020000FB0F0BD262604ABF61809AFD0E701
:10E71400029B2A000F3B0793039B08A9009307A8B9
:10E724003300FFF7EBFA002846D1029B2A000E3B88
:10E734000793039B08A9009307A83300FFF7DEFAA9
:10E74400002839D1029B2A000D3B0793062308A910
:10E75400009307A83300FFF7D1FA00282CD1029ABE
:10E7640008A9D31F039A0793009233002A0007A82D
:10E77400FFF7C4FA00281FD1029A08A9931F079330
:10E7840006232A00009307A83300FFF7B7FA0028EE
:10E7940012D1029B2A000793039B08A9009307A8A0
:10E7A4003300FFF7ABFA029B10330293002803D126
:10E7B400049B013304939BE704009DE7059B1980A8
:10E7C4009EE7F0B595B007000C001D0005920029E6
:10E7D40000D189E000282BD01688861901236519F9
:10E7E40000932A00330008A907A808970797FFF7A2
:10E7F40085FA041E15D17B1C079301232A0000937C
:10E8040008A9330007A8FFF779FA041E09D13B00D1
:10E814000A3302930123049003937B78049A93426E
:10E824000BDC089BD81B059B1880200015B0F0BD9D
:10E834003F2604ABF61809AFD0E7029B2A00083B39
:10E844000793039B08A9009307A83300FFF756FA20
:10E85400002847D1029B2A00073B0793039B08A982
:10E86400009307A83300FFF749FA00283AD1029B26
:10E874002A00063B0793062308A9009307A8330040
:10E88400FFF73CFA00282DD1029B2A000793039B33
:10E8940008A9009307A83300FFF730FA002821D114
:10E8A400029B029A1B780132079200932A003300DC
:10E8B40008A907A8FFF722FA002813D1029B2A000F
:10E8C40020330793039B08A9009307A83300FFF79D
:10E8D40015FA029B29330293002803D1049B0133C8
:10E8E40004939AE704009CE7059B19809DE70000C8
:10E8F4008205920D830A012B19D0032B19D0042B06
:10E9040019D0052B19D0082B19D000203F2B0DD17D
:10E914003A3B0F49DB00CB1858685988002805D0CA
:10E924000C234B43C31898420BD10020704700239B
:10E93400EFE70123EDE70223EBE70323E9E70423F1
:10E94400E7E701888905890D9142EFD00C30EAE7A9
:10E954009CEA0518002310B502000648D9000C5C97
:10E96400944201D1401810BD0133092BF6D1002087
:10E97400F9E7C046D0EF05180200002310B5054999
:10E98400DC0060180C5D944203D00133182BF7D1DE
:10E99400002010BD18F00518424248424236424851
:10E9A40048484200424248484848004242483842A7
:10E9B40000424838424800424248424236423642C7
:10E9C40036424848484200424236344200424233CA
:10E9D40032420042424842420042424842423642A7
:10E9E400424842004248424242426E42004242424F
:10E9F400484200424242364200424248484842426B
:10EA0400364242484200424848484C004248334259
:10EA1400334242424236424242424242424200422F
:10EA24003842004848424242364242420042333170
:10EA34004200424848424200484842423642424824
:10EA4400484848484800424835420048384248311E
:10EA54003642004236423136423136420048424262
:10EA64004248004248484800424248480042424224
:10EA74003642484842004236424200424242424202
:10EA8400426E420048424848420036344242004204
:10EA940042484248480000000100020070EF051897
:10EAA40003000900CCEA05180400040038EB05183B
:10EAB4000500010088EF05180800560068EB0518EA
:10EAC4003F00050094EF0518010C000824EA05181E
:10EAD40034EA0518030C00000000000034EA0518AD
:10EAE4002D0C1103E5E90518E4E90518310C0001C2
:10EAF40034EA051834EA0518330C000795EA0518BA
:10EB040034EA0518350C401E3DDD051834EA0518B5
:10EB14007B0C1102FB7D06186DEA05187C0C1104B0
:10EB24006EEA0518FA7D0618630C000824EA051835
:10EB340034EA0518011000000000000093EA0518EB
:10EB44000210000000000000CCE9051803100000CA
:10EB54000000000023EA051809100000000000006E
:10EB6400F9E905183920422AA5E0051834EA051800
:10EB74003620021910EA051890EA0518372002FF1A
:10EB840082EA051834EA05180120020824EA051867
:10EB940034EA05180220020000000000E4E9051828
:10EBA400032002000000000023EA051805200206E5
:10EBB4005EEA051834EA0518072002000000000088
:10EBC40090EA05180620020F27EA051834EA05180A
:10EBD4000820022031EA051834EA05180920022029
:10EBE40031EA051834EA05180A20020134EA051846
:10EBF40034EA05180B20020736EA051834EA05182A
:10EC04000C20020290EA051834EA05180D200219B6
:10EC14003CEA0518000000000E200200000000007D
:10EC240034EA05180F2002000000000090EA0518DD
:10EC3400102002000000000034EA05181120020729
:10EC4400F9E9051834EA051812200207F9E905184C
:10EC540034EA05181320130E127E06180000000073
:10EC6400142002054CEA051834EA0518152013028D
:10EC7400FB7D06184AEA051816201302FB7D0618C8
:10EC840000000000172002205AEA05185CEA051863
:10EC9400182002000000000023EA05181920131CA4
:10ECA4004FEA0518000000001A20131252EA051852
:10ECB400FA7D06181B201302FB7D0618FA7D061840
:10ECC4001C2002000000000023EA05181D20020198
:10ECD40034EA051834EA05181E2002032DEA051843
:10ECE40034EA05181F20020000000000FA7D06180F
:10ECF4002020130E127E0618FA7D06182120130315
:10ED0400E5E90518FA7D06182220130668EA0518B5
:10ED1400FA7D061823200200000000006DEA0518A1
:10ED2400242002046EEA051834EA0518252002009E
:10ED3400000000000000000026200240CDE9051874
:10ED4400000000002720022757EA051834EA0518B6
:10ED540028200207F9E9051834EA051829200200D9
:10ED64000000000034EA05182A2002000000000018
:10ED740090EA05182B200207F9E90518F9E90518A6
:10ED84002C200207F9E90518F9E905182D200201DC
:10ED940034EA051834EA05182E200202FB7D061811
:10EDA40034EA05182F20020000000000A9E9051824
:10EDB40030201302FB7D0618D8E905183120020320
:10EDC4002DEA051834EA05183220130761EA0518FC
:10EDD40000000000332002032DEA051834EA051868
:10EDE400342002041EEA051834EA05183520020707
:10EDF400F9E9051834EA0518382002FF82EA0518F3
:10EE040034EA05183A20020000000000FA7D0618D2
:10EE14003B2002000000000090EA05183C2002019B
:10EE240034EA051834EA05183D2002000000000009
:10EE340034EA05183E20020767EA051834EA051883
:10EE44003F2002FF83EA051834EA05184020020235
:10EE540090EA051834EA05184120420D99DF051897
:10EE640034EA0518422002066CEA051834EA05184B
:10EE74004320423AD9DD0518000000004420020E68
:10EE840071EA05180000000045200200000000009F
:10EE940034EA051846200202FB7D061834EA0518F8
:10EEA400472002087AEA051834EA051848200208BF
:10EEB4007AEA051834EA0518492002000000000027
:10EEC40034EA05184A2002000000000090EA051800
:10EED4004B200200000000002DEA05184C2002001F
:10EEE400000000006DEA05184D2002046EEA0518C2
:10EEF40034EA05184E2002087AEA051834EA05189F
:10EF04004F2002527FEA051834EA051850200252B5
:10EF14007FEA051834EA051859200203E5E90518C3
:10EF240034EA05185A20130668EA0518FA7D06180B
:10EF34005B20130576EA0518FA7D06185C200308A1
:10EF440088EA0518FA7D06185D20020675EA051898
:10EF540034EA05185E2002418EEA0518000000001C
:10EF64005F20020134EA051834EA05180604110387
:10EF7400E5E90518000000001D041102FB7D0618D8
:10EF84000000000005141102FB7D0618E4E90518D1
:10EF940011FC080134EA051834EA051812FC0800CB
:10EFA400000000000AEA051813FC13046EEA0518B1
:10EFB400FA7D061814FC130576EA0518FA7D06187E
:10EFC40015FC130668EA0518FA7D06180501000009
:10EFD400E4E9051808010000E4E905180C01000043
:10EFE40094EA05181000000034EA05181101000025
:10EFF400FB7D0618130200006DEA05181A000000D4
:10F0040034EA051830010000FA7D061857010000A3
:10F01400FB7D0618010000009CE9051802000100B0
:10F02400C7E7051803010000A8E90518040100005A
:10F03400AFE9051805010000B5E90518060100004F
:10F04400F17D061807010000F17D06180A00000092
:10F05400BBE9051808000000CBE905180900000009
:10F06400D1E905180B0001009DE605180C0100000C
:10F07400D7E905180D000100BFE405180E000000D3
:10F08400DDE905180F000000E8E90518100000008C
:10F09400FA7D06181100000034EA05181200000079
:10F0A400F1E9051813000000F7E905181401000040
:10F0B400E4E905181500010035E3051816010100FF
:10F0C4008DE105181701000063EA05181800000017
:10F0D400FDE9051810B50822002102481FF086FF3B
:10F0E40010BDC046D8BA00001123FA2802D9024B39
:10F0F4005980002318007047D8BA0000084B094A09
:10F104001B681278D2189A4203D1074B187000205A
:10F1140005E00133591E09780029F4D00C2070470A
:10F124009CBA0000D1BE0000D8BA0000034B1A7884
:10F13400002A02D0DA880132DA807047D8BA000097
:10F14400044A0021D388834201D91B1A99B2D18081
:10F154007047C046D8BA0000064A1378002B07D07F
:10F164005388D2880020934201D99B1A98B27047E1
:10F174000148FCE7D8BA0000FFFF0000F7B50F0014
:10F184004A688021436806008068D51A0090B868F0
:10F194002D012D09090501908D4227D99B1A1B01C8
:10F1A4001B095D42002B03D1019B009A93421FD897
:10F1B400019B3F690524D819009BC01A002834DD3F
:10F1C4001B490138FEF764F8E8422ED4009B3069ED
:10F1D400013C1818019BC01AC01B002825DC1549E6
:10F1E400FEF756F84419E40F03341EE0002DDBD07B
:10F1F4000024009B36699E19019BF61AA64214DD71
:10F204000C49701EFEF744F84019A0420DDC386921
:10F214000134301A002808DD06490138FEF738F8B1
:10F2240045196C1E2C43E40F01342000FEBDC0467A
:10F23400710200008FFDFFFF37B568461CF0A4FE85
:10F24400019B9C2019009131FF31009A800081427A
:10F2540004D9E13B19000132120112090F4B1B685A
:10F26400002B12D00E485C6800780E4D201A000165
:10F2740000099C68831A1B011B09AB420BD89042FE
:10F2840001D1A14204D2210002E001201900404230
:10F294001DF0D2F837BD1000FAE7C046E0BA00000E
:10F2A400E8BE0000FEFFFF07394BF0B5DD68002320
:10F2B40085B003900093002D07D1354BDB68002BFC
:10F2C40001D01DF007F905B0F0BDAA8A2B6802939E
:10F2D400930B5AD03F233F2011110B40014254D0CD
:10F2E4000024A97D303810400918A9752949013B2B
:10F2F4001B010A4013439BB2AB82039E9B0B0193F9
:10F30400002E0DD1224E2A00300000990C301EF040
:10F31400D9FC2A00210030001EF072FD009D34E06B
:10F3240031002800FFF72AFF0028EBD0052802D17E
:10F3340034003668E4E7B368326917499F18380027
:10F34400FDF79EFF73681449C4183800FDF7A8FF41
:10F35400AB688B428941494264182401019B24090A
:10F364006C60012BE4D98023E8681B05071B3F016F
:10F374003F099F4203D9271A3F013F097F420649AB
:10F384002869FDF77DFFB842D2DD0095029D92E722
:10F39400E0BA00000FFCFFFF71020000013810B555
:10F3A400012809D8054C20001EF0ECFB20000C308D
:10F3B4001EF0E8FB0023A36010BDC046E0BA0000C5
:10F3C400F0B5854B01690400CA18844B87B09A4292
:10F3D40004D9834B002203201B6898479C23A2680E
:10F3E4009B009A4205D900227D4B110001201B6825
:10F3F40098477C4B1B68984704A81CF0C5FD7A4BC2
:10F40400049A1B7805999B18FA2292001B0189180B
:10F41400793A1B09FF3A914215D86568734EEA1A86
:10F424001201A08A1209B24204D89D4219D1A268DD
:10F434008A4216D2820B0CD101256D4B1B6898476A
:10F44400280007B0F0BD644801331B0109181B09EB
:10F45400E1E7A26863608A4203D201331B011B09FE
:10F464006360800B012812D98020E168636800057D
:10F47400CA1A12011509854203D95B1A1B011B091B
:10F484005D425C492069FDF7FBFEA842D4DC5A4B7F
:10F494009D68002D00D11D680026029601960396F2
:10F4A400002D6FD0A54205D100224D4B1100012043
:10F4B4001B68984729002000FFF760FE002861D0F0
:10F4C400052813D0A17DAA7D914230D94A4B9B686F
:10F4D400AB422CD0019B002B00D101950223984311
:10F4E4000136C0B2F6B2029501284BD0A38A9B0B19
:10F4F400012B13D98021E26863680905D71A3F01FB
:10F504003F098F4203D99F1A3F013F097F4239497E
:10F514002069FDF7B5FEB84200DD8DE7364B9A68E9
:10F52400AA424FD0002E00D103952D68B8E7A38AD4
:10F534009B0B18D0AB682A692E499F183800FDF739
:10F544009FFE6B682B49C6183800FDF7A9FEA36817
:10F554008B42894149427618360136096660002695
:10F5640002960196C2E7914200D865E7224B9B6858
:10F57400AB4200D060E7C31EDBB2012B00D95BE7CE
:10F584000328B3D1019B1C4D002B0AD02800029AFA
:10F5940003991EF0CDFB2800029A01990C301EF04D
:10F5A4001DFB039B002B0FD02200190028001EF026
:10F5B40027FC0025019BAB4200D13EE72000FFF76A
:10F5C40073FE3AE71D686BE7210028001EF026FB56
:10F5D400FFF732FEEDE7C0468FFDFFFF0F18060070
:10F5E40024BF0000B0BE0000E8BE0000FEFFFF071D
:10F5F400B4BE000071020000E0BA0000174B70B501
:10F604001B6806000C009847002E05D10024144BFB
:10F614001B689847200070BD124DAB68B34202D1FD
:10F624000024AC60F3E7002CF0D12B689E4205D196
:10F6340028001EF005FBFFF7FFFDE8E73100280076
:10F644001EF008FB0028E1D1280031000C301EF028
:10F6540001FB0028DAD10224D9E7C046B0BE00007D
:10F66400B4BE0000E0BA0000F0B5374E85B034688F
:10F6740002A81CF089FC002C06D1F368002B5FD192
:10F68400FFF7DAFD05B0F0BD0625039B6268019320
:10F694002E4B029F1B78ED1BD31A5A192C491201C9
:10F6A40012098A4208D806331B011B09BB4227D121
:10F6B400A368019A934223D230001EF0C1FA0100DC
:10F6C40030000C301EF074FA3468002CD5D01F4B77
:10F6D40062681B78D31A5D191D4A2D012D099542C4
:10F6E40008D806331B011B09BB4209D1A368019A40
:10F6F400934205D20022174B110001201B68984742
:10F70400124B62681B781249D31AFA43D2181201B9
:10F7140012098A4208D8013B1B011B09BB42ACD128
:10F72400A368019A9342A8D830001EF089FA83692D
:10F73400B060002B00D098473468002CE0D19CE7DF
:10F744001CF0C8FE9CE7C046E0BA0000E8BE00001A
:10F75400FEFFFF0724BF000070B50F4E30000C30D1
:10F764001EF070FBC4B263B2002B00DC70BD30002D
:10F774000C301EF065FA051E05D1084B020001008D
:10F784001B68012098472B6A002B01D0280098475A
:10F79400013CE4B2E7E7C046E0BA000024BF000041
:10F7A400124B13B51C68002C1CD068461CF0ECFBF3
:10F7B4009C22019BC8219200D21A00234900914245
:10F7C4005B41009A01339B181B0162681B09D21A22
:10F7D4000749120112098A4200D9636060681CF06B
:10F7E40003FE13BD01204042F9E7C046F4BA00000D
:10F7F400FEFFFF07013810B5012802D801481EF0AA
:10F80400C1F910BDF4BA000013B568461CF0BCFB86
:10F814000E480468002C17D06268009B9B1A0C4A9F
:10F824001B011B0993420DD81EF00AFAA168002996
:10F8340002D020008847E8E7064B0A0001201B6835
:10F844009847E2E7FFF7ACFF13BDC046F4BA0000E7
:10F85400FEFFFF0724BF000073B51D4B04001B68A7
:10F86400984768461CF090FB9C22019BFA21920069
:10F87400D21A0023490091425B41009A01339B183C
:10F884001B0162681B09D21A124D12011209AA4205
:10F8940000D96360002110480268002A08D10029B9
:10F8A40010D022001EF0ACFA0C4B1B68984773BDB5
:10F8B400536866689B1B1B011B09AB42EFD91100FF
:10F8C4001268EAE721001EF0A9F9FFF769FFEBE7E8
:10F8D400B0BE0000FEFFFF07F4BA0000B4BE000093
:10F8E4000F4B70B51B68050098470E4C23689D426A
:10F8F4000ED120001EF0A4F92368002B05D10024AA
:10F90400094B1B689847200070BDFFF749FFF6E7D5
:10F91400290020001EF09EF90028F0D10224EFE710
:10F92400B0BE0000F4BA0000B4BE000070B5144DBF
:10F9340004002B00FF335A78824204D0114B01009B
:10F944001B68032098472B00FF33D978002904D182
:10F954000C4B0A0001201B68984724012B19197BC2
:10F96400002904D1074B0A0001201B689847291974
:10F974004B68002B03D0022289682859984770BD30
:10F98400FCBA000024BF000070B5144D04002B0025
:10F99400FF335A78824204D0114B01001B680320C4
:10F9A40098472B00FF33D978002904D10C4B0A0067
:10F9B40001201B68984724012B19197B002904D1C5
:10F9C400074B0A0001201B68984729194B68002B34
:10F9D40003D0032289682859984770BDFCBA0000F7
:10F9E40024BF0000F8B5284C05002300FF33D97864
:10F9F400002904D1254B0A0001201B6898472E01D9
:10FA0400A7193B7B002B31D0214BE81800011CF0D7
:10FA140033F98006400F062828D17B68002B1ED0BE
:10FA24000422B968A05998472300FF335A78AA42A0
:10FA340003D10F20013505405D7000232200A61973
:10FA4400FF323373D378013BD370FF34E378012B57
:10FA540013D10F22637801331340A370F8BD0B4A0E
:10FA64001900176801201A00B847DDE70022074B88
:10FA7400110001201B689847E7E7002BEED1802096
:10FA840080001CF047FCE9E7FCBA000024BF00003A
:10FA940000040005F8B5304E04003300FF335A78F3
:10FAA400824204D02D4B01001B68032098472C4B45
:10FAB400E01800011CF0E0F83300FF33D978850624
:10FAC4006D0F002904D1254B0A0001201B689847BB
:10FAD4002701F3191B7B002B05D1204B22002900A1
:10FAE40003201B689847EB1E022B05D900221B4BF1
:10FAF400110001201B689847F1194B68002B23D093
:10FB0400043D6A426A418968F059D2B29847002399
:10FB140032000F25F719FF323B73D3789178013BFC
:10FB2400DBB2D370A14206D001342C402201B218BA
:10FB3400127B002AF6D0FF367470002B03D180208C
:10FB440080001CF0E7FBF8BD044A19001568012089
:10FB54001A00A847DBE7C046FCBA000024BF000037
:10FB640000040005013870B5012816D8822200214E
:10FB74000A4852001FF03AFA38261825084C20008B
:10FB84001CF07AF80100B1432943200089B21CF02B
:10FB940085F8044B10349C42F1D170BDFCBA0000CE
:10FBA40000400050004100500C4B70B51C6825010A
:10FBB4002D0F230702D52800FFF7E6FEE30602D542
:10FBC4002800FFF7B3FE630702D5200FFFF70AFFF3
:10FBD400A30702D52800FFF75DFF70BD2400005085
:10FBE400F0B5A94E85B03300FF339A780400009233
:10FBF4005A780099881A0F2108400290DB78002B6C
:10FC040008D0009B9A4205D1A04B009A0320110012
:10FC14001B6898470F20009B6268013B03400193D7
:10FC24001B01F3589A4205D10022984B11001B681E
:10FC34000E389847009B964A07279D182D012800E7
:10FC44001CF01AF8C0103840012800D0FAE0330044
:10FC5400FF3359788D4B03201B68009A9847029B09
:10FC64000D2B1BD9894B1B680393009B981E0F23F4
:10FC74001840874BC01800011BF0FEFF844A019B0B
:10FC840094466344070018011BF0F6FF0721C210D5
:10FC9400FF100A400220039B394098470127009B2C
:10FCA40061681B01F150F618236989B2B3602368B7
:10FCB400377373609C26A81C1BF0F0FF6368281D33
:10FCC4001901090D1BF0EAFFA368B600B34205D978
:10FCD40000226E4B110038001B689847A368F61A7F
:10FCE400B6B2B30A05D00022684B110001201B688C
:10FCF4009847A81D31001BF0D1FF2F008023E06836
:10FD04000A371B02984200D2A5E0624B1900C018C2
:10FD1400FDF7B6FA0600030405D500225B4B11007B
:10FD240001201B6898475C49314389B238001BF0B5
:10FD3400B5FFA37D1A1C1F2B00D91F22617DD2B2EF
:10FD440012020B1C1F2900D91F232800D9B211430A
:10FD54000C301BF0A3FFE17D504F0B0201933B429B
:10FD640005D00022494B110001201B6898472E0042
:10FD74000E3630001BF080FF019B07401F4330000C
:10FD8400B9B21BF08BFF637E002B3BD1702128009E
:10FD94000D26237E083059435131FF3189081BF069
:10FDA4007DFF029B3E489E42B6417642B3020193D8
:10FDB400237F227DA67E002B51D0E77E141C1F2AB0
:10FDC40000D91F24E4B23602E402064205D0002220
:10FDD4002E4B110001201B689847FF0180233A0035
:10FDE4009A4305D00022294B110001201B68984733
:10FDF4004221019B33431C4327433943280089B2E2
:10FE04001BF04CFF0F23009A9A4305D000221F4B8E
:10FE1400110001201B68984780230F218020009A3D
:10FE24001B0613431F4A80001360174BFF339A7855
:10FE340001320A409A70DA780132DA701CF0CAF89A
:10FE440005B0F0BD28001BF017FFC0100740022FBB
:10FE540000D004E7FBE60130400881B266E7141CD9
:10FE64001F2A00D91F24E4B23602E402064205D058
:10FE74000022064B110001201B6898470221019BB8
:10FE840033431C432143B9E7FCBA000024BF0000FC
:10FE940000040005710200000080FFFFFFE0FFFF87
:10FEA400FFFEFFFF00010050F0B593B01C0002906C
:10FEB4000E910492002809D1002A75D10022B74B73
:10FEC400110001201B68984701236BE0002CF5D03A
:10FED40063680393A3890D930023802510A80B93D3
:10FEE4001CF052F8109B2D051D402B005A1E934107
:10FEF400DBB20193039B002B05D1A84B039A01208D
:10FF040011001B6898470022A54B1A60A54B1B786B
:10FF1400934258D1A34B019A1A70029B012B6AD1C8
:10FF240023680593059B002BCED0039B002BCBD0DD
:10FF34000B9B0193029B012B01D1A36801939A4B64
:10FF44001E68002337000A930993039B013B0F9318
:10FF5400002F00D1C0E0019B059A93421BD2029B63
:10FF6400002B4BD10E9B002B48D03B697D68069338
:10FF7400002D51D0069B002B4ED0BB8A0D9A934284
:10FF84004AD0059B2C009D4200D91C00069B039A75
:10FF94009B18A34234D90A9B002B02D0804B099AA8
:10FFA4001A6003230293B6E0049B9B6803930E9BA1
:10FFB400002B02D0049BDB680393049B1B8A0D93E4
:10FFC400049BDB7C89E7002DA4D18026764B760543
:10FFD4001D68002D9ED06F68AB683900FB18300097
:10FFE4000593FDF75DF9059B581A3900FDF758F99B
:0CFFF400A9602D68EDE7049B5B6992E7B3
:020000041806DC
:10000000FB68B5E721000598FDF74CF9002905D1FB
:1000100021002800FDF746F9002902D03F68019928
:1000200032E02100B868FDF73DF9069B0D005B1832
:100030000C932100013B01980893FDF733F98C469E
:100040000F9B0691634407938D4200D9B0E0089B53
:100050008B4207D2079B9D4218D8089B079A934270
:1000600000D298E0029B012B32D021000C98FDF7C2
:1000700019F9019B8B4224D201230B9A0B40002AD1
:1000800021D0002B22D03700019163E7069B9D42CF
:1000900003D1089B079A9342E4D9089B9C4206D857
:1000A00018002100FDF7FEF8069B9942DAD2079B63
:1000B0009C42B3D821001800FDF7F4F8A942ADD353
:1000C000D0E70919D5E73700002BDDD00131DAE799
:1000D00001230997059937000A93D5E70A9B002B5E
:1000E00002D0304B099A1A60019B059A934200D3C3
:1000F00059E7029B002B4CD1049B019A5F699A61DE
:100100001B8A06937B1E9B180593002E08D139008D
:100110000598FDF7C7F8049BD961029813B0F0BDAC
:10012000B38A069A934217D07568BD4200D93D0044
:10013000002D05D11A4B2A00290001201B68984781
:1001400029003800FDF7AEF8002905D129007068B4
:10015000FDF7A8F8002901D03668D6E72900B06875
:10016000FDF7A0F80C00019BA34210D2039A9B1844
:100170009C4205D200220A4B110001201B689847BF
:10018000039BE41A059BA342E6D90594E4E76419AE
:10019000E9E7002308E7069B9D4200D27DE761E77F
:1001A00024BF000000BC00000CBC000004BC000028
:1001B000079B9D4200D855E76BE7C046013810B554
:1001C000012805D80022034B03481A701DF0DCFCFF
:1001D00010BDC0460CBC000004BC00001FB5C168C7
:1001E0000400002904D1184B0A0001201B6898471D
:1001F0006A46636801200093E3680193A38A9381B0
:100200000022A368110002936B46FFF74FFE0328FC
:1002100009D10E4B1B68002B05D0A1699A690029F2
:1002200006D1002A0BD1210009481DF0C3FC1FBDD7
:10023000002A03D0A17D9A7D914200D32300988AA1
:100240009B699847EFE7C04624BF000000BC000050
:1002500004BC000010B5010001481DF0FDFC10BDFC
:1002600004BC0000F7B503684668040046610193CA
:100270009E4216D92B4B01271A6800237F42002A81
:1002800022D1002B2CD1A57C002D48D02900300094
:10029000FCF7F8FF4543019BAB4202D8AE4200D3C6
:1002A00065610023220001211800FFF7FFFD0028EF
:1002B00009D0A368E268934205D200232200190006
:1002C0001800FFF7F3FDFEBD908A218A884205D011
:1002D00051680133DBB28F4200D90F001268CEE7BC
:1002E000BE4206D339003000FCF7CCFF784305004E
:1002F000D1E7012500966D4238000099FCF7D2FF46
:100300000023994201D1009D0133009A023A0092E4
:100310000099019A8A42BED8002BEDD0BBE7012597
:100320006D42BBE704BC0000002210B503001100C1
:100330000120FFF7BBFD10BDF0B58DB001240A917F
:1003400001920293002A37D0029B002B34D0129BDB
:100350001D88139B1B8804939D422DD8464B1B6818
:100360000793029B079E013B9BB209931300029ADD
:100370009B1A9BB20693039383B20B93002E00D17A
:1003800075E0049BAB4200D273E00A9BFF2B16D1B1
:100390000024049BAB4200D86BE05F1B039B9F4291
:1003A00000DD1F0028000199FCF77CFF129B89B239
:1003B0001980139BC919198020000DB0F0BD776812
:1003C000002F23D0F3680593002B1FD07F22B38A20
:1003D00013400B9A934219D0019CBC4200D93C00B7
:1003E000A3B2059A0893029B9B189C423DD3B36825
:1003F0000198A1B20893FCF755FF89B2002905D1F5
:1004000021003800FCF74EFF002901D03668B5E71F
:10041000089B2800E318A1B21F00FCF743FF88B235
:10042000381A2100FCF73EFF05988BB201380F0007
:10043000401821000893FCF735FF099BBAB289B236
:10044000934201D28A4206D90135069B6918079E5C
:100450008DB2039392E7039B029A9B18BB42D5DDB2
:10046000089B9B1A9BB20393D0E7032491E73400C7
:100470008FE70324A0E7C04604BC0000F7B52B4F6C
:100480002B4DBB89BE68AB8001235B422B60294B9F
:100490000193002E15D1019A274B5343AA889A4203
:1004A00000D91A00AA807A68531C09D02B68591CFD
:1004B00005D09B1A21491B011B098B4200D92A60D8
:1004C000F7BD002380221206DA40164202D1013322
:1004D000202BF7D11F22D31A0093194B009A1B78B7
:1004E000934205DC0022174B110001201B6898473E
:1004F000009BDA00144B1B689B181C68002C0FD063
:1005000098880D49FCF7BEFE241AA4B2022C01D92A
:10051000023CA4B2019BA34200D923009BB20193E9
:100520000123009A93409E43B3E7C04614BC0000E9
:1005300024BC0000FFFF000071020000FEFFFF0767
:10054000D1BE000024BF000010BC000037B5013848
:10055000012822D8114C1022002120001EF048FD55
:100560000F4B00211A780F4BD20018681EF040FD87
:1005700001230D4D5B4263602B606B46D91D022346
:1005800022000B70094B17201B680C32984700287B
:1005900001D0074BA381A389AB8037BD14BC0000F9
:1005A000D1BE000010BC000024BC0000DCBE000076
:1005B000E45700000122824010B503490B78134331
:1005C0000B70FFF75BFF10BD14BC000001228240DE
:1005D00010B503490B7893430B70FFF74FFF10BD25
:1005E00014BC00000300012070B505009D40084ABE
:1005F00014782C431470022B03D15160FFF73EFF97
:1006000070BD0022034B11001B689847F6E7C046F7
:1006100014BC000024BF00000300012010B504003A
:100620009C400B4A1178A1431170022B0AD1033B65
:100630005360FFF723FF074B1B68013301D114F010
:10064000BDFD10BD0022044B11001B689847F0E768
:1006500014BC000024BC000024BF0000033810B507
:1006600001280ED80A48CC000068001983800123B5
:100670008B400260074A91680B439360FFF7FEFED0
:1006800010BD0022044B110001201B689847F5E7BC
:1006900010BC000014BC000024BF0000033810B5DB
:1006A00001280DD800200A4BCA001B68D050012336
:1006B0008B40084A916899439160FFF7DFFE10BDB7
:1006C0000022054B110001201B689847F5E7C04642
:1006D00010BC000014BC000024BF000010B50400D2
:1006E00000F02EF8002C02D020000DF02BF8200096
:1006F00006F0CCFB200000F00BFC10BD70B580258F
:100700006D020B4A1368002B11D02B42FAD0094B13
:10071000094C1D60094B032019681A682368120CE4
:10072000984700220120110023689847E9E770BD2F
:10073000100000501400005024BF00006000005062
:100740007021F0B5814D0C262B780400181D414313
:1007500003209A1C56435431FF31361881438919BE
:100760007B4E8143377838267E43361889193026E8
:100770005E438143AB31361881438919754E8143FD
:10078000891946265E4381433618891912021218C8
:10079000814389182722534381431B18C91880239A
:1007A000814369318143E13181430918814309184B
:1007B00085B081431B02994204D9674B890A1B68A3
:1007C000073A9847002C05D0013C012C00D899E04D
:1007D00005B0F0BD2100202260481EF009FC5B4BF3
:1007E000702518785A4B41001A7838235A43083B31
:1007F0004343033301930C23071D84B20230434368
:1008000003269C467D435435FF35B444B5436544C7
:100810000332B5435519B543019BAB35B5435D195B
:100820004C4BB543ED18B543ABB24D4D02932B681D
:100830000139039323239C4609B24B1C56D17025E2
:100840000C266F4381B2704354376D3DFF37AF4381
:1008500040193818A8431218AA43019BAB32AA4387
:100860009A18AA4392B215003E483F4B0068D3182D
:10087000FB3D9BB24430ADB20380013BFF3B9BB2DA
:100880000838AB42F8D14623324E6343921903260F
:10089000601CB24303339B180500C2003348B343C6
:1008A00000689BB28018ADB22A02013D9A182DB2A1
:1008B000828008386A1CF6D12720090203315B18B0
:1008C000032144438B436418294A1B1912688B4344
:1008D00069338B431100B9339BB22C31043A0B803E
:1008E000253B08399BB28A42F9D171E766468DB241
:1008F0006E43029BC9009E19039B013D59188E80CF
:1009000029B29AE7154C2B7815492000082209686E
:100910005B001DF03DF920001249092308220968F7
:1009200008301DF035F920002B781049082209689D
:10093000023310301DF02CF920000D490623082247
:10094000096818301DF024F942E7C046D1BE000006
:10095000D3BE00000309000024BF00003CBC00001F
:1009600034BC000038BC0000050800002CBC0000AE
:1009700030BC0000064B10B51B68984705481DF0B9
:1009800061F90400044B1B689847200010BDC04665
:10099000B0BE00003CBC0000B4BE0000F8B50600CC
:1009A00070201D4B03241D7823212B1D58430C233D
:1009B000AA1C53435430FF301B19A043C018174BD7
:1009C000A0431A78382353431B19C01830236B43B4
:1009D000A043AB301B19A043C018114BA043C01853
:1009E000A043301AFCF74EFCC7B26D00AF4205DBE6
:1009F0000C4B3200390020001B6898470A4BFF005F
:100A00001B689847094B0A481968C9191DF0D2F8A4
:100A1000084B1B689847F8BDD1BE0000D3BE00004C
:100A20000309000024BF0000B0BE000034BC000079
:100A30003CBC0000B4BE0000044810B508301DF0F6
:100A400001F9002800D0808810BDC0463CBC0000E1
:100A500070B51B4B0C24197870230A1D53430322D5
:100A60008D1C6C435433FF33A41893431B19154C4E
:100A70009343257838246C43A4181B193024FF2590
:100A800061439343AB33934389185B180538934311
:100A9000C41A2C4203D1240AE3B2082B00D9FEE782
:100AA000094B2C401B689847084B09481968E4001B
:100AB000091908301DF07EF8064B1B68984770BD79
:100AC000D1BE0000D3BE0000B0BE000038BC0000A4
:100AD0003CBC0000B4BE0000074B10B51B68984733
:100AE000064810301DF0AEF80400054B1B6898470F
:100AF000201E00D0A08810BDB0BE00003CBC00008D
:100B0000B4BE000070B57024194B02001B7803209E
:100B1000191D4C430C219D1C69435434FF340918A2
:100B200084436418134984430D78382169430918B4
:100B30006418302159438443AB3409188443641842
:100B40000D498443641846215943844309186418A5
:100B50008443141B240AE4B20133A34203DA074B93
:100B600021001B689847064BE4001868001970BD07
:100B7000D1BE0000D3BE00000309000024BF000066
:100B80002CBC000070B570241E4B02001B780320A3
:100B9000191D4C430C219D1C69435434FF34091822
:100BA00084436418184984430D783821694309182F
:100BB0006418302159438443AB34091884436418C2
:100BC0001249844364184621594384430918641820
:100BD0008443141B240AE4B20133A34203DA0C4B0E
:100BE00021001B6898470B4BE4001B6898470A4B91
:100BF0000A481968103009191CF0DCFF084B1B6803
:100C0000984770BDD1BE0000D3BE000003090000AC
:100C100024BF0000B0BE00002CBC00003CBC0000A3
:100C2000B4BE0000074B10B51B6898470648183043
:100C30001DF008F80400054B1B689847201E00D0E3
:100C4000A08810BDB0BE00003CBC0000B4BE0000D7
:100C500070B505007020264B03241A78111D4843F7
:100C60000C21931C59435430FF300919A0434018FC
:100C70002049A0430E7838217143091940183021CA
:100C80005143A043AB300919A04340181A49A0436F
:100C9000401846215143A043091940181B021B1953
:100CA000A043C01827235A43A04312198018A04319
:100CB0006930A0432521281AFCF7E4FAC6B2C0B275
:100CC000052805D90D4B2A00310020001B689847E4
:100CD0000B4BF6001B6898470A4B0B4819681830F5
:100CE00089191CF067FF094B1B68984770BDC04607
:100CF000D1BE0000D3BE00000309000024BF0000E5
:100D0000B0BE000030BC00003CBC0000B4BE00001F
:100D100010B502000C000123002103481BF046FF20
:100D20000470FCF7CFFA10BD0111000010B50200ED
:100D30000C000123002103481BF038FF0470FCF76E
:100D4000C1FA10BD02110000F7B500240090019116
:100D5000124D2B78A3421BD94426114F66433B68A2
:100D600099190B0040331B78092B02D00134E4B2EF
:100D7000EEE7009820311CF07DFC0028F6D03B689F
:100D8000019A9E190736F37F534001221342EDD199
:100D90002878844280414042FEBDC046D1BE00005A
:100DA0005CBC0000F0B5002485B001900291039274
:100DB000174D2B78A34225D94426164F66433B682E
:100DC00099190B0040331B781A000E3A012A04D9F6
:100DD000112B02D00134E4B2EAE7019820311CF073
:100DE00049FC0028F6D03B68029A9E19330036333E
:100DF0001B78534001221342ECD12E363378039AEC
:100E00009342E7D1287884428041404205B0F0BD4A
:100E1000D1BE00005CBC000030B500200A240125D2
:100E2000074B1968074B1B780133220042438A188D
:100E3000527A2A4203D00130C0B28342F5DA30BD83
:100E400060BC0000D1BE0000F7B5050000240A26F2
:100E5000012701910D4B186833006343C018437A92
:100E60003B4208D10A4B01341B78E4B20133A34260
:100E7000F0DA2000FEBD037A019A9342F2D12900F4
:100E80001CF0F8FB0028F4D1ECE7C04660BC000081
:100E9000D1BE0000F7B505000024272601270191E7
:100EA0000C4B1B78A34213D90B4B186833006343D8
:100EB000C0188379FF2B02D10134E4B2F0E7019A24
:100EC0003A409342F8D129001CF0D4FB0028F3D01B
:100ED0002000FEBDD3BE000064BC00000A4B1878A1
:100EE0000A4B1A6800230632984205D027321100B7
:100EF00027390978FF2904D0C01A43425841C0B2AB
:100F000070470133DBB2EFE7D3BE000064BC0000E2
:100F1000F0B585B0012821D0022800D1BDE000281D
:100F200002D161491CF062F905B0F0BD2A005F4BA7
:100F300062431B68D058002802D00C381BF08AFE90
:100F40000134E4B25A4B1B78A342EFD800210420AD
:100F50001BF088FD002106201BF084FD554CF42277
:100F6000002120001EF044F82722534B00211B785B
:100F700006265A43514B1B68180001931EF038F89F
:100F800044224B4D00212B785A43484B18681EF0E1
:100F90002FF80A222B78002102335A43484B1F2591
:100FA00018681EF025F82300E122543392001A80BD
:100FB000444B08226362444B4449638544481DF016
:100FC000FBFF0122434B52421A60FF210532424887
:100FD00025771EF00DF8A31CDD7702AB3F4D5E7147
:100FE0003F4B02A92A0001201B68053198470028C1
:100FF00004D0320028003B491DF0DEFF20230125EC
:10100000374F02AA537102AB591D374A3B68802003
:10101000984702AB9E1D02A95D71320015203B6806
:1010200005319847002801D133781D402300EF3364
:101030001D70012502ABDE1D5D71294B02A9320036
:1010400019201B6805319847002801D133781D40CD
:1010500023000126F0331D7002AB244D5E71204B3E
:1010600002A92A0016201B6805319847002800D0E5
:101070002E70114A114B117827224A43FF211B6819
:10108000D2189A420CD1FA225434238892000021BB
:1010900006205A431BF04CFC46E70024442551E748
:1010A00099712733EDE7C046D01406185CBC0000E8
:1010B000D1BE000068BC0000D3BE000064BC0000CC
:1010C00060BC00001B00480107070000C41306189D
:1010D0006CBC000080BC000085BC000074BC00003B
:1010E000DCBE000030DB07189BBC000054BD0000D4
:1010F000012310B5094C83402268002906D08020C6
:101100001343400123601AF067FF10BD9A43226029
:10111000FBD1802040011BF0FFF8F6E768BC00001F
:10112000F8B544241E4E4443336800211F190500BE
:10113000FFF7DEFF0022336804371B1940331A70B3
:101140003800FFF787F833681819C31DD97F20309E
:10115000FFF77AFE134B1B78013383420EDB0A2222
:10116000114B42431B689B185B7A9B0706D533687B
:101170001919CB1DDA7F20310CF022F830680019E4
:10118000C31DD97F2030FFF785FE084B1B788342B3
:1011900002D900210CF016FE2800FCF7F9F8F8BD82
:1011A0005CBC0000D1BE000060BC0000D3BE0000EB
:1011B0000048704785BC0000054BC2089B180722F9
:1011C0001B79104003411800012318407047C046A6
:1011D00068BC000000487047CC130618024B5A3315
:1011E0000020185E7047C04668BC0000024B5833B0
:1011F0000020185E7047C04668BC00004423034AC4
:1012000043431068C01804307047C0465CBC0000FF
:10121000F7B50BF05DFF01900BF090FF0723002264
:101220009C46012465464549D310CB18197E1540CC
:101230002941214206D12100A9400D00597FA9432F
:10124000597713E03D49F031097800290ED091001B
:10125000019E4158C827711A0600090109097F013A
:101260009436B94235D2B1560131E4DB0132252A38
:10127000D8D1334E30001CF00BFA012817D80023C8
:10128000072501211F002D4CDA10A218147E2F40D3
:101290003C410C4208D00C00BC402700547F3C432A
:1012A0005477012803D008000133252BEAD100240C
:1012B00030000CF069FF2500224B1B78A34214DCA0
:1012C000002D37D0FA220021042012011BF030FB40
:1012D000F7BD0027B754FA26F601B142C6D921005E
:1012E000A9400D00597F2943AAE744236343164FC1
:1012F0000193019A3B689B181A0040321278092A20
:101300000BD10833DA7F002A07D1012321021943C8
:10131000022089B21BF086FC01253B68019A9B18CC
:1013200040331B780C2B03D13100E0B211F018FED2
:101330000134C1E7014B0333DD77C9E768BC000026
:1013400085BC0000D1BE00005CBC0000F8B50023E5
:10135000040044270E4A0F49037023781678B342DD
:1013600010D2380058430D682818050040352D78F4
:10137000002D0AD12022290020301DF039FE2378CB
:10138000B34200D307252800F8BD01332370E4E7FA
:10139000D1BE00005CBC00004423064A43431068F1
:1013A0000022C018030010B540331A700430FEF755
:1013B00051FF10BD5CBC0000014B18687047C0466F
:1013C00064BC00001F00000000000000FF79010F56
:1013D000000000000020024B0433D8777047C0465D
:1013E00068BC000070B522230D003E220021094890
:1013F0001BF0DCFB00260923040029000370467063
:10140000202202301DF0D8FD2000FBF75BFF3000EA
:1014100070BDC04604110000F8B53E220D00422305
:1014200000210F481BF0C2FB2026082300270400E0
:10143000037032002900477002301DF0BDFD20000E
:10144000A919320022301DF0B7FD2000FBF73AFF4A
:10145000044B31005B68044A802098473800F8BD8F
:1014600004110000DCBE00009BBC000070B511231D
:101470000D00094A002109481BF098FB691C040073
:101480000025102201301DF097FD20002570FBF78C
:1014900019FF280070BDC046172000000111000090
:1014A000FA2210B5064B920054331B880620002107
:1014B0005A431BF03DFA0BF045FE002010BDC0461C
:1014C00068BC000010B5FFF7A3FE002010BD0000AF
:1014D000DC1406185CBD00000100120007000000CB
:1014E0006D14061804000000C5140618050000005D
:1014F000D513061806000000A11406180800000005
:101500001914061809000000E51306180A02000065
:10151000496B0618020200003D3E06180702000053
:10152000A13E061808020000B1430618030000009F
:10153000255106180102000061510618060200003C
:10154000CD5E061803020000715706180402000061
:10155000CD58061805020000995C06180902000023
:10156000816706180511000001230618442130B5D3
:10157000104B1A68104B14001B7840345943002359
:10158000994201D1012030BDE05C851E012D05D8B6
:10159000D058C07C00280BD14433F1E7072802D192
:1015A000D0584078F6E70528F6D1D0580078F1E712
:1015B0000020E8E75CBC0000D1BE000030B50D4A59
:1015C0000124117844220C4B4A431B680B484033DA
:1015D000D218934201D1002030BD1978443311292B
:1015E000F7D80500CD40290025008D43F1D1012019
:1015F000F2E7C046D1BE00005CBC0000AC40020077
:10160000F7B5174A01911400EE34257803000C2138
:10161000012D1FD00A39217007781031022F19D8F7
:10162000FA2446886400A64214D285880D482C000E
:101630000A3CA4B284420DD89C7917232000984319
:1016400008D111002C310F70110032310C700100E3
:10165000D68515860198FFF75BFB0020FEBDC046CE
:1016600068BC0000F63F0000F8B503001A780800D7
:10167000140002210C400A4203D19D781031002D44
:101680002AD0012115000D400A4206D15A781131A5
:10169000002A21D0002C0AD101E0002C20D1072201
:1016A0009E7811213240964216D1002D08D15E78E5
:1016B0000722370011211740BE420DD1002C00D166
:1016C0009A78084C21002B310A700722002D00D196
:1016D0005A7800212A342270FFF71AFB0020F8BD47
:1016E0000722EEE768BC0000030070B51C88080004
:1016F00022001B3A1221E02A0BD85A88074D13000A
:10170000493BFF3B9BB2AB4203D80021044B9C8476
:10171000DA84FFF7FDFA002070BDC04648410000A2
:1017200068BC000070B50C000500FFF747FF0C21F6
:10173000002809D12B780631012B05D801220100A0
:101740001340044A563213702000FFF7E1FA0020DC
:1017500070BDC04668BC0000030013B540331B7861
:1017600002000C00002B0CD10D491E33C85C002870
:1017700013D1013BFAD20C212000FFF7D7FA002049
:1017800016BD084900201300019009300090203355
:1017900007381DF037F90100EEE70349F2E7C046CC
:1017A0009CBC00005A2306189BBC000002001E23AC
:1017B00013B50C000B49C85C002807D1013BFAD2D5
:1017C0000C212000FFF7B2FA002016BD0021130003
:1017D0000191093100910220034920331DF012F9D3
:1017E0000100EEE79CBC00009BBC000073B5080044
:1017F0000021FFF79BFA6A460123D3716B46154E11
:10180000941DD91D2200822033689847002801D0FA
:101810000023237020236A46D37123780E4D002BBA
:1018200009D069462A00802033680731984700288C
:1018300006D000232370002128001DF02FF902E0BC
:101840002378002BF7D02800002208211DF0FCF897
:10185000002076BDDCBE00009BBC000010B50A0075
:101860000A23002107481BF0A1F90024FB22064BA4
:10187000C2800381428083800470FBF723FD200037
:1018800010BDC046011100009042000010B50021BB
:101890000623074A07481BF089F90024064B9A8C57
:1018A0004280DB8C04708380FBF70CFD200010BDB0
:1018B000232000000111000068BC000070B5040086
:1018C000A026A025012300210F4A10481BF06EF925
:1018D0000223E15EF6008B199BB22D01AB4211D8B9
:1018E0000023E25E93199BB2AB420BD8084B1C005D
:1018F0005A331A800023583421800370FBF7E2FC2E
:10190000002070BD1223F8E74D20000001110000F7
:1019100068BC000010B500210623094A09481BF0E5
:1019200045F9094B00241A00583212885A33828034
:101930001B8804704380FBF7C5FC200010BDC04627
:101940004C2000000111000068BC000070B50E4A78
:10195000032300210D481BF029F90D4D00262B0013
:1019600006702C330400012118786B6998472B000E
:1019700060702D33012118786B699847A0702000A2
:10198000FBF7A0FC300070BD4B20000001110000EF
:10199000ECBE000010B50A000223002105481BF030
:1019A00005F90024044B04701B784370FBF78AFC94
:1019B000200010BD01110000D3BE000010B50A00C8
:1019C0000223002106481BF0F1F80024054B0470A7
:1019D0001B7802334370FBF775FC200010BDC04636
:1019E00001110000D1BE000010B50021074A0623F6
:1019F00007481BF0DBF8012300240371FA3343800E
:101A00000470FBF75FFC200010BDC0460220000000
:101A10000111000070B507230A00094800211BF0DE
:101A2000C5F800250400074906220C3101301DF0DD
:101A3000C3FA20002570FBF745FC280070BDC046A6
:101A40000111000068BC00000A0010B50A23002143
:101A500007481BF0ABF80923064A0381C280438084
:101A6000C632013302800371FBF72CFC002010BD4D
:101A7000011100003A090000F8B503780E005A423F
:101A80005A41124B05001B680024591E8B41442704
:101A900043219A4204D00E4B1B78A34205D8002163
:101AA0003000FFF735F90020F8BD3A00094B6243DA
:101AB0001B689B1840331B78092B03D12000297821
:101AC0000BF0A6F80134E4B2E5E7C04668BC0000BC
:101AD000D1BE00005CBC000070B5124B0400563350
:101AE0001B780D00002B04D0FFF768FD0C230028A5
:101AF00012D1E2791223012A0ED8217801290BD8BC
:101B0000601CFFF7C7F9084B1A780223824203D9F9
:101B1000E1790CF02BF9002328001900FFF7F8F801
:101B2000002070BD68BC0000D3BE000070B5092362
:101B30000021084A08481BF039F800250400082253
:101B4000064901301DF038FA20002570FBF7BAFB7A
:101B5000280070BD1C200000011100000C26061892
:101B600013B5010000240122034B103100941CF036
:101B7000CEF9200016BDC0467D1B0618002270B5A8
:101B8000112306000D00072011001BF00FF80400C0
:101B900029000670102201301DF00EFA20001BF003
:101BA00029F870BD70B50A000500072300210E4812
:101BB0001AF0FCFF122303702978040001290AD8C7
:101BC000681CFFF767F9094B1B78834208D9611C31
:101BD0000CF056F920702000FBF774FB002070BD5C
:101BE00002232370F7E7C04601110000D3BE0000B6
:101BF00070B50A000500072300210E481AF0D6FF31
:101C0000122303702978040001290AD8681CFFF701
:101C100041F9094B1B78834208D9611C0CF0FAF892
:101C200020702000FBF74EFB002070BD02232370C4
:101C3000F7E7C04601110000D3BE000003880C483E
:101C40005A1E92B210B50C00122182420AD8094ADB
:101C5000002154321380FA22920006205A431AF0CF
:101C600067FE00212000FFF753F8002010BDC0469A
:101C7000B7A1000068BC000010B5104B0C00563333
:101C80001B78002B04D0FFF799FC0C2100280CD105
:101C90000B4B1A680B4B197827234B43FF219B18DA
:101CA0009A4207D10BF022FD00212000FFF730F807
:101CB000002010BD91712732F2E7C04668BC0000D9
:101CC00064BC0000D3BE000070B506780D000400AF
:101CD0001221012E1DD8114B56331B78002B04D036
:101CE000FFF76CFC0C21002813D13100601CFFF7BA
:101CF000D1F80B4B04001B780221834209D90CF068
:101D000013F82720074B44431B6800211C19FF23AD
:101D1000A3712800FEF7FCFF002070BD68BC000026
:101D2000D3BE000064BC0000F0B5037889B00700A2
:101D300007910493012B06D912210798FEF7E8FFBB
:101D4000002009B0F0BD3E4B56331B78002B04D069
:101D5000FFF734FC0C210028EFD10024394B7E1C06
:101D60001B780593384B1D684035059BA34225DC45
:101D70000023300004990593FFF766F80022314BE9
:101D800004921B780133834208DB0A3250432F4B05
:101D90001B681818457AAD07EB0F049330003978AB
:101DA000FFF778F82A4B1A788242C5D80024294BCD
:101DB0001B680633A24211D10721BEE72B78092BFD
:101DC00007D129000622300020391DF0E7F800284D
:101DD00002D001344435C8E70123CAE7273319008C
:101DE00027390978FF2928D13B0017330693049B34
:101DF000FD1D0293059B200001933B782A003100D2
:101E00000093069B0BF0DEFE2720124B444318681C
:101E10003B780419A3710622791C20001DF0CCF830
:101E200010220699E01D1DF0C7F82000290010229D
:101E300017301DF0C1F800217FE70134E4B2B9E7A3
:101E400068BC0000D1BE00005CBC000060BC0000AB
:101E5000D3BE000064BC0000F8B50D000400FFF71D
:101E600085FB0C21002805D021788B1EDBB2FC2BD2
:101E700005D812212800FEF74BFF0020F8BD661C94
:101E80003000FEF7E1FF0D4B1B7801338342F0DB9E
:101E90000A22022142430A4B1B689A18537A0B42CA
:101EA000E7D05F0707D58B435372310022780BF0E0
:101EB00029FA0021DEE70321F5E7C046D1BE000084
:101EC00060BC0000F8B50D00FFF750FB0C210028A6
:101ED0001BD000240A26012731000F4B61431B68E9
:101EE00059184B7A3B4208D05A0713D50222934324
:101EF00020000A7A4B720BF005FA084B01341B786C
:101F0000E4B20133A342E7DA00212800FEF700FF24
:101F10000020F8BD0322EAE760BC0000D1BE00004B
:101F2000F7B505000191FFF721FB0C26002805D02D
:101F300029788B1EDBB2FC2B06D8122631000198C3
:101F4000FEF7E6FE0020FEBD6F1C3800FEF77CFFAA
:101F50001B4E040033780133834227DB0A22194BDE
:101F600042431B689B185B7A9B07E6D40A236343B2
:101F7000144E0093009A33683900981806221DF019
:101F80001BF83368009A29789B180322587A197233
:101F900002435A723800FEF7D7FE0026B042CDD178
:101FA000390020002A780BF00BF9C7E7FEF734FF61
:101FB00033780400023307269842D7D1BEE7C046E3
:101FC000D1BE000060BC0000F8B5164E0500043616
:101FD000F37F0F000C24002B04D104791F339C43A2
:101FE00006D0122438002100FEF792FE0020F8BD32
:101FF0001BF04EFB0138C0B22428F2D8290005227C
:1020000009481CF0D9FFFA222100920005201AF09D
:102010008FFC012321000420F3771AF023FDFFF742
:10202000F7F8DFE768BC000080BC0000F7B50500EA
:1020300000240191384B1B78A3420DD83749280062
:102040001BF018FB1221041E61D12900062234481E
:102050001CF0B2FF21005AE0442363430093314B4C
:10206000009A1B689B181A0040321278911E0129B1
:102070002DD92C4F009A3B689B181A0040321278D9
:10208000072A0CD11E68002E04D1274B2100032003
:102090001B689847022233789343012B32D0009A71
:1020A0003B689B181A0040321278052A0CD11E6832
:1020B000002E04D11C4B210003201B6898470222EC
:1020C00073789343012B1DD00134E4B2B2E7174972
:1020D000EE3109780129CCD11E68002E04D1124BB3
:1020E000210003201B689847102372881A4204D1EC
:1020F0000D4B210003201B6898470222F37A93437B
:10210000012BB6D1044B0C211B78A34296D9019820
:10211000FEF7FEFD0020FEBDD1BE000036DB071835
:102120007ABC00005CBC000024BF000068BC00005A
:1021300070B509230021094A09481AF037FD040047
:10214000FFF748F8002501000822601C1CF034FF4E
:1021500020002570FBF7B6F8280070BD03200000B2
:102160000111000070B50C00074D08220100280085
:102170001CF022FF28000421FBF72AF9200000218F
:10218000FEF7C6FD002070BD6CBC000010B50C0051
:102190000221FBF71DF901002000FEF7B9FD002028
:1021A00010BD10B50C000321FBF712F9010020004F
:1021B000FEF7AEFD002010BD10B50C008188008830
:1021C000FCF794FF01002000FEF7A2FD002010BDE7
:1021D000007810B50C001221032804D80123184000
:1021E000FCF78EFF01002000FEF792FD002010BDDD
:1021F00070B50A000923002108481AF0D7FC08220C
:102200000400002101301CF0F3FE002560232000B3
:1022100025706371FBF756F8280070BD01110000AE
:1022200070B541230A000B4800211AF0BFFC0400DE
:102230002A22094901301CF0BFFE20000025162289
:1022400000212B301CF0D4FE20002570FBF73AF85B
:10225000280070BD011100003023061810B50C00D5
:1022600019F08EFD20000021FEF752FD002010BD68
:1022700010B503000C4A00780C001278002803D037
:102280005988914203D29888FCF75CFF09E000224C
:10229000064B110001201B68984712212000FEF711
:1022A00037FD002010BDC046D1BE000024BF000095
:1022B00070B500210F4A09230F481AF077FC0F4D23
:1022C00004002B689847030AA370030C6070E37046
:1022D000000E2B68207198470025030A6071A371D6
:1022E000030C000E207225702000E371FAF7EAFF5C
:1022F000280070BD1820000001110000CCBF0000B4
:10230000002270B50C001900084BD000C518185AEF
:10231000884205D16B68181E01D02000984770BD17
:102320000132522AF1D10020F9E7C0467C23061879
:102330002000800000C000000000E400000028220F
:10234000000000000000040000F7FFFF7F00000015
:1023500030F0FFFFFFFFFFFFFF17BD1A3CCDA6B80F
:10236000995899B740EB7B60FF4A503F10D2E3B3D6
:10237000C974385FC5A3D4F6493F00003920000076
:10238000C533061836200000612E061837200000DD
:10239000DD300618030C00005D2206180110000055
:1023A000491A061809100000151A06180210000034
:1023B0002122061803100000F1210618010C00006C
:1023C000A3210618630C00008D210618310C0000B3
:1023D000D1210618330C0000B9210618350C000075
:1023E0007122061801200000652106180220000055
:1023F000E919061803200000312106180520000005
:102400002D200618062000002929061808200000A3
:10241000912A06180A200000E12B06180920000066
:10242000392B061807200000DD280618352000008B
:1024300055300618382000006D3206183A2000008A
:10244000B93C06183B200000F13C06183C20000077
:10245000553D06183D200000C53D06183E200000F1
:10246000C53806183F200000B1390618402000008A
:10247000D93A06180B200000ED4506180C20000084
:102480000D47061841200000E548061842200000CC
:10249000F149061844200000654C0618452000004C
:1024A000594D061846200000354E061847200000FA
:1024B000914E061848200000694F06184920000078
:1024C000195006184A2000009150061859200000A3
:1024D000D15006180D200000416106180E200000A2
:1024E000FD66061843200000C9630618142000008A
:1024F000C91F06180F200000BD1906181020000083
:10250000C51E061811200000211F06181220000009
:10251000591E06182A2000009519061827200000C9
:10252000291D061828200000C91C061829200000B3
:10253000791C06182E2000003D1C06182D200000D6
:10254000251706182B200000F11B06182C20000070
:10255000A51B061817200000611B06181820000094
:10256000B12206181C2000002D1B06184B2000006D
:102570004D1906184C200000151906184D200000B2
:10258000BD1806184E200000D91A06185F2000005A
:10259000791A0618232000008D1806182420000040
:1025A000E91606182F2000005D1806181D200000EF
:1025B000716B06181E200000AB6B0618332000005C
:1025C000EF6B061834200000376C06184F2000000F
:1025D000876C061850200000136D06181F2000009D
:1025E0009D6D061825200000ED1706182620000016
:1025F000AD1706185E20000059170618312000009C
:10260000691606185D20000001160618FFFFFFFF7F
:10261000FF03000070B544251D4C454323685B59FA
:10262000002B05D000221B4B110001201B6898478E
:102630000022236811005E1910001A231AF0B6FA5E
:10264000FF2330602068002645192C683100237074
:10265000EC3B638080231B01A3800823200023819F
:10266000013BE6806381267306220D301CF0C0FC1E
:102670008023FF33A3827F3BE382074BE6742683EC
:10268000DA682A631B8AAB86012340352B7070BD44
:102690005CBC000024BF000068BC000070B544258D
:1026A000354C454323685B19188C002805D0FEF78C
:1026B000CFFA002223685B191A6223685B19988C91
:1026C000002805D0FEF7C4FA002223685B195A627D
:1026D00023685B19188D002805D0FEF7B9FA00228F
:1026E00023685B199A6223685B19988D002805D0CE
:1026F000FEF7AEFA002223685B19DA6223685859A4
:10270000002805D00C381AF0A5FA0023226853518E
:1027100023681A495A193D3212780978914225D90D
:10272000442656439B19188C002805D0FEF790FAD2
:10273000002223689B191A6223689B19988C002831
:1027400005D0FEF785FA002223689B195A62236898
:102750009859002805D00C381AF07CFA002322681A
:10276000935123689E19002340363370002320685C
:10277000451940352B7070BD5CBC0000D1BE000017
:1027800070B504000E00252805D900220F4B11005A
:1027900001201B689847F0212000FAF773FD0130F3
:1027A000C5B22620012D04D80F34844200D904007C
:1027B000E0B2013EF1B21BF097F92D30FF306843D3
:1027C0000349FAF75FFD0130C0B270BD24BF0000BD
:1027D00071020000038870B505000C00DB0605D50A
:1027E0000022104B110001201B6898472B88012004
:1027F00019000140034203D10A4B0A001B689847A5
:10280000298806224B0700D59218D31C490600D40C
:10281000931C0133D9B209190020252900DD12309B
:1028200070BDC04624BF000070B514000F4B0600F9
:102830001A78E3B20D009A4205D80D4B220003200E
:102840001B68E1B29847002E0FD14420E4B2444304
:10285000084B18680019030040331B78022B04D181
:102860000622290036301CF0A7FB70BDD1BE000047
:1028700024BF00005CBC0000F7B50D0000240190EF
:10288000134F3B78A34202D8FF242000FEBD442210
:10289000104B62431B689B181A0040321278511E7D
:1028A000022902D90134E4B2EAE71E68002E04D1FD
:1028B000094B210003201B6898473378019A934203
:1028C000F0D13B78A342DFD9002DDED02E60DCE7CB
:1028D000D1BE00005CBC000024BF00000A0010B59F
:1028E000022300210D481AF061F90D4B04001A0073
:1028F0002D3210785B69012198470A4B6070EE33E6
:102900001A78022A06D10C2320002370FAF7DAFC89
:10291000002010BD01221A700023F5E7011100000C
:10292000ECBE000068BC0000F0B5544B87B00391CA
:10293000EE331A780400022A00D19DE00122002122
:10294000FF201A70FFF798FF04AAD51D0300287016
:10295000FF2813D04A4A106844225343C01840301D
:102960000378012B00D087E02379042B0FD91221A3
:102970000398FEF7CDF9002007B0F0BD2800FEF760
:10298000E5FC011EF4D12878FFF744FEECE7012BAB
:1029900009D0218862889142E9D81F29E7D980218E
:1029A000C9018A42E3D8627B013A062ADFD8A27BBA
:1029B000032ADCD86279032AD9D8A279012AD6D889
:1029C000012B03D000220292042B07D12D49E01DD8
:1029D0001AF050FE0028CAD101230293442300219B
:1029E0002A78274F53433A68D3181D68264A28008F
:1029F000019323790D30D35C6B80638869721A0A66
:102A00002A72EB712388A971AB80637B0622AB72BB
:102A10006679E11DEE72A3792B731CF0CDFA0023C9
:102A2000029A9A4200D1A37BEB74032E1DD830008A
:102A3000019B124930331CF093FA02120212019AE0
:102A4000C86810630A8A9A80442204ABD9793B682B
:102A50004A439B180122403300211A7088E706225E
:102A6000180012311CF0A8FAEEE7084B00223100E2
:102A700003201B689847E7E70C2179E768BC000052
:102A80005CBC000036DB0718CC44061824BF0000ED
:102A9000F0B5274B85B00191EE331A7805000C2173
:102AA000022A38D001221A70037806311F2B32D83F
:102AB0000021FF20FFF7E0FE02ABDE1D3070FF2893
:102AC00007D13000FEF742FC011E24D13078FFF719
:102AD000A1FD44223378174F53433A68D3181B8C17
:102AE0000093FEF79FF80721041E14D021002A78D6
:102AF000681C19F0F1F8442230783B684243297889
:102B00009B181C84598440331B78022B09D1220066
:102B10000EF0E0F800210198FEF7FAF8002005B069
:102B2000F0BD009B002BF5D01800FEF791F8F1E7FF
:102B300068BC00005CBC0000F0B5274B85B001917B
:102B4000EE331A7805000C21022A38D001221A70BF
:102B5000037806311F2B32D80021FF20FFF78CFEAF
:102B600002ABDE1D3070FF2807D13000FEF7EEFB10
:102B7000011E24D13078FFF74DFD44223378174FE2
:102B800053433A68D3181B8D0093FEF74BF8072187
:102B9000041E14D021002A78681C19F09DF84422E4
:102BA00030783B68424329789B181C85598540330F
:102BB0001B78022B09D122000EF0BAF800210198EF
:102BC000FEF7A6F8002005B0F0BD009B002BF5D065
:102BD0001800FEF73DF8F1E768BC00005CBC00009F
:102BE000F0B5964B93B004900591EE331A78022A13
:102BF00014D001220021FF201A70FFF73DFE06AB22
:102C00009C1C049B20701B78002B03D0012B26D02A
:102C100012210FE18A4B1B78834201D80C2109E174
:102C200044252A00874E424333689A18403213786D
:102C3000022BF3D10EF014F8011E00D0FAE0227836
:102C4000336855435D19032340352B70049B0021E5
:102C50001B78002B00D0EDE0002013B0F0BD784BC6
:102C60001B78834269D94422764B50431B681B185A
:102C700040331B78012BD1D106ABDD1C00232B7018
:102C8000704B21781A6844234B439C58E37ADB0746
:102C90005CD46388DB0711D52800FEF757FB011EC3
:102CA00000D0C7E00C2362881A4207D02000217BA5
:102CB0000D30FEF749F8002800D0BAE00A262100BE
:102CC000638807AD02932B83637A227A1B04120276
:102CD0001343E2790D311343EB60A37A06226B773D
:102CE000E37A0193AB77237B0393EB7706ABF6187C
:102CF00030001CF061F9E27C06AB0533DA77227D07
:102D000006AB0633DA77637D06AA0732D377A17D57
:102D100008AAD177092206A95218D377237EF37720
:102D20000B23627E5B18DA77019B4449DB0715D4DD
:102D3000CB6807930B8AAB8015E02000FEF706FBFB
:102D4000011E77D12078FFF765FC95E73E493F48A3
:102D50001AF090FC002800D05AE79AE706222800D3
