:020000041806DC
:101D4C0010B5024B01221B68984710BDA4BA0000C5
:101D5C0010B5024B00221B68984710BDA4BA0000B6
:101D6C0010B5024B01221B68984710BDA4BA0000A5
:101D7C0010B5024B00221B68984710BDA4BA000096
:101D8C00F8B500262A4D04002E701CF0BBF8294B28
:101D9C0030001A68284B92B219681BF03BFD274B98
:101DAC0001201A68264B92B219681BF033FD254BA3
:101DBC0002201A68244B92B219681BF02BFD28786C
:101DCC001CF032FE214930001DF05EF8287800F03E
:101DDC009FFA287803F016FB28781BF08DF8B44294
:101DEC0009D01B4B9C4202D01A4B9C4208D11A4B77
:101DFC0020001B68984701232B701AF0C3FFF8BD15
:101E0C0001231022310015481BF082FC144B0700F3
:101E1C009C4205D101230370380000F0B7F9EAE7C2
:101E2C00104B3200210003201B689847F4E7C04692
:101E3C0020BF0000C8BE0000A4BE0000CCBE000045
:101E4C00A8BE0000D0BE0000ACBE000014CE071827
:101E5C00A5A5A5A5C3C3C3C3D8BE0000031100002C
:101E6C00F2F2F2F224BF00001022F0B56E4B85B0F6
:101E7C001C6814420BD001216C4B49421A606C4B0C
:101E8C0019606C490B6893430B6002F01BFC202219
:101E9C0014420BD00121654B49421A60644B5960C6
:101EAC0064490B6893430B6002F03CFB01273C42F6
:101EBC0037D05E4B5E4D1F606B8B3B4231D002A81E
:101ECC001AF0E0FF5B4E029B01933368BB43336017
:101EDC002B685A1C0BD0019A9A4208D1012310226C
:101EEC005B422B6033689343336002F0EBFB6B680F
:101EFC005A1C0BD0019A9A4208D1012320225B4232
:101F0C006B6033689343336002F00CFBAB685A1C74
:101F1C0004D0019A9A4201D11AF09AFF01201BF0C9
:101F2C00F7F880252D022C4203D002F077FD3F4BB1
:101F3C001D6002231C4247D03C4E082033603E4BB0
:101F4C001F681BF0E5F801201AF0C2FF3B4B9F42C3
:101F5C0005D900223A4B110001201B689847394BD8
:101F6C001B78002B53D0384B38001B689847070060
:101F7C0038003649FFF7ECFE8023354A1B06034335
:101F8C0013609C23314D9B004543ED1BED18ADB206
:101F9C00AB0A05D000222A4B110001201B68984780
:101FAC0008212C4B2C4A1D6013680B431360214AEB
:101FBC002A4913680B400121136013688B430B43B0
:101FCC00136031601CF0BAFF40231C4203D0174A47
:101FDC0013601AF03DFF04252C420BD0134B10203C
:101FEC001D601BF095F8134A01201368AB43136076
:101FFC001BF018FF0822144207D00C4B0D491A6035
:10200C000B6893430B6002F005FB05B0F0BD3D255A
:10201C00074AF9001369FB186F435B18180ADBB207
:10202C0013613F18A4E7C0461C000050200000506C
:10203C0034BF000018000050380000507F841E0090
:10204C0024BF000030BF00002CBF00007102000054
:10205C00440000504000005030000050FFFFFF8F44
:10206C0070B580256D020B4A1368002B11D02B42E2
:10207C00FAD0094B094C1D60094B032019681A68EA
:10208C002368120C984700220120110023689847FE
:10209C00E9E770BD100000501400005024BF000090
:1020AC006000005010B5034B5B8BDB0701D41BF0B9
:1020BC00FDFE10BD34BF00000120704701207047A9
:1020CC00F8B507000E001500034C20001CF0E8F9D1
:1020DC00A760E6602561F8BD5CBF0000F0B59C27E9
:1020EC00002685B000900191BF00124D009B6A69DB
:1020FC0001369C18019BAA6924019B182409BB4238
:10210C0004D90D4A0134240124099B1802A86C61DE
:10211C00AB611BF07DF9029B01331C1B074B2401A7
:10212C0024099C42E1D96869A9691BF00DF83000BB
:10213C0005B0F0BD5CBF000090FDFFFFFEFFFF0788
:10214C0073B56C460E00050020001BF061F9044BC2
:10215C002800143306CC06C33100FFF7BFFF73BD54
:10216C005CBF0000083810B50100040006481CF0E4
:10217C00FFF9002807D0A088FF22E1881BF006FB9E
:10218C0020001BF0EDFB10BD5CBF0000F8B5060095
:10219C000C3883881D4A934205D01D4A934223D0A4
:1021AC0000F02AFB1FE0037A3F2B1FD85A1ED2B235
:1021BC001849D4080F5D07240125224017412A0035
:1021CC00BA432F420BD03E2B09D13278013AD3B20D
:1021DC00DA0889180A7C23401A4195432A00002A00
:1021EC00DED01BF0DAFAF8BD3E23DFE7582BD7D848
:1021FC00403BDBB2074AD90852180721127A0B4030
:10220C001A41130001229A43E9E7C046031100006A
:10221C0004110000ACBA000070B50C4B04001A7825
:10222C00824204D80A4B01001B6803209847094DD1
:10223C002B681B5D002B05D00022054B11000120E3
:10224C001B68984701222B681A5570BDD4BE00003C
:10225C0024BF0000A8BA000070B50C4B04001A781B
:10226C00824204D80A4B01001B6803209847094D91
:10227C002B68195D002904D1054B0A0001201B684D
:10228C00984700222B681A5570BDC046D4BE00007A
:10229C0024BF0000A8BA0000030010B504292AD8F6
:1022AC0008001CF057FE0303091023000A0003204A
:1022BC00144B1B68984717E0082219001248801825
:1022CC001CF074FE10E0104C1900200008221CF0C9
:1022DC006DFE002320000D4C0278195D01330A437A
:1022EC0002700130082BF7D1002010BD06480822DF
:1022FC0019001030E4E70022024B110001201B688A
:10230C00D8E7C04624BF0000ACBA000080230618F2
:10231C0070B50223050004009D4315D11822290035
:10232C000B481CF05FFE0B4B29001A780A4B1868FF
:10233C001CF058FE03210948FFF7AEFF04210848A2
:10234C00FFF7AAFF01F022FE200000F0D9FA70BDC1
:10235C00ACBA0000D4BE0000A8BA00007023061866
:10236C0078230618FFFFFFFFFF9F00201F000000CF
:10237C000000000000600400F8074002F0B5A44B18
:10238C0087B01C68002C09D101F042FE002800D156
:10239C008BE09F4B9C68002C00D186E09C4B1C6111
:1023AC00A1889C4BC818052800D927E11CF0E6FD34
:1023BC00060058007F00D00026011101944B5B7D74
:1023CC005BB2042B02DC924A013353750E26E31DDB
:1023DC00039302AB2589F61863892800338001F03A
:1023EC00E3F9021E1FD03388002B1CD08768002F06
:1023FC0017D0200092780C307F2A0DD801003200C3
:10240C0000971BF0F7FD0100002910D02A00824B29
:10241C001B68032098470AE001003200B847C1B29C
:10242C00F2E70421F2E7002D15D0012323730E23CC
:10243C00E3713288764B0332D2B222725B7D191C67
:10244C005BB2002B00DA0021A5722D0A6172E572D5
:10245C000420023222E0704B290032881B68D8E736
:10246C006B4B5B7D5BB2042B02DC694A0133537509
:10247C000F22E31D0393E2710B3A23892272227B14
:10248C006272634A527D111C52B2002A00DA00219A
:10249C0004200622E3721B0AA172237300235C49F9
:1024AC000B755E4B03991CF01BFD07B0F0BD2300B0
:1024BC000E270A33039302AB2189FF186389CEB22E
:1024CC003B80FF2904D9544B002203201B689847FA
:1024DC00300001F09BF9021E33D04568002D19D055
:1024EC00200092783B880C30002A0ED100953A00DF
:1024FC0001001BF07FFD0500002D0ED0464B320075
:10250C00290003201B68984708E03A000100A847FF
:10251C00C5B2F1E76389002B11D1002562893B8894
:10252C009A4205D23C4B3200290003201B68984785
:10253C000E2302AAA6729B181B88E37206E00425E0
:10254C00DCE7354B310003201B689847E27A7FE7C4
:10255C0023000A330393267B638902AAD3813000BC
:10256C0001F066F9021EECD04568002D2FD020003A
:10257C00927802ABDB890C30002A21D102A90E32F1
:10258C000095521801001BF035FD0500002D05D0FB
:10259C00214B3200290003201B6898470E2702AB01
:1025AC00FF18398863898B4204D21B4B32000320FD
:1025BC001B689847002DC9D13E23A3723B88BCE70A
:1025CC000E2202A952180100A847C5B2DEE7042565
:1025DC00DEE7216912480B1F0918A28903911149E2
:1025EC005A541149120A5A54E2891049100A5A5481
:1025FC000F490432585492B202204FE7064B002286
:10260C0003201B68984700200200039046E7C04651
:10261C00C8BA0000FFEEFFFF24BF000041260618D9
:10262C00FC3F005000400050014000500240005060
:10263C00034000502E4B70B52E4C1B6825699847F3
:10264C002D4BAA8806009A4212D12B7B022B04D068
:10265C000222190091430D2924D1217E002905D194
:10266C00264B0A0001201B68984701E001392176AE
:10267C0001232375A988224B99421BD8053B99420B
:10268C002FD92369002B03D020001BF067FF050016
:10269C0028001BF082F81B4B30001B689847FFF793
:1026AC006DFE70BD152BE3D1E17D0029D8D0013929
:1026BC00E175DDE7144B994213D1200008301BF073
:1026CC004DFF124B1A78AB891B051B0D9A4203DD8B
:1026DC002B6998B203F038F80023236101F082FCD7
:1026EC00CFE7064B002203201B689847C9E7C0467A
:1026FC00C0BE0000C8BA00000411000024BF0000D6
:10270C0005110000C4BE000006110000D4BE00007C
:10271C00F0B587B006000D001700039300285AD0BF
:10272C008468002C4FD083787F2B29D80E2202A9E5
:10273C005218002100940800294B1BF05BFD04008B
:10274C00002C38D1B36802221800264902931CF0E1
:10275C001FFC0E2302AA9B181E88002819D12A00E0
:10276C002100330020481AF0D3FF02220400077026
:10277C00023003991CF01AFC2000FFF707FD20E043
:10278C0000230E2202A9521818001900A047C4B247
:10279C00D6E70322154902981CF0FAFB33002A00F5
:1027AC00210000281AD110481AF0B2FF06220400AA
:1027BC0007700130DDE70E4B2A00210003201B6857
:1027CC00984707B0F0BD0A000123210009481AF010
:1027DC009FFF0770D1E70A00012301000248F6E7CA
:1027EC00FFFF000082A7061801110000B938061877
:1027FC0024BF0000021100003B4B70B505001B68A4
:10280C009847AB88394A0600394C934205D12000D1
:10281C00290008301BF05AFE36E0364A934207D1A5
:10282C002B7B0F2B3AD006D8022B27D00D2B0AD09E
:10283C0029002000EEE7152BFAD1E37D032B20D8DD
:10284C000133E375F4E7EB89E97D5B069B0F012906
:10285C000DD1627E022A39D0002A02D1227E032AAF
:10286C0034D8013B5A425341DAB2002331E0A27E04
:10287C00F0E7012300222CE0A2762DE0237E032B2F
:10288C001DD928001AF089FF1B4B30001B68984794
:10289C00237D012B01D1FFF771FD70BD174AA97B78
:1028AC001068EB7C4218415C022918D0002902D137
:1028BC00217E032913D8013B59424B411370237ECF
:1028CC0001332376B4E700231370DAE7012BD0D160
:1028DC0002220129D0D16276002BF0D0D1E7012B56
:1028EC00F1D10223F0E7C046C0BE00000611000083
:1028FC00C8BA000004110000C4BE0000C4BA000035
:10290C0070B5051E0C4C14D101001C2220001CF0CB
:10291C0069FB0A4B29001A78094B18681CF062FBFA
:10292C0020001BF0BDFD200008301BF0B9FD012379
:10293C0023750523637570BDC8BA0000D4BE0000B2
:10294C00C4BA000010B500F02FFFFF23002800D000
:10295C00C378D8B210BD0000F0B589B00500039162
:10296C00029200F021FF5C4C0700637D7F2B05D9A0
:10297C0000225A4B110001201B689847584B9D426E
:10298C0002D0637D013B6375002F00D1A1E0637D14
:10299C007F2B00D96CE00F21BB78049319400829D8
:1029AC0045D808001CF0D6FA0526052643434343B8
:1029BC004A0000260E2204ABD21800239C4613803A
:1029CC00039B634541D07C68644554D040216B46E1
:1029DC0004989B89084005900498084230D10094D3
:1029EC00029905981BF006FC0400012C2ED1002343
:1029FC00122217E0039B012B12D9029B1A785B78E9
:102A0C001B021343374A12789A4209DD364A126880
:102A1C00D25C002A04D001221B0213439EB2C9E7E8
:102A2C000222029B29003800FFF772FE04E02B4BB8
:102A3C002A0003201B68984709B0F0BD0226B9E7AD
:102A4C0060460299A047C4B2CFE7039C04AB3100A7
:102A5C002A00DB8925481AF05BFE0600002C05D005
:102A6C001E4B2A00210003201B689847002E04D11E
:102A7C0000230722D6E70424E8E704ABDB89002B0C
:102A8C0012D07B689C46002B0ED06B46BA789B8983
:102A9C00520615D4624600920E2204A95218300038
:102AAC0002991BF0A7FB0400002C05D00B4B2A004D
:102ABC00210003201B68984730001AF04DFEBBE73D
:102ACC000E2204A96446521830000299A047C4B2E1
:102ADC00EAE73B000122A5E7C8BA000024BF0000CA
:102AEC00350C0000D4BE0000A8BA0000051100008F
:102AFC0070B5134A0C00117802050300120D00206A
:102B0C0091420BDD9B0B834208D11800FB2C05D89E
:102B1C0002F060FE011E02D00A4BC01870BD0123EA
:102B2C001A2209481AF0F4FD01250570FFF72EFB57
:102B3C00290020001AF088FE044B9D75EEE7C04674
:102B4C00D4BE00000040005003110000C8BA0000C1
:102B5C00F8B5174B06009C7D0D001700002C06D015
:102B6C0010001AF0FDFE0023114A9375F8BD114BAD
:102B7C0001051B78090D8B4212DD01230902194353
:102B8C0022000D4889B207331AF0C2FD0680458039
:102B9C00002D01D0094BFC1844601AF0DDFDE5E76F
:102BAC00074B0200290003201B689847DEE7C0464C
:102BBC00C8BA0000D4BE00000611000000C0FFAF70
:102BCC0024BF0000F8B50D0006A90E7801680700B7
:102BDC0088190124824211D31C1E09D02A68286846
:102BEC009419A342A4413200644264001CF0DEF943
:102BFC003B689B193B602B689E192E602000F8BD2A
:102C0C00F0B589B00500029103920691002940D0DD
:102C1C00CE18012317880790C719009332003B0088
:102C2C0007A906A8FFF7CEFF0400031E26D0079BBA
:102C3C005D1B039B1D80200009B0F0BD0133059383
:102C4C005B000493EB18079302233200009307A94F
:102C5C003B0006A8FFF7B6FF002818D1049A07A975
:102C6C000232AB18079302233200009306A83B00F4
:102C7C00FFF7A8FF00280AD16B461B7D0299079A23
:102C8C000978521B9942D2D9062AD7D9CFE704002A
:102C9C00CDE70623039A029C1380CCE7F0B599B0DC
:102CAC001D0002903A23081E0592079160D0029BEA
:102CBC00002B61D001271488029B1C190126029B52
:102CCC00451908932A002300009608A907A8FFF7C6
:102CDC0079FF002849D1029B2A009B190893009682
:102CEC00230008A907A8FFF76DFF00283DD1029B20
:102CFC002A00023308930096230008A907A8FFF7BF
:102D0C0061FF002831D1029B2A000333089306236C
:102D1C0008A9009307A82300FFF754FF002824D12B
:102D2C00029B2A00093308930096230008A907A8E0
:102D3C00FFF748FF002818D1029B597A039000290D
:102D4C0021D1039B032B04D9434B0A0001201B68A0
:102D5C0098477F4200233C400227029E049318367A
:102D6C00039B049A934216DC0020089B029A9B1A40
:102D7C00059A138019B0F0BD4E2404ABE41809ABCE
:102D8C00029F02939AE7314203D0039B0133DBB2DB
:102D9C0003934908D3E733000E3B08932A00230022
:102DAC00009708A907A8FFF70DFF0028DDD1330015
:102DBC000C3B08932A002300009708A907A8FFF7EB
:102DCC0001FF0028D1D133000A3B08932A002300CD
:102DDC00009708A907A8FFF7F5FE0028C5D1330016
:102DEC00083B08932A002300009708A907A8FFF7BF
:102DFC00E9FE0028B9D1B31F08932A0023000097DD
:102E0C0008A907A8FFF7DEFE0028AED1331F0893F0
:102E1C002A002300009708A907A8FFF7D3FE002873
:102E2C00A3D1B31E08932A002300009708A907A872
:102E3C00FFF7C8FE002898D123002A00009708A9A4
:102E4C0007A80896FFF7BEFE1036002800D08CE7C6
:102E5C00049B0133049383E724BF0000F0B58DB0CD
:102E6C0007001D000800102305920691002941D08F
:102E7C00002F43D00123148804933C1901264519D3
:102E8C0023002A00009607A906A80797FFF79AFEC9
:102E9C0000282DD1BB1907932A002300009607A9FF
:102EAC0006A8FFF78FFE002822D1BB1C07932A002F
:102EBC002300009607A906A8FFF784FE002817D167
:102ECC00B978039000291DD1039B022B04D9254B03
:102EDC000A0001201B689847049B5E4234403E0068
:102EEC00002308360493049A039B934212DC0020BF
:102EFC00079BDB1B059A13800DB0F0BD04970CAC3F
:102F0C0008AFBBE7314203D0039B0133DBB2039321
:102F1C004908D7E7331F079301232A00009307A919
:102F2C00230006A8FFF74EFE0028E1D1B31E07933D
:102F3C0002232A00009307A9230006A8FFF742FEEC
:102F4C000028D5D102232A00009307A9230006A844
:102F5C000796FFF737FE06360028C9D1049B0133CC
:102F6C00C0E7C04624BF0000F0B58BB007000C1EB4
:102F7C000492069166D0002832D01588012245199A
:102F8C0005920126E3180393039A2B00009607A9D8
:102F9C0006A80797FFF716FE041E1AD1BB19079354
:102FAC00039A2B00009607A906A8FFF70BFE041E38
:102FBC000FD17B783F2B05D9244B020001001B68F5
:102FCC0030009847059B5E42354000267B78B34223
:102FDC000AD8079BD81B049B188020000BB0F0BDAF
:102FEC0005900AAD08AFCCE7B31C0593FB1807930B
:102FFC000123039A009307A92B0006A8FFF7E2FD13
:10300C0000281DD1B21C53000222FB18079300921A
:10301C002B00039A07A906A8FFF7D4FD00280FD1AF
:10302C00B31DFB1807930123039A009307A92B00E8
:10303C0006A8FFF7C7FD002802D10136F6B2C5E796
:10304C000400C6E70823049A1380C6E724BF0000D7
:10305C00F0B5B7B007001D000492002900D1C7E0FD
:10306C00002800D19FE01688861901234D19009382
:10307C002A00330008A907A808970797FFF7A2FDB5
:10308C00041E00D088E0BB1C079302232A00009387
:10309C0008A9330007A8FFF795FD041E00D07BE0BC
:1030AC003B1D079301232A00009308A9330007A8AE
:1030BC00FFF788FD041E6FD17B1D079301232A00A7
:1030CC00009308A9330007A8FFF77CFD041E63D109
:1030DC00BB1D079302232A00009308A9330007A8FD
:1030EC00FFF770FD041E57D13B00083307930123F3
:1030FC002A00009308A9330007A8FFF763FD041EFC
:10310C004AD13B000933079301232A00009308A9F5
:10311C00330007A8FFF756FD041E3DD13B000A33D0
:10312C00079301232A00009308A9330007A8FFF78F
:10313C0049FD041E30D13B000B33079301232A00B9
:10314C00009308A9330007A8FFF73CFD041E23D108
:10315C003B000C33079302232A00009308A9330089
:10316C0007A8FFF72FFD041E16D1BB7B2A00059381
:10317C003B000E330793012308A9009307A83300E3
:10318C00FFF720FD041E07D13B0010330293039080
:10319C00059B039A934209DC089BD81B049B18805F
:1031AC00200037B0F0BD36AE09AF5EE7029B2A00B7
:1031BC00013B0793012308A9009307A83300FFF7ED
:1031CC0001FD002812D10123029A009307923300CB
:1031DC002A0008A907A8FFF7F5FC029B023302930B
:1031EC00002803D1039B01330393D1E70400D3E7F9
:1031FC00049B0C001980D3E7F0B5B7B007001D0095
:10320C000492002900D1BAE0002800D193E016887E
:10321C00861901234D1900932A00330008A907A829
:10322C0008970797FFF7CEFC041E00D07CE0BB1C70
:10323C00079302232A00009308A9330007A8FFF77D
:10324C00C1FC041E70D13B1D079301232A0000937F
:10325C0008A9330007A8FFF7B5FC041E64D1BB1DF9
:10326C00079302232A00009308A9330007A8FFF74D
:10327C00A9FC041E58D13B000833079301232A00F4
:10328C00009308A9330007A8FFF79CFC041E4BD140
:10329C003B000933079301232A00009308A933004C
:1032AC0007A8FFF78FFC041E3ED13B000A3307939F
:1032BC0001232A00009308A9330007A8FFF782FC1A
:1032CC00041E31D13B000B33079301232A000093DA
:1032DC0008A9330007A8FFF775FC041E24D13B0096
:1032EC000C33079302232A00009308A9330007A884
:1032FC00FFF768FC041E17D1BB7B2A0005933B002B
:10330C000E330793012308A9009307A83300FFF796
:10331C0059FC041E08D13B00103302930023039385
:10332C00039A059B934209DC089BD81B049B1880CD
:10333C00200037B0F0BD36AE09AF6AE7029B2A0019
:10334C00013B0793012308A9009307A83300FFF75B
:10335C0039FC002811D10123029A00930792330003
:10336C002A0008A907A8FFF72DFC029B0233029341
:10337C00002802D1039B0133D1E70400D4E7049B5E
:10338C000C001980D4E7F0B5C9B00C001D000390F7
:10339C000592002900D1E0E000282CD0168886196F
:1033AC00039B65190793069301232A00009307A931
:1033BC00330006A8FFF706FC041E14D1039B2A0059
:1033CC0001330693012307A9009306A83300FFF7E6
:1033DC00F9FB041E07D1039F04901937039B049A31
:1033EC005B7893420BDC079B039A981A059B188019
:1033FC00200049B0F0BD08AB48AE0393D0E73B00CA
:10340C00173B069302232A00009307A9330006A852
:10341C00FFF7D8FB002800D09DE03B00153B06933E
:10342C0001232A00009307A9330006A8FFF7CAFB63
:10343C00002800D08FE03A000623143A069200933D
:10344C002A00330007A906A8FFF7BCFB002800D010
:10345C0081E03A0001230E3A069200932A003300D1
:10346C0007A906A8FFF7AEFB002874D13A00012388
:10347C000D3A069200932A00330007A906A8FFF71D
:10348C00A1FB002867D13A0001230C3A0692009365
:10349C002A00330007A906A8FFF794FB00285AD18D
:1034AC003A0001230B3A069200932A00330007A935
:1034BC0006A8FFF787FB00284DD13A0001230A3AF2
:1034CC00069200932A00330007A906A8FFF77AFB9F
:1034DC00002840D13A00093A0692022233000092A9
:1034EC0007A92A0006A8FFF76DFB002833D1FB1FA4
:1034FC00069301232A00009307A9330006A8FFF7BF
:10350C0061FB002827D1BB1F069306232A000093DA
:10351C0007A9330006A8FFF755FB00281BD1012390
:10352C002A00009307A9330006A80697FFF74AFB69
:10353C00002810D13B787A1C069200932A003300A5
:10354C0007A906A8FFF73EFBFE37002803D1049B12
:10355C000133049342E7040045E7059B198047E7D4
:10356C00F0B58FB006000C001D000592002900D1AB
:10357C0086E0002829D01788C71901236519009304
:10358C002A003B0008A907A808960796FFF71AFB24
:10359C00041E13D1731C079301232A00009308A95E
:1035AC003B0007A8FFF70EFB041E07D133001133B5
:1035BC00039304907378049A93420BDC089B9E1B34
:1035CC00059B1E8020000FB0F0BD262704ABFF1812
:1035DC0009AED2E7039B2A000F3B0793012308A9EE
:1035EC00009307A83B00FFF7EDFA002846D1012312
:1035FC00039A00930E3A07923B002A0008A907A8E9
:10360C00FFF7E0FA002839D1039A3B000D3A0792F4
:10361C00062208A9009207A82A00FFF7D3FA00286F
:10362C002CD103992A00CB1F0793012308A90093DF
:10363C0007A83B00FFF7C6FA00281FD10622039902
:10364C0000928B1F07932A003B0008A907A8FFF7DD
:10365C00B9FA002812D10123039A009307923B0078
:10366C002A0008A907A8FFF7ADFA039B10330393B0
:10367C00002803D1049B013304939BE704009DE7CE
:10368C00059B19809EE7F0B595B00C001D000390CA
:10369C000592002900D184E000282CD016888619C8
:1036AC00039B65190893079301232A00009308A92B
:1036BC00330007A8FFF786FA041E14D1039B2A00D7
:1036CC0001330793012308A9009307A83300FFF7E0
:1036DC0079FA041E07D1039F04900A37039B049ABE
:1036EC005B7893420DDC089B039A981A059B188013
:1036FC00200015B0F0BD3F2604ABF61809AB0393C0
:10370C00CEE73B00083B079301232A00009308A94E
:10371C00330007A8FFF756FA002840D1FB1F079388
:10372C0001232A00009308A9330007A8FFF74AFADF
:10373C00002834D10622BB1F0793009233002A00C5
:10374C0008A907A8FFF73EFA002828D101232A0070
:10375C00009308A9330007A80797FFF733FA00284E
:10376C001DD13B787A1C079200932A00330008A9DC
:10377C0007A8FFF727FA002811D13A0001232032BD
:10378C00079200932A00330008A907A8FFF71AFA3A
:10379C002937002803D1049B013304939EE70400CE
:1037AC00A1E7059B1980A3E78205920D830A012BE3
:1037BC0019D0032B19D0042B19D0052B19D0082B99
:1037CC0019D000203F2B0DD13A3B0F49DB00CB1811
:1037DC0058685988002805D00C234B43C3189842CD
:1037EC000BD1002070470023EFE70123EDE7022304
:1037FC00EBE70323E9E70423E7E701888905890D53
:10380C009142EFD00C30EAE75C390618002310B572
:10381C0002000648D9000C5C944201D1401810BD3E
:10382C000133092BF6D10020F9E7C046903E06186B
:10383C000200002310B50549DC0060180C5D9442B1
:10384C0003D00133182BF7D1002010BDD83E061839
:10385C004242484242364248484842004242484866
:10386C0048480042424838420042483842480042E8
:10387C00424842423642364236424848484200426A
:10388C0042363442004242333242004242484242C3
:10389C00004242484242364242484200424842427A
:1038AC0042426E420042424248420042424236424A
:1038BC00004242484848424236424248420042484E
:1038CC0048484C004248334233424242423642421C
:1038DC00424242424242004238420048484242423E
:1038EC003642424200423331420042484842420092
:1038FC0048484242364242484848484848004248B4
:10390C003542004838424831364200423642313660
:10391C004231364200484242424800424848480040
:10392C0042424848004242423642484842004236EF
:10393C004242004242424242426E420048424848A1
:10394C00420036344242004242484248480000009D
:10395C0001000200303E0618030009008C390618DD
:10396C0004000400F839061805000100483E06184A
:10397C0008005600283A06183F000500543E061869
:10398C00010C0008E4380618F4380618030C000083
:10399C0000000000F43806182D0C1103A538061889
:1039AC00A4380618310C0001F4380618F43806183F
:1039BC00330C000755390618F4380618350C401E20
:1039CC000D2C0618F43806187B0C110283A7061868
:1039DC002D3906187C0C11042E39061882A70618EE
:1039EC00630C0008E4380618F438061801100000BF
:1039FC0000000000533906180210000000000000FF
:103A0C008C3806180310000000000000E33806187C
:103A1C000910000000000000B93806183920422AAD
:103A2C00752F0618F438061836200219D0380618E7
:103A3C0050390618372002FF42390618F438061898
:103A4C0001200208E4380618F43806180220020097
:103A5C0000000000A438061803200200000000003B
:103A6C00E3380618052002061E390618F438061825
:103A7C000720020000000000503906180620020F33
:103A8C00E7380618F438061808200220F138061812
:103A9C00F438061809200220F1380618F4380618F4
:103AAC000A200201F4380618F43806180B20020715
:103ABC00F6380618F43806180C200202503906188D
:103ACC00F43806180D200219FC3806180000000006
:103ADC000E20020000000000F43806180F2002002F
:103AEC0000000000503906181020020000000000F1
:103AFC00F438061811200207B9380618F4380618DD
:103B0C0012200207B9380618F43806181320130EC1
:103B1C009AA7061800000000142002050C3906189C
:103B2C00F43806181520130283A706180A3906184C
:103B3C001620130283A7061800000000172002208D
:103B4C001A3906181C39061818200200000000004B
:103B5C00E33806181920131C0F3906180000000052
:103B6C001A2013121239061882A706181B201302EA
:103B7C0083A7061882A706181C200200000000006C
:103B8C00E33806181D200201F4380618F43806181C
:103B9C001E200203ED380618F43806181F20020008
:103BAC000000000082A706182020130E9AA7061802
:103BBC0082A7061821201303A538061882A7061819
:103BCC00222013062839061882A706182320020083
:103BDC00000000002D390618242002042E39061886
:103BEC00F438061825200200000000000000000038
:103BFC00262002408D3806180000000027200227DE
:103C0C0017390618F438061828200207B938061890
:103C1C00F43806182920020000000000F4380618B9
:103C2C002A20020000000000503906182B20020741
:103C3C00B9380618B93806182C200207B9380618F6
:103C4C00B93806182D200201F4380618F438061875
:103C5C002E20020283A70618F43806182F20020023
:103C6C0000000000693806183020130283A70618DC
:103C7C009838061831200203ED380618F438061867
:103C8C0032201307213906180000000033200203EC
:103C9C00ED380618F438061834200204DE380618FD
:103CAC00F438061835200207B9380618F438061807
:103CBC00382002FF42390618F43806183A20020060
:103CCC000000000082A706183B2002000000000044
:103CDC00503906183C200201F4380618F43806183E
:103CEC003D20020000000000F43806183E200207B8
:103CFC0027390618F43806183F2002FF43390618F6
:103D0C00F43806184020020250390618F438061808
:103D1C004120420D692E0618F4380618422002067E
:103D2C002C390618F43806184320423AA92C0618E8
:103D3C00000000004420020E31390618000000007B
:103D4C004520020000000000F4380618462002024C
:103D5C0083A70618F4380618472002083A390618C3
:103D6C00F4380618482002083A390618F4380618B0
:103D7C004920020000000000F43806184A20020016
:103D8C0000000000503906184B2002000000000013
:103D9C00ED3806184C200200000000002D390618E2
:103DAC004D2002042E390618F43806184E2002084D
:103DBC003A390618F43806184F2002523F390618C3
:103DCC00F4380618502002523F390618F4380618F9
:103DDC0059200203A5380618F43806185A20130681
:103DEC002839061882A706185B20130536390618E1
:103DFC0082A706185C2003084839061882A7061803
:103E0C005D20020635390618F43806185E2002418A
:103E1C004E390618000000005F200201F438061825
:103E2C00F438061806041103A53806180000000023
:103E3C001D04110283A706180000000005141102CE
:103E4C0083A70618A438061811FC0801F4380618C4
:103E5C00F438061812FC080000000000CA380618D6
:103E6C0013FC13042E39061882A7061814FC13052C
:103E7C003639061882A7061815FC130628390618B9
:103E8C0082A7061805010000A438061808010000D6
:103E9C00A43806180C010000543906181000000054
:103EAC00F43806181101000083A70618130200004D
:103EBC002D3906181A000000F438061830010000DD
:103ECC0082A706185701000083A7061801000000FE
:103EDC005C38061802000100933606180301000036
:103EEC0068380618040100006F3806180501000038
:103EFC00753806180601000079A70618070100009E
:103F0C0079A706180A0000007B3806180800000084
:103F1C008B38061809000000913806180B000100B8
:103F2C006D3506180C010000973806180D000100BD
:103F3C00933306180E0000009D3806180F00000081
:103F4C00A83806181000000082A7061811000000FF
:103F5C00F438061812000000B138061813000000DF
:103F6C00B738061814010000A43806181500010013
:103F7C0005320618160101005D3006181701000005
:103F8C002339061818000000BD38061810B5082291
:103F9C00002102481BF026F810BDC046E4BA000010
:103FAC001123FA2802D9024B5980002318007047BC
:103FBC00E4BA0000084B094A1B681278D2189A42DE
:103FCC0003D1074B1870002005E00133591E097806
:103FDC000029F4D00C207047A8BA0000D4BE000011
:103FEC00E4BA0000034B1A78002A02D0DA880132B6
:103FFC00DA807047E4BA0000044A0021D388834277
:10400C0001D91B1A99B2D1807047C046E4BA00009E
:10401C00064A1378002B07D05388D288002093428D
:10402C0001D99B1A98B270470148FCE7E4BA00002A
:10403C00FFFF0000F7B50F004A68802143680600B7
:10404C008068D51A0090B8682D012D0909050190DA
:10405C008D4227D99B1A1B011B095D42002B03D1F2
:10406C00019B009A93421FD8019B3F690524D819E4
:10407C00009BC01A002834DD1B490138FDF760FE97
:10408C00E8422ED4009B3069013C1818019BC01AE1
:10409C00C01B002825DC1549FDF752FE4519EC0F15
:1040AC0003341EE0002DDBD00024009B36699E19E2
:1040BC00019BF61AA64214DD0C49701EFDF740FE5A
:1040CC004019A0420DDC38690134301A002808DD93
:1040DC0006490138FDF734FE45196C1E2C43E40FDC
:1040EC0001342000FEBDC046710200008FFDFFFFB1
:1040FC0037B5684618F0C6FE019B9C20190091311B
:10410C00FF31009A8000814204D9E13B1900013251
:10411C00120112090F4B1B68002B12D00E485C6861
:10412C0000780E4D201A000100099C68831A1B01AF
:10413C001B09AB420BD8904201D1A14204D2210001
:10414C0002E001201900404219F072F837BD10004E
:10415C00FAE7C046ECBA0000E8BE0000FEFFFF071D
:10416C00394BF0B5DD68002385B003900093002D2A
:10417C0007D1354BDB68002B01D019F003F905B0E2
:10418C00F0BDA98A2B6802938B0B5AD03F233F209A
:10419C000A111340024254D00024AA7D3038084042
:1041AC001218AA75294A013B1B0111400B439BB203
:1041BC00AB82039E9B0B0193002E0DD1224E2A0045
:1041CC00300000990C301AF00BFA2A002100300054
:1041DC001AF05EFA009D34E031002800FFF72AFF48
:1041EC000028EBD0052802D134003668E4E7B36828
:1041FC00326917499F183800FDF7AAFD73681449F6
:10420C00C4183800FDF7B4FDAB688B4289414942B4
:10421C0064182401019B24096C60012BE4D98023D0
:10422C00E8681B05071B3F013F099F4203D9271A6A
:10423C003F013F097F4206492869FDF789FDB842D5
:10424C00D2DD0095029D92E7ECBA00000FFCFFFF57
:10425C0071020000013810B5012809D8054C200066
:10426C001AF01EF920000C301AF01AF90023A36082
:10427C0010BDC046ECBA0000F0B5854B01690400D6
:10428C00CA18844B87B09A4204D9834B002203206E
:10429C001B6898479C23A2689B009A4205D9002270
:1042AC007D4B110001201B6898477C4B1B6898477D
:1042BC00039004A818F0E6FD794B049A1B78059935
:1042CC009B18FA2292001B018918793A1B09FF3AB4
:1042DC00914216D86568734EEA1A1201A08A120927
:1042EC00B24204D89D421AD1A2688A4217D2820BDC
:1042FC000DD101256C4B03981B689847280007B01B
:10430C00F0BD634801331B0109181B09E0E7A268E3
:10431C0063608A4203D201331B011B096360800B6B
:10432C00012812D98020E16863680005CA1A1201BD
:10433C001509854203D95B1A1B011B095D425B49B8
:10434C002069FDF705FDA842D3DC594B9D68002D73
:10435C0000D11D680026019600960296002D6FD0A4
:10436C00A54205D100224C4B110001201B68984737
:10437C0029002000FFF75EFE002861D0052813D02D
:10438C00A17DAA7D914230D9494B9B68AB422CD080
:10439C00009B002B00D10095022398430136C0B23C
:1043AC00F6B2019501284BD0A38A9B0B012B13D994
:1043BC008021E26863680905D71A3F013F098F42E3
:1043CC0003D99F1A3F013F097F4238492069FDF705
:1043DC00BFFCB84200DD8CE7354B9A68AA424FD03F
:1043EC00002E00D102952D68B8E7A38A9B0B18D03C
:1043FC00AB682A692D499F183800FDF7A9FC6B683A
:10440C002A49C6183800FDF7B3FCA3688B428941D2
:10441C0049427618360136096660002601960096E8
:10442C00C2E7914200D864E7214B9B68AB4200D0B5
:10443C005FE7C31EDBB2012B00D95AE70328B3D1C7
:10444C00009B002B0BD01A4D019A280002991AF0F0
:10445C00FDF82800019A00990C301AF04DF8029BD7
:10446C001348002B0ED0220019001AF011F9002568
:10447C00009BAB4200D13DE72000FFF771FE39E70E
:10448C001D686BE721001AF057F8FFF731FEEEE7D5
:10449C008FFDFFFF0F18060024BF0000C0BE0000F8
:1044AC00E8BE0000FEFFFF07C4BE00007102000062
:1044BC00ECBA0000F8B5184B07001B680C009847C5
:1044CC000500002F06D10024144B28001B689847C8
:1044DC002000F8BD124EB368BB4202D10024B46078
:1044EC00F2E7002CEFD133689F4205D130001AF06F
:1044FC0035F8FFF7FDFDE7E7390030001AF038F822
:10450C000028E0D1300039000C301AF031F80028C6
:10451C00D9D10224D8E7C046C0BE0000C4BE0000FA
:10452C00ECBA0000F0B5374E85B0346802A818F02C
:10453C00A9FC002C06D1F368002B5FD1FFF7D8FD46
:10454C0005B0F0BD0625039B626801932E4B029FBC
:10455C001B78ED1BD31A5A192C49120112098A42E5
:10456C0008D806331B011B09BB4227D1A368019A4B
:10457C00934223D2300019F0F1FF010030000C30CF
:10458C0019F0A4FF3468002CD5D01F4B62681B783F
:10459C00D31A5D191D4A2D012D09954208D80633F1
:1045AC001B011B09BB4209D1A368019A934205D296
:1045BC000022174B110001201B689847124B6268B0
:1045CC001B781249D31AFA43D218120112098A42E3
:1045DC0008D8013B1B011B09BB42ACD1A368019A53
:1045EC009342A8D8300019F0B9FF8369B060002B52
:1045FC0000D098473468002CE0D19CE718F0C2FE3C
:10460C009CE7C046ECBA0000E8BE0000FEFFFF07C6
:10461C0024BF000070B50F4E30000C301AF05AF861
:10462C00C4B263B2002B00DC70BD30000C3019F04A
:10463C0095FF051E05D1084B020001001B680120E7
:10464C0098472B6A002B01D028009847013CE4B214
:10465C00E7E7C046ECBA000024BF0000124B13B5CC
:10466C001C68002C1CD0684618F00CFC9C22019B8A
:10467C00C8219200D21A0023490091425B41009A52
:10468C0001339B181B0162681B09D21A07491201DE
:10469C0012098A4200D96360606818F0A1FD13BD4D
:1046AC0001204042F9E7C04600BB0000FEFFFF07B7
:1046BC00013810B5012802D8014819F0F1FE10BDDF
:1046CC0000BB000013B5684618F0DCFB0E4804680C
:1046DC00002C17D06268009B9B1A0C4A1B011B090B
:1046EC0093420DD819F03AFFA168002902D020009E
:1046FC008847E8E7064B0A0001201B689847E2E769
:10470C00FFF7ACFF13BDC04600BB0000FEFFFF0768
:10471C0024BF00001E4BF7B51B680400984705002A
:10472C00684618F0AFFB9C22019BFA219200D21A2A
:10473C000023490091425B41009A01339B181B01F5
:10474C0062681B09D21A134E12011209B24200D927
:10475C006360002110480268002A09D1002911D099
:10476C00220019F095FF0D4B28001B689847F7BDE8
:10477C0053686768DB1B1B011B09B342EED91100A0
:10478C001268E9E7210019F0D7FEFFF767FFEAE7A7
:10479C00C0BE0000FEFFFF0700BB0000C4BE00004F
:1047AC0070B5144D04002B00FF335A78824204D0AC
:1047BC00114B01001B68032098472B00FF33D9785D
:1047CC00002904D10C4B0A0001201B6898472401D6
:1047DC002B19197B002904D1074B0A0001201B68F7
:1047EC00984729194B68002B03D002228968285955
:1047FC00984770BD08BB000024BF000070B5144D75
:10480C0004002B00FF335A78824204D0114B010074
:10481C001B68032098472B00FF33D978002904D15B
:10482C000C4B0A0001201B68984724012B19197B9B
:10483C00002904D1074B0A0001201B68984729194D
:10484C004B68002B03D0032289682859984770BD08
:10485C0008BB000024BF0000F8B5284C050023005D
:10486C00FF33D978002904D1254B0A0001201B689D
:10487C0098472E01A7193B7B002B31D0214BE81810
:10488C00000118F04FFA8006400F062828D17B68EB
:10489C00002B1ED00422B968A05998472300FF337F
:1048AC005A78AA4203D10F20013505405D700023D0
:1048BC002200A619FF323373D378013BD370FF3437
:1048CC00E378012B13D10F22637801331340A370CB
:1048DC00F8BD0B4A1900176801201A00B847DDE72C
:1048EC000022074B110001201B689847E7E7002BBB
:1048FC00EED18020800018F00BFCE9E708BB00002B
:10490C0024BF000000040005F8B5304E040033004D
:10491C00FF335A78824204D02D4B01001B680320D0
:10492C0098472C4BE018000118F0FCF93300FF33CA
:10493C00D97885066D0F002904D1254B0A0001207A
:10494C001B6898472701F3191B7B002B05D1204BC3
:10495C002200290003201B689847EB1E022B05D967
:10496C0000221B4B110001201B689847F1194B6862
:10497C00002B23D0043D6A4255418968F059EAB2B4
:10498C009847002332000F25F719FF323B73D37879
:10499C009178013BDBB2D370A14206D001342C409C
:1049AC002201B218127B002AF6D0FF367470002B4D
:1049BC0003D18020800018F0ABFBF8BD044A19002D
:1049CC00156801201A00A847DBE7C04608BB0000A9
:1049DC0024BF000000040005013870B5012816D86A
:1049EC00822200210A4852001AF0FCFA38261825B7
:1049FC00084C200018F096F90100B143294320001F
:104A0C0089B218F098F9044B10349C42F1D170BD66
:104A1C0008BB000000400050004100500C4B70B52A
:104A2C001C6825012D0F230702D52800FFF7E6FE91
:104A3C00E30602D52800FFF7B3FE630702D5200F6B
:104A4C00FFF70AFFA30702D52800FFF75DFF70BD33
:104A5C0024000050F0B5A84E0F273300FF339A788E
:104A6C0085B000925A7800990400891A3940029155
:104A7C00DB78002B08D0009B9A4205D19F4B009A03
:104A8C00032011001B6898470F20009B6268013BB4
:104A9C00034001931B01F3589A4205D10022974B16
:104AAC0011001B680E389847009B954A07279D18E4
:104ABC002D01280018F036F9C0103840012800D01C
:104ACC00FAE03300FF3359788C4B03201B68009AB3
:104ADC009847029B0D2B1BD9884B1B680393009B9B
:104AEC00981E0F231840864BC018000118F01AF9B5
:104AFC00834A019B944663440700180118F012F98D
:104B0C00C2100720F91002400140039B053898475A
:104B1C000127009B61681B01F150F618236989B2CB
:104B2C00B3602368377373609C26A81C18F003F9D4
:104B3C006368281D1901090D18F0FDF8A368B6006B
:104B4C00B34205D900226D4B110038001B68984701
:104B5C00A368F61AB6B2B30A05D00022674B11004F
:104B6C0001201B689847A81D310018F0E4F82F00AD
:104B7C008023E0680A371B02984200D2A5E0614B03
:104B8C001900C018FDF7E4F80600030405D500224F
:104B9C005A4B110001201B6898475B49314389B27D
:104BAC00380018F0C8F8A37D191C1F2B00D91F2141
:104BBC00C9B20A02617D0B1C1F2900D91F232800D2
:104BCC00D9B211430C3018F0B6F8E17D4F4F0B02FF
:104BDC0001933B4205D00022484B110001201B6879
:104BEC0098472E000E36300018F09CF8019B0740B9
:104BFC001F433000B9B218F09EF8637E002B3BD1F6
:104C0C00702128000D27237E083059435131FF3184
:104C1C00890818F090F8029B217F9F42BF417F4288
:104C2C00237DA67E3A4ABF02002951D0E47E191C8E
:104C3C001F2B00D91F21C9B2CB0236020193164299
:104C4C0005D000222D4B110001201B689847E40170
:104C5C00802322009A4305D00022284B110001200A
:104C6C001B6898474221019B3E431E43344321431A
:104C7C00280089B218F05FF80F23009A9A4305D0E8
:104C8C0000221E4B110001201B68984780230F2126
:104C9C008020009A1B0613431E4A80001360164B9B
:104CAC00FF339A7801320A409A70DA780132DA705E
:104CBC0018F00EF905B0F0BD280018F033F8C0104C
:104CCC000740022F00D004E7FBE60130410866E7FD
:104CDC001C1C1F2B00D91F24E4B23602E40216421E
:104CEC0005D00022054B110001201B6898473E435C
:104CFC0002213443BBE7C04608BB000024BF0000C0
:104D0C0000040005710200000080FFFFFFE0FFFFC0
:104D1C00FFFEFFFF00010050F0B593B01C000290A5
:104D2C000E910492002809D1002A75D10022B74BAC
:104D3C00110001201B68984701236BE0002CF5D073
:104D4C0063680393A3890D930023802510A80B930C
:104D5C0018F098F8109B2D051D402B005A1E9341FE
:104D6C00DBB20193039B002B05D1A84B039A0120C6
:104D7C0011001B6898470022A54B1A60A54B1B78A5
:104D8C00934258D1A34B019A1A70029B012B6AD102
:104D9C0023680593059B002BCED0039B002BCBD017
:104DAC000B9B0193029B012B01D1A36801939A4B9E
:104DBC001E68002337000A930993039B013B0F9352
:104DCC00002F00D1C0E0019B059A93421BD2029B9D
:104DDC00002B4BD10E9B002B48D03B697D68069372
:104DEC00002D51D0069B002B4ED0BB8A0D9A9342BE
:104DFC004AD0059B2C009D4200D91C00069B039AAF
:104E0C009B18A34234D90A9B002B02D0804B099AE1
:104E1C001A6003230293B6E0049B9B6803930E9BDA
:104E2C00002B02D0049BDB680393049B1B8A0D931D
:104E3C00049BDB7C89E7002DA4D18026764B76057C
:104E4C001D68002D9ED06F68AB683900FB183000D0
:104E5C000593FCF78DFF059B581A3900FCF788FF6A
:104E6C00A9602D68EDE7049B5B6992E7FB68B5E7E9
:104E7C0021000598FCF77CFF002905D121002800B2
:104E8C00FCF776FF002902D03F68019932E021003F
:104E9C00B868FCF76DFF069B0D005B180C932100A6
:104EAC00013B01980893FCF763FF8C460F9B06911E
:104EBC00634407938D4200D9B0E0089B8B4207D224
:104ECC00079B9D4218D8089B079A934200D298E002
:104EDC00029B012B32D021000C98FCF749FF019B5F
:104EEC008B4224D201230B9A0B40002A21D0002B99
:104EFC0022D03700019163E7069B9D4203D1089BAA
:104F0C00079A9342E4D9089B9C4206D818002100CA
:104F1C00FCF72EFF069B9942DAD2079B9C42B3D832
:104F2C0021001800FCF724FFA942ADD3D0E70919E2
:104F3C00D5E73700002BDDD00131DAE701230997E3
:104F4C00059937000A93D5E70A9B002B02D0304B0A
:104F5C00099A1A60019B059A934200D359E7029B68
:104F6C00002B4CD1049B019A5F699A611B8A0693B2
:104F7C007B1E9B180593002E08D139000598FCF771
:104F8C00F7FE049BD961029813B0F0BDB38A069A60
:104F9C00934217D07568BD4200D93D00002D05D154
:104FAC001A4B2A00290001201B6898472900380059
:104FBC00FCF7DEFE002905D129007068FCF7D8FE4D
:104FCC00002901D03668D6E72900B068FCF7D0FE7E
:104FDC000C00019BA34210D2039A9B189C4205D251
:104FEC0000220A4B110001201B689847039BE41A0E
:104FFC00059BA342E6D90594E4E76419E9E700238D
:10500C0008E7069B9D4200D27DE761E724BF0000C4
:10501C000CBC000018BC000010BC0000079B9D429B
:10502C0000D855E76BE7C046013810B5012805D804
:10503C000022034B03481A7019F032FA10BDC04617
:10504C0018BC000010BC00001FB5C168040000298A
:10505C0004D1184B0A0001201B6898476A46636804
:10506C0001200093E3680193A38A93810022A36833
:10507C00110002936B46FFF74FFE032809D10E4B2C
:10508C001B68002B05D0A1699A69002906D1002A5A
:10509C000BD12100094819F019FA1FBD002A03D0C1
:1050AC00A17D9A7D914200D32300988A9B699847F1
:1050BC00EFE7C04624BF00000CBC000010BC000091
:1050CC0010B50100014819F053FA10BD10BC0000D6
:1050DC00F7B5036846680400466101939E4216D9F1
:1050EC002B4B01271A6800237F42002A22D1002B68
:1050FC002CD1A57C002D48D029003000FCF728FECF
:10510C004543019BAB4202D8AE4200D365610023FC
:10511C00220001211800FFF7FFFD002809D0A36829
:10512C00E268934205D20023220019001800FFF711
:10513C00F3FDFEBD908A218A884205D05168013367
:10514C00DBB28F4200D90F001268CEE7BE4206D305
:10515C0039003000FCF7FCFD78430500D1E7012550
:10516C0000966D4238000099FCF702FE002399422C
:10517C0001D1009D0133009A023A00920099019AE4
:10518C008A42BED8002BEDD0BBE701256D42BBE7B0
:10519C0010BC0000002210B5030011000120FFF725
:1051AC00BBFD10BDF7B52B4F2B4DBB89BE68AB803B
:1051BC0001235B422B60294B0193002E15D1019AE0
:1051CC00274B5343AA889A4200D91A00AA807A68BE
:1051DC00531C09D02B68591C05D09B1A21491B0163
:1051EC001B098B4200D92A60F7BD002380221206CE
:1051FC00DA40164202D10133202BF7D11F22D31AE9
:10520C000093194B009A1B78934205DC0022174B34
:10521C00110001201B689847009BDA00144B1B6897
:10522C009B181C68002C0FD098880D49FCF790FD3A
:10523C00241AA4B2022C01D9023CA4B2019BA342B1
:10524C0000D923009BB201930123009A93409E4303
:10525C00B3E7C04620BC000030BC0000FFFF0000DC
:10526C0071020000FEFFFF07D4BE000024BF000047
:10527C001CBC000037B50138012822D8114C102273
:10528C000021200019F0AEFE0F4B00211A780F4BB5
:10529C00D200186819F0A6FE01230D4D5B42636025
:1052AC002B606B46D91D022322000B70094B172073
:1052BC001B680C329847002801D0074BA381A389A7
:1052CC00AB8037BD20BC0000D4BE00001CBC00006D
:1052DC0030BC0000DCBE0000E4570000012282401C
:1052EC0010B503490B7813430B70FFF75BFF10BD30
:1052FC0020BC00000122824010B503490B78934377
:10530C000B70FFF74FFF10BD20BC00000300012005
:10531C0070B505009D40084A14782C431470022B7C
:10532C0003D15160FFF73EFF70BD0022034B11000B
:10533C001B689847F6E7C04620BC000024BF00005D
:10534C000300012010B504009C400B4A1178A143C6
:10535C001170022B0AD1033B5360FFF723FF074B5D
:10536C001B68013301D111F0BBF810BD0022044BB6
:10537C0011001B689847F0E720BC000030BC00000F
:10538C0024BF0000033810B501280ED80A48CC0001
:10539C0000680019838001238B400260074A9168E2
:1053AC000B439360FFF7FEFE10BD0022044B11006F
:1053BC0001201B689847F5E71CBC000020BC0000CE
:1053CC0024BF0000033810B501280DD800200A4B6B
:1053DC00CA001B68D05001238B40084A916899433E
:1053EC009160FFF7DFFE10BD0022054B110001207C
:1053FC001B689847F5E7C0461CBC000020BC0000A9
:10540C0024BF000010B5040000F00CF8002C02D0F2
:10541C0020000AF095FD200004F0C6F9200000F0F1
:10542C00FDFB10BD7021F0B5824D0C262B780400CD
:10543C00181D414303209A1C56435431FF31361832
:10544C00814389197C4E8143377838267E43361840
:10545C00891930265E438143AB3136188143891953
:10546C00764E8143891946265E4381433618891945
:10547C0012021218814389182722534381431B18A7
:10548C00C91881436E4B69318143C918802381430C
:10549C0009188143091885B081431B02994204D92C
:1054AC00684B890A1B68073A9847002C05D0013CC9
:1054BC00012C00D89AE005B0F0BD210020226248F2
:1054CC0019F090FD5B4B702518785B4B41001A78F6
:1054DC0038235A43083B4343033301930C23071DE2
:1054EC0084B20230434303269C467D435435FF353A
:1054FC00B444B54365440332B5435519B543019BD8
:10550C00AB35B5435D194D4BB543ED18B543ABB257
:10551C004E4D02932B680139039323239C4609B209
:10552C004B1C57D170250C266F4381B270435437F6
:10553C006D3DFF37AF4340193818A8431218AA43E2
:10554C00019BAB32AA439A18AA4392B21500404869
:10555C00404B0068D318FB3D9BB24430ADB2038086
:10556C00013BFF3B9BB20838AB42F8D14623334E8C
:10557C00634392190326601CB24303339B18050046
:10558C00C2003548B34300689BB28018ADB22A0202
:10559C00013D9A182DB2828008386A1CF6D127205A
:1055AC00090203315B18032144438B4364181B1914
:1055BC008B432A4A693312688B4329495B181100C3
:1055CC009BB22C31043A0B80FE3B08399BB28A42C9
:1055DC00F9D170E766468DB26E43029BC9009E19E5
:1055EC00039B013D59188E8029B299E7164C2B78F4
:1055FC0016492000082209685B0018F055FF2000AE
:10560C001349092308220968083018F04DFF2000BF
:10561C002B781149082209680233103018F044FF26
:10562C0020000E49062308220968183018F03CFFA8
:10563C0041E7C046D4BE0000D5BE000003090000FF
:10564C00F705000024BF000048BC000040BC00006F
:10565C0044BC00000508000038BC00003CBC000045
:10566C00F6040000074B70B51B6898470500064808
:10567C0018F074FF0400054B28001B6898472000A5
:10568C0070BDC046C0BE000048BC0000C4BE0000D7
:10569C00F8B5060070201E4B03241D7823212B1D0A
:1056AC0058430C23AA1C53435430FF301B19A043FE
:1056BC00C018184BA0431A78382353431B19C01831
:1056CC0030236B43A043AB301B19A043C018124BC3
:1056DC00A043C018A043301AFCF73AFBC7B26D00C8
:1056EC00AF4205DB0D4B3200390020001B68984798
:1056FC000B4B1B68984704000A4BF9001F680A48BB
:10570C00791818F0E3FE094B20001B689847F8BD88
:10571C00D4BE0000D5BE00000309000024BF000069
:10572C00C0BE000040BC000048BC0000C4BE00006D
:10573C00044810B5083018F011FF002800D08088FC
:10574C0010BDC04648BC000070B51C4B0C24197829
:10575C0070230A1D534303228D1C6C435433FF33B7
:10576C00A41893431B19164C9343257838246C4387
:10577C00A4181B193024FF2661439343AB33934386
:10578C0089185B1805389343C01A304203D1040AB8
:10579C00E3B2082B00D9FEE70A4B34401B6898474C
:1057AC000500094B0948E1001C680830611818F025
:1057BC008DFE074B28001B68984770BDD4BE0000B7
:1057CC00D5BE0000C0BE000044BC000048BC0000B8
:1057DC00C4BE0000084B70B51B689847050007480D
:1057EC00103018F0BBFE0400054B28001B689847CE
:1057FC00201E00D0A08870BDC0BE000048BC0000B8
:10580C00C4BE000070B57024194B02001B78032035
:10581C00191D4C430C219D1C69435434FF34091849
:10582C0084436418134984430D783821694309185B
:10583C006418302159438443AB34091884436418E9
:10584C000D4984436418462159438443091864184C
:10585C008443141B240AE4B20133A34203DA074B3A
:10586C0021001B689847064BE0001C68201870BD8F
:10587C00D4BE0000D5BE00000309000024BF000008
:10588C0038BC000070B570241F4B02001B7803203D
:10589C00191D4C430C219D1C69435434FF340918C9
:1058AC0084436418194984430D78382169430918D5
:1058BC006418302159438443AB3409188443641869
:1058CC0013498443641846215943844309186418C6
:1058DC008443141B240AE4B20133A34203DA0D4BB4
:1058EC0021001B6898470C4B1B68984705000B4B15
:1058FC000B48E1001C681030611818F0E7FD094BEB
:10590C0028001B68984770BDD4BE0000D5BE0000AF
:10591C000309000024BF0000C0BE000038BC00001A
:10592C0048BC0000C4BE0000084B70B51B6898470B
:10593C0005000748183018F011FE0400054B28002C
:10594C001B689847201E00D0A08870BDC0BE000008
:10595C0048BC0000C4BE000070B505007020274B89
:10596C0003241A78111D48430C21931C59435430BD
:10597C00FF300919A04340182149A0430E78382163
:10598C0071430919401830215143A043AB30091918
:10599C00A04340181B49A043401846215143A04343
:1059AC00091940181B021B19A043C01827235A437E
:1059BC00A04312198018A0436930A043FE21281A75
:1059CC00FCF7C6F9C6B2C0B2052805D90E4B2A00A1
:1059DC00310020001B6898470C4B1B68984704004B
:1059EC000B4B0C48F1001E681830711818F06EFD46
:1059FC00094B20001B68984770BDC046D4BE000000
:105A0C00D5BE00000309000024BF0000C0BE00008A
:105A1C003CBC000048BC0000C4BE000010B5020035
:105A2C000C0001230021034817F072FE0470FCF7F0
:105A3C00ADFB10BD0111000010B502000C000123DC
:105A4C000021034817F064FE0470FCF79FFB10BDA7
:105A5C0002110000F7B5002400900191124D2B7833
:105A6C00A3421BD94426114F66433B6899190B007E
:105A7C0040331B78092B02D00134E4B2EEE70098D6
:105A8C00203118F094FA0028F6D03B68019A9E1940
:105A9C000736F37F534001221342EDD1287884421C
:105AAC0080414042FEBDC046D4BE000068BC000030
:105ABC00F0B5002485B0019002910392174D2B781C
:105ACC00A34225D94426164F66433B6899190B000F
:105ADC0040331B781A000E3A012A04D9112B02D03C
:105AEC000134E4B2EAE70198203118F060FA00289A
:105AFC00F6D03B68029A9E19330036331B7853401C
:105B0C0001221342ECD12E363378039A9342E7D11B
:105B1C00287884428041404205B0F0BDD4BE0000DC
:105B2C0068BC000030B500200A240125074B196819
:105B3C00074B1B780133220042438A18527A2A42BF
:105B4C0003D00130C0B28342F5DA30BD6CBC00002A
:105B5C00D4BE0000F7B5050000240A2601270191E8
:105B6C000D4B186833006343C018437A3B4208D18D
:105B7C000A4B01341B78E4B20133A342F0DA200063
:105B8C00FEBD037A019A9342F2D1290018F00FFA64
:105B9C000028F4D1ECE7C0466CBC0000D4BE000079
:105BAC00F7B5050000242726012701910C4B1B7823
:105BBC00A34213D90B4B186833006343C018837985
:105BCC00FF2B02D10134E4B2F0E7019A3A40934240
:105BDC00F8D1290018F0EBF90028F3D02000FEBD15
:105BEC00D5BE000070BC00000A4B18780A4B1A682E
:105BFC0000230632984204D1C01A43425841C0B225
:105C0C0070472732110027390978FF29F4D1013365
:105C1C00DBB2EFE7D5BE000070BC0000F0B585B07C
:105C2C00012821D0022800D1BDE0002802D1614911
:105C3C0018F002F805B0F0BD2A005F4B62431B68F8
:105C4C00D058002802D00C3817F0A7FD0134E4B26C
:105C5C005A4B1B78A342EFD80021042017F00EFDFD
:105C6C000021062017F00AFD554CF42200212000DB
:105C7C0019F0B8F92722534B00211B7806265A43FA
:105C8C00514B1B681800019319F0ACF944224B4D91
:105C9C0000212B785A43484B186819F0A3F90A22B3
:105CAC002B78002102335A43484B1F25186819F0F2
:105CBC0099F92300E122543392001A80444B0822B4
:105CCC006362444B44496385444819F06FF90122DF
:105CDC00434B52421A60FF2125770532414819F097
:105CEC0081F9A31CDD7702AB3F4D5E713F4B02A9DE
:105CFC002A0001201B6805319847002804D0320087
:105D0C0028003B4919F052F920230125374F02AAEC
:105D1C00537102AB591D374A3B688020984702AB40
:105D2C009E1D02A95D71320015203B680531984714
:105D3C00002801D133781D402300EF331D7001255D
:105D4C0002ABDE1D5D71294B02A9320019201B68C4
:105D5C0005319847002801D133781D4023000126D6
:105D6C00F0331D7002AB244D5E71204B02A92A004A
:105D7C0016201B6805319847002800D02E70114A58
:105D8C00114B117827224A43FF211B68D2189A42E3
:105D9C000CD1FA22543423889200002106205A4355
:105DAC0017F0D2FB46E70024442551E799712733BD
:105DBC00EDE7C046D061061868BC0000D4BE0000F8
:105DCC0074BC0000D5BE000070BC00006CBC0000B0
:105DDC001B00480107070000C460061878BC0000CF
:105DEC008CBC000091BC000080BC0000DCBE00003C
:105DFC0054E40718A7BC000060BD0000012310B5D7
:105E0C00094C83402268002906D0802013434001AE
:105E1C00236017F05DF810BD9A432260FBD18020FF
:105E2C00400117F075F9F6E774BC0000F8B544248E
:105E3C001E4E4443336800211F190500FFF7DEFF97
:105E4C000022336804371B1940331A703800FFF7EF
:105E5C0037F933681819C31DD97F2030FFF77AFE44
:105E6C00134B1B78013383420EDB0A22114B424346
:105E7C001B689B185B7A9B0706D533681919CB1DD9
:105E8C00DA7F203109F09AFD30680019C31DD97FE3
:105E9C002030FFF785FE084B1B78834202D9002186
:105EAC000AF07AFB2800FCF7D7F9F8BD68BC0000B3
:105EBC00D4BE00006CBC0000D5BE0000004870478A
:105ECC0091BC0000054BC2089B1807221B7910409F
:105EDC0003411800012318407047C04674BC0000F1
:105EEC0000487047CC600618024B5A330020185EED
:105EFC007047C04674BC0000024B58330020185E3B
:105F0C007047C04674BC000044234343024A1068E7
:105F1C00C01804307047C04668BC0000F7B509F0E3
:105F2C00D5FC019009F008FD0400002101259434F2
:105F3C000726464ACB10D3181A7E0E4032412A420D
:105F4C0006D12A00B24016005A7FB2435A7711E0AC
:105F5C003F4A1278002A0DD08A00019F8258BA1A43
:105F6C00C827120112097F01BA423AD20022A25666
:105F7C000132E6DB013101342529D9D1354E30000F
:105F8C0018F022F801281AD8002301212F4F0725D9
:105F9C001C002C40A4466546DA10BA18147E2C411D
:105FAC000C4209D00C00AC40A4466546547F2C43EF
:105FBC005477012803D008000133252BE7D10024A6
:105FCC0030000AF0CBFC2500234B1B78A34214DCD9
:105FDC00002D37D0FA2200210420120117F0B4FA58
:105FEC00F7BD00272770FA27FF01BA42C2D92A0051
:105FFC00B24016005A7F3243A8E744236343174F3D
:10600C000193019A3B689B181A0040321278092AB6
:10601C000BD10833DA7F002A07D10123210219435F
:10602C00022089B217F0B2FB01253B68019A9B183C
:10603C0040331B780C2B03D13100E0B20EF012F977
:10604C000134C1E7014B0333DD77C9E774BC0000B1
:10605C0064BD000091BC0000D4BE000068BC000010
:10606C00F8B50023040044270E4A0F490370237827
:10607C001678B34210D2380058430D682818050022
:10608C0040352D78002D0AD120222900203018F01F
:10609C00A9FF2378B34200D307252800F8BD0133AC
:1060AC002370E4E7D4BE000068BC0000014B186804
:1060BC007047C04670BC00001F00000000000000CC
:1060CC00FF79010F000000000020024B0433D87749
:1060DC007047C04674BC000070B522230D003E22F0
:1060EC000021094817F014FB00260923040029009D
:1060FC00037046702022023018F058FF2000FCF785
:10610C0045F8300070BDC04604110000F8B53E22C1
:10611C000D00422300210F4817F0FAFA202608231D
:10612C00002704000370320029004770023018F079
:10613C003DFF2000A9193200223018F037FF200053
:10614C00FCF724F8044B31005B68044A8020984724
:10615C003800F8BD04110000DCBE0000A7BC000034
:10616C0070B511230D00094A0021094817F0D0FA27
:10617C00691C040000251022013018F017FF2000C4
:10618C002570FCF703F8280070BDC04617200000EE
:10619C0001110000FA2210B5064B920054331B88F3
:1061AC00062000215A4317F0CFF909F0C9FB002053
:1061BC0010BDC04674BC000010B5FFF7AFFE002048
:1061CC0010BD0000DC61061868BD00000100120063
:1061DC00070000006D61061804000000C561061878
:1061EC0005000000D560061806000000A161061825
:1061FC00080000001961061809000000E560061887
:10620C000A02000045960618020200006D75061879
:10621C0007020000D175061808020000E17A061882
:10622C0003000000F57F06180102000031800618FB
:10623C0006020000BD8D06180302000061860618D8
:10624C0004020000BD87061805020000898B0618A1
:10625C00090200008592061805110000356D06181C
:10626C00442130B5104B1A68104B14001B78403485
:10627C0059430023994201D1012030BDE05C851EB9
:10628C00012D05D8D058C07C00280BD14433F1E740
:10629C00072802D1D0584078F6E70528F6D1D05817
:1062AC000078F1E70020E8E768BC0000D4BE0000ED
:1062BC0030B50D4A0124117844220C4B4A431B681B
:1062CC000B484033D218934201D1002030BD1978CD
:1062DC0044331129F7D80500CD40290025008D4302
:1062EC00F1D10120F2E7C046D4BE000068BC00002A
:1062FC00AC40020002001E2313B50C000B49C85C15
:10630C00002807D1013BFAD20C212000FFF794FBA7
:10631C00002016BD002113000191093100910220CB
:10632C000349203318F082FB0100EEE7A8BC000003
:10633C00A7BC000073B508000021FFF77DFB6A467F
:10634C000123D3716B46154E941DD91D220082205A
:10635C0033689847002801D00023237020236A4615
:10636C00D37123780E4D002B09D069462A0080206A
:10637C00336807319847002806D00023237000218A
:10638C00280018F09FFB02E02378002BF7D02800A0
:10639C000022082118F06CFB002076BDDCBE00004A
:1063AC00A7BC000010B50A0000210A23074817F00B
:1063BC00AFF90024FB22064BC2800381428083800C
:1063CC000470FBF7E3FE200010BDC0460111000075
:1063DC009042000010B500210623074A074817F029
:1063EC0097F90024064B9A8C4280DB8C04708380D6
:1063FC00FBF7CCFE200010BD232000000111000093
:10640C0074BC000070B500210F4A09230F4817F027
:10641C007FF90F4D04002B689847030AA370030CF7
:10642C006070E370000E2B68207198470025030AFA
:10643C006071A371030C000E207225702000E371B3
:10644C00FBF7A4FE280070BD18200000011100000D
:10645C006CBD000010B50A0000210223054817F09E
:10646C0057F90024044B04701B784370FBF78EFE25
:10647C00200010BD01110000D5BE000010B50A00AF
:10648C0000210223064817F043F90024054B047041
:10649C001B7802334370FBF779FE200010BDC04619
:1064AC0001110000D4BE000010B50021074A0623DC
:1064BC00074817F02DF9022300240371F9334380A8
:1064CC000470FBF763FE200010BDC04602200000E4
:1064DC000111000070B507230A000948002117F0CC
:1064EC0017F900250400074906220C31013018F079
:1064FC005DFD20002570FBF749FE280070BDC046ED
:10650C000111000074BC00000A0010B50A23002120
:10651C00074817F0FDF80923064A0381C28043801F
:10652C00C632013302800371FBF730FE002010BD30
:10653C00011100003A090000030070B51C88080026
:10654C0022001B3A1221E02A0BD85A88074D13005F
:10655C00493BFF3B9BB2AB4203D80021044B9C84CC
:10656C00DA84FFF75BFA002070BDC046484100009A
:10657C0074BC000070B50C000500FFF799FE0C21EF
:10658C00002809D12B780631012B05D801220100F6
:10659C001340044A563213702000FFF73FFA0020D4
:1065AC0070BDC04674BC000070B509230021084AB8
:1065BC00084817F0ADF80025040008220649013000
:1065CC0018F0F4FC20002570FBF7E0FD280070BDEE
:1065DC001C20000001110000F06E061813B501001C
:1065EC0000240122034B1031009418F0D6F820003F
:1065FC0016BDC04605660618002270B511230600AC
:10660C000D000720110017F083F804002900067014
:10661C001022013018F0CAFC200017F09DF870BD54
:10662C0070B50A000500072300210E4817F070F81A
:10663C00122303702978040001290AD8681CFFF77B
:10664C00AFFA094B1B78834208D9611C0AF002F897
:10665C0020702000FBF79AFD002070BD02232370F0
:10666C00F7E7C04601110000D5BE000070B50A0066
:10667C000500072300210E4817F04AF81223037077
:10668C002978040001290AD8681CFFF789FA094BFC
:10669C001B78834208D9611C09F0A6FF20702000EA
:1066AC00FBF774FD002070BD02232370F7E7C04692
:1066BC0001110000D5BE000003880C485A1E92B28E
:1066CC0010B50C00122182420AD8094A002154321A
:1066DC001380FA22920006205A4316F035FF00214F
:1066EC002000FFF79BF9002010BDC046B7A10000A9
:1066FC0074BC000010B5104B0C0056331B78002BEB
:10670C0004D0FFF7D5FD0C2100280CD10B4B1A68D7
:10671C000B4B197827234B43FF219B189A4207D127
:10672C0009F0E2FB00212000FFF778F9002010BDF2
:10673C0091712732F2E7C04674BC000070BC0000B7
:10674C00D5BE000070B506780D0004001221012E94
:10675C001DD8114B56331B78002B04D0FFF7A8FD26
:10676C000C21002813D13100601CFFF719FA0B4BD8
:10677C0004001B780221834209D909F0EBFE272083
:10678C00074B44431B6800211C19FF23A3712800ED
:10679C00FFF744F9002070BD74BC0000D5BE0000AA
:1067AC0070BC0000F0B5047889B007000691012C8C
:1067BC0006D912210698FFF731F9002009B0F0BD77
:1067CC003D4B56331B78002B2FD100263B4B1B78AF
:1067DC0005933B4B1D687B1C40350493059BB342D2
:1067EC0029DC0023210004980593FFF7B3F9334B00
:1067FC0000251B780133834207DB0A22314B5043BF
:10680C001B681818457AAD07ED0F39780498FFF717
:10681C00C7F92D4B1A788242CBD800242B4B1B681E
:10682C000633A24217D10721C4E7FFF741FD0C2123
:10683C000028BFD1C9E72B78092B07D129000622E4
:10684C000498203918F0A4FB002802D001364435F6
:10685C00C4E70123C6E72733190027390978FF2934
:10686C0002D00134E4B2DCE73E00FB1D0793059B2C
:10687C00173601933B78200004990093FA1D3300DE
:10688C00029509F0B3FD2720104B444318683B7860
:10689C000419A3710622791C200018F087FB102222
:1068AC003100E01D18F082FB2000079910221730F0
:1068BC0018F07CFB00217DE774BC0000D4BE000006
:1068CC0068BC00006CBC0000D5BE000070BC0000B1
:1068DC00F8B50D000400FFF7C3FC0C21002805D00F
:1068EC0021788B1EDBB2FC2B05D812212800FFF778
:1068FC0095F80020F8BD661C3000FFF72BF90D4B06
:10690C001B7801338342F0DB0A22022142430A4BFB
:10691C001B689A18537A0B42E7D05F0707D58B4355
:10692C0053723100227809F0EBF80021DEE70321E5
:10693C00F5E7C046D4BE00006CBC0000F8B50D00F5
:10694C00FFF78EFC0C2100281BD000240A260127FF
:10695C0031000F4B61431B6859184B7A3B4208D0EE
:10696C005A0713D50222934320000A7A4B7209F07E
:10697C00C7F8084B01341B78E4B20133A342E7DAC1
:10698C0000212800FFF74AF80020F8BD0322EAE7AF
:10699C006CBC0000D4BE0000F7B505000191FFF7F8
:1069AC005FFC0C26002805D029788B1EDBB2FC2B53
:1069BC0006D8122631000198FFF730F80020FEBDF2
:1069CC006F1C3800FFF7C6F81B4E040033780133F8
:1069DC00834227DB0A22194B42431B689B185B7AC4
:1069EC009B07E6D40A236343144E0093009A336842
:1069FC0039009818062218F0D9FA3368009A2978C9
:106A0C009B180322587A197202435A723800FFF706
:106A1C0021F80026B042CDD1390020002A7808F0A8
:106A2C00CDFFC7E7FFF77EF8337804000233072663
:106A3C009842D7D1BEE7C046D4BE00006CBC000063
:106A4C00F8B5164E05000436F37F0F000C24002B0E
:106A5C0004D104791F339C4306D012243800210042
:106A6C00FEF7DCFF0020F8BD17F0AEFA0138C0B21B
:106A7C002428F2D829000522094818F097FAFA229E
:106A8C0021009200052016F05FFD01232100042057
:106A9C00F37716F0F3FDFFF741FADFE774BC000063
:106AAC008CBC0000F7B5050000240191384B1B7815
:106ABC00A3420DD83749280017F079FA1221041E89
:106ACC0061D129000622344818F070FA21005AE0EE
:106ADC00442363430093314B009A1B689B181A00A4
:106AEC0040321278911E01292DD92C4F009A3B6807
:106AFC009B181A0040321278072A0CD11E68002EFF
:106B0C0004D1274B210003201B68984702223378BD
:106B1C009343012B32D0009A3B689B181A004032E9
:106B2C001278052A0CD11E68002E04D11C4B2100B2
:106B3C0003201B689847022273789343012B1DD0C6
:106B4C000134E4B2B2E71749EE3109780129CCD10E
:106B5C001E68002E04D1124B210003201B6898479D
:106B6C00102372881A4204D10D4B210003201B689C
:106B7C0098470222F37A9343012BB6D1044B0C2194
:106B8C001B78A34296D90198FEF748FF0020FEBD62
:106B9C00D4BE00005AE4071886BC000068BC000094
:106BAC0024BF000074BC000070B509230021094A01
:106BBC00094816F0ADFD0400FFF792F9002501001D
:106BCC000822601C18F0F2F920002570FBF7DEFAA1
:106BDC00280070BD032000000111000070B50C00EE
:106BEC00074D08220100280018F0E0F928000421C4
:106BFC00FBF752FB20000021FEF710FF002070BDB8
:106C0C0078BC000010B50C000221FBF745FB01001D
:106C1C002000FEF703FF002010BD10B50C0003216F
:106C2C00FBF73AFB01002000FEF7F8FE002010BD38
:106C3C0010B50C0081880088FDF7B2F90100200026
:106C4C00FEF7ECFE002010BD007810B50C001221F0
:106C5C00032804D801231840FDF7ACF901002000EB
:106C6C00FEF7DCFE002010BD70B50A0009230021E0
:106C7C00084816F04DFD082204000021013018F0E0
:106C8C00B1F900256023200025706371FBF77EFAB3
:106C9C00280070BD0111000070B541230A000B489B
:106CAC00002116F035FD04002A220949013018F0A4
:106CBC007DF920000025162200212B3018F092F9C6
:106CCC0020002570FBF762FA280070BD011100004E
:106CDC00646D061810B50C0016F054F82000002155
:106CEC00FEF79CFE002010BD10B503000C4A007886
:106CFC000C001278002803D05988914203D298884E
:106D0C00FDF77AF909E00022064B110001201B68FF
:106D1C00984712212000FEF781FE002010BDC046CE
:106D2C00D4BE000024BF0000002270B50C00190076
:106D3C00084BD000C518185A884205D16B68181E2C
:106D4C0001D02000984770BD01322C2AF1D10020CF
:106D5C00F9E7C046906D06182000800000C00000C6
:106D6C000000E400000028220000000000000400E5
:106D7C0000F7FFFF7F00000030F0FFFFFFFFFFFF79
:106D8C00FF170000030C0000E16C06180110000056
:106D9C001565061809100000E164061802100000C1
:106DAC00A56C061803100000756C0618010C000089
:106DBC00276C0618630C0000116C0618310C0000CF
:106DCC00556C0618330C00003D6C0618350C000091
:106DDC00F56C061801200000E96B06180220000073
:106DEC00B564061803200000B56B061805200000DA
:106DFC00B16A06180620000035700618082000003D
:106E0C009D7106180A200000ED720618092000007A
:106E1C00457206180B200000F57C06180C200000AB
:106E2C00197E06180D200000F98F0618142000009A
:106E3C004D6A06180F200000896406181020000007
:106E4C004969061811200000A569061812200000D7
:106E5C00DD6806182A20000061640618272000004F
:106E6C00B167061828200000516706182920000079
:106E7C00016706182E200000C56606182D2000009C
:106E8C00816506182B200000796606182C2000005E
:106E9C002D66061817200000E9650618182000005A
:106EAC00116406181C200000B5650618232000008C
:106EBC00E163061824200000456506182F20000009
:106ECC00B16306181D2000006D9606181E200000E8
:106EDC00A9960618252000004163061826200000FC
:106EEC0001630618FFFFFFFFFF03000070B5442588
:106EFC001D4C454323685B59002B05D000221B4BCE
:106F0C00110001201B6898470022236811005E19AC
:106F1C0010001A2316F0FCFBFF23306020680026BB
:106F2C0045192C6831002370EC3B638080231B01D6
:106F3C00A380082320002381013BE6806381267314
:106F4C0006220D3018F04EF88023FF33A3827F3BCE
:106F5C00E382074BE6742683DA682A631B8AAB86C6
:106F6C00012340352B7070BD68BC000024BF0000AD
:106F7C0074BC000070B514000F4B06001A78E3B215
:106F8C000D009A4205D80D4B220003201B68E1B27C
:106F9C009847002E0FD14420E4B24443084B1868A4
:106FAC000019030040331B78022B04D10622290060
:106FBC00363017F0FBFF70BDD4BE000024BF0000BC
:106FCC0068BC0000F7B50D0000240190134F3B780E
:106FDC00A34202D8FF242000FEBD4422104B624382
:106FEC001B689B181A0040321278511E022902D9D4
:106FFC000134E4B2EAE71E68002E04D1094B2100EB
:10700C0003201B6898473378019A9342F0D13B7860
:10701C00A342DFD9002DDED02E60DCE7D4BE000009
:10702C0068BC000024BF0000F0B5544B87B003913E
:10703C00EE331A780400022A00D19DE001220021CF
:10704C00FF201A70FFF7BEFF04AAD51D030028709D
:10705C00FF2813D04A4A106844225343C0184030CA
:10706C000378012B00D087E02379042B0FD9122150
:10707C000398FEF7D3FC002007B0F0BD2800FEF704
:10708C00EFFF011EF4D12878FFF730FFECE7012B5E
:10709C0009D0218862889142E9D81F29E7D980213B
:1070AC00C9018A42E3D8627B013A062ADFD8A27B67
:1070BC00032ADCD86279032AD9D8A279012AD6D836
:1070CC00012B03D000220292042B07D12D49E01D85
:1070DC0016F06DFF0028CAD101230293442300212E
:1070EC002A78274F53433A68D3181D68264A28003C
:1070FC00019323790D30D35C6B80638869721A0A13
:10710C002A72EB712388A971AB80637B0622AB7268
:10711C006679E11DEE72A3792B7317F047FF0023FC
:10712C00029A9A4200D1A37BEB74032E1DD8300037
:10713C00019B1249303317F00DFF02120212019A13
:10714C00C86810630A8A9A80442204ABD9793B68D8
:10715C004A439B180122403300211A7088E706220B
:10716C001800123117F022FFEEE7084B0022310015
:10717C0003201B689847E7E70C2179E774BC0000F3
:10718C0068BC00005AE40718FC7B061824BF0000FA
:10719C00F0B5274B85B00191EE331A7805000C2120
:1071AC00022A38D001221A70037806311F2B32D8EC
:1071BC000021FF20FFF706FF02ABDE1D3070FF2819
:1071CC0007D13000FEF74CFF011E24D13078FFF7B9
:1071DC008DFE44223378174F53433A68D3181B8CD7
:1071EC000093FEF7A1FB0721041E14D021002A787E
:1071FC00681C15F0ADFD442230783B684243297879
:10720C009B181C84598440331B78022B09D1220013
:10721C000CF04AF900210198FEF700FC002005B0A3
:10722C00F0BD009B002BF5D01800FEF795FBF1E7A5
:10723C0074BC000068BC0000F0B5274B85B0019110
:10724C00EE331A7805000C21022A38D001221A706C
:10725C00037806311F2B32D80021FF20FFF7B2FE36
:10726C0002ABDE1D3070FF2807D13000FEF7F8FEB0
:10727C00011E24D13078FFF739FE44223378174FA2
:10728C0053433A68D3181B8D0093FEF74DFB07212F
:10729C00041E14D021002A78681C15F059FD4422D4
:1072AC0030783B68424329789B181C8559854033BC
:1072BC001B78022B09D122000CF026F90021019831
:1072CC00FEF7ACFB002005B0F0BD009B002BF5D009
:1072DC001800FEF741FBF1E774BC000068BC00002D
:1072EC00F0B5964B93B004900591EE331A78022AC0
:1072FC0014D001220021FF201A70FFF763FE06ABA9
:10730C009C1C049B20701B78002B03D0012B26D0D7
:10731C0012210FE18A4B1B78834201D80C2109E121
:10732C0044252A00874E424333689A18403213781A
:10733C00022BF3D10CF07CF8011E00D0FAE022787D
:10734C00336855435D19032340352B70049B002192
:10735C001B78002B00D0EDE0002013B0F0BD784B73
:10736C001B78834269D94422764B50431B681B1807
:10737C0040331B78012BD1D106ABDD1C00232B70C5
:10738C00704B21781A6844234B439C58E37ADB07F3
:10739C005CD46388DB0711D52800FEF761FE011E63
:1073AC0000D0C7E00C2362881A4207D02000217B52
:1073BC000D30FEF74FFB002800D0BAE00A26210062
:1073CC00638807AD02932B83637A227A1B04120223
:1073DC001343E2790D311343EB60A37A06226B77EA
:1073EC00E37A0193AB77237B0393EB7706ABF61829
:1073FC00300017F0DBFDE27C06AB0533DA77227D3B
:10740C0006AB0633DA77637D06AA0732D377A17D04
:10741C0008AAD177092206A95218D377237EF377CD
:10742C000B23627E5B18DA77019B4449DB0715D48A
:10743C00CB6807930B8AAB8015E02000FEF710FE9B
:10744C00011E77D12078FFF751FD95E73E493F4863
:10745C0016F0ADFD002800D05AE79AE70622280066
:10746C00123117F0A3FD442206AB9F1C3B78354D1F
:10747C005A432B682C209A18118C07AB1982518C0B
:10748C00334E9982118D5982528D06A9DA820022CF
:10749C005A831A77294B09AA56331B780918D377C4
:1074AC0032780A70002B02D0029B5B0702D4019B3E
:1074BC009B0720D5200003990D30FEF771FB2C2281
:1074CC0006AB9B1818703378834214D9E37A9B0768
:1074DC0011D527261F4B70431E681F4936180736D7
:1074EC0030001C3A17F054FD002804D030003A78D4
:1074FC001A4917F023FA07A938780CF06DF8011E19
:10750C0018D144203A78296842438B181A00022576
:10751C00403215706288D20700D417E706AAD478D7
:10752C003E331C70030004226343CB1840331A70A3
:10753C000CE70B210598FEF771FA0DE774BC0000FF
:10754C00D4BE000068BC00005AE4071886BC0000DA
:10755C00D5BE000070BC000060E40718816F0618EF
:10756C00442270B50D000978134B4A431B689B18D5
:10757C001E6840331A78931E012B03D90F4B03203E
:10758C001B689847737E002B14D009233E220021E0
:10759C000B4816F0BDF81323040003703378062251
:1075AC0043706B78A91C8370033017F0FFFC20002C
:1075BC00FAF7ECFD002070BD68BC000024BF000091
:1075CC0004110000F0B544250B7895B004936B437F
:1075DC007F4E0293029A33680C009B181A003E32BD
:1075EC0012781F68019240331A78032A22D1794D00
:1075FC002B00EE331B78012B09D100217648FEF7C6
:10760C000DFA3368029A9B18403301229DE02B003F
:10761C00ED331978002904D1704B0A0001201B6846
:10762C009847ED3529780139C9B229700029E8D17C
:10763C006B48E4E70A001532039220321278002AD4
:10764C0000D1EDE10B00373319780398FEF702FAFD
:10765C000590002800D1C9E00C237A881A4205D085
:10766C0000225E4B110001201B6898477D8806ABF9
:10767C001D837B7A3A7A1B0412021343FA79390080
:10768C0013430993BB7A06AA5377FB7A0D31039304
:10769C001300039A9A7706223E7B9818DE7717F030
:1076AC0085FC04212A000A40944600230D4200D197
:1076BC00FB7C06A90131CB77397D06AB0233D97738
:1076CC007B7D06A90331CB77B87D07A9C87706A9BE
:1076DC000531CB77397E06AB0633D977797E3C4DB5
:1076EC0006AB0733D9772B68029928225B18196BE4
:1076FC0006A806919B8E06A98B8000234B830B77E3
:10770C00344B08A956331B788018CB773549097848
:10771C000170002B02D06346002B02D1039B9B0708
:10772C0008D5380031000D30FEF73AFA282206ABA6
:10773C009B181870049806A90BF04EFF002806D170
:10774C00029A2B689B18022240331A7005E0002223
:10775C00224B110001201B6898477B88DB0708D55A
:10776C00442201991A4B4A431B689B180022403350
:10777C001A7063783C2B00D1E9E0164BEE331B7882
:10778C00022B1AD1230035331B78002B02D16378DE
:10779C00002B12D008233E220021134815F0B8FF0D
:1077AC00122303706378383443703B788370019BE9
:1077BC00838023788371FAF7E9FC054B029A1B68E6
:1077CC0000209B18FF223E331A7015B0F0BDC04646
:1077DC0068BC000074BC00000A20000024BF00003C
:1077EC0039200000D5BE0000041100000422A11CA9
:1077FC0006A817F0DBFB0322A11D07A817F0D6FB88
:10780C00E37E06AAD371E36906A80893236A099359
:10781C00636A0A93230024331A790AAB1A71230082
:10782C0029331B7806AA537523002A331B7806329A
:10783C001374A38D5382236B0D93059B0E9301231D
:10784C00D37722003432117806AA0532D177220080
:10785C003632117806AA0732D1777A881209934307
:10786C0008AAD377934B5A6A10921A002C321178CB
:10787C005A8D82852E2212181170DA8D0100028623
:10788C001A8E323342861A7813AB1A70019801F0B3
:10789C00CDFF019B5D4333685B1940331A78042A92
:1078AC0004D0854B03201B6801999847834B21001A
:1078BC001B6826005D19280006221531203017F0B0
:1078CC0075FB092237363178EB1DD97739331A70AD
:1078DC00383B083ADA770023EB60E38B9340AB60DC
:1078EC0005232B616B61734BEF331B78002B00D19D
:1078FC0093E0734BAA76EB61019B03982B83FEF705
:10790C004FF9704B1B78834202D9012108F044FED9
:10791C0031780398FEF71EF96B4B1B7801338342C9
:10792C000BDB0A22694B42431B689B185B7A9B0753
:10793C0003D53278039908F0E3F80198FAF76CFC58
:10794C005E4B029A1B689B18012240331A70092067
:10795C00FEF7B8FA23003533061E039378D02023A4
:10796C003E2200215A4815F0D3FE0A230022037050
:10797C00039B05001B78934200D13C326A700122B4
:10798C002A71019AA81D6A80002B59D0210026006B
:10799C0006221531373617F009FB337828006B7146
:1079AC00FA7A022311000C3019401A4240D02100FF
:1079BC000622093117F0FAFA327828000223110056
:1079CC00123019401A4237D0210006220F3117F01D
:1079DC00EDFAE38B2B83238C6B83638CAB832300BB
:1079EC002A331B78AB772800FAF7D0FB230035330A
:1079FC001B78002B00D1C0E606233E220021344820
:107A0C0015F086FE14230370019B4380230036334C
:107A1C001B780371FAF7BAFBAFE6EB61AB766BE759
:107A2C004A783C2A00D1F0E5432A00D095E6ECE5F3
:107A3C00062217F0D7FABFE7062217F0D3FAC8E7E9
:107A4C0039003B7B06226B710D3117F0AFFACAE798
:107A5C0014233E2201001E4815F05AFE0122039BFE
:107A6C0002701B780500002B00D13C266E70002B99
:107A7C00B9D0019B2A716B80230037331B78A81D6A
:107A8C00990710D521006A7106220F3117F08EFA72
:107A9C00E38BAB81238CEB81638C2B8223002A3309
:107AAC001B78AB749FE7210013406B7106221531D4
:107ABC00ECE7C04674BC000024BF000068BC0000AA
:107ACC0075D80618D5BE0000D4BE00006CBC0000F2
:107ADC000411000070B544240A780B4E62433368DD
:107AEC000D009A18403213780D2B0BD181200021F8
:107AFC008001FDF793FF2A78336854430A221B193F
:107B0C0040331A70002070BD68BC000070B5144B77
:107B1C001400EE331A780D00012A01D10C2070BD2F
:107B2C0002221A70EF2801D94220F8E7002180B216
:107B3C00FFF748FAFF28F7D044210A00094B4243CB
:107B4C001B689A183D321278FF2AE7D051435B1814
:107B5C0040331B780C2BE1D1287000202270DEE71B
:107B6C0074BC000068BC0000F0B50E0044211E4F30
:107B7C0041431C003B6885B05B1803921A000191CD
:107B8C00403212784220013A022A24D81A6836333D
:107B9C00029218000622154917F0FAF90500002E7A
:107BAC0002D0029B1B7E3370039B002B07D001235A
:107BBC00002D02D1029AD27A1340039A1370201E20
:107BCC0009D03968019BC918002D06D00622363120
:107BDC0017F0ECF9002005B0F0BD0622303117F09B
:107BEC00E5F92800F7E7C04668BC00005AE407181E
:107BFC00131D12101500000070B5442586B06A469E
:107C0C00002101264543354B04001B685D192B6888
:107C1C0098789181D071D181304207D069461A7918
:107C2C000A74DA880A811A898A813100420709D5D7
:107C3C0006226E464A439A1811797174D1881289BA
:107C4C007181F281052810D16A4669469289C989E9
:107C5C00521869460989914201D269460A816946DE
:107C6C004989914201D269464A816A461978684627
:107C7C0091745B78D3741A4B1A00EC3212788271BF
:107C8C002A8CC2821A0056321278027503291ED829
:107C9C00080017F05FF902150215DA6800926A46BF
:107CAC001B8A9380694620000EF04AFC002805D000
:107CBC0000220C4B110001201B68984706B070BDC8
:107CCC00123319000622684617F070F9EAE7054BE3
:107CDC00002203201B689847E4E7C04668BC0000FC
:107CEC0074BC000024BF0000F0B5444B87B0029177
:107CFC00EE331A780400022A00D17DE001221A70BA
:107D0C0004ABDD1D0023190094463D4A3D4E12780C
:107D1C002B7001923268403203920198DAB282429F
:107D2C005AD3002901D004ABDA712800FEF798F978
:107D3C00011E4BD144232A7853433268D3180622B0
:107D4C0040331A70A288638812219A423ED8207858
:107D5C0001283BD8043A2C4892B2824236D8043BD4
:107D6C009BB2834232D8A379032B2FD8E279032A12
:107D7C002CD8224B56331B78002B01D1012A25D845
:107D8C0044272B785F433368DF193868002805D106
:107D9C0010230200010015F0BBFC386044210120C7
:107DAC002A7833684A43D2589070207810716088D2
:107DBC00D080A0881081A0791070E07950702A785A
:107DCC00514306225B18002140331A700298FDF7CC
:107DDC0025FE002007B0F0BD44205843039F01331B
:107DEC00385C871F022F01D9614696E7002901D024
:107DFC0004ABDA710628A5D00C21E7E774BC0000AF
:107E0C00D4BE000068BC0000FC3F0000F0B5714B14
:107E1C0087B001900391EE331A78022A00D1D7E093
:107E2C0001221A7094466C4A04AB10786B4ADD1D23
:107E3C0012680023110040311C000F002B70D9B2C6
:107E4C00884207D95E1C029644265E43BE5D063E00
:107E5C00022E25D8002C01D004ACE171019C2478B1
:107E6C00002C20D01226012C00D0ACE0019D122653
:107E7C006D78012D00D9A6E0884233D944214B43BB
:107E8C00D21840321378082B00D1A1E0072B2FD148
:107E9C00504BEA331A88A24315431D80002692E00A
:107EAC006446029BCBE7884200D891E044246343AC
:107EBC00D21840321378072B00D089E00EF0D0FE98
:107ECC00061E00D07FE02A78444B54431B681C19D3
:107EDC00082340342370019B1B78002BDED100203B
:107EEC0007B0F0BD04ABD81DFEF7BAF8061E6AD178
:107EFC0004ABDD794423394F5D433B685D192C6835
:107F0C00002C1AD1102322002100200015F000FCB7
:107F1C0028604420102104AAD2793B684243D258ED
:107F2C00D18011810F3914711480917004AAD27907
:107F3C0042439B18062240331A7004ABDA7944236F
:107F4C00264D53432A689B58022202931B78934375
:107F5C00012B1FD001211F4A4426EA3213888B4380
:107F6C001900019B5B78581E83410B43138004ABB3
:107F7C00D879330043432A68D31800221A62FFF7DA
:107F8C003BFE04ABDA792B6856439E190723403627
:107F9C003370A0E7124F134C3900200016F007F88D
:107FAC0000280DD1029B1B78032BD3D1FDF71CFEAF
:107FBC000028CFD03900200015F0F9FF0028C9D0D7
:107FCC00002E00D187E731000398FDF727FD86E7E7
:107FDC000C26F8E774BC0000D4BE000068BC00009E
:107FEC005AE4071886BC0000002010B50A4B1A781A
:107FFC000A4B1B684033824201D1002010BD443330
:10800C00190044390978072902D00130C0B2F2E7CF
:10801C00FFF7F2FDF1E7C046D4BE000068BC0000DB
:10802C00E5000000F0B5B54A4B7E91B0D35C0C0076
:10803C000393B34B097D1A6844234B439B5800218F
:10804C00062208A8049316F0CDFF062200210AA8E8
:10805C0016F0C8FF062200210CA816F0C3FF06225A
:10806C0000210EA816F0BEFFE37D0293FF2B00D17A
:10807C00E7E06588002D00D1CFE22900A14F1A312D
:10808C00062289B208A83E7814F05AFE3B78301DBF
:10809C00059370235843B31C0C26032773435430A9
:1080AC00FF30DB19B843C018B8433821281AF9F748
:1080BC004FFE38231A00C0B242430192059ADB18D6
:1080CC00101D5843130002335E435430FF30B84345
:1080DC00F6198D4B8019B843C018019BC01814F0C9
:1080EC0021FE030606D529003031062289B20AA8E2
:1080FC0014F026FE2378002B04D10622637D134056
:10810C00042B6AD070207F4F0C2339780A1D504302
:10811C00032202314B435430FF309B189043C0185C
:10812C00794B9043C018019BC01814F0FBFD03075A
:10813C0006D529001431062289B20CA814F000FED1
:10814C0070250C2203263B78181D684302335343D9
:10815C005430FF309B19B043C0186B4BB043C01860
:10816C00019BC01814F0DEFD030720D570200C23F2
:10817C0039780A1D5043032202314B435430FF30EF
:10818C009B189043C018604B9043C018019BC018BB
:10819C0014F0C8FD01233F221840637A02909343E8
:1081AC00402B1AD10223029A1A43029215E03B7813
:1081BC00181D68439D1C0C235D435430FF30B043A5
:1081CC000335514B4019B043C018019BC01814F033
:1081DC00A9FD0123C0111842C8D1627D04231100EE
:1081EC00194001911A4200D11DE263780EA8002BB0
:1081FC0016D0049B1A7801231A4001923F22E37B8C
:10820C009343402B03D1019A3E3B1A4301923F4BBF
:10821C001A680E929B888380039B012B16D121E058
:10822C00210006220A3116F0C1FE237E0193002B99
:10823C00F2D03F22E37B9343C02BEDD0FE2301937E
:10824C00EAE700230193039B012B08D0039B032B2C
:10825C0005D000222E4B110001201B689847637D2E
:10826C005B070DD53F220EAB5B799343402B07D1B7
:10827C00019BFE2B04D1049B5B78012B00D883E07F
:10828C00244D01202B00EA331B88034246D1214B9D
:10829C00651CEE331E78012E00D047E1637DDA06B3
:1082AC0072D55B0700D408E13F220EAF7B79934374
:1082BC00402B00D001E1019BFE2B00D0FDE0002102
:1082CC00EC3B013A144815F023FA0B23050003701C
:1082DC004670237F06224374029B8670C37008A9E4
:1082EC00043016F063FE280006223900AE720B3003
:1082FC0016F05CFE2800F9F749FF45E082E4071808
:10830C0068BC0000D4BE00000040005080BC0000DF
:10831C0024BF000074BC000004110000A61CF37FF5
:10832C00013B012B04D90022C14B11001B6898475B
:10833C00F17FEA3503232A88012931D103990129D8
:10834C002CD19210134032D0023B5A425341D8B236
:10835C00A57D012D00D09CE0002800D09BE0B54904
:10836C00A31CEA31DA7F00268B5F039E012E00D01E
:10837C0097E0012A00D090E00B329343AD002B43E1
:10838C000B80002800D182E7631CDB7F002B02D01E
:10839C00608CFDF7D9F9002011B0F0BD1211D1E7B6
:1083AC000399012901D19211CCE71212CAE7069365
:1083BC00FF23A27C0593002A05D0238A1A0B1B05E8
:1083CC001B0D059206930027637D9B4E0793E38B51
:1083DC00984D0493994B1B789F4223DB0E26E8356E
:1083EC002B7806225E43944B08A9F618300016F041
:1083FC00DDFD079BB372029BF372059B3373069BE7
:10840C00F380049B33812B780133DBB20A2B3ED0F3
:10841C002B70884B0020E9331A78092A98D801323E
:10842C001A7095E7310008A815F0C1FD00282BD073
:10843C00F37A029A934227D1B37A079A934223D1C3
:10844C00337B059A93421FD1FF2A17D00E227A4311
:10845C00AD1862352B88069A93420FD02A80049B64
:10846C00052B0DD90E237B43724F049AFF186437EA
:10847C003B88934204D000203A8069E70020EEE765
:10848C0001235840C0B263E701370E36A2E7002340
:10849C00BEE7002563E7022561E7C022AD019343E7
:1084AC006DE7012A03D12F3293432D0167E7644A0C
:1084BC0013402A021A430A8063E72B233E22002131
:1084CC00604815F025F90127022347700370637D7E
:1084DC005D4A0600D35C08A98370029B0622C37018
:1084EC00043016F063FDEB7F1F2B05D90022504B97
:1084FC00110038001B6898473000EA7F631DB27288
:10850C00D97F638C92B2C91889B20B3014F018FC65
:10851C001F22E87F0021121A0B30301816F062FD72
:10852C003300227F2A3330001A70E4E6631DDB7FB0
:10853C00EF7F03933E1CE52F01D9444B1E7880231B
:10854C003E225B0000213F4815F0E2F80E23FF337A
:10855C000380637D0500F6B24380E52F08D86021C7
:10856C00A27D53018B4303D0314B03201B689847EA
:10857C0060226B8893431BB2403AE52F01D8A27D51
:10858C00520113436B80029B06222B71681D08A9B4
:10859C0016F00CFD627E2E4B9A5CEA72A27E9B5CFE
:1085AC002B73A27CFF23002A01D0238A1B0B6B7335
:1085BC00E37E0A21AB731F4BBF1B58330020185EA0
:1085CC00F9F7BEFB237F0622C018E8732800E38B63
:1085DC000EA92B82019B1330AB7416F0E7FC28001C
:1085EC006E76039B618CB2B2C91889B21A3014F042
:1085FC00A7FB3000E5221A30C0B20021921B2818CC
:10860C0016F0F0FC2800F9F7C1FD039BFFB29B1993
:10861C00DBB20393002F8DD1B6E60622211D08A8EC
:10862C0016F0C4FCD9E5039B012B00D00EE627E61F
:10863C0024BF000074BC0000D0BC00005DBD000075
:10864C00FFFCFFFF04110000DC8F06182C800618BD
:10865C0082E4071844220B78F0B55A434E4F89B088
:10866C003B6800929D182B0040331B780C000E2B9E
:10867C0000D087E00A8CCB1C0193002A00D171E05A
:10868C007020464B1D780C23291D484303210235CD
:10869C006B435430FF305B188843C0188843101A62
:1086AC003531F9F755FB3E4B06001A78C3B29A42A6
:1086BC0005D800223B4B110001201B68984727204E
:1086CC00394BF6B24643009A18683B6886199D18D8
:1086DC00280031000622203016F068FC2900B07901
:1086EC0036310870E31CDB7F012B09D123002833C2
:1086FC001A783F239A43402A02D13D3B03430B7027
:10870C0028002100062226302331012616F04EFCCB
:10871C00009A3B6830009B181A00E57F2E321570CA
:10872C001A68353311784908884301001878B0432A
:10873C0001431970A31C0393A36903A94B60A38B7A
:10874C0020780B81A37FCD728B7253898B81938997
:10875C00CB81937B8B7400230B820FF0EFF90020FD
:10876C0009B0F0BD280006222331203016F01EFC83
:10877C002B002800E21CD27F36331A700B490622DC
:10878C002630C2E7002BEAD00022064B1100012054
:10879C001B689847E3E7C04668BC0000D4BE0000E5
:1087AC00D5BE000024BF000070BC00005AE40718BE
:1087BC00F0B50B7889B001934423019AC64E5A4305
:1087CC00336800929D182B0040331B780C000293E9
:1087DC000E2B02D0112B00D083E02B0036331B78EC
:1087EC0020350493029B0E2B02D101980EF086FAD1
:1087FC003368009A9F183B000F2240331A70FF23F6
:10880C007B866B469B88A088618803933B830023FF
:10881C0049000138FB61BB76B9604018F9F7A8FA3A
:10882C000523F9603B617B61381DFCF70DFC0123CE
:10883C00049F28001F403900FDF78CF9A74B1B78CB
:10884C000133834213DB0A22A54B42431B689B185E
:10885C005B7A5B070BD5009A336829009B180122C1
:10886C002E331B789A4093B23A0007F091FA029B90
:10887C000E2B47D13E22002104339A4814F048FFB6
:10888C000600029B944F0380039B009A43803B6835
:10889C0029009B182E331B7806220371049B43710D
:1088AC00063016F083FB63788F4A3000D35C337349
:1088BC006388F381237A3374F9F768FC3B68009A78
:1088CC0098580C3814F069FF00223B6800995A50F4
:1088DC00814B00991B6862785B1883492F338A5C43
:1088EC001A707D4B009A1B689B181A004032127844
:1088FC000F2A37D0237B002B00D135E1E089FCF720
:10890C0023FF35E1744E009A336876489B18343354
:10891C0019783E22162314F0FBFE182303803168CD
:10892C00009B0500C9180B0034331B786E4A43803A
:10893C00039BC3800B002E331B78203103726378AA
:10894C00D35C0622037463884382237A03758B8974
:10895C0083800A3016F02AFB049B28006B72F9F70F
:10896C0015FCB5E735331A78012311001940039132
:10897C001A420CD1584BE07A1D68009BED182A0066
:10898C0035320223117801283FD10B43A1E0237C1F
:10899C00277B02933E1CF72F01D9F7231E1C802343
:1089AC003E2200215B004F4814F0B2FE0F230370EF
:1089BC00019B05004380637A0A2103714B4BF6B28D
:1089CC0058330020185EF9F7BBF9A37AC018687108
:1089DC00637CAB71039BF72F00D8E37A2800EB7113
:1089EC002E72029BE189B2B2C91889B2093014F017
:1089FC00A7F92800F9F7CAFB029BBF1B9B19DBB236
:108A0C00FFB20293002FC5D1B4E70E0004209E43A1
:108A1C0001425BD11670A968A688B14214D9EB68E3
:108A2C00581CF9F7A5F98E420ED02E1D3000FCF71C
:108A3C0047FBA088AB6801381900C018F9F798F902
:108A4C003000E960FCF700FBA37C002B00D151E760
:108A5C0000231E000593B3B2E07C0293E389C01897
:108A6C00301880B214F088F9E3890290E07C01336D
:108A7C00C018B3B2181880B214F07EF9059B03909D
:108A8C00002B35D1282833D1E57CE3897519EDB25B
:108A9C00A91CC9B2C918052289B206A8073514F059
:108AAC004FF9E8B2E589401980B214F05BF906A9D8
:108ABC00020001980FF0B6F901230593029B9E1951
:108ACC000136A37CF6B2B342C5D813E70123734039
:108ADC00834313709FE7C04668BC0000D4BE0000FF
:108AEC006CBC00000411000082E4071874BC000088
:108AFC00214F009A3B689B18598EFF29DED03033EA
:108B0C001B78039A9342D9D1A37C029A9B1B9A425D
:108B1C00D4DA6B461B890022049307339BB20120E5
:108B2C0014F0F6FD019B0500038000238370039B6A
:108B3C00C370E3888380029B013B8371049BE17CBF
:108B4C00013B9AB2E38907300233C918B3B2591802
:108B5C0089B214F0F5F8280014F0FEFD009A3B6879
:108B6C009B18FF225A86A9E7A37C002B00D0C5E6F0
:108B7C00002009B0F0BDC04668BC0000F0B544242C
:108B8C000D78834E6C43336885B01819030003913C
:108B9C0040331B78102B09D80E2B37D800D198E016
:108BAC0000227C4B110001201B68EFE0112BF7D148
:108BBC00039B5A78082A00D0E4E03430017816235D
:108BCC003632754814F0A4FD744B070003803668E8
:108BDC0006223619330034331B78C58043803300AA
:108BEC002E331B783100037201230374002343825C
:108BFC000375B38D2031838036360A3016F0D6F9E2
:108C0C00337838007B72F9F7C1FA4DE003000700A6
:108C1C0036331B78043020370393FCF751FA3800B5
:108C2C000399FCF797FF5E4B1B780133834213DBF0
:108C3C000A225C4B42431B689A18537A5B070BD58C
:108C4C003368D2881B192E331B781A41D20703D5EF
:108C5C003900039A06F0C4FF4D4E33681B1940339C
:108C6C001B78102B27D100214F48FCF7D7FE336817
:108C7C001B19598EFF2917D008230022012014F04C
:108C8C0047FD336805801B191A00403211781622F3
:108C9C00102900D00E3A827030331B78C370002339
:108CAC008380837114F058FD394B1B681C19002309
:108CBC00403423702DE00F2BD9D13E2200210B3BE9
:108CCC00354814F025FD102345800370F9F75EFA42
:108CDC00CDE7039B5A78082A1ED01A2A06D0002A00
:108CEC004AD111003148FCF799FE3CE00768002F8F
:108CFC0005D1284B3A00390001201B689847012107
:108D0C003B780B4208D000222800130000920DF093
:108D1C00C1FF002005B0F0BD12233E2200211E48E9
:108D2C0014F0F6FC0E230370039B07005B781A2BE0
:108D3C0000D03E237B7033687D8019190B002E33D5
:108D4C001B7806223B710B0036331B78B81D7B71E8
:108D5C00203116F02BF901233B7300233800FB81E3
:108D6C003B74F9F713FA336818590C3814F015FDE5
:108D7C00002233681A5197E7064B290003201B6821
:108D8C009847F0E729000320024B1B6898478BE7B4
:108D9C0068BC000024BF000004110000183E000055
:108DAC00D4BE00006CBC0000462000004520000032
:108DBC0070B544244B78264E5C43264D336829000D
:108DCC001B191A00EE31087840321278012820D194
:108DDC00082A0CD100212048FCF720FE33681C190E
:108DEC000623403423700023E8352B800FE000224B
:108DFC001A4B11001B68984733681C1940342378B0
:108E0C00062BF0D02B00EA331B889B07EBD40020F9
:108E1C0070BD082A02D100211148DDE7598C0029C8
:108E2C000CD00A221B8C52425A43A023DB0059431C
:108E3C0003205218002114F087FBDDE701233E22AA
:108E4C00084814F065FC11230370F9F79FF9C5E786
:108E5C0068BC000074BC00000C20000024BF0000A3
:108E6C004220000004110000F8B5050018001C4B4E
:108E7C000E001B784224AB422AD944214D43194998
:108E8C000B685B191C004034277842240F2F1FD12C
:108E9C00002E02D02E331B783370002A07D00B68BB
:108EAC005B1936331B789C0700D501231370041E05
:108EBC000ED0096849190B0036331A7802231400B6
:108ECC001C401A4206D00622263116F06FF80024F8
:108EDC002000F8BD0622203116F068F8F8E7C046ED
:108EEC00D4BE000068BC0000F0B50700831C8BB03A
:108EFC000093C61C2337DA7F0400F17F3800FCF79F
:108F0C00D7FD0B23009300285AD104ABDD1C28009D
:108F1C00FDF7A6F80090002852D12B784425019338
:108F2C005D43294B11221B6801215D192B00403335
:108F3C001A7022780C3B1A702A00E38B3532AB8501
:108F4C00137828008B4321003631097820300B43ED
:108F5C0013703900062216F029F8F37F28000293CB
:108F6C002B00029A363326361A7031000622263030
:108F7C00039316F01BF8A31CDF7F2E35062230005E
:108F8C0012492F7016F004F8002804D00223029A1C
:108F9C001343039A1370A31C0593A36905A94B6093
:108FAC00A38B226B0B81631CDB7FCF728B72A38E26
:108FBC0008920B823734237801988B740EF0BEFD27
:108FCC0000980BB0F0BDC04668BC00005AE407180E
:108FDC000000000000000000000000000000000085
:108FEC000300020000010000000004040023F0B59F
:108FFC009DB002AAD371974A0191EE321178040008
:10900C0002292DD00125180044271570924A934E41
:10901C00127894463268043AD9B28C4519D8002893
:10902C0001D002ABD9712379002B06D16179A01D37
:10903C00FCF710FD0B23002804D1658823889D4282
:10904C0010D9122301981900FCF7F6FC00201DB072
:10905C00F0BD390001335943515C28000529DBD19F
:10906C000C23EFE7E189228A9142EAD8043D7C483F
:10907C00ADB28542E5D8043B9BB28342E1D8E08A8D
:10908C00238B9842DDD80529DBD9C8231B019A42D2
:10909C00D7D8A18A73480B000A3B9BB28342D0D825
:1090AC00FA20638A40008342CBD260790328C8D867
:1090BC00207B0328C5D801339BB2534389009942C6
:1090CC00BFD9C30700D5A5E002ABD81DFCF7C8FF7C
:1090DC00031EB7D1E389E58A5B009D4200D91D00D0
:1090EC00022D00D20225228A218B5200009191423E
:1090FC0000D900920099022901D202210091049317
:10910C00009B05920793002302AA5383D37904A8EA
:10911C0013830695FBF7DCFF0D23011E00D091E7AE
:10912C0002ABD8794423434332689B58002B04D0BC
:10913C004D4B0A0001201B68984702ABDE79442393
:10914C000022464F5E43396810008E190A3B11000D
:10915C0014F0DEFA4422306002A9CB793F68534305
:10916C00DE59002E1BD0012373722388F01C7381EF
:10917C006388A11DB38123793E3A3370237B7370CE
:10918C006379B37015F012FFE389F381238A33827C
:10919C00638A7382A38AF582B382009B338302AB0A
:1091AC00DE7944237343FB1805272E2040331F70B0
:1091BC0002ABA11DC018062215F0F8FE3A002B498F
:1091CC000FA815F0F3FE01230CADAB74238800221D
:1091DC002B8363886B83099B00935B08AB830A9B8F
:1091EC00EB83638A2B84A38AEE746B84217B2975B1
:1091FC0063796B7523796A74AB75164B180056300E
:10920C0004781BA8047003291FD8080015F0A2FECF
:10921C000A160A161649174814F0C9FE002800D081
:10922C000FE751E7DA680C921B8AAB80280010F02C
:10923C00B1FC031E00D105E7032303E71233190029
:10924C000622280015F0B2FEF0E7074B03201B683E
:10925C009847EBE774BC0000D4BE000068BC00006B
:10926C00FC3F0000760C000024BF000091BC000005
:10927C005AE4071886BC0000F0B5CB1DDB7F95B017
:10928C0004934B780F780193D44B0C001B78BB42A2
:10929C0005D8D34B0022390003201B689847442281
:1092AC001100D04D79432B680391581801004031BF
:1092BC000E780596052E00D085E103680293002BED
:1092CC0000D136E1019B002B00D12FE12100403A67
:1092DC00143106A815F06AFE2100002603222C3159
:1092EC0007A815F063FE06ABDE711E81238B06AA60
:1092FC005381049BBC491D01029B0AA85D196B8A12
:10930C009381AB8AD381230030331B785375059A34
:10931C0015F04CFE230031331B7806AA9375E369D4
:10932C0016830E9313000633DE7723000D96083355
:10933C00DA7F06AB0533DA77230034331A78AB4E79
:10934C0006AB0733DA77736A06A9109333002C3314
:10935C001A78738D38008B852E235B181A70F38D59
:10936C000B86338E4B86330032331A78033613ABAD
:10937C001A7000F05BFAF17F002906D1FA22012362
:10938C0004201201F37714F0DFF8964B039A1B6854
:10939C009B18628B181DDA60228B52009A60EA8A45
:1093AC00022A00D20222298B1A61914200D21100AA
:1093BC008E4A59611F83EF321278002A00D1B3E034
:1093CC008B4ADA6104229A76FBF73EFE854B260027
:1093DC001D68039B0E36ED18280006223100203044
:1093EC0015F0E4FD0122631C0593D97FEB1D0A40A7
:1093FC00DA77092239331A7000230835EB773000FD
:10940C00FCF7CEFB7B4B1B78834202D9012107F082
:10941C00C3F8631CD97F3000FCF79CFB6F4B1B78A7
:10942C00013383420CDB0A22734B42431B689B18AB
:10943C005B7A9B0704D5631C3100DA7F06F060FB76
:10944C003800F8F7E9FE0920FCF73CFD061E00D1B8
:10945C0083E020233E220021684814F059F9202291
:10946C000021050015F0BEFD0A23019A2B70534212
:10947C0053415B006B70019B002B31D02100062205
:10948C000E316F80A81D15F091FD029B28005A78B3
:10949C00022311000C3019401A4256D00622E11852
:1094AC0015F084FD661CF27F280002231100123097
:1094BC0019401A424DD021000622083115F076FDD4
:1094CC00F37F029A6B71238B2B83049B1B01D318A4
:1094DC005A8A9B8A6A83AB83230031331B78AB7720
:1094EC002800F8F753FE3F4D039A2B689858002834
:1094FC0006D00C3814F051F900222B6803995A50FD
:10950C00019B002B0DD006233E2200213B4814F07A
:10951C00FFF8142347800370343423780371F8F771
:10952C0035FE002015B0F0BDDA614CE7019B0B70E5
:10953C0089E702993248FCF771FA039A2B689B1859
:10954C00029A40331A7001927DE7062215F04AFD0B
:10955C00A8E7062215F046FDB2E7142301003E22CF
:10956C00264814F0D5F814223100050015F03AFD08
:10957C00019901224B424B4193406B70019B2A7025
:10958C00002BADD06F80A318DB7FA81D990714D5D5
:10959C0021006A710831053215F008FD238B029AFF
:1095AC00AB81049B1B01D3185A8A9B8AEA812B82BC
:1095BC00230031331B78AB7492E7210013406B719D
:1095CC0006220E31E8E7217803204A439B184033EA
:1095DC001A78034B39001B689847A2E7D4BE0000E9
:1095EC0024BF000068BC000091BC000074BC0000EB
:1095FC0075D80618D5BE00006CBC00000411000024
:10960C000E2000000A4B19780A4B1A6800234032CE
:10961C00994204D100208B424041C0B27047443281
:10962C001000443800780028F4D10133DBB2EFE7A6
:10963C00D4BE000068BC000010B50C000021064A26
:10964C000423064814F064F823780370638843807D
:10965C00F8F79CFD002010BD1F2000000111000038
:10966C0030B587B00C000500FFF7CCFF0C210028AB
:10967C000ED02A780631272A0AD8694600234A7068
:10968C00012268460B700A714B710EF059FD0100F6
:10969C002000FCF7C3F9002007B030BD30B587B00F
:1096AC000D000400FFF7AEFF0C21002814D0207829
:1096BC000631272810D8A278072A0DD8694601232D
:1096CC00487068460B706178037100238170C2701A
:1096DC0043710EF035FD01002800FCF79FF90020C6
:1096EC0007B030BD030010B5080001241902214356
:1096FC00441EA0410130FF30002A17D00D4A9C00B7
:10970C001268A2580C4C24789C4207D9002A05D028
:10971C0013007E331B78DB439B0705D1538A0A2247
:10972C005A4313F011FF10BD044AFAE713F0A6FFD9
:10973C00F9E7C0467CBD0000D4BE0000409C000090
:10974C00F7B5184F86003B6804009D59286A00281D
:10975C0022D16868002802D00C3814F001F928686E
:10976C00002802D00C3814F0FBF800222000110065
:10977C00FFF7B8FF002220000121FFF7B3FF200202
:10978C000124FF21204314F089FA280014F0E8F892
:10979C0000223B689A51F7BD0368019314F0E0F87E
:1097AC000198D4E77CBD000070B5012828D00228B0
:1097BC0011D000280ED11749174B01300B60174BF5
:1097CC001B684B60164B1B780B81164B1B884B810F
:1097DC0014F032FA70BD124B1878013840B2850083
:1097EC000028F7DB104BC4B21B685B59002B03D06D
:1097FC0001212000FFF7A4FF013C60B2043DEFE71C
:10980C00074B00211A78084B9200186815F0EAFBF8
:10981C00E0E7C04670BD000070A2061880BD0000D5
:10982C00D4BE000060A306187CBD0000F0B5830018
:10983C008FB0774F0293029A3B680D009C182668F4
:10984C000190002E00D0C5E03100842013F0FCFF05
:10985C003B68029A20609C5807230393002C00D18C
:10986C00C0E00120019B31001B02184314F016FAD2
:10987C002000203014F014FE230022000F217C3332
:10988C001E807E320393137820008B4313702300C9
:10989C0029007F331E705E70DE706B890522E381B8
:1098AC00AB8910312382EB890830638215F07EFB83
:1098BC00FCF716FB010020000822283015F076FB7F
:1098CC00544B019A1B78934200D98EE01B23A38240
:1098DC006B1DD87F504B26001B5C7236DA1E514232
:1098EC004A414E4952420A404932FF322283FB22FE
:1098FC00E2824B4A62832200298D703211806A8D7C
:10990C0048493280616748492377E18329006377AE
:10991C002C310F7821007A310F7029002D310F78FE
:10992C0021007B310F70032B06D1A921131C0901D7
:10993C008A4200D20B1C33800121AB1DDA7F039BC2
:10994C001B888B431900534253410B4303990B80E3
:10995C00290023002E31097868331970290034311D
:10996C00097802331971298E1980698E5980002368
:10997C00236063602B0002CBAC88049105A90C809A
:10998C009B788B70EB7904A9CB71AB68297D06931E
:10999C00EB6807932B69089308AB19716B7D04A9CD
:1099AC004B75AB7D8B752B8B0B83EB690B932B6AF8
:1099BC000C930B000533DA770B000633D877EB8C5E
:1099CC000198CB8412F034F918490390019802F0F5
:1099DC006FFA07E0164B32001B6803200199984779
:1099EC00FF23039303980FB0F0BD3B68029A9B587A
:1099FC00002B00D16AE71900042028310A782B3398
:109A0C0082430A7002211A788A431A705EE7C046B4
:109A1C007CBD0000D4BE000082E407184809000099
:109A2C0090420000FB00904207020000B80B0000BF
:109A3C0024BF0000F8B52D4B14001B6882000700F2
:109A4C000D00D658032C08D1022D08D0284B22002B
:109A5C00290003201B68984701E0002CF4D0002E4D
:109A6C001DD07E36337803201A000240824216D075
:109A7C009B100340834212D0012D1ED0022D0FD01B
:109A8C00002D2DD12300834304D0194B220001005B
:109A9C001B689847032332789A4314433470F8BDFB
:109AAC002300834304D0124B220001001B6898470B
:109ABC0003223378934323433370A5000C212B00EE
:109ACC008B4304D00A4B220003201B6898470C22BE
:109ADC003378380093432B43337000F065FCDEE79A
:109AEC00034B2A0039001B689847D8E77CBD00005F
:109AFC0024BF000010B5012403021C430A4B820052
:109B0C001B68D358002B03D003220221FFF792FFCE
:109B1C002000FF2114F0C2F8822022002100400016
:109B2C0013F034FE10BDC0467CBD0000F7B5012615
:109B3C0003021E430500300001920C0014F014F9CE
:109B4C00154BAA001B680090D758012C05D9134B54
:109B5C002200290003201B689847A300FF183B68CC
:109B6C00002B05D00D4B2200290003201B689847C1
:109B7C00019B3B60009BFF2B05D1084B2900032068
:109B8C001B68009A98470121A140009B30001943A3
:109B9C00C9B214F083F8F7BD7CBD000024BF0000EF
:109BAC00094B82001B6870B50C00D558012905D9EA
:109BBC00064B0A001B68010003209847A400635958
:109BCC00181E00D0187970BD7CBD000024BF0000A9
:109BDC004079704742717047094B82001B6870B521
:109BEC000C00D558012905D9064B0A001B68010049
:109BFC0003209847002D01D0A4006559280070BDA2
:109C0C007CBD000024BF0000F7B51F000E4B019275
:109C1C001B68820005000C00D658012905D90B4B96
:109C2C000A001B68010003209847002E0AD0A400EC
:109C3C00A359002B06D01B68002B03D03A00280038
:109C4C0001999847F7BDC0467CBD000024BF0000B9
:109C5C00F7B5204F14003B6882009B5806000D009E
:109C6C000193012905D91C4B0A001B680100032034
:109C7C009847019B002B20D03B68B2009B58AA0050
:109C8C00D358002B19D09A79032A1CD8100015F040
:109C9C0061F902081115002C0FD001229A710122D2
:109CAC0003E0002CFBD122009C7129003000FFF74F
:109CBC0019FD02E00322002C03D0F7BD002CFCD0D0
:109CCC0002229A71F9E71979034B03201B68984714
:109CDC00F3E7C0467CBD000024BF0000F7B50127A8
:109CEC0003021F43050038000C0014F03DF8174B1D
:109CFC00AA001B680190D658012C05D9144B2200E0
:109D0C00290003201B689847A300F6183368002B22
:109D1C0005D10F4B2200290003201B689847002215
:109D2C0021002800FFF794FF30680C3813F035FD44
:109D3C0000233360019BFF2B07D00123A340019923
:109D4C0038009943C9B213F0A9FFF7BD7CBD0000E0
:109D5C0024BF0000F7B5204F14003B6882009B58CD
:109D6C0006000D000193012905D91C4B0A001B6844
:109D7C00010003209847019B002B12D03B68B200D6
:109D8C009B58AA00D358002B0BD09A79032A1CD8C5
:109D9C00100015F0DFF802071116002C01D0032279
:109DAC009A71F7BD002CFCD002229A710022290076
:109DBC003000FFF797FCF4E7002CF2D101229A71E6
:109DCC00F5E7002CEDD19C71EBE71979034B0320DF
:109DDC001B689847E5E7C0467CBD000024BF000027
:109DEC0010B50C000021FFF7DBFE03002320A3427B
:109DFC0008D00020062B03D8042B03D92A3001E00D
:109E0C00092BFBD010BD000070B5062306000D0019
:109E1C001B4A09881B4813F07BFC1B4B04001B7866
:109E2C00B3420AD9194BB2001B68D358002B04D08B
:109E3C007E331B78DB439B0704D10C232370002358
:109E4C0023710EE000230370A978994204D00129F4
:109E5C000ED012220270F3E70121300012F0C2FD85
:109E6C0020712B8820006380F8F790F9002070BDDA
:109E7C00074B1A002D3210785B699847F0E7C04603
:109E8C002D0C000001110000D4BE00007CBD0000B0
:109E9C00ECBE000070B5062305000E00164A0988BA
:109EAC00164813F035FC164B04001B78AB420AD94C
:109EBC00144BAA001B68D358002B04D07E331B789C
:109ECC00DB439B070AD10C232370002323713388B7
:109EDC0020006380F8F75AF9002070BD002303704E
:109EEC00280012F0B1FD0500FCF706F80A21F7F77F
:109EFC0027FF40192071EAE705140000011100004A
:109F0C00D4BE00007CBD000010B50100040013227B
:109F1C000623054813F0FCFB012344808380037067
:109F2C00F8F734F910BDC0460311000070B50423D6
:109F3C00150004000A000100034813F0E9FB05704A
:109F4C004480F8F723F970BD0111000070B50E4B79
:109F5C0015001B7804000C2283420FD90B4B800098
:109F6C001B68C358002B09D07E331B78DB439B073F
:109F7C0004D02000498812F0B3FD002229002000F3
:109F8C00FFF7D4FF002070BDD4BE00007CBD0000E4
:109F9C0070B5104B15001B7804000C22834213D9AA
:109FAC000D4B80001B68C358002B0DD07E331B78E3
:109FBC00DB439B0708D00B7920005A1E934149883C
:109FCC00DAB212F0B3FD002229002000FFF7AEFF39
:109FDC00002070BDD4BE00007CBD000070B50D002B
:109FEC000100140001232A00034813F091FB0470B4
:109FFC00F8F7CCF870BDC04602110000002070B517
:10A00C001A00084BC400E5181C5B944205D16B6820
:10A01C00181E01D00878984770BD01301728F1D16F
:10A02C000020F9E798A10618F7B5120AD3B20193EC
:10A03C002C4B0C001B78934239D92B4B92001B688C
:10A04C00D758002F33D03B0003267E331B78334088
:10A05C00B3422CD04B88002B37D04B6898B2FBF70F
:10A06C00D1FB0023C38062880500930A04D01F4BE8
:10A07C0030001B681E499847EA886388920A218839
:10A08C0092021A4392048B0B920C9B03813713435D
:10A09C003E78184A1BB21340002E10D0EB800023E0
:10A0AC003B702900019812F053F9002818D06388EE
:10A0BC00002B12D0606880B2FBF7E4FB0DE0C022ED
:10A0CC00920111400B43EB80EBE70B881B133342DF
:10A0DC0003D13B00012281331A700198FFF714FF62
:10A0EC000020FEBDD4BE00007CBD000024BF0000DB
:10A0FC00FF030000FFCFFFFF70B51E4B140A1B7847
:10A10C000D00E6B2A34217D91B4BA2001B68D35813
:10A11C00002B11D003227E331B78134093420BD0BB
:10A12C00002B0DD0300000F01DFA002808D10122C0
:10A13C003D21300000F0B8FC2888FBF705FB15E04A
:10A14C000823002221000D4813F0E2FA2B7980221B
:10A15C00022B0DD05201144304806B8843802B8852
:10A16C004360F8F713F8300001F056FE002070BD84
:10A17C009201F0E7D4BE00007CBD00000611000087
:10A18C0010B5100AFFF7C0FE002010BD0604000039
:10A19C0019AA06181D040000D1AE06187B0C00008D
:10A1AC0015BD06187C0C000029BF061813200000F2
:10A1BC0005D406181520000029DD0618162000000D
:10A1CC0031C2061819200000DDB806181A2000004C
:10A1DC00B9B906181B20000031BA0618202000005F
:10A1EC0019D5061821200000A5D50618222000003C
:10A1FC0055C706183020000061E706183220000011
:10A20C00B9E706185A2000003DF106185B20000043
:10A21C00B9F106185C20000055F2061813FC00007A
:10A22C00599F061814FC00009D9F061815FC000091
:10A23C0049C806182D0C0000159E061805140000C0
:10A24C00A19E061810B5100A2221012200F02CFC48
:10A25C00002010BD10B5100A2221012200F024FCB0
:10A26C00002010BD0511000009A006180611000001
:10A27C0035A006180B020000C9A506180C02000038
:10A28C0021A706180D02000005A106180E020000F9
:10A29C008DA106181202000025A906180F02000055
:10A2AC00C5D606181002000065DE06181102000063
:10A2BC00A5E90618130200006DD706181402000059
:10A2CC00E9D7061802000000F1DD061804010000B1
:10A2DC00C1A906180601000005AE0618070100000A
:10A2EC00D5C2061808010000CDAB06180901000004
:10A2FC00E5BB06180B01000001D606180A01000088
:10A30C003DC906180D0100008DDD06180E01000078
:10A31C00EDE806180C0100006DBD06180F010000D9
:10A32C002DF4061810010000DDEC061800010000E9
:10A33C0051A206180101000061A2061803010000D9
:10A34C00C1BD06180201000065BE0618050100001B
:10A35C00C5BA06181E0070B50D0004000B000322D0
:10A36C000021FFF751FC2B00200003220121FFF7F5
:10A37C004BFC002070BD70B50D0004000B000222D8
:10A38C000021FFF741FC2B00200002220121FFF7E6
:10A39C003BFC002070BD10B50B0001220021FFF723
:10A3AC0033FC002010BD0000304BF7B51B68820059
:10A3BC00D658019037007C373B889B073BD4012350
:10A3CC0000930B339C4608200425346A002C32D0B1
:10A3DC00330003227E331B78617A9B101340624654
:10A3EC005143234A5218927A022B2BD0032B2CD098
:10A3FC00012B21D0D30721D5FBF734F9051E05D14C
:10A40C001C4B020001001B68012098472000227A97
:10A41C00A988093012F09CFC237A2900AB71022325
:10A42C003A88019813433B8011F01EFF00280FD08F
:10A43C00A888FBF72DF9F7BD2A42DDD1002324684B
:10A44C000093C3E71A42F9D0D6E70242F6D0D3E71D
:10A45C00009B002BEFD120362100300014F088F83F
:10A46C002100300014F068F8E5E7C0467CBD000020
:10A47C00B0A7061824BF0000F0B587B006000C1E6C
:10A48C0003922ED0214B82001B68D3580293002BD1
:10A49C0027D00B781E2B24D80C277B431C4A012178
:10A4AC00D318188902ABD881C01913F0CDF90E223C
:10A4BC00039B02A94360237852185F43144B21007D
:10A4CC00DF197B68050000930930242313F092FDFB
:10A4DC00011E0FD00F4B22781B680320984707B042
:10A4EC00F0BD0C4B1B68002C02D022783100F4E735
:10A4FC00094AFBE702ABDB89029829002B7220305A
:10A50C0013F0E4FF3000FFF74FFFE8E77CBD0000DD
:10A51C00B0A7061824BF0000FFFF000073B514009D
:10A52C001A000E4B0D001B7801A9834209D90C4B64
:10A53C0086001B68F358002B03D028331B785B076D
:10A54C0001D40D2D06D911238C700B704D70FFF7B3
:10A55C0093FF73BD0D234C700B70F8E7D4BE000055
:10A56C007CBD0000134B82001B6870B5D5580400ED
:10A57C00002D05D1104B01002A0003201B689847C1
:10A58C0001212000FFF728FB01217C352B880600D8
:10A59C000B4201D0002070BD2000FFF701FB032807
:10A5AC00F8D13000FFF714FB113843425841C0B2C8
:10A5BC00F1E7C0467CBD000024BF0000F0B5524B53
:10A5CC000E001B68110A99B002928A00D458CDB2C1
:10A5DC00002C04D14D4B220003201B689847280007
:10A5EC00FFF7C0FF002805D0300013F0B5F80120AC
:10A5FC0019B0F0BD002C47D023007C331B885B06C0
:10A60C0042D406AF23223800B18812F099FB3A7875
:10A61C000FA802701E2A0DD903217E3423780B401B
:10A62C008B4231D0002B64D001223A31280000F04B
:10A63C003BFA29E00C21B37851430393344B59185E
:10A64C000B899C46039B9C4553D1242305AA13805C
:10A65C004B6839000093634613F0CCFD002800D002
:10A66C001E2003220C277E3423780FAC1340227853
:10A67C0027495743C919897A022B1BD0032B1DD0AC
:10A68C00012B09D0CB0709D4B088FBF75DF8280063
:10A69C0001F0C2FB0020ABE7490708D5002810D019
:10A6AC000200002328002178FFF738FFECE71A009E
:10A6BC003D21BBE71942F1D10122F9E70B07EDD49B
:10A6CC00E2E71E2A04D9114B03201B680299984714
:10A6DC000C23217828004B430D493288CB5821009C
:10A6EC009847011ED0D0282801D03D28D8D101226E
:10A6FC009CE7072302A90B734A732800002205A9C3
:10A70C00FFF7BAFEC0E7C0467CBD000024BF0000C6
:10A71C00B0A70618134B110A1B688A0070B5D458E1
:10A72C00CEB2002C09D1104B220003201B68984795
:10A73C003000FFF739FE002070BD2000203013F0F0
:10A74C000DFF43680500002B02D03000697A984752
:10A75C00280013F005F902227C34238893432380CC
:10A76C00E6E7C0467CBD000024BF000042424848DA
:10A77C004848480042354248004238424838423442
:10A78C004200423842344200424848484842484815
:10A79C0048484848480042483138424848424236C6
:10A7AC00424800008DD1061878A706180C0001004D
:10A7BC0005DC061880A7061808000100EDAA06188B
:10A7CC005039061802000F0005B7061885A70618A1
:10A7DC0017000700D1B706188EA706180D00030046
:10A7EC0041B80618F4380618010003008DB8061895
:10A7FC00F438061801000B00A3A3061850390618EC
:10A80C000200010031C10618E338061809000100E6
:10A81C00D9C10618E33806180900010045B6061818
:10A82C00F438061801000100B1B60618F438061801
:10A83C000100050079AE06182C3906180600010037
:10A84C0083A30618503906180200030089C10618A4
:10A85C00E338061809000100A9D2061894A70618B7
:10A86C00180001007DD3061894A7061818000100E3
:10A87C0063A30618ED38061803000300E9BC06189C
:10A88C00F438061801000100FBBC0618F438061851
:10A89C00010001007DC50618693806180900010081
:10A8AC00DDC606186938061809000100B1E506185E
:10A8BC00ED3806180300010055E60618ED380618A9
:10A8CC0003000100CDE60618223906180500010028
:10A8DC00A9DC0618ED380618030001000000000082
:10A8EC00000000000000000000000000000000005C
:10A8FC0000000000B1EF0618A2A706182300010003
:10A90C0095F306185039061802000100F1F30618E9
:10A91C005039061802000100F8B5244B150A1B68C3
:10A92C00AA00D6580F00ECB2002E05D1204B3200F5
:10A93C00290003201B6898473B7837008037162B7B
:10A94C0000D03B70012300228236110020003370AE
:10A95C003B00FFF759F900212000FFF721F90028EF
:10A96C0009D0134B002120001E68FFF719F92900AC
:10A97C0002000320B047012120003B000022FFF71A
:10A98C0043F901212000FFF70BF9002809D0084BEF
:10A99C00012120001E68FFF703F9290002000320A3
:10A9AC00B0472000FFF7A6F80020F8BD7CBD0000E2
:10A9BC0024BF0000F8B5124B140A1B68A200D5582E
:10A9CC00E6B2002D05D10F4B2A00210003201B6895
:10A9DC00984706230522210080350B482F7812F06A
:10A9EC0097FE0025077105704480F7F7CFFB29000F
:10A9FC003000FEF7A5FE3000FBF718FA2800F8BD72
:10AA0C007CBD000024BF000003110000F0B5234BF7
:10AA1C0085B01B7805000C2602910392834233D932
:10AA2C001F4B82001B68D3580193002B2CD07E3314
:10AA3C001B78DB439B0727D0019B01277F331B78B7
:10AA4C001E003E403B4227D10102842039430C2397
:10AA5C000A00400012F05CFE04003200290007716D
:10AA6C00FFF7B8F80F4B2360029B9B782372132BD4
:10AA7C0000D103336372200012F06EFE0122019BA1
:10AA8C007F3319780A431A70280032000399FFF7B4
:10AA9C00A5FA002005B0F0BD3A26F5E7D4BE0000BB
:10AAAC007CBD000079AC061870B504000B4B080097
:10AABC001B681100A200D3581D0082352A78002A89
:10AACC000BD180331870200011F094FB012303226A
:10AADC00022120002B70FEF7ADFF70BD7CBD000085
:10AAEC000C4B82001B6870B5D658002204000D0078
:10AAFC001100FFF7ADF8200000220121FFF7A8F8A4
:10AB0C0001227C363388200069789A43FFF7CCFF0A
:10AB1C00002070BD7CBD0000F7B50D0000210400C5
:10AB2C00FFF75AF80600002D3FD1224BA2001B68FC
:10AB3C00D758FFF74DF8051E0BD0012830D01E4B0F
:10AB4C0030001D68FFF744F8210002000320A847DD
:10AB5C002BE0032202212000FEF76CFF2A000121CA
:10AB6C002000FFF775F869460222737A80373B7034
:10AB7C00337A20004B710A71104A01A9FFF77CFC53
:10AB8C00012221003000FFF725F82A0029002000BF
:10AB9C00FFF7E0F8012229002000FFF759F8F7BD74
:10ABAC000200717A2000FFF77FFF00212000FFF7E1
:10ABBC0095F8F4E77CBD000024BF00006DAC0618CE
:10ABCC00F7B5244B150A1B7800200091ECB2AB4270
:10ABDC003ED9214BAA001B68D358834238D01A00A7
:10ABEC0003277E3212783A40BA4231D07C331A882D
:10ABFC00802316009B001E4002301A4228D13100DF
:10AC0C002000FEF7CDFF002818D0009B310020005B
:10AC1C0032000933FEF7F8FF31002000FEF7C0FFC9
:10AC2C0000280BD00D4B31001B6820000193FEF760
:10AC3C00B7FF29000200019B380098470021200033
:10AC4C00009AFEF773FF20000021FFF765FF01203B
:10AC5C00FEBDC046D4BE00007CBD000024BF000079
:10AC6C0010B50021FFF758FF10BD000010B50029EA
:10AC7C0009D04B1E022B09D9054B0A001B68010099
:10AC8C000320984702E01178FFF746FF10BDC0463D
:10AC9C0024BF0000F8B501270D0006000102842036
:10ACAC0039430C230A00B84012F032FD0400310085
:10ACBC0007710022FEF78EFF034B25726572200090
:10ACCC00236012F049FDF8BD79AC061870B50A2363
:10ACDC000D0006000100140008480C2212F018FDAB
:10ACEC0046800570002D05D16388C380A38803813D
:10ACFC0023780371F7F74AFA70BDC04603110000C0
:10AD0C0007B56A46054B69461380054B53800923EA
:10AD1C0093800022FFF7B0FB07BDC0460C0A000071
:10AD2C003A090000284BF7B51B688200D3580E0077
:10AD3C00002104000093FEF74FFF0500FEF748FFCB
:10AD4C0000280CD0012825D0204B28001E68FEF7C7
:10AD5C003FFF210002000320B0471F261FE0009F89
:10AD6C0004237C373A881100194001911A4216D1FC
:10AD7C002000FFF7C5FF08233A8821001343280061
:10AD8C0001223B80FEF726FF012220000199FEF7ED
:10AD9C005FFFF7BD002220001100FEF759FF2B7A50
:10ADAC00002B0BD0009A310030322000FFF78EFFC1
:10ADBC000221009B7F331A788A431A7000212000ED
:10ADCC00FEF78CFFE5E7C0467CBD000024BF000009
:10ADDC0010B5002909D04B1E022B09D9054B0A00CE
:10ADEC001B6801000320984702E01178FFF79AFFD7
:10ADFC0010BDC04624BF0000F8B51A4B120A1B78D0
:10AE0C000E00D4B293420AD9174B91001B68CB5851
:10AE1C00002B04D07E331B78DB439B0710D100251D
:10AE2C00337AAB420AD0104B92001B682000D358E7
:10AE3C001A00803319783032FFF748FF2800F8BD2C
:10AE4C0000212000FEF7ACFE0225071EF6D1010002
:10AE5C0032002000FEF76AFE39002000FFF762FF87
:10AE6C00013DEBE7D4BE00007CBD0000144B82001A
:10AE7C001B6870B5D4584A78230030331A704B884D
:10AE8C00050063868B880021A38604237C342288EA
:10AE9C0013432380FEF784FE022805D100212800ED
:10AEAC00FFF740FF002070BD082623883342F9D1FC
:10AEBC002800FFF725FF2388B3432380F2E7C04621
:10AECC007CBD0000F7B51F4B04001B780C270192CA
:10AEDC0083422ED91C4B82001B68D358002B28D0E0
:10AEEC001A007E321278D243920722D07F3300931D
:10AEFC001B7802261F003740334221D10123010267
:10AF0C00832019430A000B33400012F001FC0500AA
:10AF1C0006713A002100FEF75DFE0C4B28002B60F9
:10AF2C0001232B7212F018FC009B1B781E43009B14
:10AF3C001E703A0020000199FFF750F80020FEBD6A
:10AF4C003A27F6E7D4BE00007CBD0000DDAD061844
:10AF5C0070B50C000121050006201202114389B2C4
:10AF6C0011230A00FF3012F0D3FB060005701022EB
:10AF7C002100013014F01AF8300012F0EDFB70BD16
:10AF8C0070B50D000400002A0DD106230100083213
:10AF9C00094812F0BDFB6B426B4144800371057094
:10AFAC00F7F7F4F870BD010004233022024812F0C8
:10AFBC00AFFB4480F3E7C04603110000F0B5A24B91
:10AFCC0016001B6882009B588BB00F0000210400F8
:10AFDC000393FEF701FE0500FEF7FAFDB84257D0C9
:10AFEC00092F06D1132E0FD00AD8062E4BD0082EBF
:10AFFC000AD001223D212000FFF756FD3D2603E03B
:10B00C001A2E42D0222EF4D1904B039F1B787C3702
:10B01C00A34229D98C4BA2001B689B58002B23D030
:10B02C007E331B78DB439B071ED00821039A20003C
:10B03C007F3213788B431370073911F0F9F9002222
:10B04C0002212000FEF7F6FC002201212000FEF771
:10B05C0081FE20223B8820009343724272415201B0
:10B06C0013433B8000F0D8FE3A352A78310020009B
:10B07C00FFF786FF00212000FEF730FE3B88744A64
:10B08C0013403B804AE00528BED00428B1D1BBE771
:10B09C00082F00D9D0E0380013F05CFF051D4248A2
:10B0AC007A8FA0CEC8000021200011F0C1F92B002E
:10B0BC003A331B78002B33D00A2304A90B700022DF
:10B0CC002000FFF7D9F9012221002800FEF782FDAC
:10B0DC000122110058E0012200212000FEF7AAFCF9
:10B0EC00012220001100FEF735FE00222000110085
:10B0FC00FEF7AEFD0021200011F0F0FB0021200036
:10B10C0011F0C6FB0B2304A9524A20000B70FFF769
:10B11C00B3F9022221002800FEF75CFD0BB0F0BD54
:10B12C0021004D4813F04EFB0322F3E703222B8F33
:10B13C0002A90A724B820920290002ABC01808220E
:10B14C00083113F033FF29000822283107A813F027
:10B15C002DFF29000422203109A813F027FF00221B
:10B16C00200004A9FFF788F9280004222100FEF72B
:10B17C0031FD3A35012200212000FEF769FD2B78C4
:10B18C0002220121002BA4D12000FEF753FCC5E7BD
:10B19C00022200212000FEF74DFC012220001100AC
:10B1AC00FEF7D8FD052221002800FEF713FD012231
:10B1BC0000212000FEF74CFDB0E7290028000122F9
:10B1CC00254B28311030009413F0E7FA06222100A9
:10B1DC002800FEF7FFFC00221100EAE72A002900F4
:10B1EC0020322000103111F09FFB0121200011F0C2
:10B1FC0075FB0121200011F04BFB062304A90B70F9
:10B20C0000222000FFF738F9082221002800FEF761
:10B21C00E1FC012200212000FEF71AFD8023039A95
:10B22C009B007C3211880B43138077E700222000AF
:10B23C001100FEF70DFDE7E6084B3A002100032054
:10B24C001B6898476AE7C0467CBD0000D4BE00006E
:10B25C00FFFDFFFF6DB206185DAF061824BF00009E
:10B26C0010B500210400FEF79BFC032804D100223A
:10B27C0002212000FFF7A2FE10BD0000030010B554
:10B28C00080003291DD813F065FE02051A07127871
:10B29C00092106E01A22FBE75178032905D192789F
:10B2AC0006311800FFF78AFE10BD094A9900126892
:10B2BC008A587E3212789207F6D03D22E8E752780F
:10B2CC00E6E7044A032014680A001900A047EBE7DC
:10B2DC007CBD000024BF0000F0B5B24F16003B68E7
:10B2EC00820089B09B580391012102930400FEF760
:10B2FC0073FC0500FEF76CFC039B98424AD0132BA1
:10B30C0001D13D2E05D101223D212000FFF7CCFBC0
:10B31C003D26A54B029A1B787C320292A3422FD970
:10B32C003B68A2009B58002B2AD07E331B78DB4352
:10B33C009B0725D00121200011F07AF80022022170
:10B34C002000FEF777FB3A35002E02D02B78002B2D
:10B35C0004D0310020002A78FFF712FE029B200057
:10B36C001A8820239A4373425E41029B760116434E
:10B37C001E8000F051FD002220001100FEF7EAFCB7
:10B38C0001212000FEF7AAFC029B884A1B8813406F
:10B39C00029AE4E02800FEF71BFC0A38082800D9C2
:10B3AC00F5E013F0E1FD0B0057005D006E00A50009
:10B3BC00BA00DE00B6FF09000626AAE72E0000211F
:10B3CC00200011F035F8012200212000FEF7C2FC0C
:10B3DC00029B3A367C331B8832789B06DB0F9A42F1
:10B3EC000AD0242203212000714BFFF797F8122278
:10B3FC0021002800FEF7EEFB3378002B0ED1022241
:10B40C0020001100FEF716FB21006A4813F0DAF950
:10B41C000D2221002800FEF7DDFB19E00B26002190
:10B42C00200011F05BFA012202212000FEF702FB42
:10B43C0004A9002220000E70FFF71EF83200210034
:10B44C002800FEF7C7FB012211002000FEF700FCCC
:10B45C0009B0F0BD0021200011F01AFA0C22EEE721
:10B46C00022220001100FEF7E5FA2100514813F0EA
:10B47C00A9F90D2221002800FEF7ACFB00220121C6
:10B48C00E3E70420FAF71EFD00283ED0042729002C
:10B49C00092004AE02AB377008223031C01813F00B
:10B4AC0085FD2900112002AB3A00C018243113F09D
:10B4BC007DFD310000222000FEF7DEFF2B8FA7B2AE
:10B4CC000022390002933C480E2312F021F9052387
:10B4DC00290006000370029B0822838147800831F3
:10B4EC00043013F063FD3000F6F750FE0E2290E7A7
:10B4FC00002E0AD12900280001222E4B28311030B1
:10B50C00009413F04AF90F2283E70622032120004E
:10B51C00274BFFF703F812227BE72A002900203281
:10B52C002000103111F000FA0121200011F0D6F9A1
:10B53C00052304A90B7000222000FEF79DFF1022AA
:10B54C0021002800FEF746FB012220001100FEF727
:10B55C007FFB8023029A9B007C3211880B43138063
:10B56C0076E7002220000121FEF772FB200001216A
:10B57C0011F08EF9210028001122FEF72BFB062377
:10B58C0004A920000D4A0B70FEF776FF60E70C4B08
:10B59C0028001E68FEF71CFB210002000320B047A8
:10B5AC0056E7C0467CBD0000D4BE0000FFFDFFFF87
:10B5BC002BB606185DAF06180411000011B606185C
:10B5CC0024BF000010B5002909D04B1E022B0BD94B
:10B5DC000A4B0A001B6801000320984703E012780D
:10B5EC001321FFF779FE10BD054B82001B68D35861
:10B5FC007E331B789B07F6D03D22F1E724BF000079
:10B60C007CBD000010B501210400FEF7C9FA032827
:10B61C0004D1002211212000FFF75EFE10BD10B5F1
:10B62C0001210400FEF7BCFA032804D100221221E8
:10B63C002000FFF751FE10BDF8B50127174B820013
:10B64C001B680400D3587C331B883B4202D0242651
:10B65C003000F8BD3900FEF7A3FA061EF7D10A2018
:10B66C003A0039003C23FF3012F052F80323050056
:10B67C00210003710A22FEF7ADFA094B2A002B6058
:10B68C002B003A33390020001F70FEF74FFA3200BE
:10B69C000A212000FFF720FEDAE7C0467CBD00003F
:10B6AC00D1B5061870B50126124B82001B68040038
:10B6BC00D5587C352B8833420BD101212000FEF765
:10B6CC006FFA032814D100220B212000FFF704FE8F
:10B6DC0009E00021FEF764FA032806D100223100AC
:10B6EC002000FFF76BFC002003E02B883342E4D0F2
:10B6FC00242070BD7CBD0000F7B501272F4B8200C4
:10B70C001B680400D3580D007C331B883B420DD0C2
:10B71C000021FEF745FA032801D02420FEBD3D226E
:10B72C0009212000FFF74AFC0020F7E73900FEF75B
:10B73C0037FA0C26031E01901AD10A203A00390060
:10B74C003C33FF3011F0E4FF032303711C4B060064
:10B75C0003600300019A3A331A703900020020008A
:10B76C00FEF7E4F930000A222100FEF733FA0A262C
:10B77C0001212000FEF714FA0328CED1012120006C
:10B78C00FEF72AFA290007006B890422038714317B
:10B79C00203013F00BFC3800290008220C31283023
:10B7AC0013F004FC3800691C0822083013F0FEFB6F
:10B7BC00002231002000FFF78FFDB5E77CBD0000B3
:10B7CC00D1B5061870B50E000121194B82001B680B
:10B7DC000400D3587C331B880B420CD1FEF7E0F9E4
:10B7EC00032801D0242070BD3D2213212000FFF737
:10B7FC0073FD0020F7E70021FEF7D2F90328F1D101
:10B80C0000212000FEF7E8F931000500042209317F
:10B81C00243013F0CBFB2800711C0822303013F0BD
:10B82C00C5FB002204212000FFF7C8FBE1E7C0465E
:10B83C007CBD00000121114B70B51B688200D358F0
:10B84C0004007C331B880B420CD1FEF7A9F90328AA
:10B85C0001D0242070BD3D2213212000FFF73CFDB8
:10B86C000020F7E70021FEF79BF90328F1D1002215
:10B87C0005212000FFF7A2FBF2E7C0467CBD0000CB
:10B88C00124B70B51B688200D35801217C331B8886
:10B89C0004001D000D400B420CD1FEF781F903286A
:10B8AC0001D0242070BD2A0010212000FFF714FDC8
:10B8BC000020F7E70021FEF773F90328F1D10022ED
:10B8CC0008212000FFF77AFBF2E7C0467CBD0000A0
:10B8DC00F0B5334B85B01B7805000C260091039214
:10B8EC00834252D92F4B82001B68D358002B4CD06B
:10B8FC001A0003217E3212780A408A4245D01A007F
:10B90C007C320292128802390A423ED01A00283246
:10B91C0012780E360A4238D07F3301931B780827F1
:10B92C001E003E403B4238D1012301020A2019433C
:10B93C000A003B33FF3011F0EBFE032104000171D0
:10B94C0032002900FEF746F9174B00993A002360A4
:10B95C000231E01913F02AFB2000009910224B89C8
:10B96C00103023870C3113F021FB012202992000A7
:10B97C000B885B11134022003A32137011F0ECFE6D
:10B98C00019B019A1B783B431370280032000399EA
:10B99C00FEF724FB002005B0F0BD3A26F5E7C046C3
:10B9AC00D4BE00007CBD000089B20618F7B51B4B55
:10B9BC0004001B7817000191834206D80C22390031
:10B9CC002000FEF7B3FA0020FEBD154B82001B6869
:10B9DC00D358002BF2D07E331B78DB439B07EDD082
:10B9EC000121FEF7DDF80328E8D101212000FEF744
:10B9FC00F3F80500FEF7ECF806000E28DED128005F
:10BA0C00019910220231103013F0D0FA00223100CB
:10BA1C002000FFF761FC0022D1E7C046D4BE000035
:10BA2C007CBD0000F7B5214B04001B7801928342CA
:10BA3C0006D80C2220000199FEF778FA0020FEBDF2
:10BA4C001B4F86003B689B59002BF2D07E331B7832
:10BA5C00DB439B07EDD00121FEF7A2F80328E8D1C8
:10BA6C0001212000FEF7B8F80500FEF7B1F801003F
:10BA7C000E28DED13A352D78002D10D020000D394E
:10BA8C00FEF72CF93B680B499B5920007C331A8834
:10BA9C000A401A800621FFF7FDF80022CAE70622A9
:10BAAC002000FFF719FC2A00C4E7C046D4BE0000F2
:10BABC007CBD0000FFFDFFFFF7B5444B160A1B7859
:10BACC000C00F7B2B3425CD9414BB2001B68D5589D
:10BADC00002D56D02B007E331B78DB439B0750D0B8
:10BAEC0001227C352B8813421BD101213800FEF733
:10BAFC0057F80190032844D101213800FEF76CF867
:10BB0C000500FEF765F80D2846D00F2859D0314BAB
:10BB1C0028001C68FEF75CF8310002000198A04771
:10BB2C0046E000213800FEF73BF8019003282ED1A7
:10BB3C0000213800FEF750F80500FEF749F80328FD
:10BB4C000BD006281FD0234B28001C68FEF740F8AA
:10BB5C00310002000198A0470BE028000422611C70
:10BB6C00203013F023FA28000822611D283013F02E
:10BB7C001DFA2800FEF72CF8002201003800FFF710
:10BB8C001DFA0020FEBD1022611CA818EFE701224F
:10BB9C002B881342F5D1A8E728000422611C24301D
:10BBAC0013F004FA28000822611D303013F0FEF95E
:10BBBC002800FEF70DF8002201003800FFF78CFB7F
:10BBCC00DFE71022611CA818F0E7C046D4BE0000C5
:10BBDC007CBD000024BF0000174B70B5120A1B6817
:10BBEC000E009100CB581549D5B20978914207D96E
:10BBFC00002B05D01A007E321278D243920707D15F
:10BC0C008033280000221978FFF7BAF9002070BDA4
:10BC1C0000212800FDF7C4FF04000220002CF6D1FF
:10BC2C00320021002800FDF781FF280022002100AE
:10BC3C00FFF7C4F90120EAE77CBD0000D4BE000088
:10BC4C0073B50D0000210400FDF7C6FF0600FDF7DB
:10BC5C00BFFFA8421DD13000FDF7BAFF051E0BD067
:10BC6C00012816D0104B30001D68FDF7B1FF2100E4
:10BC7C0002000320A8470BE01223020001A92000B8
:10BC8C000B70FEF7F9FB012229002000FDF7E0FF05
:10BC9C0073BD002220001100FDF7DAFF0021200007
:10BCAC00FEF71CF8F4E7C04624BF000010B50129CC
:10BCBC000ED009D98B1E012B0DD9074B0A001B681E
:10BCCC0001000320984706E00121FFF7B9FF02E0CD
:10BCDC005378122BF9D010BD24BF0000132307B5E5
:10BCEC00002201A90B70FEF7C7FB00200EBD10B59A
:10BCFC0000210400FDF754FF082803D10121200086
:10BD0C00FFF79EFF002010BD70B5062304000D0048
:10BD1C000F4A09880F4811F0FBFC0F4B0C211B78C4
:10BD2C00A3420ED90D4BA4001B68E358002B08D07E
:10BD3C001A007E321278D243920702D00021DB8E99
:10BD4C00838001702B884380F6F720FA002070BDA9
:10BD5C007B0C000001110000D4BE00007CBD000073
:10BD6C0070B5130A114A0C0012780021DDB29A4208
:10BD7C001AD90F4A9B0012689B588B4214D07E3301
:10BD8C001B78DB439B070FD02800FDF709FF02212E
:10BD9C00061E09D1010022002800FDF7C7FE310064
:10BDAC002800FFF74DFF0121080070BDD4BE000034
:10BDBC007CBD000070B5130A1100144ADDB2127874
:10BDCC009A4221D9124A9B0012689B58002B1BD017
:10BDDC001A007E321278D243920715D07C331B881E
:10BDEC009B0611D586200A000823400011F090FC18
:10BDFC0008230400037100222900FDF7EBFE054B1C
:10BE0C002000236011F0A8FC002070BDD4BE0000FF
:10BE1C007CBD0000B9BC06180E4B82001B6870B5C7
:10BE2C00D5582B007C331B889B0611D501240002AE
:10BE3C0004430A268120EA8E21007243400011F04F
:10BE4C0083FB04202A8F21007243FF3011F07CFB0E
:10BE5C0070BDC0467CBD000070B5124B140A1B7837
:10BE6C00E5B2A3421BD9104BA2001B68D358002B80
:10BE7C0015D01A007E321278D24392070FD07C3341
:10BE8C001B889B060BD5022357222100074811F073
:10BE9C003FFC0480F6F77AF92800FFF7BDFF00207D
:10BEAC0070BDC046D4BE00007CBD00000311000074
:10BEBC00F8B5184B82001B680600D5580C00002DF5
:10BECC0007D1154B0A001B680100032098470C2072
:10BEDC00F8BD288AEB89013043430A0112205F0028
:10BEEC00BA42F5D3DB009A4205D239001000F5F7BF
:10BEFC002FFF03007B431B0900D101331120A34208
:10BF0C00E6D0E31A3000EC862B87FFF785FF002084
:10BF1C00DEE7C0467CBD000024BF000070B50423E2
:10BF2C0006000D00104A0988104811F0F1FB104B67
:10BF3C0004001B780C20B3420ED90E4BB2001B68C8
:10BF4C00D358002B08D07E331B78DB439B0703D0E0
:10BF5C0030006988FFF7ACFF20702B8820006380CD
:10BF6C00F6F714F9002070BD7C0C000001110000E4
:10BF7C00D4BE00007CBD00007FB5092301AC0500D8
:10BF8C0008262370F9F7ACFF6B4632000100581DF0
:10BF9C0013F00CF82379AA00B3432371064B280045
:10BFAC001B682100D35828331A7863781340002279
:10BFBC006370FEF761FA7FBD7CBD0000F8B50F0021
:10BFCC001600050001000C230022084811F0A0FB0C
:10BFDC000423040031000370477045800822C01808
:10BFEC0012F0E4FF2000F6F7D1F8F8BD04110000C0
:10BFFC00F0B5314F82003B6887B09B580E00002192
:10C00C0004000193FDF7E8FD0500FDF7E1FD0028B4
:10C01C000CD0012837D0294B28001E68FDF7D8FD1D
:10C02C00210002000320B0471F2631E0019B7C3326
:10C03C001B881B062CD43B68A2009B587C331A88A7
:10C04C000823D20700D4063303AE08273370F9F760
:10C05C0047FF02AB01003A00581D12F0A7FF3379DD
:10C06C000022BB43310020003371FEF705FA012298
:10C07C0021002800FDF7AEFD012200212000FDF774
:10C08C00E7FD07B0F0BD002220001100FDF7E0FD38
:10C09C002B7A002B0BD0019A310028322000FFF7AD
:10C0AC008DFF0421019B7F331A788A431A7000217B
:10C0BC002000FDF713FEE4E77CBD000024BF000068
:10C0CC00030010B5080003290BD812F043FF020B34
:10C0DC001F211178002904D01A2906D01800FFF767
:10C0EC0087FF10BD52780E2AFBD10C4A1A21127808
:10C0FC009A42F3D90A4A980012688258002AEDD065
:10C10C00082428321078A0431070E7E75178E1E753
:10C11C0051780E29E5D19178DCE7C046D4BE0000F9
:10C12C007CBD0000F8B5144B82001B680127D35866
:10C13C0024261D007C352A8814003C403A4218D134
:10C14C001E004F78283637708F782F337770CF7862
:10C15C00B7700F79F7704F7937718F797771CF7915
:10C16C00B771097A26001970802313432B80FFF7CF
:10C17C0003FF3000F8BDC0467CBD0000124B8200AE
:10C18C001B6870B5D35824221C007C342588EE071C
:10C19C0018D51A004E78283216708E782F335670B8
:10C1AC00CE7896700E79D6704E7916718E7956714E
:10C1BC00CE7996710A7A1A7080232B432380FFF76D
:10C1CC00DBFE0022100070BD7CBD0000144B820011
:10C1DC001B6810B5D35804001A0048782832107028
:10C1EC0088787C335070C87890700879D070487912
:10C1FC00107188795071C8799071097A2000D171C9
:10C20C00802219880A431A800021FDF7C9FC0428F2
:10C21C0003D100212000FFF7EBFE002010BDC0462B
:10C22C007CBD0000F7B5254B04001B780C26019251
:10C23C00834238D9224B82001B68D358002B32D052
:10C24C001A007E321278D24392072CD01F007F370F
:10C25C00397804220E00164011422BD11A002832D4
:10C26C001278120704D47C331A8881231A4223D003
:10C27C0001230820210219430A000B33FF3011F06F
:10C28C0047FA04222100027100220500FDF7A2FCEE
:10C29C0001232B720B4B28002B6011F05DFA04224A
:10C2AC003B7813433B70320020000199FDF796FE5A
:10C2BC000020FEBD3A26F6E71A26F4E7D4BE0000AD
:10C2CC007CBD0000CDC00618F8B51A4B120A1B78BD
:10C2DC000E00D4B293420AD9174B91001B68CB586D
:10C2EC00002B04D07E331B78DB439B0710D1002539
:10C2FC00337AAB420AD0104B92001B682000D35803
:10C30C001A00803319782832FFF758FE2800F8BD40
:10C31C0000212000FDF744FC0225071EF6D1010088
:10C32C0032002000FDF702FC39002000FFF760FE10
:10C33C00013DEBE7D4BE00007CBD0000F7B51E004C
:10C34C0008AB1F88150004003E2201910C2301004C
:10C35C00064811F0DDF907230370019B0781468124
:10C36C0085804480C380F5F711FFF7BD04110000F0
:10C37C0048080000F0B55F4F89B0830003933B6819
:10C38C0002918200002106009D58FDF725FC040057
:10C39C00FDF71EFC00280BD001285CD0564B20006A
:10C3AC001F68FDF715FC310002000320B84786E03A
:10C3BC00012231002000FDF70DFC297FE389628901
:10C3CC0003293DD0697F03291CD1A9211A1C09011D
:10C3DC008B4200D20A1CE28114252289E0896389F0
:10C3EC0005A9A4898880CA80300000220D704C8079
:10C3FC000B81FEF741F8012200213000FDF728FCEB
:10C40C0009B0F0BD7C35298809060CD53B49097863
:10C41C00B14208D93968B0000958002903D0293134
:10C42C0009780907D8D4364D101C2900AA4200D926
:10C43C00281C60811A1C8B42CDD9324B1A88CAE752
:10C44C00A920111C0001824200D2011C61816A7F6B
:10C45C00032AC1D1B9E7002230001100FDF7F8FB27
:10C46C00029B002B2BD12B7F032B07D1A922618997
:10C47C0012010B1C914200D2131C63816B7F032BA6
:10C48C0007D1A922E18912010B1C914200D2131C85
:10C49C00E381A089EF8A2289E3896189874208D1E7
:10C4AC00AF8A974205D16F8B9F4202D12F8B8F425F
:10C4BC0005D00090300010F0BDF800280CD0237C83
:10C4CC00002B04D020227F352B7893432B70002136
:10C4DC003000FDF703FC93E7A089E8822289AA8249
:10C4EC00E3896B836189298300903000FFF726FF75
:10C4FC00E5E7C0467CBD000024BF0000D4BE0000B0
:10C50C00480800007CC30618030010B50800032976
:10C51C001CD812F01FFD021C21231178002915D004
:10C52C000A00193A012A0ED80F4A12789A420AD9EF
:10C53C000E4A980012688258002A04D0202428320F
:10C54C001078A04310701800FFF714FF10BD52783C
:10C55C00142AFBD11921E7E75178DFE75178142928
:10C56C00F4D19178DAE7C046D4BE00007CBD00005F
:10C57C00F0B50C0089B001210500FDF711FB242357
:10C58C00002800D089E06188043B1A2900D884E097
:10C59C00E2881A2A00D880E04930A688FF3086420B
:10C5AC0000D27AE02089454F0400493CFF3CA4B2FC
:10C5BC00BC4272D8FB2970D8FB2A6ED8404CA642DC
:10C5CC006BD8404BAC001B68E3581C0070342488BB
:10C5DC008C4200D90C00190072310988A4B2B14206
:10C5EC0000D931001E0074363688964200D91600E8
:10C5FC00B2B203921A0076321288824200D902003B
:10C60C001E7F587F97B2032E4AD08EB203284FD08C
:10C61C0018007C300088000608D52B480078A8420A
:10C62C0004D9180029300078000708D42748814223
:10C63C0000D901008EB2824200D9244A97B2DA8A1C
:10C64C0003998A4208D19A8AA24205D15A8BBA42DE
:10C65C0002D11A8BB24213D0039A9C82DA825F8386
:10C66C001E8331003B000092280022000FF0E2FFF5
:10C67C00039B2200009331003B002800FFF75EFE75
:10C68C00152305A90B70039B002228004B808F807B
:10C69C00CC800E81FDF7F0FE0023180009B0F0BD30
:10C6AC00A9263601B14200D231008EB20328C6D180
:10C6BC00A92109018A42C1D20A00BFE74841000002
:10C6CC00904200007CBD0000D4BE00004808000071
:10C6DC0070B50C0000210500FDF762FA242607282E
:10C6EC002FD16388043E1A2B27D9E3881A2B24D91F
:10C6FC00A423A2885B009A421FD322899A421CD39E
:10C70C0000212800FDF768FA62880389934200D95A
:10C71C0013000381A2884389934200D913004381FB
:10C72C00E2888389934200D9130083812289C389CB
:10C73C00934200D913000026C3812800F1B2FFF701
:10C74C0019FE300070BD0000F7B5374B06001B78A2
:10C75C000C2700910192834259D9344B82001B68FB
:10C76C00D458002C53D023007E331B78DB439B071B
:10C77C004DD023007F331A78202317001F401A4214
:10C78C004CD1230028331B789B0649D549880B00D4
:10C79C001B3BE02B46D8009B25489A881300493B4D
:10C7AC00FF3B9BB283423DD8A38A8B4202D1238BA1
:10C7BC00934223D001238520310219430A001333FD
:10C7CC00400010F0A5FF0723050031000371002283
:10C7DC00FDF700FA174B009A2B60538828002B8129
:10C7EC0093886B81144BEB6001232B7410F0B4FF16
:10C7FC00220020237F3211780B4313702300009A00
:10C80C007033528872341A80009B9B8823803000CE
:10C81C003A000199FDF78AFB0020FEBD3A27F6E7A6
:10C82C001A27F4E71227F2E7D4BE00007CBD000003
:10C83C004841000015C50618FB009042F7B5384B6F
:10C84C0006001B780C270091019283425BD9354B73
:10C85C0082001B68D458002C55D023007E331B78E3
:10C86C00DB439B074FD023007F331A78202317001C
:10C87C001F401A424ED1230028331B789B064BD500
:10C88C0049880B001B3BE02B48D8009B26489A8814
:10C89C001300493BFF3B9BB283423FD8E38A8B4258
:10C8AC0002D1638B934225D0012385203102194399
:10C8BC000A001333400010F02BFF07230500310052
:10C8CC0003710022FDF786F9184B009A2B60A38A9E
:10C8DC0028002B81238B6B815388AB819388EB8150
:10C8EC0001232B7410F038FF220020237F321178A3
:10C8FC000B4313702300009A7433528876341A80D9
:10C90C00009B9B88238030003A000199FDF70EFBB9
:10C91C000020FEBD3A27F6E71A27F4E71227F2E7C4
:10C92C00D4BE00007CBD00004841000015C50618AF
:10C93C00F7B5184B120A1B780E00D5B293420AD9E0
:10C94C00154B92001B68D358002B04D07E331B78F8
:10C95C00DB439B070CD10024337CA34206D023007D
:10C96C002200210028000094FFF7E8FC2000FEBD07
:10C97C0000212800FDF714F90224071EF6D101004E
:10C98C0032002800FDF7D2F839002800FFF7F2FC3E
:10C99C00013CEBE7D4BE00007CBD0000F0B5464B7B
:10C9AC0014001B688200D35893B0049102930500C5
:10C9BC0010F06EF827896189268A7B004900039064
:10C9CC0001930A930B91022E00D20226678A0C96D1
:10C9DC00022F00D2022708229446A44462460D97E7
:10C9EC00D27F0AAB52009A74AAB21A82049B0592A7
:10C9FC00002B02D001236246D377029B7C331B8829
:10CA0C00DB0709D4039B481EC018F5F7B1F90800E1
:10CA1C000336FB1C0C960D9301230AAA0340D37416
:10CA2C0023002D331B78002B24D123002E331B78AD
:10CA3C00002B1FD1E18A214E4B1E9BB2B34219D859
:10CA4C00019BAAB206930C9B49000393079306AB78
:10CA5C0008189A810199F5F78BF906A80891F8F74F
:10CA6C0099FB002806D1E38A6385069B5B08238526
:10CA7C0013B0F0BD0AA8F8F72BFB002817D1029BC6
:10CA8C0010997C331B880F9EDB0703D4481C3100A4
:10CA9C00F5F76EF972088BB292B2A18A28000FF0EA
:10CAAC00B3FE0749F5F74CF90F9B6085DEE70023D1
:10CABC0063856389DBE7C0467CBD0000FDFF000099
:10CACC00E2040000F0B51600434B82001B6887B0EF
:10CADC00D45833002D330493049A03910133127804
:10CAEC001B7807001A430292002953D1338DE28937
:10CAFC009A4203D1F26821698A4206D0E381B38954
:10CB0C002382F3896382012302933800F9F7FCF93D
:10CB1C00338A05000093022B01D202230093738AFF
:10CB2C000193022B01D20223019338000FF0B0FFC6
:10CB3C000590E6897600002D05D1284B2A002900A6
:10CB4C0001201B689847002E05D1244B3200310080
:10CB5C0001201B6898472800F8F7B2FA059B6E6015
:10CB6C00AB60009BEB60019B2B6123007C331B882B
:10CB7C00DB070CD4059B701EC0183100F5F7F8F8D4
:10CB8C00009BA9600333EB60019B03332B612800EE
:10CB9C00F8F75AFA029B002B13D0BFB20A230022DB
:10CBAC0039000F4810F0B4FD03230370039B47803A
:10CBBC004370E3898380238AC380638A0381F5F7FA
:10CBCC00E5FA049B1B78002B04D010227F342378C9
:10CBDC009343237007B0F0BD7CBD000024BF000060
:10CBEC0004110000F0B5050091B00591012116006B
:10CBFC00FCF7F2FF7F4BAA001B680400D758059B7B
:10CC0C000B2B07D129001A00FCF7E4FF2800F98947
:10CC1C000FF088FD2000FCF7DBFF059B98420AD043
:10CC2C00754B20001D68FCF7D3FF059A010002200C
:10CC3C00A84711B0F0BD2000FCF7CAFF0738042844
:10CC4C0000D9C2E012F086F90F4103CBCB00002EC5
:10CC5C0000D0C4E0320001212800FCF7F9FF2300CA
:10CC6C0001222C331A703A0010237C3211880B43AA
:10CC7C00138023002C331B78002B15D0A08CE11DC6
:10CC8C00238D628CC97F0290E0890190A08900906D
:10CC9C0028000FF045FC061E00D0A0E00A22290057
:10CCAC002000FCF797FFC4E7238905936289FB8971
:10CCBC000692059A9A4245D8069A934242D8E2685F
:10CCCC0039698A423ED123816381002E00D075E000
:10CCDC007C373B8801273B4253D12200310028008E
:10CCEC00FFF75CFE102309A90B70238932004B80DF
:10CCFC00638928008B80A389CB80E3890B81230077
:10CD0C000833DB7F8B72A38A8B81E38ACB81238BE5
:10CD1C000B82638B4B82A38B8B82E38BCB82238C1A
:10CD2C000B83FDF7A9FB290020000922FCF752FF19
:10CD3C00390028003A00FCF78BFF280021890FF0FE
:10CD4C00F1FC76E7E389AEB2A7893E223100079366
:10CD5C002A480C2310F0DCFC06230370059B46804C
:10CD6C008380069B0781C380079B4381F5F70EFAEE
:10CD7C00200008222900FCF72DFF01232E342370FC
:10CD8C0057E70C202902394330230A00FF3010F0FA
:10CD9C00BFFC06002C22211D043012F007F9184BA1
:10CDAC0030003A0029003360FCF714FF300010F01B
:10CDBC00D3FC01212800FCF791FF3AE70023320055
:10CDCC000F212800FDF7AAFBF3E70B4B20001E6890
:10CDDC00FCF7FEFE290002000320B04729E72200E1
:10CDEC0031002800FFF76EFE10227C373B889343FE
:10CDFC003B80DEE77CBD000024BF00000411000076
:10CE0C0019D1061810B5022906D003290BD0002918
:10CE1C0008D10B21127801E052780921002A01D0A7
:10CE2C00FFF7E0FE10BD5378102BFBD19278F4E79E
:10CE3C0030B504000020A1421CD8FA256D00AA428E
:10CE4C0018D2C8252D01AC4214D8052912D91900C5
:10CE5C00094D0A3989B2A9420CD8053060430A2120
:10CE6C000132401092B2424300204B43D10F934207
:10CE7C004841C0B230BDC046760C0000F0B5A04BA6
:10CE8C0017001B6882009B588FB00E000021050014
:10CE9C000493FCF7A1FE0400062E08D129003200F1
:10CEAC00FCF798FE049B2800D9890FF03BFC20006E
:10CEBC00FCF78EFEB0420AD0924B20001D68FCF7A6
:10CECC0087FE320001000220A8470FB0F0BD200001
:10CEDC00FCF77EFE062800D908E112F04FF862003C
:10CEEC0053000700ED00380007013800002228002D
:10CEFC001100FCF7ADFE002F44D0834B1B78AB42E6
:10CF0C0040D97F4BAA001B689B58002B3AD0283382
:10CF1C001B789B0736D50122049B7C331B8813425C
:10CF2C0015D12800F8F7F0FF061E05D1754B02004D
:10CF3C0001001B68012098477168002904D1714BCE
:10CF4C000A0001201B6898470023B361B3752300C6
:10CF5C002D331B78002B05D17F21049A7F32137857
:10CF6C000B401370220039002800FFF7ABFD0021A5
:10CF7C002800FCF7B3FE1021049B7C331A888A43EB
:10CF8C001A80A2E7049B7C331B88DB0705D45D4B1E
:10CF9C003A00290003201B689847230001222C33F8
:10CFAC001A701023049E28007C3632881343338079
:10CFBC0023002C331F78002F3CD10FF00DFC2200E6
:10CFCC000121A0822800FFF7E9FC01230F20628DCC
:10CFDC0007A95B42A361E3612384E2820870208984
:10CFEC00488060898880A089C880E08908812000F9
:10CFFC000830C07F8872A08A0B824B828B82CB82D6
:10D00C000B838881CA8128003A00FDF735FA01228A
:10D01C0039002800FCF71CFE33880222DB0704D4FD
:10D02C00280021890FF07EFB032229002000FCF749
:10D03C00D1FD4AE70FF0D0FB314BAA001B68012150
:10D04C009B581A8A092301325343C01880B2E31D3E
:10D05C00A0842200D977A08228000593FFF79EFCBC
:10D06C00628DA08C6284E11DC97F238D0290E089C2
:10D07C000190A089009028000FF052FA04220600BB
:10D08C00070029002000FCF7A5FD002E00D05EE76C
:10D09C0007A90E70E31DDB7F32004B70638C2800F8
:10D0AC004B80238D8B80A389CB80E3890B81A38C50
:10D0BC004B81FDF7E1F908E7002228001100FCF78D
:10D0CC00C7FD002F00D042E7A08CE11D238D628CA0
:10D0DC00C97F0290E0890190A089009028000FF090
:10D0EC001FFA071E00D032E704229EE7054B2000F2
:10D0FC001E68FCF76DFD290002000320B047E4E632
:10D10C007CBD000024BF0000D4BE0000030008005A
:10D11C00194970B509689C006458012521007C31BF
:10D12C0009880D400321491BC9B2032817D811F0F7
:10D13C0011FF02171C1E06211278002A0FD01000B6
:10D14C001938012808D80D480078984204D90225CE
:10D15C0028342078A84320701800FFF78FFE70BD8C
:10D16C0052780F2AFBD11A22EDE75278E5E7507876
:10D17C000F28F4D19278E0E77CBD0000D4BE00000B
:10D18C00F7B50192050088880B89CA880C0001004C
:10D19C00FFF74EFE202300280BD03D4BAA001B6846
:10D1AC000126D3587C331B881F003740334202D0F2
:10D1BC0024231800FEBD019B628936499A1A92B24B
:10D1CC0028238A42F5D939002800FCF7E9FC052808
:10D1DC0017D139002800FCF7FFFCA3883A0003851F
:10D1EC00E388032183812389C381638983846388D2
:10D1FC00438463780730C3772800FFF73FFE002392
:10D20C00D7E731002800FCF7CBFC0927031E01905F
:10D21C0018D10C20320031003033FF3010F078FA86
:10D22C00052303711C4B0199036003002D33197006
:10D23C00597001235B420200C38231002800FCF7C5
:10D24C0075FC023F01212800FCF7AAFC0528AFD190
:10D25C0001212800FCF7C0FC06003A002900FCF76D
:10D26C00B9FCA38839003385E3882800B38123896E
:10D27C00F3816389B384638873846278F31DDA77EE
:10D28C0001232C3600223370FFF7ACFCB7E7C04605
:10D29C007CBD0000FE7F000011CE0618F8B5324BA5
:10D2AC0082001B680D000121D4580600FCF778FCA5
:10D2BC00242200284ED1EA882B896988A888FFF798
:10D2CC00B7FD1E22002845D00520F8F7FBFD1A22D9
:10D2DC0000283FD07C342388DB073DD401270C2069
:10D2EC00310239430A003023FF3010F011FA0523C4
:10D2FC000400037107223100FCF76CFC1B4B390056
:10D30C0023606B8830002381AB886381EB88A38119
:10D31C002B89E3812300AA7A0833DA77AB892200C0
:10D32C00A382EB89E3822B8A23836B8A6383AB8A88
:10D33C00A383EB8AE3832B8B0025238423002D33DB
:10D34C001D705D70FCF7F2FB2A0007213000FFF71F
:10D35C0049FC2A001000F8BD05213000FCF740FD07
:10D36C00021EBBD0F6E7C0467CBD000011CE0618ED
:10D37C00F0B50E0085B000210290FCF711FC2425BD
:10D38C00052836D100210298FCF726FC7388B78853
:10D39C000193F38804000393368938003300039A11
:10D3AC000199FFF745FD063D00281DD02289019B00
:10D3BC000235934218D363890199994214D89F423C
:10D3CC0012D8974210D3A28903998A420CD1BB423E
:10D3DC0000D23B002381E389B34200D23300002505
:10D3EC00E38165840734E5772A0002210298FFF770
:10D3FC0045FD280005B0F0BDF7B5414B06001B7884
:10D40C000D000C27019283426ED93E4B82001B68A3
:10D41C009B580093002B67D07E331B78DB439B0714
:10D42C0062D0009B28331A780123920705D4009A06
:10D43C000E377C3212881A4256D0009B7F331A78F2
:10D44C00102317001F401A4255D12B89EA8869888E
:10D45C00A888FFF7EDFC00284FD001210C203302E7
:10D46C0019430A003023FF3010F052F90523040051
:10D47C003A0031000371FCF7ADFB234B2360A98804
:10D48C00AB894A00934200D9130063826A886B8986
:10D49C005000834200D90300228123826181EB88F2
:10D4AC00A3812B89E381164B1A780023B24209D948
:10D4BC00144AB100126852589A4203D02832137899
:10D4CC009B07DB0F0122210053402C310B702300F2
:10D4DC002D331A705A70200010F03EF91022009B68
:10D4EC007F3319780A431A7030003A000199FCF71F
:10D4FC0075FD0020FEBD3A27F6E71227F4E7C0467B
:10D50C00D4BE00007CBD000019D1061870B5204BAC
:10D51C0005001B780C001600834206D80C2228004C
:10D52C003100FCF703FD002070BD1A4B82001B6814
:10D53C00D358002BF2D07E331B78DB439B07EDD006
:10D54C00CA880B89A0884988FFF772FC2022002822
:10D55C00E5D001212800FCF73FFB0028DED0A28893
:10D56C004389934200D2130043816288038993421A
:10D57C0000D2130003812289C389934200D2130085
:10D58C000022C38108212800FFF72CFB0022C6E7EC
:10D59C00D4BE00007CBD000070B5144B04001B7899
:10D5AC000D001600834206D80C2231002000FCF737
:10D5BC00BDFC002070BD0E4B82001B68D358002BA5
:10D5CC00F2D07E331B78DB439B07EDD08B78122295
:10D5DC003B2BEAD10121FCF7FFFA0028E4D0AA7812
:10D5EC0008212000FFF7FEFA0022DEE7D4BE00007F
:10D5FC007CBD0000F8B52D4B170A1B68BA00D45837
:10D60C002B4B0D001B78FEB2BB4207D9002C05D06A
:10D61C0023007E331B78DB439B0712D12B002D3369
:10D62C001878002807D0803430002A002178FFF7C2
:10D63C0049FA0020F8BD7F227F34237813402370F1
:10D64C00F8E700213000FCF7ABFA002801D00220EB
:10D65C00F0E77C342388DB0621D42800FCF7B8FAE9
:10D66C0000280DD02800FCF7B3FA012808D0114B84
:10D67C0028001C68FCF7ACFA390002000320A04714
:10D68C002A0000213000FCF751FA2800FCF7A0FA20
:10D69C00002201003000FFF7F1FB0120CAE728004F
:10D6AC00FCF796FA0028D8D1D1E7C0467CBD000023
:10D6BC00D4BE000024BF0000F7B5264B120A1B781D
:10D6CC00D4B2934238D9244B92001B68D558002D04
:10D6DC0032D02B0003277E331B783B40BB422BD030
:10D6EC0000212000FCF75CFA052816D0012120004F
:10D6FC00FCF756FA052810D0184B00211B682000A7
:10D70C000193FCF74DFA012106002000FCF748FAC2
:10D71C0031000200019B3800984700212000FCF7E3
:10D72C003FFA05280AD1002204212000FFF7A6FBAE
:10D73C002000E98EFEF7BCFB0020FEBD012120007D
:10D74C00FCF72EFA0528F3D100220A212000FFF75E
:10D75C0049FAEDE7D4BE00007CBD000024BF0000F8
:10D76C0070B5150AE8B20E00F8F7CEFB194BAD00F8
:10D77C001B680400E958002904D1174B0A0001204A
:10D78C001B689847002C05D1134B22002100012067
:10D79C001B6898476168002904D10F4B0A000120CF
:10D7AC001B68984733886268934205D300220A4B62
:10D7BC00110001201B6898473088636801381900F4
:10D7CC00C018F4F7D5FA2000A160F7F73DFC002053
:10D7DC0070BDC0467CBD000024BF000070B5150AAA
:10D7EC00E8B20E00F8F790FB1D4BAD001B6804006F
:10D7FC00E958002904D11B4B0A0001201B689847EB
:10D80C00002C05D1174B2200210001201B689847E2
:10D81C006168002904D1134B0A0001201B6898474A
:10D82C0031886268914203D30E4B03201B689847E2
:10D83C00A3686168581C3588F4F79AFA8D420DD0AC
:10D84C002000F7F73DFC3088636801381900C018D8
:10D85C00F4F78EFA2000A160F7F7F6FB002070BDFC
:10D86C007CBD000024BF0000F7B5C3B2524E01933B
:10D87C009B000093009A33689958002904D14F4BB0
:10D88C000A0001201B6898474D4B019A1B78934264
:10D89C0000D88FE03368009A9B58002B00D189E0A8
:10D8AC001A007E321278D243920700D182E07F3385
:10D8BC001B78DA0600D57DE05BB2002B7ADB012702
:10D8CC000C20019BFF30190239430A0030230FF062
:10D8DC001FFF04000198F8F717FB3368009A050046
:10D8EC009958002904D1354B0A0038001B68984719
:10D8FC00002D05D1314B2A00290001201B689847C7
:10D90C006968002904D12D4B0A0001201B68984737
:10D91C003368009AEF689B582D697C331B88DB07B2
:10D92C000BD4032F01D9AF4205D90022234B110090
:10D93C0001201B689847033F033D0523002220006C
:10D94C0001992371FCF746F91E4B009A236033684A
:10D95C0027829B586582DA890121628122811A8A89
:10D96C00A2815A8AE2811A007C3210880022084275
:10D97C000AD01348019D0078A84203D928331A789D
:10D98C000A410A4001235A4023002C331A7022000A
:10D99C0000232D3213705370013BE38220000FF0F3
:10D9AC00DBFE009A33689B5880227F3319785242F1
:10D9BC000A431A70F7BDC0467CBD000024BF0000AE
:10D9CC00D4BE000019D10618F8B5224B0F001B6805
:10D9DC00820001210500D658FCF7FEF80400FCF784
:10D9EC00F7F8B8422BD12000FCF7F2F803280BD043
:10D9FC0004281DD0184B20001E68FCF7E9F82900FC
:10DA0C0002000320B04712E0320010237C32118850
:10DA1C0028000B4321001380E28908310EF0D6FD5B
:10DA2C0000280CD1042229002000FCF7D3F8F8BD03
:10DA3C002100300005220831083011F0B7FA10220D
:10DA4C007C3633880121934328003380FCF746F958
:10DA5C00EDE7C0467CBD000024BF0000F0B5514B83
:10DA6C0082001B6889B0D3580D000021040001937B
:10DA7C00FCF7B2F80700FCF7ABF8A84200D081E045
:10DA8C003800FCF7A5F8051E0CD0012800D172E077
:10DA9C00454B38001D68FCF79BF821000200032061
:10DAAC00A8474CE0F8F70AFA04AE01000522300052
:10DABC0011F07CFA300010F087FA019BDB7F0293A7
:10DACC0098423ED30198052204A9083011F060FA5F
:10DADC00002857D01023019A09257C321188200088
:10DAEC000B4313800EF078FE3E00019B08361B8A18
:10DAFC00052201335D434519ADB2FD8104A9300007
:10DB0C0011F054FA2A00310020000EF05FFD051EC2
:10DB1C0038D101210920FB8904AAD38104AB1172ED
:10DB2C00C0180522310011F041FA2A00200006A984
:10DB3C00FCF7A2FC012221003800FCF74BF809B0DD
:10DB4C00F0BD01239C460721EB10F35C29400393A5
:10DB5C0062460B4113420AD163468B40039A013053
:10DB6C001A43EB10F254029BC0B28342AAD901357E
:10DB7C00252DE8D1A6E73900019805220831083097
:10DB8C0011F014FA1022019F00217C373B882000F1
:10DB9C0093433B80FCF7A2F83B88044A13403B803C
:10DBAC00CDE7C0467CBD000024BF0000FFFEFFFF98
:10DBBC0010B50400002909D04B1E022B0ED90D4BB9
:10DBCC000A001B6801000320984707E0FBF7E8FFF9
:10DBDC00062804D102212000FFF740FF10BD0121CF
:10DBEC002000FBF7DDFF0628F8D105212000FFF708
:10DBFC00EBFEF3E724BF0000F7B50127244B15001B
:10DC0C001B688200D35800917C331B8804003B4274
:10DC1C0002D024263000FEBD3900FBF7C1FF061EE2
:10DC2C00F7D1009BDA881B4BAD1AADB29D422BD9B4
:10DC3C00009B01331800019310F0C6F9012825D977
:10DC4C000E20210239430A001023FF300FF060FD33
:10DC5C0006230500210003710322FBF7BBFF2800FC
:10DC6C000D4B01992B600522083011F09FF9009B98
:10DC7C003900DB8820002A00EB81FBF757FF0321DA
:10DC8C002000FFF7A1FEC5E72826C3E71E26C1E743
:10DC9C007CBD0000FE7F0000BDDB0618F8B51D4BF7
:10DCAC0082001B680600D75801223B007C331B887E
:10DCBC000C00242513422AD04B7806320C35134223
:10DCCC0025D08B78023B232B21D83800083010F05C
:10DCDC007BF90722637800251340BB77A378FB7789
:10DCEC00834214D901230E20310219430A000F3349
:10DCFC00FF300FF00DFD0623040003712A003100E4
:10DD0C00FBF768FF044B200023600FF025FD280073
:10DD1C00F8BDC0467CBD0000BDDB061870B50A23FB
:10DD2C0005000E00124A098812480FF0F1FC124B44
:10DD3C0004001B780C21AB4212D9104BAD001B68B0
:10DD4C00EB58002B0CD01A007E321278D24392077B
:10DD5C0006D0083319000522043011F027F90021F0
:10DD6C002170338820006380F4F710FA002070BD16
:10DD7C001520000001110000D4BE00007CBD000085
:10DD8C0070B5130A154A0C0012780021DDB29A42C4
:10DD9C0022D9134A9B0012689E588E421CD0330025
:10DDAC007E331B78DB439B0716D02800FBF7F8FE6D
:10DDBC000221002810D17C363288102316001E4018
:10DDCC001A4209D1220031002800FBF7AFFE3100C6
:10DDDC002800FFF743FE0121080070BDD4BE0000EF
:10DDEC007CBD0000F7B5130A1100DAB20192174A94
:10DDFC0012789A4228D9164A9B0012689C58002C1B
:10DE0C0022D023007E331B78DB439B071CD07C3451
:10DE1C00238880261F0076003740334214D10E2011
:10DE2C000A001023FF300FF073FC0623050003716A
:10DE3C003A000199FBF7CEFE064B28002B600FF041
:10DE4C008BFC23881E4326800020FEBDD4BE000020
:10DE5C007CBD0000BDDB061810B5140A00212000A3
:10DE6C00FBF79EFE0121062804D12000FFF7F6FDEA
:10DE7C00002010BD2000FBF793FE0628F8D10421EA
:10DE8C002000FFF7A1FDF3E7F8B51D00531E0400B9
:10DE9C000F001600022B05D90F4B00223100032076
:10DEAC001B6898476B1E022B05D90B4B00222900CF
:10DEBC0003201B689847A4B23E2221000623074882
:10DECC000FF026FC0C2306714571477044800370DB
:10DEDC00F4F75CF9F8BDC04624BF00000411000043
:10DEEC002D4BF7B51B6805008000C458033A667FBC
:10DEFC00237FF01E47427841C0B20090504242410D
:10DF0C00D2B201920339DA1E504242414842414199
:10DF1C008A423BD00127013BD9B28F428941A08A6A
:10DF2C0049420430B940C0B210F06CFA238B8342E2
:10DF3C002CD0009B019A208393420FD00121013EEB
:10DF4C00F6B2B1428941E08A494204304900C0B27C
:10DF5C0010F058FA638B834215D06083ADB20C235A
:10DF6C003E2229000D480FF0D3FB07234580037098
:10DF7C00E38A0381638B4381A38A8380238BC380D1
:10DF8C00F4F704F901E0002FE8D1F7BD009B019AEA
:10DF9C0000279342D2D1F8E77CBD000004110000A9
:10DFAC00F0B57B4B87B01B6801920F0082000121FA
:10DFBC00D6580500FBF710FE337F04000293737FE5
:10DFCC000393019B002B04D0042128000EF0D0FBFE
:10DFDC004BE0FBF7FDFDB8420AD06E4B20001D68EC
:10DFEC00FBF7F6FD3A0001000220A84707B0F0BD90
:10DFFC002000FBF7EDFD062800D17BE0072800D1BF
:10E00C00ACE0052800D0B6E0310010237C310A8842
:10E01C0013430B8001231A4242D0290219430A30C0
:10E02C000A001333FF300FF073FB09230700037151
:10E03C0001222900FBF7CEFD574B38003B60330023
:10E04C007A331A78A37A1340BB7233007B331A7875
:10E05C00E37A1340FB72330078331B883B82E37BFB
:10E06C00FB73019BBB730FF077FB32007C32138880
:10E07C00D90710D410218B431380A389002B0AD00D
:10E08C002800327F0199737FFFF7FEFE2800039A68
:10E09C000299FFF725FF01212800FBF71FFEA5E7DA
:10E0AC00370001217A373A78A37A134099435B07FA
:10E0BC0006D533007833198802394B1E9941023149
:10E0CC0028000EF055FB290020000622FBF782FDEC
:10E0DC0017207B36327805A93B7808708A702800A7
:10E0EC0000224B70FCF7C8F9012228001100FBF745
:10E0FC00AFFD7BE701212800019AFBF7A9FDA3895D
:10E10C00002B00D160E7637B002B1AD1337F2348AF
:10E11C00C15C032B03D1238A022B00D11900237B72
:10E12C00002B11D1727F825C238928000EF0B4FA87
:10E13C00019000280BD1072229002000FBF74AFD93
:10E14C0054E7174AD35CE2E7154AD25CEBE7114B74
:10E15C000320227B617B1B68984786E7237B002B7F
:10E16C0002D00F4AD35C7377637B002B0DD00C4A23
:10E17C00D35C337779E7074B20001E68FBF728FD4B
:10E18C00290002000320B04730E701936DE7C04639
:10E19C007CBD000024BF000021E506187AE40718B6
:10E1AC0075E40718F0B5AA4B89B01B6801920E00F4
:10E1BC0082000021D7580500FBF70EFD3B7F0400C1
:10E1CC0003937B7F0493019B002B09D00022280032
:10E1DC001100FBF73DFD042128000EF0C9FA5CE0AC
:10E1EC00FBF7F6FCB0420AD09A4B20001D68FBF7F7
:10E1FC00EFFC320001000220A84709B0F0BD20005E
:10E20C00FBF7E6FC042800D974E110F0B7FE05001A
:10E21C00960091002B015A01390078310B888E48F9
:10E22C0005933B007C3302931A8810231343029A04
:10E23C001380E37A9C463B0062467B331A70A27AC9
:10E24C00013B1A70238A0B80797F465C604606423C
:10E25C0045D03E7F8048805D104240D0032E1CD1BB
:10E26C00002B1AD0059A934217D07C4A525C01922B
:10E27C00022B00D11E0028000EF0AEFA3100030074
:10E28C002081019A28000EF007FA0190002801D194
:10E29C00042248E000232381A3813A0010217C3220
:10E2AC0013888B431380E3681B0213D07B7F2800F9
:10E2BC003A7F0199FFF7E8FD2800049A0399FFF7CC
:10E2CC000FFEA37B002B05D03B0040217F331A7837
:10E2DC008A431A7000212800FBF700FD8DE71623F6
:10E2EC0006A90B700B0061465A7099700022190038
:10E2FC002800FCF7C1F8012200212800FBF7A8FC3C
:10E30C000121029B02221B880B420CD1A37A994358
:10E31C005B0704D5218A02394B1E99410231280032
:10E32C000EF026FA032229002000FBF753FC64E7C9
:10E33C00002228001100FBF78BFCA37A002B0BD0DA
:10E34C003A7F45498A5C1A4202D00023237303E0CA
:10E35C00022213420BD02273E37A002B10D07A7F67
:10E36C003D498A5C1A4207D00023637308E00122FE
:10E37C001342F0D10423E9E70222134251D0627315
:10E38C00E37B002B0BD0237B002B4FD13A7F637B9D
:10E39C00002B4ED17B7F9A4201D00023A381A3890D
:10E3AC000126002B29D0237B002B45D13B7F2B4A08
:10E3BC00D65C032B03D1238A022B00D11E00637B76
:10E3CC00002B3CD17B7FD35C280001930EF004FA28
:10E3DC0009233A8A310001325343C3189BB22800F7
:10E3EC00019A23810EF058F9019000282AD10422B9
:10E3FC0029002000FBF7EEFB019E2389627B9C46E3
:10E40C0006AB217B18209A706246187059709A805E
:10E41C00190000222800FCF72FF8002E00D03CE752
:10E42C00EBE601221342AAD104239EE70C4AD25CEC
:10E43C00ADE70B49CB5CAEE7094AD35CB7E70849BB
:10E44C00CB5CC0E7002301262381A381D5E7C0461E
:10E45C007CBD000024BF00007EE407187AE4071896
:10E46C0075E40718002228001100FBF7F1FBA389C3
:10E47C00002B00D1AFE6637B002B1CD13B7F2248E5
:10E48C00C15C032B03D1238A022B00D11900237BFF
:10E49C00002B13D17A7F825C238928000EF0FCF8C4
:10E4AC000190002800D1F3E6184B0320227B617BFE
:10E4BC001B689847F1E6164AD35CE0E7144AD25C35
:10E4CC00E9E73A00237B7C321288002B04D01049F8
:10E4DC00CB5CD1070AD53B77637B002B00D1DCE604
:10E4EC000B49CB5CD20703D57B77D6E67B77F3E77A
:10E4FC003B77D2E6054B20001E68FBF769FB290031
:10E50C0002000320B04778E67AE4071824BF000025
:10E51C0075E40718030010B5080003291DD810F086
:10E52C0019FD021D22241278002A16D01100193967
:10E53C0001290ED80F49097899420AD90E49980039
:10E54C0009684158002904D0012429310878A043D6
:10E55C00087000211800FFF725FE10BD5278162A0E
:10E56C00FBD11922E6E75278DEE751781629F4D16F
:10E57C009278D9E7D4BE00007CBD000010B500290C
:10E58C0009D04B1E022B09D9054B0A001B68010050
:10E59C000320984702E01278FFF702FD10BDC04639
:10E5AC0024BF0000254B70B51B6882000E000121B2
:10E5BC00D5580400FBF7F4FA03002420002B36D1C5
:10E5CC00B3780638002B32D07378002B2FD07C35E3
:10E5DC002B88DB0725D401218720230219430A004D
:10E5EC00142340000FF094F8092305000522037151
:10E5FC002100FBF7EFFA124B2B607378EB72B278B9
:10E60C00AA72934214D000232A0001212000EB733C
:10E61C00FBF78CFA200000220521FFF7C1FC00203B
:10E62C0005E009212000FBF7DBFB0028D3D070BDEF
:10E63C00044AD35C013B5A425341E5E77CBD0000E0
:10E64C0089E506189CE4071870B51B4B82001B6803
:10E65C000400D2588B780E001E25002B04D04B786A
:10E66C0059424B415B421D407C321388DB0702D47C
:10E67C002425280070BD00212000FBF791FA092801
:10E68C00F6D100212000FBF7A7FAB278837A134069
:10E69C0083727178C37A0B40C37200238A4204D10F
:10E6AC00064B9B5C013B5A425341C3732A00022127
:10E6BC002000FFF777FDDCE77CBD00009CE4071829
:10E6CC00F8B5060048780C00072301002025994373
:10E6DC000ED1A1780F009F430AD10843051E07D025
:10E6EC00A1883D00521A1A4992B28A4200D82835A4
:10E6FC0000213000FBF754FA092810D1002130001A
:10E70C00FBF76AFA63782A000373A3780321437337
:10E71C00A38803813000FFF745FD2800F8BD0121D7
:10E72C003000FBF73DFA09280FD101213000FBF72F
:10E73C0053FA63782A000373A37806214373A388E2
:10E74C0003813000FFF72CFCE7E72425E5E7C04602
:10E75C00FE7F000070B5062304000D0010480988E8
:10E76C000EF0D6FF0F4B0C211B78A34210D90E4B89
:10E77C00A4001B68E358002B0AD01A007E321278D2
:10E78C00D243920704D000215A7F42711B7F037140
:10E79C0001702B884380F3F7F9FC002070BDC04654
:10E7AC0001110000D4BE00007CBD0000F0B5494B47
:10E7BC0085B01B6803928200D3580C000193464B22
:10E7CC000C271B780290834270D9019B002B6DD0D3
:10E7DC0029331A7801231600D2101E409E40134094
:10E7EC00019A9B007E321278D24392075ED0019A36
:10E7FC007F32117840220F00174011425ED1A2786F
:10E80C000221100008400A4202D12179002957D078
:10E81C000125110029402A4202D1E278002A4FD06A
:10E82C0033431D43002851D10723227913409A42C8
:10E83C0048D1002906D10723E27813409A4241D1EE
:10E84C00002804D123792B423ED0002902D1E37851
:10E85C002B4239D001218720029B40001B02194317
:10E86C000A0014230EF054FF092306000022037142
:10E87C000299FBF7AFF9194B3360A2782B00910783
:10E88C0001D423792B40F372D30701D4E3781D40D4
:10E89C00B572E388300033820123B3730EF05CFF52
:10E8AC004023019A7F3211780B43137002983A007F
:10E8BC000399FBF793FB002005B0F0BD3A27F5E771
:10E8CC001227F3E71127F1E71A27EFE70029B2D057
:10E8DC00C0E7C0467CBD0000D4BE000021E5061890
:10E8EC00F8B52A4B160A1B68B200D458284B0D00F9
:10E8FC001B78F7B2B34207D9002C05D023007E3326
:10E90C001B78DB439B070CD1AB7B0025AB4206D0BD
:10E91C00637F227F803438002178FFF7B5FA280016
:10E92C00F8BD00213800FBF73BF9002801D0022587
:10E93C00F5E77C342388DB0621D42800FBF748F963
:10E94C0000280DD02800FBF743F9012808D0114B03
:10E95C0028001C68FBF73CF9310002000320A0479B
:10E96C002A0000213800FBF7E1F82800FBF730F90A
:10E97C00002201003800FFF715FC0125CFE7280025
:10E98C00FBF726F90028D8D1D1E7C0467CBD0000A2
:10E99C00D4BE000024BF000010B5140A00212000D2
:10E9AC00FBF7FEF8092806D1002204212000FFF70E
:10E9BC00F9FB002010BD01212000FBF7F1F809281C
:10E9CC00F7D1002207212000FFF7EAFAF1E7000057
:10E9DC00F0B50A259C4B82001B6899B0D358019066
:10E9EC000093009908ABED18162228003A3110F06C
:10E9FC00DDFA2B20019B0AAC0099237008AB062290
:10EA0C005A31C01810F0D2FA3120009908AB062206
:10EA1C006031C01810F0CAFA0B21009B08A85833BB
:10EA2C001B780918DA06D20FCA770F221340EB773E
:10EA3C00009B864A59331B78861CD25C09231B1811
:10EA4C00DA77009B01006A331B882386009B6C33AA
:10EA5C001B886386009B50331B88E383009B6833C1
:10EA6C001B78023B5A4253413E2212181370009BF2
:10EA7C006E331A783F231B181A700198330009AAB9
:10EA8C000EF0C6F88020009B009D5433198808AB0B
:10EA9C001A88EF898B1A9BB2099DC001834200D35F
:10EAAC00BBE05F43BF007F1923793F013688628842
:10EABC003F09002B00D0B7E01E3353436279002A84
:10EACC0001D0962292039B185B00F6183000604927
:10EADC00F3F73EF95E49C7193000F3F749F98BB2E9
:10EAEC00079300F0F3FE3D012D090300594A281A43
:10EAFC000001E6880009904200D898E0581B0001FC
:10EB0C00B1000009F3F724F901304643B60075193A
:10EB1C002D012B090393E38A181883B20293637BAC
:10EB2C004D4D5B005B5B0493009B583306931B7845
:10EB3C005B095B005B5B059300F0F8FE009B4000FB
:10EB4C005633465B1888029BE788181AC317C018FF
:10EB5C0058407843049BC8219B195843F3F7F0F8AD
:10EB6C00009B050052331888009BC82166331B8814
:10EB7C00C01AC317C01858407843059BF718784340
:10EB8C00F3F7DEF8059A049B9446634445199819EB
:10EB9C0068433249F3F7DCF80027039B6D00A3614F
:10EBAC00079B4519A383029B2000A5866780E382FF
:10EBBC00FAF79AF90600B8422DD00B282BD06B46E9
:10EBCC009D883E221623290025480EF0A1FD18230E
:10EBDC000400009903700622467045805A310A30B1
:10EBEC0010F0E4F9069B20001B78DA06D20F627253
:10EBFC000F221A405B092375009B227250331B882D
:10EC0C00184AA380009B59331B78E780D35C67823A
:10EC1C002374F3F7BBFA19B0F0BD521A9204920C9C
:10EC2C005743BF00EF1B3FE796235B0045E7B1005E
:10EC3C00F3F78EF801304643B600AD1B2D012B09BE
:10EC4C000393E38A181A68E77CBD000070E4071888
:10EC5C0071020000FEFFFF078CE4071840420F0012
:10EC6C000411000075E40718F7B5174ACBB2126807
:10EC7C009B009C5806000D00002C24D0134B1B78D5
:10EC8C0083421DD9F7F712FA2700019020005A375A
:10EC9C0006223900603010F089F927204643019B89
:10ECAC0006229E193100380010F080F910225834D9
:10ECBC0023789343B279511E8A4112011343237076
:10ECCC00E8B2FFF785FEF7BD7CBD0000D5BE0000A5
:10ECDC00F0B5140AE3B29FB00793AB4B0D001B7851
:10ECEC00A34202D800201FB0F0BDA84BA4001B68A3
:10ECFC001B59002BF6D07E331B78DB439B07F1D0DE
:10ED0C0000210798FAF74CFF0690069B0220002B77
:10ED1C00E9D1AB78002B38D01F2206A952181E213E
:10ED2C0006AE287913AB8919F8F71EFF0028D9D144
:10ED3C002626002706ABF618378000F0F7FD1C22BC
:10ED4C0015AB1A702A8809905A803900122216A81D
:10ED5C0010F048F9AB78E878BB4221D10EAB0593A3
:10ED6C0017AB0493222306AA9B18039311AB0193B0
:10ED7C004D239B1800932121492306AD9B18029625
:10ED8C0010AA491909F078F820E01F2206A9521898
:10ED9C001E2106AEE87813AB8919FAF765F8C5E7BA
:10EDAC0017AB0393222306AA9B18029311AB019372
:10EDBC004D239B1800932121492306AD9B1849191B
:10EDCC0010AA05F079FA099A0EAB1A702A230FAE25
:10EDDC0006AA31009B18079812AA0DF03DFF2223BA
:10EDEC00802106AA9B181F88684B36881B6815ADB6
:10EDFC001B592F836E84DB89119A0A93129B090588
:10EE0C00D41A240124098C4203D99C1A2401240904
:10EE1C0064422A2106A8091809888C46262109185B
:10EE2C0060460988091A5A480131444310A80088E1
:10EE3C004910089080000B90002064106418002C7E
:10EE4C006ADD002804D01192222206A952181780DC
:10EE5C000A9A802792000A92624601325210944616
:10EE6C00002211993F054B4884426CDC002A02D0E9
:10EE7C0012930FAB1E8096239B039C4279DA464E6D
:10EE8C001E21B44201DD962149002000F2F758FF03
:10EE9C00012280B2B44200DC0022D2B21F232871BE
:10EEAC00000A184052011043069A2900920110439F
:10EEBC00089A6871EA802A7B13400EAA12785201D4
:10EECC0013432B73222306AA9B181B88AB820FAB10
:10EEDC001B88EB821F239B18187810230001184005
:10EEEC000E339B180F221B7813401843099B06AA5C
:10EEFC005B01184321239B181B78284AA876D35C06
:10EF0C00EB76139B1C9313AB9A881CAB9A800798D7
:10EF1C000022FBF7B1FAE5E60B98121880201201DB
:10EF2C001209D41A240124090005844203D99C1A1D
:10EF3C00240124096442164801374443641001201B
:10EF4C006418BFB27BE70A9AD3181B011B09CC1AB1
:10EF5C0024012409BC4203D95C1A2401240964420B
:10EF6C000B4A0136544362466410A41AB6B201220D
:10EF7C0079E796210A4B4900E018F2F7E1FE0123EC
:10EF8C0080B21A00069389E7D4BE00007CBD000055
:10EF9C0071020000404B4C00C3BF030087E407180C
:10EFAC000080DAFFF0B55E4B87B01B6802AF3A60A9
:10EFBC008200D458B860230068331B780D00013BE5
:10EFCC00012B00D987E0012026004B790A791B021E
:10EFDC00590B3A3601401A439B0BB1700340290080
:10EFEC002000D204F370D30C63877B60EB79AA7991
:10EFFC001B021343B380052208314030FB600FF035
:10F00C00D5FFB37A29005A09F2721F22200013404F
:10F01C00B3721B3A0D3146300FF0C8FF29002000A7
:10F02C00032211314A300FF0C1FF6B7D2A7D1B0288
:10F03C001343B3827B68002B4DD0FB68052B4AD958
:10F04C002300290020006A8850331A801C310622C4
:10F05C005A300FF0ABFF23002000EA8A54331A8099
:10F06C006A8C02331A822A8B00211A80EA7E603065
:10F07C00DA70AA7E02331A703A68063B1A800622AE
:10F08C000FF0B0FFAB7EDB0645D53F220235EB7FA0
:10F09C009343402B3FD16E46224B1B781D01731BB3
:10F0AC009D4602AB7B60F7F701F82A00386000211F
:10F0BC0078680FF097FF0023FB601A4B1878FB68F9
:10F0CC0083420CD32200BB685A3200937968164BEA
:10F0DC000FF056FCB5460020BD4605B0F0BD272507
:10F0EC00FB685D433B685D19AB79FF2B0FD017357F
:10F0FC00102228000D490FF04BFF002807D0FB68A9
:10F10C00102218017B68290018180FF04FFFFB68BC
:10F11C000133DBB2D0E7B868FFF75AFCDBE7C04637
:10F12C007CBD0000D5BE000075EC061860E4071825
:10F13C00F8B51C4B05001B780E0017000C248342FD
:10F14C0028D9194B82001B68D358002B22D01A00E7
:10F15C007E321278D24392071CD02B331B780E349C
:10F16C009B0717D5002308791A001900F9F77CFEC4
:10F17C00041E0FD1012188202B0219430A000623FB
:10F18C0040000EF0C5FA738884700380B388C37096
:10F19C000EF0E2FA280039002200FAF7C7FE002030
:10F1AC00F8BDC046D4BE00007CBD0000F0B5244BB9
:10F1BC0085B01B7805000C2400910192834237D94D
:10F1CC00204B82001B68D358002B31D01A007E32A2
:10F1DC001278D24392072BD02B331B7801260E3496
:10F1EC009B0725D502ABDF1D02AB08793A00991DB0
:10F1FC00F8F78CFC041E1BD102AB2200210098797D
:10F20C002300F8F7B1FC041E12D1882029023143E7
:10F21C0006230A0040000EF07BFA009B5B88867088
:10F22C0003803B78C37002AB9B7903710EF094FAA8
:10F23C00280022000199FAF779FE002005B0F0BDF4
:10F24C00D4BE00007CBD0000F7B51D4B01921B78AD
:10F25C000C000C2283422DD91A4B85001B68EB58ED
:10F26C00002B27D01D007E352D78ED43A90721D02A
:10F27C00A27894466146122202291BD8FA25A78847
:10F28C006D00AF4216D2E6880F4935000A3DADB28B
:10F29C008D420FD8257A17242900A1430C1E09D1C1
:10F2AC001A00614668329571117057800232220043
:10F2BC006C331E800199FAF739FE0020FEBDC04662
:10F2CC00D4BE00007CBD0000F63F0000F7B5040082
:10F2DC000F000021FAF780FC284BA2001B680500E8
:10F2EC00D658FAF775FC00280BD0012832D0244BE5
:10F2FC0028001E68FAF76CFC210002000320B047BE
:10F30C0036E02B7A7C36002B1DD180233288DB0033
:10F31C001343200001213380F6F770FD07201D23D5
:10F32C006A4601A91371507100222000FBF7A4F862
:10F33C00012221002800FAF74DFC012200212000B7
:10F34C00FAF786FCF7BD00F0F1FA33880D4A13404A
:10F35C003380E4E7002220001100FAF779FC2B7AC5
:10F36C00012B05D1002F03D139002000F6F746FD03
:10F37C0000212000FAF7B2FCE4E7C0467CBD000097
:10F38C0024BF0000FFFBFFFFF0B5154F86003B6864
:10F39C0085B09B5904000093019100F0C7FA3B68BB
:10F3AC0005009B597C331B88DB0706D4019B5978DD
:10F3BC00072902D820000DF015FC009B7C331B881C
:10F3CC005B0500D507251E2302AA20001371557179
:10F3DC0003A90022FBF750F8002005B0F0BDC04691
:10F3EC007CBD00000D4B10B51B688200D358040087
:10F3FC007C331B88DB0704D44978072901D80DF02E
:10F40C00F1FB00212000FAF7CBFB0A2803D10021E5
:10F41C002000FFF75BFF002010BDC0467CBD000044
:10F42C0070B5130A114A0C0012780021DDB29A4211
:10F43C001AD90F4A9B0012689B588B4214D07E330A
:10F44C001B78DB439B070FD02800FAF7A9FB02219E
:10F45C00061E09D1010022002800FAF767FB3100D3
:10F46C002800FFF733FF0121080070BDD4BE000057
:10F47C007CBD0000024B10B51B689847C0B210BD94
:10F48C00CCBF0000F0B5524B85B01F680023002F95
:10F49C0000D089E04F4B3A00390001201B68984797
:10F4AC0093E03822019903254A43009270224A4E78
:10F4BC003378181D50430233643A53435430FF30B1
:10F4CC005B19A843C018454BA843C018009BC01833
:10F4DC000DF028FCC00B80B2002862D070240C22E6
:10F4EC003378181D6043023353435430FF305B199B
:10F4FC00A843C018394B009AA843C01880180DF0C7
:10F50C0011FC0C2133780290181D604302334B43DD
:10F51C005430FF305B19A843C018304B009AA843F5
:10F52C00C01880180DF0FEFB70220C21337803906C
:10F53C001C1D544302334B435434FF345B19AC430E
:10F54C00E418264B0098AC43E418241820000DF066
:10F55C00E9FB4023029A984351001940014389B2B8
:10F56C0020000DF0E8FB70220C2133781C1D544355
:10F57C0002334B435434FF345B19AC43E418174B40
:10F58C00AC43E418009BE41820000DF0CBFB039B6C
:10F59C005900042398431940014389B220000DF00F
:10F5AC00CAFB019B0133DBB201930D4B019A1B7813
:10F5BC00934200D975E701213800F4F77BFF044C26
:10F5CC0020680EF0CDF90023236005B0F0BDC046D5
:10F5DC007CBE000024BF0000D4BE000000400050E0
:10F5EC00D5BE0000002210B5024B110001201B6893
:10F5FC00984710BD24BF00000B4B10B519680029AB
:10F60C000BD00A4A837D527D9B188375F4F734FE28
:10F61C00002801D0FFF7E6FF10BD054B0A000120C2
:10F62C001B689847F8E7C0467CBE000024CE07183C
:10F63C0024BF0000F0B5002487B0029003912C4B3E
:10F64C001B78A34250D938226243019270220C25B8
:10F65C000326284F3B78181D504302336B4354301C
:10F66C00FF309B19B043C018234BB043C018019B0B
:10F67C00C0180DF057FBC00B80B2002802D101342A
:10F68C00E4B2DCE770223B7804A8191D5143023325
:10F69C006B435431FF310333B143C918B143019B60
:10F6AC001A31C91889B26A3A0DF04AFB70223B78BC
:10F6BC00181D504302335D435430FF30B0430335C3
:10F6CC000D4B4019B043C018019BC0180DF02AFB1C
:10F6DC000123039A18401A408242D0D1029904A8FF
:10F6EC000EF065FC0028CAD0200007B0F0BDC04663
:10F6FC00D5BE0000D4BE000000400050F7B51C2160
:10F70C00334A7024C0321278032551438C46314A57
:10F71C00314F624401920C223B78304E181D6043ED
:10F72C00023353435430FF305B19A843C01833786D
:10F73C002C325343A8435B19C018019BA843C01833
:10F74C0000910DF0EFFA002818D1F5F7F1FF3B7896
:10F75C000100181D60439C1C0C235C435430FF308B
:10F76C006419A843001934782C335C43A8436419FA
:10F77C00019B0019A843C0180DF0DDFA70240C236E
:10F78C0039780A1D5443032202314B435434FF345D
:10F79C009B189443E4183823317894434B439B18BB
:10F7AC00E41894430E4A009B94466344E4182000EA
:10F7BC000DF0B8FA4104490C20000DF0BCFA044CD1
:10F7CC000621C03420780130F2F7D2FA2170F7BD4F
:10F7DC008CBD000014400050D4BE0000D5BE00000B
:10F7EC0000400050F7B5244A0190C03210781C221A
:10F7FC0070240C2603254243009238221F4F3B787D
:10F80C00181D6043023373435430FF305B19A84317
:10F81C00C0181B4BA8431B7853435B19194AC018DB
:10F82C00009BA8439B18C0180DF07CFAC30B00205A
:10F83C009BB283421ED03B78134A181D604302339F
:10F84C005E4354300E4BFF307619A84380191E7856
:10F85C00382394465E43A843009B76198019634471
:10F86C00A843C0180DF05EFA019BC00AC0B2C01AC2
:10F87C0043425841FEBDC0468CBD0000D4BE0000C2
:10F88C00D5BE0000004000500C40005070B524283C
:10F89C0011D800230B4D2C189434E356002906D0B4
:10F8AC00032B01DC0133237080002A5070BDD91C5E
:10F8BC00FADB013BF7E70022034B110001201B6828
:10F8CC009847F3E78CBD000024BF000007B56846DD
:10F8DC000DF0D8FA00980EBD114B10B51B68040042
:10F8EC00002B1AD0FFF7F2FFA0228023D20511685B
:10F8FC009B0419438023116011685B041943094B65
:10F90C0011601B78181800010009A0622000064B3A
:10F91C002430E362F4F7FEFE10BDFFF763FEFBE755
:10F92C007CBE0000E8BE000091F40618014BBE330B
:10F93C00187870478CBD0000004870478CBD0000E3
:10F94C0070B5174E3568002D23D1290030200DF0ED
:10F95C007BFF041E30601BD0124BC5610362124B3F
:10F96C00C5758361114B1B7D8375114B0361114B65
:10F97C008382FFF7ABFFA56060602000F4F77CFC8E
:10F98C00002805D02A00290001200B4B1B68984742
:10F99C0070BD0022084B110002201B68F7E7C0461F
:10F9AC007CBE000005F60618E5F8061824CE0718EC
:10F9BC0088130000A160000024BF0000F0B587B0E0
:10F9CC00049005910292FF2A00D184E00C240300DC
:10F9DC0063430193434B64341B7804335C4303232C
:10F9EC005434FF349C43019BE4183F4BE418200033
:10F9FC000DF098F93D49014389B220000DF09BF9B7
:10FA0C00029B3B4A9B030393134205D00022394BC4
:10FA1C00110001201B68984770270325314E019B6C
:10FA2C00347804347C435434FF34AC43E4182E4B08
:10FA3C00E41820000DF076F92D49039A014011438A
:10FA4C00200089B20DF077F93478019A04347C43A4
:10FA5C005434FF34244BAC43A418E41820000DF0AC
:10FA6C0061F90221014320000C2489B20DF063F9E5
:10FA7C00317804980431794360435431FF310230BA
:10FA8C00A94309180622059889B20DF061F902996B
:10FA9C000598FFF7CFFD184B1B78834219D93278A4
:10FAAC00131D7B43023254435433FF33AB4364196D
:10FABC001C190D4BAC43E418382358432418200070
:10FACC000DF030F980218901014389B220000DF03D
:10FADC0032F907B0F0BDA022D205136807490B40DC
:10FAEC001360F6E7D4BE0000004000500080FFFF1A
:10FAFC00FFBFFFFF24BF0000D5BE0000FFFBFFFFD0
:10FB0C00F7B501910092FF2A5AD070240C270323D9
:10FB1C002F4E474335782F4A043565435435FF350E
:10FB2C009D43ED19AD1828000DF0FCF80223984305
:10FB3C0081B228000DF0FFF803233078254A0430F9
:10FB4C0060435430FF309843C01980180DF0EAF828
:10FB5C00C30711D4337804335C4303235434FF3488
:10FB6C009C431C4BE419E41820000DF0DBF8410415
:10FB7C00490C20000DF0DFF800990198FFF75AFDB1
:10FB8C00154B1B7883421AD970240C2331780A1D2B
:10FB9C005443032202314B435434FF349B18944397
:10FBAC00E4180C4B9443E4183823584324182000D1
:10FBBC000DF0B8F80949014020000DF0BCF8F7BD74
:10FBCC00A0228021D2051368C9000B431360F6E70D
:10FBDC00D4BE000000400050D5BE0000FFDF000086
:10FBEC00F0B50F0085B0110001903800150003939B
:10FBFC00FFF720FD02900C207024019BAD034343C2
:10FC0C0000935A4B1B7804335C4303235434FF3466
:10FC1C009C43009BE418564BE41820000DF082F82E
:10FC2C005449014389B220000DF085F8524B1D4216
:10FC3C0005D00022514B110001201B6898474B4BFB
:10FC4C0003261C78702304345C435434009AFF342C
:10FC5C00B443A418464AA41820000DF063F8464992
:10FC6C0001402943200089B20DF065F870233F490B
:10FC7C003F4A0D78009904355D435435FF35B54343
:10FC8C006D18AD1828000DF04DF801240100A143AA
:10FC9C002143280089B20DF04EF8344A70231178B4
:10FCAC000C22019804314243594313005431FF3163
:10FCBC000233B143C9183800062289B20DF048F856
:10FCCC00019A2F4F5500039A3B689440595B274A81
:10FCDC00214389B25953702310780430584354305F
:10FCEC00009BFF30B043C018264BC0180DF023F812
:10FCFC00254B029A1B78934235D9382202991B4B1B
:10FD0C00514300910C211B7892181C1D5443023353
:10FD1C004B435434FF349B19B443E418144BB44391
:10FD2C00E418009BE41820000CF0FCFF8021490132
:10FD3C00014389B220000CF0FEFF3A680B4B515B7B
:10FD4C0070221B78181D50430233643A53435430CD
:10FD5C00FF309B19B043C0180C4BB043C018009B2C
:10FD6C00C0180CF0E8FF05B0F0BDC046D4BE0000D2
:10FD7C00004000500080FFFFFFBFFFFF24BF0000CA
:10FD8C0084BD000008400050D5BE00000240005069
:10FD9C00F7B506001F0008001100FFF74BFC4B4D98
:10FDAC0074002B680190195BB94319530C2370270D
:10FDBC00734303260093464B1878009B043078431A
:10FDCC005430FF30B043C018424BC0180CF0B3FF96
:10FDDC00414B019A1B78934216D93D4B2A681B78EC
:10FDEC00115B181D78439F1C0C235F435430FF306C
:10FDFC00B043BF19394BC019B043C0183823019A0E
:10FE0C005343C0180CF097FF304B1B681B5B002B47
:10FE1C005AD1702403262E4B01271D78009B0435E4
:10FE2C0065435435FF35B543ED182D4BED182800BF
:10FE3C000CF078FFB84381B228000CF07CFF244A08
:10FE4C00274B1078009A043060435430FF30B04395
:10FE5C008018C0180CF066FF3841384212D11C4B88
:10FE6C001878009B043060435430FF30B043C01806
:10FE7C001B4BC41820000CF055FF4104490C20000A
:10FE8C000CF059FF144B019A1B7893421CD9702427
:10FE9C000F4B382019780C230A1D544303220231CE
:10FEAC004B435434FF349B189443E4180C4B944349
:10FEBC00E418019B5843241820000CF033FF094927
:10FECC00014020000CF037FFF7BDC04684BD000098
:10FEDC00D4BE000008400050D5BE000002400050C7
:10FEEC0000400050FFEF0000F8B5002570270326F6
:10FEFC00104B1B78AB4200D8F8BD0F4B1A780C2373
:10FF0C00141D7C43023253435434FF340333B44343
:10FF1C00E4180A4BB443E41838236B43E41820006C
:10FF2C000CF000FF4104490C200001350CF003FFDC
:10FF3C00EDB2DDE7D5BE0000D4BE0000004000509D
:10FF4C00F0B585B00090012808D0022800D009E255
:10FF5C00D94B1868002801D00DF002FDD74DE722CF
:10FF6C00002128000FF03EF8D54B00211A78D54B14
:10FF7C000232186852000FF035F80023D24AD354DD
:10FF8C000133252BFBD12A00E73213700022CA4B18
:10FF9C00CE4F1A600223CE4E03AC23703A002100E0
:10FFAC00072033689847002802D0FA235B003B8077
:10FFBC002B00BC331B88BE35142B00D9E9E1072379
:10FFCC002B800123C34A2100237085203368984776
:10FFDC00FFF750FA0022C04B18705A709A70009BB1
:10FFEC00012B28D0022B00D0BCE1A023DB051A6822
:04FFFC00BA490A40B4
:020000041807DB
:1000000080211A601A6809060A431A601A68D50F17
:10001000002AFBDB01220327B44B52421D60B44B84
:100020001A60AA4B1878421C954200DCD1E1FFF718
:1000300061FFB04AB04913680B4013600022AF4B18
:100040001A6002ABD91C042322000B7031203368E4
:100050009847011E29D1039B25780193E378A7785F
:1000600066781B0604D5A64B02001B680120984742
:10007000FF0905D00022A24B110001201B68984700
:10008000F60905D000229E4B110001201B689847FD
:10009000ED0905D000229A4B110001201B689847FA
:1000A000019A984B1343954A1360A0237027964AF0
:1000B000DB051A608D4B954A0C211A60944B954ACA
:1000C00003251A60814B00261A78131D7B430232E8
:1000D0005433FF33D2B212049B0813438E4A136089
:1000E0007A4B8E4A1B7804337B435433FF339B088F
:1000F0001360764B1A78131D7B4302324A43543304
:10010000FF33AB4352199A18854B92081B781B0496
:100110001A43844B1A606D4B1A78131D02325143F7
:1001200010227B435433FF33AB43491959187E4B9C
:10013000890819607D4B1A600C20644B01361B78CE
:1001400006211C1D7C43023358435434FF340330D2
:10015000AC4324183820724BAC431B7858431C2303
:1001600073430330241830000193F1F707FE1C237A
:1001700059436F4A019BAC43091998188908001923
:1001800089B20CF0DEFDF5F7D9FA041E05D15C4BFF
:10019000020001001B68012098470C224B4B2100F4
:1001A0001B78181D7843023353435430FF30033318
:1001B000A843C0185A4B2C321B78A84353435D4ABE
:1001C00003339446C018019BA8436344C0180CF045
:1001D000B8FD062EB0D13D4B32361B7800241A1DD7
:1001E00057430C22023353435437FF370333AF4393
:1001F000FF184B4BAF431B785E430336BE19702785
:100200004D4BB6081E604D4B1C604D4B26021E42E6
:1002100005D000223A4B110001201B6898473D0091
:100220006543484B0134ED1828000CF081FD464928
:1002300001403143280089B20CF083FD234B1B7829
:1002400003339C42E1DD7F20404B414A1968414B1A
:10025000090A1B68014028311B0A118003403E49EE
:10026000183353800B683D4D1B0ADBB25133FF330B
:1002700093800B6880241B0ADBB25133FF33D38099
:100280002B6898478002364B2406800A204318606A
:100290002B689847A02280218002324B800A20439D
:1002A0001860D205136849000B4313602E4B2F4A88
:1002B000196891425CD01968114B03201B6898475C
:1002C00056E0C0467CBE00008CBD0000D4BE0000DD
:1002D00084BD00004EBE000048BE0000DCBE000031
:1002E0004DBE000088BD0000FFFEFFFF0C00005067
:1002F00014000050D0000050FFEFFFFF50000050EE
:1003000024BF000080808080070610001E000100CE
:1003100020010050D90296FF3001005034010050F6
:10032000D5BE00006001005064010050380100504B
:10033000E43F0050F83F0050280000502C000050CF
:10034000FFE0000052410050FFE0FFFF900000502E
:1003500074BE00009400005098000050CCBF000014
:10036000680100506C01005004000050000F000AAA
:10037000009803F03FF8009803F0F2FE009806F0B2
:1003800089F8009807F0BCFB009809F0E1FB0098A1
:1003900008F012FB00980CF003FC05B0F0BD1E2B1A
:1003A00001D8062312E6322B01D805230EE64B2B8B
:1003B00001D804230AE6642B01D8032306E6962B12
:1003C00001D8022302E6FA2B01D80123FEE500231F
:1003D000FCE57023043058435430064BFF30B843DB
:1003E000C0180C236B430021C01801350CF0A9FC88
:1003F000EDB216E600400050F0B58BB0039310ABA1
:100400001B78524C049311AB1B781700089312AB66
:100410001B781022029007910398210009930EF097
:10042000BDFD03005A1E93412100DBB2102205904E
:10043000380000930EF0B2FD0400631E9C41E3B24D
:100440003824029A0C255443702203260193404B12
:1004500006901B780798191D514302336B435431A2
:10046000FF319B19B143C918B14361181A3189B2E0
:100470006A3A0CF073FC059B002B13D07022344BAE
:1004800003981B78191D514302335D435431FF31EA
:10049000B143AD194919B1436118203189B2603AAD
:1004A0000CF05CFC069B002B15D07021284B1878B3
:1004B0000C23021D51430322023043435431FF31C8
:1004C00091439B18C918914361180431380089B2CF
:1004D0000D320CF043FC0120089B9D03099B5E0339
:1004E000009B9F015B010093019B9B000393019B79
:1004F0005C00049B834304D00022164B11001B6850
:1005000098477020049A124B14432643009A3543AF
:100510002F431B781743039A9C1C17431A1D0C2367
:100520005043032263435430FF309B189043C0185C
:10053000094B9043C0183823029A08495343394362
:1005400089B2C0180CF0FDFB0BB0F0BD60E40718D9
:10055000D4BE000024BF0000004000500080FFFF18
:1005600010B570240D4B0C2219780B1D5C4303232E
:1005700002314A435434FF34D2189C43A4189C439C
:1005800035334343064A9B18E41820000CF0D0FB97
:100590004104490C20000CF0D4FB10BDD4BE000077
:1005A0000040005070B570240F4B0D0019780C23DB
:1005B0000A1D5443032202314B435434FF349B1829
:1005C0009443E418382343439443084AAD039B18EB
:1005D000E41820000CF0ACFB054901402943200041
:1005E00089B20CF0AEFB70BDD4BE000000400050DC
:1005F000FFBFFFFFF7B5702401910C2138260325BA
:10060000154F46433A78131D634302324A4354332D
:10061000FF335219AB439B18104AAB43B01818185C
:100620000CF086FB0223020714D53B783000191D1D
:1006300061439C1C0C235C435431FF31A943641972
:1006400009191430A94309180622019889B20CF03F
:100650007DFB00231800FEBDD4BE0000004000500A
:10066000F7B5702401910C2138260325154F464318
:100670003A78131D634302324A435433FF3352190D
:10068000AB439B18104AAB43B01818180CF050FB42
:100690000223020614D53B783000191D61439C1CCF
:1006A0000C235C435431FF31A943641909193030DC
:1006B000A94309180622019889B20CF047FB0023D0
:1006C0001800FEBDD4BE000000400050F7B5050084
:1006D0000191FEF7D5FE032203001340023A9A402F
:1006E0000F2753B29C46184C184AA3782678D35C3F
:1006F0003E401B013343664633432B70A378267874
:10070000D35C00091B011900330919436970A378F0
:100710000321D35C019A1B013A4017001F43AF70BD
:1007200062780B4B9B5C1B01034360460343EB70F9
:10073000501CF1F723FB0122A378B61801331340B4
:1007400026706170A370F7BD88BD0000DB09071833
:10075000D8090718F0B504000020D3020E0089B0B4
:10076000DB0C834200D1DDE03F21D00911400700BE
:1007700006910121950912020F40520F0D40029778
:100780000392084200D0CFE01E20584304900CF0A2
:10079000D9FC1423002802D1664BBC331B881C21D2
:1007A00065486D4205407020F535FF355B19714392
:1007B0000793624B01911B781A1D991C0C2350431F
:1007C00003224B435430FF309B189043C0185C4BBE
:1007D0009043197838234B439B18C0189043019BD2
:1007E000584A9B18C0180CF0A3FA0590030B05D0CB
:1007F0000022554B110001201B68984770220C21E4
:10080000032538264D4B4E4F1B78181D504302339D
:100810004B435430FF305B19A843C0183B78A843C2
:1008200073435B19494AC018019BA8439B18C01821
:100830000CF07EFA70220C21059B1B0403430593E8
:100840003E4B1B78181D504302334B435430FF304E
:100850005B19A843C0183B783D4A5E43A843019BFF
:1008600076198019A8439E1880190CF061FA9C270C
:100870008005800DBF00029B3F1ABFB29335002B4D
:1008800000D1873D049B2C26ED18029B002B01D044
:100890009D267600049B07982E495843F1F75EFA8F
:1008A00086197020254B6D0019780C230A1D5043C2
:1008B000032202314B435430FF309B189043C01841
:1008C0001F4B9043197838234B439B18C018904313
:1008D000214A019B94466344C0180CF029FA800B0E
:1008E0001E4B80B24000039AEF19C55A1C4B76008C
:1008F0009B5CBF1B63736D00069B7F1B19492373B1
:100900003800F1F723FA059B1649C01800010009C9
:1009100020603800F1F732FA039B6160022B06D0A9
:100920000120A66009B0F0BD962040002DE7C43636
:10093000F6E7C0468CBD00003EFEFFFFD4BE0000BF
:10094000D5BE00000A40005024BF000008400050FF
:100950000C40005040420F000640005074BE0000A2
:10096000DD09071871020000F8B5104B04001B6880
:100970009847002307251A000D4F1E00D908615C17
:100980002E4031410126314204D0B918C2319219AA
:100990000B70D2B20133DBB2252BEED1044BE7331F
:1009A0001A70044B1B689847F8BDC046C0BE0000D3
:1009B0008CBD0000C4BE000010B5FEF761FD054C03
:1009C0002300E7331978F1F7D9F96418C234207895
:1009D00010BDC0468CBD00000204060C03000102DD
:1009E000024B10B51B68984780B210BDCCBF000009
:1009F000F0B5040085B0002800D1ADE006004168E4
:100A0000F36A326BCB1A1B01343E1B09520093422E
:100A100005D3544A837D527C9B1883753166200030
:100A2000F3F730FC002800D18DE0B36D013300D125
:100A30008BE0230003275333187832224743FBB25D
:100A4000270001932300463739785D331D780B0268
:100A5000002108000293444BBC331B889A42484152
:100A600083012A0003933F239A438A4204D03F4BD9
:100A70000A0001201B68984770203D4B03991A78A3
:100A8000019B29431B010193029B951C1943131DD4
:100A90000C22584303236A435430FF30D218984342
:100AA0008018344A9843157838226A43D21880183F
:100AB0009843AB30304A9843019B9B18C0180CF008
:100AC00040F923005C331D78E0236D012A003F8844
:100AD0009A433F0A002A05D00022244B110001202E
:100AE0001B6898471F233A009A4305D000221F4BEA
:100AF000110001201B68984770201D4B29001A78AF
:100B00003943131D951C0C22584303236A43543068
:100B1000FF30D21898438018164A98431578382227
:100B20006A43D2188018154A98439446AB309843CC
:100B3000019B6344C0180CF004F9230000226133C8
:100B40001A702369336105B0F0BD00221100074B14
:100B50001B6801209847F6E7044B020001001B6860
:100B6000F7E7C04624CE07188CBD000024BF000064
:100B7000D4BE0000D5BE0000084000500A4000501E
:100B8000F7B5234F86003B6815009C5900900191F2
:100B9000002C3BD000212000F3F792FC230095337A
:100BA0001B78002B04D0200000213430F3F788FCA0
:100BB000230074331B881B0702D50220F4F7C6FB01
:100BC000019B002B1BD03C23FF22002111480CF07D
:100BD000A5FD009B020003700023353245701370A1
:100BE0009D4207D02200783212881D009A4201D01F
:100BF00086342578030038331D700CF0B3FD3B6854
:100C000098590CF0B3FE00223B689A51F7BDC046DC
:100C100080BE000007020000904B80001B68F0B50A
:100C2000C4588BB0230095331B782600002B00D0CE
:100C300034362300743302931A8813231A4207D1DF
:100C4000A36E002B04D0230094331B78002B05D017
:100C50000022834B110001201B6898470A2504AB32
:100C6000ED18230088332A00187807A908AB03F091
:100C70009BFA8022079B716812055E1A36013609BD
:100C8000964203D9CE1A36013609764222001E203A
:100C90007A32128840425043724A002756439446A3
:100CA000226F76102D32FF3203920A2201903618FD
:100CB00004A8121812880398B04200DBB4E0002F99
:100CC00004D007930A2304A95B181A800023664AFC
:100CD000180096420EDC654F1E21BE4201DD9621B2
:100CE00049003000F1F732F8012380B2BE4200DC47
:100CF0000023DBB204AA971DD61D1F223870000AFC
:100D000010405B0118432B8806A90B700921307035
:100D100004A81B0A09180B70057D87341540FEF7DF
:100D20000BFE4001054304AB1D75514B7020197833
:100D3000032322785A430132D2B2120101920A1DD2
:100D400050438A1C0C21514354304A4AFF30C91881
:100D500098434018117838224A439843D218801893
:100D60009843AB309843019BC018434BC0180BF01D
:100D7000DFFF041E05D13A4B020001001B68012071
:100D80009847029B00251B889A0600D406355B070E
:100D900001D50635EDB27020354B0C2219780B1DAC
:100DA0005843032302314A435430FF30D21898434A
:100DB0008018304A9843117838224A43D218801854
:100DC0009843AB309843019BC0182C4BC0180BF0D4
:100DD000AFFF691DC9B2C30401D40235E9B264187A
:100DE000A4B22100380001220BF0B8FF611C3000D2
:100DF000012289B20BF0B2FF2100103106A80122B6
:100E000089B20BF0ABFF2100092004AB1131C018EF
:100E1000012289B20BF0A2FF211D052289B208A888
:100E20000BF09CFF0BB0F0BD8027A66E3F05B6000F
:100E3000F3181B011B095E1A36013609BE4203D99D
:100E4000CE1A36013609764267467E4301987610FF
:100E500001320127361892B22DE7C04680BE00004D
:100E600024BF000071020000D47E2500C3BF030030
:100E7000D4BE0000D5BE00000C400050064000501B
:100E8000F0B504008DB0002800D1C0E003000327B6
:100E900053331E7805007743FBB2019303004033C0
:100EA0001A881323343D1A420AD1AB6E002B07D0A7
:100EB000030060331B78002B02D13000FFF7ACFE3B
:100EC000A96D4B1C09D0702063687043C91A534B3D
:100ED000C903090CC0180BF034FF27002300463764
:100EE00039785D331D780B0200213222080002930D
:100EF0004B4BBC331B889A42484183012A00039321
:100F00003F239A438A4204D0464B0A0001201B68C3
:100F100098477020444B03991A78019B29431B0181
:100F20000193029B951C1943131D0C225843032364
:100F30006A435430FF30D218984380183B4A984394
:100F4000157838226A43D21880189843AB30384A53
:100F50009843019B9B18C0180BF0F3FE23005C33F1
:100F60001D78E0236D012A003F889A433F0A002A3A
:100F700005D000222B4B110001201B6898471F232E
:100F80003A009A4305D00022264B110001201B682D
:100F900098477020244B29001A783943131D951C5B
:100FA0000C22584303236A435430FF30D21898432D
:100FB00080181E4A9843157838226A43D218801840
:100FC0001C4A98439446AB309843019B6344C01835
:100FD0000BF0B7FE184B04AA0493636816760593CA
:100FE00000232269069308960792A27D04A90A7538
:100FF0008A750F2208004B758B760B774B76CA7576
:10100000F3F72EFD0123553423700DB0F0BD054BD1
:10101000020001001B6801209847F6E7804100505C
:101020008CBD000024BF0000D4BE0000D5BE00006F
:10103000084000500A400050E9310718F0B504009C
:101040008FB0002800D1F1E0050087352B7806002D
:101050000193030074331A88132395361A420DD175
:10106000836E002B0AD0030094331B78002B05D12C
:101070003378002B02D10198FFF7CEFDA16D4B1CF8
:101080000AD070206368C91A019BC90358436B4B8F
:10109000090CC0180BF055FE0022337802929342DF
:1010A00000D19DE00326287862684643F3B203939B
:1010B000A36B634D9B1A1B011B095D4323001E217B
:1010C00000267A331B886D084B43ED185D4B009664
:1010D0009D4215D85C4FBD4200D9A4E02800F0F72E
:1010E0003DFEAF42B64183B21E2100937642BD421F
:1010F00001D9962149002800F0F740FE8BB20293F7
:10110000230091331D786B46197832220B0200219F
:101110000F000493F30105934C4BBC331B889A4298
:101120004F413F232A00BF019A438A4204D0484BD3
:101130000A0001201B68984739007020454B29435D
:101140001A78039B951C1E01059B1943049B1943A8
:10115000131D0C22584303236A435430FF30D21826
:10116000984380183C4A9843157838226A43D2182D
:1011700080189843AB309843384BF318C0180BF0E5
:10118000E0FD009B1F0A230090331D78E0236D01D2
:101190002A009A4305D000222D4B110001201B6824
:1011A000984770202B4B29001A783943131D951C42
:1011B0000C22584303236A435430FF30D21898431B
:1011C0008018254A9843157838226A43D218801827
:1011D0009843AB309843224BF61880190BF0B1FDC1
:1011E000204B019A069363680A920793029B590069
:1011F00006AB1A76236908910993A37D06AA137595
:1012000000235375184A06A9127C08008A750F221C
:101210008B760B774B76CA75F3F722FC0123893462
:1012200023700FB0F0BD9621490057E7084B02002C
:1012300001001B6801209847F3E7C0468041005039
:1012400071020000D47E2500C3BF03008CBD0000E6
:1012500024BF0000D4BE0000D5BE000008400050EE
:101260000A400050E931071824CE0718F0B593B0B2
:101270000B9318AB1B788000079319AB1B78049174
:1012800005931AAB1B780A9206931BAB1B7870244C
:1012900001931CAB1B78090108931DAB1F78294BE8
:1012A0001B68C658330087331A7803235A430992C0
:1012B000254A02911278111D4C43911C0C224A437D
:1012C0005434FF34D2189C43A418204A9C4311780C
:1012D00038224A43D218A4189C43AB349C431C4B7D
:1012E000E418029BE41820000BF022FDC021090243
:1012F000014020000BF025FD0022079B934200D007
:101300000632059B1500002B00D0951D069B00950D
:10131000002B02D0AB1CDBB20093019B009C002B86
:1013200001D00334E4B2089B002B06D01234E4B29F
:10133000002F04D10134E4B20EE0002F0AD00134B2
:10134000E4B2F7E780BE0000D4BE0000D5BE0000C6
:1013500000400050002CEDD1209B1B881B19FE2B58
:101360000ADD019B002B07D1231C002C00D1012397
:101370000333DCB201230193059B002B08D030001E
:101380001E9B2C301988891889B206220BF0E6FCC6
:10139000069B002B08D030001E9B02221988763055
:1013A000491989B20BF0DAFC019B002B03D0009B9A
:1013B0000333DBB20093089B002B2CD0FEF7BCFA62
:1013C0000DAD12220021039028000DF011FEB36E26
:1013D00011226B80330088331B780CA99C4652186D
:1013E0000D210CA809180EAB604602F011FF1F205A
:1013F0002B7A039A0340520113432B721E9B122235
:101400001988009B2800C91889B20BF0A7FC009B23
:101410001233DBB20093002F17D033008D331D78C9
:10142000F4F768FD0A21F0F791FC0CAB2D181D7143
:101430001E9B01221988009B0DA8C91889B20BF0C8
:101440008DFC009B0133DBB200930022209B0392B2
:101450001B8893420CD0023A121BD1B2D2B2039134
:10146000934201D2DAB20392039A9B1A209A138014
:101470007020D14BB9031A780B9B03259F01089B61
:1014800039435F03069B3943DF02059B39435F0203
:10149000079B39431F02019B394321431B03194317
:1014A000131D5843931C0C225A435430FF305219D9
:1014B000A84380183822C14BA8431B7889B25A43ED
:1014C00052198018A843BE4BAB30A843C018029BEA
:1014D0000134C0180BF035FC039B099A1C19E3B2C8
:1014E0000693049B934200D049E1330093331F7865
:1014F000053B197806980CF08BFF96304743002483
:10150000019BA3421ED02D37AE4BFF379F4200D91F
:101510004FE1AD4D1E21AF4201D99621490038005F
:10152000F0F71CFC049A0999441CA3B28A4200D02B
:1015300037E132007A321380AF4200D834E1962787
:101540007F0067430021330032220D0091331B7866
:10155000049323020893019BDB0101939B4BBC3353
:101560001B889A424D413F23049AAD019A438A4217
:1015700004D0974B0A0001201B68984770208E4BBF
:1015800001991A78049B1D4323022B430B43951C9E
:1015900099B2131D0C22584303236A435430FF3081
:1015A000D21898438018854A9843157838226A43A0
:1015B000D21880189843AB309843864B240AC01841
:1015C000029BC0180BF0BDFB330090331D78E02365
:1015D0006D012A009A4305D000227D4B11000120A5
:1015E0001B6898471F2322009A4305D00022784B9E
:1015F000110001201B68984770222C430C25A1B2D2
:1016000003246D4B1B78181D504302336B43543039
:10161000FF301B19A043C018684B2C351B78A04322
:101620006B431B19C018A0436B4BAB30A043C018D1
:10163000029BC0180BF085FB70225F4B1E991B7834
:101640000988181D50430233643A53435430FF3025
:101650001B19A043C018594BA0431B785D432D199B
:1016600040190025A0435D4BAB30A043C018029B3E
:10167000C0180BF066FB1E9B009A1B889B181E9AD5
:101680001380059BAB4204D0330001218C331D78BD
:101690000D400020079B834204D0330001218B338F
:1016A00018780840069A0C2611020A9A032411435E
:1016B0007022ED01294338253F4B80011B780143FF
:1016C000181D5043023373435430FF301B19A0439D
:1016D000C0183A4BA0431B786B431B19C018A0439A
:1016E0003F4BAB30A043C018029BC0180BF029FB46
:1016F0007022314B1F991B780988181D5043023303
:1017000073435430FF301B19A043C0182B4BA04328
:101710001B786B431B19C018A043324BAB30A0435E
:10172000C018029BC0180BF00CFB70211F9B039884
:101730001B881B181F9803801F4B1A78131D4B43DF
:10174000023256435433FF33A34336199E191B4BC1
:10175000A6431B785D432D197519A543224BAB3564
:10176000A543EC18029BE41820000BF0E1FA4104B9
:10177000490C20000BF0E5FA380013B0F0BD33003F
:101780009033197806980CF043FE330087331B78AA
:1017900007005D43049B0135AB4200D0AFE63067E4
:1017A000ADE632007C32C6E61E2700236743019374
:1017B000C8E60194C6E6C046D4BE0000D5BE00000F
:1017C00006400050D47E2500C3BF03008CBD00003E
:1017D00024BF0000084000500A4000500C40005058
:1017E000024000500440005000400050F0B583001B
:1017F00097B01293C24B129A1B680B909F5803220A
:101800003B00743311931B7838240E9313401093CC
:101810003B0087331E7813007343DBB20F93B94B41
:1018200018787023011D4B430C21851C69435433E8
:10183000FF33891893435B18B349934309782D020A
:10184000614389185B18302141439343AB338918B6
:1018500093435B18AD4993435B184621414393433F
:1018600089185B18AD1893435B1927256E43934382
:101870009E190AAB5E8500260A3C9E85E4180F9BE4
:1018800026805D1CEBB20C93FFF796F83B0091337A
:1018900018701393173B1E805E80109BFE66B34248
:1018A00000D041E13B0082331B88B34233D1BE6E8E
:1018B000002E30D1119B15AA1B8807922A220125E0
:1018C0000AA9521806929A092A4005929A082A40B3
:1018D00001922A005B099A430092330007220F9974
:1018E0000B980894049603960296FFF7BFFCFB6ED4
:1018F00018183B009533F8661E703B000135923393
:101900001D707F4B129A1B689A58FB6EBE335B00AA
:10191000136117B0F0BD15AB07932A2300250126EC
:101920000AAA9B180F990722089406930B982B007C
:10193000059504950396029601950095FFF796FC90
:10194000FB6E0AAA18183B00F8667E331B880AA9AA
:1019500093853B0082331B8815AA23803B00743398
:101960001B8807922A22521806929A09324008943C
:101970000592BA6E0B98511E8A4104929A08324021
:10198000019232005B099A4300922B0007220C99C6
:1019900003950296FFF76AFCFB6E18183B00F86689
:1019A00091331C785A4BA4021C4205D0594B2A0093
:1019B000290030001B68984770250B9B5D43564BF0
:1019C000EE1830000BF0B4F98105890D2143300089
:1019D00089B20BF0B6F93B0090331C783023240118
:1019E00022009A4305D000224A4B110001201B68B7
:1019F00098474A4BEE1830000BF09AF9302301005B
:101A000099432143300089B20BF09BF970213D4B83
:101A100003261B781A1D51439A1C0C23534354313F
:101A2000FF319B19B143C918374BB1431A7838239A
:101A300053439B19C918B1430C9BAB311B01B143F4
:101A4000C918374B8908E81889B20BF07AF90125D3
:101A50006B1CDBB20E932E230AAA9B181A88002A4D
:101A600000D14AE73A0087321278089315AB079302
:101A70002A2372430E990B988A18D2B20D920AAAA1
:101A80009B180693012200230D9905930493039359
:101A90000292019300930632FFF7E8FB7024FB6E7D
:101AA0001818184BF8661B781A1D54439A1C0C23FF
:101AB00053435434FF340333B443E418124BB44358
:101AC0001A78382353430333E4180C9BB4431D01A5
:101AD000144BAB34B443ED182D1928000BF028F942
:101AE0000D9B19010919840B8908A40321432800BF
:101AF00089B20BF026F90D9B0E9D0C93A8E7C0460A
:101B000080BE0000D4BE0000D5BE00000309000066
:101B1000FF03FFFF24BF00008641005056410050E4
:101B2000944100500040005001250E9B2B400D9326
:101B30000E9B2B4200D1E0E015AB07932A230AAAA3
:101B40009B180F99072206930B98109B08940596F3
:101B500004960395029501960096FFF787FBFB6EAE
:101B60000AAA18183B00F8667E331B880AA99385D9
:101B70003B0082331B8815AA2380119B0B981B887E
:101B800007922A22521806929A099B082A402B4053
:101B9000059201930722109B0C99089404960396D2
:101BA00002950095FFF762FBFB6E18182388F86614
:101BB000002B05D0ED4B3200310028001B68984700
:101BC0003B0091331E78EA4BB6021E4205D000223C
:101BD000E64B110001201B68984770250B9B5D4365
:101BE000E44BEC1820000BF0A3F88105890D31437C
:101BF000200089B20BF0A5F8DF4B0C24EE18300062
:101C00000BF096F8302310219843014389B230003D
:101C10000BF097F8D94B1A780C9B111D1E017023FD
:101C200059430232544354316D3BFF31E418994318
:101C300009193824D24A994312785443E4180919EF
:101C40009943AB3199438919CE4B890889B2E81879
:101C50000BF077F83B0090331978032900D1013954
:101C600022200CF0D5FB3A00FB6E963018180323A7
:101C70007024F866873212785A430232D5B2BF4ACE
:101C80001278111D4C43911C0C224A435434FF34EA
:101C9000D2189C43A418BA4A9C43117838224A436C
:101CA000D218A4189C43AB349C43B74B3619F61892
:101CB00030000BF03DF829010919840B8908A403B1
:101CC0002143300089B20BF03CF82E230AAA9B185E
:101CD000089315AB07932A239B1806930122002330
:101CE0002900019200920B980593049303930293A9
:101CF0000732FFF7BBFA0225FFE502230E990E9A81
:101D000019401A4200D12AE115AB07932A230AAAE7
:101D10009B1806930D9B07220F990593049301933B
:101D200000930B98109B089403950295FFF79EFA79
:101D3000FB6E15AA1818119BF8661B8807922A22B9
:101D40000AA9521806929A092A4005929B080D9AF0
:101D50002B400492039201930722109B0C990B983D
:101D6000089402950095FFF781FAFB6E1818139BF3
:101D7000F8661E787E4BB6021E4205D07B4B0D9A4C
:101D8000280011001B68984770250B9B5D43794B19
:101D9000EC1820000AF0CCFF8105890D31432000AA
:101DA00089B20AF0CEFF744B0C24EE1830000AF012
:101DB000BFFF302310219843014389B230000AF05D
:101DC000C0FF6E4B1A780C9B111D1B010C937023E6
:101DD00059430232544354316D3BFF31E418994367
:101DE00009193824664A994312785443E4180919AA
:101DF0009943AB3199430C9BC918624B890889B24E
:101E0000E8180AF09EFF3B0090331978032900D1AF
:101E100001390C200CF0FCFAFB6E963018183B00D0
:101E2000F86687331E78073B1B880AAA93853B0018
:101E300084331B880321D385504B4E431A7870237B
:101E4000141D5C430232643B53435434FF345B182B
:101E50008C43E4184A4B8C431A78382353435B185D
:101E6000E4188C430C9BAB348C431D19464B023653
:101E7000ED1828000AF05CFFF6B231010919840B55
:101E80008908A4032143280089B20AF05AFF2E23AF
:101E90000AAA9B18089315AB07932A239B1806934D
:101EA000012200230292009231000B9805930493C3
:101EB000039301930632FFF7D9F902256B1CDBB2BD
:101EC0000C932E230AAA9B181A88002A00D114E525
:101ED0003A00032187321578089315AB07932A231C
:101EE0004D430C9A0B9855190AAA9B180693002388
:101EF000EDB2290007220593049303930293019303
:101F00000093FFF7B3F91D4B03211A787023141DBA
:101F10005C430232643B53435434FF345B188C43BC
:101F2000E418174B8C431A78382353435B18E41892
:101F30008C43154BAB3436018C43F6183619300000
:101F40000AF0F6FE29010919840B8908A40321432C
:101F5000300089B20AF0F5FE2E000C9DAEE7034B6F
:101F60000A0028001B689847C7E4C04624BF000049
:101F7000FF03FFFF8641005056410050D4BE0000D1
:101F8000D5BE00009441005000400050F0B585B02F
:101F900000935E4B03921B688200D75804003B00FD
:101FA0000326743302911A881023150074431D40D0
:101FB000E4B21A4200D16FE00025554B2401E3182A
:101FC0000193009BAB421BD07020524B1B781A1D13
:101FD00050439A1C0C2353435430FF309B19B04399
:101FE000C0184D4BB0431A78382353439B19C0187F
:101FF000B043019BAB30B043C0180AF099FE050016
:1020000070210C200326434B434F1A78131D4B437A
:10201000023242435433FF339219B3439B183A7848
:1020200038277A43B34392199B18B3433B4AAB33E7
:10203000A418B3431C1920000AF07AFE029BC0B218
:102040000633D9B20902014320000AF07AFE70215A
:102050000C22304B1B78181D484302335343543035
:10206000FF309B19B043C0182B4BB0431B7803992A
:102070005F43BF19C019B043019BAB30B043C018D8
:102080000AF05FFE009B002B04D0002D02D0280038
:10209000F3F768FC05B0F0BDFEF7A2FC3A0076321B
:1020A000138800051B0B1B03000D03431380009BCB
:1020B000002B1FD07020174B01341B78E4B21A1D7F
:1020C00050439A1C0C2353435430FF300333B04326
:1020D000C018114BB0431A78382353430333C01848
:1020E000B0430B4BAB302401E418B04300190AF0A5
:1020F0001FFE05003B00029A82331A80039A043BBC
:102100001A8087373878FFF771FBBBE780BE000085
:1021100004400050D4BE0000D5BE00000240005074
:10212000F0B589B00393894B07921B688200D5589C
:1021300003242B00069174331A8810231600604381
:10214000C1B21E4001911A4200D1C4E00B0001331C
:10215000DBB21B010293029A002694467C4B634437
:102160000593039BB3421BD070207A4B1B781A1D3A
:1021700050439A1C0C2353435430FF301B19A04387
:10218000C018754BA0431A78382353431B19C01845
:10219000A043059BAB30A043C0180AF0C9FD060060
:1021A0006E49029A8C466244049270220C210325E7
:1021B0003827684B1B781C1D544302334B4354345F
:1021C000FF345B19AC43E418634BAC431B787B438F
:1021D0005B19E418AC43049BAB34AC43E418200017
:1021E0000AF0A6FD0F2304219843014389B2200081
:1021F0000AF0A7FD70220C21564B1B781C1D54437E
:1022000002334B435434FF345B19AC43E418524B54
:10221000AC431B787B435B19E418AC43049BAB34A1
:10222000AC43E41820000AF083FD069BC0B20633DD
:10223000D9B209020143200070240AF082FD0C216A
:10224000444B1B78181D604302334B435430FF301E
:102250005B19A843C018404BA8431B7807997B43E0
:102260005B19C018A843059BAB30A843C0180AF0FF
:1022700068FD0C21374B1A78131D634302324A4321
:102280005433FF335219AB439B18334AAB43127894
:102290005743334A7F199446DF19AF43029BAB374C
:1022A000AF436344DC1920000AF042FD019B190191
:1022B000C919870B8908BF033943200089B20AF086
:1022C00040FD039B002B04D0002E02D03000F3F71A
:1022D00049FB09B0F0BDFEF783FB2A007632138874
:1022E00000051B0B1B03000D03431380039B002BF6
:1022F00020D07020174B1B781A1D50439A1C0C23BA
:1023000053435430FF300333A043C018124BA04353
:102310001A78382353430333C018019B0C4A023305
:10232000A043DBB2AB301B019B18A043C0180AF0DE
:10233000FFFC06002B00069A84331A80079A043BA0
:102340001A8087352878FFF751FABAE780BE000077
:1023500004400050D4BE0000D5BE00000240005032
:1023600000400050F0B58300A1B00B93304B0A92AF
:102370001B680B9A03909F580191002F01D100F028
:1023800014FF3B0034330C9361331B78002B3BD09C
:10239000BB6B8B4238D101210C983C00F2F790F8CE
:1023A0003A008634237889320133DBB22370127805
:1023B000022A2ED03A0078321288002A01D09A429E
:1023C00027D93B0087331B7804939B000993702324
:1023D000049A5343174A9A180E92174A9B180F9360
:1023E000002305930498FDF703FA0790002825D1F0
:1023F000059B002B01D100F086FC02000100039830
:10240000FEF7BEFB21B0F0BD01213800C5E7FDF7A6
:102410007BF90398FDF7ECF9021EF8D178373B8879
:10242000002B03D02178994200D343320121E6E703
:1024300080BE0000664100508C410050EE4A0326E9
:10244000C03210781C22424302927022EB4B1B7860
:10245000181D50430233643A53435430FF309B19E4
:10246000B043C018E64B2C321B78B04353439B1942
:10247000E44AC018029BB0439B18C0180AF058FCED
:102480003D23184200D0EFE2DF49029A8C466244B5
:1024900008927022D94B0F241B78181D5043023329
:1024A000643A53435430FF309B19B043C018D44BA7
:1024B0002C321B78B04353439B19C018089BB04380
:1024C000C0180AF035FC0440052C00D054E37022FB
:1024D000CA4B17AD1B78181D50430233643A53435F
:1024E0005430FF309B19B043C018C54B2C321B78B9
:1024F000B04353439B19C54AC018029BB0439B1875
:10250000C0180AF015FC2222010028000AF01EFC67
:102510006A8BBF4913000A3B9BB28B4200D9A3E2EE
:10252000E98ABC488B1F9BB2834200D99CE2FA2007
:102530002B8B4000834200D396E201339BB24B4386
:1025400092009A4200D88FE21EA80BF043FD0128AA
:1025500000D889E20C22A94B6B341B78A849181DBE
:102560006043023353435430FF309B19B043C018CB
:102570000B7838214B43B0439B190299C018A64BE6
:10258000B043CB18C0180AF0D3FB9C4905900C78D7
:10259000011E00D1A5E21A31062289B211A80AF063
:1025A000D5FB70230C22201D584302345443543071
:1025B0009249FF30A419B0430D7800190599B04332
:1025C000081A3821EFF7CAFB382170240C22C0B258
:1025D0004143281D6043023555435430FF30AD1947
:1025E000B04340198D4DB0434019401805910AF091
:1025F0009FFB01230C221840804B06901B78181D6E
:102600006043023353435430FF309B19B043C0182A
:10261000B043059B4019C0180AF08AFB830700D419
:1026200025E2764B200019780C230A1D5043023115
:102630004B435430FF309B19B043C018B043059B47
:102640004019C0180AF074FB030700D40FE217AC5E
:10265000200011A90BF0B1FC002800D007E20223F2
:10266000069A1A43179B06921393A28813AB9A807B
:102670000E980AF05DFB042301001940184200D1B6
:1026800051E20F980AF054FB0400830B05D000229E
:10269000634B110001201B689847584B0C20197898
:1026A00070230A1D53430322023148435433FF333E
:1026B000801893431B189343A400E01A3821EFF7C6
:1026C0004DFB4F4BC5B21B780400AB4205D800222E
:1026D000534B110001201B689847E0B23824444353
:1026E0007020464B19780C230A1D504303220231F7
:1026F0004B435430FF309B189043C018474B9043D6
:10270000C01800190AF014FB2023010019401842D8
:1027100004D1434B0A0001201B6898477020374BB7
:1027200019780C230A1D5043032202314B435430C5
:10273000FF309B189043C018384B9043C0180019C5
:102740000AF0F6FA802301001940184204D1344BF4
:102750000A0001201B6898477021284B18780C2329
:10276000021D51430322023043435431FF319B1871
:102770009143C91838235D4391433031491989B2D7
:10278000921815A80AF0E2FA069911A8F3F768F969
:10279000002305000593984200D065E10100FF2267
:1027A0003C3320480AF0BAFF04007020134B19781C
:1027B0000C230A1D5043032202314B435430FF3097
:1027C0009B189043C0180E4B9043197838234B4305
:1027D0009B18C0189043029B134A9B18C0180AF01C
:1027E000A7FA0600030B21D00D4B2A002900012077
:1027F0001B6898471AE0C0468CBD0000D4BE00009C
:10280000D5BE00000240005004400050144000506B
:10281000760C00007A0C0000104000500040005080
:1028200024BF0000070200000A40005070220C2163
:102830000325C54B36041B78181D504302334B4308
:102840005430FF305B19A843C018C04B383A1B788E
:10285000A84353435B19BE49C018029BA8435B18A9
:10286000C0180AF065FA330070220C2138260343A1
:102870000593B54B1B78181D504302334B4354301E
:10288000FF305B19A843C018B04BA8431B787343B3
:102890005B19B04EC018029BA8439B19C0180AF0E0
:1028A00047FA0600029870220100AB48A64B844606
:1028B000614402910C211B78B605181D5043023368
:1028C0004B435430FF305B19A843C0189F4B383A34
:1028D0001B78A84353435B19C018029BA843C01838
:1028E0000AF026FA9C23B60D9B00800B9E1B80B23B
:1028F0009A4B4000C35A5B00F61A994B35B2F61852
:10290000984BB6B29E4205D90022974B1100012088
:102910001B689847ABB20D93002D00DA08E1049BC9
:102920000125237000236370230035331D708F4B06
:10293000099A1B6807989B5874331B88DB061BD5C4
:102940007020814B19780C230A1D50430322023159
:102950004B435430FF309B189043C0187B4B90433F
:10296000197838234B439B18C018089B9043C01814
:102970000AF0DEF9401128402300363318707B4BF3
:10298000099A1B689B581A007832118800229142DC
:1029900001D086331A782300032638331A701AA917
:1029A0000422A01C0CF008FB17AD32001BA9A01DCF
:1029B0000CF002FBEB7C2100E376AB8A2931A38388
:1029C000EB8A2000E3832B8B093023846B8B638499
:1029D00023001E9A243362621EAA12791A711E23E2
:1029E00010AA9B181F22DB7F1A400A7022005B0985
:1029F0002A32137015A906220CF0DEFA20000622F6
:102A000013A90F300CF0D8FA200011A906221530B6
:102A10000CF0D2FA23007020069A37331A70059B07
:102A200023630D9BA385484B1B781A1D50439A1CAA
:102A30000C2353435430FF309B19B043C018434B11
:102A4000B0431A78382353439B19C018029BB043F4
:102A5000C0180AF06DF92300800B34331870200081
:102A60000AF080FE079B0593FCF74EFEBAE4702443
:102A70000C250326344B1B78181D604302336B432F
:102A80005430FF309B19B043C018394BB043C018C5
:102A9000059BC0180AF04CF983071CD52A4B1B78FC
:102AA000181D604302335D435430FF30B043AD190D
:102AB0002F4B4019B043C018059BC0180AF038F9D5
:102AC000802301001B011940184204D1264B0A0043
:102AD00001201B6898470622002113A80CF088FAF1
:102AE000C6E57023201D58430234643B5C435430D8
:102AF000164BFF300334B04300191C7838235C4375
:102B0000B0430334089B0019B043C0180AF010F911
:102B10004006C30F06932B681193AA8811AB9A80C5
:102B200005990622D9E7062215A80CF061FA2BE6D2
:102B3000104A059E94460D9B013E634436011DB22A
:102B400033090593E6E6C046D4BE0000D5BE0000BA
:102B5000084000500C4000500640005074BE000079
:102B6000E10400005107000024BF000080BE000007
:102B700000400050710200009A4B099A1B689B5854
:102B80008A331B78002B00D16EE7032C00D06BE753
:102B900070250C223821944B944E1B78181D6843E5
:102BA000023353435430FF300333A043C018904BDB
:102BB000A0431B784B430333C018029BA0439B19CF
:102BC000C0180AF0B5F817AE01000C2230000AF068
:102BD000BDF80C223821844B1B78181D6843023342
:102BE00053435430FF300333A043C018804BA043FD
:102BF0001B784B437F4903338C46C018029BA0438C
:102C00006344C0180AF094F8774B02901D780028AE
:102C10005AD006001A36B1B2062215A80AF096F864
:102C200070230C22281D5843023555435430FF3081
:102C3000A04303354019029DA0433821281AEFF71D
:102C40008DF8C5B2382070230C21674E4543367885
:102C5000301D584302364E435430FF30A0430336F4
:102C60008019654EA043801940190AF061F870225E
:102C70000C2106005C480378181D504302334B4377
:102C80005430FF30A0430333C0185B4BA043C0183F
:102C900040190AF04DF844100120044084400640D9
:102CA00034430823FF22002154480AF037FD050071
:102CB000049B44700370062215A902300CF07CF9C5
:102CC00028000AF04FFDCFE67023281D5843023537
:102CD000643B5D435430464BFF30A04303354019FD
:102CE0001D7838235D43A0430335089B4019A0435A
:102CF000C0180AF01DF8179B44061593B28815AB4F
:102D0000E40F9A80CDE7BA8C002A10D03B007433D0
:102D10001B88D90603D514210B40102B07D1398D00
:102D200001230398C9B2FFF731F90023BB84FA8C61
:102D3000002A12D03B00122174331B88194002294B
:102D400003D014210B40102B07D1798D0123039858
:102D5000C9B2FFF7E5F90023FB843B0074331A88FE
:102D600013231A421BD13B0094331B78002B16D03F
:102D7000BB6E002B0AD0FDF733FE3A007632138883
:102D800000051B0B1B03000D034313803B0087331F
:102D90001878FEF72BFD3B00002294331A703B009D
:102DA00074331B881A072FD5154B0A99DA7B002933
:102DB00016D0BB7DD318DBB2BB750F231340114A6D
:102DC00038001343BB82BB6DFB60019B7B60F1F756
:102DD00059FA002800D0DAE189373870FFF712FB82
:102DE0009B7BE9E780BE0000D4BE00001440005089
:102DF000D5BE00001040005000400050020200000C
:102E000024CE071800A0FFFFDB0600D5F4E03B004E
:102E100095331B78002B04D0BB6B019A934200D0F2
:102E2000EAE0E44B0B9A1B6870209B580293E24B3C
:102E3000029D1A78032387352C785C43E4B2210184
:102E40000491111D4843911C0C224A435430FF3019
:102E5000D21898438018D94A9843117838224A43A7
:102E6000D21880189843AB309843D54BC018049BB8
:102E7000C01809F05DFFC30400D4BDE02D78FDF754
:102E80009BFD029B0200913318703F2306009A437A
:102E900005D00022CB4B110001201B6898477024FD
:102EA000C54B0C2219780B1D5C43032302314A43A6
:102EB0005434FF34D2189C43A418C04A9C43117860
:102EC00038224A43D218A4189C43AB349C43BE4BCF
:102ED000E418049BE418200009F02AFF3F230100B6
:102EE00099433143200089B209F02BFF029B9133B3
:102EF0001C78B64BA4021C4205D00022B14B110035
:102F000001201B68984770235D43B14B0026ED18E4
:102F1000280009F00DFF8105890D2143280089B2A1
:102F200009F00FFF0325029A731C87321478DEB272
:102F30006C433419E4B22201049270229E4B1B7838
:102F40001C1D54439A1C0C23534338225434FF3421
:102F50000333AC43E418994BAC431B785A43033218
:102F6000A418AC439B4BAB34AC43E418049BE4186B
:102F7000200009F0DDFE4104490C200009F0E1FECB
:102F8000029B92331B78013B9E4235D0029B9133CA
:102F90001B7805933F23059A9A4305D00022894B5D
:102FA000110001201B689847834B1A787023141D69
:102FB0005C430232643B53435434FF34AC43033329
:102FC000E4187E4BAC431A78382353430333E41898
:102FD000AC437D4BAB34AC43E418049BE4182000B5
:102FE00009F0A6FE3F2301009943059B20001943E9
:102FF00089B209F0A6FE96E73D0095352A78764C11
:10300000002A00D183E0BB6B01998B427FD10A9BE0
:10301000002B6CD13B00227C34339A75019B3B66BC
:103020007B68019A93427CD10F22637B13406B4AE9
:103030001343BB827B6EBA6B5B00D31A1B011B0967
:10304000FB60674B1B6898471121EEF797FE2B78C2
:10305000490089B2002B04D000297FD0202900D15B
:1030600001397B6E019A5B009B185B181B011B09E1
:1030700038007B60F1F706F9002876D13B008933F0
:1030800018702B78002B01D1FFF7BCF9BB6B019AAC
:10309000934201D0FFF7B6F93B008F337A6E1B786D
:1030A0000F3053437A685B009B18627CB96D024015
:1030B00038001B011B0948304C1C51D0474C22439F
:1030C00002805A1A4748120139641209824200D814
:1030D0000B000C98BB63F1F7D5F8002801D1FFF77E
:1030E00091F900232B707B6C3B61FFF78BF93A6EF3
:1030F000019B9B1A7A6E1B011B09520093428DD3D0
:103100003A003432937D617C5B18937586E70A9BA5
:10311000002B11D1237BBB75019BFB65002A00D0DE
:103120007EE70F21637BBA6D0B40511C11D02B49F8
:10313000FA600B43BB8284E7F96D019B5B1A796EE1
:103140001B011B0949008B42E6D3BB7D617B5B18E9
:10315000E1E7C022D2011343BB8272E7012180E77D
:10316000C021C9010A430280B3E72978002906D0AB
:1031700001235B427B603B00002289331A70BB6DE8
:103180005A1C07D0FA68934201D0FFF73BF93C2262
:10319000FFF74CF9002901D0FFF734F90A00094B79
:1031A0001B6801209847FFF72DF9064B3A003900BC
:1031B0001B68F6E780BE0000D4BE0000D5BE00004C
:1031C0000640005024BF000008400050FF03FFFFEE
:1031D000864100500040005024CE071800A0FFFF99
:1031E000CCBF0000FEFFFF07F8B505000E00042A63
:1031F00000D98EE010000BF0B3FE0309088C0C0020
:103200000022C8B22900FFF7ADF8F8BD0122C8B20C
:10321000F8E7424ACBB212689B009C58002C73D04E
:10322000270089373B78013B012B05D900223C4B15
:10323000110001201B6898473B780022F0B2022B56
:1032400025D026009536337801212000002B29D087
:10325000A36B9D4226D13430F1F732F9236E626EB2
:10326000EB1A1B011B095200934205D32D4AA37D83
:10327000527C25669B18A3752000F1F703F80028FF
:1032800040D0A36D013306D03C2287342078012141
:10329000FDF776FCB9E700221100214B1B680120E5
:1032A0009847B2E7F1F70CF9230074331B881B072A
:1032B00014D51C4AA37DD27B9B18A3752000F0F780
:1032C000E1FF00281ED0317800299ED1A36D013383
:1032D00014D087343C2220780131D9E7E36DED1A10
:1032E000636E2D012D095B009D42E7D30D4AA37D3E
:1032F000527B9B18A3756368E365DFE7084B0A0000
:103300001B68CCE7387080E7054B220021001B6862
:10331000C5E7034B310003201B68C1E780BE0000F6
:1033200024BF000024CE071810B5041E57D0030098
:1033300089331B78002B05D000222B4B1100012074
:103340001B689847230074331B881B0718D5274A2E
:10335000A37DD27B9B18A3752000F0F793FF002874
:103360000DD0230095331978002908D1A36D0133BE
:103370002FD087343C2220780131FDF701FC10BDAD
:103380006168E36D626ECB1A1B011B095200934208
:10339000E2D3164AA37D527BE1659B18A375144BBB
:1033A0001B6898471121EEF7E9FC230095331B7841
:1033B000490089B2002B04D0002908D0202900D16F
:1033C00001396368C918090109096160C4E701216D
:1033D000F7E70A00044B1B6801209847CFE7024B30
:1033E000020001001B68F7E724BF000024CE071885
:1033F000CCBF000070B501280AD0022810D10D4BB7
:103400001C78013C64B2A5000B4B1B68002C08DA49
:10341000084B00211A78084B920018680BF0E8FD61
:1034200070BD5859002801D00AF0A0FA013C64B2DE
:10343000043DE9E7D4BE000080BE0000F8B50700F7
:10344000184B0C241B689847174BBA001B680500E3
:10345000D358002B0DD01E0089363478002C03D0B1
:10346000012C0CD0002404E0220001213800FDF7DB
:1034700087FB0E4B28001B6898472000F8BD702082
:1034800087331B7821005843094BC01809F059FCB9
:10349000A0228021D205136889040B431360022304
:1034A0003370DFE7C0BE000080BE0000C4BE000075
:1034B00080410050F8B50600124B0D001B68140047
:1034C0009847114BB2001B680700D158002912D051
:1034D0000B0089331B78002B0AD122002900300011
:1034E0000133FEF753FD094B38001B689847F8BDC0
:1034F0000D858C84F7E7064B0A0001201B6898476E
:10350000F1E7C046C0BE000080BE0000C4BE00009F
:1035100024BF0000F8B50600124B0D001B68140014
:103520009847114BB2001B680700D158002912D0F0
:103530000B0089331B78002B0AD1220029003000B0
:103540000133FEF7EDFD094B38001B689847F8BDC5
:103550004D85CC84F7E7064B0A0001201B6898478D
:10356000F1E7C046C0BE000080BE0000C4BE00003F
:1035700024BF000070B5174B06001B680C0098476D
:10358000154BB6001B680500F15800291CD00B0034
:1035900074331B881B0707D580224B6852019B1888
:1035A0001B011B098B6507E0002C0AD04B686401E6
:1035B000E418240124098C65084B28001B689847EF
:1035C00070BD01235B42EDE7054B0A0001201B683B
:1035D0009847F1E7C0BE000080BE0000C4BE0000F6
:1035E00024BF0000F0B5830089B0F14F0293029A26
:1035F0003B680C249D182E6803900191002E00D08A
:10360000E6E2310098200AF025F93B68029A28602A
:103610009F58002F01D100F099FDFCF75DF9982229
:103620003100069038000BF0E3FC0F22E14BE24C36
:103630003B62E24B3800BB61237B2C30BB75637B64
:103640001A40C023DB011343BB823B00039A87333C
:103650001A70019BDB687B660293019B1A8B3B000F
:1036600074331A80019B0733DA7F3B008A331A7068
:10367000019B06229D1D29000BF09EFC019B9A7F59
:103680003B008B331A70019BDA7F3B008C331A703E
:10369000019B0233DA7F3B008D331A70019B0433A8
:1036A000DA7F3B008F331A70019B0333DB7F022BE1
:1036B00004D9C34AC1321278002A01D1013BDBB2DE
:1036C0003A008E321370019B0533DB7F022B04D945
:1036D000BB4AC1321278002A01D1013BDBB23A0069
:1036E000903213700F22019BB6495B7F1A401B0971
:1036F0008A5CCB5CD3183A0093321370FDF770F9F3
:103700003A007632138800051B0B1B03000D0343A0
:103710001380EA7FAC4B1103194205D0F021AB4B6B
:1037200003201B68090298473A00019976321388F2
:103730000631C97F1B051B0D09030B431380019B39
:103740001A7F3B0078331A80FF221A74019B9A8AF1
:103750003B0082331A80019B1A8A3B007E331A8019
:10376000019BDA8A3B0084331A80019B5A8A3B0012
:1037700080331A803A004C3B029340331B888732D7
:103780001D00107810221540134200D023E23B00A8
:103790008F331B783E005A1E934195363370FEF7E7
:1037A00025F83378002B13D0894B029A7B65894B1F
:1037B0003D65FB64237C93750F223B69FD637B644D
:1037C000637C1A40C023DB0113433A004832138064
:1037D000702203993B0051430A0074331B88029105
:1037E0007D4954181A0701D400F012FC8022069B70
:1037F00052019918090109090220F1F78DFD0521EF
:10380000764B9B883B61200009F09BFA019B744931
:1038100028330493019A1B7809780832994201D819
:1038200000F052FC019A927F920701D400F0F8FB5D
:103830006C4A032511787022081D50430C26543021
:103840003824FF30A8430200881C704363434019AA
:103850001018654AA8439B18C01809F069FA830636
:1038600001D400F0DDFB702101205E4B1A78131D9E
:103870004B43023256435433FF33AB4376199E1900
:10388000049BAE431B785C43030036190400B60862
:10389000B6B2019A9B000132D17F019A0902083227
:1038A000D27F1201114301431943630019434F4A68
:1038B000029B89B2981809F044FA002C01D100F05B
:1038C00005FC3100029B4A4A981809F03AFA029B1B
:1038D000484A98183B0074331B881B0701D500F039
:1038E0000FFCF121090209F02CFA8D20029B424ABB
:1038F00038569C18414B7F2801D100F017FC00215D
:103900009B69984781B2200009F01BFA354B0C22C5
:1039100018787023011D4B43032102304243543376
:10392000FF3352188B439B182D4A8B431078382253
:10393000424352189B183A00873212788B43AB33BC
:103940008B435143C9B209012D4A5918029B89087A
