:020000041805DD
:10F88C0010B5024B01221B68984710BDA8BA0000A6
:10F89C0010B5024B00221B68984710BDA8BA000097
:10F8AC0010B5024B01221B68984710BDA8BA000086
:10F8BC0010B5024B00221B68984710BDA8BA000077
:10F8CC00F8B500262A4D04002E701EF01BFB294BA8
:10F8DC0030001A68284B92B219681DF09BFF274B19
:10F8EC0001201A68264B92B219681DF093FF254B24
:10F8FC0002201A68244B92B219681DF08BFF2878ED
:10F90C001FF092F8214930001FF0BEFA287800F061
:10F91C009FFA287803F0D8FA28781DF0E5FAB4425B
:10F92C0009D01B4B9C4202D01A4B9C4208D11A4B5B
:10F93C0020001B68984701232B701DF01BFAF8BDA3
:10F94C0001231022310015481DF0DAFE144B07007C
:10F95C009C4205D101230370380000F0B7F9EAE7A7
:10F96C00104B3200210003201B689847F4E7C04677
:10F97C0020BF0000C8BE0000A4BE0000CCBE00002A
:10F98C00A8BE0000D0BE0000ACBE000004CE07181C
:10F99C00A5A5A5A5C3C3C3C3D8BE00000311000011
:10F9AC00F2F2F2F224BF00001022F0B56E4B85B0DB
:10F9BC001C6814420BD001216C4B49421A606C4BF1
:10F9CC0019606C490B6893430B6002F01BFC2022FE
:10F9DC0014420BD00121654B49421A60644B5960AB
:10F9EC0064490B6893430B6002F03CFB01273C42DB
:10F9FC0037D05E4B5E4D1F606B8B3B4231D002A803
:10FA0C001DF038FA5B4E029B01933368BB433360A5
:10FA1C002B685A1C0BD0019A9A4208D10123102250
:10FA2C005B422B6033689343336002F0EBFB6B68F3
:10FA3C005A1C0BD0019A9A4208D1012320225B4216
:10FA4C006B6033689343336002F00CFBAB685A1C59
:10FA5C0004D0019A9A4201D11DF0F2F901201DF057
:10FA6C004FFB80252D022C4203D002F06FFD3F4B43
:10FA7C001D6002231C4247D03C4E082033603E4B95
:10FA8C001F681DF03DFB01201DF01AFA3B4B9F42F5
:10FA9C0005D900223A4B110001201B689847394BBD
:10FAAC001B78002B53D0384B38001B689847070045
:10FABC0038003649FFF7ECFE8023354A1B0603431A
:10FACC0013609C23314D9B004543ED1BED18ADB2EB
:10FADC00AB0A05D000222A4B110001201B68984765
:10FAEC0008212C4B2C4A1D6013680B431360214AD0
:10FAFC002A4913680B400121136013688B430B4395
:10FB0C00136031601FF01AFA40231C4203D0174ACD
:10FB1C0013601DF095F904252C420BD0134B1020CB
:10FB2C001D601DF0EDFA134A01201368AB431360FE
:10FB3C001EF078F90822144207D00C4B0D491A60BC
:10FB4C000B6893430B6002F005FB05B0F0BD3D253F
:10FB5C00074AF9001369FB186F435B18180ADBB2EC
:10FB6C0013613F18A4E7C0461C0000502000005051
:10FB7C0034BF000018000050380000507F841E0075
:10FB8C0024BF000030BF00002CBF00007102000039
:10FB9C00440000504000005030000050FFFFFF8F29
:10FBAC0070B580256D020B4A1368002B11D02B42C7
:10FBBC00FAD0094B094C1D60094B032019681A68CF
:10FBCC002368120C984700220120110023689847E3
:10FBDC00E9E770BD100000501400005024BF000075
:10FBEC006000005010B5034B5B8BDB0701D41EF09B
:10FBFC005DF910BD34BF0000012070470120704733
:10FC0C00F8B507000E001500034C20001EF048FC50
:10FC1C00A760E6602561F8BD5CBF0000F0B59C27CD
:10FC2C00002685B000900191BF00124D009B6A69BF
:10FC3C0001369C18019BAA6924019B182409BB421C
:10FC4C0004D90D4A0134240124099B1802A86C61C3
:10FC5C00AB611DF0D5FB029B01331C1B074B240130
:10FC6C0024099C42E1D96869A9691DF065FA300044
:10FC7C0005B0F0BD5CBF000090FDFFFFFEFFFF076D
:10FC8C0073B56C460E00050020001DF0B9FB044B4B
:10FC9C002800143306CC06C33100FFF7BFFF73BD39
:10FCAC005CBF0000083810B50100040006481EF0C7
:10FCBC005FFC002807D0A088FF22E1881DF05EFDC4
:10FCCC0020001DF04DFE10BD5CBF0000F8B5060015
:10FCDC000C3883881D4A934205D01D4A934223D089
:10FCEC0000F02AFB1FE0037A3F2B1FD85A1ED2B21A
:10FCFC001849D4080F5D07240125224017412A001A
:10FD0C00BA432F420BD03E2B09D13278013AD3B2F1
:10FD1C00DA0889180A7C23401A4195432A00002AE4
:10FD2C00DED01DF03AFDF8BD3E23DFE7582BD7D8C7
:10FD3C00403BDBB2074AD90852180721127A0B4014
:10FD4C001A41130001229A43E9E7C046031100004F
:10FD5C0004110000B0BA000070B50C4B04001A7806
:10FD6C00824204D80A4B01001B6803209847094DB6
:10FD7C002B681B5D002B05D00022054B11000120C8
:10FD8C001B68984701222B681A5570BDD4BE000021
:10FD9C0024BF0000ACBA000070B50C4B04001A78FC
:10FDAC00824204D80A4B01001B6803209847094D76
:10FDBC002B68195D002904D1054B0A0001201B6832
:10FDCC00984700222B681A5570BDC046D4BE00005F
:10FDDC0024BF0000ACBA0000030010B504292AD8D7
:10FDEC0008001FF0B7F80303091023000A000320D2
:10FDFC00144B1B68984717E008221900124880180A
:10FE0C001FF0D4F810E0104C1900200008221FF04D
:10FE1C00CDF8002320000D4C0278195D01330A4304
:10FE2C0002700130082BF7D1002010BD06480822C3
:10FE3C0019001030E4E70022024B110001201B686E
:10FE4C00D8E7C04624BF0000B0BA0000C0FE0518B9
:10FE5C0070B50223050004009D4315D1182229001A
:10FE6C000B481FF0BFF80B4B29001A780A4B186887
:10FE7C001FF0B8F803210948FFF7AEFF042108482A
:10FE8C00FFF7AAFF01F022FE200000F0D9FA70BDA6
:10FE9C00B0BA0000D4BE0000ACBA0000B0FE051829
:10FEAC00B8FE0518FFFFFFFFFF9F00201F0000009A
:10FEBC000000000000600400F8074002F0B5A44BFD
:10FECC0087B01C68002C09D101F042FE002800D13B
:10FEDC008BE09F4B9C68002C00D186E09C4B1C61F6
:10FEEC00A1889C4BC818052800D927E11FF046F8BB
:10FEFC00060058007F00D00026011101944B5B7D59
:10FF0C005BB2042B02DC924A013353750E26E31DBF
:10FF1C00039302AB2589F61863892800338001F01E
:10FF2C00E3F9021E1FD03388002B1CD08768002FEA
:10FF3C0017D0200092780C307F2A0DD801003200A7
:10FF4C0000971EF057F80100002910D02A00824BB0
:10FF5C001B68032098470AE001003200B847C1B281
:10FF6C00F2E70421F2E7002D15D0012323730E23B1
:10FF7C00E3713288764B0332D2B222725B7D191C4C
:10FF8C005BB2002B00DA0021A5722D0A6172E572BA
:10FF9C000420023222E0704B290032881B68D8E71B
:10FFAC006B4B5B7D5BB2042B02DC694A01335375EE
:10FFBC000F22E31D0393E2710B3A23892272227BF9
:10FFCC006272634A527D111C52B2002A00DA00217F
:10FFDC0004200622E3721B0AA172237300235C49DE
:10FFEC000B755E4B03991EF07BFF07B0F0BD230031
:04FFFC000E270A338F
:020000041806DC
:10000000039302AB2189FF186389CEB23B80FF299D
:1000100004D9544B002203201B689847300001F09C
:100020009BF9021E33D04568002D19D0200092782C
:100030003B880C30002A0ED100953A0001001DF0DB
:10004000DFFF0500002D0ED0464B320029000320B3
:100050001B68984708E03A000100A847C5B2F1E7DD
:100060006389002B11D1002562893B889A4205D211
:100070003C4B3200290003201B6898470E2302AA3C
:10008000A6729B181B88E37206E00425DCE7354B5B
:10009000310003201B689847E27A7FE723000A3388
:1000A0000393267B638902AAD381300001F066F9AD
:1000B000021EECD04568002D2FD02000927802ABB4
:1000C000DB890C30002A21D102A90E32009552188A
:1000D00001001DF095FF0500002D05D0214B3200D9
:1000E000290003201B6898470E2702ABFF183988A8
:1000F00063898B4204D21B4B320003201B68984754
:10010000002DC9D13E23A3723B88BCE70E2202A971
:1001100052180100A847C5B2DEE70425DEE72169D1
:1001200012480B1F0918A289039111495A54114909
:10013000120A5A54E2891049100A5A540F490432DB
:10014000585492B202204FE7064B002203201B684E
:10015000984700200200039046E7C046CCBA000052
:10016000FFEEFFFF24BF000081010618FC3F005096
:100170000040005001400050024000500340005039
:100180002E4B70B52E4C1B68256998472D4BAA88BD
:1001900006009A4212D12B7B022B04D002221900B6
:1001A00091430D2924D1217E002905D1264B0A0037
:1001B00001201B68984701E001392176012323754E
:1001C000A988224B99421BD8053B99422FD9236914
:1001D000002B03D020001EF0C7F9050028001DF0F9
:1001E000E2FA1B4B30001B689847FFF76DFE70BDAD
:1001F000152BE3D1E17D0029D8D00139E175DDE788
:10020000144B994213D1200008301EF0ADF9124B67
:100210001A78AB891B051B0D9A4203DD2B6998B236
:1002200002F0FAFF0023236101F082FCCFE7064BC6
:10023000002203201B689847C9E7C046C0BE0000E3
:10024000CCBA00000411000024BF0000051100001A
:10025000C4BE000006110000D4BE0000F0B587B097
:1002600006000D001700039300285AD08468002C64
:100270004FD083787F2B29D80E2202A95218002153
:1002800000940800294B1DF0BBFF0400002C38D15E
:10029000B36802221800264902931EF07FFE0E2347
:1002A00002AA9B181E88002819D12A0021003300B9
:1002B00020481DF02BFA0222040007700230039937
:1002C0001EF07AFE2000FFF707FD20E000230E223B
:1002D00002A9521818001900A047C4B2D6E7032299
:1002E000154902981EF05AFE33002A00210000280A
:1002F0001AD110481DF00AFA0622040007700130D6
:10030000DDE70E4B2A00210003201B68984707B049
:10031000F0BD0A000123210009481DF0F7F907701C
:10032000D1E70A00012301000248F6E7FFFF0000C1
:10033000B6A5061801110000F913061824BF000025
:10034000021100003B4B70B505001B689847AB8855
:10035000394A0600394C934205D120002900083063
:100360001EF0BAF836E0364A934207D12B7B0F2BAA
:100370003AD006D8022B27D00D2B0AD02900200016
:10038000EEE7152BFAD1E37D032B20D80133E3757B
:10039000F4E7EB89E97D5B069B0F01290DD1627EB5
:1003A000022A39D0002A02D1227E032A34D8013B06
:1003B0005A425341DAB2002331E0A27EF0E7012332
:1003C00000222CE0A2762DE0237E032B1DD92800ED
:1003D0001DF0E9F91B4B30001B689847237D012B6A
:1003E00001D1FFF771FD70BD174AA97B1068EB7C46
:1003F0004218415C022918D0002902D1217E03292C
:1004000013D8013B59424B411370237E01332376AD
:10041000B4E700231370DAE7012BD0D102220129BF
:10042000D0D16276002BF0D0D1E7012BF1D102239D
:10043000F0E7C046C0BE000006110000CCBA0000C4
:1004400004110000C4BE0000C8BA000070B5051E4B
:100450000C4C14D101001C2220001EF0C9FD0A4BD7
:1004600029001A78094B18681EF0C2FD20001EF002
:100470001DF8200008301EF019F80123237505230C
:10048000637570BDCCBA0000D4BE0000C8BA0000CD
:1004900010B500F02FFFFF23002800D0C378D8B29A
:1004A00010BD0000F0B589B005000391029200F084
:1004B00021FF5C4C0700637D7F2B05D900225A4B3E
:1004C000110001201B689847584B9D4202D0637D64
:1004D000013B6375002F00D1A1E0637D7F2B00D924
:1004E0006CE00F21BB7804931940082945D8080017
:1004F0001EF036FD05260526434343434A000026E9
:100500000E2204ABD21800239C461380039B634544
:1005100041D07C68644554D040216B4604989B8947
:10052000084005900498084230D10094029905983B
:100530001DF066FE0400012C2ED10023122217E0CC
:10054000039B012B12D9029B1A785B781B02134381
:10055000374A12789A4209DD364A1268D25C002A7C
:1005600004D001221B0213439EB2C9E70222029B60
:1005700029003800FFF772FE04E02B4B2A0003200D
:100580001B68984709B0F0BD0226B9E7604602999A
:10059000A047C4B2CFE7039C04AB31002A00DB893B
:1005A00025481DF0B3F80600002C05D01E4B2A008C
:1005B000210003201B689847002E04D10023072246
:1005C000D6E70424E8E704ABDB89002B12D07B6874
:1005D0009C46002B0ED06B46BA789B89520615D4E8
:1005E000624600920E2204A95218300002991DF0B2
:1005F00007FE0400002C05D00B4B2A00210003202D
:100600001B68984730001DF0A5F8BBE70E2204A92F
:100610006446521830000299A047C4B2EAE73B0092
:100620000122A5E7CCBA000024BF0000350C000071
:10063000D4BE0000ACBA00000511000070B5134A2A
:100640000C00117802050300120D002091420BDD11
:100650009B0B834208D11800FB2C05D802F022FE28
:10066000011E02D00A4BC01870BD01231A2209488E
:100670001DF04CF801250570FFF72EFB2900200026
:100680001DF0E8F8044B9D75EEE7C046D4BE0000AF
:100690000040005003110000CCBA0000F8B5174B21
:1006A00006009C7D0D001700002C06D010001DF0E8
:1006B0005DF90023114A9375F8BD114B01051B78B4
:1006C000090D8B4212DD01230902194322000D4856
:1006D00089B207331DF01AF806804580002D01D03D
:1006E000094BFC1844601DF035F8E5E7074B0200A4
:1006F000290003201B689847DEE7C046CCBA0000FB
:10070000D4BE00000611000000C0FFAF24BF0000EF
:10071000F8B50D0006A90E780168070088190124B4
:10072000824211D31C1E09D02A6828689419A3425A
:10073000A4413200644264001EF03EFC3B689B19F9
:100740003B602B689E192E602000F8BDF0B589B083
:100750000500029103920691002940D0CE18012392
:1007600017880790C719009332003B0007A906A815
:10077000FFF7CEFF0400031E26D0079B5D1B039BE3
:100780001D80200009B0F0BD013305935B00049388
:10079000EB18079302233200009307A93B0006A839
:1007A000FFF7B6FF002818D1049A07A90232AB1848
:1007B000079302233200009306A83B00FFF7A8FF2F
:1007C00000280AD16B461B7D0299079A0978521BB3
:1007D0009942D2D9062AD7D9CFE70400CDE706231C
:1007E000039A029C1380CCE7F0B599B01D000290EB
:1007F0003A23081E0592079160D0029B002B61D01E
:1008000001271488029B1C190126029B4519089395
:100810002A002300009608A907A8FFF779FF0028FF
:1008200049D1029B2A009B1908930096230008A92E
:1008300007A8FFF76DFF00283DD1029B2A00023375
:1008400008930096230008A907A8FFF761FF002876
:1008500031D1029B2A0003330893062308A9009391
:1008600007A82300FFF754FF002824D1029B2A0089
:10087000093308930096230008A907A8FFF748FF4B
:10088000002818D1029B597A0390002921D1039B9B
:10089000032B04D9434B0A0001201B6898477F4271
:1008A00000233C400227029E04931836039B049ABF
:1008B000934216DC0020089B029A9B1A059A13802B
:1008C00019B0F0BD4E2404ABE41809AB029F0293AB
:1008D0009AE7314203D0039B0133DBB2039349080B
:1008E000D3E733000E3B08932A002300009708A9A2
:1008F00007A8FFF70DFF0028DDD133000C3B08935C
:100900002A002300009708A907A8FFF701FF002885
:10091000D1D133000A3B08932A002300009708A98D
:1009200007A8FFF7F5FE0028C5D13300083B089360
:100930002A002300009708A907A8FFF7E9FE00286E
:10094000B9D1B31F08932A002300009708A907A86C
:10095000FFF7DEFE0028AED1331F08932A002300E4
:10096000009708A907A8FFF7D3FE0028A3D1B31E5C
:1009700008932A002300009708A907A8FFF7C8FEDC
:10098000002898D123002A00009708A907A80896F4
:10099000FFF7BEFE1036002800D08CE7049B013321
:1009A000049383E724BF0000F0B58DB007001D005D
:1009B0000800102305920691002941D0002F43D052
:1009C0000123148804933C190126451923002A00A9
:1009D000009607A906A80797FFF79AFE00282DD1D1
:1009E000BB1907932A002300009607A906A8FFF762
:1009F0008FFE002822D1BB1C07932A0023000096FB
:100A000007A906A8FFF784FE002817D1B97803903C
:100A100000291DD1039B022B04D9254B0A0001207C
:100A20001B689847049B5E4234403E000023083612
:100A30000493049A039B934212DC0020079BDB1B68
:100A4000059A13800DB0F0BD04970CAC08AFBBE75E
:100A5000314203D0039B0133DBB203934908D7E74C
:100A6000331F079301232A00009307A9230006A838
:100A7000FFF74EFE0028E1D1B31E079302232A00A0
:100A8000009307A9230006A8FFF742FE0028D5D14E
:100A900002232A00009307A9230006A80796FFF760
:100AA00037FE06360028C9D1049B0133C0E7C04693
:100AB00024BF0000F0B58BB007000C1E0492069115
:100AC00066D0002832D015880122451905920126EA
:100AD000E3180393039A2B00009607A906A807972B
:100AE000FFF716FE041E1AD1BB190793039A2B00B9
:100AF000009607A906A8FFF70BFE041E0FD17B780E
:100B00003F2B05D9244B020001001B683000984799
:100B1000059B5E42354000267B78B3420AD8079B8E
:100B2000D81B049B188020000BB0F0BD05900AADC7
:100B300008AFCCE7B31C0593FB1807930123039A76
:100B4000009307A92B0006A8FFF7E2FD00281DD19E
:100B5000B21C53000222FB18079300922B00039A49
:100B600007A906A8FFF7D4FD00280FD1B31DFB1875
:100B700007930123039A009307A92B0006A8FFF708
:100B8000C7FD002802D10136F6B2C5E70400C6E76A
:100B90000823049A1380C6E724BF0000F0B5B7B05D
:100BA00007001D000492002900D1C7E0002800D1F1
:100BB0009FE01688861901234D1900932A003300FF
:100BC00008A907A808970797FFF7A2FD041E00D001
:100BD00088E0BB1C079302232A00009308A9330076
:100BE00007A8FFF795FD041E00D07BE03B1D07938F
:100BF00001232A00009308A9330007A8FFF788FD06
:100C0000041E6FD17B1D079301232A00009308A9BE
:100C1000330007A8FFF77CFD041E63D1BB1D0793BB
:100C200002232A00009308A9330007A8FFF770FDEC
:100C3000041E57D13B000833079301232A00009379
:100C400008A9330007A8FFF763FD041E4AD13B0043
:100C50000933079301232A00009308A9330007A84A
:100C6000FFF756FD041E3DD13B000A3307930123D5
:100C70002A00009308A9330007A8FFF749FD041EC6
:100C800030D13B000B33079301232A00009308A9BE
:100C9000330007A8FFF73CFD041E23D13B000C33B3
:100CA000079302232A00009308A9330007A8FFF73F
:100CB0002FFD041E16D1BB7B2A0005933B000E338B
:100CC0000793012308A9009307A83300FFF720FD2D
:100CD000041E07D13B00103302930390059B039A37
:100CE000934209DC089BD81B049B1880200037B076
:100CF000F0BD36AE09AF5EE7029B2A00013B0793C9
:100D0000012308A9009307A83300FFF701FD00287D
:100D100012D10123029A0093079233002A0008A9F6
:100D200007A8FFF7F5FC029B02330293002803D1CA
:100D3000039B01330393D1E70400D3E7049B0C002A
:100D40001980D3E7F0B5B7B007001D000492002961
:100D500000D1BAE0002800D193E01688861901235B
:100D60004D1900932A00330008A907A80897079790
:100D7000FFF7CEFC041E00D07CE0BB1C07930223CF
:100D80002A00009308A9330007A8FFF7C1FC041E3E
:100D900070D13B1D079301232A00009308A933005B
:100DA00007A8FFF7B5FC041E64D1BB1D07930223FF
:100DB0002A00009308A9330007A8FFF7A9FC041E26
:100DC00058D13B000833079301232A00009308A958
:100DD000330007A8FFF79CFC041E4BD13B000933EE
:100DE000079301232A00009308A9330007A8FFF7FF
:100DF0008FFC041E3ED13B000A33079301232A00D7
:100E0000009308A9330007A8FFF782FC041E31D124
:100E10003B000B33079301232A00009308A93300FA
:100E200007A8FFF775FC041E24D13B000C33079381
:100E300002232A00009308A9330007A8FFF768FCE3
:100E4000041E17D1BB7B2A0005933B000E3307938A
:100E5000012308A9009307A83300FFF759FC041EDB
:100E600008D13B001033029300230393039A059BA0
:100E7000934209DC089BD81B049B1880200037B0E4
:100E8000F0BD36AE09AF6AE7029B2A00013B07932B
:100E9000012308A9009307A83300FFF739FC0028B5
:100EA00011D10123029A0093079233002A0008A966
:100EB00007A8FFF72DFC029B02330293002802D102
:100EC000039B0133D1E70400D4E7049B0C00198095
:100ED000D4E7F0B5C9B00C001D00039005920029BD
:100EE00000D1E0E000282CD016888619039B6519F4
:100EF0000793069301232A00009307A9330006A84D
:100F0000FFF706FC041E14D1039B2A00013306934D
:100F1000012307A9009306A83300FFF7F9FB041E7D
:100F200007D1039F04901937039B049A5B7893427F
:100F30000BDC079B039A981A059B1880200049B088
:100F4000F0BD08AB48AE0393D0E73B00173B0693D8
:100F500002232A00009307A9330006A8FFF7D8FB55
:100F6000002800D09DE03B00153B069301232A009A
:100F7000009307A9330006A8FFF7CAFB002800D09A
:100F80008FE03A000623143A069200932A003300B9
:100F900007A906A8FFF7BCFB002800D081E03A00B3
:100FA00001230E3A069200932A00330007A906A8EF
:100FB000FFF7AEFB002874D13A0001230D3A0692E8
:100FC00000932A00330007A906A8FFF7A1FB002819
:100FD00067D13A0001230C3A069200932A003300AD
:100FE00007A906A8FFF794FB00285AD13A0001236D
:100FF0000B3A069200932A00330007A906A8FFF7D0
:1010000087FB00284DD13A0001230A3A069200934B
:101010002A00330007A906A8FFF77AFB002840D171
:101020003A00093A069202223300009207A92A00E8
:1010300006A8FFF76DFB002833D1FB1F06930123A1
:101040002A00009307A9330006A8FFF761FB0028D8
:1010500027D1BB1F069306232A00009307A933005C
:1010600006A8FFF755FB00281BD101232A00009397
:1010700007A9330006A80697FFF74AFB002810D1FE
:101080003B787A1C069200932A00330007A906A831
:10109000FFF73EFBFE37002803D1049B0133049386
:1010A00042E7040045E7059B198047E7F0B58FB09C
:1010B00006000C001D000592002900D186E00028E2
:1010C00029D01788C7190123651900932A003B000E
:1010D00008A907A808960796FFF71AFB041E13D164
:1010E000731C079301232A00009308A93B0007A85B
:1010F000FFF70EFB041E07D1330011330393049056
:101100007378049A93420BDC089B9E1B059B1E8000
:1011100020000FB0F0BD262704ABFF1809AED2E7C0
:10112000039B2A000F3B0793012308A9009307A8FC
:101130003B00FFF7EDFA002846D10123039A009304
:101140000E3A07923B002A0008A907A8FFF7E0FA29
:10115000002839D1039A3B000D3A0792062208A9CC
:10116000009207A82A00FFF7D3FA00282CD1039990
:101170002A00CB1F0793012308A9009307A83B006F
:10118000FFF7C6FA00281FD10622039900928B1F91
:1011900007932A003B0008A907A8FFF7B9FA00281F
:1011A00012D10123039A009307923B002A0008A959
:1011B00007A8FFF7ADFA039B10330393002803D170
:1011C000049B013304939BE704009DE7059B198072
:1011D0009EE7F0B595B00C001D0003900592002924
:1011E00000D184E000282CD016888619039B65194D
:1011F0000893079301232A00009308A9330007A846
:10120000FFF786FA041E14D1039B2A0001330793CB
:10121000012308A9009307A83300FFF779FA041EF9
:1012200007D1039F04900A37039B049A5B7893428B
:101230000DDC089B039A981A059B1880200015B0B6
:10124000F0BD3F2604ABF61809AB0393CEE73B0095
:10125000083B079301232A00009308A9330007A83D
:10126000FFF756FA002840D1FB1F079301232A00FD
:10127000009308A9330007A8FFF74AFA002834D1E1
:101280000622BB1F0793009233002A0008A907A873
:10129000FFF73EFA002828D101232A00009308A96D
:1012A000330007A80797FFF733FA00281DD13B78D2
:1012B0007A1C079200932A00330008A907A8FFF7B9
:1012C00027FA002811D13A00012320320792009317
:1012D0002A00330008A907A8FFF71AFA29370028BF
:1012E00003D1049B013304939EE70400A1E7059B0F
:1012F0001980A3E78205920D830A012B19D0032BD5
:1013000019D0042B19D0052B19D0082B19D0002087
:101310003F2B0DD13A3B0F49DB00CB185868598859
:10132000002805D00C234B43C31898420BD1002052
:1013300070470023EFE70123EDE70223EBE70323E8
:10134000E9E70423E7E701888905890D9142EFD099
:101350000C30EAE79C140618002310B5020006487A
:10136000D9000C5C944201D1401810BD0133092B07
:10137000F6D10020F9E7C046D01906180200002374
:1013800010B50549DC0060180C5D944203D00133B0
:10139000182BF7D1002010BD181A061842424842F7
:1013A0004236424848484200424248484848004283
:1013B000424838420042483842480042424842428D
:1013C000364236423642484848420042423634426B
:1013D00000424233324200424248424200424248C6
:1013E00042423642424842004248424242426E42F3
:1013F0000042424248420042424236420042424893
:1014000048484242364242484200424848484C001E
:1014100042483342334242424236424242424242D0
:10142000424200423842004848424242364242422A
:10143000004233314200424848424200484842425A
:1014400036424248484848484800424835420048E9
:101450003842483136420042364231364231364215
:1014600000484242424800424848480042424848F8
:10147000004242423642484842004236424200421E
:1014800042424242426E420048424848420036349C
:101490004242004242484248480000000100020027
:1014A0007019061803000900CC1406180400040083
:1014B000381506180500010088190618080056009E
:1014C000681506183F00050094190618010C00085D
:1014D0002414061834140618030C00000000000041
:1014E000341406182D0C1103E5130618E41306181E
:1014F000310C00013414061834140618330C00079C
:101500009514061834140618350C401E4D0706189D
:10151000341406187B0C1102B7A506186D140618B2
:101520007C0C11046E140618B6A50618630C00088E
:1015300024140618341406180110000000000000DE
:10154000931406180210000000000000CC130618C7
:10155000031000000000000023140618091000000A
:1015600000000000F91306183920422AB50A0618AF
:101570003414061836200219101406189014061890
:10158000372002FF821406183414061801200208BE
:10159000241406183414061802200200000000006B
:1015A000E4130618032002000000000023140618AC
:1015B000052002065E1406183414061807200200DF
:1015C00000000000901406180620020F27140618C9
:1015D0003414061808200220311406183414061892
:1015E0000920022031140618341406180A200201BA
:1015F00034140618341406180B2002073614061883
:10160000341406180C20020290140618341406181C
:101610000D2002193C140618000000000E200200E4
:1016200000000000341406180F2002000000000023
:101630009014061810200200000000003414061850
:1016400011200207F9130618341406181220020795
:10165000F9130618341406181320130ECEA5061815
:1016600000000000142002054C140618341406185B
:1016700015201302B7A506184A14061816201302DF
:10168000B7A5061800000000172002205A140618FB
:101690005C1406181820020000000000231406182D
:1016A0001920131C4F140618000000001A201312F2
:1016B00052140618B6A506181B201302B7A5061863
:1016C000B6A506181C20020000000000231406180E
:1016D0001D20020134140618341406181E200203BB
:1016E0002D140618341406181F20020000000000F4
:1016F000B6A506182020130ECEA50618B6A5061806
:1017000021201303E5130618B6A506182220130698
:1017100068140618B6A50618232002000000000071
:101720006D140618242002046E14061834140618CA
:1017300025200200000000000000000026200240DA
:10174000CD130618000000002720022757140618A2
:101750003414061828200207F91306183414061842
:101760002920020000000000341406182A2002007C
:1017700000000000901406182B200207F913061829
:10178000F91306182C200207F9130618F913061886
:101790002D20020134140618341406182E200202DB
:1017A000B7A50618341406182F2002000000000008
:1017B000A913061830201302B7A50618D813061867
:1017C000312002032D140618341406183220130792
:1017D0006114061800000000332002032D140618BF
:1017E00034140618342002041E1406183414061883
:1017F00035200207F913061834140618382002FFA2
:1018000082140618341406183A2002000000000062
:10181000B6A506183B200200000000009014061830
:101820003C20020134140618341406183D2002002E
:1018300000000000341406183E2002076714061842
:10184000341406183F2002FF8314061834140618B7
:101850004020020290140618341406184120420D4C
:10186000A909061834140618422002066C1406183A
:10187000341406184320423AE90706180000000015
:101880004420020E711406180000000045200200DA
:10189000000000003414061846200202B7A50618FE
:1018A00034140618472002087A140618341406184F
:1018B000482002087A140618341406184920020039
:1018C00000000000341406184A2002000000000046
:1018D000901406184B200200000000002D1406187A
:1018E0004C200200000000006D1406184D20020478
:1018F0006E140618341406184E2002087A140618BE
:10190000341406184F2002527F1406183414061897
:10191000502002527F14061834140618592002036E
:10192000E5130618341406185A201306681406180E
:10193000B6A506185B20130576140618B6A506187A
:101940005C20030888140618B6A506185D20020658
:1019500075140618341406185E2002418E140618F9
:10196000000000005F200201341406183414061829
:1019700006041103E5130618000000001D041102FF
:10198000B7A506180000000005141102B7A5061837
:10199000E413061811FC0801341406183414061850
:1019A00012FC0800000000000A14061813FC1304BF
:1019B0006E140618B6A5061814FC1305761406183E
:1019C000B6A5061815FC130668140618B6A5061861
:1019D00005010000E413061808010000E4130618CE
:1019E0000C010000941406181000000034140618AE
:1019F00011010000B7A50618130200006D140618A7
:101A00001A0000003414061830010000B6A50618AC
:101A100057010000B7A50618010000009C13061826
:101A200002000100D311061803010000A8130618D4
:101A300004010000AF13061805010000B5130618D5
:101A400006010000ADA5061807010000ADA50618A7
:101A50000A000000BB13061808000000CB1306188C
:101A600009000000D11306180B000100AD10061884
:101A70000C010000D71306180D000100D30E061844
:101A80000E000000DD1306180F000000E813061812
:101A900010000000B6A50618110000003414061846
:101AA00012000000F113061813000000F7130618C7
:101AB00014010000E413061815000100450D061876
:101AC000160101009D0B061817010000631406188B
:101AD00018000000FD13061810B508220021024866
:101AE0001DF086FA10BDC046E8BA00001123FA289E
:101AF00002D9024B5980002318007047E8BA000051
:101B0000084B094A1B681278D2189A4203D1074B36
:101B10001870002005E00133591E09780029F4D01F
:101B20000C207047ACBA0000D4BE0000E8BA000038
:101B3000034B1A78002A02D0DA880132DA80704723
:101B4000E8BA0000044A0021D388834201D91B1A55
:101B500099B2D1807047C046E8BA0000064A1378AF
:101B6000002B07D05388D2880020934201D99B1ABA
:101B700098B270470148FCE7E8BA0000FFFF000098
:101B8000F7B50F004A688021436806008068D51ABF
:101B90000090B8682D012D09090501908D4227D9C3
:101BA0009B1A1B011B095D42002B03D1019B009A6C
:101BB00093421FD8019B3F690524D819009BC01A86
:101BC000002834DD1B490138FDF760FEE8422ED4C1
:101BD000009B3069013C1818019BC01AC01B0028EB
:101BE00025DC1549FDF752FE4519EC0F03341EE0C4
:101BF000002DDBD00024009B36699E19019BF61A4C
:101C0000A64214DD0C49701EFDF740FE4019A042AB
:101C10000DDC38690134301A002808DD0649013826
:101C2000FDF734FE45196C1E2C43E40F01342000EF
:101C3000FEBDC046710200008FFDFFFF37B568464C
:101C40001BF01EF9019B9C2019009131FF31009A75
:101C50008000814204D9E13B1900013212011209CE
:101C60000F4B1B68002B12D00E485C6800780E4D9D
:101C7000201A000100099C68831A1B011B09AB4252
:101C80000BD8904201D1A14204D2210002E00120F0
:101C9000190040421BF0CAFA37BD1000FAE7C046EF
:101CA000F0BA0000E8BE0000FEFFFF07394BF0B5B8
:101CB000DD68002385B003900093002D07D1354BDC
:101CC000DB68002B01D01BF05BFB05B0F0BDA98ADF
:101CD0002B6802938B0B5AD03F233F200A111340ED
:101CE000024254D00024AA7D303808401218AA7548
:101CF000294A013B1B0111400B439BB2AB82039E5F
:101D00009B0B0193002E0DD1224E2A00300000992A
:101D10000C301CF06BFC2A00210030001CF0BEFCD3
:101D2000009D34E031002800FFF72AFF0028EBD0A7
:101D3000052802D134003668E4E7B36832691749F0
:101D40009F183800FDF7AAFD73681449C4183800BD
:101D5000FDF7B4FDAB688B42894149426418240108
:101D6000019B24096C60012BE4D98023E8681B05E2
:101D7000071B3F013F099F4203D9271A3F013F0933
:101D80007F4206492869FDF789FDB842D2DD0095FA
:101D9000029D92E7F0BA00000FFCFFFF7102000005
:101DA000013810B5012809D8054C20001CF07EFB35
:101DB00020000C301CF07AFB0023A36010BDC0464D
:101DC000F0BA0000F0B5854B01690400CA18844BD5
:101DD00087B09A4204D9834B002203201B6898479E
:101DE0009C23A2689B009A4205D900227D4B1100DA
:101DF00001201B6898477C4B1B689847039004A8F8
:101E00001BF03EF8794B049A1B7805999B18FA222F
:101E100092001B018918793A1B09FF3A914216D8A2
:101E20006568734EEA1A1201A08A1209B24204D8F8
:101E30009D421AD1A2688A4217D2820B0DD1012588
:101E40006C4B03981B689847280007B0F0BD6348A7
:101E500001331B0109181B09E0E7A26863608A428D
:101E600003D201331B011B096360800B012812D9C7
:101E70008020E16863680005CA1A120115098542CD
:101E800003D95B1A1B011B095D425B492069FDF701
:101E900005FDA842D3DC594B9D68002D00D11D687B
:101EA0000026019600960296002D6FD0A54205D11E
:101EB00000224C4B110001201B689847290020008C
:101EC000FFF75EFE002861D0052813D0A17DAA7D12
:101ED000914230D9494B9B68AB422CD0009B002BE0
:101EE00000D10095022398430136C0B2F6B20195A5
:101EF00001284BD0A38A9B0B012B13D98021E268C8
:101F000063680905D71A3F013F098F4203D99F1A19
:101F10003F013F097F4238492069FDF7BFFCB842C5
:101F200000DD8CE7354B9A68AA424FD0002E00D1D5
:101F300002952D68B8E7A38A9B0B18D0AB682A6975
:101F40002D499F183800FDF7A9FC6B682A49C6186F
:101F50003800FDF7B3FCA3688B42894149427618EB
:101F6000360136096660002601960096C2E7914266
:101F700000D864E7214B9B68AB4200D05FE7C31EEB
:101F8000DBB2012B00D95AE70328B3D1009B002B09
:101F90000BD01A4D019A280002991CF05DFB280015
:101FA000019A00990C301CF0ADFA029B1348002BEB
:101FB0000ED0220019001CF071FB0025009BAB42E3
:101FC00000D13DE72000FFF771FE39E71D686BE7A0
:101FD00021001CF0B7FAFFF731FEEEE78FFDFFFF9F
:101FE0000F18060024BF0000C0BE0000E8BE0000BD
:101FF000FEFFFF07C4BE000071020000F0BA00003F
:10200000F8B5184B07001B680C0098470500002F17
:1020100006D10024144B28001B6898472000F8BD07
:10202000124EB368BB4202D10024B460F2E7002C28
:10203000EFD133689F4205D130001CF095FAFFF7CD
:10204000FDFDE7E7390030001CF098FA0028E0D1E8
:10205000300039000C301CF091FA0028D9D102244C
:10206000D8E7C046C0BE0000C4BE0000F0BA000001
:10207000F0B5374E85B0346802A81AF001FF002C85
:1020800006D1F368002B5FD1FFF7D8FD05B0F0BD96
:102090000625039B626801932E4B029F1B78ED1B64
:1020A000D31A5A192C49120112098A4208D8063348
:1020B0001B011B09BB4227D1A368019A934223D27B
:1020C00030001CF051FA010030000C301CF004FA12
:1020D0003468002CD5D01F4B62681B78D31A5D1969
:1020E0001D4A2D012D09954208D806331B011B09F5
:1020F000BB4209D1A368019A934205D20022174B33
:10210000110001201B689847124B62681B78124926
:10211000D31AFA43D218120112098A4208D8013B95
:102120001B011B09BB42ACD1A368019A9342A8D8FA
:1021300030001CF019FA8369B060002B00D098477A
:102140003468002CE0D19CE71BF01AF99CE7C046EC
:10215000F0BA0000E8BE0000FEFFFF0724BF000049
:1021600070B50F4E30000C301CF0BAFAC4B263B236
:10217000002B00DC70BD30000C301CF0F5F9051EA2
:1021800005D1084B020001001B68012098472B6A0B
:10219000002B01D028009847013CE4B2E7E7C04695
:1021A000F0BA000024BF0000124B13B51C68002CCD
:1021B0001CD068461AF064FE9C22019BC821920044
:1021C000D21A0023490091425B41009A01339B18C7
:1021D0001B0162681B09D21A0749120112098A42BF
:1021E00000D9636060681AF0F9FF13BD0120404216
:1021F000F9E7C04604BB0000FEFFFF07013810B539
:10220000012802D801481CF051F910BD04BB0000A0
:1022100013B568461AF034FE0E480468002C17D037
:102220006268009B9B1A0C4A1B011B0993420DD844
:102230001CF09AF9A168002902D020008847E8E73D
:10224000064B0A0001201B689847E2E7FFF7ACFF46
:1022500013BDC04604BB0000FEFFFF0724BF000003
:102260001E4BF7B51B6804009847050068461AF036
:1022700007FE9C22019BFA219200D21A00234900FA
:1022800091425B41009A01339B181B0162681B0954
:10229000D21A134E12011209B24200D96360002112
:1022A00010480268002A09D1002911D022001CF030
:1022B000F5F90D4B28001B689847F7BD5368676810
:1022C000DB1B1B011B09B342EED911001268E9E7C1
:1022D00021001CF037F9FFF767FFEAE7C0BE0000F6
:1022E000FEFFFF0704BB0000C4BE000070B5144D24
:1022F00004002B00FF335A78824204D0114B0100B6
:102300001B68032098472B00FF33D978002904D19C
:102310000C4B0A0001201B68984724012B19197BDC
:10232000002904D1074B0A0001201B68984729198E
:102330004B68002B03D0022289682859984770BD4A
:102340000CBB000024BF000070B5144D04002B002E
:10235000FF335A78824204D0114B01001B680320DE
:1023600098472B00FF33D978002904D10C4B0A0081
:1023700001201B68984724012B19197B002904D1DF
:10238000074B0A0001201B68984729194B68002B4E
:1023900003D0032289682859984770BD0CBB000000
:1023A00024BF0000F8B5284C05002300FF33D9787E
:1023B000002904D1254B0A0001201B6898472E01F3
:1023C000A1190B7B002B30D0214BEB181B011B8874
:1023D0009B065B0F062B28D14B68002B1ED00422D6
:1023E0008968A05998472300FF335A78AA4203D13D
:1023F0000F20013505405D7000232200A619FF3231
:102400003373D378013BD370FF34E378012B13D1BE
:102410000F22637801331340A370F8BD0B4A1900F3
:10242000176801201A00B847DDE70022074B1100AA
:1024300001201B689847E7E7002BEED18020800041
:102440001AF064FEE9E7C0460CBB000024BF0000A0
:1024500000040005F8B52F4E04003300FF335A780E
:10246000824204D02C4B01001B68032098472B4B61
:10247000E3181B011D883300FF33D978AD066D0FBB
:10248000002904D1244B0A0001201B68984727012A
:10249000F3191B7B002B05D11F4B220029000320C1
:1024A0001B689847EB1E022B05D900221A4B11001E
:1024B00001201B689847F1194B68002B23D0043D7D
:1024C0006A4255418968F059EAB2984700233200C0
:1024D0000F25F719FF323B73D3789178013BDBB2BC
:1024E000D370A14206D001342C402201B218127BD5
:1024F000002AF6D0FF367470002B03D180208000B4
:102500001AF004FEF8BD044A1900156801201A00EB
:10251000A847DBE70CBB000024BF00000004000557
:10252000013810B5012810D8822200210748520036
:102530001CF05EFD38241820054B06491A88A2437A
:1025400002431A8010338B42F8D110BD0CBB00003F
:1025500000400050004100500C4B70B51C68250134
:102560002D0F230702D52800FFF7EEFEE30602D564
:102570002800FFF7BBFE630702D5200FFFF712FF0D
:10258000A30702D52800FFF765FF70BD24000050A7
:10259000F7B58D4F0F213B00FF339E785A7804002A
:1025A000B01A08400190DB78002B07D0B24205D169
:1025B000864B3200310003201B6898470F23721EA0
:1025C0001A4013010092FB5862689A4205D100221A
:1025D0007E4B110001201B68984707217C4BF518A2
:1025E0002D012A88D2080A40012A04D02B88DB0852
:1025F0000B40022B07D13B00FF335978734B32005D
:1026000003201B689847019B0D2B14D90F22B31E82
:1026100013406F4A022094469B181B011988009BA7
:10262000C90863441B011A880723D2081A401940BD
:10263000664B1B689847012063683201BB50BF1886
:102640002269BA60226838737A609C279AB21B01AB
:102650001B0D6A80AB80A368BF00BB4204D9002277
:102660005A4B11001B689847A368FF1ABFB2BB0AF8
:1026700005D00022554B110001201B68984780238C
:10268000E068EF801B02984200D28AE0514B1900AB
:10269000C018FDF703F90700030405D500224B4BD2
:1026A000110001201B6898474B480743BFB26F8158
:1026B000A27D131C1F2A00D91F23617DDBB21A02E1
:1026C0000B1C1F2900D91F23DBB21343AB81E37D11
:1026D000424F1B0200933B4205D000223B4B1100AE
:1026E00001201B689847EB891F40009B1F43EF8127
:1026F000637E002B37D1227E703353435133FF3337
:102700009B082B81227D131C1F2A00D91F230D2714
:10271000DBB2DB020093019BA07E9F42BF41217F81
:102720002F4B7F420002BF020340074300293DD0E8
:10273000E47E002B05D00022244B110001201B68F1
:102740009847E401802322009A4305D000221F4BC2
:10275000110001201B689847009B1F432743422418
:102760003C43A4B22C800F2332009A4305D00022B0
:10277000164B110001201B68984780230F218020F1
:102780001B061E43174B80001E600F4BFF339A78C9
:1027900001320A409A70DA780132DA701AF096FB48
:1027A000F7BD0130400880B2688181E7002B04D07A
:1027B000064B0A0001201B689847009B3B430227F9
:1027C0001F43BFB22F80CEE70CBB000024BF000028
:1027D00000040005710200000080FFFFFFE0FFFF22
:1027E000FFFEFFFF00010050F0B593B01C00029007
:1027F0000E910492002809D1002A75D10022B74B0E
:10280000110001201B68984701236BE0002CF5D0D4
:1028100063680393A3890D930023802510A80B936D
:102820001AF02EFB109B2D051D402B005A1E9341C4
:10283000DBB20193039B002B05D1A84B039A012027
:1028400011001B6898470022A54B1A60A54B1B7806
:10285000934258D1A34B019A1A70029B012B6AD163
:1028600023680593059B002BCED0039B002BCBD078
:102870000B9B0193029B012B01D1A36801939A4BFF
:102880001E68002337000A930993039B013B0F93B3
:10289000002F00D1C0E0019B059A93421BD2029BFE
:1028A000002B4BD10E9B002B48D03B697D680693D3
:1028B000002D51D0069B002B4ED0BB8A0D9A93421F
:1028C0004AD0059B2C009D4200D91C00069B039A10
:1028D0009B18A34234D90A9B002B02D0804B099A43
:1028E0001A6003230293B6E0049B9B6803930E9B3C
:1028F000002B02D0049BDB680393049B1B8A0D937F
:10290000049BDB7C89E7002DA4D18026764B7605DD
:102910001D68002D9ED06F68AB683900FB18300031
:102920000593FCF7CBFF059B581A3900FCF7C6FF4F
:10293000A9602D68EDE7049B5B6992E7FB68B5E74A
:1029400021000598FCF7BAFF002905D121002800D5
:10295000FCF7B4FF002902D03F68019932E0210062
:10296000B868FCF7ABFF069B0D005B180C932100C9
:10297000013B01980893FCF7A1FF8C460F9B069141
:10298000634407938D4200D9B0E0089B8B4207D285
:10299000079B9D4218D8089B079A934200D298E063
:1029A000029B012B32D021000C98FCF787FF019B82
:1029B0008B4224D201230B9A0B40002A21D0002BFA
:1029C00022D03700019163E7069B9D4203D1089B0B
:1029D000079A9342E4D9089B9C4206D8180021002C
:1029E000FCF76CFF069B9942DAD2079B9C42B3D856
:1029F00021001800FCF762FFA942ADD3D0E7091906
:102A0000D5E73700002BDDD00131DAE70123099744
:102A1000059937000A93D5E70A9B002B02D0304B6B
:102A2000099A1A60019B059A934200D359E7029BC9
:102A3000002B4CD1049B019A5F699A611B8A069313
:102A40007B1E9B180593002E08D139000598FCF7D2
:102A500035FF049BD961029813B0F0BDB38A069A82
:102A6000934217D07568BD4200D93D00002D05D1B5
:102A70001A4B2A00290001201B68984729003800BA
:102A8000FCF71CFF002905D129007068FCF716FF30
:102A9000002901D03668D6E72900B068FCF70EFFA0
:102AA0000C00019BA34210D2039A9B189C4205D2B2
:102AB00000220A4B110001201B689847039BE41A6F
:102AC000059BA342E6D90594E4E76419E9E70023EE
:102AD00008E7069B9D4200D27DE761E724BF000026
:102AE00010BC00001CBC000014BC0000079B9D42F1
:102AF00000D855E76BE7C046013810B5012805D866
:102B00000022034B03481A701BF0D0FC10BDC046D6
:102B10001CBC000014BC00001FB5C16804000029E3
:102B200004D1184B0A0001201B6898476A46636865
:102B300001200093E3680193A38A93810022A36894
:102B4000110002936B46FFF74FFE032809D10E4B8D
:102B50001B68002B05D0A1699A69002906D1002ABB
:102B60000BD1210009481BF0B7FC1FBD002A03D080
:102B7000A17D9A7D914200D32300988A9B69984752
:102B8000EFE7C04624BF000010BC000014BC0000EA
:102B900010B5010001481BF0F1FC10BD14BC000091
:102BA000F7B5036846680400466101939E4216D952
:102BB0002B4B01271A6800237F42002A22D1002BC9
:102BC0002CD1A57C002D48D029003000FCF766FEF2
:102BD0004543019BAB4202D8AE4200D3656100235E
:102BE000220001211800FFF7FFFD002809D0A3688B
:102BF000E268934205D20023220019001800FFF773
:102C0000F3FDFEBD908A218A884205D051680133C8
:102C1000DBB28F4200D90F001268CEE7BE4206D366
:102C200039003000FCF73AFE78430500D1E7012572
:102C300000966D4238000099FCF740FE002399424F
:102C400001D1009D0133009A023A00920099019A45
:102C50008A42BED8002BEDD0BBE701256D42BBE711
:102C600014BC0000002210B5030011000120FFF782
:102C7000BBFD10BDF7B52B4F2B4DBB89BE68AB809C
:102C800001235B422B60294B0193002E15D1019A41
:102C9000274B5343AA889A4200D91A00AA807A681F
:102CA000531C09D02B68591C05D09B1A21491B01C4
:102CB0001B098B4200D92A60F7BD0023802212062F
:102CC000DA40164202D10133202BF7D11F22D31A4A
:102CD0000093194B009A1B78934205DC0022174B96
:102CE000110001201B689847009BDA00144B1B68F9
:102CF0009B181C68002C0FD098880D49FCF7CEFD5E
:102D0000241AA4B2022C01D9023CA4B2019BA34212
:102D100000D923009BB201930123009A93409E4364
:102D2000B3E7C04624BC000034BC0000FFFF000035
:102D300071020000FEFFFF07D4BE000024BF0000A8
:102D400020BC000037B50138012822D8114C1022D0
:102D5000002120001CF04CF90F4B00211A780F4B7A
:102D6000D20018681CF044F901230D4D5B426360EA
:102D70002B606B46D91D022322000B70094B1720D4
:102D80001B680C329847002801D0074BA381A38908
:102D9000AB8037BD24BC0000D4BE000020BC0000C6
:102DA00034BC0000DCBE0000E45700000122824079
:102DB00010B503490B7813430B70FFF75BFF10BD91
:102DC00024BC00000122824010B503490B789343D4
:102DD0000B70FFF74FFF10BD24BC00000300012063
:102DE00070B505009D40084A14782C431470022BDE
:102DF00003D15160FFF73EFF70BD0022034B11006D
:102E00001B689847F6E7C04624BC000024BF0000BA
:102E10000300012010B504009C400B4A1178A14327
:102E20001170022B0AD1033B5360FFF723FF074BBE
:102E30001B68013301D113F009FF10BD0022044BC0
:102E400011001B689847F0E724BC000034BC000068
:102E500024BF0000033810B501280ED80A48CC0062
:102E600000680019838001238B400260074A916843
:102E70000B439360FFF7FEFE10BD0022044B1100D0
:102E800001201B689847F5E720BC000024BC000027
:102E900024BF0000033810B501280DD800200A4BCC
:102EA000CA001B68D05001238B40084A916899439F
:102EB0009160FFF7DFFE10BD0022054B11000120DD
:102EC0001B689847F5E7C04620BC000024BC000002
:102ED00024BF000010B5040000F00CF8002C02D054
:102EE00020000CF0B9FE200006F07EFB200000F070
:102EF000FDFB10BD7021F0B5824D0C262B7804002F
:102F0000181D414303209A1C56435431FF31361893
:102F1000814389197C4E8143377838267E433618A1
:102F2000891930265E438143AB31361881438919B4
:102F3000764E8143891946265E43814336188919A6
:102F400012021218814389182722534381431B1808
:102F5000C91881436E4B69318143C918802381436D
:102F600009188143091885B081431B02994204D98D
:102F7000684B890A1B68073A9847002C05D0013C2A
:102F8000012C00D89AE005B0F0BD21002022624853
:102F90001CF02EF85B4B702518785B4B41001A78BB
:102FA00038235A43083B4343033301930C23071D43
:102FB00084B20230434303269C467D435435FF359B
:102FC000B444B54365440332B5435519B543019B39
:102FD000AB35B5435D194D4BB543ED18B543ABB2B9
:102FE0004E4D02932B680139039323239C4609B26B
:102FF0004B1C57D170250C266F4381B27043543758
:103000006D3DFF37AF4340193818A8431218AA4343
:10301000019BAB32AA439A18AA4392B215004048CA
:10302000404B0068D318FB3D9BB24430ADB20380E7
:10303000013BFF3B9BB20838AB42F8D14623334EED
:10304000634392190326601CB24303339B180500A7
:10305000C2003548B34300689BB28018ADB22A0263
:10306000013D9A182DB2828008386A1CF6D12720BB
:10307000090203315B18032144438B4364181B1975
:103080008B432A4A693312688B4329495B18110024
:103090009BB22C31043A0B80FE3B08399BB28A422A
:1030A000F9D170E766468DB26E43029BC9009E1946
:1030B000039B013D59188E8029B299E7164C2B7855
:1030C00016492000082209685B001BF0F3F9200074
:1030D000134909230822096808301BF0EBF9200086
:1030E0002B78114908220968023310301BF0E2F9ED
:1030F00020000E4906230822096818301BF0DAF96F
:1031000041E7C046D4BE0000D5BE00000309000060
:10311000F705000024BF00004CBC000044BC0000C8
:1031200048BC0000050800003CBC000040BC00009A
:10313000F6040000074B70B51B6898470500064869
:103140001BF012FA0400054B28001B68984720006A
:1031500070BDC046C0BE00004CBC0000C4BE000034
:10316000F8B5060070201E4B03241D7823212B1D6B
:1031700058430C23AA1C53435430FF301B19A0435F
:10318000C018184BA0431A78382353431B19C01892
:1031900030236B43A043AB301B19A043C018124B24
:1031A000A043C018A043301AFCF778FBC7B26D00EB
:1031B000AF4205DB0D4B3200390020001B689847F9
:1031C0000B4B1B68984704000A4BF9001F680A481C
:1031D00079181BF081F9094B20001B689847F8BD4E
:1031E000D4BE0000D5BE00000309000024BF0000CB
:1031F000C0BE000044BC00004CBC0000C4BE0000C7
:10320000044810B508301BF0AFF9002800D08088C2
:1032100010BDC0464CBC000070B51C4B0C24197886
:1032200070230A1D534303228D1C6C435433FF3318
:10323000A41893431B19164C9343257838246C43E8
:10324000A4181B193024FF2661439343AB339343E7
:1032500089185B1805389343C01A304203D1040A19
:10326000E3B2082B00D9FEE70A4B34401B689847AD
:103270000500094B0948E1001C68083061181BF083
:103280002BF9074B28001B68984770BDD4BE00007F
:10329000D5BE0000C0BE000048BC00004CBC000011
:1032A000C4BE0000084B70B51B689847050007486E
:1032B00010301BF059F90400054B28001B68984793
:1032C000201E00D0A08870BDC0BE00004CBC000015
:1032D000C4BE000070B57024194B02001B78032097
:1032E000191D4C430C219D1C69435434FF340918AB
:1032F00084436418134984430D78382169430918BD
:103300006418302159438443AB340918844364184A
:103310000D498443641846215943844309186418AD
:103320008443141B240AE4B20133A34203DA074B9B
:1033300021001B689847064BE0001C68201870BDF0
:10334000D4BE0000D5BE00000309000024BF000069
:103350003CBC000070B570241F4B02001B7803209A
:10336000191D4C430C219D1C69435434FF3409182A
:1033700084436418194984430D7838216943091836
:103380006418302159438443AB34091884436418CA
:103390001349844364184621594384430918641827
:1033A0008443141B240AE4B20133A34203DA0D4B15
:1033B00021001B6898470C4B1B68984705000B4B76
:1033C0000B48E1001C68103061181BF085F8094BB0
:1033D00028001B68984770BDD4BE0000D5BE000011
:1033E0000309000024BF0000C0BE00003CBC000078
:1033F0004CBC0000C4BE0000084B70B51B68984769
:103400000500074818301BF0AFF80400054B2800F2
:103410001B689847201E00D0A08870BDC0BE000069
:103420004CBC0000C4BE000070B505007020274BE6
:1034300003241A78111D48430C21931C594354301E
:10344000FF300919A04340182149A0430E783821C4
:1034500071430919401830215143A043AB30091979
:10346000A04340181B49A043401846215143A043A4
:10347000091940181B021B19A043C01827235A43DF
:10348000A04312198018A0436930A043FE21281AD6
:10349000FCF704FAC6B2C0B2052805D90E4B2A00C3
:1034A000310020001B6898470C4B1B6898470400AC
:1034B0000B4B0C48F1001E68183071181BF00CF80B
:1034C000094B20001B68984770BDC046D4BE000061
:1034D000D5BE00000309000024BF0000C0BE0000EC
:1034E00040BC00004CBC0000C4BE000010B502008F
:1034F0000C000123002103481AF008F90470FCF7BE
:10350000EBFB10BD0111000010B502000C000123FF
:10351000002103481AF0FAF80470FCF7DDFB10BD37
:1035200002110000F7B5002400900191124D2B7894
:10353000A3421BD94426114F66433B6899190B00DF
:1035400040331B78092B02D00134E4B2EEE7009837
:1035500020311AF032FD0028F6D03B68019A9E19FE
:103560000736F37F534001221342EDD1287884427D
:1035700080414042FEBDC046D4BE00006CBC00008D
:10358000F0B5002485B0019002910392174D2B787D
:10359000A34225D94426164F66433B6899190B0070
:1035A00040331B781A000E3A012A04D9112B02D09D
:1035B0000134E4B2EAE7019820311AF0FEFC002859
:1035C000F6D03B68029A9E19330036331B7853407D
:1035D00001221342ECD12E363378039A9342E7D17D
:1035E000287884428041404205B0F0BDD4BE00003E
:1035F0006CBC000030B500200A240125074B196877
:10360000074B1B780133220042438A18527A2A4220
:1036100003D00130C0B28342F5DA30BD70BC000087
:10362000D4BE0000F7B5050000240A260127019149
:103630000D4B186833006343C018437A3B4208D1EE
:103640000A4B01341B78E4B20133A342F0DA2000C4
:10365000FEBD037A019A9342F2D129001AF0ADFC23
:103660000028F4D1ECE7C04670BC0000D4BE0000D6
:10367000F7B5050000242726012701910C4B1B7884
:10368000A34213D90B4B186833006343C0188379E6
:10369000FF2B02D10134E4B2F0E7019A3A409342A1
:1036A000F8D129001AF089FC0028F3D02000FEBDD3
:1036B000D5BE000074BC00000A4B18780A4B1A688B
:1036C00000230632984204D1C01A43425841C0B286
:1036D00070472732110027390978FF29F4D10133C7
:1036E000DBB2EFE7D5BE000074BC0000F0B585B0DA
:1036F000012821D0022800D1BDE0002802D1614973
:103700001AF0A0FA05B0F0BD2A005F4B62431B68B7
:10371000D058002802D00C381AF045F80134E4B231
:103720005A4B1B78A342EFD80021042019F0A4FFC4
:103730000021062019F0A0FF554CF42200212000A2
:103740001BF056FC2722534B00211B7806265A43B8
:10375000514B1B68180001931BF04AFC44224B4D4F
:1037600000212B785A43484B18681BF041FC0A2271
:103770002B78002102335A43484B1F2518681BF051
:1037800037FC2300E122543392001A80444B082274
:103790006362444B4449638544481BF00DFC01229D
:1037A000434B52421A60FF212577053241481BF0F6
:1037B0001FFCA31CDD7702AB3F4D5E713F4B02A99E
:1037C0002A0001201B6805319847002804D03200E8
:1037D00028003B491BF0F0FB20230125374F02AAAC
:1037E000537102AB591D374A3B688020984702ABA2
:1037F0009E1D02A95D71320015203B680531984776
:10380000002801D133781D402300EF331D700125BE
:1038100002ABDE1D5D71294B02A9320019201B6825
:1038200005319847002801D133781D402300012637
:10383000F0331D7002AB244D5E71204B02A92A00AB
:1038400016201B6805319847002800D02E70114AB9
:10385000114B117827224A43FF211B68D2189A4244
:103860000CD1FA22543423889200002106205A43B6
:1038700019F068FE46E70024442551E79971273383
:10388000EDE7C046943C06186CBC0000D4BE0000B6
:1038900078BC0000D5BE000074BC000070BC000005
:1038A0001B00480107070000883B06187CBC00008D
:1038B00090BC000095BC000084BC0000DCBE000091
:1038C00054E40718ABBC000064BD0000012310B530
:1038D000094C83402268002906D080201343400110
:1038E000236019F0F3FA10BD9A432260FBD18020C7
:1038F000400119F00BFCF6E778BC0000F8B5442451
:103900001E4E4443336800211F190500FFF7DEFFF8
:103910000022336804371B1940331A703800FFF750
:1039200037F933681819C31DD97F2030FFF77AFEA5
:10393000134B1B78013383420EDB0A22114B4243A7
:103940001B689B185B7A9B0706D533681919CB1D3A
:10395000DA7F20310BF036FF30680019C31DD97FA4
:103960002030FFF785FE084B1B78834202D90021E7
:103970000CF0C4FC2800FCF715FAF8BD6CBC000084
:10398000D4BE000070BC0000D5BE000000487047E7
:1039900095BC0000054BC2089B1807221B791040FC
:1039A00003411800012318407047C04678BC00004E
:1039B00000487047903B0618024B5A330020185EAF
:1039C0007047C04678BC0000024B58330020185E98
:1039D0007047C04678BC000044234343024A106845
:1039E000C01804307047C0466CBC0000F7B50BF03F
:1039F00071FE01900BF0A4FE040000210125943417
:103A00000726464ACB10D3181A7E0E4032412A426E
:103A100006D12A00B24016005A7FB2435A7711E00D
:103A20003F4A1278002A0DD08A00019F8258BA1AA4
:103A3000C827120112097F01BA423AD20022A256C7
:103A40000132E6DB013101342529D9D1354E300070
:103A50001AF0C0FA01281AD8002301212F4F072598
:103A60001C002C40A4466546DA10BA18147E2C417E
:103A70000C4209D00C00AC40A4466546547F2C4350
:103A80005477012803D008000133252BE7D1002407
:103A900030000CF0BDFD2500234B1B78A34214DC45
:103AA000002D37D0FA2200210420120119F04AFD1E
:103AB000F7BD00272770FA27FF01BA42C2D92A00B2
:103AC000B24016005A7F3243A8E744236343174F9E
:103AD0000193019A3B689B181A0040321278092A18
:103AE0000BD10833DA7F002A07D1012321021943C1
:103AF000022089B219F048FE01253B68019A9B1803
:103B000040331B780C2B03D13100E0B211F058F98F
:103B10000134C1E7014B0333DD77C9E778BC00000E
:103B200068BD000095BC0000D4BE00006CBC000065
:103B3000F8B50023040044270E4A0F490370237888
:103B40001678B34210D2380058430D682818050083
:103B500040352D78002D0AD12022290020301BF07D
:103B600047FA2378B34200D307252800F8BD013374
:103B70002370E4E7D4BE00006CBC0000014B186861
:103B80007047C04674BC00001F0000000000000029
:103B9000FF79010F000000000020024B0433D877AA
:103BA0007047C04678BC000070B522230D003E224D
:103BB0000021094819F0AAFD002609230400290064
:103BC00003704670202202301BF0F6F92000FCF74B
:103BD00083F8300070BDC04604110000F8B53E22E5
:103BE0000D00422300210F4819F090FD20260823E4
:103BF00000270400037032002900477002301BF0D8
:103C0000DBF92000A919320022301BF0D5F9200081
:103C1000FCF762F8044B31005B68044A8020984747
:103C20003800F8BD04110000DCBE0000ABBC000091
:103C300070B511230D00094A0021094819F066FDED
:103C4000691C04000025102201301BF0B5F920008A
:103C50002570FCF741F8280070BDC0461720000011
:103C600001110000FA2210B5064B920054331B8854
:103C7000062000215A4319F065FC0BF065FD002079
:103C800010BDC04678BC000010B5FFF7AFFE0020A5
:103C900010BD0000A03C06186CBD00000100120021
:103CA00007000000313C061804000000893C06189B
:103CB00005000000993B061806000000653C061848
:103CC00008000000DD3B061809000000A93B0618AB
:103CD0000A020000A19206180202000001660618FE
:103CE000070200006566061808020000756B0618DA
:103CF00003000000F578061801020000317906186B
:103D0000060200006586061803020000097F0618F7
:103D100004020000658006180502000031840618C0
:103D200009020000E18E061805110000C14A0618BC
:103D3000442130B5104B1A68104B14001B784034E6
:103D400059430023994201D1012030BDE05C851E1A
:103D5000012D05D8D058C07C00280BD14433F1E7A1
:103D6000072802D1D0584078F6E70528F6D1D05878
:103D70000078F1E70020E8E76CBC0000D4BE00004A
:103D800030B50D4A0124117844220C4B4A431B687C
:103D90000B484033D218934201D1002030BD19782E
:103DA00044331129F7D80500CD40290025008D4363
:103DB000F1D10120F2E7C046D4BE00006CBC000087
:103DC000AC400200F7B5174A01911400EE34257893
:103DD00003000C21012D1FD00A3921700778103102
:103DE000022F19D8FA2446886400A64214D2858886
:103DF0000D482C000A3CA4B284420DD89C791723AC
:103E00002000984308D111002C310F70110032317D
:103E10000C700100D68515860198FFF767FB00201E
:103E2000FEBDC04678BC0000F63F0000F8B50300B8
:103E30001A780800140002210C400A4203D19D7830
:103E40001031002D2AD0012115000D400A4206D163
:103E50005A781131002A21D0002C0AD101E0002C1F
:103E600020D107229E7811213240964216D1002D92
:103E700008D15E780722370011211740BE420DD1CC
:103E8000002C00D19A78084C21002B310A700722AF
:103E9000002D00D15A7800212A342270FFF726FB2A
:103EA0000020F8BD0722EEE778BC0000030070B5E3
:103EB0001C88080022001B3A1221E02A0BD85A88DD
:103EC000074D1300493BFF3B9BB2AB4203D8002197
:103ED000044B9C84DA84FFF709FB002070BDC046C8
:103EE0004841000078BC000070B50C000500FFF7E9
:103EF00047FF0C21002809D12B780631012B05D86A
:103F0000012201001340044A563213702000FFF7CB
:103F1000EDFA002070BDC04678BC0000030013B568
:103F200040331B7802000C00002B0CD10D491E33CE
:103F3000C85C002813D1013BFAD20C212000FFF706
:103F4000E3FA002016BD0849002013000190093053
:103F50000090203307381AF06FFD0100EEE70349A7
:103F6000F2E7C046ACBC00001A4B0618ABBC000020
:103F700002001E2313B50C000B49C85C002807D1B2
:103F8000013BFAD20C212000FFF7BEFA002016BD3B
:103F900000211300019109310091022003492033CF
:103FA0001AF04AFD0100EEE7ACBC0000ABBC00001B
:103FB00073B508000021FFF7A7FA6A460123D37101
:103FC0006B46154E941DD91D2200822033689847F8
:103FD000002801D00023237020236A46D371237860
:103FE0000E4D002B09D069462A0080203368073126
:103FF0009847002806D000232370002128001AF0DB
:1040000067FD02E02378002BF7D02800002208216A
:104010001AF034FD002076BDDCBE0000ABBC000011
:1040200010B50A0000210A23074819F06FFB00248D
:10403000FB22064BC2800381428083800470FBF721
:104040004BFE200010BDC046011100009042000050
:1040500010B500210623074A074819F057FB002432
:10406000064B9A8C4280DB8C04708380FBF734FE15
:10407000200010BD232000000111000078BC0000CA
:1040800070B50400A026A025012300210F4A104886
:1040900019F03CFB0223E15EF6008B199BB22D0167
:1040A000AB4211D80023E25E93199BB2AB420BD80E
:1040B000084B1C005A331A800023583421800370A7
:1040C000FBF70AFE002070BD1223F8E74D20000028
:1040D0000111000078BC000010B500210623094A38
:1040E000094819F013FB094B00241A0058321288B2
:1040F0005A3382801B8804704380FBF7EDFD20005B
:1041000010BDC0464C2000000111000078BC00002A
:1041100070B50E4A032300210D4819F0F7FA0D4D32
:1041200000262B0006702C330400012118786B69DF
:1041300098472B0060702D33012118786B699847E0
:10414000A0702000FBF7C8FD300070BD4B200000C0
:1041500001110000ECBE000070B500210F4A0923D8
:104160000F4819F0D3FA0F4D04002B689847030A43
:10417000A370030C6070E370000E2B6820719847E9
:104180000025030A6071A371030C000E20722570D4
:104190002000E371FBF7A0FD280070BD182000008F
:1041A0000111000070BD000010B50A0000210223BB
:1041B000054819F0ABFA0024044B04701B784370D7
:1041C000FBF78AFD200010BD01110000D5BE0000E4
:1041D00010B50A0000210223064819F097FA0024BE
:1041E000054B04701B7802334370FBF775FD20000C
:1041F00010BDC04601110000D4BE000010B5002162
:10420000074A0623074819F081FA022300240371A4
:10421000F93343800470FBF75FFD200010BDC046FA
:10422000022000000111000070B507230A000948B0
:10423000002119F06BFA00250400074906220C3111
:1042400001301AF0B9FE20002570FBF745FD28006B
:1042500070BDC0460111000078BC00000A0010B516
:104260000A230021074819F051FA0923064A03815D
:10427000C2804380C632013302800371FBF72CFDFC
:10428000002010BD011100003A0900000278F8B5C5
:1042900053425A41124B0E001B680500591E8B41B8
:1042A0000024442743219A4204D00E4B1B78A3429A
:1042B00005D800213000FFF719F90020F8BD3A00B9
:1042C000094B62431B689B1840331B78092B03D1B1
:1042D000200029780BF020F80134E4B2E5E7C0466D
:1042E00078BC0000D4BE00006CBC000070B5124B5E
:1042F000040056331B780D00002B04D0FFF740FD5F
:104300000C23002812D1E2791223012A0ED8217839
:1043100001290BD8601CFFF7ABF9084B1A78022370
:10432000824203D9E1790BF0C3FF00232800190072
:10433000FFF7DCF8002070BD78BC0000D5BE00009F
:1043400070B509230021084A084819F0DFF9002553
:1043500004000822064901301AF02EFE20002570C4
:10436000FBF7BAFC280070BD1C2000000111000002
:10437000CC4D061813B5010000240122034B103167
:1043800000941AF010FA200016BDC046914306189A
:10439000002270B5112306000D000720110019F04E
:1043A000B5F9040029000670102201301AF004FE4D
:1043B000200019F0CFF970BD70B50A000500072381
:1043C00000210E4819F0A2F9122303702978040085
:1043D00001290AD8681CFFF74BF9094B1B78834267
:1043E00008D9611C0BF0D6FF20702000FBF774FC8D
:1043F000002070BD02232370F7E7C04601110000C2
:10440000D5BE000070B50A000500072300210E4844
:1044100019F07CF9122303702978040001290AD8C5
:10442000681CFFF725F9094B1B78834208D9611CEA
:104430000BF088FF20702000FBF74EFC002070BDC1
:1044400002232370F7E7C04601110000D5BE00002B
:1044500003880C485A1E92B210B50C0012218242F9
:104460000AD8094A002154321380FA229200062009
:104470005A4319F067F800212000FFF737F80020B1
:1044800010BDC046B7A1000078BC000010B5104BAD
:104490000C0056331B78002B04D0FFF771FC0C2165
:1044A00000280CD10B4B1A680B4B197827234B4370
:1044B000FF219B189A4207D10BF0A4FB002120009A
:1044C000FFF714F8002010BD91712732F2E7C046C3
:1044D00078BC000074BC0000D5BE000070B5067842
:1044E0000D0004001221012E1DD8114B56331B78EC
:1044F000002B04D0FFF744FC0C21002813D131001D
:10450000601CFFF7B5F80B4B04001B7802218342B7
:1045100009D90BF0AFFE2720074B44431B6800214D
:104520001C19FF23A3712800FEF7E0FF002070BDD7
:1045300078BC0000D5BE000074BC0000F0B5047863
:1045400089B007000691012C06D912210698FEF7C2
:10455000CDFF002009B0F0BD3D4B56331B78002B3A
:104560002FD100263B4B1B7805933B4B1D687B1CD2
:1045700040350493059BB34229DC002321000498B5
:104580000593FFF74FF8334B00251B780133834227
:1045900007DB0A22314B50431B681818457AAD07D8
:1045A000ED0F39780498FFF763F82D4B1A788242A3
:1045B000CBD800242B4B1B680633A24217D107210E
:1045C000C4E7FFF7DDFB0C210028BFD1C9E72B783A
:1045D000092B07D129000622049820391AF0DEFCA5
:1045E000002802D001364435C4E70123C6E727334B
:1045F000190027390978FF2902D00134E4B2DCE739
:104600003E00FB1D0793059B173601933B78200066
:1046100004990093FA1D330002950BF077FD2720D3
:10462000104B444318683B780419A3710622791C87
:1046300020001AF0C1FC10223100E01D1AF0BCFC71
:1046400020000799102217301AF0B6FC00217DE7F0
:1046500078BC0000D4BE00006CBC000070BC000040
:10466000D5BE000074BC0000F8B50D000400FFF7D3
:104670005FFB0C21002805D021788B1EDBB2FC2BC0
:1046800005D812212800FEF731FF0020F8BD661C76
:104690003000FEF7C7FF0D4B1B7801338342F0DB80
:1046A0000A22022142430A4B1B689A18537A0B4292
:1046B000E7D05F0707D58B435372310022780BF0A8
:1046C0000FF90021DEE70321F5E7C046D4BE000064
:1046D00070BC0000F8B50D00FFF72AFB0C21002884
:1046E0001BD000240A26012731000F4B61431B68B1
:1046F00059184B7A3B4208D05A0713D502229343EC
:1047000020000A7A4B720BF0EBF8084B01341B784F
:10471000E4B20133A342E7DA00212800FEF7E6FE07
:104720000020F8BD0322EAE770BC0000D4BE000000
:10473000F7B505000191FFF7FBFA0C26002805D01C
:1047400029788B1EDBB2FC2B06D81226310001988B
:10475000FEF7CCFE0020FEBD6F1C3800FEF762FFA6
:104760001B4E040033780133834227DB0A22194BA6
:1047700042431B689B185B7A9B07E6D40A2363437A
:10478000144E0093009A33683900981806221AF0E4
:1047900013FC3368009A29789B180322587A1972FF
:1047A00002435A723800FEF7BDFE0026B042CDD15A
:1047B000390020002A780BF005F8C7E7FEF71AFF4A
:1047C00033780400023307269842D7D1BEE7C046AB
:1047D000D4BE000070BC0000F8B5164E05000436CB
:1047E000F37F0F000C24002B04D104791F339C436A
:1047F00006D0122438002100FEF778FE0020F8BD14
:1048000019F0E8FB0138C0B22428F2D829000522AB
:1048100009481AF0D1FBFA2221009200052018F075
:1048200091FE012321000420F37718F025FFFFF704
:10483000DDF8DFE778BC000090BC0000F7B50500AC
:1048400000240191384B1B78A3420DD8374928002A
:1048500019F0B3FB1221041E61D12900062234484D
:104860001AF0AAFB21005AE0442363430093314B22
:10487000009A1B689B181A0040321278911E012979
:104880002DD92C4F009A3B689B181A0040321278A1
:10489000072A0CD11E68002E04D1274B21000320CB
:1048A0001B689847022233789343012B32D0009A39
:1048B0003B689B181A0040321278052A0CD11E68FA
:1048C000002E04D11C4B210003201B6898470222B4
:1048D00073789343012B1DD00134E4B2B2E717493A
:1048E000EE3109780129CCD11E68002E04D1124B7B
:1048F000210003201B689847102372881A4204D1B4
:104900000D4B210003201B6898470222F37A934342
:10491000012BB6D1044B0C211B78A34296D90198E8
:10492000FEF7E4FD0020FEBDD4BE00005AE40718E7
:104930008ABC00006CBC000024BF000078BC0000F2
:1049400070B509230021094A094818F0DFFE040068
:10495000FFF72EF8002501000822601C1AF02CFB3E
:1049600020002570FBF7B8F9280070BD0320000077
:104970000111000070B50C00074D0822010028004D
:104980001AF01AFB28000421FBF72CFA2000002162
:10499000FEF7ACFD002070BD7CBC000010B50C0023
:1049A0000221FBF71FFA01002000FEF79FFD002007
:1049B00010BD10B50C000321FBF714FA0100200014
:1049C000FEF794FD002010BD10B50C008188008812
:1049D000FDF78CF801002000FEF788FD002010BDD7
:1049E000007810B50C001221032804D801231840C8
:1049F000FDF786F801002000FEF778FD002010BDCD
:104A000070B50A0009230021084818F07FFE08222B
:104A10000400002101301AF0EBFA00256023200089
:104A200025706371FBF758F9280070BD0111000073
:104A300070B541230A000B48002118F067FE0400FE
:104A40002A22094901301AF0B7FA2000002516225F
:104A500000212B301AF0CCFA20002570FBF73CF92E
:104A6000280070BD01110000F04A061810B50C00B6
:104A700018F086F920000021FEF738FD002010BD57
:104A800010B503000C4A00780C001278002803D0FF
:104A90005988914203D29888FDF754F809E0002222
:104AA000064B110001201B68984712212000FEF7D9
:104AB0001DFD002010BDC046D4BE000024BF000074
:104AC000002270B50C001900084BD000C518185A08
:104AD000884205D16B68181E01D02000984770BD30
:104AE0000132522AF1D10020F9E7C0463C4B0618AA
:104AF0002000800000C000000000E4000000282228
:104B0000000000000000040000F7FFFF7F0000002D
:104B100030F0FFFFFFFFFFFFFF17BD1A3CCDA6B827
:104B2000995899B740EB7B60FF4A503F10D2E3B3EE
:104B3000C974385FC5A3D4F6493F0000392000008E
:104B4000855B061836200000215606183720000025
:104B5000A1580618030C00006D4A06180110000049
:104B60005D420618091000002942061802100000D4
:104B7000314A061803100000014A0618010C000013
:104B8000B3490618630C00009D490618310C00005B
:104B9000E1490618330C0000C9490618350C00001D
:104BA000814A0618012000007549061802200000FD
:104BB000FD410618032000004149061805200000A9
:104BC0003D48061806200000E9500618082000009D
:104BD000515206180A200000A153061809200000AF
:104BE000F9520618072000009D50061835200000D5
:104BF00019580618382000002D5A06183A200000CF
:104C00007D6406183B200000B56406183C200000B7
:104C1000196506183D200000896506183E20000031
:104C2000856006183F2000007561061840200000CE
:104C30009D6206180B200000B56D06180C200000C0
:104C4000D96E061841200000B570061842200000F9
:104C5000C571061844200000317406184520000074
:104C60002D7506184620000005760618472000001E
:104C700061760618482000003977061849200000A0
:104C8000E97706184A2000006178061859200000CC
:104C9000A17806180D200000A18806180E2000003B
:104CA0005D8E0618432000002D8B0618142000008E
:104CB000D94706180F200000D14106181020000027
:104CC000D5460618112000003147061812200000B2
:104CD000694606182A200000A9410618272000006E
:104CE0003D45061828200000DD4406182920000054
:104CF0008D4406182E200000514406182D20000077
:104D0000E93E06182B200000054406182C20000060
:104D1000B943061817200000754306181820000034
:104D2000594106181C200000414306184B20000082
:104D3000114106184C200000D94006184D200000F3
:104D4000814006184E200000ED4206185F2000004A
:104D50008D42061823200000514006182420000030
:104D6000AD3E06182F200000214006181D2000002F
:104D7000C99206181E200000059306183320000073
:104D80004D93061834200000959306184F2000001C
:104D9000E593061850200000719406181F200000AB
:104DA000F994061825200000B13F061826200000BF
:104DB000713F06185E2000001D3F061831200000DC
:104DC0002D3E06185D200000C53D0618FFFFFFFFC1
:104DD000FF03000070B5438805000C00DB0605D515
:104DE0000022104B110001201B6898476B8801209E
:104DF00019000140034203D10A4B0A001B6898477F
:104E0000698806224B0700D59218D31C490600D4A6
:104E1000931C0133DBB21B190020FE2B00DD123086
:104E200070BDC04624BF000070B544251D4C4543ED
:104E300023685B59002B05D000221B4B1100012079
:104E40001B6898470022236811005E1910001A237E
:104E500018F05CFCFF2330602068002645192C68A0
:104E600031002370EC3B638080231B01A380082367
:104E700020002381013BE6806381267306220D30EA
:104E80001AF0B6F88023FF33A3827F3BE382074BFF
:104E9000E6742683DA682A631B8AAB8601234035D1
:104EA0002B7070BD6CBC000024BF000078BC0000FB
:104EB00070B54425354C454323685B19188C002890
:104EC00005D0FEF7B1FA002223685B191A62236845
:104ED0005B19988C002805D0FEF7A6FA00222368FB
:104EE0005B195A6223685B19188D002805D0FEF7FC
:104EF0009BFA002223685B199A6223685B19988DDC
:104F0000002805D0FEF790FA002223685B19DA62C8
:104F100023685859002805D00C3818F044FC0023A9
:104F20002268535123681A495A193D321278097878
:104F3000914225D9442656439B19188C002805D048
:104F4000FEF772FA002223689B191A6223689B19E4
:104F5000988C002805D0FEF767FA002223689B1979
:104F60005A6223689859002805D00C3818F01BFCA9
:104F700000232268935123689E1900234036337022
:104F800000232068451940352B7070BD6CBC0000B3
:104F9000D4BE000070B504000E00FE2805D9002222
:104FA0000F4B110001201B689847F0212000FAF7F1
:104FB00075FC0130C5B2FF20012D04D80F348442A6
:104FC00000D90400E0B2013EF1B219F021FA2D300F
:104FD000FF3068430349FAF761FC0130C0B270BD8D
:104FE00024BF00007102000070B514000F4B0600D2
:104FF0001A78E3B20D009A4205D80D4B2200032027
:105000001B68E1B29847002E0FD14420E4B244431C
:10501000084B18680019030040331B78022B04D199
:1050200006222900363019F0C7FF70BDD4BE00003B
:1050300024BF00006CBC0000F7B50D0000240190F7
:10504000134F3B78A34202D8FF242000FEBD442228
:10505000104B62431B689B181A0040321278511E95
:10506000022902D90134E4B2EAE71E68002E04D115
:10507000094B210003201B6898473378019A93421B
:10508000F0D13B78A342DFD9002DDED02E60DCE7E3
:10509000D4BE00006CBC000024BF00000A0010B5A4
:1050A000022300210D4818F031FB0D4B04001A00BB
:1050B0002D3210785B69012198470A4B6070EE33FE
:1050C0001A78022A06D10C2320002370FAF704FE76
:1050D000002010BD01221A700023F5E70111000025
:1050E000ECBE000078BC0000F0B5544B87B00391D3
:1050F000EE331A780400022A00D19DE0012200213B
:10510000FF201A70FFF798FF04AAD51D030028702E
:10511000FF2813D04A4A106844225343C018403035
:105120000378012B00D087E02379042B0FD91221BB
:105130000398FEF7DBF9002007B0F0BD2800FEF76A
:10514000F7FC011EF4D12878FFF76EFEECE7012B87
:1051500009D0218862889142E9D81F29E7D98021A6
:10516000C9018A42E3D8627B013A062ADFD8A27BD2
:10517000032ADCD86279032AD9D8A279012AD6D8A1
:10518000012B03D000220292042B07D12D49E01DF0
:1051900018F013FF0028CAD10123029344230021F1
:1051A0002A78274F53433A68D3181D68264A2800A7
:1051B000019323790D30D35C6B80638869721A0A7E
:1051C0002A72EB712388A971AB80637B0622AB72D4
:1051D0006679E11DEE72A3792B7319F0EDFE0023C1
:1051E000029A9A4200D1A37BEB74032E1DD83000A3
:1051F000019B1249303319F0B3FE02120212019AD8
:10520000C86810630A8A9A80442204ABD9793B6843
:105210004A439B180122403300211A7088E7062276
:105220001800123119F0C8FEEEE7084B00223100D9
:1052300003201B689847E7E70C2179E778BC00005A
:105240006CBC00005AE40718906C061824BF0000DC
:10525000F0B5274B85B00191EE331A7805000C218B
:10526000022A38D001221A70037806311F2B32D857
:105270000021FF20FFF7E0FE02ABDE1D3070FF28AB
:1052800007D13000FEF754FC011E24D13078FFF71F
:10529000CBFD44223378174F53433A68D3181B8C05
:1052A0000093FEF7A9F80721041E14D021002A78E4
:1052B000681C17F04BFD442230783B684243297844
:1052C0009B181C84598440331B78022B09D122007F
:1052D0000DF06AFD00210198FEF708F9002005B0E5
:1052E000F0BD009B002BF5D01800FEF79DF8F1E70C
:1052F00078BC00006CBC0000F0B5274B85B0019174
:10530000EE331A7805000C21022A38D001221A70D7
:10531000037806311F2B32D80021FF20FFF78CFEC7
:1053200002ABDE1D3070FF2807D13000FEF700FC15
:10533000011E24D13078FFF777FD44223378174FD0
:1053400053433A68D3181B8D0093FEF755F8072195
:10535000041E14D021002A78681C17F0F7FC4422A0
