:020000041805DD
:10D0D40010B5024B00221B68984710BD90BA00009F
:10D0E40010B5024B01221B68984710BD90BA00008E
:10D0F40010B5024B00221B68984710BD90BA00007F
:10D1040010B5024B01221B68984710BD90BA00006D
:10D11400F8B506000C3883881D4A934205D01D4A91
:10D12400934223D000F02AFB1FE0037A3F2B1FD841
:10D134005A1ED2B21849D4080F5D07240125224093
:10D1440017412A00BA432F420BD03E2B09D1327823
:10D15400013AD3B2DA0889180A7C23401A4195436C
:10D164002A00002ADED01FF073FDF8BD3E23DFE75E
:10D17400582BD7D8403BDBB2074AD90852180721AD
:10D18400127A0B401A41130001229A43E9E7C04680
:10D19400031100000411000098BA000070B50C4B94
:10D1A40004001A78824204D80A4B01001B68032049
:10D1B4009847094D2B681B5D002B05D00022054BB9
:10D1C400110001201B68984701222B681A5570BD75
:10D1D400D1BE000024BF000094BA000070B50C4B0F
:10D1E40004001A78824204D80A4B01001B68032009
:10D1F4009847094D2B68195D002904D1054B0A0095
:10D2040001201B68984700222B681A5570BDC04640
:10D21400D1BE000024BF000094BA0000030010B582
:10D2240004292AD8080021F099FE030309102300D9
:10D234000A000320144B1B68984717E008221900C2
:10D244001248801821F0B6FE10E0104C190020009E
:10D25400082221F0AFFE002320000D4C0278195D56
:10D2640001330A4302700130082BF7D1002010BDAE
:10D274000648082219001030E4E70022024B11008E
:10D2840001201B68D8E7C04624BF000098BA0000FC
:10D29400FCD2051870B50223050004009D4315D186
:10D2A400182229000B4821F0A1FE0B4B29001A7803
:10D2B4000A4B186821F09AFE03210948FFF7AEFFD4
:10D2C40004210848FFF7AAFF01F02CFE200000F01B
:10D2D400D9FA70BD98BA0000D1BE000094BA00001B
:10D2E400ECD20518F4D20518FFFFFFFFFF9F0020C2
:10D2F4001F0000000000000000600400F807400266
:10D30400F0B5A54B87B01C68002C09D101F04CFE88
:10D31400002800D18BE0A04B9C68002C00D186E053
:10D324009D4B1C61A1889D4BC818052800D92AE192
:10D3340021F028FE060058007F00D00029011101C9
:10D34400954B5B7D5BB2042B02DC934A013353752E
:10D354000E26E31D0393258902ABF6186389280082
:10D36400338001F0EDF9021E1FD03388002B1CD04E
:10D374008768002F17D0200092780C307F2A0DD8B0
:10D3840001003200009720F097F90100002910D025
:10D394002A00834B1B68032098470AE001003200EF
:10D3A400B847C1B2F2E70421F2E7002D15D00123FA
:10D3B40023730E23E3713288774B0332D2B2227285
:10D3C4005B7D191C5BB2002B00DA0021A5722D0ACB
:10D3D4006172E5720420023222E0714B2900328826
:10D3E4001B68D8E76C4B5B7D5BB2042B02DC6A4A9A
:10D3F400013353750F22E31D0393E2710B3A238922
:10D404002272227B6272644A527D111C52B2002A3B
:10D4140000DA002104200622E3721B0AA17223739E
:10D4240000235D490B755F4B039921F04FFD07B055
:10D43400F0BD23000E270A33039302AB2189FF18A2
:10D444006389CEB23B80FF2904D9554B00220320C7
:10D454001B689847300001F0A5F9021E33D04568D7
:10D46400002D19D0200092783B880C30002A0ED170
:10D4740000953A00010020F01FF90500002D0ED0A0
:10D48400474B3200290003201B68984708E03A0004
:10D494000100A847C5B2F1E76389002B11D100252B
:10D4A40062893B889A4205D23D4B32002900032011
:10D4B4001B6898470E2302AAA6729B181B88E37266
:10D4C40006E00425DCE7364B310003201B6898474F
:10D4D400E27A7FE723000A33267B0393638902AA57
:10D4E4003000D38101F070F9021EECD04568002DA4
:10D4F4002FD02000927802ABDB890C30002A21D196
:10D5040002A90E3200955218010020F0D5F805004A
:10D51400002D05D0224B3200290003201B689847B8
:10D524000E2702ABFF18398863898B4204D21C4B47
:10D53400320003201B689847002DC9D13E23A372F3
:10D544003B88BCE70E2202A952180100A847C5B2C5
:10D55400DEE70425DEE7216913480A1F0918A389B9
:10D56400039112491248535412491B0A5354E38934
:10D5740011495354190A1154DAB209020A43043204
:10D58400022092B24CE7064B002203201B68984706
:10D5940000200200039043E7B4BA0000FFEEFFFF4F
:10D5A40024BF0000C1D50518FC3F005000400050C6
:10D5B40003400050014000500240005070B52D4C13
:10D5C4002D4B25691B6898472C4BAA889A4212D187
:10D5D4002B7B022B04D00222190091430D2923D165
:10D5E400217E002905D1264B0A0001201B6898479B
:10D5F40001E00139217601232375A988214B994241
:10D604001AD8053B99422ED92369002B03D0200058
:10D6140020F016FB050028001FF01AFB1A4B1B68AC
:10D624009847FFF76DFE70BD152BE4D1E17D00290D
:10D63400D9D00139E175DEE7144B994213D12000AA
:10D64400083020F0FDFA124B1A78AB891B051B0D2C
:10D654009A4203DD2B6998B203F020F90023236179
:10D6640001F08CFCD0E7064B002203201B6898478E
:10D67400CAE7C046B4BA0000B0BE000004110000FE
:10D6840024BF000005110000B4BE00000611000014
:10D69400D1BE0000F0B587B006000D00170003935B
:10D6A40000285AD08468002C4FD083787F2B29D847
:10D6B4000E2202A95218002100940800294B20F0E0
:10D6C40001F90400002C38D1B3680222180026495D
:10D6D400029321F061FC0E2302AA9B181E880028E5
:10D6E40019D12A002100330020481FF05DFA0222DC
:10D6F400040007700230039921F05CFC2000FFF75E
:10D7040007FD20E000230E2202A952181800190078
:10D71400A047C4B2D6E703221549029821F03CFC85
:10D7240033002A00210000281AD110481FF03CFAC7
:10D734000622040007700130DDE70E4B2A002100A9
:10D7440003201B68984707B0F0BD0A00012321009D
:10D7540009481FF029FA0770D1E70A0001230100E4
:10D764000248F6E7FFFF0000667C0618011100007E
:10D7740049E8051824BF00000211000070B5050037
:10D784003A4B1B689847AB88394A3A4C934205D1C7
:10D7940020002900083020F00BFA50E0364A93426A
:10D7A40007D12B7B0F2B30D006D8022B27D00D2B83
:10D7B4000AD029002000EEE7152BFAD1E37D032BD4
:10D7C4003AD80133E375F4E7EB89E97D5B069B0FF7
:10D7D40001290DD1627E022A3AD0002A02D1227E8A
:10D7E400032A35D8013B5A425341DAB2002332E0CE
:10D7F400A27EF0E7012300222DE0A2762EE003238F
:10D80400227E93429B415B4228E01C4AA97B10681C
:10D81400EB7C4218415C022923D0002902D1217EED
:10D8240003291ED8013B59424B411370237E013317
:10D834002376BEE70023137028001FF009FA104B6B
:10D844001B689847237D012B01D1FFF759FD70BD5B
:10D85400012BCFD102220129CFD16276002BE5D052
:10D86400EAE7012BE6D10223E5E7C046B0BE00009B
:10D8740006110000B4BA000004110000B0BA0000A0
:10D88400B4BE000070B5051E0C4C14D101001C225E
:10D89400200021F0ABFB0A4B29001A78094B1868C9
:10D8A40021F0A4FB200020F06DF92000083020F0C6
:10D8B40069F9012323750523637570BDB4BA0000AB
:10D8C400D1BE0000B0BA000010B500F039FFFF234C
:10D8D400002800D0C378D8B210BD0000F0B589B0DC
:10D8E40005000391029200F02BFF5D4C0700637D5D
:10D8F4007F2B05D900225B4B110001201B68984740
:10D90400594B9D4202D0637D013B6375002F00D1CA
:10D91400A2E0637D7F2B00D96DE00F21BB780493D7
:10D924001940082946D8080021F018FB05260526C9
:10D93400444444444B0000260E2204ABD218002376
:10D944009C461380039B634542D07C68644555D054
:10D9540040216B4604989B8908400590049808422E
:10D9640031D10094029905981FF0ACFF0400012CFA
:10D974002FD10023122218E0039B012B13D9029B01
:10D98400029A5B7812781B021343384A12789A423F
:10D9940009DD374A1268D25C002A04D001221B0236
:10D9A40013439EB2C8E70222029B29003800FFF706
:10D9B40071FE04E02B4B2A0003201B68984709B032
:10D9C400F0BD0226B8E760460299A047C4B2CEE78C
:10D9D400039C04AB31002A00DB8926481FF0E4F8DD
:10D9E4000600002C05D01F4B2A00210003201B68D1
:10D9F4009847002E04D100230722D6E70424E8E741
:10DA040004ABDB89002B12D07B689C46002B0ED024
:10DA14006B46BA789B89520615D4624600920E2250
:10DA240004A95218300002991FF04CFF0400002C86
:10DA340005D00C4B2A00210003201B6898473000B6
:10DA44001FF0D6F8BBE70E2204A964465218300032
:10DA54000299A047C4B2EAE73B000122A5E7C04609
:10DA6400B4BA000024BF0000350C0000D1BE000091
:10DA740094BA00000511000070B5134A0C00117827
:10DA840002050300120D002091420BDD9B0B834223
:10DA940008D11800FB2C05D802F044FF011E02D067
:10DAA4000A4BC01870BD01231A2209481FF07CF8E4
:10DAB40001250570FFF72CFB290020001FF0ACF9AD
:10DAC400044B9D75EEE7C046D1BE000000400050F7
:10DAD40003110000B4BA0000F8B5174B06009C7D92
:10DAE4000D001700002C06D010001FF01FFA0023B1
:10DAF400114A9375F8BD114B01051B78090D8B4232
:10DB040012DD01230902194322000D4889B20733AB
:10DB14001FF04AF806804580002D01D0094BFC18FF
:10DB240044601FF065F8E5E7074B02002900032075
:10DB34001B689847DEE7C046B4BA0000D1BE0000B7
:10DB44000611000000C0FFAF24BF0000F8B50D00AF
:10DB540006A90E780168070088190124824211D3AE
:10DB64001C1E09D02A6828689419A342A4413200D3
:10DB74006442640021F01EFA3B689B193B602B68E9
:10DB84009E192E602000F8BDF0B589B00500029101
:10DB940003920691002940D0CE18012317880790DC
:10DBA400C719009332003B0007A906A8FFF7CEFF70
:10DBB4000400031E26D0079B5D1B039B1D802000D1
:10DBC40009B0F0BD013305935B000493EB18079390
:10DBD40002233200009307A93B0006A8FFF7B6FF13
:10DBE400002818D1049A07A90232AB18079302231C
:10DBF4003200009306A83B00FFF7A8FF00280AD1D3
:10DC04006B461B7D0299079A0978521B9942D2D917
:10DC1400062AD7D9CFE70400CDE70623039A029C4E
:10DC24001380CCE7F0B599B01D0002903A23081E8A
:10DC34000592079160D0029B002B61D001271488C4
:10DC4400029B1C190126029B451908932A002300F4
:10DC5400009608A907A8FFF779FF002849D1029B7D
:10DC64002A009B1908930096230008A907A8FFF728
:10DC74006DFF00283DD1029B2A00023308930096D1
:10DC8400230008A907A8FFF761FF002831D1029BF0
:10DC94002A0003330893062308A9009307A8230046
:10DCA400FFF754FF002824D1029B2A00093308936C
:10DCB4000096230008A907A8FFF748FF002818D1F9
:10DCC400029B597A0390002921D1039B032B04D989
:10DCD400434B0A0001201B6898477F4200233C40C5
:10DCE4000227029E04931836039B049A934216DC7F
:10DCF4000020089B029A9B1A059A138019B0F0BD64
:10DD04004E2404ABE41809AB029F02939AE7314214
:10DD140003D0039B0133DBB203934908D3E73300F9
:10DD24000E3B08932A002300009708A907A8FFF7D1
:10DD34000DFF0028DDD133000C3B08932A0023009B
:10DD4400009708A907A8FFF701FF0028D1D13300E5
:10DD54000A3B08932A002300009708A907A8FFF7A5
:10DD6400F5FE0028C5D13300083B08932A002300A0
:10DD7400009708A907A8FFF7E9FE0028B9D1B31F47
:10DD840008932A002300009708A907A8FFF7DEFEDE
:10DD94000028AED1331F08932A002300009708A956
:10DDA40007A8FFF7D3FE0028A3D1B31E08932A00C7
:10DDB4002300009708A907A8FFF7C8FE002898D1F8
:10DDC40023002A00009708A907A80896FFF7BEFEBB
:10DDD4001036002800D08CE7049B0133049383E7BA
:10DDE40024BF0000F0B58DB007000392069100290E
:10DDF40000D176E0002843D0158801224519049209
:10DE04000126CB180293029A2B00009607A906A8B4
:10DE14000797FFF79BFE041E2BD1BB190793029AA9
:10DE24002B00009607A906A8FFF790FE041E20D138
:10DE3400BB1C0793029A2B00009607A906A8FFF7BC
:10DE440085FE041E15D1B97800291DD1022C04D9F0
:10DE5400264B0A0001201B68984706203E006043B9
:10DE6400049B5B421D40C3190593059BB34211D12A
:10DE74000024079BD81B039B188020000DB0F0BD25
:10DE840004900CAD08AFBBE7314201D00134E4B2D9
:10DE94004908D9E7331D07930123029A009307A980
:10DEA4002B0006A8FFF752FE041EE2D1B31D049313
:10DEB40007930223029A009307A92B0006A8FFF7F1
:10DEC40045FE041ED5D10223029A009308362B0086
:10DED40007A906A80796FFF739FE041EC9D1049EB8
:10DEE400C3E71023039A0C001380C6E724BF000085
:10DEF400F0B58BB007000C1E0492069166D0002882
:10DF040032D015880122451905920126E31803939E
:10DF1400039A2B00009607A906A80797FFF716FE99
:10DF2400041E1AD1BB190793039A2B00009607A964
:10DF340006A8FFF70BFE041E0FD17B783F2B05D9F3
:10DF4400244B020001001B6830009847059B5E4289
:10DF5400354000267B78B3420AD8079BD81B049B24
:10DF6400188020000BB0F0BD05900AAD08AFCCE7D7
:10DF7400B31C0593FB1807930123039A009307A985
:10DF84002B0006A8FFF7E2FD00281DD1059A07A97A
:10DF940053000222FB18079300922B00039A06A851
:10DFA400FFF7D4FD00280FD1B31DFB1807930123FD
:10DFB400039A009307A92B0006A8FFF7C7FD0028C2
:10DFC40002D10136F6B2C5E70400C6E70823049A75
:10DFD4001380C6E724BF0000F0B5B7B007001D00EA
:10DFE4000392002900D1C7E0002800D1A2E01688DE
:10DFF400861901234D1900932A00330008A907A8A4
:10E0040008970797FFF7A2FD041E00D08BE0BB1C06
:10E01400079302232A00009308A9330007A8FFF7F7
:10E0240095FD041E00D07EE03B1D079301232A00CA
:10E03400009308A9330007A8FFF788FD041E72D1D6
:10E044007B1D079301232A00009308A9330007A826
:10E05400FFF77CFD041E66D1BB1D079302232A0033
:10E06400009308A9330007A8FFF770FD041E5AD1D6
:10E074003B000833079301232A00009308A93300C7
:10E0840007A8FFF763FD041E4DD13B000933079336
:10E0940001232A00009308A9330007A8FFF756FDBF
:10E0A400041E40D13B000A33079301232A00009346
:10E0B40008A9330007A8FFF749FD041E33D13B002C
:10E0C4000B33079301232A00009308A9330007A800
:10E0D400FFF73CFD041E26D13B000C3307930223BB
:10E0E4002A00009308A9330007A8FFF72FFD041E98
:10E0F40019D1BB7B2A0004933B000E330793012301
:10E1040008A9009307A83300FFF720FD041E0AD1D5
:10E11400049B02975B00DB19059301230493059B81
:10E12400029A934209D1089BD81B039B18802000B4
:10E1340037B0F0BD36AE09AF5BE7029B2A000F3360
:10E144000793049B08A9009307A83300FFF7FEFC7C
:10E1540000280FD1029B2A0010330793049B08A9BF
:10E16400009307A83300FFF7F1FC029B02330293EC
:10E174000028D4D00400D6E7039B0C001980D6E70E
:10E18400F0B5B7B007001D000492002900D1B8E033
:10E19400002800D193E01688861901234D190093B5
:10E1A4002A00330008A907A808970797FFF7CEFCB1
:10E1B400041E00D07CE0BB1C079302232A000093BA
:10E1C40008A9330007A8FFF7C1FC041E70D13B1D4A
:10E1D400079301232A00009308A9330007A8FFF737
:10E1E400B5FC041E64D1BB1D079302232A000093CF
:10E1F40008A9330007A8FFF7A9FC041E58D13B0067
:10E204000833079301232A00009308A9330007A8C1
:10E21400FFF79CFC041E4BD13B00093307930123F9
:10E224002A00009308A9330007A8FFF78FFC041EF7
:10E234003ED13B000A33079301232A00009308A927
:10E24400330007A8FFF782FC041E31D13B000B33D7
:10E25400079301232A00009308A9330007A8FFF7B6
:10E2640075FC041E24D13B000C33079302232A00BF
:10E27400009308A9330007A8FFF768FC041E17D110
:10E28400BB7B2A0005933B000E330793012308A9A7
:10E29400009307A83300FFF759FC041E08D1059B1F
:10E2A40003975B00DB190593059B039A934209D1FD
:10E2B400089BD81B049B1880200037B0F0BD36AEF5
:10E2C40009AF6AE7039B2A000F330793012308A9C8
:10E2D400009307A83300FFF739FC00280FD101236E
:10E2E400039A009310323300079208A92A0007A862
:10E2F400FFF72CFC039B023303930028D4D00400C3
:10E30400D6E7049B0C001980D6E7F0B5C9B00C0021
:10E314001D0002900592002900D1E2E000282ED0D1
:10E3240016888619029B65190793069301232A0010
:10E33400009307A9330006A8FFF708FC041E16D1B2
:10E34400029B2A0001330693012307A9009306A820
:10E354003300FFF7FBFB041E09D10123029F049045
:10E3640019370393029B049A5B7893420BDC079B57
:10E37400029A981A059B1880200049B0F0BD08AB9A
:10E3840048AE0293CEE73B00173B069302232A00D4
:10E39400009307A9330006A8FFF7D8FB002800D094
:10E3A4009DE03B00039A153B0693009233002A003C
:10E3B40007A906A8FFF7CAFB002800D08FE03B009E
:10E3C400143B069306232A00009307A9330006A8EA
:10E3D400FFF7BCFB002800D081E03B00039A0E3B12
:10E3E4000693009233002A0007A906A8FFF7AEFBA4
:10E3F400002874D13B00039A0D3B0693009233002E
:10E404002A0007A906A8FFF7A1FB002867D13B0053
:10E41400039A0C3B0693009233002A0007A906A82E
:10E42400FFF794FB00285AD13B00039A0B3B069359
:10E43400009233002A0007A906A8FFF787FB0028EB
:10E444004DD13B00039A0A3B0693009233002A0005
:10E4540007A906A8FFF77AFB002840D13B00093B37
:10E46400069302232A00009307A9330006A8FFF7A6
:10E474006DFB002833D1FB1F0693039B2A000093F6
:10E4840007A9330006A8FFF761FB002827D1BB1FAB
:10E49400069306232A00009307A9330006A8FFF772
:10E4A40055FB00281BD1039B2A00009307A93300C6
:10E4B40006A80697FFF74AFB002810D13B787A1C80
:10E4C400069200932A00330007A906A8FFF73EFB33
:10E4D400FE37002803D1049B0133049342E7040070
:10E4E40045E7059B198047E7F0B58FB007000C009E
:10E4F4001D000592002900D188E000282BD0168841
:10E5040086190123651900932A00330008A907A876
:10E5140008970797FFF71AFB041E15D17B1C079376
:10E5240001232A00009308A9330007A8FFF70EFB74
:10E53400041E09D13B001133029301230490039379
:10E544007B78049A93420BDC089BD81B059B1880AC
:10E5540020000FB0F0BD262604ABF61809AFD0E7B3
:10E56400029B2A000F3B0793039B08A9009307A86B
:10E574003300FFF7EBFA002846D1029B2A000E3B3A
:10E584000793039B08A9009307A83300FFF7DEFA5B
:10E59400002839D1029B2A000D3B0793062308A9C2
:10E5A400009307A83300FFF7D1FA00282CD1029A70
:10E5B40008A9D31F039A0793009233002A0007A8DF
:10E5C400FFF7C4FA00281FD1029A08A9931F0793E2
:10E5D40006232A00009307A83300FFF7B7FA0028A0
:10E5E40012D1029B2A000793039B08A9009307A852
:10E5F4003300FFF7ABFA029B10330293002803D1D8
:10E60400049B013304939BE704009DE7059B198059
:10E614009EE7F0B595B007000C001D000592002997
:10E6240000D189E000282BD01688861901236519AA
:10E6340000932A00330008A907A808970797FFF753
:10E6440085FA041E15D17B1C079301232A0000932D
:10E6540008A9330007A8FFF779FA041E09D13B0083
:10E664000A3302930123049003937B78049A934220
:10E674000BDC089BD81B059B1880200015B0F0BD4F
:10E684003F2604ABF61809AFD0E7029B2A00083BEB
:10E694000793039B08A9009307A83300FFF756FAD2
:10E6A400002847D1029B2A00073B0793039B08A934
:10E6B400009307A83300FFF749FA00283AD1029BD8
:10E6C4002A00063B0793062308A9009307A83300F2
:10E6D400FFF73CFA00282DD1029B2A000793039BE5
:10E6E40008A9009307A83300FFF730FA002821D1C6
:10E6F400029B029A1B780132079200932A0033008E
:10E7040008A907A8FFF722FA002813D1029B2A00C0
:10E7140020330793039B08A9009307A83300FFF74E
:10E7240015FA029B29330293002803D1049B013379
:10E7340004939AE704009CE7059B19809DE7000079
:10E744008205920D830A012B19D0032B19D0042BB7
:10E7540019D0052B19D0082B19D000203F2B0DD12F
:10E764003A3B0F49DB00CB1858685988002805D07C
:10E774000C234B43C31898420BD10020704700234D
:10E78400EFE70123EDE70223EBE70323E9E70423A3
:10E79400E7E701888905890D9142EFD00C30EAE75B
:10E7A400ECE80518002310B502000648D9000C5CFB
:10E7B400944201D1401810BD0133092BF6D1002039
:10E7C400F9E7C04620EE05180200002310B50549FC
:10E7D400DC0060180C5D944203D00133182BF7D190
:10E7E400002010BD68EE05184242484242364248B5
:10E7F4004848420042424848484800424248384259
:10E804000042483842480042424842423642364278
:10E81400364248484842004242363442004242337B
:10E824003242004242484242004242484242364258
:10E83400424842004248424242426E420042424200
:10E84400484200424242364200424248484842421C
:10E85400364242484200424848484C00424833420B
:10E8640033424242423642424242424242420042E1
:10E874003842004848424242364242420042333122
:10E8840042004248484242004848424236424248D6
:10E8940048484848480042483542004838424831D0
:10E8A4003642004236423136423136420048424214
:10E8B40042480042484848004242484800424242D6
:10E8C40036424848420042364242004242424242B4
:10E8D400426E4200484248484200363442420042B6
:10E8E400424842484800000001000200C0ED0518FB
:10E8F400030009001CE905180400040088E9051850
:10E9040005000100D8ED051808005600B8E90518FF
:10E914003F000500E4ED0518010C000874E8051833
:10E9240084E80518030C00000000000084E80518C2
:10E934002D0C110335E8051834E80518310C0001D5
:10E9440084E8051884E80518330C0007E5E8051881
:10E9540084E80518350C401E8DDB051884E805187D
:10E964007B0C1102677C0618BDE805187C0C1104A9
:10E97400BEE80518667C0618630C000874E80518E0
:10E9840084E805180110000000000000E3E8051801
:10E9940002100000000000001CE80518031000002D
:10E9A4000000000073E805180910000000000000D2
:10E9B40049E805183920422AF5DE051884E80518C7
:10E9C4003620021960E80518E0E80518372002FF30
:10E9D400D2E8051884E805180120020874E805182F
:10E9E40084E80518022002000000000034E805183D
:10E9F400032002000000000073E805180520020649
:10EA0400AEE8051884E8051807200200000000009D
:10EA1400E0E805180620020F77E8051884E80518D1
:10EA24000820022081E8051884E80518092002203E
:10EA340081E8051884E805180A20020184E805180D
:10EA440084E805180B20020786E8051884E80518F1
:10EA54000C200202E0E8051884E805180D200219CC
:10EA64008CE80518000000000E20020000000000E1
:10EA740084E805180F20020000000000E0E80518F3
:10EA8400102002000000000084E80518112002078D
:10EA940049E8051884E805181220020749E8051812
:10EAA40084E805181320130E7E7C0618000000006D
:10EAB400142002059CE8051884E8051815201302A3
:10EAC400677C06189AE8051816201302677C061856
:10EAD4000000000017200220AAE80518ACE8051879
:10EAE400182002000000000073E805181920131C08
:10EAF4009FE80518000000001A201312A2E8051868
:10EB0400667C06181B201302677C0618667C0618B0
:10EB14001C2002000000000073E805181D200201FB
:10EB240084E8051884E805181E2002037DE805180A
:10EB340084E805181F20020000000000667C061807
:10EB44002020130E7E7C0618667C061821201303F1
:10EB540035E80518667C061822201306B8E805185F
:10EB6400667C06182320020000000000BDE805189A
:10EB740024200204BEE8051884E8051825200200B4
:10EB84000000000000000000262002401DE80518D7
:10EB94000000000027200227A7E8051884E80518CC
:10EBA4002820020749E8051884E8051829200200EE
:10EBB4000000000084E805182A200200000000007C
:10EBC400E0E805182B20020749E8051849E805186C
:10EBD4002C20020749E8051849E805182D200201F0
:10EBE40084E8051884E805182E200202677C0618BC
:10EBF40084E805182F20020000000000F9E705183A
:10EC040030201302677C061828E805183120020317
:10EC14007DE8051884E8051832201307B1E80518C3
:10EC240000000000332002037DE8051884E805187D
:10EC3400342002046EE8051884E80518352002071C
:10EC440049E8051884E80518382002FFD2E80518B9
:10EC540084E805183A20020000000000667C0618CB
:10EC64003B20020000000000E0E805183C200201FF
:10EC740084E8051884E805183D200200000000001F
:10EC840084E805183E200207B7E8051884E805184B
:10EC94003F2002FFD3E8051884E80518402002024B
:10ECA400E0E8051884E805184120420DE9DD05185F
:10ECB40084E8051842200206BCE8051884E8051813
:10ECC4004320423A29DC0518000000004420020ECB
:10ECD400C1E8051800000000452002000000000003
:10ECE40084E8051846200202677C061884E80518A3
:10ECF40047200208CAE8051884E8051848200208D5
:10ED0400CAE8051884E8051849200200000000003C
:10ED140084E805184A20020000000000E0E8051815
:10ED24004B200200000000007DE805184C20020082
:10ED340000000000BDE805184D200204BEE80518D7
:10ED440084E805184E200208CAE8051884E8051866
:10ED54004F200252CFE8051884E8051850200252CB
:10ED6400CFE8051884E805185920020335E805188A
:10ED740084E805185A201306B8E80518667C0618B6
:10ED84005B201305C6E80518667C06185C2003089A
:10ED9400D8E80518667C06185D200206C5E8051843
:10EDA40084E805185E200241DEE805180000000032
:10EDB4005F20020184E8051884E80518060411039D
:10EDC40035E80518000000001D041102677C0618D0
:10EDD4000000000005141102677C061834E80518C9
:10EDE40011FC080184E8051884E8051812FC0800E1
:10EDF400000000005AE8051813FC1304BEE80518C7
:10EE0400667C061814FC1305C6E80518667C06180B
:10EE140015FC1306B8E80518667C06180501000001
:10EE240034E805180801000034E805180C01000056
:10EE3400E4E805181000000084E80518110100003A
:10EE4400677C061813020000BDE805181A000000CC
:10EE540084E8051830010000667C0618570100009C
:10EE6400677C061801000000ECE7051802000100A9
:10EE740017E6051803010000F8E70518040100006F
:10EE8400FFE705180501000005E805180601000064
:10EE94005D7C0618070100005D7C06180A0000006E
:10EEA4000BE80518080000001BE80518090000001D
:10EEB40021E805180B000100EDE405180C01000021
:10EEC40027E805180D0001000FE305180E000000E7
:10EED4002DE805180F00000038E8051810000000A0
:10EEE400667C06181100000084E805181200000072
:10EEF40041E805181300000047E805181401000054
:10EF040034E805181500010085E105181601010013
:10EF1400DDDF051817010000B3E80518180000002C
:10EF24004DE8051810B508220021024820F05EF8CB
:10EF340010BDC046D0BA00001123FA2802D9024BF2
:10EF44005980002318007047D0BA0000084B094AC2
:10EF54001B681278D2189A4203D1074B187000200C
:10EF640005E00133591E09780029F4D00C207047BC
:10EF740094BA0000D1BE0000D0BA0000034B1A7846
:10EF8400002A02D0DA880132DA807047D0BA000051
:10EF9400044A0021D388834201D91B1A99B2D18033
:10EFA4007047C046D0BA0000064A1378002B07D039
:10EFB4005388D2880020934201D99B1A98B2704793
:10EFC4000148FCE7D0BA0000FFFF0000F7B50F00CE
:10EFD4004A688021436806008068D51A0090B868A2
:10EFE4002D012D09090501908D4227D99B1A1B017A
:10EFF4001B095D42002B03D1019B009A93421FD849
:10F00400019B3F690524D819009BC01A002834DDF0
:10F014001B490138FEF764F8E8422ED4009B30699E
:10F02400013C1818019BC01AC01B002825DC154997
:10F03400FEF756F84419E40F03341EE0002DDBD02C
:10F044000024009B36699E19019BF61AA64214DD22
:10F054000C49701EFEF744F84019A0420DDC3869D3
:10F064000134301A002808DD06490138FEF738F863
:10F0740045196C1E2C43E40F01342000FEBDC0462C
:10F08400710200008FFDFFFF37B568461CF010FFCA
:10F09400019B9C2019009131FF31009A800081422C
:10F0A40004D9E13B19000132120112090F4B1B680C
:10F0B400002B12D00E485C6800780E4D201A000117
:10F0C40000099C68831A1B011B09AB420BD89042B0
:10F0D40001D1A14204D2210002E0012019004042E2
:10F0E4001DF03EF937BD1000FAE7C046D8BA00005B
:10F0F400E8BE0000FEFFFF07394BF0B5DD680023D2
:10F1040085B003900093002D07D1354BDB68002BAD
:10F1140001D01DF0DFF905B0F0BDAA8A2B68029377
:10F12400930B5AD03F233F2011110B40014254D07E
:10F134000024A97D303810400918A9752949013BDC
:10F144001B010A4013439BB2AB82039E9B0B0193AA
:10F15400002E0DD1224E2A00300000990C301EF0F2
:10F16400B1FD2A00210030001EF04AFE009D34E06B
:10F1740031002800FFF72AFF0028EBD0052802D130
:10F1840034003668E4E7B368326917499F183800D9
:10F19400FDF79EFF73681449C4183800FDF7A8FFF3
:10F1A400AB688B428941494264182401019B2409BC
:10F1B4006C60012BE4D98023E8681B05071B3F0121
:10F1C4003F099F4203D9271A3F013F097F4206495D
:10F1D4002869FDF77DFFB842D2DD0095029D92E7D4
:10F1E400D8BA00000FFCFFFF71020000013810B50F
:10F1F400012809D8054C20001EF0C4FC20000C3066
:10F204001EF0C0FC0023A36010BDC046D8BA0000A5
:10F21400F0B5854B01690400CA18844B87B09A4243
:10F2240004D9834B002203201B6898479C23A268BF
:10F234009B009A4205D900227D4B110001201B68D6
:10F2440098477C4B1B68984704A81CF031FE7A4B06
:10F25400049A1B7805999B18FA2292001B018918BD
:10F26400793A1B09FF3A914215D86568734EEA1A38
:10F274001201A08A1209B24204D89D4219D1A2688F
:10F284008A4216D2820B0CD101256D4B1B6898471C
:10F29400280007B0F0BD644801331B0109181B099D
:10F2A400E1E7A26863608A4203D201331B011B09B0
:10F2B4006360800B012812D98020E168636800052F
:10F2C400CA1A12011509854203D95B1A1B011B09CD
:10F2D4005D425C492069FDF7FBFEA842D4DC5A4B31
:10F2E4009D68002D00D11D680026029601960396A4
:10F2F400002D6FD0A54205D100224D4B11000120F5
:10F304001B68984729002000FFF760FE002861D0A1
:10F31400052813D0A17DAA7D914230D94A4B9B6820
:10F32400AB422CD0019B002B00D1019502239843C2
:10F334000136C0B2F6B2029501284BD0A38A9B0BCA
:10F34400012B13D98021E26863680905D71A3F01AC
:10F354003F098F4203D99F1A3F013F097F42394930
:10F364002069FDF7B5FEB84200DD8DE7364B9A689B
:10F37400AA424FD0002E00D103952D68B8E7A38A86
:10F384009B0B18D0AB682A692E499F183800FDF7EB
:10F394009FFE6B682B49C6183800FDF7A9FEA368C9
:10F3A4008B42894149427618360136096660002647
:10F3B40002960196C2E7914200D865E7224B9B680A
:10F3C400AB4200D060E7C31EDBB2012B00D95BE780
:10F3D4000328B3D1019B1C4D002B0AD02800029AAC
:10F3E40003991EF0A5FC2800029A01990C301EF026
:10F3F400F5FB039B002B0FD02200190028001EF000
:10F40400FFFC0025019BAB4200D13EE72000FFF743
:10F4140073FE3AE71D686BE7210028001EF0FEFB2F
:10F42400FFF732FEEDE7C0468FFDFFFF0F18060021
:10F4340024BF0000B0BE0000E8BE0000FEFFFF07CE
:10F44400B4BE000071020000D8BA0000174B70B5BA
:10F454001B6806000C009847002E05D10024144BAD
:10F464001B689847200070BD124DAB68B34202D1AF
:10F474000024AC60F3E7002CF0D12B689E4205D148
:10F4840028001EF0DDFBFFF7FFFDE8E73100280050
:10F494001EF0E0FB0028E1D1280031000C301EF002
:10F4A400D9FB0028DAD10224D9E7C046B0BE000057
:10F4B400B4BE0000D8BA0000F0B5374E85B0346849
:10F4C40002A81CF0F5FC002C06D1F368002B5FD1D8
:10F4D400FFF7DAFD05B0F0BD0625039B62680193D2
:10F4E4002E4B029F1B78ED1BD31A5A192C4912017B
:10F4F40012098A4208D806331B011B09BB4227D1D3
:10F50400A368019A934223D230001EF099FB0100B4
:10F5140030000C301EF04CFB3468002CD5D01F4B4F
:10F5240062681B78D31A5D191D4A2D012D09954275
:10F5340008D806331B011B09BB4209D1A368019AF1
:10F54400934205D20022174B110001201B689847F3
:10F55400124B62681B781249D31AFA43D21812016B
:10F5640012098A4208D8013B1B011B09BB42ACD1DA
:10F57400A368019A9342A8D830001EF061FB836906
:10F58400B060002B00D098473468002CE0D19CE791
:10F594001CF0A0FF9CE7C046D8BA0000E8BE0000FB
:10F5A400FEFFFF0724BF000070B50F4E30000C3083
:10F5B4001EF048FCC4B263B2002B00DC70BD300006
:10F5C4000C301EF03DFB051E05D1084B0200010066
:10F5D4001B68012098472B6A002B01D0280098470C
:10F5E400013CE4B2E7E7C046D8BA000024BF0000FB
:10F5F400124B13B51C68002C1CD068461CF058FC38
:10F604009C22019BC8219200D21A002349009142F6
:10F614005B41009A01339B181B0162681B09D21AD3
:10F624000749120112098A4200D9636060681CF01C
:10F634006FFE13BD01204042F9E7C046ECBA00005A
:10F64400FEFFFF07013810B5012802D801481EF05B
:10F6540099FA10BDECBA000013B568461CF028FCFA
:10F664000E480468002C17D06268009B9B1A0C4A51
:10F674001B011B0993420DD81EF0E2FAA168002970
:10F6840002D020008847E8E7064B0A0001201B68E7
:10F694009847E2E7FFF7ACFF13BDC046ECBA0000A1
:10F6A400FEFFFF0724BF000073B51D4B04001B6859
:10F6B400984768461CF0FCFB9C22019BFA219200AF
:10F6C400D21A0023490091425B41009A01339B18EE
:10F6D4001B0162681B09D21A124D12011209AA42B7
:10F6E40000D96360002110480268002A08D100296B
:10F6F40010D022001EF084FB0C4B1B68984773BD8E
:10F70400536866689B1B1B011B09AB42EFD91100B0
:10F714001268EAE721001EF081FAFFF769FFEBE7C0
:10F72400B0BE0000FEFFFF07ECBA0000B4BE00004C
:10F734000F4B70B51B68050098470E4C23689D421B
:10F744000ED120001EF07CFA2368002B05D1002482
:10F75400094B1B689847200070BDFFF749FFF6E787
:10F76400290020001EF076FA0028F0D10224EFE7E9
:10F77400B0BE0000ECBA0000B4BE000070B5144D79
:10F7840004002B00FF335A78824204D0114B01004D
:10F794001B68032098472B00FF33D978002904D134
:10F7A4000C4B0A0001201B68984724012B19197B74
:10F7B400002904D1074B0A0001201B689847291926
:10F7C4004B68002B03D0022289682859984770BDE2
:10F7D400F4BA000024BF000070B5144D04002B00DF
:10F7E400FF335A78824204D0114B01001B68032076
:10F7F40098472B00FF33D978002904D10C4B0A0019
:10F8040001201B68984724012B19197B002904D176
:10F81400074B0A0001201B68984729194B68002BE5
:10F8240003D0032289682859984770BDF4BA0000B0
:10F8340024BF0000F8B5284C05002300FF33D97815
:10F84400002904D1254B0A0001201B6898472E018A
:10F85400A7193B7B002B31D0214BE81800011CF089
:10F8640059F98006400F062828D17B68002B1ED04A
:10F874000422B968A05998472300FF335A78AA4252
:10F8840003D10F20013505405D7000232200A61925
:10F89400FF323373D378013BD370FF34E378012B09
:10F8A40013D10F22637801331340A370F8BD0B4AC0
:10F8B4001900176801201A00B847DDE70022074B3A
:10F8C400110001201B689847E7E7002BEED1802048
:10F8D40080001CF0B3FCE9E7F4BA000024BF000088
:10F8E40000040005F8B5304E04003300FF335A78A5
:10F8F400824204D02D4B01001B68032098472C4BF7
:10F90400E01800011CF006F93300FF33D9788506AE
:10F914006D0F002904D1254B0A0001201B6898476C
:10F924002701F3191B7B002B05D1204B2200290052
:10F9340003201B689847EB1E022B05D900221B4BA2
:10F94400110001201B689847F1194B68002B23D044
:10F95400043D6A426A418968F059D2B2984700234B
:10F9640032000F25F719FF323B73D3789178013BAE
:10F97400DBB2D370A14206D001342C402201B2186C
:10F98400127B002AF6D0FF367470002B03D180203E
:10F9940080001CF053FCF8BD044A190015680120CE
:10F9A4001A00A847DBE7C046F4BA000024BF0000F1
:10F9B40000040005013870B5012816D88222002100
:10F9C4000A4852001FF012FB38261825084C200064
:10F9D4001CF0A0F80100B1432943200089B21CF0B7
:10F9E400ABF8044B10349C42F1D170BDF4BA000062
:10F9F40000400050004100500C4B70B51C682501BC
:10FA04002D0F230702D52800FFF7E6FEE30602D5F3
:10FA14002800FFF7B3FE630702D5200FFFF70AFFA4
:10FA2400A30702D52800FFF75DFF70BD2400005036
:10FA3400F0B5A94E85B03300FF339A7804000092E4
:10FA44005A780099881A0F2108400290DB78002B1D
:10FA540008D0009B9A4205D1A04B009A03201100C4
:10FA64001B6898470F20009B6268013B0340019389
:10FA74001B01F3589A4205D10022984B11001B68D0
:10FA84000E389847009B964A07279D182D01280099
:10FA94001CF040F8C0103840012800D0FAE03300D0
:10FAA400FF3359788D4B03201B68009A9847029BBB
:10FAB4000D2B1BD9894B1B680393009B981E0F23A6
:10FAC4001840874BC01800011CF024F8844A019B9D
:10FAD40094466344070018011CF01CF80721C21067
:10FAE400FF100A400220039B394098470127009BDE
:10FAF40061681B01F150F618236989B2B360236869
:10FB0400377373609C26A81C1CF016F86368281DC4
:10FB14001901090D1CF010F8A368B600B34205D909
:10FB240000226E4B110038001B689847A368F61A30
:10FB3400B6B2B30A05D00022684B110001201B683D
:10FB44009847A81D31001BF0F7FF2F008023E068C1
:10FB54000A371B02984200D2A5E0624B1900C01874
:10FB6400FDF7B6FA0600030405D500225B4B11002D
:10FB740001201B6898475C49314389B238001BF067
:10FB8400DBFFA37D1A1C1F2B00D91F22617DD2B27B
:10FB940012020B1C1F2900D91F232800D9B21143BC
:10FBA4000C301BF0C9FFE17D504F0B0201933B4227
:10FBB40005D00022494B110001201B6898472E00F4
:10FBC4000E3630001BF0A6FF019B07401F43300098
:10FBD400B9B21BF0B1FF637E002B3BD1702128002A
:10FBE4000D26237E083059435131FF3189081BF01B
:10FBF400A3FF029B3E489E42B6417642B302019364
:10FC0400237F227DA67E002B51D0E77E141C1F2A61
:10FC140000D91F24E4B23602E402064205D00022D1
:10FC24002E4B110001201B689847FF0180233A00E6
:10FC34009A4305D00022294B110001201B689847E4
:10FC44004221019B33431C4327433943280089B293
:10FC54001BF072FF0F23009A9A4305D000221F4B1A
:10FC6400110001201B68984780230F218020009AEF
:10FC74001B0613431F4A80001360174BFF339A7807
:10FC840001320A409A70DA780132DA701CF036F9DF
:10FC940005B0F0BD28001BF03DFFC0100740022F47
:10FCA40000D004E7FBE60130400881B266E7141C8B
:10FCB4001F2A00D91F24E4B23602E402064205D00A
:10FCC4000022064B110001201B6898470221019B6A
:10FCD40033431C432143B9E7F4BA000024BF0000B6
:10FCE40000040005710200000080FFFFFFE0FFFF39
:10FCF400FFFEFFFF00010050F0B593B01C0002901E
:10FD04000E910492002809D1002A75D10022B74B24
:10FD1400110001201B68984701236BE0002CF5D0EB
:10FD240063680393A3890D930023802510A80B9384
:10FD34001CF0BEF8109B2D051D402B005A1E93414C
:10FD4400DBB20193039B002B05D1A84B039A01203E
:10FD540011001B6898470022A54B1A60A54B1B781D
:10FD6400934258D1A34B019A1A70029B012B6AD17A
:10FD740023680593059B002BCED0039B002BCBD08F
:10FD84000B9B0193029B012B01D1A36801939A4B16
:10FD94001E68002337000A930993039B013B0F93CA
:10FDA400002F00D1C0E0019B059A93421BD2029B15
:10FDB400002B4BD10E9B002B48D03B697D680693EA
:10FDC400002D51D0069B002B4ED0BB8A0D9A934236
:10FDD4004AD0059B2C009D4200D91C00069B039A27
:10FDE4009B18A34234D90A9B002B02D0804B099A5A
:10FDF4001A6003230293B6E0049B9B6803930E9B53
:10FE0400002B02D0049BDB680393049B1B8A0D9395
:10FE1400049BDB7C89E7002DA4D18026764B7605F4
:10FE24001D68002D9ED06F68AB683900FB18300048
:10FE34000593FDF75DF9059B581A3900FDF758F94C
:10FE4400A9602D68EDE7049B5B6992E7FB68B5E761
:10FE540021000598FDF74CF9002905D1210028005F
:10FE6400FDF746F9002902D03F68019932E02100EC
:10FE7400B868FDF73DF9069B0D005B180C93210053
:10FE8400013B01980893FDF733F98C460F9B0691CB
:10FE9400634407938D4200D9B0E0089B8B4207D29C
:10FEA400079B9D4218D8089B079A934200D298E07A
:10FEB400029B012B32D021000C98FDF719F9019B0C
:10FEC4008B4224D201230B9A0B40002A21D0002B11
:10FED40022D03700019163E7069B9D4203D1089B22
:10FEE400079A9342E4D9089B9C4206D81800210043
:10FEF400FDF7FEF8069B9942DAD2079B9C42B3D8E1
:10FF040021001800FDF7F4F8A942ADD3D0E7091990
:10FF1400D5E73700002BDDD00131DAE7012309975B
:10FF2400059937000A93D5E70A9B002B02D0304B82
:10FF3400099A1A60019B059A934200D359E7029BE0
:10FF4400002B4CD1049B019A5F699A611B8A06932A
:10FF54007B1E9B180593002E08D139000598FDF7E8
:10FF6400C7F8049BD961029813B0F0BDB38A069A0E
:10FF7400934217D07568BD4200D93D00002D05D1CC
:10FF84001A4B2A00290001201B68984729003800D1
:10FF9400FDF7AEF8002905D129007068FDF7A8F82F
:10FFA400002901D03668D6E72900B068FDF7A0F82B
:10FFB4000C00019BA34210D2039A9B189C4205D2C9
:10FFC40000220A4B110001201B689847039BE41A86
:10FFD400059BA342E6D90594E4E76419E9E7002305
:10FFE40008E7069B9D4200D27DE761E724BF00003D
:0CFFF400F8BB000004BC0000FCBB0000D7
:020000041806DC
:10000000079B9D4200D855E76BE7C046013810B505
:10001000012805D80022034B03481A701DF0B4FDD7
:1000200010BDC04604BC0000FCBB00001FB5C16889
:100030000400002904D1184B0A0001201B689847CE
:100040006A46636801200093E3680193A38A938161
:100050000022A368110002936B46FFF74FFE0328AE
:1000600009D10E4B1B68002B05D0A1699A690029A4
:1000700006D1002A0BD1210009481DF09BFD1FBDB0
:10008000002A03D0A17D9A7D914200D32300988A53
:100090009B699847EFE7C04624BF0000F8BB00000B
:1000A000FCBB000010B5010001481DF0D5FD10BDDE
:1000B000FCBB0000F7B50368466804004661019385
:1000C0009E4216D92B4B01271A6800237F42002A33
:1000D00022D1002B2CD1A57C002D48D02900300046
:1000E000FCF7F8FF4543019BAB4202D8AE4200D378
:1000F00065610023220001211800FFF7FFFD0028A1
:1001000009D0A368E268934205D2002322001900B7
:100110001800FFF7F3FDFEBD908A218A884205D0C2
:1001200051680133DBB28F4200D90F001268CEE76D
:10013000BE4206D339003000FCF7CCFF78430500FF
:10014000D1E7012500966D4238000099FCF7D2FFF7
:100150000023994201D1009D0133009A023A009296
:100160000099019A8A42BED8002BEDD0BBE7012549
:100170006D42BBE7FCBB0000002210B5030011007C
:100180000120FFF7BBFD10BDF0B58DB001240A9131
:1001900001920293002A37D0029B002B34D0129B8D
:1001A0001D88139B1B8804939D422DD8464B1B68CA
:1001B0000793029B079E013B9BB209931300029A8F
:1001C0009B1A9BB20693039383B20B93002E00D12C
:1001D00075E0049BAB4200D273E00A9BFF2B16D163
:1001E0000024049BAB4200D86BE05F1B039B9F4243
:1001F00000DD1F0028000199FCF77CFF129B89B2EB
:100200001980139BC919198020000DB0F0BD7768C3
:10021000002F23D0F3680593002B1FD07F22B38AD1
:1002200013400B9A934219D0019CBC4200D93C0068
:10023000A3B2059A0893029B9B189C423DD3B368D6
:100240000198A1B20893FCF755FF89B2002905D1A6
:1002500021003800FCF74EFF002901D03668B5E7D1
:10026000089B2800E318A1B21F00FCF743FF88B2E7
:10027000381A2100FCF73EFF05988BB201380F00B9
:10028000401821000893FCF735FF099BBAB289B2E8
:10029000934201D28A4206D90135069B6918079E0E
:1002A0008DB2039392E7039B029A9B18BB42D5DD64
:1002B000089B9B1A9BB20393D0E7032491E7340079
:1002C0008FE70324A0E7C046FCBB0000F7B52B4F27
:1002D0002B4DBB89BE68AB8001235B422B60294B51
:1002E0000193002E15D1019A274B5343AA889A42B5
:1002F00000D91A00AA807A68531C09D02B68591CAF
:1003000005D09B1A21491B011B098B4200D92A6089
:10031000F7BD002380221206DA40164202D10133D3
:10032000202BF7D11F22D31A0093194B009A1B7868
:10033000934205DC0022174B110001201B689847EF
:10034000009BDA00144B1B689B181C68002C0FD014
:1003500098880D49FCF7BEFE241AA4B2022C01D9DC
:10036000023CA4B2019BA34200D923009BB201939B
:100370000123009A93409E43B3E7C0460CBC0000A3
:100380001CBC0000FFFF000071020000FEFFFF0721
:10039000D1BE000024BF000008BC000037B5013802
:1003A000012822D8114C1022002120001EF020FE2E
:1003B0000F4B00211A780F4BD20018681EF018FE60
:1003C00001230D4D5B4263602B606B46D91D0223F8
:1003D00022000B70094B17201B680C32984700282D
:1003E00001D0074BA381A389AB8037BD0CBC0000B3
:1003F000D1BE000008BC00001CBC0000DCBE000038
:10040000E45700000122824010B503490B781343E2
:100410000B70FFF75BFF10BD0CBC00000122824097
:1004200010B503490B7893430B70FFF74FFF10BDD6
:100430000CBC00000300012070B505009D40084A77
:1004400014782C431470022B03D15160FFF73EFF48
:1004500070BD0022034B11001B689847F6E7C046A9
:100460000CBC000024BF00000300012010B50400F4
:100470009C400B4A1178A1431170022B0AD1033B17
:100480005360FFF723FF074B1B68013301D114F0C2
:10049000E3FD10BD0022044B11001B689847F0E7F4
:1004A0000CBC00001CBC000024BF0000033810B5C9
:1004B00001280ED80A48CC00006800198380012367
:1004C0008B400260074A91680B439360FFF7FEFE82
:1004D00010BD0022044B110001201B689847F5E76E
:1004E00008BC00000CBC000024BF0000033810B59D
:1004F00001280DD800200A4BCA001B68D0500123E8
:100500008B40084A916899439160FFF7DFFE10BD68
:100510000022054B110001201B689847F5E7C046F3
:1005200008BC00000CBC000024BF000010B5040093
:1005300000F02EF8002C02D020000DF039F8200039
:1005400006F0DAFB200000F00BFC10BD70B5802532
:100550006D020B4A1368002B11D02B42FAD0094BC5
:10056000094C1D60094B032019681A682368120C96
:10057000984700220120110023689847E9E770BDE1
:10058000100000501400005024BF00006000005014
:100590007021F0B5814D0C262B780400181D4143C5
:1005A00003209A1C56435431FF3136188143891970
:1005B0007B4E8143377838267E433618891930269A
:1005C0005E438143AB31361881438919754E8143AF
:1005D000891946265E43814336188919120212187A
:1005E000814389182722534381431B18C91880234C
:1005F000814369318143E1318143091881430918FD
:1006000085B081431B02994204D9674B890A1B6854
:10061000073A9847002C05D0013C012C00D899E0FE
:1006200005B0F0BD2100202260481EF0E1FC5B4BCC
:10063000702518785A4B41001A7838235A43083BE2
:100640004343033301930C23071D84B20230434319
:1006500003269C467D435435FF35B444B543654479
:100660000332B5435519B543019BAB35B5435D190D
:100670004C4BB543ED18B543ABB24D4D02932B68CF
:100680000139039323239C4609B24B1C56D1702594
:100690000C266F4381B2704354376D3DFF37AF4333
:1006A00040193818A8431218AA43019BAB32AA4339
:1006B0009A18AA4392B215003E483F4B0068D318DF
:1006C000FB3D9BB24430ADB20380013BFF3B9BB28C
:1006D0000838AB42F8D14623324E634392190326C1
:1006E000601CB24303339B180500C2003348B34378
:1006F00000689BB28018ADB22A02013D9A182DB253
:10070000828008386A1CF6D12720090203315B1861
:10071000032144438B436418294A1B1912688B43F5
:1007200069338B431100B9339BB22C31043A0B80EF
:10073000253B08399BB28A42F9D171E766468DB2F2
:100740006E43029BC9009E19039B013D59188E8080
:1007500029B29AE7154C2B78154920000822096820
:100760005B001DF015FA20001249092308220968D0
:1007700008301DF00DFA20002B7810490822096876
:10078000023310301DF004FA20000D490623082220
:10079000096818301DF0FCF942E7C046D1BE0000E0
:1007A000D3BE00000309000024BF000034BC0000D9
:1007B0002CBC000030BC00000508000024BC000078
:1007C00028BC0000064B10B51B68984705481DF073
:1007D00039FA0400044B1B689847200010BDC0463E
:1007E000B0BE000034BC0000B4BE0000F8B5060086
:1007F00070201D4B03241D7823212B1D58430C23EF
:10080000AA1C53435430FF301B19A043C018174B88
:10081000A0431A78382353431B19C01830236B4365
:10082000A043AB301B19A043C018114BA043C01804
:10083000A043301AFCF74EFCC7B26D00AF4205DB97
:100840000C4B3200390020001B6898470A4BFF0010
:100850001B689847094B0A481968C9191DF0AAF97D
:10086000084B1B689847F8BDD1BE0000D3BE0000FE
:100870000309000024BF0000B0BE00002CBC000033
:1008800034BC0000B4BE0000044810B508301DF0B0
:10089000D9F9002800D0808810BDC04634BC0000C3
:1008A00070B51B4B0C24197870230A1D5343032287
:1008B0008D1C6C435433FF33A41893431B19154C00
:1008C0009343257838246C43A4181B193024FF2542
:1008D00061439343AB33934389185B1805389343C3
:1008E000C41A2C4203D1240AE3B2082B00D9FEE734
:1008F000094B2C401B689847084B09481968E400CD
:10090000091908301DF056F9064B1B68984770BD51
:10091000D1BE0000D3BE0000B0BE000030BC00005D
:1009200034BC0000B4BE0000074B10B51B689847EC
:10093000064810301DF086F90400054B1B689847E7
:10094000201E00D0A08810BDB0BE000034BC000046
:10095000B4BE000070B57024194B02001B78032050
:10096000191D4C430C219D1C69435434FF34091854
:1009700084436418134984430D7838216943091866
:100980006418302159438443AB34091884436418F4
:100990000D49844364184621594384430918641857
:1009A0008443141B240AE4B20133A34203DA074B45
:1009B00021001B689847064BE4001868001970BDB9
:1009C000D1BE0000D3BE00000309000024BF000018
:1009D00024BC000070B570241E4B02001B7803205D
:1009E000191D4C430C219D1C69435434FF340918D4
:1009F00084436418184984430D78382169430918E1
:100A00006418302159438443AB3409188443641873
:100A100012498443641846215943844309186418D1
:100A20008443141B240AE4B20133A34203DA0C4BBF
:100A300021001B6898470B4BE4001B6898470A4B42
:100A40000A481968103009191DF0B4F8084B1B68E2
:100A5000984770BDD1BE0000D3BE0000030900005E
:100A600024BF0000B0BE000024BC000034BC000065
:100A7000B4BE0000074B10B51B68984706481830F5
:100A80001DF0E0F80400054B1B689847201E00D0BD
:100A9000A08810BDB0BE000034BC0000B4BE000091
:100AA00070B505007020264B03241A78111D4843A9
:100AB0000C21931C59435430FF300919A0434018AE
:100AC0002049A0430E78382171430919401830217C
:100AD0005143A043AB300919A04340181A49A04321
:100AE000401846215143A043091940181B021B1905
:100AF000A043C01827235A43A04312198018A043CB
:100B00006930A0432521281AFCF7E4FAC6B2C0B226
:100B1000052805D90D4B2A00310020001B68984795
:100B20000B4BF6001B6898470A4B0B4819681830A6
:100B300089191DF03FF8094B1B68984770BDC046E6
:100B4000D1BE0000D3BE00000309000024BF000096
:100B5000B0BE000028BC000034BC0000B4BE0000E1
:100B600010B502000C000123002103481CF01EF800
:100B70000470FCF7CFFA10BD0111000010B502009F
:100B80000C000123002103481CF010F80470FCF74E
:100B9000C1FA10BD02110000F7B5002400900191C8
:100BA000124D2B78A3421BD94426114F66433B6854
:100BB00099190B0040331B78092B02D00134E4B2A1
:100BC000EEE7009820311CF055FD0028F6D03B6878
:100BD000019A9E190736F37F534001221342EDD14B
:100BE0002878844280414042FEBDC046D1BE00000C
:100BF00054BC0000F0B5002485B00190029103922E
:100C0000174D2B78A34225D94426164F66433B68DF
:100C100099190B0040331B781A000E3A012A04D9A7
:100C2000112B02D00134E4B2EAE7019820311CF024
:100C300021FD0028F6D03B68029A9E193300363316
:100C40001B78534001221342ECD12E363378039A9D
:100C50009342E7D1287884428041404205B0F0BDFC
:100C6000D1BE000054BC000030B500200A2401258C
:100C7000074B1968074B1B780133220042438A183F
:100C8000527A2A4203D00130C0B28342F5DA30BD35
:100C900058BC0000D1BE0000F7B5050000240A26AC
:100CA000012701910D4B186833006343C018437A44
:100CB0003B4208D10A4B01341B78E4B20133A34212
:100CC000F0DA2000FEBD037A019A9342F2D12900A6
:100CD0001CF0D0FC0028F4D1ECE7C04658BC000062
:100CE000D1BE0000F7B50500002427260127019199
:100CF0000C4B1B78A34213D90B4B1868330063438A
:100D0000C0188379FF2B02D10134E4B2F0E7019AD5
:100D10003A409342F8D129001CF0ACFC0028F3D0F3
:100D20002000FEBDD3BE00005CBC00000A4B18785A
:100D30000A4B1A6800230632984205D02732110068
:100D400027390978FF2904D0C01A43425841C0B25C
:100D500070470133DBB2EFE7D3BE00005CBC00009C
:100D6000F0B585B0012821D0022800D1BDE00028CF
:100D700002D161491CF03AFA05B0F0BD2A005F4B80
:100D800062431B68D058002802D00C381BF062FF69
:100D90000134E4B25A4B1B78A342EFD8002104205F
:100DA0001BF060FE002106201BF05CFE554CF42277
:100DB000002120001EF01CF92722534B00211B7834
:100DC00006265A43514B1B68180001931EF010F978
:100DD00044224B4D00212B785A43484B18681EF093
:100DE00007F90A222B78002102335A43484B1F256A
:100DF00018681EF0FDF82300E122543392001A8097
:100E0000444B08226362444B4449638544481EF0C6
:100E1000D3F80122434B52421A60FF210532424867
:100E200025771EF0E5F8A31CDD7702AB3F4D5E7120
:100E30003F4B02A92A0001201B6805319847002872
:100E400004D0320028003B491EF0B6F820230125CB
:100E5000374F02AA537102AB591D374A3B688020B5
:100E6000984702AB9E1D02A95D71320015203B68B8
:100E700005319847002801D133781D402300EF3316
:100E80001D70012502ABDE1D5D71294B02A93200E8
:100E900019201B6805319847002801D133781D407F
:100EA00023000126F0331D7002AB244D5E71204BF0
:100EB00002A92A0016201B6805319847002800D097
:100EC0002E70114A114B117827224A43FF211B68CB
:100ED000D2189A420CD1FA2254342388920000216D
:100EE00006205A431BF024FD46E70024442551E721
:100EF00099712733EDE7C0462013061854BC000053
:100F0000D1BE000060BC0000D3BE00005CBC00008D
:100F100058BC00001B004801070700001412061807
:100F200064BC000078BC00007DBC00006CBC00000C
:100F3000DCBE000030DB071893BC00004CBD000095
:100F4000012310B5094C83402268002906D0802077
:100F50001343400123601AF0D3FF10BD9A4322606F
:100F6000FBD1802040011BF06BF9F6E760BC00006C
:100F7000F8B544241E4E4443336800211F19050070
:100F8000FFF7DEFF0022336804371B1940331A7065
:100F90003800FFF787F833681819C31DD97F203050
:100FA000FFF77AFE134B1B78013383420EDB0A22D4
:100FB000114B42431B689B185B7A9B0706D533682D
:100FC0001919CB1DDA7F20310CF030F83068001988
:100FD000C31DD97F2030FFF785FE084B1B78834265
:100FE00002D900210CF024FE2800FCF7F9F8F8BD26
:100FF00054BC0000D1BE000058BC0000D3BE0000AD
:10100000004870477DBC0000054BC2089B180722B2
:101010001B79104003411800012318407047C04657
:1010200060BC0000004870471C120618024B5A337F
:101030000020185E7047C04660BC0000024B583369
:101040000020185E7047C04660BC00004423034A7D
:1010500043431068C01804307047C04654BC0000B9
:10106000F7B50BF06BFF01900BF09EFF07230022FA
:101070009C46012465464549D310CB18197E15407E
:101080002941214206D12100A9400D00597FA943E1
:10109000597713E03D49F031097800290ED09100CD
:1010A000019E4158C827711A0600090109097F01EC
:1010B0009436B94235D2B1560131E4DB0132252AEA
:1010C000D8D1334E30001CF0E3FA012817D80023A2
:1010D000072501211F002D4CDA10A218147E2F4085
:1010E0003C410C4208D00C00BC402700547F3C43DC
:1010F0005477012803D008000133252BEAD10024BE
:1011000030000CF077FF2500224B1B78A34214DC43
:10111000002D37D0FA220021042012011BF008FC18
:10112000F7BD0027B754FA26F601B142C6D921000F
:10113000A9400D00597F2943AAE744236343164F72
:101140000193019A3B689B181A0040321278092AD1
:101150000BD10833DA7F002A07D10123210219437A
:10116000022089B21BF05EFD01253B68019A9B18A5
:1011700040331B780C2B03D13100E0B211F032FE6A
:101180000134C1E7014B0333DD77C9E760BC0000E0
:101190007DBC0000D1BE000054BC0000F8B50023A7
:1011A000040044270E4A0F49037023781678B3428F
:1011B00010D2380058430D682818050040352D78A6
:1011C000002D0AD12022290020301DF011FF2378A4
:1011D000B34200D307252800F8BD01332370E4E7AC
:1011E000D1BE000054BC00004423064A43431068AB
:1011F0000022C018030010B540331A700430FEF707
:1012000051FF10BD54BC0000014B18687047C04628
:101210005CBC00001F00000000000000FF79010F0F
:10122000000000000020024B0433D8777047C0460E
:1012300060BC000070B522230D003E220021094849
:101240001BF0B4FC0026092304002900037046703B
:10125000202202301DF0B0FE2000FBF75BFF3000C3
:1012600070BDC04604110000F8B53E220D004223B7
:1012700000210F481BF09AFC2026082300270400B9
:10128000037032002900477002301DF095FE2000E7
:10129000A919320022301DF08FFE2000FBF73AFF23
:1012A000044B31005B68044A802098473800F8BD41
:1012B00004110000DCBE000093BC000070B51123D7
:1012C0000D00094A002109481BF070FC691C04004C
:1012D0000025102201301DF06FFE20002570FBF765
:1012E00019FF280070BDC046172000000111000042
:1012F000FA2210B5064B920054331B8806200021B9
:101300005A431BF015FB0BF053FE002010BDC046E6
:1013100060BC000010B5FFF7A3FE002010BD000068
:101320002C13061854BD0000010012000700000035
:10133000BD12061804000000151306180500000071
:101340002512061806000000F11206180800000019
:101350006912061809000000351206180A0200007A
:10136000B5690618020200008D3C0618070200004D
:10137000F13C0618080200000142061803000000B4
:10138000754F061801020000B14F06180602000052
:10139000395D061803020000DD550618040200003E
:1013A0003957061805020000055B061809020000FF
:1013B000ED6506180511000051210618442130B5CD
:1013C000104B1A68104B14001B784034594300230B
:1013D000994201D1012030BDE05C851E012D05D868
:1013E000D058C07C00280BD14433F1E7072802D144
:1013F000D0584078F6E70528F6D1D0580078F1E7C4
:101400000020E8E754BC0000D1BE000030B50D4A12
:101410000124117844220C4B4A431B680B4840338B
:10142000D218934201D1002030BD197844331129DC
:10143000F7D80500CD40290025008D43F1D10120CA
:10144000F2E7C046D1BE000054BC0000AC40020030
:10145000F7B5174A01911400EE34257803000C21EA
:10146000012D1FD00A39217007781031022F19D8A9
:10147000FA2446886400A64214D285880D482C00C0
:101480000A3CA4B284420DD89C79172320009843CB
:1014900008D111002C310F70110032310C70010095
:1014A000D68515860198FFF75BFB0020FEBDC04680
:1014B00060BC0000F63F0000F8B503001A78080091
:1014C000140002210C400A4203D19D781031002DF6
:1014D0002AD0012115000D400A4206D15A78113157
:1014E000002A21D0002C0AD101E0002C20D10722B3
:1014F0009E7811213240964216D1002D08D15E7897
:101500000722370011211740BE420DD1002C00D117
:101510009A78084C21002B310A700722002D00D147
:101520005A7800212A342270FFF71AFB0020F8BDF8
:101530000722EEE760BC0000030070B51C880800BD
:1015400022001B3A1221E02A0BD85A88074D1300BB
:10155000493BFF3B9BB2AB4203D80021044B9C8428
:10156000DA84FFF7FDFA002070BDC0464841000054
:1015700060BC000070B50C000500FFF747FF0C21B0
:10158000002809D12B780631012B05D80122010052
:101590001340044A563213702000FFF7E1FA00208E
:1015A00070BDC04660BC0000030013B540331B781B
:1015B00002000C00002B0CD10D491E33C85C002822
:1015C00013D1013BFAD20C212000FFF7D7FA0020FB
:1015D00016BD084900201300019009300090203307
:1015E00007381DF00FFA0100EEE70349F2E7C046A5
:1015F00094BC0000AA21061893BC000002001E2320
:1016000013B50C000B49C85C002807D1013BFAD286
:101610000C212000FFF7B2FA002016BD00211300B4
:101620000191093100910220034920331DF0EAF9AC
:101630000100EEE794BC000093BC000073B5080005
:101640000021FFF79BFA6A460123D3716B46154EC2
:10165000941DD91D2200822033689847002801D0AC
:101660000023237020236A46D37123780E4D002B6C
:1016700009D069462A00802033680731984700283E
:1016800006D000232370002128001DF007FA02E095
:101690002378002BF7D02800002208211DF0D4F970
:1016A000002076BDDCBE000093BC000010B50A002F
:1016B0000A23002107481BF079FA0024FB22064B7D
:1016C000C2800381428083800470FBF723FD2000E9
:1016D00010BDC046011100009042000010B500216D
:1016E0000623074A07481BF061FA0024064B9A8C30
:1016F0004280DB8C04708380FBF70CFD200010BD62
:10170000232000000111000060BC000070B504003F
:10171000A026A025012300210F4A10481BF046FAFD
:101720000223E15EF6008B199BB22D01AB4211D86A
:101730000023E25E93199BB2AB420BD8084B1C000E
:101740005A331A800023583421800370FBF7E2FCDF
:10175000002070BD1223F8E74D20000001110000A9
:1017600060BC000010B500210623094A09481BF09F
:101770001DFA094B00241A00583212885A3382800D
:101780001B8804704380FBF7C5FC200010BDC046D9
:101790004C2000000111000060BC000070B50E4A32
:1017A000032300210D481BF001FA0D4D00262B00EC
:1017B00006702C330400012118786B6998472B00C0
:1017C00060702D33012118786B699847A070200054
:1017D000FBF7A0FC300070BD4B20000001110000A1
:1017E000ECBE000070B500210F4A09230F481BF022
:1017F000DDF90F4D04002B689847030AA370030C12
:101800006070E370000E2B68207198470025030A72
:101810006071A371030C000E207225702000E3712B
:10182000FBF778FC280070BD1820000001110000B3
:1018300058BD000010B50A000223002105481BF026
:10184000B5F90024044B04701B784370FBF762FC6D
:10185000200010BD01110000D3BE000010B50A0029
:101860000223002106481BF0A1F90024054B047057
:101870001B7802334370FBF74DFC200010BDC046BF
:1018800001110000D1BE000010B50021074A062357
:1018900007481BF08BF9012300240371FA334380BE
:1018A0000470FBF737FC200010BDC046022000008A
:1018B0000111000070B507230A00094800211BF040
:1018C00075F900250400074906220C3101301DF08E
:1018D00073FB20002570FBF71DFC280070BDC0467F
:1018E0000111000060BC00000A0010B50A230021AD
:1018F00007481BF05BF90923064A0381C280438035
:10190000C632013302800371FBF704FC002010BDD6
:10191000011100003A090000F8B503780E005A42A0
:101920005A41124B05001B680024591E8B41442765
:1019300043219A4204D00E4B1B78A34205D80021C4
:101940003000FFF70DF90020F8BD3A00094B624363
:101950001B689B1840331B78092B03D12000297882
:101960000BF08CF80134E4B2E5E7C04660BC00003F
:10197000D1BE000054BC000070B5124B04005633B9
:101980001B780D00002B04D0FFF740FD0C2300282E
:1019900012D1E2791223012A0ED8217801290BD81D
:1019A000601CFFF79FF9084B1A780223824203D983
:1019B000E1790CF011F9002328001900FFF7D0F8A5
:1019C000002070BD60BC0000D3BE000070B50923CC
:1019D0000021084A08481BF0E9F800250400082205
:1019E000064901301DF0E8FA20002570FBF792FB54
:1019F000280070BD1C200000011100005C240618A6
:101A000013B5010000240122034B103100941CF097
:101A10007EFA200016BDC0461D1A0618002270B5B9
:101A2000112306000D00072011001BF0BFF8040071
:101A300029000670102201301DF0BEFA20001BF0B4
:101A4000D9F870BD70B50A000500072300210E48C3
:101A50001BF0ACF8122303702978040001290AD87E
:101A6000681CFFF73FF9094B1B78834208D9611CBA
:101A70000CF03CF920702000FBF74CFB002070BDFF
:101A800002232370F7E7C04601110000D3BE000017
:101A900070B50A000500072300210E481BF086F8E8
:101AA000122303702978040001290AD8681CFFF763
:101AB00019F9094B1B78834208D9611C0CF0E0F836
:101AC00020702000FBF726FB002070BD022323704E
:101AD000F7E7C04601110000D3BE000003880C48A0
:101AE0005A1E92B210B50C00122182420AD8094A3D
:101AF000002154321380FA22920006205A431AF031
:101B000017FF00212000FFF72BF8002010BDC04672
:101B1000B7A1000060BC000010B5104B0C0056339C
:101B20001B78002B04D0FFF771FC0C2100280CD18E
:101B30000B4B1A680B4B197827234B43FF219B183B
:101B40009A4207D10BF008FD00212000FFF708F8AA
:101B5000002010BD91712732F2E7C04660BC000042
:101B60005CBC0000D3BE000070B506780D00040018
:101B70001221012E1DD8114B56331B78002B04D097
:101B8000FFF744FC0C21002813D13100601CFFF743
:101B9000A9F80B4B04001B780221834209D90BF0F2
:101BA000F9FF2720074B44431B6800211C19FF2322
:101BB000A3712800FEF7D4FF002070BD60BC0000B8
:101BC000D3BE00005CBC0000F0B5037889B007000C
:101BD00007910493012B06D912210798FEF7C0FF45
:101BE000002009B0F0BD3E4B56331B78002B04D0CB
:101BF000FFF70CFC0C210028EFD10024394B7E1C90
:101C00001B780593384B1D684035059BA34225DCA6
:101C10000023300004990593FFF73EF80022314B72
:101C200004921B780133834208DB0A3250432F4B66
:101C30001B681818457AAD07EB0F0493300039780C
:101C4000FFF750F82A4B1A788242C5D80024294B56
:101C50001B680633A24211D10721BEE72B78092B5E
:101C600007D129000622300020391DF097F90028FD
:101C700002D001344435C8E70123CAE727331900ED
:101C800027390978FF2928D13B0017330693049B95
:101C9000FD1D0293059B200001933B782A00310033
:101CA0000093069B0BF0C4FE2720124B4443186898
:101CB0003B780419A3710622791C20001DF07CF9E1
:101CC00010220699E01D1DF077F92000290010224E
:101CD00017301DF071F900217FE70134E4B2B9E754
:101CE00060BC0000D1BE000054BC000058BC000025
:101CF000D3BE00005CBC0000F8B50D000400FFF787
:101D00005DFB0C21002805D021788B1EDBB2FC2B5B
:101D100005D812212800FEF723FF0020F8BD661C1D
:101D20003000FEF7B9FF0D4B1B7801338342F0DB27
:101D30000A22022142430A4B1B689A18537A0B422B
:101D4000E7D05F0707D58B435372310022780BF041
:101D50000FFA0021DEE70321F5E7C046D1BE0000FF
:101D600058BC0000F8B50D00FFF728FB0C21002837
:101D70001BD000240A26012731000F4B61431B684A
:101D800059184B7A3B4208D05A0713D50222934385
:101D900020000A7A4B720BF0EBF9084B01341B78E8
:101DA000E4B20133A342E7DA00212800FEF7D8FEAF
:101DB0000020F8BD0322EAE758BC0000D1BE0000B5
:101DC000F7B505000191FFF7F9FA0C26002805D0B8
:101DD00029788B1EDBB2FC2B06D812263100019825
:101DE000FEF7BEFE0020FEBD6F1C3800FEF754FF5C
:101DF0001B4E040033780133834227DB0A22194B40
:101E000042431B689B185B7A9B07E6D40A23634313
:101E1000144E0093009A33683900981806221DF07A
:101E2000CBF83368009A29789B180322587A1972E4
:101E300002435A723800FEF7AFFE0026B042CDD101
:101E4000390020002A780BF0F1F8C7E7FEF70CFF05
:101E500033780400023307269842D7D1BEE7C04644
:101E6000D1BE000058BC0000F8B5164E050004367F
:101E7000F37F0F000C24002B04D104791F339C4303
:101E800006D0122438002100FEF76AFE0020F8BDBB
:101E90001BF0FEFB0138C0B22428F2D8290005222D
:101EA00009481DF089F8FA222100920005201AF055
:101EB0003FFD012321000420F3771AF0D3FDFFF743
:101EC000CFF8DFE760BC000078BC0000F7B5050084
:101ED00000240191384B1B78A3420DD837492800C4
:101EE0001BF0C8FB1221041E61D1290006223448D0
:101EF0001DF062F821005AE0442363430093314B04
:101F0000009A1B689B181A0040321278911E012912
:101F10002DD92C4F009A3B689B181A00403212783A
:101F2000072A0CD11E68002E04D1274B2100032064
:101F30001B689847022233789343012B32D0009AD2
:101F40003B689B181A0040321278052A0CD11E6893
:101F5000002E04D11C4B210003201B68984702224D
:101F600073789343012B1DD00134E4B2B2E71749D3
:101F7000EE3109780129CCD11E68002E04D1124B14
:101F8000210003201B689847102372881A4204D14D
:101F90000D4B210003201B6898470222F37A9343DC
:101FA000012BB6D1044B0C211B78A34296D9019882
:101FB000FEF7D6FD0020FEBDD1BE000036DB0718BF
:101FC00072BC000054BC000024BF000060BC0000D4
:101FD00070B509230021094A09481AF0E7FD0400F9
:101FE000FFF720F8002501000822601C1CF0E4FF28
:101FF00020002570FBF78EF8280070BD032000003C
:102000000111000070B50C00074D082201002800E6
:102010001CF0D2FF28000421FBF702F92000002168
:10202000FEF79EFD002070BD64BC000010B50C00E2
:102030000221FBF7F5F801002000FEF791FD0020DA
:1020400010BD10B50C000321FBF7EAF801002000D9
:10205000FEF786FD002010BD10B50C0081880088B9
:10206000FCF76CFF01002000FEF77AFD002010BD98
:10207000007810B50C001221032804D80123184061
:10208000FCF766FF01002000FEF76AFD002010BD8E
:1020900070B50A000923002108481AF087FD0822BC
:1020A0000400002101301CF0A3FF00256023200064
:1020B00025706371FBF72EF8280070BD0111000038
:1020C00070B541230A000B4800211AF06FFD04008F
:1020D0002A22094901301CF06FFF2000002516223A
:1020E00000212B301CF084FF20002570FBF712F834
:1020F000280070BD011100008021061810B50C00E9
:1021000019F0BEFD20000021FEF72AFD002010BDC1
:1021100010B503000C4A00780C001278002803D098
:102120005988914203D29888FCF734FF09E00022D5
:10213000064B110001201B68984712212000FEF772
:102140000FFD002010BDC046D1BE000024BF00001E
:10215000002270B50C001900084BD000C518185AA1
:10216000884205D16B68181E01D02000984770BDC9
:102170000132522AF1D10020F9E7C046CC210618DD
:102180002000800000C000000000E40000002822C1
:10219000000000000000040000F7FFFF7F000000C7
:1021A00030F0FFFFFFFFFFFFFF17BD1A3CCDA6B8C1
:1021B000995899B740EB7B60FF4A503F10D2E3B388
:1021C000C974385FC5A3D4F6493F00003920000028
:1021D0001532061836200000B12C061837200000F2
:1021E0002D2F0618030C0000FD200618011000001A
:1021F000E918061809100000B518061802100000AA
:10220000C12006180310000091200618010C0000E0
:1022100043200618630C00002D200618310C000026
:1022200071200618330C000059200618350C0000E8
:1022300011210618012000000520061802200000C8
:102240008918061803200000D11F06180520000079
:10225000CD1E061806200000792706180820000069
:10226000E12806180A200000312A0618092000007B
:1022700089290618072000002D27061835200000A0
:10228000A52E061838200000BD3006183A200000A0
:10229000093B06183B200000413B06183C2000008B
:1022A000A53B06183D200000153C06183E20000006
:1022B000153706183F20000001380618402000009E
:1022C000293906180B2000003D4406180C20000098
:1022D0005D450618412000003547061842200000E1
:1022E0004148061844200000B54A06184520000061
:1022F000A94B061846200000854C06184720000010
:10230000E14C061848200000B94D0618492000008D
:10231000694E06184A200000E14E061859200000B8
:10232000214F06180D200000AD5F06180E2000009A
:102330006965061843200000356206181420000065
:10234000691E06180F2000005D18061810200000F6
:10235000651D061811200000C11D0618122000007E
:10236000F91C06182A20000035180618272000003E
:10237000C91B061828200000691B06182920000028
:10238000191B06182E200000DD1A06182D2000004B
:10239000751506182B200000911A06182C20000035
:1023A000451A061817200000011A06181820000008
:1023B000E51706181C200000CD1906184B20000058
:1023C0009D1706184C200000651706184D200000C8
:1023D0000D1706184E200000791906185F2000001E
:1023E0001919061823200000DD1606182420000005
:1023F000391506182F200000AD1606181D20000004
:10240000DD6906181E200000176A06183320000038
:102410005B6A061834200000A36A06184F200000EB
:10242000F36A0618502000007F6B06181F2000007A
:10243000096C0618252000003D160618262000000D
:10244000FD1506185E200000A915061831200000B1
:10245000B91406185D20000051140618FFFFFFFF95
:10246000FF03000070B544251D4C454323685B59AC
:10247000002B05D000221B4B110001201B68984740
:102480000022236811005E1910001A231AF08EFB37
:10249000FF2330602068002645192C683100237026
:1024A000EC3B638080231B01A38008232000238151
:1024B000013BE6806381267306220D301CF098FDF7
:1024C0008023FF33A3827F3BE382074BE67426839E
:1024D000DA682A631B8AAB86012340352B7070BDF6
:1024E00054BC000024BF000060BC000070B544254F
:1024F000354C454323685B19188C002805D0FEF73E
:10250000CFFA002223685B191A6223685B19988C42
:10251000002805D0FEF7C4FA002223685B195A622E
:1025200023685B19188D002805D0FEF7B9FA002240
:1025300023685B199A6223685B19988D002805D07F
:10254000FEF7AEFA002223685B19DA622368585955
:10255000002805D00C381AF07DFB00232268535167
:1025600023681A495A193D3212780978914225D9BF
:10257000442656439B19188C002805D0FEF790FA84
:10258000002223689B191A6223689B19988C0028E3
:1025900005D0FEF785FA002223689B195A6223684A
:1025A0009859002805D00C381AF054FB00232268F3
:1025B000935123689E19002340363370002320680E
:1025C000451940352B7070BD54BC0000D1BE0000D1
:1025D00070B504000E00252805D900220F4B11000C
:1025E00001201B689847F0212000FAF773FD0130A5
:1025F000C5B22620012D04D80F34844200D904002E
:10260000E0B2013EF1B21BF06FFA2D30FF306843AB
:102610000349FAF75FFD0130C0B270BD24BF00006E
:1026200071020000038870B505000C00DB0605D5BB
:102630000022104B110001201B6898472B880120B5
:1026400019000140034203D10A4B0A001B68984756
:10265000298806224B0700D59218D31C490600D4BE
:10266000931C0133D9B209190020252900DD12304D
:1026700070BDC04624BF000070B514000F4B0600AB
:102680001A78E3B20D009A4205D80D4B22000320C0
:102690001B68E1B29847002E0FD14420E4B24443B6
:1026A000084B18680019030040331B78022B04D133
:1026B0000622290036301CF07FFC70BDD1BE000020
:1026C00024BF000054BC0000F7B50D0000240190A9
:1026D000134F3B78A34202D8FF242000FEBD4422C2
:1026E000104B62431B689B181A0040321278511E2F
:1026F000022902D90134E4B2EAE71E68002E04D1AF
:10270000094B210003201B6898473378019A9342B4
:10271000F0D13B78A342DFD9002DDED02E60DCE77C
:10272000D1BE000054BC000024BF00000A0010B558
:10273000022300210D481AF039FA0D4B04001A004B
:102740002D3210785B69012198470A4B6070EE3397
:102750001A78022A06D10C2320002370FAF7DAFC3B
:10276000002010BD01221A700023F5E701110000BE
:10277000ECBE000060BC0000F0B5544B87B0039184
:10278000EE331A780400022A00D19DE001220021D4
:10279000FF201A70FFF798FF04AAD51D03002870C8
:1027A000FF2813D04A4A106844225343C0184030CF
:1027B0000378012B00D087E02379042B0FD9122155
:1027C0000398FEF7CDF9002007B0F0BD2800FEF712
:1027D000E5FC011EF4D12878FFF744FEECE7012B5D
:1027E00009D0218862889142E9D81F29E7D9802140
:1027F000C9018A42E3D8627B013A062ADFD8A27B6C
:10280000032ADCD86279032AD9D8A279012AD6D83A
:10281000012B03D000220292042B07D12D49E01D89
:102820001AF028FF0028CAD1012302934423002173
:102830002A78274F53433A68D3181D68264A280040
:10284000019323790D30D35C6B80638869721A0A17
:102850002A72EB712388A971AB80637B0622AB726D
:102860006679E11DEE72A3792B731CF0A5FB0023A2
:10287000029A9A4200D1A37BEB74032E1DD830003C
:10288000019B124930331CF06BFB02120212019AB9
:10289000C86810630A8A9A80442204ABD9793B68DD
:1028A0004A439B180122403300211A7088E7062210
:1028B000180012311CF080FBEEE7084B00223100BB
:1028C00003201B689847E7E70C2179E760BC00000C
:1028D00054BC000036DB07181C43061824BF000058
:1028E000F0B5274B85B00191EE331A7805000C2125
:1028F000022A38D001221A70037806311F2B32D8F1
:102900000021FF20FFF7E0FE02ABDE1D3070FF2844
:1029100007D13000FEF742FC011E24D13078FFF7CA
:10292000A1FD44223378174F53433A68D3181B8CC8
:102930000093FEF79FF80721041E14D021002A7887
:10294000681C19F01FF9442230783B68424329780B
:102950009B181C84598440331B78022B09D1220018
:102960000EF0FAF800210198FEF7FAF8002005B001
:10297000F0BD009B002BF5D01800FEF791F8F1E7B1
:1029800060BC000054BC0000F0B5274B85B001913D
:10299000EE331A7805000C21022A38D001221A7071
:1029A000037806311F2B32D80021FF20FFF78CFE61
:1029B00002ABDE1D3070FF2807D13000FEF7EEFBC2
:1029C000011E24D13078FFF74DFD44223378174F94
:1029D00053433A68D3181B8D0093FEF74BF8072139
:1029E000041E14D021002A78681C19F0CBF8442268
:1029F00030783B68424329789B181C8559854033C1
:102A00001B78022B09D122000EF0D4F80021019886
:102A1000FEF7A6F8002005B0F0BD009B002BF5D016
:102A20001800FEF73DF8F1E760BC000054BC000060
:102A3000F0B5964B93B004900591EE331A78022AC4
:102A400014D001220021FF201A70FFF73DFE06ABD3
:102A50009C1C049B20701B78002B03D0012B26D0DC
:102A600012210FE18A4B1B78834201D80C2109E126
:102A700044252A00874E424333689A18403213781F
:102A8000022BF3D10EF02EF8011E00D0FAE02278CE
:102A9000336855435D19032340352B70049B002197
:102AA0001B78002B00D0EDE0002013B0F0BD784B78
:102AB0001B78834269D94422764B50431B681B180C
:102AC00040331B78012BD1D106ABDD1C00232B70CA
:102AD000704B21781A6844234B439C58E37ADB07F8
:102AE0005CD46388DB0711D52800FEF757FB011E75
:102AF00000D0C7E00C2362881A4207D02000217B57
:102B00000D30FEF749F8002800D0BAE00A2621006F
:102B1000638807AD02932B83637A227A1B04120227
:102B20001343E2790D311343EB60A37A06226B77EE
:102B3000E37A0193AB77237B0393EB7706ABF6182D
:102B400030001CF039FAE27C06AB0533DA77227DDF
:102B500006AB0633DA77637D06AA0732D377A17D09
:102B600008AAD177092206A95218D377237EF377D2
:102B70000B23627E5B18DA77019B4449DB0715D48F
:102B8000CB6807930B8AAB8015E02000FEF706FBAD
:102B9000011E77D12078FFF765FC95E73E493F4855
:102BA0001AF068FD002800D05AE79AE706222800AC
