:020000041800E2
:1020000010B5024B00221B68984710BD000000006D
:1020100010B5024B01221B68984710BD000000005C
:1020200010B5024B00221B68984710BD000000004D
:1020300010B5024B01221B68984710BD000000003C
:10204000F8B5092031F04AFD114D2E68002E1CD143
:10205000F8BD3B00A3401E4203D02000C9B200F0EF
:1020600025FA0134E4B20B4B1B78013B9C4202DAA7
:1020700029890029EDD12B68002BE9D02B89002B71
:10208000E6D0092031F00CFDE2E700240127EAE761
:10209000040000002105000010B5040001280ED046
:1020A000022809D0002803D10920084931F0DCFCBE
:1020B000200000F041F910BD092031F00FFD0C2285
:1020C0000021034833F084FCF2E7C04641200018A9
:1020D0000400000010B500F031F810BD024B9880EC
:1020E000D98019817047C04604000000014B18894F
:1020F0007047C0460400000070B50125094C8540BA
:10210000236800290BD01D4205D12389002B02D062
:10211000092031F0C5FC23681D43256070BDAB4329
:102120002360FBE70400000010B504000021FFF766
:10213000E3FF0021200000F08BF810BDF8B5194F27
:1021400086003B6804001B689B59002B05D00022C9
:10215000154B110001201B689847042320021843E7
:10216000002131F08FFB0021382031F047F9041EA7
:1021700009D10D4B020001001B68012098473B6804
:102180001B689C51F8BD002520C031F0FBFF2000EA
:10219000E560A576103031F0F5FF0423E57623776E
:1021A000EDE7C0461C0000002C05000070B50424BB
:1021B00000020443200016000D0031F0CBFB002E7E
:1021C00005D02843C1B2200031F05CFB70BDA843AC
:1021D000F8E70000F8B50D00110004221C0006AB62
:1021E0001E88000207AB1F8802430623044830F014
:1021F000DFFF057087804680447030F0FDFFF8BD3A
:10220000040A0000F7B51300104A0D00126881009F
:10221000126804008E58002E17D0002D15D1316899
:1022200000290DD00F0005200C3F3A890978009055
:1022300001952000FFF7CEFF380031F007F8356038
:10224000002201212000FFF7B1FFF7BD1C000000B4
:10225000F0B5344F87B0830004933B6882001B685D
:1022600004009D58042203021A4303910592002D95
:1022700029D02D48110030F019FF2868002807D018
:10228000039B002B25D1462219002000FFF7BAFF3F
:1022900001262969002920D1E868002801D031F001
:1022A00037F9224AAB7E11895B1813816E68002EC4
:1022B00019D13B68049A1B68985831F029F93B689A
:1022C000049A1B689E503F21059831F0DBFA07B055
:1022D000F0BD0C3830F0BAFFDAE7039A2000724004
:1022E00001F01EFFD5E7281D31F0AAFF039B060071
:1022F000002B0DD182880E4B9A420DD1039B02898F
:102300000193438A0621009320004623FFF762FFD2
:10231000300031F0FDF8C9E7064B210002201B68B0
:102320009847F5E71C000000140A000004000000B4
:10233000120A00002C05000070B50400012830D0FE
:1023400002282CD0002815D11B491C4B1C4D0B60BA
:102350001C4B04201B6804261B684B602B78013B38
:102360000B81194B1B884B8131F03AFA2B78013BDA
:102370009C4200DB70BD20023F213043013431F02C
:1023800081FAE4B2F2E720000121FFF761FF013496
:10239000E4B20B4B1B78013B9C42F4DBEAE70024E0
:1023A000F7E7074B00211A78084B013A18689200AA
:1023B00033F00EFBDEE7C04610000000D02F0018FF
:1023C0002105000020000000383000181C0000002B
:1023D0000F4B70B51B6882001B680C00D5580D4B65
:1023E0001B78013B984205DB00220B4B11000120BA
:1023F0001B689847002C05D00022074B11000120D4
:102400001B689847A4006359181E00D0187870BD47
:102410001C000000210500002C0500000E4B70B5CB
:102420001B6882001B680C00D5580C4B1B78013BC5
:10243000984205DB00220A4B110001201B689847D7
:10244000002C05D00022064B110001201B68984784
:10245000A400605970BDC0461C00000021050000AA
:102460002C0500000E4B70B51B6815001B68820020
:10247000D6580C4B0C001B78013B984205DB002220
:10248000094B110001201B689847002C05D0002241
:10249000054B110001201B689847A400A55170BD91
:1024A0001C000000210500002C050000AB4BF0B51E
:1024B0001B6882001B688FB0D358070008910493F3
:1024C000002B00D143E15C68231E02D00B005A1E92
:1024D0009341042206933B021A430B92069B002B66
:1024E00000D12CE1162308AA9B1800221A8015237C
:1024F000012508AA9B181D7014F078FC059000288F
:1025000005D1974B020001001B6828009847954AA7
:10251000059B944663440993A188934B994235D017
:10252000924B994200D0A9E0152208ABD218E3895A
:102530002000591E8B4113700092162208A95218D0
:102540002100099B0E31103000F0EEFD0300051E46
:1025500003D1228A002A00D095E00021228901912E
:10256000618A380000910621FFF734FE049B181D94
:1025700031F066FE200030F069FE002D00D17BE0D6
:10258000059814F08FFC00230693D4E00221380054
:10259000228A01F0A9FD061E00D1DCE0431CDB7F8E
:1025A000DB0700D4D5E0438BE5890793A38A0A9320
:1025B000002D16D11D00079B02359D4200D91D003C
:1025C000ADB2B18B002904D1654B0A0001201B6814
:1025D0009847B38B013BB383638A01336382002343
:1025E0000EE0A81C0799FFF723FD079B0A9A5B1AC8
:1025F000551B9D4200D91D00ADB28BB20029E0D021
:102600005A1E9341152208A9DBB2521813701622E4
:1026100002932300521821000E33019500933800D5
:10262000099B103100F00AFD051E03D1E289A38A3F
:102630009A4215D1B37B618A2289380001910093B7
:1026400004212B00FFF7C6FD049B181D31F0F8FD97
:10265000200030F0FBFD002E8FD0002373608CE74C
:10266000B58B002D0FD102230136F27F1343F37790
:10267000049B181D31F0E4FD069504E0384B3A0048
:1026800003201B689847380007F09CFA08230100D4
:102690000B9A374830F08CFD162308AA9B1819882E
:1026A00005004180002904D12D4B0320A2881B681E
:1026B0009847059B38006B6007F084FA000B08D040
:1026C000274B38001E6807F07DFA2A4902000320D4
:1026D000B04738002E8807F075FA1523360B3603FD
:1026E00036B2064308AA2E809B181A78224E13038E
:1026F000334205D0C0211A4B03201B68890198473B
:102700002B8808AA1E4015239B181B7828001B0342
:102710001E43B604B60C2E8010F0B6FE174A089978
:1027200013890139013B1381049B049A9B7E013379
:102730009376CBB20893089B002B00D0CEE6049B87
:10274000380059684B1E9941C9B2FFF7D5FC0FB04C
:10275000F0BD33256EE73325237C6CE71C000000B9
:102760002C050000004000500D0A0000120A000075
:1027700006110000FF0F0000FFCFFFFF0400000064
:1027800010B5024B1B68984710BDC046F805000005
:1027900000207047F7B510000D0014001E0031F046
:1027A000D9F8240A462329783F2803D04B1F5A1E04
:1027B000934142330027E879AA7900020243019746
:1027C000200000923200FFF705FD3800FEBD73B512
:1027D00010000E00150031F0BDF800243F280AD08B
:1027E000F388052B07D13378280AA34205D1311D80
:1027F00001F016FC0400200076BD332BFBD0717A6B
:10280000312B05D1012200941A3B01F0A1FBF2E724
:102810000029F0D0230022000094F6E7F0B50888E4
:1028200089B00005000D059107F0AEF90600FF28FC
:1028300059D04F4B82001B681B68D558059B5968BF
:102840004C4BCB180793002904D14B4B0A000120B5
:102850001B689847059B02AA5B885382059B1B88CF
:102860009B049F0F002D05D1434B2A002900012016
:102870001B689847012F04D0022F34D1300000F09C
:10288000EDFEEA7E2B7F9A4208D2122302AA9B1801
:102890001A00300007A900F043FF0227EC68002C63
:1028A00021D0A188354B994225D0354B994258D13A
:1028B000029702AB5B8A22000193079B21000093E1
:1028C0002B00300018330E32103100F06FFD00285D
:1028D00002D12B8B002B06D10023EB60207320004C
:1028E0000C3030F089FC059B586880B214F02CFA4B
:1028F000002009B0F0BD2A0002AB18325B8A0192B9
:10290000220021000E32029700923000079A103107
:1029100000F0CAFB071E02D12B8B002BE3D1012153
:102920003000228A01F0E0FB011E16D0431CDB7F41
:10293000DB0712D5002F0BD1E289A38A9A4204D17A
:10294000876020000C3030F057FC0023EB60CAE7B2
:102950003A00300001F03AFCF7E7E86830F0D8FDC3
:10296000F3E7054B320003201B689847BBE7C046DE
:102970001C000000004000502C0500000E0A000062
:10298000130A000070B510000D00140030F0E2FFD3
:102990003F2808D0240A00212000FFF719FD012854
:1029A0000DD0022801D0002070BD01216A882000CE
:1029B00001F09AFB01220100200001F0B1FB452249
:1029C00000212000FFF71EFCEDE70000F7B5150021
:1029D00010000C001F0030F0BDFF2D0AEEB23F28A2
:1029E00039D02378042B0BD043230025A288300054
:1029F000009221783A000195FFF7ECFB280023E0D4
:102A000001213000A28801F06FFB002825D0436827
:102A1000002BE9D12189028B914220D84460638048
:102A2000C38AA380838B002B0FD021000D4BAD00F8
:102A30001B680C391B68E858043031F0B9FB0121E0
:102A40003000FFF759FB0120FEBD02230130C27F99
:102A50001343C377F7E74623C7E73323C5E731239B
:102A6000C3E7C0461C000000F7B5140010000D00BD
:102A70001E0030F06FFF220A2978D7B23F2814D009
:102A80004323062912D129000D4B92001B680C39F3
:102A90001B68D058043031F08BFB38000121FFF760
:102AA0002BFB002301206B80FEBD46230024EA8817
:102AB0003800009201943200FFF78CFB2000F3E70E
:102AC0001C000000F7B50091132B0FD1FFF70EFB90
:102AD0000024009B01909D1C009B1B78A34207D8FB
:102AE000019B002B02D1092030F0DAFF0020FEBD4F
:102AF000288807F049F80200FF2816D00D4F8600FD
:102B00003B681B689B59002B04D10B4B0320298881
:102B10001B689847094B69881A898A181A813B688B
:102B20001B689A59937E5B1A93760134A4B20235DE
:102B3000D2E7C0461C0000002C0500000400000085
:102B4000F0B5100087B00D00049230F003FF3F286D
:102B500000D179E0049B02211F0A38002A8801F085
:102B6000C3FA041E00D16FE0AB783726002B36D0B5
:102B7000431CDA7F012316001E401A4200D072E087
:102B80002B8905930BF0F4FE059B984200D26CE074
:102B90002B89162B00D868E06B8905930BF0EEFEAD
:102BA000059B984200D262E06989162900D85EE050
:102BB000288908180130FFF72BFAEB88984258DA79
:102BC000AB88002B43D0AA881300403B3F2B52D840
:102BD0000121380001F088FA002800D03E26AB8899
:102BE0003000E3812B8923826B896382EB88A38287
:102BF00001F05CFA0100208AE21CE389D27F029096
:102C0000608A0190A08A0090380001F027FBAB7821
:102C1000002B12D00C23E18B049A1B4830F0C8FA29
:102C2000A38906704380E3898380A38BC380238BB1
:102C30000381638B438130F0DFFA002E1DD1012325
:102C40000134E27F1343E377002007B0F0BD402357
:102C5000AB8001213800AA8801F046FA0028B2D0E2
:102C6000AB880133F4E74326B9E73126B7E73226CC
:102C7000B5E73D26B3E73326B1E70022210038004F
:102C800001F04EFAE0E7C046080A0000190010B54E
:102C9000030A04000A2B08D18A4206D00448083BE4
:102CA00030F086FA048030F0A7FA002010BDC0464C
:102CB0000F0A0000F0B585B004000D001600029365
:102CC000002905D00022244B110001201B689847E1
:102CD00008202302184330F03DFE337807000393A9
:102CE0003F2828D029002000FFF798FB01231A0075
:102CF000864203D02F41DA181F4208D0100005B0D9
:102D0000F0BD039A934218D0029B01330293029BB9
:102D10001B78002BF5D14025300030F09EFA0026BC
:102D200005230200009320002B0003990196FFF772
:102D300051FA3200E2E74325EEE73200012629008E
:102D40002000FFF78FFB3100A94032002000C9B2FC
:102D5000FFF72CFAEDE7C0462C050000F0B5170A86
:102D6000022285B003AB1A800D000A003800002152
:102D7000FFF7A0FF0600012826D101006A8838006D
:102D800001F0B2F9041E25D0431C0193DB7F3342CE
:102D900003D1831CDB7F002B1CD0FFF7F1FCC0B2FA
:102DA000002814D06870E38AE2893800697801F05D
:102DB00077FA0122631CDB7F134205D0A6219343DF
:102DC000019A0234E177D377300005B0F0BD0123DA
:102DD0006B70E8E7332200213800FFF713FAF3E7BE
:102DE000F7B50C00032101AB170A1980220000215E
:102DF0003800FFF75FFF0600012829D10100628833
:102E0000380001F071F94722051E1DD0431CDB7FFD
:102E1000334219D0A188073A002915D0808A0E4B79
:102E20001B1A994210DCFFF7ABFCC0B2002811D08E
:102E30006070A388EA893800617801F062FAA2889C
:102E4000AB8A9B180022AB8200213800FFF7DAF929
:102E50003000FEBD6670ECE7FFFF0000F0B5120A1F
:102E60008BB005926A460C000121177D079309ABD0
:102E70001980220000213800FFF71CFF069001286E
:102E800066D16388002B00D17BE025890BF070FDB3
:102E9000854200D977E023893126162B00D867E0D8
:102EA00065890BF06BFD854200D96EE061891629BA
:102EB00000D86AE0208908180130FFF7A9F8E388F4
:102EC000984200DB63E0A388002B44D0A288130063
:102ED000403B3F2B4BD80121380001F005F9011E82
:102EE00045D160880BF04AFE86B2002E40D1012108
:102EF000242030F083FA05006388059A8381A38833
:102F0000C682C38123899200038263892900438298
:102F1000E38806848382079B4660C3831D4B8660DB
:102F20001B681B68D058103031F078F9FFF728FC87
:102F3000C0B2002822D06070288AEB89AA8902904A
:102F4000688A61780190A88A0090380001F058F9E9
:102F500006980BB0F0BD4023A38001213800A28861
:102F600001F0C2F80028B1D0A3880133F4E733267A
:102F700000213800F2B2FFF745F9E9E70123637059
:102F8000DAE73A26F4E73126F2E73226F0E73D2683
:102F9000EEE7C0461C00000070B50D0004211400CF
:102FA0001A0004AB1B8800024A3301439BB2044859
:102FB00030F0FEF80623C58004720370083070BD3F
:102FC000120A000010B5083830F016F910BD0000E4
:102FD000FFFF00008D2C0018120A0000692A00185B
:102FE0000D0A0000CD290018100A000095270018CE
:102FF000050A00005D2E0018070A0000412B00188A
:103000000B0A0000E12D0018090A00005D2D0018D0
:10301000140A00008529001803110000C52A0018B1
:10302000061100001D280018130A0000CF27001801
:10303000040A0000912700180D00000070B5180068
:1030400004AB20CB1C8806AB1E7800239E420BD11C
:10305000230A047043700B8883701B0AC3702B888B
:10306000002B16D0042304300E4E1C19B688B4422F
:1030700000D93400A4B21480E41A2B88A4B2063319
:103080002200C91832F088FC2B880020E4182C801C
:1030900070BD8B88023C03711B0A4371A4B20623E6
:1030A0000630E1E704000000F7B51F000AAB1B780B
:1030B000089D099C00910192012B1ED0194B2A8872
:1030C0001B6880001B68C1580423002A03D1238891
:1030D000023B23800623CE7E2888009AF61AF6B299
:1030E0001D3306301018C918320032F055FC2B88F9
:1030F000F3182B8023889E1B268023883420BB4214
:103100000ED32888009B06303A001818019932F037
:1031100043FC00202B88FB182B802388DF1B278093
:10312000FEBDC0461C000000F0B587B0029300232E
:1031300013800C9B05001B78160004910093002B54
:1031400000D009E1038043880179052B0DD0062BBF
:103150002ED0042B00D01BE1904B522900D11BE153
:103160001F22D22903D1152205E017228C4B914250
:1031700000D30FE10A009200D3580193002B00D135
:1031800008E1029B6C1D19715F1D2B8801332B8098
:1031900033880133338000230393019B1878009B0D
:1031A000002800D1AFE0002B05D0009807B0F0BD9B
:1031B0000F227C4BDBE7019B0133059352280FD88C
:1031C000402811D9413811280ED832F09BFB5510F8
:1031D0000D0D0D0D0D0D0D0D3B2F0D0D0D8F0D4812
:1031E00057280FD06C2854D0342300931AE023784A
:1031F00001343B702B88013701332B803388013336
:1032000033800FE001342000012398432B88841C75
:1032100002332B8033880233338003883B701B0AD0
:103220007B700237019B01330193B6E70123013420
:103230009C432B88023402332B803388039702335C
:103240003380EEE721003800102232F0A5FB2B88F6
:10325000103410332B80338810371033D0E721001F
:103260003800082232F098FB2B88083408332B8072
:10327000338808370833C3E721003800062232F0CC
:103280008BFB2B88063406332B80338806370633B6
:10329000B6E7012301349C43637822781B02134371
:1032A000019A02345278572A1BD15B009BB23E4AE6
:1032B000318890882A889A182A80021F521A92B25E
:1032C00001929A4200D901932100019A380032F00C
:1032D00063FB019A3388A4189B183380059B0193E4
:1032E000A0E7422AE3D0059B01937DE72100380047
:1032F000202232F051FB2B88203420332B8033885E
:10330000203720337CE7002B00D04EE7039B002BB7
:1033100006D03388039A043B9BB213701B0A537088
:103320002F880BF025FB874213D82B88029A137045
:103330001B0A53706B8893701B0AD3703288131D5D
:1033400033802B889B1A2B80049B0435641B1C80C4
:103350002BE731230093F7E7134A038892889A42B8
:1033600000D91A00049B291D1B880298C91894B221
:1033700032F012FB3388049AE3183380049B1B88D5
:10338000E31813802B881C1B00232C8000930CE770
:103390003323FBE73423F9E71422ECE6FC39001869
:1033A000B43A0018783A001804000000F0B58DB067
:1033B000079312AB069204CB01911B880B920393E7
:1033C00014AB1B78022B00D0EFE09F4B80001B68F2
:1033D0001B68C35804930B79498805290ED0062928
:1033E00000D102E1042911D1984A522B00D129E1E0
:1033F0001F21D22B00D0FAE01523FCE0049A0332FF
:10340000D27F002A00D01AE13F2606E0019B03206C
:103410001A888F4B33261B6898470222019B5B88D2
:103420009343042B04D0049B019A0333DB7F537135
:1034300030000DB0F0BD57280DD06C2850D0342688
:1034400005E02B780137237001350134FFB2029B70
:1034500001330293DDE001342300012269789343B4
:103460002A7809020A439C1C1A8002350237EDE7CC
:1034700029002000102232F08FFA10341035103756
:10348000E4E7049B1B7F043BDB1B09930593202B84
:1034900001D9202305936B461B7D29002000059A46
:1034A0000A9332F079FA099B1F2B01D80123089364
:1034B000059BE418ED180A9BFF18C7E729002000B8
:1034C000082232F069FA083408350837BEE72900C7
:1034D0002000062232F060FA063406350637B5E7DA
:1034E0000122019B01349443029A1B8852785B1A93
:1034F0009BB2572A1AD15B08049A2900127F2380B5
:10350000043AD2B2D71BFFB20234200005923A002F
:1035100032F042FA019B019A1B88E41902331380AE
:10352000099B059F02930123089390E7422AE3D069
:10353000099B02930123089381E7002E72D19142E7
:1035400070D8029B01330993522800D973E74028B1
:1035500000D874E74138112800D970E732F0DCF95F
:10356000B7FF71FF6FFF6FFF6FFF6FFF6FFF6FFFA1
:103570006FFF6FFF88FF7BFF6FFF6FFF6FFF91FF94
:103580006FFFAEFF089B002B01D191424AD1079BF0
:10359000521A1A80019B0433E41A069B1B881C19DB
:1035A000069B1C80002E00D037E7039B002B1AD00F
:1035B000079B039A1B883426934200D238E7069B68
:1035C00001981988043040180B9932F0E5F9069BF0
:1035D000039A1B88D318069A1380079B039A1B88AB
:1035E0009B1A079A1380002622E70F21194A3F26CB
:1035F0008B4200D311E79B009B580293002B00D114
:1036000002E7019B01275C1D00231E00049D089317
:103610002235029BB9B21878079B1A8800288CD1F2
:103620009142AFD9019B34265B88052B00D0F4E68C
:10363000019B1B88172B00D8EFE6033EEDE6172110
:10364000054AD4E71423D6E71C000000FC39001813
:103650002C050000783A0018B43A00182D4B82006F
:103660001B6870B51B680500D458E068002820D09E
:10367000294B82889A4216D10121028A280000F043
:1036800033FD011E05D0002334228360280000F0A2
:103690009DFDE0682FF0DAFD0023E3600023E37670
:1036A0000433237770BD34230C3003702FF0A4FD56
:1036B000F2E7E37E227F9A42F0D9032BEED9042071
:1036C000611CC97F2A02E57F09020D4313B229B2AA
:1036D0000243052D1BD0062912D0814215D01100BE
:1036E00033264A230D482FF063FD002306704380E4
:1036F0008380C580A31CDB7F03722FF07DFDCDE7A7
:103700000821194389B23426EBE70621F9E71100B5
:10371000F9E7C0461C0000000E0A0000130A000072
:10372000F0B50E00A34B17001B6882001B6885B024
:10373000D5580190E87E2C7FA04225D23B88002BF3
:1037400001D105B0F0BD241A9C4200D91C001D30E7
:1037500022003168281832F01FF9EB7E1B19EB7636
:103760003B881B1B3B8033681C193460EB7E042BA9
:10377000E0D1AA7F6B7F12021343172B00D91723C6
:103780002A7F9B182B77D5E7A042DAD1AB7F6A7FDF
:103790001B021A436B1C0092DA7FEB7F1202134369
:1037A0001AB20393403B3F2B00D9A7E00121039AB3
:1037B000019800F099FC041E00D1E7E0431CDB7F78
:1037C000DB0700D4E2E08668002E3BD033000C3BE0
:1037D000EB603389708802930027618A009B9942CD
:1037E0006AD3A38A9C46002B00D183E0228A029BE5
:1037F0009A4200D280E0002834D19A1C009B9A4261
:1038000035DB002F59D16346013BA382002E30D116
:10381000019A029B100204220A339BB20243E18BFD
:1038200065482FF0C5FC0123C380039B478083803C
:10383000029B038103000C3BA060EB600770009BC0
:103840002B834AE0009B012B08D9EB1CDB7F300067
:103850001A02AB1CDB7F13430293BDE73000342711
:103860000296BAE7009BC218029B9A42C9DD342730
:1038700023E0F488009B01340230C018A4B24B1E30
:10388000F480C018FEF7C4FB80B28442D7D904216B
:10389000019B4A481A02114306230A002FF088FCB4
:1038A00003230370039B438001238380F388013B40
:1038B000F3802FF0A1FCC2E7322701983A002100E3
:1038C00000F084FCE868002803D02FF0BFFC002340
:1038D000EB600023A360332F58D0E868002800D1A4
:1038E0002FE7002F00D12CE70C302FF085FC0023B0
:1038F000EB6026E73B27E0E73127DEE70426AB1C39
:10390000DB7F0293019B19020BB20E43052A38D0CC
:10391000062A31D0042A39D1062401981C4303F029
:103920000BFF009B312798428041A4B20740009BC7
:10393000002B00D134270BF01BF8009B984222D3B8
:103940004A23002F02D1009B4A339BB23200210050
:103950001B482FF02DFC00234380039B0770C3807E
:103960007B427B41009A5B4213408380029B0C3870
:1039700003751300E86063E708241C43A4B2002722
:10398000D5E73400FBE731274A23DFE70422019B18
:103990000B48190211434A230A002FF009FC332770
:1039A0000023039A43800770C28083800C38E8604C
:1039B00093E7C0461C0000000E0A00000B0A00003E
:1039C000130A000042574200426C42005757576C9E
:1039D00042004B005752004241005050004257579E
:1039E0006C5700424C575700424C575757570042AC
:1039F0004C5700424C5757575757000000000000E3
:103A0000C4390018F1390018F1390018E5390018E7
:103A1000C8390018CC390018C9390018CD39001838
:103A2000C8390018F1390018C9390018E5390018EB
:103A3000C9390018E0390018C9390018CD39001803
:103A4000C8390018CE390018D9390018CE390018F5
:103A5000CE390018CD390018CD390018244C011882
:103A6000D939001800000000CE390018000000000D
:103A7000CE390018D9390018000000000C4C01188C
:103A80000C4C0118D2390018D2390018244C0118F6
:103A9000D2390018D4390018D2390018D739001893
:103AA000D2390018244C0118DA390018D23900181C
:103AB000244C011800000000DD390018000000004F
:103AC000000000000000000000000000E3390018C2
:103AD000E3390018000000000000000000000000B2
:103AE00000000000000000000000000000000000D6
:103AF000000000000000000000000000E83900188D
:103B0000EF390018F3390018F3390018E3390018B9
:103B1000F8B50E008A880221050000F0E5FA041EBF
:103B20000ED0471CFB7FDB070AD5818B1D4BF2882B
:103B30005B1A9A4206DD01003D22280000F046FB98
:103B40000020F8BD002AFBD004232A02C18B1A43AF
:103B500015482FF02DFBF288A38BD318A383E3899C
:103B6000428003802FF048FBFA7F9307E8D5636813
:103B7000002B04D10D4B290003201B68984702221B
:103B8000FB7F9343FB770A4BAA001B6861681B68A5
:103B90000C39D058043030F00BFB01212800FEF71F
:103BA000ABFACDE7FFFF00000C0A00002C05000077
:103BB0001C000000F7B50D0000210600FEF72EFCEA
:103BC00000285BD06A7843789A4257D1017801295E
:103BD00054D18288300000F087FA3323041E019309
:103BE00047D0042733021F43390026482FF05EFADE
:103BF000AB890B2B44D8244AD35C0193002B06D10C
:103C0000AA881300403B3F2B07D94C230193002285
:103C10002100300000F084FA2BE0EB88162BF4D959
:103C20002B89162BF1D90221300000F05DFA002813
:103C3000EBD13A000C23E18B14482FF0B9FAAB8892
:103C4000E382EA8822832B8963839C460123698966
:103C5000651CA183EF7F3B43EB77A3894380E38916
:103C6000C1808380634643810023028103702FF06B
:103C7000C3FA00213000019AFEF7C4FA0020FEBD0D
:103C80003C23C3E7140A00005C400018080A000047
:103C900070B50D0000210400FEF7C0FB00281ED007
:103CA0006A7843789A421AD10378022B17D10121FE
:103CB0004288200000F018FA4725011E04D0012296
:103CC000200000F02DFA00250421230205481943A5
:103CD0002FF0ECF92A0000212000FEF793FA0020D3
:103CE00070BDC046140A00001523F0B589B002AAC1
:103CF00005009B18162288880F0002A95218290077
:103D00000AF022FF84B2472C00D194E00121280060
:103D100006F0A0F802AB01005E7D002800D072E042
:103D2000B3070CD0280006F095F8002806D0022131
:103D3000280006F08FF83924002800D13624E0B29C
:103D400000F0B4F90590002800D07BE0FA88130059
:103D5000403B3F2B01D9092305933B89162B00D803
:103D60006BE07B89162B00D867E00221280000F069
:103D7000BBF90A23002800D063E00121B8880AF0CB
:103D8000FDFE00285CD1059B002B5BD12A02043389
:103D900002A91A43C98A04332F482FF009FA0121D6
:103DA000060024202FF02AFBBB88059A8381C2815C
:103DB000FB8802AAC3823B89040003837B89AD0090
:103DC0004383BB8921008383D38AC3830423038471
:103DD0007A78C31CDA77059B436083601F4B1B68AE
:103DE0001B68E858103030F019FAA389300033808E
:103DF000E38A7380238BB380638BF3802FF0FCF90D
:103E0000002009B0F0BDB3070CD402AB5B7D5B07AB
:103E100000D494E7280006F05DF80F2800D98EE75B
:103E200038248CE7280006F03DF803231E40B042FA
:103E300000D283E7E9E73A2481E70B23059394E76F
:103E400004230593002328007A78059902930193AF
:103E5000009300F003FAD3E7060A00001C000000FC
:103E6000F8B50E00CA880221050000F03DF9041ED5
:103E700012D00127421CD37FBB43D377A322831CDC
:103E8000DA77C28AC3897178280000F027FA3A00ED
:103E90002100280000F044F90020F8BDF8B58B8817
:103EA00004000D004C27022B01D8274AD75C0021C3
:103EB0002000FEF78DFA431E06000021012B03D8D7
:103EC0002000FEF7ABFA41780423220210B21A4315
:103ED0006B788B422ED111001C482FF0E7F8012E91
:103EE00014D100212000FEF799FA002807D082881B
:103EF0003100200000F0F8F80022011E16D1200049
:103F00003A000021FEF77EF90020F8BD022EF6D11E
:103F100000212000FEF782FA0028F0D0012142881B
:103F2000200000F0E1F8011EE9D00122200000F09D
:103F3000F7F8E4E708230343280099B208382FF084
:103F400074F90120E1E7C04668400018140A000037
:103F5000F0B585B01C000AAB1E88002704231500AD
:103F6000020203911343052101220097FFF714F881
:103F70008580012D03D0022D0FD0C78003E004728D
:103F8000240AC5804472039B4370C38801335B00DD
:103F90004380FFF717F805B0F0BD04728672240A5B
:103FA000360AC5804472C672EDE773B505000E008F
:103FB00005F020FE041E08D1030002000090717875
:103FC0002800FFF7C5FF200076BD0821042230003D
:103FD0002D022BB2194308382A4389B22FF025F954
:103FE0000120F1E737B504000D0005F003FE0128BC
:103FF00009D16978002520002B002A000095FFF7E1
:10400000A7FF28003EBD082104222800240223B275
:1040100019430838224389B22FF007F90120F1E74C
:1040200073B5082300240D790B4A1678AE4200D1EF
:104030005468013BDBB20832002BF6D1002C02D0D1
:104040000431A04776BD4979230022000094FFF790
:104050007FFF2000F6E7C0466C400018003C3A3C69
:104060003536373839333E403C31330001000000EB
:104070009D3E001812000000E53F001813000000EC
:10408000AB3F001806000000613E0018070000006A
:10409000913C001814000000E93C001815000000D5
:1040A000B53B001816000000113B0018030000B5D6
:1040B00000280DD0353BDAB218000623052A07D8B0
:1040C000052804D831F01EFC0608030A0C0E06234E
:1040D00098B200BD0423FBE70523F9E70723F7E7C0
:1040E0000823F5E70223F3E70C4B80001B681B68ED
:1040F000C058002811D0006900280ED0012908D02E
:10410000022908D0002902D18389934205D0006892
:10411000F2E7C389F9E7C38AF7E770471C0000009C
:10412000F0B5284B85B01B6803921B688200D658F7
:10413000070030000C00103030F08CF8631CD97F81
:10414000A0894907C90F0AF033FD039B002B10D04B
:1041500004233A021A43E18B1B482FF029F8E38924
:104160000380A31CDB7F002B00D1463383702FF02C
:1041700043F8A068002807D0F3680C38834201D1C7
:104180000023F3602FF062F86568002D15D00C3D18
:104190002900301D30F05EF8039B002B0AD0002070
:1041A00063682A89197801909B8838000093462318
:1041B000FEF710F828002FF049F820002FF0A8F99A
:1041C00005B0F0BD1C0000000A0A0000042370B511
:1041D0000C0001021943150008480A002EF0E8FF00
:1041E000E3894380022303702FF006F80121621C4B
:1041F000D37F02348B43D377E57770BD090A000083
:10420000F0B5042487B01D000CAB1B880F0003938E
:104210000DAB1B88160004930EAB1B88142205936C
:1042200003021C430023052100932300FEF7B4FE84
:10423000039B47708381049B86804381059BC580D7
:104240000381FEF7BFFE2100024A03482EF0AEFEB6
:1042500007B0F0BD30750000140A0000F0B585B05D
:104260001C000AAB1F880BAB1E880CAB1B8815000B
:1042700003930423020213430022029100920521BA
:104280001532FEF789FE039B4570C380029B848034
:10429000478106818381FEF795FE05B0F0BD0000E1
:1042A000F7B504241D0003021C4300230F00160071
:1042B0000521062200932300FEF76EFE4770C6809C
:1042C0008580FEF77FFE2100024A03482EF06EFE35
:1042D000F7BDC04630750000140A000073B51C001D
:1042E000042315000202134300220E000092052150
:1042F0000732FEF751FE46708580C480FEF762FEED
:1043000073BD73B51C000423150002021343002281
:104310000E00009205211632FEF73EFE46708580A3
:10432000C480FEF74FFE73BD7FB505000E0014007C
:10433000684610220A4931F02FFB0C20042C03D0D0
:10434000022C01D00020102431002200684431F0FA
:1043500023FB28001022694631F01EFB7FBDC046BA
:10436000B84A001870B516001D0088B0022909D19E
:10437000022B0BD12A00310031F000FB44424441B2
:10438000E4B206E0042907D1042BF3D00024102D59
:1043900004D0200008B070BD1029F7D10A00010038
:1043A0006846FFF7C1FF2A00310004A8FFF7BCFFF1
:1043B0001022684604A9DFE707B513006A460632F3
:1043C00013800223FFF7CEFF0EBD000030B510258D
:1043D000040085B02A006846084931F0DDFA210062
:1043E00002220C3103A831F0D7FA2B002200290059
:1043F0006846FFF7B7FF05B030BDC046B84A0018A1
:1044000030B51025040085B02A006846084931F00F
:10441000C3FA210004220C3103A831F0BDFA2B00AD
:10442000220029006846FFF79DFF05B030BDC04659
:10443000B84A0018F0B587B002930CAB009204CBD9
:1044400001901F880FAB1B780025049304ABD98023
:104450000123072118000392029A934236D31626AD
:10446000681C032170432EF0C9FF019B049A1B882E
:104470000400038060239A4304AB457147800271B6
:10448000991D0222063031F087FA012700220E9D85
:104490000835029B9F4229D3200000F059FB051EDE
:1044A0000ED12388019A010013800722030094464D
:1044B00001270298CAB2904202D9039800283AD143
:1044C00020002FF025F8280007B0F0BD009A002A40
:1044D00007D0009CDA08A25C1C000C40224102427A
:1044E00001D00135EDB20133DBB2B5E7009B002B03
:1044F00007D00099FB08CB5C072139400B41DB0753
:1045000015D533005343E988E3181985A988144861
:10451000014059856988D984531C180070430222D0
:1045200029002018049331F037FA6B461A7C0137C2
:10453000FFB20835ADE70098002807D0009ED008EC
:10454000305C664632401041384206D0019A0398EA
:1045500012889A1801334254DBB20131A9E7C046F0
:10456000FF9FFFFFF0B587B003930CAB019204CB24
:104570000F001B88029005930FAB1D7801230026C6
:10458000072118000492039A93423AD31620731C11
:10459000584303212EF032FF029B04001B88057153
:1045A0000380059B6D064671438002220630AD0FE5
:1045B00003D09218012D00D00C32390001260027BB
:1045C00031F0EAF90E9D1635039B9E4229D3200057
:1045D00000F0BEFA051E0ED12388029A0100138056
:1045E00007220300944601270398CAB2904202D9D9
:1045F0000498002843D120002EF08AFF280007B03D
:10460000F0BD019A002A07D0019CDA08A25C1C00C8
:104610000C402241024201D00136F6B20133DBB236
:10462000B1E7019B002B07D0019AF308D35C072266
:1046300032401341DB071ED516227A43AB8AA218FB
:1046400013856B8A781C5385298A5B13D1840321D7
:10465000162219408C4603215043143A20180B426D
:1046600004D063460232012B00D00C32290031F015
:1046700093F90137FFB20136F6B21635A4E7019877
:10468000002807D0019ED008305C664632401041B9
:10469000384206D0029A049812889A18013342547C
:1046A000DBB20131A0E710B586B06A46038804008A
:1046B000013968461380517100F026FA6B461B8859
:1046C000238006B010BD0000F0B585B00193002333
:1046D000140002AA0F0011000293137100F012FEE1
:1046E000061E07D1A02102A8890100F061FE002862
:1046F00003D00626300005B0F0BD204902A800F026
:1047000057FE0028F5D11E4902A800F051FE0028EE
:10471000EFD11C4902A800F04BFE0028E9D1A421EA
:1047200002A8890100F044FE0028E2D1164902A83F
:1047300000F03EFE0028DCD1144902A800F038FE4B
:104740000028D6D1029B04215A5E9D88002AD0DB26
:104750002D052D0D5D196B88A34200D207262A88EE
:104760003B19934207DC201D3A000199281831F0CB
:1047700013F96F80BEE70D26BCE7C0460128000094
:10478000032800000228000002290000032900007D
:104790000023F0B58FB006AE03913100070015007D
:1047A0000693337100F0AEFD041E1BD1A021300032
:1047B000890100F0FDFD002817D00F2702ABFF187C
:1047C00001233900300000930AAA00F04FFE041EB6
:1047D00008D14A4E3A78039B30001A800AA931F07A
:1047E000DBF82E6020000FB0F0BD3000444900F02F
:1047F000DFFD0028E1D13000424900F0D9FD00285A
:1048000026D0013708AEBFB23100380008943471A9
:1048100000F078FD041E4FD101230F210093030007
:1048200002A809180AAA300000F020FE02ABDA7BC9
:104830000399D31C0B80089B33495B8833481B0AC0
:104840004B77CF830AA931F0A7F82C4B2B60C9E72F
:1048500030002F4900F0ACFD00282FD0336808AE9F
:104860009A8831001205120D9B185A791879120294
:1048700010430894347100F045FD041E1CD10F272D
:1048800002ABFF1801233900300000930AAA00F0A0
:10489000EDFD3F78039A089E3B1D138031000222F4
:1048A000164831F079F80222B11C1A4831F074F838
:1048B0003A0019480AA9C6E7802493E7A4213000EA
:1048C000890100F075FD32689388002807D01B0528
:1048D0001B0DD3180222039904330A80B6E7042083
:1048E000115E002908DB1B051B0DD3181A1D2A6059
:1048F0005B88039A138075E7062473E75500000070
:1049000001280000032800003800000058000000C3
:104910000228000057000000590000000023F0B5F5
:1049200087B0019202AA0091110004000293137152
:1049300000F0E8FC051E07D1A02102A8890100F0C3
:1049400037FD002803D00625280007B0F0BD204918
:1049500002A800F02DFD0028F5D11E4902A800F0A4
:1049600027FD0028EFD11C4902A800F021FD0028F6
:10497000E9D1A42102A8890100F01AFD0028E2D1A2
:1049800004AF013C3900A0B2029E04953D7100F0D5
:10499000B9FC00280DD138000E4900F009FD0028AF
:1049A00007D07388009A1B0A120A934201D004F0C0
:1049B00073FE8022009B019952017380B3881142DB
:1049C00002D01343B380BFE7044A1340FAE7C0465E
:1049D000012800000328000002280000FFEFFFFF6D
:1049E00073B5002315006A460E00694600931371E3
:1049F00000F088FC041E07D1A0216846890100F060
:104A0000D7FC002802D00624200076BD68460F4956
:104A100000F0CEFC0028F6D168460D4900F0C8FC35
:104A20000028F0D168460B4900F0C2FC0028EAD10A
:104A3000A4216846890100F0BBFC0028E3D1009B5B
:104A40005A88B2432A435A80DEE7C0460128000054
:104A5000032800000228000010B50C0000F0B2FA94
:104A600003000120002B07D060220020997A944394
:104A70004906890F2143997210BD10B50C0000F052
:104A8000A1FA03000120002B04D0602200209B7AB1
:104A90009343237010BD000010B5012804D00228F4
:104AA00001D100F077FA10BD0022024B5A609A60E3
:104AB000F9E7C04638000000FB349B5F80000080AF
:104AC0000010000000000000F7B50E4C050027683C
:104AD0000E000192002F14D0002806D120001022D1
:104AE0000C3030F059FF012323773B68002B03D0B3
:104AF00031002800019A984720682EF009FD002314
:104B00002360F7BD380000000288104B002A18D13E
:104B100001221B680280002B16D0417902885218AE
:104B200099888A4210DBDA880132F2E7D98891420B
:104B300007D3417900209B888A189A424041C0B22D
:104B400070471B68002BF1D10020F9E73C00000002
:104B5000F0B589B00190FFF7D7FF051E029014D180
:104B6000019B10241E797606B60F06D0012E1ED0AA
:104B7000022E00D1EEE140230293019B5B79AB4210
:104B800000D8CAE0029B002B14D0029809B0F0BDF7
:104B90006022019B01991B7938009343019A1231DD
:104BA0001371320030F0F8FE10240295E5E714246A
:104BB0000290E2E716236B43019AD3185B8D5B04E6
:104BC0009B0F38D0012B31D0022B02D0402302930F
:104BD000DBE71027A01D83B203931623691C4B4308
:104BE0000493049A019B39009E18A0223000920180
:104BF000FFF7E2FB0028E9D139003000CC4AFFF78B
:104C0000DBFB0028E2D139003000CA4AFFF7D4FBB1
:104C1000002815D016236B43019AD318A022DB8CF1
:104C20001201134093421CD05623D0E7A01D83B23B
:104C300004270393D1E7A01D83B202270393CCE797
:104C400039003000BC4AFFF7B7FB0028E2D1390039
:104C50003000BA4AFFF7B0FB002806D00C34A3B2EC
:104C600003930135039CEDB287E7A422390030009D
:104C70009201FFF7A1FB0028F0D139003000B04AC3
:104C8000FFF79AFB0028ECD1042F03D10A34A3B21A
:104C9000039316E0102F14D13000FFF797FB002884
:104CA00020D016236B43019AA649D3185A8D0A4087
:104CB0005A8502220499019B0C315918300030F0BA
:104CC0006BFE16236B43019AD3182A215A5E002AE1
:104CD000C7DB1C8D01232405240D05349C43039B55
:104CE0001C19BCE73000FFF78BFB002813D00A34F7
:104CF000A3B2039316236B43019A9249D3185A8D9A
:104D00001140802292010A4304995A85019B0C317B
:104D100004225918D2E71634B9E7029B002B00D0C1
:104D200033E7200001212EF069FB019B019A1B88CB
:104D300005008380527904199B18C380019B029A55
:104D40005B880381019B1B79C27283725B069B0F98
:104D500017D1019B0222991D0C3030F01DFE002757
:104D6000019B5B79BB4220D800230120764A116861
:104D7000002900D1D5E0002B00D1C8E004F08CFC64
:104D800003E7012B0AD10422019B043C991D20005A
:104D900030F002FE2B1DE31AAB81E0E7022BDED1DF
:104DA000019B1022103C991DF1E716210B007B435B
:104DB000019AD3187A1C51435B8D019A5B049B0FB7
:104DC00006915618002B23D1062078430E3002227C
:104DD0003100281830F0E0FD0223039306237B43C3
:104DE0000793EB18049316237B43019A3000D318E2
:104DF0000593049ADB8C03991382514AFFF7DCFA7E
:104E0000002829D00023049A53820137FFB2A7E774
:104E1000012B0ED1043C04223100200030F0BCFDF7
:104E200006237B43EA180E33EB18E31AD3810423DD
:104E3000D3E700220392022BD0D1103C1032310074
:104E4000200030F0A9FD06237B43EA180E33EB184F
:104E5000E31AD3811023C0E73000384A0399FFF7E3
:104E6000ABFA002813D002220699019BA61F12312B
:104E700032807280A01E591830F08EFD06237B43CD
:104E8000EA180E33EB18F31A34005382BDE7A4225C
:104E9000300003999201FFF78FFA0028E3D1300028
:104EA000244A0399FFF788FA00280DD0162206231A
:104EB0007A4301997B438A18528D2449D204D20F38
:104EC000EB180A435A82A0E730001B4A0399FFF708
:104ED00073FA0028EAD1059B1D4E2A21595E059BD5
:104EE0000E401B8D1B051B0D002903DA1E43049B7E
:104EF0005E828AE701215A1D8A430799A41A0E315E
:104F00006918621A23806080049B3243DAE7AE8816
:104F10008C88A64203D229600300156027E70A00A7
:104F200025E7002B00D029E715602B6026E7C04657
:104F300001280000022900000329000002280000C7
:104F400003280000FF9FFFFF3C0000000280FFFFDE
:104F500000F0FFFF019B9F1D3800FFF737FA002884
:104F600000D015E63800FFF74BFA20231C0000287C
:104F700000D102E66021019A380012790C3C8A4384
:104F800013430199019A12311371042230F004FD88
:104F90000295F2E570B50A4C606800280AD12068D5
:104FA000002801D02EF0B4FA00236360A3602360D0
:104FB000237770BD05682EF0ABFA2800EDE7C046F8
:104FC00038000000104A0300906810B551680028AE
:104FD00006D084889C4203D8C18899420ED20168C9
:104FE00008000121002809D084889C4209D8C4887F
:104FF0009C4204D3C47A0C4201D1906010BD006879
:10500000F0E70020FAE7C04638000000F0B5A44BF6
:105010008BB0049006911C7F002C09D0071E04D091
:105020000A0000209F49B847002738000BB0F0BDA8
:1050300027005D68002D67D0002F08D0984C2068AD
:105040000028F2D02EF064FA00232360EDE701225D
:10505000EB7A134217D10320AA88EB88A97A9B1A0E
:1050600049110622DBB2014200D00E32A4180622FA
:105070002E00002753435B19A4B20393039BB34252
:1050800001D0002F01D02D68D4E70322338A5B13AF
:1050900013420BD1A422F3899201934230D007D856
:1050A000814A93420AD0814A93421FD00636E5E7EF
:1050B0007F4A9B18042BF9D8043415E0738A1B052A
:1050C0001A0D33000E339B185A79187912021043C7
:1050D000FFF778FF002815D00321827A0A235211A6
:1050E0000A4200D00E33E418A4B2DFE70321728A2B
:1050F00007345213A3B202240A42F4D00E34F2E76A
:105100000634F1E75127D1E7002F97D10321201D65
:105110002EF074F92500049A614B026018605B68F8
:1051200003900493049B002B00D1A3E0002F03D035
:10513000432F00D179E781E70122049BDB7A1342F8
:1051400040D1049B06A99E88DB8809AA9B1BDBB281
:1051500007930A235B1819003000FFF719FB049B23
:10516000AA1E998892B20B02090A0B4303991BB23B
:105170008A181371043D9BB21B0AADB253714A19D0
:105180007F21049B07009B7A282099429B415B4228
:105190005371107106AB5B890399ED1AADB22A1DEC
:1051A0008A180999002B11D1049B01360E330593FF
:1051B000079BB6B2F3189BB20793079B9E4201D0A0
:1051C000002F09D0049B1B680493ABE7013B9BB203
:1051D000C85C10700132E5E70322059B5B885B1316
:1051E000134241D1A422059B92011B88934204D013
:1051F00035D8304A9B18012B36D801220398AB1EB4
:105200009BB271BAC31889B21971090A5971059B09
:10521000043D1988ADB20B02090A0B431BB24119B8
:105220000B719BB21B0A4B71002A1DD00A2306A9E1
:105230005B18190009AA3000FFF7AAFA070006ABAD
:105240005B890399ED1AADB22A1D8A180999002BC2
:105250000AD0013B9BB2C85C10700132F7E7144AD8
:105260009B183A00042BC9D9059B01360633B6B208
:105270000593A2E7002F00D05AE7002D05D00E4B72
:105280002200290003201B689847069B039900937E
:1052900022000A4B0A4804312FF06AFAC5E6C046DC
:1052A000380000004400000002280000032800002D
:1052B000FFD6FFFFFED7FFFF2C050000C94A0018EC
:1052C0007056001870B50E4C6368002B01D1012098
:1052D00070BD9A888242F8D8DA88824201D21B686F
:1052E000F3E7DA7A0120150005408D4204D08243AD
:1052F0000A43DA7204F0D0F90020A060E8E7C04663
:105300003800000070B505000C00FFF75BFE0300DD
:105310000120002B07D09888A84205D104332360D0
:1053200001230020237170BD01302D1A062068432F
:105330000E301B18002023602071F4E770B51B4C61
:10534000A3686268002B07D005889E88AE4203D808
:10535000DA88AA4216D21A6813000122002B01D162
:10536000012070BD06889D88AE4207D3DD88B54216
:1053700002D3DD7A154205D01B68EFE7DE7A1642CC
:10538000FAD105809A880088824206D11A1D0A60E7
:1053900001220A710020A360E3E70132801A06228D
:1053A00042430E329A180A600022F2E738000000E9
:1053B000030000791B6800280BD1002B08D09A88C5
:1053C0005204920F04D11888401A41424841C0B299
:1053D0007047002B0CD0A02292019142F8D09B790B
:1053E00000207F2BF4D9034BC91848424841EEE70F
:1053F0001800EDE7FFD7FFFF70B50D00A021890170
:105400000400FFF7D5FF0623002826D12000144909
:10541000FFF7CEFF062300281FD120001149FFF718
:10542000C7FF0623002818D120000F49FFF7C0FF4F
:105430000623002811D1A42120008901FFF7B8FF1D
:105440000623002809D121688A88130512B21B0D92
:10545000002A00DBCB5A2B800300180070BDC04629
:10546000012800000328000002280000F7B51F00F3
:1054700008AB050010001A7800230B702E680C0092
:1054800001219E421AD02B79002B35D0B379002F01
:1054900022D05B069B0F19D08B420CD104232370C2
:1054A00029680B89C918002A14D00422FEF73CFF92
:1054B0001023237001E0022B02D000210800FEBD62
:1054C0001023237029680B89C91803E00223237075
:1054D0002968083122780AE05BB2002B0ADBA0239E
:1054E0009B016A46D38002226B462270991D30F0E0
:1054F00053FAE2E70C4BF4E7B3885B049B0F08D048
:10550000012B0CD0022BD8D10E33237029680B88C5
:10551000DAE70223237029680029CED0DAE70423D2
:10552000237029680B88BDE701280000F0B585B01D
:105530000A9E0F00336815000190002B26D0A02191
:1055400030008901FFF734FF002818D130004249AC
:10555000FFF72EFF002812D130004049FFF728FF47
:1055600000280CD130003E49FFF722FF002806D169
:10557000A42130008901FFF71BFF002816D08023EB
:105580009B00002D0BD12C003B8005E031000198E1
:10559000FFF7B8FE041ED2D0200005B0F0BD9D423A
:1055A00001D00624F8E700243C80F5E733680400C6
:1055B0005B883B80002DEFD01D42F2D002ABD8714A
:1055C000D91D0198FFF759FA041EE5D133680C3450
:1055D0009A8880235B011A4207D102AAD17902225C
:1055E0000C001440114200D00C249D422FD00DD845
:1055F00080239B009D4218D010D31A4B1A4AEB18F7
:1056000013420BD13B881B079B0F11E080239B01AA
:105610009D4219D08023DB019D42F3D0134B2A0019
:1056200003201B680199984703E003223B8813403D
:105630003B8002ABDB79DA060CD43A881B079B0F60
:105640009A42A9D23B80A7E73B889B06DCE73B88D0
:105650001B06D9E708249FE7012800000328000063
:105660000228000000FCFFFFFFFB00002C050000EB
:10567000000000000000000000000000000000002A
:1056800070B50D7806001B3D6B1E9D411B4B0C0039
:10569000ED181B4B4A881B6881001B68CB589B691F
:1056A000002B04D1300004F0CBFB010006E0998808
:1056B000914220D8D98891421DD319890622A38806
:1056C00036020633324328009BB22DF071FD237859
:1056D00005001B3B5A1E934112330370A288A11D83
:1056E000428063888380063030F056F928002DF020
:1056F00083FD002070BD1B68D2E7C0460C0C000083
:105700003000000010B50121040002F033F80C282D
:1057100004D000220F2811D041220FE001212000E7
:1057200002F078F8418903890022994206D0064B9D
:10573000A2001B681B68D3582C331A782000012163
:1057400002F016FA002010BD3000000070B50D0008
:10575000040009F00DF96988814200D90100200098
:1057600089B202F07BF80121200002F003F8002248
:105770000100012801D041220121200002F0F8F9A6
:10578000002070BDF0B587B002910121040001F046
:10579000F1FF41220B2816D100260121200002F042
:1057A00039F80622370023021A4303900592009627
:1057B000039B009A5B7893420CD8029B5B88BB42A8
:1057C00000D0502632002000012102F0D1F9002043
:1057D00007B0F0BD0121200002F0DAF8009B039A27
:1057E0009B00D3180193DB8801000633059A9BB216
:1057F00015482DF0DDFC019B05009B880380029B72
:105800005A88019BD21BDB889A4200D91A0093B2B6
:105810000493AB8000236B80029B391D5918A81D8F
:1058200030F0BAF8049B049AFF18019BBFB2DB88E2
:10583000934200D0502628002DF0DEFC009B01335F
:10584000DBB20093B4E7C046090C0000F7B50E00C8
:105850000121070001F08EFF0C2824D1012138001E
:1058600001F0D8FFB588C3880400ED1AADB2290055
:105870000C31458141183000F38808301A0001933B
:1058800030F07CF800280CD1019B5D1923899D42E2
:1058900007DCADB201213800658102F047F8002035
:1058A000FEBD044DF6E741220121380002F060F907
:1058B000F5E7C046FFFF0000F0B585B0019101217A
:1058C000040001F057FF402203281AD101212000D3
:1058D00001F0A0FF06220500002623021A43A300C0
:1058E0000393284B02920093019B5B88B3420DD82F
:1058F000009BEA8801339BB29A4201D3002B38D136
:105900000A220121200002F033F937E001212000B2
:1059100002F03EF86B780100029A06331A482DF027
:1059200047FC019B070099194A790B79290012025B
:1059300013430380019AB31C9BB2D3185A791B7985
:1059400012021343438000936A78083102710530D4
:1059500030F022F838002DF04FFC0C4B039A1B68F6
:1059600004361B68B6B29B584C331A7801321A7051
:10597000BAE701212000AB8001F0D8FF002005B07C
:10598000F0BDC046FFFF0000040C00003000000026
:10599000F0B587B002910121050001F0EBFE402235
:1059A000072820D10121280001F034FF029B039039
:1059B0005B780227012B00D00E37062200242B0231
:1059C0001A43AB00049205930094029B009A5B88F3
:1059D00093420DD8039B0134DB88A4B2A34201D3C8
:1059E000002C35D10A220121280002F0C1F835E04F
:1059F0000121280001F0CCFF049A01003B1D194849
:105A00002DF0D6FB009A029B911C9B185C791B79A8
:105A100024021C4389B2029B04313A0059180190B8
:105A20000480877003302FF0B7FFBEB2009B0236B0
:105A30009E19B3B2019800932DF0DEFB0A4B059A34
:105A40001B681B689B584C331A7801321A70BCE7EC
:105A5000039B012128009C8001F068FF002007B013
:105A6000F0BDC046070C000030000000F0B587B064
:105A700000914E884F780121040001F07BFE050063
:105A8000022800D081E039003000FCF7C1FA00287C
:105A900000D17AE00121200001F0BCFE009B0290C1
:105AA0005B78142B00D10E35002606223700230226
:105AB0001A43A300049205930396009B5B88BB42A4
:105AC0004BD8002E4FD000220121200002F050F8C8
:105AD00058E00121200001F05BFFABB2063301006A
:105AE000049A9BB22A482DF063FB009B461DD919EE
:105AF0004A790B79120213430380009ABB1C9BB2B4
:105B0000D3185A791B79120213430393391D039A50
:105B1000009B89B20431428059182A000190057116
:105B200030002FF039FFABB20433029AFF18029B0A
:105B300008325B7829003000FEF714FC060001985B
:105B40002DF05AFB134B059A1B68BFB21B689B587C
:105B50004C331A7801321A70AFE7002EB3D10E4BD6
:105B6000039A9A42B5D1039B029A0133D2889BB221
:105B70009A42A8D3002BA6D0029A0121200093803C
:105B800001F0D4FE002007B0F0BD41229CE7C046E2
:105B9000040C000030000000FFFF000010B50121E0
:105BA000040001F0E7FD00220C2800D04122200073
:105BB000012101F0DDFF002010BD00007F2310B5A2
:105BC0000A780C001340522B09D01E2A07D0062158
:105BD00000020143C420044A00012DF0E7F920002F
:105BE000FDF7F0F910BDC046307500000623020233
:105BF0001343002213B5042100921E320400FDF766
:105C0000CBF901002000FFF7D9FF13BD062337B5FC
:105C10000202134300220D000092042118320400F6
:105C2000FDF7BAF9457001002000FFF7C7FF37BD47
:105C300070B50B7904000D00122B0ED104F000F9A1
:105C40000622230201001A4318482DF0E7FA012129
:105C500020002A7901F08CFF26E00A2B0CD1144B8E
:105C600082001B681B68D3584C331A78002A03D073
:105C700000221A700A71EAE76B78162BE7D101212E
:105C8000200001F0C7FD0028E1D04378002BDED0D2
:105C9000074BA2001B6800211B682000D3582A79FB
:105CA0002C331A70FFF7B2FF002070BD230C0000E8
:105CB00030000000F0B50C0089B00121050001F0B2
:105CC00059FD062805D804282FD800D1A6E0402287
:105CD00049E00A28FBD12800667801F02DFD023842
:105CE0000121864200DB1AE1280001F051FE062264
:105CF000637801002802024304339A482DF058FAD1
:105D00000026070062792379120213430380627828
:105D1000A11D023A92B28280468006302FF03CFEEE
:105D200038002DF069FA32001DE00121280001F051
:105D300071FD039063781026072B00D80E3E0622D3
:105D40002B021A43AB00069300231F000592049315
:105D50006388BB420CD8049B039A0133D2889BB260
:105D60009A4252D20A220121280001F001FFD4E018
:105D7000E219537912791B021A43039B04921B7890
:105D8000052B32D10121280001F002FE059A010005
:105D9000B31D75482DF00CFABB1C9BB2E3181B79A0
:105DA000049A0371FB1C9BB20280E3185A790537F1
:105DB0001B791202BFB21343391D32004380029097
:105DC0004671611806302FF0E7FDB3B20298DF1973
:105DD0002DF012FA654B069A1B68BFB21B689B58E0
:105DE0004C331A7801321A70B2E73800039B039AD9
:105DF000093031005B7820180832FEF7B3FA00282A
:105E0000C0D16378FF18BFB2A2E7039A002BA9D0D4
:105E100001212800938001F089FD7EE00121280006
:105E200001F0F8FC069063885B071FD10123039300
:105E3000DB1800260622370002932B021A43059234
:105E400004966388BB4215D8039B002B01D1002E1A
:105E500055D1049B069A0133D2889BB29A4200D254
:105E600080E7002B00D17DE7069AD1E7002303935A
:105E70001033DEE70121280001F08AFD6B461B8903
:105E800001000793029B059A083339482DF090F9D9
:105E9000E219537912791B021A43BB1C9BB2028090
:105EA000E31804925A791B791202134343803B1D75
:105EB0009BB2E3185A791B79120213438380039B28
:105EC000B91D060089B2002B0FD0029B04311A00C5
:105ED0008371611807302FF05FFD079B3000063398
:105EE000FF18BFB22DF088F9ABE731001F4BAA00B5
:105EF0001B680C391B68D05810302EF059F900245B
:105F00000421059B0A2228000094FDF745F87388B8
:105F1000010043802800FFF751FE00201FE0280009
:105F200001F078FC62792379120213430022838006
:105F30006378028122002100023B9BB2083AC380B1
:105F400053800A4BAA001B6814391B68D0581030C4
:105F50002EF02EF90121280001F0E8FC012009B003
:105F6000F0BDC046090C0000060C00003000000027
:105F7000050C0000F0B5394C830085B0039323680D
:105F800082001B6805009B581B69002B49D001212A
:105F900001F040FC2368AA001B6807009B58012100
:105FA0001C69280023000C330193E68901F0F0FC02
:105FB0000622B31D2D0201009BB22A4328482DF072
:105FC000F7F88680BB8805000380FB8800260293D3
:105FD0004380237D092B17D12100627D0630023AD0
:105FE0001A312FF0D9FC637D27689E1EB6B2002FB0
:105FF00003D0029AD31A02336B8020002DF026F9C9
:106000003B003C000C330193002C0CD1134B039A42
:106010001B681B68985810302EF0B4F828002DF03B
:10602000EBF805B0F0BD019BB01D19005A89281886
:106030000C312FF0B1FC019B24685A899619B6B235
:10604000002C02D06B889B1A6B8001980C382DF0C5
:10605000FDF820000C300190D6E7C046300000006B
:10606000090C0000F7B50D000121040001F082FBCE
:10607000042831D00838C0B2022800D97FE00121BD
:10608000200001F0C7FB2B000022290006003D4F35
:10609000083B5A80A30001933B68A2001B68143997
:1060A000985810302EF084F83289002A44D13B6889
:1060B000A2001B686F889B581A69D389FB189BB292
:1060C000D381314A93423DD9F53AFF3A012120006C
:1060D00001F04EFD0120FEBD0121200001F09AFBE0
:1060E000284BA2001B6807001B68D05810302EF008
:1060F000A7F8291D0300102506000C332A001330D1
:1061000001932FF049FC0198B5742DF075F8B3890F
:10611000FA8801339BB29A4201D3002B05D10A229F
:106120000121200001F024FD04E001212000BB80BA
:1061300001F0FCFB0020CEE76B88934200D91300EE
:106140006B80B4E7200001F0F7FA0138874205DBE5
:106150006A8833899A4206D3002B04D02000FFF7C7
:1061600009FF0022B2E7F1885118F180002B01D01D
:106170009B1A33810121200001F0D8FBAAE74122BC
:10618000CEE7C046300000000502000070B50E23C7
:10619000050000260C000A7A0E490878904200D1CA
:1061A0004E68013BDBB20831002BF6D1FF20002EF8
:1061B0000ED01B3AFD331A4206D00621C4202B0212
:1061C000194300012CF072FF210028000831B0476C
:1061D00070BDC046D8610018030000004D5700187C
:1061E000050000009159001807000000B958001878
:1061F00009000000B55C0018110000006D5A00187D
:106200000B000000656000180D00000065600018BC
:106210000F00000085570018130000009D5B001858
:10622000170000004D58001819000000055700180D
:1062300001000000315C00181D00000081560018AC
:106240001B0000008156001870B5040008000E0005
:10625000FEF7B8FE051E05D1064B320021000320D3
:106260001B689847AB7A2889DB0701D524022043B5
:1062700070BDC0462C05000037B514006A460023E7
:106280000D00911DD380FFF7B7F8002807D16B46AA
:10629000DB88A34204D964199C4200DD0D303EBD69
:1062A0000720FCE7F0B50E00062171430500100041
:1062B000224A85B054188A5A0E216788009369448F
:1062C0003B00FFF733F9062805D00C2805D0041E43
:1062D00004D005B0F0BD2079F9E701246B46DB89D5
:1062E000002B01D10020F4E7280003F0DBFD00289B
:1062F00009D0032E09D1280003F0D4FD6B46DB89B9
:1063000080B28342EED90520E3E70121280003F0A3
:10631000A1FD002808D10221280003F09BFD030005
:106320000F20002BD5D1EEE7002CE4D0280003F09D
:10633000D1FD0F28DFD80C20CBE7C0469C76001893
:1063400073B500236A46009313714A888E880C0047
:106350006B4603210500FFF7A5FF021E01D00020B8
:1063600076BD31000C39684689B2FFF785FF0028F9
:10637000F5D108210622EF202D02A3882EB2073383
:1063800031432A439BB289B200012CF011FFF12363
:106390000370A388050003334380D223037163880D
:1063A000A11D43711B0A8371A28807302FF0F4FAF4
:1063B00028002CF021FF0120D2E70000F8B51500DD
:1063C0000F00040019001E00FFF73EFF0622AB1D60
:1063D0002402010022439BB208482CF0E9FE00236E
:1063E00004002A00390006808580438006302FF0A3
:1063F000D3FA20002CF000FFF8BDC046150C0000B9
:1064000037B500236A46009313714A880C006B4627
:1064100002210500FFF746FF021E01D000203EBD0D
:106420006846A188FFF728FF0028F7D12800638875
:10643000A288A11DFFF7C2FF0120F0E773B51C0081
:10644000062315000202134317220E0000920421B6
:10645000163AFCF7A1FD467045800471FCF7B2FDC9
:1064600073BD00000022F0B589B006AB0F1F069285
:106470001A713A8805000C00002A2DD0AB00039356
:10648000464BAA001B6861881B689858036B002B59
:1064900031D0DA8A8A422CD140302DF0D1FEE38807
:1064A00003999C463B8802001B051B0D05933B4B43
:1064B0001B681B685B58196B002931D08888384FDE
:1064C000604486B20496B8422CDD403318001100B7
:1064D0002DF0A4FE092305E04A880121FFF7E2FE22
:1064E000031ECBD0280062882178FFF7A7FF002089
:1064F00014E01B68CBE73B88002BCDD12800FFF7C9
:10650000A3FE06222D02010002232A4325482CF077
:106510004FFE638803802CF06FFE012009B0F0BDB0
:10652000604604906646A78860885681059E17815C
:10653000D680002905D13033180011002DF038FE27
:1065400006E0CF8A874226D9303318002DF036FF77
:10655000124B039A1B6804211B6828009B58049A5D
:106560001B6B9A8006232A021343E28800921722AB
:10657000FCF712FD21000500638808314380E288A2
:10658000C28008302FF008FAA3882800AB80FCF7FF
:1065900019FD0220C2E70968CBE7C04630000000C1
:1065A00005020000170C000037B500236A4600936F
:1065B00013714A886B460C0001210500FFF772FE3B
:1065C000031E0ED10200A1886846FFF755FE031E88
:1065D00007D128006388A288A11DFFF7EFFE0120E4
:1065E0003EBD280062882178FFF728FF0020F7E7EA
:1065F000F0B58DB00700049101F09EF8023883B227
:106600000593049B5C88BB000693049B9B88A34274
:1066100000D294E0002C00D196E00E2306AA9B182D
:106620001C8000240AAB1C71059B0A9403930E2363
:1066300006AA9B1818000AA9FEF780FE051E00D0C6
:106640007BE0049B9A8806ABDB899A4265D30221E2
:1066500018202CF0D3FE0123C21D811D00930600DB
:106660002B000AA8FEF702FF051E06D006ABD9894B
:10667000444B02001B68032098470E2306AA9B1870
:106680001B88B380B3790793002C30D09C422ED066
:1066900030002CF03DFF3C4E069A33681B689B5837
:1066A0009B6B002B63D0059B039A38009D1A062331
:1066B0003A02ADB21343009505220421FCF76CFCAD
:1066C000023C631E9C410700013444703368069A03
:1066D0001B6840889B582D187D809D6B0023002DE2
:1066E00035D13800FCF76EFC00200DB0F0BD264B14
:1066F000069A1B6831001B68985838302DF058FDF9
:106700000E220398079B0238C01A83B2039306AB8C
:10671000D2181388079C013313800E2306AA9B18F6
:10672000049A1B8892889A42B5D3002BB3D0039A5F
:10673000631C934200DA7AE7ADE70A25ABE7002451
:10674000059B03930125A6E7059B0393FAE7A98818
:10675000FA1802339CB29180201DAA79E91D3818DD
:106760002FF01AF9AB792D68E3189BB2B7E7002D2B
:1067700000D10A35049B38005A8819782B00FFF79E
:106780005DFEB1E72C05000030000000174BF7B5A7
:106790001B6882001B680400D3580F0053331D7818
:1067A000002D1CD108F0E4F8062322020421134333
:1067B0000095032206002000FCF7EEFB050008F020
:1067C000D7F87988814200D90100200089B201F010
:1067D00045F828006E80FCF7F5FB0020FEBD042381
:1067E00000220221FFF72AFEF7E7C0463000000032
:1067F000F7B5140000236A46A778137100936378F5
:106800003F021F433A000D006B4603210600FFF7CD
:1068100049FD021E08D10E2D01D90F3DAAB23B0041
:106820003000E11CFFF7CAFDF7BD00000023F0B502
:1068300087B004AE049333710B7805000C00122B63
:1068400047D01D270521402B0CD03900280002F02D
:106850002DFA12230293002838D1217812394B1EC9
:106860009941043133002800A288FFF71BFD0290F4
:1068700000282BD1E3882800039300F05DFF039BE1
:10688000C61E9E4200D91E0006222B021A43B3B236
:10689000042128000392009313003A00FCF77CFBCC
:1068A00021000500A38832004380B3B28380083101
:1068B00006302FF071F82800FCF784FB2378122BA8
:1068C00004D0054A039905482CF070FB029807B0E4
:1068D000F0BD1B27B9E7C04630750000410C000031
:1068E00010B58400064B1B681B681859036B002BFE
:1068F00000D110BD30302DF0A3FC2CF009FEF1E7E3
:1069000030000000F0B58BB005914B780500012BED
:1069100000D0A0E00A00043A128802928200069297
:10692000029A002A42D15B4A8100126812685258CA
:10693000146B002C3AD0029A08AF0492039207938A
:1069400000233B603B713900E08AFEF7DBFC021E4E
:1069500004D0514B0320E18A1B68984722893800F4
:106960006189FFF789FC059B079A043B1A800600A2
:10697000E28A002800D083E0029B9A4203D0E38899
:10698000A080049303942189049B994200D976E066
:106990000498638981423AD20398A04237D004997F
:1069A000A380E18003942468002C2ED10026394F67
:1069B000069A3B681B689B581C6B002C4CD0280027
:1069C000E18AFFF741FC0622A3882D02063301006D
:1069D0009BB22A4331482CF0EBFB00260500E38AEA
:1069E0000380A388838023894380AB88B34201D886
:1069F000002B03D12A88E38A9A4211D028002CF078
:106A0000FBFB012420000BB0F0BD029298E7C918EF
:106A100089B20491039989885B1803998B80C2E736
:106A20002100B01D1C31628928182EF0B5FF638942
:106A3000069AF6182368B6B202933B681B6898580A
:106A400030302DF0FDFB20002CF062FD029B002B6E
:106A5000D4D01C00C9E7002600242800FFF740FF1F
:106A6000A642CFD106232A02134317220421009203
:106A700028000232FCF790FAFCF7A4FAC2E70726D6
:106A8000059B280019783300FFF7D8FC2800FFF792
:106A900027FF8CE7300000002C050000150C0000DB
:106AA00010B58400064B1B681B681859836B002BBC
:106AB00000D110BD38302DF0C3FB2CF029FDF1E7DB
:106AC0003000000070B5084D84002B681B681B590E
:106AD000986C002807D00C382CF0B8FB00222B68EB
:106AE0001B681B599A6470BD30000000F7B51F0089
:106AF0001C4B01921B6882001B680400D3580E00D7
:106B00009B6C002B26D01A888A4221D11D79062D34
:106B100008D0002D07D15A88019905330A803B60BF
:106B20002800FEBD80252000FFF7CCFF062DF7D101
:106B300031002000FFF788FB24022C4301000223D0
:106B4000A2B209482CF034FB06802CF055FBE7E795
:106B5000FFF7B8FF3A0030000199FDF719FE050074
:106B6000E4E7C04630000000130C0000F0B50C0054
:106B70001D008FB0159E0F880490039231002000F5
:106B8000FEF7DCFB031E28D1039A2188128891426C
:106B90001CD80F21009004A80AAA09183000FEF79B
:106BA00065FC021E04D0354B032021881B689847E2
:106BB0000F2304AA9B1829000AAA1B781498FDF732
:106BC000D1FB2288002820D101322280039A238819
:106BD00012889A4201D3002BD0D10A232780029336
:106BE00002980FB0F0BD33685D88039B1D80059B44
:106BF000002BF5D12188179B169A0498FFF776FF92
:106C00000290EDE7013EB5B2EFE7330000210498B2
:106C1000FFF748FB059002903779002FE3D1300051
:106C200017492588FEF7C4FB0028DED0280008ABF2
:106C300008971F71FEF7C6F907000135AEB2FD884F
:106C4000B542D2D3BB88B342CFD208A93000FEF7F9
:106C500059FB0B4908A8FEF7ABFB0028D2D1094924
:106C600008A8FEF7A5FB011ECCD108A8FEF7A0FBE3
:106C70000028C7D10136B6B2E1E7C0462C050000B6
:106C800003280000022800000023F0B58BB008AAFA
:106C90001371089383000493524B82001B68050014
:106CA0001B680291985838302DF0CCFB029B039062
:106CB0001C1F2388002B04D1280000F03DFD013863
:106CC00020800024029B039A5B88934257D9029B41
:106CD000043B05931B88002B51D0002C0CD0062CB4
:106CE0006FD0039B5800029B1818828819782800DF
:106CF0002300FFF7A3FB64E0039B21005E00029BDF
:106D000028009E19B28808ABFFF7CCFA041EE6D122
:106D10000A2704ABFF183A002800B18807ABFFF739
:106D2000E5FE041ECED1059B3F881B889F4200D9FB
:106D30001F003800BBB20221083005932CF05EFB27
:106D40000600BBB283803A00079906302EF024FE7D
:106D5000244B049A1B6831001B68985838302DF07A
:106D600027FA2800FFF7AEFE029B03981A1F13882C
:106D7000059901305B1A138083B20393A2E7002CBC
:106D8000ADD1280000F0D8FC0299062304390E8802
:106D90002A02F6438619B6B2134328000F22009642
:106DA0000421FCF7F9F8270005000E4B049A1B6834
:106DB00046801B689B589E6B002E07D12800FCF76D
:106DC00001F9063C604260410BB0F0BD381DB2884D
:106DD000B11D28182EF0E0FDB3883668FF18BFB249
:106DE000EAE7C04630000000F0B50E00002189B08F
:106DF00006AB1971728805000691FFF753FA041E5D
:106E00004CD10A2702ABFF183A002800718805AB65
:106E1000FFF76CFE041E41D1B3883F880393BB4249
:106E200007D907342300280072883178FFF706FB62
:106E30002FE0280000F080FC039B0138FF1A8742F6
:106E400000D9070006232A02134302AA528904210B
:106E5000009228000D22FCF79FF84780059BB1881F
:106E6000BFB23A005918039004302EF095FD0398F4
:106E7000FCF7A8F8B38802AA5289DB19934208D11B
:106E8000280000F059FC0138874202D02800FFF7A3
:106E900019FE063C6042604109B0F0BD062CF8D0F6
:106EA000C0E7F0B50E00002189B006AB069119715C
:106EB00072880500FFF7F6F9041E3BD10A2202A8EA
:106EC00012187188280005ABFFF710FE041E31D19F
:106ED00002AB28005F8900F02FFC461EBE4200D99D
:106EE0003E000623B1B22A02134303910B22009104
:106EF00028000421FCF750F80700039B3200438070
:106F0000059904302EF048FD3800FCF75BF802AB21
:106F10005B89039A934208D1280000F00DFC0138E8
:106F2000864202D02800FFF7CDFD063C604260415A
:106F300009B0F0BD062CF8D0230028007288317803
:106F4000FFF77CFAF1E700000023F0B50C008FB0EA
:106F50000CAA0C9313714A88163304A95B18251FD9
:106F60001A802B880600002B00D1B4E00027B30064
:106F700006936C4BB2001B681B689B589B6B049379
:106F8000002B01D09B790493002F5FD11625A38895
:106F90000AAA04A913806D180BA9A37903911A21D9
:106FA00004A8091802910CA901912100083100914F
:106FB00030002900FFF7DAFD071E00D099E004AB8E
:106FC0005B8B049A934201D0002A3FD1221F15887F
:106FD000043DFB2B00D9FB239D4200D91D00280056
:106FE000ABB202210C3007932CF008FA04AB5B8B98
:106FF0002A00049304ABDB8A0B99838004AB1B8BC0
:107000000590C380057209302EF0C6FC221F13883C
:107010000799043B5B1A1380424B069A1B6805993B
:107020001B68985838302DF0C3F804AB5B8B079A77
:10703000934202D13000FFF745FD04AB198B04AA3F
:107040004B1C9BB2D382A288934257D9354D069AE6
:107050002B681B68985838302DF0F4F9002857D069
:107060002B68069A1B6804219B5832029C6B0623EE
:10707000257A134304354543ADB230001122009503
:10708000FBF78AFF4580237A060004334370002310
:10709000A288F1180A71120A4A719A1CE18892B208
:1070A000B2181171090A5171210004339DB2281DD3
:1070B000227A301809312EF06FFC237A2468EB18FD
:1070C0009BB2002CE4D13000FBF77CFFB81F434299
:1070D00058410FB0F0BD00F02FFB023828806388C4
:1070E000A28801279A4200D241E7002B00D03DE759
:1070F0003DE70628AAD12B886380E7E79142A5D017
:10710000049B221F12880333934200DA3EE79DE777
:10711000162304AA9B181A8830003B002178FFF739
:107120008DF9D3E7300000000023F0B50E008FB0DA
:107130000CAA0C9313714A88163304A95B18341FE8
:107140001A8023880500002B00D1A9E00027AB009E
:107150000693674BAA001B681B689B589B6B0493A4
:10716000002B01D09B790493002F5CD11624B388A7
:107170000AAA04A9138064180BA9B37903911A21F0
:1071800004A8091802910CA901913100083100915D
:1071900028002100FFF7EAFC071E00D08EE004ABB8
:1071A0005B8B049A934201D0002A3CD1321F148891
:1071B000023CFD2B00D9FD239C4200D91C0020007D
:1071C000A3B20221083007932CF018F904AB5B8BB3
:1071D0002200049304ABDB8A0B99838005908471B1
:1071E00007302EF0D9FB321F13880799023B5B1A38
:1071F00013803F4B069A1B6805991B6898583830D6
:107200002CF0D6FF04AB5B8B079A934202D1280087
:10721000FFF758FC0AAB198804AA4B1C9BB2D38217
:10722000B28893424FD9324C069A23681B6898580B
:1072300038302DF007F900284FD02368069A1B68D4
:1072400004219B582A029C6B0623A679134302361D
:107250004643B6B2280009220096FBF79DFE468001
:10726000A3790500023343700023A288E918023392
:107270000A719EB2120A4A71301DA279E11D2818C6
:107280002EF08AFBA3792468F3189BB2002CECD172
:107290002800FBF797FEB81F434258410FB0F0BDDE
:1072A00000F04AFA023820807388B28801279A4297
:1072B00000D24CE7002B00D048E748E70628B2D1BF
:1072C00023887380E7E79142ADD0049B321F128878
:1072D0000133934200DA49E7A5E7162304AA9B1875
:1072E0001A8828003B003178FFF7A8F8D3E7C0469A
:1072F000300000000023F0B50C008DB00AAA0A93FC
:1073000013714A88163302A95B18271F1A803B881D
:107310000500002B37D0AB000593A38802AA138386
:1073200009AB03931A2316219B1802930AAB01930E
:1073300002A8A31D009309180223280008AAFFF73A
:1073400015FC061E049050D00A2828D0062814D018
:1073500002AB1B8B02AA0133D382162202A9521858
:10736000A38812889A4206D808AA12889A4202D0A4
:107370003B88032BD1D8062E11D1162302AA9B18C5
:107380001B8863802BE000F0D7F9013838806388D0
:10739000A2889A4201D3002BBDD1012304933E4F12
:1073A000AE003B681B68985938302DF04BF8002828
:1073B00000D167E00623800084B22A02134304212F
:1073C000072228000094FBF7E7FD3B6844801B6818
:1073D0009B59996B0023002944D1FBF7F3FD0498D6
:1073E0000638434258410DB0F0BDE3882B4A9B1844
:1073F000012B0ED91A2202A95218238912889A4207
:1074000028D1200009990A302EF0B8FA00280AD0B5
:1074100020E0200002AB9B7E217A099A0A30FCF71B
:10742000A1FF0028E6D0022108202BF0E7FF02ABE5
:10743000DB8A059A838008AB1B880100C380164B4A
:10744000083F1B681B68985838302CF0B1FE2800A4
:10745000FFF738FB162208AB1B8802A9013352182C
:1074600013807AE78A88C4182271120A62719A1C02
:10747000CC8892B282181471240A547104330968BA
:107480009BB2A8E7162302AA9B181A882800217825
:10749000049BFEF7D3FFA2E73000000000D8FFFFF7
:1074A00007B5002A0AD1062301020B4300920421EA
:1074B0001332FBF771FDFBF785FD07BD13000A00D2
:1074C0001221FEF7BBFFF8E7F7B505002C4E83004D
:1074D0000093336882001B689B581C6C002C00D101
:1074E000F7BD238A274901930C23227DD800475CEE
:1074F000974227D109184F68002F05D1224B290048
:1075000003201B6898470027019B002B1DD02100FA
:1075100028001431B84702000128E1D002280DD01C
:10752000002826D12800FFF7BBFA3368009A1B68B1
:10753000985840302CF084FE2BF088FE3368009A77
:107540001B68C9E7013BD1D2D8E72800217D01F0B3
:10755000ADFB0028DBD04023217D1942E2D10E296A
:1075600005D1228B12232800FEF768FFDAE7E28AB2
:10757000F8E7054B290003201B689847AEE7C04693
:1075800030000000347600182C050000F7B50A7AA8
:1075900004000D000C231E2A15D1002100F0EAF88A
:1075A000132802D0002540280BD1062123021943BD
:1075B0001D482BF07BFD00222000110000F0D8FABE
:1075C00000252800FEBD1948D900095C914226D14A
:1075D0000620174FA6003B681B689B591B6C019344
:1075E000230218432CF0B6F900230093830604D439
:1075F000019B5A425341DBB2009329003B680C398E
:107600001B68985940302CF0D3FD0023AB80009BC1
:107610000125002BD5D02000FFF756FFD1E7013B15
:10762000D1D2FF25CDE7C046410C000034760018CA
:1076300030000000020000008D6700180400000008
:10764000F165001806000000F5720018080000003F
:107650002971001810000000496F00180A0000008E
:10766000A36E00180C000000E96D00180E00000069
:10767000896C00185200000001640018120000001C
:10768000A9650018D2000000416300181600000030
:107690006564001818000000056900180002030066
:1076A000020000080C00030000040C00030000406E
:1076B0000C0003000010C00006000020300006008F
:1076C00070B50C001B4E8500012913D133681B686F
:1076D00058590369002B07D13368A4001B685B5914
:1076E000E058002814D170BD10302CF0A9FD2BF00B
:1076F000ADFDEBE70229EFD133681B685859036AE7
:10770000002BE9D020302CF09BFD2BF001FFF3E79C
:107710002BF0A6FD002806D133681B685B59E058A2
:107720000C382BF093FD002233681B685B591A510B
:10773000D9E7C04630000000034B80001B681B687F
:10774000C3585033188870473000000070B51400DB
:1077500006220D000002190004AB1E780243042328
:10776000C02098402BF024FD0570467044802BF01B
:1077700043FD70BD70B5104B05001B780C00013B3C
:10778000984205DB00220D4B110001201B68984731
:10779000032C05D90022094B110001201B689847D2
:1077A000074BAD001B68A4001B68EB58E358181E7C
:1077B00000D0187870BDC046210500002C050000DF
:1077C0003000000070B5104B05001B780C00013B29
:1077D000984205DB00220D4B110001201B689847E1
:1077E000032C05D90022094B110001201B68984782
:1077F000074BAD001B68A4001B68EB58E358181E2C
:1078000000D0588870BDC046210500002C0500003E
:107810003000000070B50E4B05001B780C00013BDA
:10782000984205DB00220B4B110001201B68984792
:10783000032C05D90022074B110001201B68984733
:10784000054BAD001B68A4001B68EB58E05870BDE9
:10785000210500002C05000030000000F7B51D4F89
:10786000830001933B6882001B6804009B581A4AFE
:1078700091422AD911001A00012650325333118047
:1078800020001E7002F0DCFA0622230201001A43D7
:10789000124804232BF08CFC3B68A2001B683100CB
:1078A0009B58050050331B8803802000FFF762FFC0
:1078B00000230100B04203D12000FFF7ABFF438853
:1078C00028006B802BF098FCF7BD1729D3D2172125
:1078D000D1E7C0463000000005020000020C0000A5
:1078E00070B50F4B05001B780C00013B1600984249
:1078F00005DB00220B4B110001201B689847032C6D
:1079000005D90022074B110001201B689847064B40
:10791000AD001B68A4001B68EB58E65070BDC04664
:10792000210500002C0500003000000070B5154B4B
:1079300004001B780D00013B984205DB0022124B2E
:10794000110001201B689847032D05D900220E4B1A
:10795000110001201B68984700200C4BA2001B68F7
:10796000AD001B68D358ED5885420AD028002BF093
:1079700074FC062124020200214328002BF055FC50
:10798000012070BD210500002C0500003000000022
:1079900070B5114B05001B780C00013B984205DBCC
:1079A00000220E4B110001201B689847032C05D9BB
:1079B00000220A4B110001201B6898470020084B49
:1079C000AD001B68A4001B68EB58E358834202D04B
:1079D00018002BF042FC70BD210500002C050000B2
:1079E0003000000070B50624000204432000160099
:1079F0000D002BF0AFFF002E05D02843C1B22000B0
:107A00002BF040FF70BDA843F8E7000070B50021DF
:107A1000060054202BF0F2FC041E05D11D4B020081
:107A200001001B6801209847002520006560A560C3
:107A3000E56010302CF0A6FB200018302CF0A2FBE3
:107A4000200020302CF09EFB2000A5622560303005
:107A50002CF098FB200038302CF094FB20004030B4
:107A60002CF090FB230004224D33A5641A701723D9
:107A700006202365084BB2001B6829001B68D45000
:107A8000330218432BF0FEFE300001222021FFF7C5
:107A9000A9FF70BD2C05000030000000F0B585B0D6
:107AA00004000AA8008801900BA8008802900CA886
:107AB0000088039000294DD02B49A60009681700C3
:107AC00009688D5901213035687F0F40884307438D
:107AD0008B400220874303403B4304270240BB43C3
